{
	"data": {
		"bytecode": {
			"linkReferences": {},
			"object": "60806040526040518060400160405280600381526020017f302e3300000000000000000000000000000000000000000000000000000000008152505f9081620000499190620014b4565b5034801562000056575f80fd5b5060405162005bd038038062005bd083398181016040528101906200007c9190620015cb565b60405180602001604052805f815250701c35fedd14ffffffffffffffffffffffff6001602060808110620000b557620000b4620015fb565b5b0181905550701b0ce43b323fffffffffffffffffffffff6001602160808110620000e457620000e3620015fb565b5b01819055507019f0028ec1ffffffffffffffffffffffff6001602260808110620001135762000112620015fb565b5b01819055507018ded91f0e7fffffffffffffffffffffff6001602360808110620001425762000141620015fb565b5b01819055507017d8ec7f0417ffffffffffffffffffffff6001602460808110620001715762000170620015fb565b5b01819055507016ddc6556cdbffffffffffffffffffffff6001602560808110620001a0576200019f620015fb565b5b01819055507015ecf52776a1ffffffffffffffffffffff6001602660808110620001cf57620001ce620015fb565b5b01819055507015060c256cb2ffffffffffffffffffffff6001602760808110620001fe57620001fd620015fb565b5b0181905550701428a2f98d72ffffffffffffffffffffff60016028608081106200022d576200022c620015fb565b5b01819055507013545598e5c23fffffffffffffffffffff60016029608081106200025c576200025b620015fb565b5b0181905550701288c4161ce1dfffffffffffffffffffff6001602a608081106200028b576200028a620015fb565b5b01819055507011c592761c666fffffffffffffffffffff6001602b60808110620002ba57620002b9620015fb565b5b018190555070110a688680a757ffffffffffffffffffff6001602c60808110620002e957620002e8620015fb565b5b0181905550701056f1b5bedf77ffffffffffffffffffff6001602d60808110620003185762000317620015fb565b5b0181905550700faadceceeff8bffffffffffffffffffff6001602e60808110620003475762000346620015fb565b5b0181905550700f05dc6b27edadffffffffffffffffffff6001602f60808110620003765762000375620015fb565b5b0181905550700e67a5a25da4107fffffffffffffffffff6001603060808110620003a557620003a4620015fb565b5b0181905550700dcff115b14eedffffffffffffffffffff6001603160808110620003d457620003d3620015fb565b5b0181905550700d3e7a392431239fffffffffffffffffff6001603260808110620004035762000402620015fb565b5b0181905550700cb2ff529eb71e4fffffffffffffffffff6001603360808110620004325762000431620015fb565b5b0181905550700c2d415c3db974afffffffffffffffffff6001603460808110620004615762000460620015fb565b5b0181905550700bad03e7d883f69bffffffffffffffffff600160356080811062000490576200048f620015fb565b5b0181905550700b320d03b2c343d5ffffffffffffffffff6001603660808110620004bf57620004be620015fb565b5b0181905550700abc25204e02828dffffffffffffffffff6001603760808110620004ee57620004ed620015fb565b5b0181905550700a4b16f74ee4bb207fffffffffffffffff60016038608081106200051d576200051c620015fb565b5b01819055507009deaf736ac1f569ffffffffffffffffff60016039608081106200054c576200054b620015fb565b5b0181905550700976bd9952c7aa957fffffffffffffffff6001603a608081106200057b576200057a620015fb565b5b01819055507009131271922eaa606fffffffffffffffff6001603b60808110620005aa57620005a9620015fb565b5b01819055507008b380f3558668c46fffffffffffffffff6001603c60808110620005d957620005d8620015fb565b5b0181905550700857ddf0117efa215bffffffffffffffff6001603d60808110620006085762000607620015fb565b5b01819055507007ffffffffffffffffffffffffffffffff6001603e60808110620006375762000636620015fb565b5b01819055507007abbf6f6abb9d087fffffffffffffffff6001603f60808110620006665762000665620015fb565b5b018190555070075af62cbac95f7dfa7fffffffffffffff6001604060808110620006955762000694620015fb565b5b018190555070070d7fb7452e187ac13fffffffffffffff6001604160808110620006c457620006c3620015fb565b5b01819055507006c3390ecc8af379295fffffffffffffff6001604260808110620006f357620006f2620015fb565b5b018190555070067c00a3b07ffc01fd6fffffffffffffff6001604360808110620007225762000721620015fb565b5b0181905550700637b647c39cbb9d3d27ffffffffffffff6001604460808110620007515762000750620015fb565b5b01819055507005f63b1fc104dbd39587ffffffffffffff600160456080811062000780576200077f620015fb565b5b01819055507005b771955b36e12f7235ffffffffffffff6001604660808110620007af57620007ae620015fb565b5b018190555070057b3d49dda84556d6f6ffffffffffffff6001604760808110620007de57620007dd620015fb565b5b018190555070054183095b2c8ececf30ffffffffffffff60016048608081106200080d576200080c620015fb565b5b018190555070050a28be635ca2b888f77fffffffffffff60016049608081106200083c576200083b620015fb565b5b01819055507004d5156639708c9db33c3fffffffffffff6001604a608081106200086b576200086a620015fb565b5b01819055507004a23105873875bd52dfdfffffffffffff6001604b608081106200089a5762000899620015fb565b5b0181905550700471649d87199aa990756fffffffffffff6001604c60808110620008c957620008c8620015fb565b5b01819055507004429a21a029d4c1457cfbffffffffffff6001604d60808110620008f857620008f7620015fb565b5b0181905550700415bc6d6fb7dd71af2cb3ffffffffffff6001604e60808110620009275762000926620015fb565b5b01819055507003eab73b3bbfe282243ce1ffffffffffff6001604f60808110620009565762000955620015fb565b5b01819055507003c1771ac9fb6b4c18e229ffffffffffff6001605060808110620009855762000984620015fb565b5b0181905550700399e96897690418f785257fffffffffff6001605160808110620009b457620009b3620015fb565b5b0181905550700373fc456c53bb779bf0ea9fffffffffff6001605260808110620009e357620009e2620015fb565b5b018190555070034f9e8e490c48e67e6ab8bfffffffffff600160536080811062000a125762000a11620015fb565b5b018190555070032cbfd4a7adc790560b3337ffffffffff600160546080811062000a415762000a40620015fb565b5b018190555070030b50570f6e5d2acca94613ffffffffff600160556080811062000a705762000a6f620015fb565b5b01819055507002eb40f9f620fda6b56c2861ffffffffff600160566080811062000a9f5762000a9e620015fb565b5b01819055507002cc8340ecb0d0f520a6af58ffffffffff600160576080811062000ace5762000acd620015fb565b5b01819055507002af09481380a0a35cf1ba02ffffffffff600160586080811062000afd5762000afc620015fb565b5b0181905550700292c5bdd3b92ec810287b1b3fffffffff600160596080811062000b2c5762000b2b620015fb565b5b0181905550700277abdcdab07d5a77ac6d6b9fffffffff6001605a6080811062000b5b5762000b5a620015fb565b5b018190555070025daf6654b1eaa55fd64df5efffffffff6001605b6080811062000b8a5762000b89620015fb565b5b0181905550700244c49c648baa98192dce88b7ffffffff6001605c6080811062000bb95762000bb8620015fb565b5b018190555070022ce03cd5619a311b2471268bffffffff6001605d6080811062000be85762000be7620015fb565b5b0181905550700215f77c045fbe885654a44a0fffffffff6001605e6080811062000c175762000c16620015fb565b5b01819055507001ffffffffffffffffffffffffffffffff6001605f6080811062000c465762000c45620015fb565b5b01819055507001eaefdbdaaee7421fc4d3ede5ffffffff600160606080811062000c755762000c74620015fb565b5b01819055507001d6bd8b2eb257df7e8ca57b09bfffffff600160616080811062000ca45762000ca3620015fb565b5b01819055507001c35fedd14b861eb0443f7f133fffffff600160626080811062000cd35762000cd2620015fb565b5b01819055507001b0ce43b322bcde4a56e8ada5afffffff600160636080811062000d025762000d01620015fb565b5b018190555070019f0028ec1fff007f5a195a39dfffffff600160646080811062000d315762000d30620015fb565b5b018190555070018ded91f0e72ee74f49b15ba527ffffff600160656080811062000d605762000d5f620015fb565b5b018190555070017d8ec7f04136f4e5615fd41a63ffffff600160666080811062000d8f5762000d8e620015fb565b5b018190555070016ddc6556cdb84bdc8d12d22e6fffffff600160676080811062000dbe5762000dbd620015fb565b5b018190555070015ecf52776a1155b5bd8395814f7fffff600160686080811062000ded5762000dec620015fb565b5b018190555070015060c256cb23b3b3cc3754cf40ffffff600160696080811062000e1c5762000e1b620015fb565b5b01819055507001428a2f98d728ae223ddab715be3fffff6001606a6080811062000e4b5762000e4a620015fb565b5b018190555070013545598e5c23276ccf0ede68034fffff6001606b6080811062000e7a5762000e79620015fb565b5b01819055507001288c4161ce1d6f54b7f61081194fffff6001606c6080811062000ea95762000ea8620015fb565b5b018190555070011c592761c666aa641d5a01a40f17ffff6001606d6080811062000ed85762000ed7620015fb565b5b0181905550700110a688680a7530515f3e6e6cfdcdffff6001606e6080811062000f075762000f06620015fb565b5b01819055507001056f1b5bedf75c6bcb2ce8aed428ffff6001606f6080811062000f365762000f35620015fb565b5b01819055506ffaadceceeff8a0890f3875f008277fff600160706080811062000f645762000f63620015fb565b5b01819055506ff05dc6b27edad306388a600f6ba0bfff600160716080811062000f925762000f91620015fb565b5b01819055506fe67a5a25da41063de1495d5b18cdbfff600160726080811062000fc05762000fbf620015fb565b5b01819055506fdcff115b14eedde6fc3aa5353f2e4fff600160736080811062000fee5762000fed620015fb565b5b01819055506fd3e7a3924312399f9aae2e0f868f8fff60016074608081106200101c576200101b620015fb565b5b01819055506fcb2ff529eb71e41582cccd5a1ee26fff60016075608081106200104a5762001049620015fb565b5b01819055506fc2d415c3db974ab32a51840c0b67edff6001607660808110620010785762001077620015fb565b5b01819055506fbad03e7d883f69ad5b0a186184e06bff6001607760808110620010a657620010a5620015fb565b5b01819055506fb320d03b2c343d4829abd6075f0cc5ff6001607860808110620010d457620010d3620015fb565b5b01819055506fabc25204e02828d73c6e80bcdb1a95bf6001607960808110620011025762001101620015fb565b5b01819055506fa4b16f74ee4bb2040a1ec6c15fbbf2df6001607a6080811062001130576200112f620015fb565b5b01819055506f9deaf736ac1f569deb1b5ae3f36c130f6001607b608081106200115e576200115d620015fb565b5b01819055506f976bd9952c7aa957f5937d790ef650376001607c608081106200118c576200118b620015fb565b5b01819055506f9131271922eaa6064b73a22d0bd4f2bf6001607d60808110620011ba57620011b9620015fb565b5b01819055506f8b380f3558668c46c91c49a2f8e967b96001607e60808110620011e857620011e7620015fb565b5b01819055506f857ddf0117efa215952912839f6473e66001607f60808110620012165762001215620015fb565b5b01819055506200122c816200123b60201b60201c565b50806087819055505062001628565b80608390816200124c9190620014b4565b5050565b5f81519050919050565b7f4e487b71000000000000000000000000000000000000000000000000000000005f52604160045260245ffd5b7f4e487b71000000000000000000000000000000000000000000000000000000005f52602260045260245ffd5b5f6002820490506001821680620012cc57607f821691505b602082108103620012e257620012e162001287565b5b50919050565b5f819050815f5260205f209050919050565b5f6020601f8301049050919050565b5f82821b905092915050565b5f60088302620013467fffffffffffffffffffffffffffffffffffffffffffffffffffffffffffffffff8262001309565b62001352868362001309565b95508019841693508086168417925050509392505050565b5f819050919050565b5f819050919050565b5f6200139c6200139662001390846200136a565b62001373565b6200136a565b9050919050565b5f819050919050565b620013b7836200137c565b620013cf620013c682620013a3565b84845462001315565b825550505050565b5f90565b620013e5620013d7565b620013f2818484620013ac565b505050565b5b8181101562001419576200140d5f82620013db565b600181019050620013f8565b5050565b601f82111562001468576200143281620012e8565b6200143d84620012fa565b810160208510156200144d578190505b620014656200145c85620012fa565b830182620013f7565b50505b505050565b5f82821c905092915050565b5f6200148a5f19846008026200146d565b1980831691505092915050565b5f620014a4838362001479565b9150826002028217905092915050565b620014bf8262001250565b67ffffffffffffffff811115620014db57620014da6200125a565b5b620014e78254620012b4565b620014f48282856200141d565b5f60209050601f8311600181146200152a575f841562001515578287015190505b62001521858262001497565b86555062001590565b601f1984166200153a86620012e8565b5f5b8281101562001563578489015182556001820191506020850194506020810190506200153c565b868310156200158357848901516200157f601f89168262001479565b8355505b6001600288020188555050505b505050505050565b5f80fd5b620015a7816200136a565b8114620015b2575f80fd5b50565b5f81519050620015c5816200159c565b92915050565b5f60208284031215620015e357620015e262001598565b5b5f620015f284828501620015b5565b91505092915050565b7f4e487b71000000000000000000000000000000000000000000000000000000005f52603260045260245ffd5b61459a80620016365f395ff3fe608060405234801561000f575f80fd5b506004361061011e575f3560e01c80634e1273f4116100ab578063bd85b0391161006f578063bd85b03914610364578063e985e9c514610394578063eced5526146103c4578063ee37778d146103e2578063f242432a146104125761011e565b80634e1273f41461029a5780634f558e79146102ca57806354fd4d50146102fa578063a22cb46514610318578063a3111abd146103345761011e565b806314269687116100f257806314269687146101d057806318160ddd1461020057806329a00e7c1461021e5780632eb2c2d61461024e57806349f9b0f71461026a5761011e565b8062fdd58e1461012257806301ffc9a7146101525780630c7d5cd8146101825780630e89341c146101a0575b5f80fd5b61013c600480360381019061013791906135fb565b61042e565b6040516101499190613648565b60405180910390f35b61016c600480360381019061016791906136b6565b610484565b60405161017991906136fb565b60405180910390f35b61018a610565565b6040516101979190613648565b60405180910390f35b6101ba60048036038101906101b59190613714565b61056b565b6040516101c791906137c9565b60405180910390f35b6101ea60048036038101906101e59190613714565b6105fd565b6040516101f79190613648565b60405180910390f35b610208610612565b6040516102159190613648565b60405180910390f35b61023860048036038101906102339190613822565b61061b565b6040516102459190613648565b60405180910390f35b61026860048036038101906102639190613a76565b61074c565b005b610284600480360381019061027f9190613822565b6107f3565b6040516102919190613648565b60405180910390f35b6102b460048036038101906102af9190613c01565b610956565b6040516102c19190613d2e565b60405180910390f35b6102e460048036038101906102df9190613714565b610a63565b6040516102f191906136fb565b60405180910390f35b610302610a76565b60405161030f91906137c9565b60405180910390f35b610332600480360381019061032d9190613d78565b610b01565b005b61034e60048036038101906103499190613db6565b610b17565b60405161035b9190613648565b60405180910390f35b61037e60048036038101906103799190613714565b610b47565b60405161038b9190613648565b60405180910390f35b6103ae60048036038101906103a99190613df4565b610b61565b6040516103bb91906136fb565b60405180910390f35b6103cc610bef565b6040516103d99190613648565b60405180910390f35b6103fc60048036038101906103f79190613db6565b610bfb565b6040516104099190613648565b60405180910390f35b61042c60048036038101906104279190613e32565b610c2b565b005b5f60815f8381526020019081526020015f205f8473ffffffffffffffffffffffffffffffffffffffff1673ffffffffffffffffffffffffffffffffffffffff1681526020019081526020015f2054905092915050565b5f7fd9b67a26000000000000000000000000000000000000000000000000000000007bffffffffffffffffffffffffffffffffffffffffffffffffffffffff1916827bffffffffffffffffffffffffffffffffffffffffffffffffffffffff1916148061054e57507f0e89341c000000000000000000000000000000000000000000000000000000007bffffffffffffffffffffffffffffffffffffffffffffffffffffffff1916827bffffffffffffffffffffffffffffffffffffffffffffffffffffffff1916145b8061055e575061055d82610cd2565b5b9050919050565b60875481565b60606083805461057a90613ef2565b80601f01602080910402602001604051908101604052809291908181526020018280546105a690613ef2565b80156105f15780601f106105c8576101008083540402835291602001916105f1565b820191905f5260205f20905b8154815290600101906020018083116105d457829003601f168201915b50505050509050919050565b6086602052805f5260405f205f915090505481565b5f608554905090565b5f808511801561062a57505f84115b801561063b57505f8363ffffffff16115b80156106565750620f424063ffffffff168363ffffffff1611155b610695576040517f08c379a000000000000000000000000000000000000000000000000000000000815260040161068c90613f6c565b60405180910390fd5b5f82036106a4575f9050610744565b620f424063ffffffff168363ffffffff16036106e6576106df846106d18488610d3b90919063ffffffff16565b610d5090919063ffffffff16565b9050610744565b5f805f6106fc8786610d6590919063ffffffff16565b905061070d818888620f4240610d7a565b80935081945050505f8260ff1661072d858b610d3b90919063ffffffff16565b901c9050888161073d9190613fb7565b9450505050505b949350505050565b5f610755610f03565b90508073ffffffffffffffffffffffffffffffffffffffff168673ffffffffffffffffffffffffffffffffffffffff161415801561079a57506107988682610b61565b155b156107de5780866040517fe237d9220000000000000000000000000000000000000000000000000000000081526004016107d5929190613ff9565b60405180910390fd5b6107eb8686868686610f0a565b505050505050565b5f808511801561080257505f84115b801561081357505f8363ffffffff16115b801561082e5750620f424063ffffffff168363ffffffff1611155b801561083a5750848211155b610879576040517f08c379a000000000000000000000000000000000000000000000000000000000815260040161087090613f6c565b60405180910390fd5b5f8203610888575f905061094e565b8482036108975783905061094e565b620f424063ffffffff168363ffffffff16036108d9576108d2856108c48487610d3b90919063ffffffff16565b610d5090919063ffffffff16565b905061094e565b5f805f84886108e89190613fb7565b90506108f98882620f424089610d7a565b80935081945050505f6109158489610d3b90919063ffffffff16565b90505f8360ff1689901b9050610946856109388385610ffe90919063ffffffff16565b610d5090919063ffffffff16565b955050505050505b949350505050565b606081518351146109a257815183516040517f5b059991000000000000000000000000000000000000000000000000000000008152600401610999929190614020565b60405180910390fd5b5f835167ffffffffffffffff8111156109be576109bd61388a565b5b6040519080825280602002602001820160405280156109ec5781602001602082028036833780820191505090505b5090505f5b8451811015610a5857610a28610a10828761101390919063ffffffff16565b610a23838761102690919063ffffffff16565b61042e565b828281518110610a3b57610a3a614047565b5b60200260200101818152505080610a5190614074565b90506109f1565b508091505092915050565b5f80610a6e83610b47565b119050919050565b5f8054610a8290613ef2565b80601f0160208091040260200160405190810160405280929190818152602001828054610aae90613ef2565b8015610af95780601f10610ad057610100808354040283529160200191610af9565b820191905f5260205f20905b815481529060010190602001808311610adc57829003601f168201915b505050505081565b610b13610b0c610f03565b8383611039565b5050565b5f610b3f610b2484610b47565b60865f8681526020019081526020015f20546087548561061b565b905092915050565b5f60845f8381526020019081526020015f20549050919050565b5f60825f8473ffffffffffffffffffffffffffffffffffffffff1673ffffffffffffffffffffffffffffffffffffffff1681526020019081526020015f205f8373ffffffffffffffffffffffffffffffffffffffff1673ffffffffffffffffffffffffffffffffffffffff1681526020019081526020015f205f9054906101000a900460ff16905092915050565b670de0b6b3a764000081565b5f610c23610c0884610b47565b60865f8681526020019081526020015f2054608754856107f3565b905092915050565b5f610c34610f03565b90508073ffffffffffffffffffffffffffffffffffffffff168673ffffffffffffffffffffffffffffffffffffffff1614158015610c795750610c778682610b61565b155b15610cbd5780866040517fe237d922000000000000000000000000000000000000000000000000000000008152600401610cb4929190613ff9565b60405180910390fd5b610cca86868686866111a2565b505050505050565b5f7f01ffc9a7000000000000000000000000000000000000000000000000000000007bffffffffffffffffffffffffffffffffffffffffffffffffffffffff1916827bffffffffffffffffffffffffffffffffffffffffffffffffffffffff1916149050919050565b5f8183610d4891906140bb565b905092915050565b5f8183610d5d9190614129565b905092915050565b5f8183610d729190614159565b905092915050565b5f807002000000000000000000000000000000008610610dcf576040517f08c379a0000000000000000000000000000000000000000000000000000000008152600401610dc6906141d6565b60405180910390fd5b84861015610e12576040517f08c379a0000000000000000000000000000000000000000000000000000000008152600401610e099061423e565b60405180910390fd5b5f80866f8000000000000000000000000000000089610e3191906140bb565b610e3b9190614129565b905070015bf0a8b1457695355fb8ac404e7a79e3811015610e6657610e5f816112a8565b9150610e72565b610e6f81611a1d565b91505b5f8563ffffffff168763ffffffff1684610e8c91906140bb565b610e969190614129565b9050700800000000000000000000000000000000811015610ec857610eba81611b77565b607f94509450505050610efa565b5f610ed282612371565b9050610ef081607f610ee49190614268565b60ff1683901c8261244e565b8195509550505050505b94509492505050565b5f33905090565b5f73ffffffffffffffffffffffffffffffffffffffff168473ffffffffffffffffffffffffffffffffffffffff1603610f7a575f6040517f57f447ce000000000000000000000000000000000000000000000000000000008152600401610f71919061429c565b60405180910390fd5b5f73ffffffffffffffffffffffffffffffffffffffff168573ffffffffffffffffffffffffffffffffffffffff1603610fea575f6040517f01a83514000000000000000000000000000000000000000000000000000000008152600401610fe1919061429c565b60405180910390fd5b610ff78585858585612b5b565b5050505050565b5f818361100b9190613fb7565b905092915050565b5f60208202602084010151905092915050565b5f60208202602084010151905092915050565b5f73ffffffffffffffffffffffffffffffffffffffff168273ffffffffffffffffffffffffffffffffffffffff16036110a9575f6040517fced3e1000000000000000000000000000000000000000000000000000000000081526004016110a0919061429c565b60405180910390fd5b8060825f8573ffffffffffffffffffffffffffffffffffffffff1673ffffffffffffffffffffffffffffffffffffffff1681526020019081526020015f205f8473ffffffffffffffffffffffffffffffffffffffff1673ffffffffffffffffffffffffffffffffffffffff1681526020019081526020015f205f6101000a81548160ff0219169083151502179055508173ffffffffffffffffffffffffffffffffffffffff168373ffffffffffffffffffffffffffffffffffffffff167f17307eab39ab6107e8899845ad3d59bd9653f200f220920489ca2b5937696c318360405161119591906136fb565b60405180910390a3505050565b5f73ffffffffffffffffffffffffffffffffffffffff168473ffffffffffffffffffffffffffffffffffffffff1603611212575f6040517f57f447ce000000000000000000000000000000000000000000000000000000008152600401611209919061429c565b60405180910390fd5b5f73ffffffffffffffffffffffffffffffffffffffff168573ffffffffffffffffffffffffffffffffffffffff1603611282575f6040517f01a83514000000000000000000000000000000000000000000000000000000008152600401611279919061429c565b60405180910390fd5b5f8061128e8585612c07565b9150915061129f8787848487612b5b565b50505050505050565b5f805f90505f805f6fd3094c70f034de4b96ff7d5b6f99fcd8861061131f576f40000000000000000000000000000000846112e39190614159565b93506fd3094c70f034de4b96ff7d5b6f99fcd86f800000000000000000000000000000008761131291906140bb565b61131c9190614129565b95505b6fa45af1e1f40c333b3de1db4dd55f29a7861061138e576f20000000000000000000000000000000846113529190614159565b93506fa45af1e1f40c333b3de1db4dd55f29a76f800000000000000000000000000000008761138191906140bb565b61138b9190614129565b95505b6f910b022db7ae67ce76b441c27035c6a186106113fd576f10000000000000000000000000000000846113c19190614159565b93506f910b022db7ae67ce76b441c27035c6a16f80000000000000000000000000000000876113f091906140bb565b6113fa9190614129565b95505b6f88415abbe9a76bead8d00cf112e4d4a8861061146c576f08000000000000000000000000000000846114309190614159565b93506f88415abbe9a76bead8d00cf112e4d4a86f800000000000000000000000000000008761145f91906140bb565b6114699190614129565b95505b6f84102b00893f64c705e841d5d4064bd386106114db576f040000000000000000000000000000008461149f9190614159565b93506f84102b00893f64c705e841d5d4064bd36f80000000000000000000000000000000876114ce91906140bb565b6114d89190614129565b95505b6f8204055aaef1c8bd5c3259f4822735a2861061154a576f020000000000000000000000000000008461150e9190614159565b93506f8204055aaef1c8bd5c3259f4822735a26f800000000000000000000000000000008761153d91906140bb565b6115479190614129565b95505b6f810100ab00222d861931c15e39b44e9986106115b9576f010000000000000000000000000000008461157d9190614159565b93506f810100ab00222d861931c15e39b44e996f80000000000000000000000000000000876115ac91906140bb565b6115b69190614129565b95505b6f808040155aabbbe9451521693554f7338610611627576e800000000000000000000000000000846115eb9190614159565b93506f808040155aabbbe9451521693554f7336f800000000000000000000000000000008761161a91906140bb565b6116249190614129565b95505b6f80000000000000000000000000000000866116439190613fb7565b92508291506f80000000000000000000000000000000838461166591906140bb565b61166f9190614129565b9050700100000000000000000000000000000000837001000000000000000000000000000000006116a09190613fb7565b836116ab91906140bb565b6116b59190614129565b846116c09190614159565b93506f8000000000000000000000000000000081836116df91906140bb565b6116e99190614129565b9150700200000000000000000000000000000000836faaaaaaaaaaaaaaaaaaaaaaaaaaaaaaaa6117199190613fb7565b8361172491906140bb565b61172e9190614129565b846117399190614159565b93506f80000000000000000000000000000000818361175891906140bb565b6117629190614129565b9150700300000000000000000000000000000000836f999999999999999999999999999999996117929190613fb7565b8361179d91906140bb565b6117a79190614129565b846117b29190614159565b93506f8000000000000000000000000000000081836117d191906140bb565b6117db9190614129565b9150700400000000000000000000000000000000836f9249249249249249249249249249249261180b9190613fb7565b8361181691906140bb565b6118209190614129565b8461182b9190614159565b93506f80000000000000000000000000000000818361184a91906140bb565b6118549190614129565b9150700500000000000000000000000000000000836f8e38e38e38e38e38e38e38e38e38e38e6118849190613fb7565b8361188f91906140bb565b6118999190614129565b846118a49190614159565b93506f8000000000000000000000000000000081836118c391906140bb565b6118cd9190614129565b9150700600000000000000000000000000000000836f8ba2e8ba2e8ba2e8ba2e8ba2e8ba2e8b6118fd9190613fb7565b8361190891906140bb565b6119129190614129565b8461191d9190614159565b93506f80000000000000000000000000000000818361193c91906140bb565b6119469190614129565b9150700700000000000000000000000000000000836f89d89d89d89d89d89d89d89d89d89d896119769190613fb7565b8361198191906140bb565b61198b9190614129565b846119969190614159565b93506f8000000000000000000000000000000081836119b591906140bb565b6119bf9190614129565b9150700800000000000000000000000000000000836f888888888888888888888888888888886119ef9190613fb7565b836119fa91906140bb565b611a049190614129565b84611a0f9190614159565b935083945050505050919050565b5f805f90505f8390507001000000000000000000000000000000008110611a91575f611a636f8000000000000000000000000000000083611a5e9190614129565b612c37565b90508060ff1682901c91506f800000000000000000000000000000008160ff16611a8d91906140bb565b9250505b6f80000000000000000000000000000000811115611b37575f607f90505b5f8160ff161115611b35576f800000000000000000000000000000008283611ad791906140bb565b611ae19190614129565b91507001000000000000000000000000000000008210611b2457600182901c9150600181611b0f9190614268565b60ff166001901b83611b219190614159565b92505b80611b2e906142b5565b9050611aaf565b505b6f05b9de1d10bf4103d647b0955897ba806f03f80fe03f80fe03f80fe03f80fe03f883611b6491906140bb565b611b6e9190614129565b92505050919050565b5f805f90505f806f1000000000000000000000000000000085611b9a91906142dc565b91508190506f800000000000000000000000000000008282611bbc91906140bb565b611bc69190614129565b90506710e1b3be415a000081611bdc91906140bb565b83611be79190614159565b92506f800000000000000000000000000000008282611c0691906140bb565b611c109190614129565b90506705a0913f6b1e000081611c2691906140bb565b83611c319190614159565b92506f800000000000000000000000000000008282611c5091906140bb565b611c5a9190614129565b9050670168244fdac7800081611c7091906140bb565b83611c7b9190614159565b92506f800000000000000000000000000000008282611c9a91906140bb565b611ca49190614129565b9050664807432bc1800081611cb991906140bb565b83611cc49190614159565b92506f800000000000000000000000000000008282611ce391906140bb565b611ced9190614129565b9050660c0135dca0400081611d0291906140bb565b83611d0d9190614159565b92506f800000000000000000000000000000008282611d2c91906140bb565b611d369190614129565b90506601b707b1cdc00081611d4b91906140bb565b83611d569190614159565b92506f800000000000000000000000000000008282611d7591906140bb565b611d7f9190614129565b90506536e0f639b80081611d9391906140bb565b83611d9e9190614159565b92506f800000000000000000000000000000008282611dbd91906140bb565b611dc79190614129565b9050650618fee9f80081611ddb91906140bb565b83611de69190614159565b92506f800000000000000000000000000000008282611e0591906140bb565b611e0f9190614129565b9050649c197dcc0081611e2291906140bb565b83611e2d9190614159565b92506f800000000000000000000000000000008282611e4c91906140bb565b611e569190614129565b9050640e30dce40081611e6991906140bb565b83611e749190614159565b92506f800000000000000000000000000000008282611e9391906140bb565b611e9d9190614129565b905064012ebd130081611eb091906140bb565b83611ebb9190614159565b92506f800000000000000000000000000000008282611eda91906140bb565b611ee49190614129565b90506317499f0081611ef691906140bb565b83611f019190614159565b92506f800000000000000000000000000000008282611f2091906140bb565b611f2a9190614129565b90506301a9d48081611f3c91906140bb565b83611f479190614159565b92506f800000000000000000000000000000008282611f6691906140bb565b611f709190614129565b9050621c638081611f8191906140bb565b83611f8c9190614159565b92506f800000000000000000000000000000008282611fab91906140bb565b611fb59190614129565b90506201c63881611fc691906140bb565b83611fd19190614159565b92506f800000000000000000000000000000008282611ff091906140bb565b611ffa9190614129565b9050611ab88161200a91906140bb565b836120159190614159565b92506f80000000000000000000000000000000828261203491906140bb565b61203e9190614129565b905061017c8161204e91906140bb565b836120599190614159565b92506f80000000000000000000000000000000828261207891906140bb565b6120829190614129565b905060148161209191906140bb565b8361209c9190614159565b92506f8000000000000000000000000000000082826120bb91906140bb565b6120c59190614129565b90506001816120d491906140bb565b836120df9190614159565b92506f80000000000000000000000000000000826721c3677c82b40000856121079190614129565b6121119190614159565b61211b9190614159565b92505f6f100000000000000000000000000000008616146121725770018ebef9eac820ae8682b9793ac6d1e7767001c3d6a24ed82218787d624d3e5eba95f98461216591906140bb565b61216f9190614129565b92505b5f6f200000000000000000000000000000008616146121c7577001368b2fc6f9609fe7aceb46aa619baed470018ebef9eac820ae8682b9793ac6d1e778846121ba91906140bb565b6121c49190614129565b92505b5f6f4000000000000000000000000000000086161461221b576fbc5ab1b16779be3575bd8f0520a9f21f7001368b2fc6f9609fe7aceb46aa619baed58461220e91906140bb565b6122189190614129565b92505b5f6f8000000000000000000000000000000086161461226e576f454aaa8efe072e7f6ddbab84b40a55c96fbc5ab1b16779be3575bd8f0520a9f21e8461226191906140bb565b61226b9190614129565b92505b5f7001000000000000000000000000000000008616146122c2576f0960aadc109e7a3bf4578099615711ea6f454aaa8efe072e7f6ddbab84b40a55c5846122b591906140bb565b6122bf9190614129565b92505b5f700200000000000000000000000000000000861614612315576e2bf84208204f5977f9a8cf01fdce3d6f0960aadc109e7a3bf4578099615711d78461230891906140bb565b6123129190614129565b92505b5f700400000000000000000000000000000000861614612366576d03c6ab775dd0b95b4cbee7e65d116e2bf84208204f5977f9a8cf01fdc3078461235991906140bb565b6123639190614129565b92505b829350505050919050565b5f80602090505f607f90505b8060ff1660018361238e919061430c565b60ff1610156123e3575f600282846123a6919061430c565b6123b09190614340565b90508460018260ff16608081106123ca576123c9614047565b5b0154106123d9578092506123dd565b8091505b5061237d565b8360018260ff16608081106123fb576123fa614047565b5b01541061240c578092505050612449565b8360018360ff166080811061242457612423614047565b5b015410612435578192505050612449565b5f61244357612442614370565b5b5f925050505b919050565b5f808390505f8360ff16858361246491906140bb565b901c91506f03442c4e6074a82f1797f72ac00000008261248491906140bb565b8161248f9190614159565b90508360ff1685836124a191906140bb565b901c91506f0116b96f757c380fb287fd0e40000000826124c191906140bb565b816124cc9190614159565b90508360ff1685836124de91906140bb565b901c91506e45ae5bdd5f0e03eca1ff4390000000826124fd91906140bb565b816125089190614159565b90508360ff16858361251a91906140bb565b901c91506e0defabf91302cd95b9ffda500000008261253991906140bb565b816125449190614159565b90508360ff16858361255691906140bb565b901c91506e02529ca9832b22439efff9b80000008261257591906140bb565b816125809190614159565b90508360ff16858361259291906140bb565b901c91506d54f1cf12bd04e516b6da88000000826125b091906140bb565b816125bb9190614159565b90508360ff1685836125cd91906140bb565b901c91506d0a9e39e257a09ca2d6db51000000826125eb91906140bb565b816125f69190614159565b90508360ff16858361260891906140bb565b901c91506d012e066e7b839fa050c3090000008261262691906140bb565b816126319190614159565b90508360ff16858361264391906140bb565b901c91506c1e33d7d926c329a1ad1a8000008261266091906140bb565b8161266b9190614159565b90508360ff16858361267d91906140bb565b901c91506c02bee513bdb4a6b19b5f8000008261269a91906140bb565b816126a59190614159565b90508360ff1685836126b791906140bb565b901c91506b3a9316fa79b88eccf2a00000826126d391906140bb565b816126de9190614159565b90508360ff1685836126f091906140bb565b901c91506b048177ebe1fa8123752000008261270c91906140bb565b816127179190614159565b90508360ff16858361272991906140bb565b901c91506a5263fe90242dcbacf000008261274491906140bb565b8161274f9190614159565b90508360ff16858361276191906140bb565b901c91506a057e22099c030d941000008261277c91906140bb565b816127879190614159565b90508360ff16858361279991906140bb565b901c91506957e22099c030d9410000826127b391906140bb565b816127be9190614159565b90508360ff1685836127d091906140bb565b901c915069052b6b54569976310000826127ea91906140bb565b816127f59190614159565b90508360ff16858361280791906140bb565b901c9150684985f67696bf7480008261282091906140bb565b8161282b9190614159565b90508360ff16858361283d91906140bb565b901c91506803dea12ea99e4980008261285691906140bb565b816128619190614159565b90508360ff16858361287391906140bb565b901c91506731880f2214b6e0008261288b91906140bb565b816128969190614159565b90508360ff1685836128a891906140bb565b901c915067025bcff56eb36000826128c091906140bb565b816128cb9190614159565b90508360ff1685836128dd91906140bb565b901c9150661b722e10ab1000826128f491906140bb565b816128ff9190614159565b90508360ff16858361291191906140bb565b901c91506601317c700770008261292891906140bb565b816129339190614159565b90508360ff16858361294591906140bb565b901c9150650cba84aafa008261295b91906140bb565b816129669190614159565b90508360ff16858361297891906140bb565b901c91506482573a0a008261298d91906140bb565b816129989190614159565b90508360ff1685836129aa91906140bb565b901c91506405035ad900826129bf91906140bb565b816129ca9190614159565b90508360ff1685836129dc91906140bb565b901c9150632f881b00826129f091906140bb565b816129fb9190614159565b90508360ff168583612a0d91906140bb565b901c91506301b2934082612a2191906140bb565b81612a2c9190614159565b90508360ff168583612a3e91906140bb565b901c9150620efc4082612a5191906140bb565b81612a5c9190614159565b90508360ff168583612a6e91906140bb565b901c9150617fe082612a8091906140bb565b81612a8b9190614159565b90508360ff168583612a9d91906140bb565b901c915061042082612aaf91906140bb565b81612aba9190614159565b90508360ff168583612acc91906140bb565b901c9150602182612add91906140bb565b81612ae89190614159565b90508360ff168583612afa91906140bb565b901c9150600182612b0b91906140bb565b81612b169190614159565b90508360ff166001901b856f0688589cc0e9505e2f2fee558000000083612b3d9190614129565b612b479190614159565b612b519190614159565b9250505092915050565b612b6785858585612cbd565b5f73ffffffffffffffffffffffffffffffffffffffff168473ffffffffffffffffffffffffffffffffffffffff1614612c00575f612ba3610f03565b90506001845103612bef575f612bc25f8661102690919063ffffffff16565b90505f612bd85f8661102690919063ffffffff16565b9050612be8838989858589612e66565b5050612bfe565b612bfd818787878787613015565b5b505b5050505050565b60608060405191506001825283602083015260408201905060018152826020820152604081016040529250929050565b5f805f90505f839050610100811015612c74575b6001811115612c6f57600181901c9050600182612c68919061430c565b9150612c4b565b612cb3565b5f608090505b5f8160ff161115612cb1578060ff166001901b8210612ca2578060ff1682901c915080831792505b60018160ff16901c9050612c7a565b505b8192505050919050565b612cc9848484846131c4565b5f73ffffffffffffffffffffffffffffffffffffffff168473ffffffffffffffffffffffffffffffffffffffff1603612da2575f805b8351811015612d87575f838281518110612d1c57612d1b614047565b5b602002602001015190508060845f878581518110612d3d57612d3c614047565b5b602002602001015181526020019081526020015f205f828254612d609190614159565b925050819055508083612d739190614159565b92505080612d8090614074565b9050612cff565b508060855f828254612d999190614159565b92505081905550505b5f73ffffffffffffffffffffffffffffffffffffffff168373ffffffffffffffffffffffffffffffffffffffff1603612e60575f805b8351811015612e4e575f838281518110612df557612df4614047565b5b602002602001015190508060845f878581518110612e1657612e15614047565b5b602002602001015181526020019081526020015f205f828254039250508190555080830192505080612e4790614074565b9050612dd8565b508060855f8282540392505081905550505b50505050565b5f8473ffffffffffffffffffffffffffffffffffffffff163b111561300d578373ffffffffffffffffffffffffffffffffffffffff1663f23a6e6187878686866040518663ffffffff1660e01b8152600401612ec69594939291906143ef565b6020604051808303815f875af1925050508015612f0157506040513d601f19601f82011682018060405250810190612efe919061445b565b60015b612f82573d805f8114612f2f576040519150601f19603f3d011682016040523d82523d5f602084013e612f34565b606091505b505f815103612f7a57846040517f57f447ce000000000000000000000000000000000000000000000000000000008152600401612f71919061429c565b60405180910390fd5b805181602001fd5b63f23a6e6160e01b7bffffffffffffffffffffffffffffffffffffffffffffffffffffffff1916817bffffffffffffffffffffffffffffffffffffffffffffffffffffffff19161461300b57846040517f57f447ce000000000000000000000000000000000000000000000000000000008152600401613002919061429c565b60405180910390fd5b505b505050505050565b5f8473ffffffffffffffffffffffffffffffffffffffff163b11156131bc578373ffffffffffffffffffffffffffffffffffffffff1663bc197c8187878686866040518663ffffffff1660e01b8152600401613075959493929190614486565b6020604051808303815f875af19250505080156130b057506040513d601f19601f820116820180604052508101906130ad919061445b565b60015b613131573d805f81146130de576040519150601f19603f3d011682016040523d82523d5f602084013e6130e3565b606091505b505f81510361312957846040517f57f447ce000000000000000000000000000000000000000000000000000000008152600401613120919061429c565b60405180910390fd5b805181602001fd5b63bc197c8160e01b7bffffffffffffffffffffffffffffffffffffffffffffffffffffffff1916817bffffffffffffffffffffffffffffffffffffffffffffffffffffffff1916146131ba57846040517f57f447ce0000000000000000000000000000000000000000000000000000000081526004016131b1919061429c565b60405180910390fd5b505b505050505050565b805182511461320e57815181516040517f5b059991000000000000000000000000000000000000000000000000000000008152600401613205929190614020565b60405180910390fd5b5f613217610f03565b90505f5b835181101561341c575f613238828661102690919063ffffffff16565b90505f61324e838661102690919063ffffffff16565b90505f73ffffffffffffffffffffffffffffffffffffffff168873ffffffffffffffffffffffffffffffffffffffff1614613373575f60815f8481526020019081526020015f205f8a73ffffffffffffffffffffffffffffffffffffffff1673ffffffffffffffffffffffffffffffffffffffff1681526020019081526020015f205490508181101561331e57888183856040517f03dee4c500000000000000000000000000000000000000000000000000000000815260040161331594939291906144ec565b60405180910390fd5b81810360815f8581526020019081526020015f205f8b73ffffffffffffffffffffffffffffffffffffffff1673ffffffffffffffffffffffffffffffffffffffff1681526020019081526020015f2081905550505b5f73ffffffffffffffffffffffffffffffffffffffff168773ffffffffffffffffffffffffffffffffffffffff1614613409578060815f8481526020019081526020015f205f8973ffffffffffffffffffffffffffffffffffffffff1673ffffffffffffffffffffffffffffffffffffffff1681526020019081526020015f205f8282546134019190614159565b925050819055505b50508061341590614074565b905061321b565b5060018351036134d7575f61343a5f8561102690919063ffffffff16565b90505f6134505f8561102690919063ffffffff16565b90508573ffffffffffffffffffffffffffffffffffffffff168773ffffffffffffffffffffffffffffffffffffffff168473ffffffffffffffffffffffffffffffffffffffff167fc3d58168c5ae7397731d063d5bbf3d657854427343f4c083240f7aacaa2d0f6285856040516134c8929190614020565b60405180910390a45050613556565b8373ffffffffffffffffffffffffffffffffffffffff168573ffffffffffffffffffffffffffffffffffffffff168273ffffffffffffffffffffffffffffffffffffffff167f4a39dc06d4c0dbc64b70af90fd698a233a518aa5d07e595d983b8c0526c8f7fb868660405161354d92919061452f565b60405180910390a45b5050505050565b5f604051905090565b5f80fd5b5f80fd5b5f73ffffffffffffffffffffffffffffffffffffffff82169050919050565b5f6135978261356e565b9050919050565b6135a78161358d565b81146135b1575f80fd5b50565b5f813590506135c28161359e565b92915050565b5f819050919050565b6135da816135c8565b81146135e4575f80fd5b50565b5f813590506135f5816135d1565b92915050565b5f806040838503121561361157613610613566565b5b5f61361e858286016135b4565b925050602061362f858286016135e7565b9150509250929050565b613642816135c8565b82525050565b5f60208201905061365b5f830184613639565b92915050565b5f7fffffffff0000000000000000000000000000000000000000000000000000000082169050919050565b61369581613661565b811461369f575f80fd5b50565b5f813590506136b08161368c565b92915050565b5f602082840312156136cb576136ca613566565b5b5f6136d8848285016136a2565b91505092915050565b5f8115159050919050565b6136f5816136e1565b82525050565b5f60208201905061370e5f8301846136ec565b92915050565b5f6020828403121561372957613728613566565b5b5f613736848285016135e7565b91505092915050565b5f81519050919050565b5f82825260208201905092915050565b5f5b8381101561377657808201518184015260208101905061375b565b5f8484015250505050565b5f601f19601f8301169050919050565b5f61379b8261373f565b6137a58185613749565b93506137b5818560208601613759565b6137be81613781565b840191505092915050565b5f6020820190508181035f8301526137e18184613791565b905092915050565b5f63ffffffff82169050919050565b613801816137e9565b811461380b575f80fd5b50565b5f8135905061381c816137f8565b92915050565b5f805f806080858703121561383a57613839613566565b5b5f613847878288016135e7565b9450506020613858878288016135e7565b93505060406138698782880161380e565b925050606061387a878288016135e7565b91505092959194509250565b5f80fd5b7f4e487b71000000000000000000000000000000000000000000000000000000005f52604160045260245ffd5b6138c082613781565b810181811067ffffffffffffffff821117156138df576138de61388a565b5b80604052505050565b5f6138f161355d565b90506138fd82826138b7565b919050565b5f67ffffffffffffffff82111561391c5761391b61388a565b5b602082029050602081019050919050565b5f80fd5b5f61394361393e84613902565b6138e8565b905080838252602082019050602084028301858111156139665761396561392d565b5b835b8181101561398f578061397b88826135e7565b845260208401935050602081019050613968565b5050509392505050565b5f82601f8301126139ad576139ac613886565b5b81356139bd848260208601613931565b91505092915050565b5f80fd5b5f67ffffffffffffffff8211156139e4576139e361388a565b5b6139ed82613781565b9050602081019050919050565b828183375f83830152505050565b5f613a1a613a15846139ca565b6138e8565b905082815260208101848484011115613a3657613a356139c6565b5b613a418482856139fa565b509392505050565b5f82601f830112613a5d57613a5c613886565b5b8135613a6d848260208601613a08565b91505092915050565b5f805f805f60a08688031215613a8f57613a8e613566565b5b5f613a9c888289016135b4565b9550506020613aad888289016135b4565b945050604086013567ffffffffffffffff811115613ace57613acd61356a565b5b613ada88828901613999565b935050606086013567ffffffffffffffff811115613afb57613afa61356a565b5b613b0788828901613999565b925050608086013567ffffffffffffffff811115613b2857613b2761356a565b5b613b3488828901613a49565b9150509295509295909350565b5f67ffffffffffffffff821115613b5b57613b5a61388a565b5b602082029050602081019050919050565b5f613b7e613b7984613b41565b6138e8565b90508083825260208201905060208402830185811115613ba157613ba061392d565b5b835b81811015613bca5780613bb688826135b4565b845260208401935050602081019050613ba3565b5050509392505050565b5f82601f830112613be857613be7613886565b5b8135613bf8848260208601613b6c565b91505092915050565b5f8060408385031215613c1757613c16613566565b5b5f83013567ffffffffffffffff811115613c3457613c3361356a565b5b613c4085828601613bd4565b925050602083013567ffffffffffffffff811115613c6157613c6061356a565b5b613c6d85828601613999565b9150509250929050565b5f81519050919050565b5f82825260208201905092915050565b5f819050602082019050919050565b613ca9816135c8565b82525050565b5f613cba8383613ca0565b60208301905092915050565b5f602082019050919050565b5f613cdc82613c77565b613ce68185613c81565b9350613cf183613c91565b805f5b83811015613d21578151613d088882613caf565b9750613d1383613cc6565b925050600181019050613cf4565b5085935050505092915050565b5f6020820190508181035f830152613d468184613cd2565b905092915050565b613d57816136e1565b8114613d61575f80fd5b50565b5f81359050613d7281613d4e565b92915050565b5f8060408385031215613d8e57613d8d613566565b5b5f613d9b858286016135b4565b9250506020613dac85828601613d64565b9150509250929050565b5f8060408385031215613dcc57613dcb613566565b5b5f613dd9858286016135e7565b9250506020613dea858286016135e7565b9150509250929050565b5f8060408385031215613e0a57613e09613566565b5b5f613e17858286016135b4565b9250506020613e28858286016135b4565b9150509250929050565b5f805f805f60a08688031215613e4b57613e4a613566565b5b5f613e58888289016135b4565b9550506020613e69888289016135b4565b9450506040613e7a888289016135e7565b9350506060613e8b888289016135e7565b925050608086013567ffffffffffffffff811115613eac57613eab61356a565b5b613eb888828901613a49565b9150509295509295909350565b7f4e487b71000000000000000000000000000000000000000000000000000000005f52602260045260245ffd5b5f6002820490506001821680613f0957607f821691505b602082108103613f1c57613f1b613ec5565b5b50919050565b7f496e76616c696420496e707574000000000000000000000000000000000000005f82015250565b5f613f56600d83613749565b9150613f6182613f22565b602082019050919050565b5f6020820190508181035f830152613f8381613f4a565b9050919050565b7f4e487b71000000000000000000000000000000000000000000000000000000005f52601160045260245ffd5b5f613fc1826135c8565b9150613fcc836135c8565b9250828203905081811115613fe457613fe3613f8a565b5b92915050565b613ff38161358d565b82525050565b5f60408201905061400c5f830185613fea565b6140196020830184613fea565b9392505050565b5f6040820190506140335f830185613639565b6140406020830184613639565b9392505050565b7f4e487b71000000000000000000000000000000000000000000000000000000005f52603260045260245ffd5b5f61407e826135c8565b91507fffffffffffffffffffffffffffffffffffffffffffffffffffffffffffffffff82036140b0576140af613f8a565b5b600182019050919050565b5f6140c5826135c8565b91506140d0836135c8565b92508282026140de816135c8565b915082820484148315176140f5576140f4613f8a565b5b5092915050565b7f4e487b71000000000000000000000000000000000000000000000000000000005f52601260045260245ffd5b5f614133826135c8565b915061413e836135c8565b92508261414e5761414d6140fc565b5b828204905092915050565b5f614163826135c8565b915061416e836135c8565b925082820190508082111561418657614185613f8a565b5b92915050565b7f626173654e2065786365656473206d61782076616c75652e00000000000000005f82015250565b5f6141c0601883613749565b91506141cb8261418c565b602082019050919050565b5f6020820190508181035f8301526141ed816141b4565b9050919050565b7f4261736573203c203120617265206e6f7420737570706f727465642e000000005f82015250565b5f614228601c83613749565b9150614233826141f4565b602082019050919050565b5f6020820190508181035f8301526142558161421c565b9050919050565b5f60ff82169050919050565b5f6142728261425c565b915061427d8361425c565b9250828203905060ff81111561429657614295613f8a565b5b92915050565b5f6020820190506142af5f830184613fea565b92915050565b5f6142bf8261425c565b91505f82036142d1576142d0613f8a565b5b600182039050919050565b5f6142e6826135c8565b91506142f1836135c8565b925082614301576143006140fc565b5b828206905092915050565b5f6143168261425c565b91506143218361425c565b9250828201905060ff81111561433a57614339613f8a565b5b92915050565b5f61434a8261425c565b91506143558361425c565b925082614365576143646140fc565b5b828204905092915050565b7f4e487b71000000000000000000000000000000000000000000000000000000005f52600160045260245ffd5b5f81519050919050565b5f82825260208201905092915050565b5f6143c18261439d565b6143cb81856143a7565b93506143db818560208601613759565b6143e481613781565b840191505092915050565b5f60a0820190506144025f830188613fea565b61440f6020830187613fea565b61441c6040830186613639565b6144296060830185613639565b818103608083015261443b81846143b7565b90509695505050505050565b5f815190506144558161368c565b92915050565b5f602082840312156144705761446f613566565b5b5f61447d84828501614447565b91505092915050565b5f60a0820190506144995f830188613fea565b6144a66020830187613fea565b81810360408301526144b88186613cd2565b905081810360608301526144cc8185613cd2565b905081810360808301526144e081846143b7565b90509695505050505050565b5f6080820190506144ff5f830187613fea565b61450c6020830186613639565b6145196040830185613639565b6145266060830184613639565b95945050505050565b5f6040820190508181035f8301526145478185613cd2565b9050818103602083015261455b8184613cd2565b9050939250505056fea26469706673582212204da42b4e70fd6f45b477e55c8be678e75be0844f1c182758c692f2d1ea4792da64736f6c63430008140033",
			"opcodes": "PUSH1 0x80 PUSH1 0x40 MSTORE PUSH1 0x40 MLOAD DUP1 PUSH1 0x40 ADD PUSH1 0x40 MSTORE DUP1 PUSH1 0x3 DUP2 MSTORE PUSH1 0x20 ADD PUSH32 0x302E330000000000000000000000000000000000000000000000000000000000 DUP2 MSTORE POP PUSH0 SWAP1 DUP2 PUSH3 0x49 SWAP2 SWAP1 PUSH3 0x14B4 JUMP JUMPDEST POP CALLVALUE DUP1 ISZERO PUSH3 0x56 JUMPI PUSH0 DUP1 REVERT JUMPDEST POP PUSH1 0x40 MLOAD PUSH3 0x5BD0 CODESIZE SUB DUP1 PUSH3 0x5BD0 DUP4 CODECOPY DUP2 DUP2 ADD PUSH1 0x40 MSTORE DUP2 ADD SWAP1 PUSH3 0x7C SWAP2 SWAP1 PUSH3 0x15CB JUMP JUMPDEST PUSH1 0x40 MLOAD DUP1 PUSH1 0x20 ADD PUSH1 0x40 MSTORE DUP1 PUSH0 DUP2 MSTORE POP PUSH17 0x1C35FEDD14FFFFFFFFFFFFFFFFFFFFFFFF PUSH1 0x1 PUSH1 0x20 PUSH1 0x80 DUP2 LT PUSH3 0xB5 JUMPI PUSH3 0xB4 PUSH3 0x15FB JUMP JUMPDEST JUMPDEST ADD DUP2 SWAP1 SSTORE POP PUSH17 0x1B0CE43B323FFFFFFFFFFFFFFFFFFFFFFF PUSH1 0x1 PUSH1 0x21 PUSH1 0x80 DUP2 LT PUSH3 0xE4 JUMPI PUSH3 0xE3 PUSH3 0x15FB JUMP JUMPDEST JUMPDEST ADD DUP2 SWAP1 SSTORE POP PUSH17 0x19F0028EC1FFFFFFFFFFFFFFFFFFFFFFFF PUSH1 0x1 PUSH1 0x22 PUSH1 0x80 DUP2 LT PUSH3 0x113 JUMPI PUSH3 0x112 PUSH3 0x15FB JUMP JUMPDEST JUMPDEST ADD DUP2 SWAP1 SSTORE POP PUSH17 0x18DED91F0E7FFFFFFFFFFFFFFFFFFFFFFF PUSH1 0x1 PUSH1 0x23 PUSH1 0x80 DUP2 LT PUSH3 0x142 JUMPI PUSH3 0x141 PUSH3 0x15FB JUMP JUMPDEST JUMPDEST ADD DUP2 SWAP1 SSTORE POP PUSH17 0x17D8EC7F0417FFFFFFFFFFFFFFFFFFFFFF PUSH1 0x1 PUSH1 0x24 PUSH1 0x80 DUP2 LT PUSH3 0x171 JUMPI PUSH3 0x170 PUSH3 0x15FB JUMP JUMPDEST JUMPDEST ADD DUP2 SWAP1 SSTORE POP PUSH17 0x16DDC6556CDBFFFFFFFFFFFFFFFFFFFFFF PUSH1 0x1 PUSH1 0x25 PUSH1 0x80 DUP2 LT PUSH3 0x1A0 JUMPI PUSH3 0x19F PUSH3 0x15FB JUMP JUMPDEST JUMPDEST ADD DUP2 SWAP1 SSTORE POP PUSH17 0x15ECF52776A1FFFFFFFFFFFFFFFFFFFFFF PUSH1 0x1 PUSH1 0x26 PUSH1 0x80 DUP2 LT PUSH3 0x1CF JUMPI PUSH3 0x1CE PUSH3 0x15FB JUMP JUMPDEST JUMPDEST ADD DUP2 SWAP1 SSTORE POP PUSH17 0x15060C256CB2FFFFFFFFFFFFFFFFFFFFFF PUSH1 0x1 PUSH1 0x27 PUSH1 0x80 DUP2 LT PUSH3 0x1FE JUMPI PUSH3 0x1FD PUSH3 0x15FB JUMP JUMPDEST JUMPDEST ADD DUP2 SWAP1 SSTORE POP PUSH17 0x1428A2F98D72FFFFFFFFFFFFFFFFFFFFFF PUSH1 0x1 PUSH1 0x28 PUSH1 0x80 DUP2 LT PUSH3 0x22D JUMPI PUSH3 0x22C PUSH3 0x15FB JUMP JUMPDEST JUMPDEST ADD DUP2 SWAP1 SSTORE POP PUSH17 0x13545598E5C23FFFFFFFFFFFFFFFFFFFFF PUSH1 0x1 PUSH1 0x29 PUSH1 0x80 DUP2 LT PUSH3 0x25C JUMPI PUSH3 0x25B PUSH3 0x15FB JUMP JUMPDEST JUMPDEST ADD DUP2 SWAP1 SSTORE POP PUSH17 0x1288C4161CE1DFFFFFFFFFFFFFFFFFFFFF PUSH1 0x1 PUSH1 0x2A PUSH1 0x80 DUP2 LT PUSH3 0x28B JUMPI PUSH3 0x28A PUSH3 0x15FB JUMP JUMPDEST JUMPDEST ADD DUP2 SWAP1 SSTORE POP PUSH17 0x11C592761C666FFFFFFFFFFFFFFFFFFFFF PUSH1 0x1 PUSH1 0x2B PUSH1 0x80 DUP2 LT PUSH3 0x2BA JUMPI PUSH3 0x2B9 PUSH3 0x15FB JUMP JUMPDEST JUMPDEST ADD DUP2 SWAP1 SSTORE POP PUSH17 0x110A688680A757FFFFFFFFFFFFFFFFFFFF PUSH1 0x1 PUSH1 0x2C PUSH1 0x80 DUP2 LT PUSH3 0x2E9 JUMPI PUSH3 0x2E8 PUSH3 0x15FB JUMP JUMPDEST JUMPDEST ADD DUP2 SWAP1 SSTORE POP PUSH17 0x1056F1B5BEDF77FFFFFFFFFFFFFFFFFFFF PUSH1 0x1 PUSH1 0x2D PUSH1 0x80 DUP2 LT PUSH3 0x318 JUMPI PUSH3 0x317 PUSH3 0x15FB JUMP JUMPDEST JUMPDEST ADD DUP2 SWAP1 SSTORE POP PUSH17 0xFAADCECEEFF8BFFFFFFFFFFFFFFFFFFFF PUSH1 0x1 PUSH1 0x2E PUSH1 0x80 DUP2 LT PUSH3 0x347 JUMPI PUSH3 0x346 PUSH3 0x15FB JUMP JUMPDEST JUMPDEST ADD DUP2 SWAP1 SSTORE POP PUSH17 0xF05DC6B27EDADFFFFFFFFFFFFFFFFFFFF PUSH1 0x1 PUSH1 0x2F PUSH1 0x80 DUP2 LT PUSH3 0x376 JUMPI PUSH3 0x375 PUSH3 0x15FB JUMP JUMPDEST JUMPDEST ADD DUP2 SWAP1 SSTORE POP PUSH17 0xE67A5A25DA4107FFFFFFFFFFFFFFFFFFF PUSH1 0x1 PUSH1 0x30 PUSH1 0x80 DUP2 LT PUSH3 0x3A5 JUMPI PUSH3 0x3A4 PUSH3 0x15FB JUMP JUMPDEST JUMPDEST ADD DUP2 SWAP1 SSTORE POP PUSH17 0xDCFF115B14EEDFFFFFFFFFFFFFFFFFFFF PUSH1 0x1 PUSH1 0x31 PUSH1 0x80 DUP2 LT PUSH3 0x3D4 JUMPI PUSH3 0x3D3 PUSH3 0x15FB JUMP JUMPDEST JUMPDEST ADD DUP2 SWAP1 SSTORE POP PUSH17 0xD3E7A392431239FFFFFFFFFFFFFFFFFFF PUSH1 0x1 PUSH1 0x32 PUSH1 0x80 DUP2 LT PUSH3 0x403 JUMPI PUSH3 0x402 PUSH3 0x15FB JUMP JUMPDEST JUMPDEST ADD DUP2 SWAP1 SSTORE POP PUSH17 0xCB2FF529EB71E4FFFFFFFFFFFFFFFFFFF PUSH1 0x1 PUSH1 0x33 PUSH1 0x80 DUP2 LT PUSH3 0x432 JUMPI PUSH3 0x431 PUSH3 0x15FB JUMP JUMPDEST JUMPDEST ADD DUP2 SWAP1 SSTORE POP PUSH17 0xC2D415C3DB974AFFFFFFFFFFFFFFFFFFF PUSH1 0x1 PUSH1 0x34 PUSH1 0x80 DUP2 LT PUSH3 0x461 JUMPI PUSH3 0x460 PUSH3 0x15FB JUMP JUMPDEST JUMPDEST ADD DUP2 SWAP1 SSTORE POP PUSH17 0xBAD03E7D883F69BFFFFFFFFFFFFFFFFFF PUSH1 0x1 PUSH1 0x35 PUSH1 0x80 DUP2 LT PUSH3 0x490 JUMPI PUSH3 0x48F PUSH3 0x15FB JUMP JUMPDEST JUMPDEST ADD DUP2 SWAP1 SSTORE POP PUSH17 0xB320D03B2C343D5FFFFFFFFFFFFFFFFFF PUSH1 0x1 PUSH1 0x36 PUSH1 0x80 DUP2 LT PUSH3 0x4BF JUMPI PUSH3 0x4BE PUSH3 0x15FB JUMP JUMPDEST JUMPDEST ADD DUP2 SWAP1 SSTORE POP PUSH17 0xABC25204E02828DFFFFFFFFFFFFFFFFFF PUSH1 0x1 PUSH1 0x37 PUSH1 0x80 DUP2 LT PUSH3 0x4EE JUMPI PUSH3 0x4ED PUSH3 0x15FB JUMP JUMPDEST JUMPDEST ADD DUP2 SWAP1 SSTORE POP PUSH17 0xA4B16F74EE4BB207FFFFFFFFFFFFFFFFF PUSH1 0x1 PUSH1 0x38 PUSH1 0x80 DUP2 LT PUSH3 0x51D JUMPI PUSH3 0x51C PUSH3 0x15FB JUMP JUMPDEST JUMPDEST ADD DUP2 SWAP1 SSTORE POP PUSH17 0x9DEAF736AC1F569FFFFFFFFFFFFFFFFFF PUSH1 0x1 PUSH1 0x39 PUSH1 0x80 DUP2 LT PUSH3 0x54C JUMPI PUSH3 0x54B PUSH3 0x15FB JUMP JUMPDEST JUMPDEST ADD DUP2 SWAP1 SSTORE POP PUSH17 0x976BD9952C7AA957FFFFFFFFFFFFFFFFF PUSH1 0x1 PUSH1 0x3A PUSH1 0x80 DUP2 LT PUSH3 0x57B JUMPI PUSH3 0x57A PUSH3 0x15FB JUMP JUMPDEST JUMPDEST ADD DUP2 SWAP1 SSTORE POP PUSH17 0x9131271922EAA606FFFFFFFFFFFFFFFFF PUSH1 0x1 PUSH1 0x3B PUSH1 0x80 DUP2 LT PUSH3 0x5AA JUMPI PUSH3 0x5A9 PUSH3 0x15FB JUMP JUMPDEST JUMPDEST ADD DUP2 SWAP1 SSTORE POP PUSH17 0x8B380F3558668C46FFFFFFFFFFFFFFFFF PUSH1 0x1 PUSH1 0x3C PUSH1 0x80 DUP2 LT PUSH3 0x5D9 JUMPI PUSH3 0x5D8 PUSH3 0x15FB JUMP JUMPDEST JUMPDEST ADD DUP2 SWAP1 SSTORE POP PUSH17 0x857DDF0117EFA215BFFFFFFFFFFFFFFFF PUSH1 0x1 PUSH1 0x3D PUSH1 0x80 DUP2 LT PUSH3 0x608 JUMPI PUSH3 0x607 PUSH3 0x15FB JUMP JUMPDEST JUMPDEST ADD DUP2 SWAP1 SSTORE POP PUSH17 0x7FFFFFFFFFFFFFFFFFFFFFFFFFFFFFFFF PUSH1 0x1 PUSH1 0x3E PUSH1 0x80 DUP2 LT PUSH3 0x637 JUMPI PUSH3 0x636 PUSH3 0x15FB JUMP JUMPDEST JUMPDEST ADD DUP2 SWAP1 SSTORE POP PUSH17 0x7ABBF6F6ABB9D087FFFFFFFFFFFFFFFFF PUSH1 0x1 PUSH1 0x3F PUSH1 0x80 DUP2 LT PUSH3 0x666 JUMPI PUSH3 0x665 PUSH3 0x15FB JUMP JUMPDEST JUMPDEST ADD DUP2 SWAP1 SSTORE POP PUSH17 0x75AF62CBAC95F7DFA7FFFFFFFFFFFFFFF PUSH1 0x1 PUSH1 0x40 PUSH1 0x80 DUP2 LT PUSH3 0x695 JUMPI PUSH3 0x694 PUSH3 0x15FB JUMP JUMPDEST JUMPDEST ADD DUP2 SWAP1 SSTORE POP PUSH17 0x70D7FB7452E187AC13FFFFFFFFFFFFFFF PUSH1 0x1 PUSH1 0x41 PUSH1 0x80 DUP2 LT PUSH3 0x6C4 JUMPI PUSH3 0x6C3 PUSH3 0x15FB JUMP JUMPDEST JUMPDEST ADD DUP2 SWAP1 SSTORE POP PUSH17 0x6C3390ECC8AF379295FFFFFFFFFFFFFFF PUSH1 0x1 PUSH1 0x42 PUSH1 0x80 DUP2 LT PUSH3 0x6F3 JUMPI PUSH3 0x6F2 PUSH3 0x15FB JUMP JUMPDEST JUMPDEST ADD DUP2 SWAP1 SSTORE POP PUSH17 0x67C00A3B07FFC01FD6FFFFFFFFFFFFFFF PUSH1 0x1 PUSH1 0x43 PUSH1 0x80 DUP2 LT PUSH3 0x722 JUMPI PUSH3 0x721 PUSH3 0x15FB JUMP JUMPDEST JUMPDEST ADD DUP2 SWAP1 SSTORE POP PUSH17 0x637B647C39CBB9D3D27FFFFFFFFFFFFFF PUSH1 0x1 PUSH1 0x44 PUSH1 0x80 DUP2 LT PUSH3 0x751 JUMPI PUSH3 0x750 PUSH3 0x15FB JUMP JUMPDEST JUMPDEST ADD DUP2 SWAP1 SSTORE POP PUSH17 0x5F63B1FC104DBD39587FFFFFFFFFFFFFF PUSH1 0x1 PUSH1 0x45 PUSH1 0x80 DUP2 LT PUSH3 0x780 JUMPI PUSH3 0x77F PUSH3 0x15FB JUMP JUMPDEST JUMPDEST ADD DUP2 SWAP1 SSTORE POP PUSH17 0x5B771955B36E12F7235FFFFFFFFFFFFFF PUSH1 0x1 PUSH1 0x46 PUSH1 0x80 DUP2 LT PUSH3 0x7AF JUMPI PUSH3 0x7AE PUSH3 0x15FB JUMP JUMPDEST JUMPDEST ADD DUP2 SWAP1 SSTORE POP PUSH17 0x57B3D49DDA84556D6F6FFFFFFFFFFFFFF PUSH1 0x1 PUSH1 0x47 PUSH1 0x80 DUP2 LT PUSH3 0x7DE JUMPI PUSH3 0x7DD PUSH3 0x15FB JUMP JUMPDEST JUMPDEST ADD DUP2 SWAP1 SSTORE POP PUSH17 0x54183095B2C8ECECF30FFFFFFFFFFFFFF PUSH1 0x1 PUSH1 0x48 PUSH1 0x80 DUP2 LT PUSH3 0x80D JUMPI PUSH3 0x80C PUSH3 0x15FB JUMP JUMPDEST JUMPDEST ADD DUP2 SWAP1 SSTORE POP PUSH17 0x50A28BE635CA2B888F77FFFFFFFFFFFFF PUSH1 0x1 PUSH1 0x49 PUSH1 0x80 DUP2 LT PUSH3 0x83C JUMPI PUSH3 0x83B PUSH3 0x15FB JUMP JUMPDEST JUMPDEST ADD DUP2 SWAP1 SSTORE POP PUSH17 0x4D5156639708C9DB33C3FFFFFFFFFFFFF PUSH1 0x1 PUSH1 0x4A PUSH1 0x80 DUP2 LT PUSH3 0x86B JUMPI PUSH3 0x86A PUSH3 0x15FB JUMP JUMPDEST JUMPDEST ADD DUP2 SWAP1 SSTORE POP PUSH17 0x4A23105873875BD52DFDFFFFFFFFFFFFF PUSH1 0x1 PUSH1 0x4B PUSH1 0x80 DUP2 LT PUSH3 0x89A JUMPI PUSH3 0x899 PUSH3 0x15FB JUMP JUMPDEST JUMPDEST ADD DUP2 SWAP1 SSTORE POP PUSH17 0x471649D87199AA990756FFFFFFFFFFFFF PUSH1 0x1 PUSH1 0x4C PUSH1 0x80 DUP2 LT PUSH3 0x8C9 JUMPI PUSH3 0x8C8 PUSH3 0x15FB JUMP JUMPDEST JUMPDEST ADD DUP2 SWAP1 SSTORE POP PUSH17 0x4429A21A029D4C1457CFBFFFFFFFFFFFF PUSH1 0x1 PUSH1 0x4D PUSH1 0x80 DUP2 LT PUSH3 0x8F8 JUMPI PUSH3 0x8F7 PUSH3 0x15FB JUMP JUMPDEST JUMPDEST ADD DUP2 SWAP1 SSTORE POP PUSH17 0x415BC6D6FB7DD71AF2CB3FFFFFFFFFFFF PUSH1 0x1 PUSH1 0x4E PUSH1 0x80 DUP2 LT PUSH3 0x927 JUMPI PUSH3 0x926 PUSH3 0x15FB JUMP JUMPDEST JUMPDEST ADD DUP2 SWAP1 SSTORE POP PUSH17 0x3EAB73B3BBFE282243CE1FFFFFFFFFFFF PUSH1 0x1 PUSH1 0x4F PUSH1 0x80 DUP2 LT PUSH3 0x956 JUMPI PUSH3 0x955 PUSH3 0x15FB JUMP JUMPDEST JUMPDEST ADD DUP2 SWAP1 SSTORE POP PUSH17 0x3C1771AC9FB6B4C18E229FFFFFFFFFFFF PUSH1 0x1 PUSH1 0x50 PUSH1 0x80 DUP2 LT PUSH3 0x985 JUMPI PUSH3 0x984 PUSH3 0x15FB JUMP JUMPDEST JUMPDEST ADD DUP2 SWAP1 SSTORE POP PUSH17 0x399E96897690418F785257FFFFFFFFFFF PUSH1 0x1 PUSH1 0x51 PUSH1 0x80 DUP2 LT PUSH3 0x9B4 JUMPI PUSH3 0x9B3 PUSH3 0x15FB JUMP JUMPDEST JUMPDEST ADD DUP2 SWAP1 SSTORE POP PUSH17 0x373FC456C53BB779BF0EA9FFFFFFFFFFF PUSH1 0x1 PUSH1 0x52 PUSH1 0x80 DUP2 LT PUSH3 0x9E3 JUMPI PUSH3 0x9E2 PUSH3 0x15FB JUMP JUMPDEST JUMPDEST ADD DUP2 SWAP1 SSTORE POP PUSH17 0x34F9E8E490C48E67E6AB8BFFFFFFFFFFF PUSH1 0x1 PUSH1 0x53 PUSH1 0x80 DUP2 LT PUSH3 0xA12 JUMPI PUSH3 0xA11 PUSH3 0x15FB JUMP JUMPDEST JUMPDEST ADD DUP2 SWAP1 SSTORE POP PUSH17 0x32CBFD4A7ADC790560B3337FFFFFFFFFF PUSH1 0x1 PUSH1 0x54 PUSH1 0x80 DUP2 LT PUSH3 0xA41 JUMPI PUSH3 0xA40 PUSH3 0x15FB JUMP JUMPDEST JUMPDEST ADD DUP2 SWAP1 SSTORE POP PUSH17 0x30B50570F6E5D2ACCA94613FFFFFFFFFF PUSH1 0x1 PUSH1 0x55 PUSH1 0x80 DUP2 LT PUSH3 0xA70 JUMPI PUSH3 0xA6F PUSH3 0x15FB JUMP JUMPDEST JUMPDEST ADD DUP2 SWAP1 SSTORE POP PUSH17 0x2EB40F9F620FDA6B56C2861FFFFFFFFFF PUSH1 0x1 PUSH1 0x56 PUSH1 0x80 DUP2 LT PUSH3 0xA9F JUMPI PUSH3 0xA9E PUSH3 0x15FB JUMP JUMPDEST JUMPDEST ADD DUP2 SWAP1 SSTORE POP PUSH17 0x2CC8340ECB0D0F520A6AF58FFFFFFFFFF PUSH1 0x1 PUSH1 0x57 PUSH1 0x80 DUP2 LT PUSH3 0xACE JUMPI PUSH3 0xACD PUSH3 0x15FB JUMP JUMPDEST JUMPDEST ADD DUP2 SWAP1 SSTORE POP PUSH17 0x2AF09481380A0A35CF1BA02FFFFFFFFFF PUSH1 0x1 PUSH1 0x58 PUSH1 0x80 DUP2 LT PUSH3 0xAFD JUMPI PUSH3 0xAFC PUSH3 0x15FB JUMP JUMPDEST JUMPDEST ADD DUP2 SWAP1 SSTORE POP PUSH17 0x292C5BDD3B92EC810287B1B3FFFFFFFFF PUSH1 0x1 PUSH1 0x59 PUSH1 0x80 DUP2 LT PUSH3 0xB2C JUMPI PUSH3 0xB2B PUSH3 0x15FB JUMP JUMPDEST JUMPDEST ADD DUP2 SWAP1 SSTORE POP PUSH17 0x277ABDCDAB07D5A77AC6D6B9FFFFFFFFF PUSH1 0x1 PUSH1 0x5A PUSH1 0x80 DUP2 LT PUSH3 0xB5B JUMPI PUSH3 0xB5A PUSH3 0x15FB JUMP JUMPDEST JUMPDEST ADD DUP2 SWAP1 SSTORE POP PUSH17 0x25DAF6654B1EAA55FD64DF5EFFFFFFFFF PUSH1 0x1 PUSH1 0x5B PUSH1 0x80 DUP2 LT PUSH3 0xB8A JUMPI PUSH3 0xB89 PUSH3 0x15FB JUMP JUMPDEST JUMPDEST ADD DUP2 SWAP1 SSTORE POP PUSH17 0x244C49C648BAA98192DCE88B7FFFFFFFF PUSH1 0x1 PUSH1 0x5C PUSH1 0x80 DUP2 LT PUSH3 0xBB9 JUMPI PUSH3 0xBB8 PUSH3 0x15FB JUMP JUMPDEST JUMPDEST ADD DUP2 SWAP1 SSTORE POP PUSH17 0x22CE03CD5619A311B2471268BFFFFFFFF PUSH1 0x1 PUSH1 0x5D PUSH1 0x80 DUP2 LT PUSH3 0xBE8 JUMPI PUSH3 0xBE7 PUSH3 0x15FB JUMP JUMPDEST JUMPDEST ADD DUP2 SWAP1 SSTORE POP PUSH17 0x215F77C045FBE885654A44A0FFFFFFFFF PUSH1 0x1 PUSH1 0x5E PUSH1 0x80 DUP2 LT PUSH3 0xC17 JUMPI PUSH3 0xC16 PUSH3 0x15FB JUMP JUMPDEST JUMPDEST ADD DUP2 SWAP1 SSTORE POP PUSH17 0x1FFFFFFFFFFFFFFFFFFFFFFFFFFFFFFFF PUSH1 0x1 PUSH1 0x5F PUSH1 0x80 DUP2 LT PUSH3 0xC46 JUMPI PUSH3 0xC45 PUSH3 0x15FB JUMP JUMPDEST JUMPDEST ADD DUP2 SWAP1 SSTORE POP PUSH17 0x1EAEFDBDAAEE7421FC4D3EDE5FFFFFFFF PUSH1 0x1 PUSH1 0x60 PUSH1 0x80 DUP2 LT PUSH3 0xC75 JUMPI PUSH3 0xC74 PUSH3 0x15FB JUMP JUMPDEST JUMPDEST ADD DUP2 SWAP1 SSTORE POP PUSH17 0x1D6BD8B2EB257DF7E8CA57B09BFFFFFFF PUSH1 0x1 PUSH1 0x61 PUSH1 0x80 DUP2 LT PUSH3 0xCA4 JUMPI PUSH3 0xCA3 PUSH3 0x15FB JUMP JUMPDEST JUMPDEST ADD DUP2 SWAP1 SSTORE POP PUSH17 0x1C35FEDD14B861EB0443F7F133FFFFFFF PUSH1 0x1 PUSH1 0x62 PUSH1 0x80 DUP2 LT PUSH3 0xCD3 JUMPI PUSH3 0xCD2 PUSH3 0x15FB JUMP JUMPDEST JUMPDEST ADD DUP2 SWAP1 SSTORE POP PUSH17 0x1B0CE43B322BCDE4A56E8ADA5AFFFFFFF PUSH1 0x1 PUSH1 0x63 PUSH1 0x80 DUP2 LT PUSH3 0xD02 JUMPI PUSH3 0xD01 PUSH3 0x15FB JUMP JUMPDEST JUMPDEST ADD DUP2 SWAP1 SSTORE POP PUSH17 0x19F0028EC1FFF007F5A195A39DFFFFFFF PUSH1 0x1 PUSH1 0x64 PUSH1 0x80 DUP2 LT PUSH3 0xD31 JUMPI PUSH3 0xD30 PUSH3 0x15FB JUMP JUMPDEST JUMPDEST ADD DUP2 SWAP1 SSTORE POP PUSH17 0x18DED91F0E72EE74F49B15BA527FFFFFF PUSH1 0x1 PUSH1 0x65 PUSH1 0x80 DUP2 LT PUSH3 0xD60 JUMPI PUSH3 0xD5F PUSH3 0x15FB JUMP JUMPDEST JUMPDEST ADD DUP2 SWAP1 SSTORE POP PUSH17 0x17D8EC7F04136F4E5615FD41A63FFFFFF PUSH1 0x1 PUSH1 0x66 PUSH1 0x80 DUP2 LT PUSH3 0xD8F JUMPI PUSH3 0xD8E PUSH3 0x15FB JUMP JUMPDEST JUMPDEST ADD DUP2 SWAP1 SSTORE POP PUSH17 0x16DDC6556CDB84BDC8D12D22E6FFFFFFF PUSH1 0x1 PUSH1 0x67 PUSH1 0x80 DUP2 LT PUSH3 0xDBE JUMPI PUSH3 0xDBD PUSH3 0x15FB JUMP JUMPDEST JUMPDEST ADD DUP2 SWAP1 SSTORE POP PUSH17 0x15ECF52776A1155B5BD8395814F7FFFFF PUSH1 0x1 PUSH1 0x68 PUSH1 0x80 DUP2 LT PUSH3 0xDED JUMPI PUSH3 0xDEC PUSH3 0x15FB JUMP JUMPDEST JUMPDEST ADD DUP2 SWAP1 SSTORE POP PUSH17 0x15060C256CB23B3B3CC3754CF40FFFFFF PUSH1 0x1 PUSH1 0x69 PUSH1 0x80 DUP2 LT PUSH3 0xE1C JUMPI PUSH3 0xE1B PUSH3 0x15FB JUMP JUMPDEST JUMPDEST ADD DUP2 SWAP1 SSTORE POP PUSH17 0x1428A2F98D728AE223DDAB715BE3FFFFF PUSH1 0x1 PUSH1 0x6A PUSH1 0x80 DUP2 LT PUSH3 0xE4B JUMPI PUSH3 0xE4A PUSH3 0x15FB JUMP JUMPDEST JUMPDEST ADD DUP2 SWAP1 SSTORE POP PUSH17 0x13545598E5C23276CCF0EDE68034FFFFF PUSH1 0x1 PUSH1 0x6B PUSH1 0x80 DUP2 LT PUSH3 0xE7A JUMPI PUSH3 0xE79 PUSH3 0x15FB JUMP JUMPDEST JUMPDEST ADD DUP2 SWAP1 SSTORE POP PUSH17 0x1288C4161CE1D6F54B7F61081194FFFFF PUSH1 0x1 PUSH1 0x6C PUSH1 0x80 DUP2 LT PUSH3 0xEA9 JUMPI PUSH3 0xEA8 PUSH3 0x15FB JUMP JUMPDEST JUMPDEST ADD DUP2 SWAP1 SSTORE POP PUSH17 0x11C592761C666AA641D5A01A40F17FFFF PUSH1 0x1 PUSH1 0x6D PUSH1 0x80 DUP2 LT PUSH3 0xED8 JUMPI PUSH3 0xED7 PUSH3 0x15FB JUMP JUMPDEST JUMPDEST ADD DUP2 SWAP1 SSTORE POP PUSH17 0x110A688680A7530515F3E6E6CFDCDFFFF PUSH1 0x1 PUSH1 0x6E PUSH1 0x80 DUP2 LT PUSH3 0xF07 JUMPI PUSH3 0xF06 PUSH3 0x15FB JUMP JUMPDEST JUMPDEST ADD DUP2 SWAP1 SSTORE POP PUSH17 0x1056F1B5BEDF75C6BCB2CE8AED428FFFF PUSH1 0x1 PUSH1 0x6F PUSH1 0x80 DUP2 LT PUSH3 0xF36 JUMPI PUSH3 0xF35 PUSH3 0x15FB JUMP JUMPDEST JUMPDEST ADD DUP2 SWAP1 SSTORE POP PUSH16 0xFAADCECEEFF8A0890F3875F008277FFF PUSH1 0x1 PUSH1 0x70 PUSH1 0x80 DUP2 LT PUSH3 0xF64 JUMPI PUSH3 0xF63 PUSH3 0x15FB JUMP JUMPDEST JUMPDEST ADD DUP2 SWAP1 SSTORE POP PUSH16 0xF05DC6B27EDAD306388A600F6BA0BFFF PUSH1 0x1 PUSH1 0x71 PUSH1 0x80 DUP2 LT PUSH3 0xF92 JUMPI PUSH3 0xF91 PUSH3 0x15FB JUMP JUMPDEST JUMPDEST ADD DUP2 SWAP1 SSTORE POP PUSH16 0xE67A5A25DA41063DE1495D5B18CDBFFF PUSH1 0x1 PUSH1 0x72 PUSH1 0x80 DUP2 LT PUSH3 0xFC0 JUMPI PUSH3 0xFBF PUSH3 0x15FB JUMP JUMPDEST JUMPDEST ADD DUP2 SWAP1 SSTORE POP PUSH16 0xDCFF115B14EEDDE6FC3AA5353F2E4FFF PUSH1 0x1 PUSH1 0x73 PUSH1 0x80 DUP2 LT PUSH3 0xFEE JUMPI PUSH3 0xFED PUSH3 0x15FB JUMP JUMPDEST JUMPDEST ADD DUP2 SWAP1 SSTORE POP PUSH16 0xD3E7A3924312399F9AAE2E0F868F8FFF PUSH1 0x1 PUSH1 0x74 PUSH1 0x80 DUP2 LT PUSH3 0x101C JUMPI PUSH3 0x101B PUSH3 0x15FB JUMP JUMPDEST JUMPDEST ADD DUP2 SWAP1 SSTORE POP PUSH16 0xCB2FF529EB71E41582CCCD5A1EE26FFF PUSH1 0x1 PUSH1 0x75 PUSH1 0x80 DUP2 LT PUSH3 0x104A JUMPI PUSH3 0x1049 PUSH3 0x15FB JUMP JUMPDEST JUMPDEST ADD DUP2 SWAP1 SSTORE POP PUSH16 0xC2D415C3DB974AB32A51840C0B67EDFF PUSH1 0x1 PUSH1 0x76 PUSH1 0x80 DUP2 LT PUSH3 0x1078 JUMPI PUSH3 0x1077 PUSH3 0x15FB JUMP JUMPDEST JUMPDEST ADD DUP2 SWAP1 SSTORE POP PUSH16 0xBAD03E7D883F69AD5B0A186184E06BFF PUSH1 0x1 PUSH1 0x77 PUSH1 0x80 DUP2 LT PUSH3 0x10A6 JUMPI PUSH3 0x10A5 PUSH3 0x15FB JUMP JUMPDEST JUMPDEST ADD DUP2 SWAP1 SSTORE POP PUSH16 0xB320D03B2C343D4829ABD6075F0CC5FF PUSH1 0x1 PUSH1 0x78 PUSH1 0x80 DUP2 LT PUSH3 0x10D4 JUMPI PUSH3 0x10D3 PUSH3 0x15FB JUMP JUMPDEST JUMPDEST ADD DUP2 SWAP1 SSTORE POP PUSH16 0xABC25204E02828D73C6E80BCDB1A95BF PUSH1 0x1 PUSH1 0x79 PUSH1 0x80 DUP2 LT PUSH3 0x1102 JUMPI PUSH3 0x1101 PUSH3 0x15FB JUMP JUMPDEST JUMPDEST ADD DUP2 SWAP1 SSTORE POP PUSH16 0xA4B16F74EE4BB2040A1EC6C15FBBF2DF PUSH1 0x1 PUSH1 0x7A PUSH1 0x80 DUP2 LT PUSH3 0x1130 JUMPI PUSH3 0x112F PUSH3 0x15FB JUMP JUMPDEST JUMPDEST ADD DUP2 SWAP1 SSTORE POP PUSH16 0x9DEAF736AC1F569DEB1B5AE3F36C130F PUSH1 0x1 PUSH1 0x7B PUSH1 0x80 DUP2 LT PUSH3 0x115E JUMPI PUSH3 0x115D PUSH3 0x15FB JUMP JUMPDEST JUMPDEST ADD DUP2 SWAP1 SSTORE POP PUSH16 0x976BD9952C7AA957F5937D790EF65037 PUSH1 0x1 PUSH1 0x7C PUSH1 0x80 DUP2 LT PUSH3 0x118C JUMPI PUSH3 0x118B PUSH3 0x15FB JUMP JUMPDEST JUMPDEST ADD DUP2 SWAP1 SSTORE POP PUSH16 0x9131271922EAA6064B73A22D0BD4F2BF PUSH1 0x1 PUSH1 0x7D PUSH1 0x80 DUP2 LT PUSH3 0x11BA JUMPI PUSH3 0x11B9 PUSH3 0x15FB JUMP JUMPDEST JUMPDEST ADD DUP2 SWAP1 SSTORE POP PUSH16 0x8B380F3558668C46C91C49A2F8E967B9 PUSH1 0x1 PUSH1 0x7E PUSH1 0x80 DUP2 LT PUSH3 0x11E8 JUMPI PUSH3 0x11E7 PUSH3 0x15FB JUMP JUMPDEST JUMPDEST ADD DUP2 SWAP1 SSTORE POP PUSH16 0x857DDF0117EFA215952912839F6473E6 PUSH1 0x1 PUSH1 0x7F PUSH1 0x80 DUP2 LT PUSH3 0x1216 JUMPI PUSH3 0x1215 PUSH3 0x15FB JUMP JUMPDEST JUMPDEST ADD DUP2 SWAP1 SSTORE POP PUSH3 0x122C DUP2 PUSH3 0x123B PUSH1 0x20 SHL PUSH1 0x20 SHR JUMP JUMPDEST POP DUP1 PUSH1 0x87 DUP2 SWAP1 SSTORE POP POP PUSH3 0x1628 JUMP JUMPDEST DUP1 PUSH1 0x83 SWAP1 DUP2 PUSH3 0x124C SWAP2 SWAP1 PUSH3 0x14B4 JUMP JUMPDEST POP POP JUMP JUMPDEST PUSH0 DUP2 MLOAD SWAP1 POP SWAP2 SWAP1 POP JUMP JUMPDEST PUSH32 0x4E487B7100000000000000000000000000000000000000000000000000000000 PUSH0 MSTORE PUSH1 0x41 PUSH1 0x4 MSTORE PUSH1 0x24 PUSH0 REVERT JUMPDEST PUSH32 0x4E487B7100000000000000000000000000000000000000000000000000000000 PUSH0 MSTORE PUSH1 0x22 PUSH1 0x4 MSTORE PUSH1 0x24 PUSH0 REVERT JUMPDEST PUSH0 PUSH1 0x2 DUP3 DIV SWAP1 POP PUSH1 0x1 DUP3 AND DUP1 PUSH3 0x12CC JUMPI PUSH1 0x7F DUP3 AND SWAP2 POP JUMPDEST PUSH1 0x20 DUP3 LT DUP2 SUB PUSH3 0x12E2 JUMPI PUSH3 0x12E1 PUSH3 0x1287 JUMP JUMPDEST JUMPDEST POP SWAP2 SWAP1 POP JUMP JUMPDEST PUSH0 DUP2 SWAP1 POP DUP2 PUSH0 MSTORE PUSH1 0x20 PUSH0 KECCAK256 SWAP1 POP SWAP2 SWAP1 POP JUMP JUMPDEST PUSH0 PUSH1 0x20 PUSH1 0x1F DUP4 ADD DIV SWAP1 POP SWAP2 SWAP1 POP JUMP JUMPDEST PUSH0 DUP3 DUP3 SHL SWAP1 POP SWAP3 SWAP2 POP POP JUMP JUMPDEST PUSH0 PUSH1 0x8 DUP4 MUL PUSH3 0x1346 PUSH32 0xFFFFFFFFFFFFFFFFFFFFFFFFFFFFFFFFFFFFFFFFFFFFFFFFFFFFFFFFFFFFFFFF DUP3 PUSH3 0x1309 JUMP JUMPDEST PUSH3 0x1352 DUP7 DUP4 PUSH3 0x1309 JUMP JUMPDEST SWAP6 POP DUP1 NOT DUP5 AND SWAP4 POP DUP1 DUP7 AND DUP5 OR SWAP3 POP POP POP SWAP4 SWAP3 POP POP POP JUMP JUMPDEST PUSH0 DUP2 SWAP1 POP SWAP2 SWAP1 POP JUMP JUMPDEST PUSH0 DUP2 SWAP1 POP SWAP2 SWAP1 POP JUMP JUMPDEST PUSH0 PUSH3 0x139C PUSH3 0x1396 PUSH3 0x1390 DUP5 PUSH3 0x136A JUMP JUMPDEST PUSH3 0x1373 JUMP JUMPDEST PUSH3 0x136A JUMP JUMPDEST SWAP1 POP SWAP2 SWAP1 POP JUMP JUMPDEST PUSH0 DUP2 SWAP1 POP SWAP2 SWAP1 POP JUMP JUMPDEST PUSH3 0x13B7 DUP4 PUSH3 0x137C JUMP JUMPDEST PUSH3 0x13CF PUSH3 0x13C6 DUP3 PUSH3 0x13A3 JUMP JUMPDEST DUP5 DUP5 SLOAD PUSH3 0x1315 JUMP JUMPDEST DUP3 SSTORE POP POP POP POP JUMP JUMPDEST PUSH0 SWAP1 JUMP JUMPDEST PUSH3 0x13E5 PUSH3 0x13D7 JUMP JUMPDEST PUSH3 0x13F2 DUP2 DUP5 DUP5 PUSH3 0x13AC JUMP JUMPDEST POP POP POP JUMP JUMPDEST JUMPDEST DUP2 DUP2 LT ISZERO PUSH3 0x1419 JUMPI PUSH3 0x140D PUSH0 DUP3 PUSH3 0x13DB JUMP JUMPDEST PUSH1 0x1 DUP2 ADD SWAP1 POP PUSH3 0x13F8 JUMP JUMPDEST POP POP JUMP JUMPDEST PUSH1 0x1F DUP3 GT ISZERO PUSH3 0x1468 JUMPI PUSH3 0x1432 DUP2 PUSH3 0x12E8 JUMP JUMPDEST PUSH3 0x143D DUP5 PUSH3 0x12FA JUMP JUMPDEST DUP2 ADD PUSH1 0x20 DUP6 LT ISZERO PUSH3 0x144D JUMPI DUP2 SWAP1 POP JUMPDEST PUSH3 0x1465 PUSH3 0x145C DUP6 PUSH3 0x12FA JUMP JUMPDEST DUP4 ADD DUP3 PUSH3 0x13F7 JUMP JUMPDEST POP POP JUMPDEST POP POP POP JUMP JUMPDEST PUSH0 DUP3 DUP3 SHR SWAP1 POP SWAP3 SWAP2 POP POP JUMP JUMPDEST PUSH0 PUSH3 0x148A PUSH0 NOT DUP5 PUSH1 0x8 MUL PUSH3 0x146D JUMP JUMPDEST NOT DUP1 DUP4 AND SWAP2 POP POP SWAP3 SWAP2 POP POP JUMP JUMPDEST PUSH0 PUSH3 0x14A4 DUP4 DUP4 PUSH3 0x1479 JUMP JUMPDEST SWAP2 POP DUP3 PUSH1 0x2 MUL DUP3 OR SWAP1 POP SWAP3 SWAP2 POP POP JUMP JUMPDEST PUSH3 0x14BF DUP3 PUSH3 0x1250 JUMP JUMPDEST PUSH8 0xFFFFFFFFFFFFFFFF DUP2 GT ISZERO PUSH3 0x14DB JUMPI PUSH3 0x14DA PUSH3 0x125A JUMP JUMPDEST JUMPDEST PUSH3 0x14E7 DUP3 SLOAD PUSH3 0x12B4 JUMP JUMPDEST PUSH3 0x14F4 DUP3 DUP3 DUP6 PUSH3 0x141D JUMP JUMPDEST PUSH0 PUSH1 0x20 SWAP1 POP PUSH1 0x1F DUP4 GT PUSH1 0x1 DUP2 EQ PUSH3 0x152A JUMPI PUSH0 DUP5 ISZERO PUSH3 0x1515 JUMPI DUP3 DUP8 ADD MLOAD SWAP1 POP JUMPDEST PUSH3 0x1521 DUP6 DUP3 PUSH3 0x1497 JUMP JUMPDEST DUP7 SSTORE POP PUSH3 0x1590 JUMP JUMPDEST PUSH1 0x1F NOT DUP5 AND PUSH3 0x153A DUP7 PUSH3 0x12E8 JUMP JUMPDEST PUSH0 JUMPDEST DUP3 DUP2 LT ISZERO PUSH3 0x1563 JUMPI DUP5 DUP10 ADD MLOAD DUP3 SSTORE PUSH1 0x1 DUP3 ADD SWAP2 POP PUSH1 0x20 DUP6 ADD SWAP5 POP PUSH1 0x20 DUP2 ADD SWAP1 POP PUSH3 0x153C JUMP JUMPDEST DUP7 DUP4 LT ISZERO PUSH3 0x1583 JUMPI DUP5 DUP10 ADD MLOAD PUSH3 0x157F PUSH1 0x1F DUP10 AND DUP3 PUSH3 0x1479 JUMP JUMPDEST DUP4 SSTORE POP JUMPDEST PUSH1 0x1 PUSH1 0x2 DUP9 MUL ADD DUP9 SSTORE POP POP POP JUMPDEST POP POP POP POP POP POP JUMP JUMPDEST PUSH0 DUP1 REVERT JUMPDEST PUSH3 0x15A7 DUP2 PUSH3 0x136A JUMP JUMPDEST DUP2 EQ PUSH3 0x15B2 JUMPI PUSH0 DUP1 REVERT JUMPDEST POP JUMP JUMPDEST PUSH0 DUP2 MLOAD SWAP1 POP PUSH3 0x15C5 DUP2 PUSH3 0x159C JUMP JUMPDEST SWAP3 SWAP2 POP POP JUMP JUMPDEST PUSH0 PUSH1 0x20 DUP3 DUP5 SUB SLT ISZERO PUSH3 0x15E3 JUMPI PUSH3 0x15E2 PUSH3 0x1598 JUMP JUMPDEST JUMPDEST PUSH0 PUSH3 0x15F2 DUP5 DUP3 DUP6 ADD PUSH3 0x15B5 JUMP JUMPDEST SWAP2 POP POP SWAP3 SWAP2 POP POP JUMP JUMPDEST PUSH32 0x4E487B7100000000000000000000000000000000000000000000000000000000 PUSH0 MSTORE PUSH1 0x32 PUSH1 0x4 MSTORE PUSH1 0x24 PUSH0 REVERT JUMPDEST PUSH2 0x459A DUP1 PUSH3 0x1636 PUSH0 CODECOPY PUSH0 RETURN INVALID PUSH1 0x80 PUSH1 0x40 MSTORE CALLVALUE DUP1 ISZERO PUSH2 0xF JUMPI PUSH0 DUP1 REVERT JUMPDEST POP PUSH1 0x4 CALLDATASIZE LT PUSH2 0x11E JUMPI PUSH0 CALLDATALOAD PUSH1 0xE0 SHR DUP1 PUSH4 0x4E1273F4 GT PUSH2 0xAB JUMPI DUP1 PUSH4 0xBD85B039 GT PUSH2 0x6F JUMPI DUP1 PUSH4 0xBD85B039 EQ PUSH2 0x364 JUMPI DUP1 PUSH4 0xE985E9C5 EQ PUSH2 0x394 JUMPI DUP1 PUSH4 0xECED5526 EQ PUSH2 0x3C4 JUMPI DUP1 PUSH4 0xEE37778D EQ PUSH2 0x3E2 JUMPI DUP1 PUSH4 0xF242432A EQ PUSH2 0x412 JUMPI PUSH2 0x11E JUMP JUMPDEST DUP1 PUSH4 0x4E1273F4 EQ PUSH2 0x29A JUMPI DUP1 PUSH4 0x4F558E79 EQ PUSH2 0x2CA JUMPI DUP1 PUSH4 0x54FD4D50 EQ PUSH2 0x2FA JUMPI DUP1 PUSH4 0xA22CB465 EQ PUSH2 0x318 JUMPI DUP1 PUSH4 0xA3111ABD EQ PUSH2 0x334 JUMPI PUSH2 0x11E JUMP JUMPDEST DUP1 PUSH4 0x14269687 GT PUSH2 0xF2 JUMPI DUP1 PUSH4 0x14269687 EQ PUSH2 0x1D0 JUMPI DUP1 PUSH4 0x18160DDD EQ PUSH2 0x200 JUMPI DUP1 PUSH4 0x29A00E7C EQ PUSH2 0x21E JUMPI DUP1 PUSH4 0x2EB2C2D6 EQ PUSH2 0x24E JUMPI DUP1 PUSH4 0x49F9B0F7 EQ PUSH2 0x26A JUMPI PUSH2 0x11E JUMP JUMPDEST DUP1 PUSH3 0xFDD58E EQ PUSH2 0x122 JUMPI DUP1 PUSH4 0x1FFC9A7 EQ PUSH2 0x152 JUMPI DUP1 PUSH4 0xC7D5CD8 EQ PUSH2 0x182 JUMPI DUP1 PUSH4 0xE89341C EQ PUSH2 0x1A0 JUMPI JUMPDEST PUSH0 DUP1 REVERT JUMPDEST PUSH2 0x13C PUSH1 0x4 DUP1 CALLDATASIZE SUB DUP2 ADD SWAP1 PUSH2 0x137 SWAP2 SWAP1 PUSH2 0x35FB JUMP JUMPDEST PUSH2 0x42E JUMP JUMPDEST PUSH1 0x40 MLOAD PUSH2 0x149 SWAP2 SWAP1 PUSH2 0x3648 JUMP JUMPDEST PUSH1 0x40 MLOAD DUP1 SWAP2 SUB SWAP1 RETURN JUMPDEST PUSH2 0x16C PUSH1 0x4 DUP1 CALLDATASIZE SUB DUP2 ADD SWAP1 PUSH2 0x167 SWAP2 SWAP1 PUSH2 0x36B6 JUMP JUMPDEST PUSH2 0x484 JUMP JUMPDEST PUSH1 0x40 MLOAD PUSH2 0x179 SWAP2 SWAP1 PUSH2 0x36FB JUMP JUMPDEST PUSH1 0x40 MLOAD DUP1 SWAP2 SUB SWAP1 RETURN JUMPDEST PUSH2 0x18A PUSH2 0x565 JUMP JUMPDEST PUSH1 0x40 MLOAD PUSH2 0x197 SWAP2 SWAP1 PUSH2 0x3648 JUMP JUMPDEST PUSH1 0x40 MLOAD DUP1 SWAP2 SUB SWAP1 RETURN JUMPDEST PUSH2 0x1BA PUSH1 0x4 DUP1 CALLDATASIZE SUB DUP2 ADD SWAP1 PUSH2 0x1B5 SWAP2 SWAP1 PUSH2 0x3714 JUMP JUMPDEST PUSH2 0x56B JUMP JUMPDEST PUSH1 0x40 MLOAD PUSH2 0x1C7 SWAP2 SWAP1 PUSH2 0x37C9 JUMP JUMPDEST PUSH1 0x40 MLOAD DUP1 SWAP2 SUB SWAP1 RETURN JUMPDEST PUSH2 0x1EA PUSH1 0x4 DUP1 CALLDATASIZE SUB DUP2 ADD SWAP1 PUSH2 0x1E5 SWAP2 SWAP1 PUSH2 0x3714 JUMP JUMPDEST PUSH2 0x5FD JUMP JUMPDEST PUSH1 0x40 MLOAD PUSH2 0x1F7 SWAP2 SWAP1 PUSH2 0x3648 JUMP JUMPDEST PUSH1 0x40 MLOAD DUP1 SWAP2 SUB SWAP1 RETURN JUMPDEST PUSH2 0x208 PUSH2 0x612 JUMP JUMPDEST PUSH1 0x40 MLOAD PUSH2 0x215 SWAP2 SWAP1 PUSH2 0x3648 JUMP JUMPDEST PUSH1 0x40 MLOAD DUP1 SWAP2 SUB SWAP1 RETURN JUMPDEST PUSH2 0x238 PUSH1 0x4 DUP1 CALLDATASIZE SUB DUP2 ADD SWAP1 PUSH2 0x233 SWAP2 SWAP1 PUSH2 0x3822 JUMP JUMPDEST PUSH2 0x61B JUMP JUMPDEST PUSH1 0x40 MLOAD PUSH2 0x245 SWAP2 SWAP1 PUSH2 0x3648 JUMP JUMPDEST PUSH1 0x40 MLOAD DUP1 SWAP2 SUB SWAP1 RETURN JUMPDEST PUSH2 0x268 PUSH1 0x4 DUP1 CALLDATASIZE SUB DUP2 ADD SWAP1 PUSH2 0x263 SWAP2 SWAP1 PUSH2 0x3A76 JUMP JUMPDEST PUSH2 0x74C JUMP JUMPDEST STOP JUMPDEST PUSH2 0x284 PUSH1 0x4 DUP1 CALLDATASIZE SUB DUP2 ADD SWAP1 PUSH2 0x27F SWAP2 SWAP1 PUSH2 0x3822 JUMP JUMPDEST PUSH2 0x7F3 JUMP JUMPDEST PUSH1 0x40 MLOAD PUSH2 0x291 SWAP2 SWAP1 PUSH2 0x3648 JUMP JUMPDEST PUSH1 0x40 MLOAD DUP1 SWAP2 SUB SWAP1 RETURN JUMPDEST PUSH2 0x2B4 PUSH1 0x4 DUP1 CALLDATASIZE SUB DUP2 ADD SWAP1 PUSH2 0x2AF SWAP2 SWAP1 PUSH2 0x3C01 JUMP JUMPDEST PUSH2 0x956 JUMP JUMPDEST PUSH1 0x40 MLOAD PUSH2 0x2C1 SWAP2 SWAP1 PUSH2 0x3D2E JUMP JUMPDEST PUSH1 0x40 MLOAD DUP1 SWAP2 SUB SWAP1 RETURN JUMPDEST PUSH2 0x2E4 PUSH1 0x4 DUP1 CALLDATASIZE SUB DUP2 ADD SWAP1 PUSH2 0x2DF SWAP2 SWAP1 PUSH2 0x3714 JUMP JUMPDEST PUSH2 0xA63 JUMP JUMPDEST PUSH1 0x40 MLOAD PUSH2 0x2F1 SWAP2 SWAP1 PUSH2 0x36FB JUMP JUMPDEST PUSH1 0x40 MLOAD DUP1 SWAP2 SUB SWAP1 RETURN JUMPDEST PUSH2 0x302 PUSH2 0xA76 JUMP JUMPDEST PUSH1 0x40 MLOAD PUSH2 0x30F SWAP2 SWAP1 PUSH2 0x37C9 JUMP JUMPDEST PUSH1 0x40 MLOAD DUP1 SWAP2 SUB SWAP1 RETURN JUMPDEST PUSH2 0x332 PUSH1 0x4 DUP1 CALLDATASIZE SUB DUP2 ADD SWAP1 PUSH2 0x32D SWAP2 SWAP1 PUSH2 0x3D78 JUMP JUMPDEST PUSH2 0xB01 JUMP JUMPDEST STOP JUMPDEST PUSH2 0x34E PUSH1 0x4 DUP1 CALLDATASIZE SUB DUP2 ADD SWAP1 PUSH2 0x349 SWAP2 SWAP1 PUSH2 0x3DB6 JUMP JUMPDEST PUSH2 0xB17 JUMP JUMPDEST PUSH1 0x40 MLOAD PUSH2 0x35B SWAP2 SWAP1 PUSH2 0x3648 JUMP JUMPDEST PUSH1 0x40 MLOAD DUP1 SWAP2 SUB SWAP1 RETURN JUMPDEST PUSH2 0x37E PUSH1 0x4 DUP1 CALLDATASIZE SUB DUP2 ADD SWAP1 PUSH2 0x379 SWAP2 SWAP1 PUSH2 0x3714 JUMP JUMPDEST PUSH2 0xB47 JUMP JUMPDEST PUSH1 0x40 MLOAD PUSH2 0x38B SWAP2 SWAP1 PUSH2 0x3648 JUMP JUMPDEST PUSH1 0x40 MLOAD DUP1 SWAP2 SUB SWAP1 RETURN JUMPDEST PUSH2 0x3AE PUSH1 0x4 DUP1 CALLDATASIZE SUB DUP2 ADD SWAP1 PUSH2 0x3A9 SWAP2 SWAP1 PUSH2 0x3DF4 JUMP JUMPDEST PUSH2 0xB61 JUMP JUMPDEST PUSH1 0x40 MLOAD PUSH2 0x3BB SWAP2 SWAP1 PUSH2 0x36FB JUMP JUMPDEST PUSH1 0x40 MLOAD DUP1 SWAP2 SUB SWAP1 RETURN JUMPDEST PUSH2 0x3CC PUSH2 0xBEF JUMP JUMPDEST PUSH1 0x40 MLOAD PUSH2 0x3D9 SWAP2 SWAP1 PUSH2 0x3648 JUMP JUMPDEST PUSH1 0x40 MLOAD DUP1 SWAP2 SUB SWAP1 RETURN JUMPDEST PUSH2 0x3FC PUSH1 0x4 DUP1 CALLDATASIZE SUB DUP2 ADD SWAP1 PUSH2 0x3F7 SWAP2 SWAP1 PUSH2 0x3DB6 JUMP JUMPDEST PUSH2 0xBFB JUMP JUMPDEST PUSH1 0x40 MLOAD PUSH2 0x409 SWAP2 SWAP1 PUSH2 0x3648 JUMP JUMPDEST PUSH1 0x40 MLOAD DUP1 SWAP2 SUB SWAP1 RETURN JUMPDEST PUSH2 0x42C PUSH1 0x4 DUP1 CALLDATASIZE SUB DUP2 ADD SWAP1 PUSH2 0x427 SWAP2 SWAP1 PUSH2 0x3E32 JUMP JUMPDEST PUSH2 0xC2B JUMP JUMPDEST STOP JUMPDEST PUSH0 PUSH1 0x81 PUSH0 DUP4 DUP2 MSTORE PUSH1 0x20 ADD SWAP1 DUP2 MSTORE PUSH1 0x20 ADD PUSH0 KECCAK256 PUSH0 DUP5 PUSH20 0xFFFFFFFFFFFFFFFFFFFFFFFFFFFFFFFFFFFFFFFF AND PUSH20 0xFFFFFFFFFFFFFFFFFFFFFFFFFFFFFFFFFFFFFFFF AND DUP2 MSTORE PUSH1 0x20 ADD SWAP1 DUP2 MSTORE PUSH1 0x20 ADD PUSH0 KECCAK256 SLOAD SWAP1 POP SWAP3 SWAP2 POP POP JUMP JUMPDEST PUSH0 PUSH32 0xD9B67A2600000000000000000000000000000000000000000000000000000000 PUSH28 0xFFFFFFFFFFFFFFFFFFFFFFFFFFFFFFFFFFFFFFFFFFFFFFFFFFFFFFFF NOT AND DUP3 PUSH28 0xFFFFFFFFFFFFFFFFFFFFFFFFFFFFFFFFFFFFFFFFFFFFFFFFFFFFFFFF NOT AND EQ DUP1 PUSH2 0x54E JUMPI POP PUSH32 0xE89341C00000000000000000000000000000000000000000000000000000000 PUSH28 0xFFFFFFFFFFFFFFFFFFFFFFFFFFFFFFFFFFFFFFFFFFFFFFFFFFFFFFFF NOT AND DUP3 PUSH28 0xFFFFFFFFFFFFFFFFFFFFFFFFFFFFFFFFFFFFFFFFFFFFFFFFFFFFFFFF NOT AND EQ JUMPDEST DUP1 PUSH2 0x55E JUMPI POP PUSH2 0x55D DUP3 PUSH2 0xCD2 JUMP JUMPDEST JUMPDEST SWAP1 POP SWAP2 SWAP1 POP JUMP JUMPDEST PUSH1 0x87 SLOAD DUP2 JUMP JUMPDEST PUSH1 0x60 PUSH1 0x83 DUP1 SLOAD PUSH2 0x57A SWAP1 PUSH2 0x3EF2 JUMP JUMPDEST DUP1 PUSH1 0x1F ADD PUSH1 0x20 DUP1 SWAP2 DIV MUL PUSH1 0x20 ADD PUSH1 0x40 MLOAD SWAP1 DUP2 ADD PUSH1 0x40 MSTORE DUP1 SWAP3 SWAP2 SWAP1 DUP2 DUP2 MSTORE PUSH1 0x20 ADD DUP3 DUP1 SLOAD PUSH2 0x5A6 SWAP1 PUSH2 0x3EF2 JUMP JUMPDEST DUP1 ISZERO PUSH2 0x5F1 JUMPI DUP1 PUSH1 0x1F LT PUSH2 0x5C8 JUMPI PUSH2 0x100 DUP1 DUP4 SLOAD DIV MUL DUP4 MSTORE SWAP2 PUSH1 0x20 ADD SWAP2 PUSH2 0x5F1 JUMP JUMPDEST DUP3 ADD SWAP2 SWAP1 PUSH0 MSTORE PUSH1 0x20 PUSH0 KECCAK256 SWAP1 JUMPDEST DUP2 SLOAD DUP2 MSTORE SWAP1 PUSH1 0x1 ADD SWAP1 PUSH1 0x20 ADD DUP1 DUP4 GT PUSH2 0x5D4 JUMPI DUP3 SWAP1 SUB PUSH1 0x1F AND DUP3 ADD SWAP2 JUMPDEST POP POP POP POP POP SWAP1 POP SWAP2 SWAP1 POP JUMP JUMPDEST PUSH1 0x86 PUSH1 0x20 MSTORE DUP1 PUSH0 MSTORE PUSH1 0x40 PUSH0 KECCAK256 PUSH0 SWAP2 POP SWAP1 POP SLOAD DUP2 JUMP JUMPDEST PUSH0 PUSH1 0x85 SLOAD SWAP1 POP SWAP1 JUMP JUMPDEST PUSH0 DUP1 DUP6 GT DUP1 ISZERO PUSH2 0x62A JUMPI POP PUSH0 DUP5 GT JUMPDEST DUP1 ISZERO PUSH2 0x63B JUMPI POP PUSH0 DUP4 PUSH4 0xFFFFFFFF AND GT JUMPDEST DUP1 ISZERO PUSH2 0x656 JUMPI POP PUSH3 0xF4240 PUSH4 0xFFFFFFFF AND DUP4 PUSH4 0xFFFFFFFF AND GT ISZERO JUMPDEST PUSH2 0x695 JUMPI PUSH1 0x40 MLOAD PUSH32 0x8C379A000000000000000000000000000000000000000000000000000000000 DUP2 MSTORE PUSH1 0x4 ADD PUSH2 0x68C SWAP1 PUSH2 0x3F6C JUMP JUMPDEST PUSH1 0x40 MLOAD DUP1 SWAP2 SUB SWAP1 REVERT JUMPDEST PUSH0 DUP3 SUB PUSH2 0x6A4 JUMPI PUSH0 SWAP1 POP PUSH2 0x744 JUMP JUMPDEST PUSH3 0xF4240 PUSH4 0xFFFFFFFF AND DUP4 PUSH4 0xFFFFFFFF AND SUB PUSH2 0x6E6 JUMPI PUSH2 0x6DF DUP5 PUSH2 0x6D1 DUP5 DUP9 PUSH2 0xD3B SWAP1 SWAP2 SWAP1 PUSH4 0xFFFFFFFF AND JUMP JUMPDEST PUSH2 0xD50 SWAP1 SWAP2 SWAP1 PUSH4 0xFFFFFFFF AND JUMP JUMPDEST SWAP1 POP PUSH2 0x744 JUMP JUMPDEST PUSH0 DUP1 PUSH0 PUSH2 0x6FC DUP8 DUP7 PUSH2 0xD65 SWAP1 SWAP2 SWAP1 PUSH4 0xFFFFFFFF AND JUMP JUMPDEST SWAP1 POP PUSH2 0x70D DUP2 DUP9 DUP9 PUSH3 0xF4240 PUSH2 0xD7A JUMP JUMPDEST DUP1 SWAP4 POP DUP2 SWAP5 POP POP POP PUSH0 DUP3 PUSH1 0xFF AND PUSH2 0x72D DUP6 DUP12 PUSH2 0xD3B SWAP1 SWAP2 SWAP1 PUSH4 0xFFFFFFFF AND JUMP JUMPDEST SWAP1 SHR SWAP1 POP DUP9 DUP2 PUSH2 0x73D SWAP2 SWAP1 PUSH2 0x3FB7 JUMP JUMPDEST SWAP5 POP POP POP POP POP JUMPDEST SWAP5 SWAP4 POP POP POP POP JUMP JUMPDEST PUSH0 PUSH2 0x755 PUSH2 0xF03 JUMP JUMPDEST SWAP1 POP DUP1 PUSH20 0xFFFFFFFFFFFFFFFFFFFFFFFFFFFFFFFFFFFFFFFF AND DUP7 PUSH20 0xFFFFFFFFFFFFFFFFFFFFFFFFFFFFFFFFFFFFFFFF AND EQ ISZERO DUP1 ISZERO PUSH2 0x79A JUMPI POP PUSH2 0x798 DUP7 DUP3 PUSH2 0xB61 JUMP JUMPDEST ISZERO JUMPDEST ISZERO PUSH2 0x7DE JUMPI DUP1 DUP7 PUSH1 0x40 MLOAD PUSH32 0xE237D92200000000000000000000000000000000000000000000000000000000 DUP2 MSTORE PUSH1 0x4 ADD PUSH2 0x7D5 SWAP3 SWAP2 SWAP1 PUSH2 0x3FF9 JUMP JUMPDEST PUSH1 0x40 MLOAD DUP1 SWAP2 SUB SWAP1 REVERT JUMPDEST PUSH2 0x7EB DUP7 DUP7 DUP7 DUP7 DUP7 PUSH2 0xF0A JUMP JUMPDEST POP POP POP POP POP POP JUMP JUMPDEST PUSH0 DUP1 DUP6 GT DUP1 ISZERO PUSH2 0x802 JUMPI POP PUSH0 DUP5 GT JUMPDEST DUP1 ISZERO PUSH2 0x813 JUMPI POP PUSH0 DUP4 PUSH4 0xFFFFFFFF AND GT JUMPDEST DUP1 ISZERO PUSH2 0x82E JUMPI POP PUSH3 0xF4240 PUSH4 0xFFFFFFFF AND DUP4 PUSH4 0xFFFFFFFF AND GT ISZERO JUMPDEST DUP1 ISZERO PUSH2 0x83A JUMPI POP DUP5 DUP3 GT ISZERO JUMPDEST PUSH2 0x879 JUMPI PUSH1 0x40 MLOAD PUSH32 0x8C379A000000000000000000000000000000000000000000000000000000000 DUP2 MSTORE PUSH1 0x4 ADD PUSH2 0x870 SWAP1 PUSH2 0x3F6C JUMP JUMPDEST PUSH1 0x40 MLOAD DUP1 SWAP2 SUB SWAP1 REVERT JUMPDEST PUSH0 DUP3 SUB PUSH2 0x888 JUMPI PUSH0 SWAP1 POP PUSH2 0x94E JUMP JUMPDEST DUP5 DUP3 SUB PUSH2 0x897 JUMPI DUP4 SWAP1 POP PUSH2 0x94E JUMP JUMPDEST PUSH3 0xF4240 PUSH4 0xFFFFFFFF AND DUP4 PUSH4 0xFFFFFFFF AND SUB PUSH2 0x8D9 JUMPI PUSH2 0x8D2 DUP6 PUSH2 0x8C4 DUP5 DUP8 PUSH2 0xD3B SWAP1 SWAP2 SWAP1 PUSH4 0xFFFFFFFF AND JUMP JUMPDEST PUSH2 0xD50 SWAP1 SWAP2 SWAP1 PUSH4 0xFFFFFFFF AND JUMP JUMPDEST SWAP1 POP PUSH2 0x94E JUMP JUMPDEST PUSH0 DUP1 PUSH0 DUP5 DUP9 PUSH2 0x8E8 SWAP2 SWAP1 PUSH2 0x3FB7 JUMP JUMPDEST SWAP1 POP PUSH2 0x8F9 DUP9 DUP3 PUSH3 0xF4240 DUP10 PUSH2 0xD7A JUMP JUMPDEST DUP1 SWAP4 POP DUP2 SWAP5 POP POP POP PUSH0 PUSH2 0x915 DUP5 DUP10 PUSH2 0xD3B SWAP1 SWAP2 SWAP1 PUSH4 0xFFFFFFFF AND JUMP JUMPDEST SWAP1 POP PUSH0 DUP4 PUSH1 0xFF AND DUP10 SWAP1 SHL SWAP1 POP PUSH2 0x946 DUP6 PUSH2 0x938 DUP4 DUP6 PUSH2 0xFFE SWAP1 SWAP2 SWAP1 PUSH4 0xFFFFFFFF AND JUMP JUMPDEST PUSH2 0xD50 SWAP1 SWAP2 SWAP1 PUSH4 0xFFFFFFFF AND JUMP JUMPDEST SWAP6 POP POP POP POP POP POP JUMPDEST SWAP5 SWAP4 POP POP POP POP JUMP JUMPDEST PUSH1 0x60 DUP2 MLOAD DUP4 MLOAD EQ PUSH2 0x9A2 JUMPI DUP2 MLOAD DUP4 MLOAD PUSH1 0x40 MLOAD PUSH32 0x5B05999100000000000000000000000000000000000000000000000000000000 DUP2 MSTORE PUSH1 0x4 ADD PUSH2 0x999 SWAP3 SWAP2 SWAP1 PUSH2 0x4020 JUMP JUMPDEST PUSH1 0x40 MLOAD DUP1 SWAP2 SUB SWAP1 REVERT JUMPDEST PUSH0 DUP4 MLOAD PUSH8 0xFFFFFFFFFFFFFFFF DUP2 GT ISZERO PUSH2 0x9BE JUMPI PUSH2 0x9BD PUSH2 0x388A JUMP JUMPDEST JUMPDEST PUSH1 0x40 MLOAD SWAP1 DUP1 DUP3 MSTORE DUP1 PUSH1 0x20 MUL PUSH1 0x20 ADD DUP3 ADD PUSH1 0x40 MSTORE DUP1 ISZERO PUSH2 0x9EC JUMPI DUP2 PUSH1 0x20 ADD PUSH1 0x20 DUP3 MUL DUP1 CALLDATASIZE DUP4 CALLDATACOPY DUP1 DUP3 ADD SWAP2 POP POP SWAP1 POP JUMPDEST POP SWAP1 POP PUSH0 JUMPDEST DUP5 MLOAD DUP2 LT ISZERO PUSH2 0xA58 JUMPI PUSH2 0xA28 PUSH2 0xA10 DUP3 DUP8 PUSH2 0x1013 SWAP1 SWAP2 SWAP1 PUSH4 0xFFFFFFFF AND JUMP JUMPDEST PUSH2 0xA23 DUP4 DUP8 PUSH2 0x1026 SWAP1 SWAP2 SWAP1 PUSH4 0xFFFFFFFF AND JUMP JUMPDEST PUSH2 0x42E JUMP JUMPDEST DUP3 DUP3 DUP2 MLOAD DUP2 LT PUSH2 0xA3B JUMPI PUSH2 0xA3A PUSH2 0x4047 JUMP JUMPDEST JUMPDEST PUSH1 0x20 MUL PUSH1 0x20 ADD ADD DUP2 DUP2 MSTORE POP POP DUP1 PUSH2 0xA51 SWAP1 PUSH2 0x4074 JUMP JUMPDEST SWAP1 POP PUSH2 0x9F1 JUMP JUMPDEST POP DUP1 SWAP2 POP POP SWAP3 SWAP2 POP POP JUMP JUMPDEST PUSH0 DUP1 PUSH2 0xA6E DUP4 PUSH2 0xB47 JUMP JUMPDEST GT SWAP1 POP SWAP2 SWAP1 POP JUMP JUMPDEST PUSH0 DUP1 SLOAD PUSH2 0xA82 SWAP1 PUSH2 0x3EF2 JUMP JUMPDEST DUP1 PUSH1 0x1F ADD PUSH1 0x20 DUP1 SWAP2 DIV MUL PUSH1 0x20 ADD PUSH1 0x40 MLOAD SWAP1 DUP2 ADD PUSH1 0x40 MSTORE DUP1 SWAP3 SWAP2 SWAP1 DUP2 DUP2 MSTORE PUSH1 0x20 ADD DUP3 DUP1 SLOAD PUSH2 0xAAE SWAP1 PUSH2 0x3EF2 JUMP JUMPDEST DUP1 ISZERO PUSH2 0xAF9 JUMPI DUP1 PUSH1 0x1F LT PUSH2 0xAD0 JUMPI PUSH2 0x100 DUP1 DUP4 SLOAD DIV MUL DUP4 MSTORE SWAP2 PUSH1 0x20 ADD SWAP2 PUSH2 0xAF9 JUMP JUMPDEST DUP3 ADD SWAP2 SWAP1 PUSH0 MSTORE PUSH1 0x20 PUSH0 KECCAK256 SWAP1 JUMPDEST DUP2 SLOAD DUP2 MSTORE SWAP1 PUSH1 0x1 ADD SWAP1 PUSH1 0x20 ADD DUP1 DUP4 GT PUSH2 0xADC JUMPI DUP3 SWAP1 SUB PUSH1 0x1F AND DUP3 ADD SWAP2 JUMPDEST POP POP POP POP POP DUP2 JUMP JUMPDEST PUSH2 0xB13 PUSH2 0xB0C PUSH2 0xF03 JUMP JUMPDEST DUP4 DUP4 PUSH2 0x1039 JUMP JUMPDEST POP POP JUMP JUMPDEST PUSH0 PUSH2 0xB3F PUSH2 0xB24 DUP5 PUSH2 0xB47 JUMP JUMPDEST PUSH1 0x86 PUSH0 DUP7 DUP2 MSTORE PUSH1 0x20 ADD SWAP1 DUP2 MSTORE PUSH1 0x20 ADD PUSH0 KECCAK256 SLOAD PUSH1 0x87 SLOAD DUP6 PUSH2 0x61B JUMP JUMPDEST SWAP1 POP SWAP3 SWAP2 POP POP JUMP JUMPDEST PUSH0 PUSH1 0x84 PUSH0 DUP4 DUP2 MSTORE PUSH1 0x20 ADD SWAP1 DUP2 MSTORE PUSH1 0x20 ADD PUSH0 KECCAK256 SLOAD SWAP1 POP SWAP2 SWAP1 POP JUMP JUMPDEST PUSH0 PUSH1 0x82 PUSH0 DUP5 PUSH20 0xFFFFFFFFFFFFFFFFFFFFFFFFFFFFFFFFFFFFFFFF AND PUSH20 0xFFFFFFFFFFFFFFFFFFFFFFFFFFFFFFFFFFFFFFFF AND DUP2 MSTORE PUSH1 0x20 ADD SWAP1 DUP2 MSTORE PUSH1 0x20 ADD PUSH0 KECCAK256 PUSH0 DUP4 PUSH20 0xFFFFFFFFFFFFFFFFFFFFFFFFFFFFFFFFFFFFFFFF AND PUSH20 0xFFFFFFFFFFFFFFFFFFFFFFFFFFFFFFFFFFFFFFFF AND DUP2 MSTORE PUSH1 0x20 ADD SWAP1 DUP2 MSTORE PUSH1 0x20 ADD PUSH0 KECCAK256 PUSH0 SWAP1 SLOAD SWAP1 PUSH2 0x100 EXP SWAP1 DIV PUSH1 0xFF AND SWAP1 POP SWAP3 SWAP2 POP POP JUMP JUMPDEST PUSH8 0xDE0B6B3A7640000 DUP2 JUMP JUMPDEST PUSH0 PUSH2 0xC23 PUSH2 0xC08 DUP5 PUSH2 0xB47 JUMP JUMPDEST PUSH1 0x86 PUSH0 DUP7 DUP2 MSTORE PUSH1 0x20 ADD SWAP1 DUP2 MSTORE PUSH1 0x20 ADD PUSH0 KECCAK256 SLOAD PUSH1 0x87 SLOAD DUP6 PUSH2 0x7F3 JUMP JUMPDEST SWAP1 POP SWAP3 SWAP2 POP POP JUMP JUMPDEST PUSH0 PUSH2 0xC34 PUSH2 0xF03 JUMP JUMPDEST SWAP1 POP DUP1 PUSH20 0xFFFFFFFFFFFFFFFFFFFFFFFFFFFFFFFFFFFFFFFF AND DUP7 PUSH20 0xFFFFFFFFFFFFFFFFFFFFFFFFFFFFFFFFFFFFFFFF AND EQ ISZERO DUP1 ISZERO PUSH2 0xC79 JUMPI POP PUSH2 0xC77 DUP7 DUP3 PUSH2 0xB61 JUMP JUMPDEST ISZERO JUMPDEST ISZERO PUSH2 0xCBD JUMPI DUP1 DUP7 PUSH1 0x40 MLOAD PUSH32 0xE237D92200000000000000000000000000000000000000000000000000000000 DUP2 MSTORE PUSH1 0x4 ADD PUSH2 0xCB4 SWAP3 SWAP2 SWAP1 PUSH2 0x3FF9 JUMP JUMPDEST PUSH1 0x40 MLOAD DUP1 SWAP2 SUB SWAP1 REVERT JUMPDEST PUSH2 0xCCA DUP7 DUP7 DUP7 DUP7 DUP7 PUSH2 0x11A2 JUMP JUMPDEST POP POP POP POP POP POP JUMP JUMPDEST PUSH0 PUSH32 0x1FFC9A700000000000000000000000000000000000000000000000000000000 PUSH28 0xFFFFFFFFFFFFFFFFFFFFFFFFFFFFFFFFFFFFFFFFFFFFFFFFFFFFFFFF NOT AND DUP3 PUSH28 0xFFFFFFFFFFFFFFFFFFFFFFFFFFFFFFFFFFFFFFFFFFFFFFFFFFFFFFFF NOT AND EQ SWAP1 POP SWAP2 SWAP1 POP JUMP JUMPDEST PUSH0 DUP2 DUP4 PUSH2 0xD48 SWAP2 SWAP1 PUSH2 0x40BB JUMP JUMPDEST SWAP1 POP SWAP3 SWAP2 POP POP JUMP JUMPDEST PUSH0 DUP2 DUP4 PUSH2 0xD5D SWAP2 SWAP1 PUSH2 0x4129 JUMP JUMPDEST SWAP1 POP SWAP3 SWAP2 POP POP JUMP JUMPDEST PUSH0 DUP2 DUP4 PUSH2 0xD72 SWAP2 SWAP1 PUSH2 0x4159 JUMP JUMPDEST SWAP1 POP SWAP3 SWAP2 POP POP JUMP JUMPDEST PUSH0 DUP1 PUSH17 0x200000000000000000000000000000000 DUP7 LT PUSH2 0xDCF JUMPI PUSH1 0x40 MLOAD PUSH32 0x8C379A000000000000000000000000000000000000000000000000000000000 DUP2 MSTORE PUSH1 0x4 ADD PUSH2 0xDC6 SWAP1 PUSH2 0x41D6 JUMP JUMPDEST PUSH1 0x40 MLOAD DUP1 SWAP2 SUB SWAP1 REVERT JUMPDEST DUP5 DUP7 LT ISZERO PUSH2 0xE12 JUMPI PUSH1 0x40 MLOAD PUSH32 0x8C379A000000000000000000000000000000000000000000000000000000000 DUP2 MSTORE PUSH1 0x4 ADD PUSH2 0xE09 SWAP1 PUSH2 0x423E JUMP JUMPDEST PUSH1 0x40 MLOAD DUP1 SWAP2 SUB SWAP1 REVERT JUMPDEST PUSH0 DUP1 DUP7 PUSH16 0x80000000000000000000000000000000 DUP10 PUSH2 0xE31 SWAP2 SWAP1 PUSH2 0x40BB JUMP JUMPDEST PUSH2 0xE3B SWAP2 SWAP1 PUSH2 0x4129 JUMP JUMPDEST SWAP1 POP PUSH17 0x15BF0A8B1457695355FB8AC404E7A79E3 DUP2 LT ISZERO PUSH2 0xE66 JUMPI PUSH2 0xE5F DUP2 PUSH2 0x12A8 JUMP JUMPDEST SWAP2 POP PUSH2 0xE72 JUMP JUMPDEST PUSH2 0xE6F DUP2 PUSH2 0x1A1D JUMP JUMPDEST SWAP2 POP JUMPDEST PUSH0 DUP6 PUSH4 0xFFFFFFFF AND DUP8 PUSH4 0xFFFFFFFF AND DUP5 PUSH2 0xE8C SWAP2 SWAP1 PUSH2 0x40BB JUMP JUMPDEST PUSH2 0xE96 SWAP2 SWAP1 PUSH2 0x4129 JUMP JUMPDEST SWAP1 POP PUSH17 0x800000000000000000000000000000000 DUP2 LT ISZERO PUSH2 0xEC8 JUMPI PUSH2 0xEBA DUP2 PUSH2 0x1B77 JUMP JUMPDEST PUSH1 0x7F SWAP5 POP SWAP5 POP POP POP POP PUSH2 0xEFA JUMP JUMPDEST PUSH0 PUSH2 0xED2 DUP3 PUSH2 0x2371 JUMP JUMPDEST SWAP1 POP PUSH2 0xEF0 DUP2 PUSH1 0x7F PUSH2 0xEE4 SWAP2 SWAP1 PUSH2 0x4268 JUMP JUMPDEST PUSH1 0xFF AND DUP4 SWAP1 SHR DUP3 PUSH2 0x244E JUMP JUMPDEST DUP2 SWAP6 POP SWAP6 POP POP POP POP POP JUMPDEST SWAP5 POP SWAP5 SWAP3 POP POP POP JUMP JUMPDEST PUSH0 CALLER SWAP1 POP SWAP1 JUMP JUMPDEST PUSH0 PUSH20 0xFFFFFFFFFFFFFFFFFFFFFFFFFFFFFFFFFFFFFFFF AND DUP5 PUSH20 0xFFFFFFFFFFFFFFFFFFFFFFFFFFFFFFFFFFFFFFFF AND SUB PUSH2 0xF7A JUMPI PUSH0 PUSH1 0x40 MLOAD PUSH32 0x57F447CE00000000000000000000000000000000000000000000000000000000 DUP2 MSTORE PUSH1 0x4 ADD PUSH2 0xF71 SWAP2 SWAP1 PUSH2 0x429C JUMP JUMPDEST PUSH1 0x40 MLOAD DUP1 SWAP2 SUB SWAP1 REVERT JUMPDEST PUSH0 PUSH20 0xFFFFFFFFFFFFFFFFFFFFFFFFFFFFFFFFFFFFFFFF AND DUP6 PUSH20 0xFFFFFFFFFFFFFFFFFFFFFFFFFFFFFFFFFFFFFFFF AND SUB PUSH2 0xFEA JUMPI PUSH0 PUSH1 0x40 MLOAD PUSH32 0x1A8351400000000000000000000000000000000000000000000000000000000 DUP2 MSTORE PUSH1 0x4 ADD PUSH2 0xFE1 SWAP2 SWAP1 PUSH2 0x429C JUMP JUMPDEST PUSH1 0x40 MLOAD DUP1 SWAP2 SUB SWAP1 REVERT JUMPDEST PUSH2 0xFF7 DUP6 DUP6 DUP6 DUP6 DUP6 PUSH2 0x2B5B JUMP JUMPDEST POP POP POP POP POP JUMP JUMPDEST PUSH0 DUP2 DUP4 PUSH2 0x100B SWAP2 SWAP1 PUSH2 0x3FB7 JUMP JUMPDEST SWAP1 POP SWAP3 SWAP2 POP POP JUMP JUMPDEST PUSH0 PUSH1 0x20 DUP3 MUL PUSH1 0x20 DUP5 ADD ADD MLOAD SWAP1 POP SWAP3 SWAP2 POP POP JUMP JUMPDEST PUSH0 PUSH1 0x20 DUP3 MUL PUSH1 0x20 DUP5 ADD ADD MLOAD SWAP1 POP SWAP3 SWAP2 POP POP JUMP JUMPDEST PUSH0 PUSH20 0xFFFFFFFFFFFFFFFFFFFFFFFFFFFFFFFFFFFFFFFF AND DUP3 PUSH20 0xFFFFFFFFFFFFFFFFFFFFFFFFFFFFFFFFFFFFFFFF AND SUB PUSH2 0x10A9 JUMPI PUSH0 PUSH1 0x40 MLOAD PUSH32 0xCED3E10000000000000000000000000000000000000000000000000000000000 DUP2 MSTORE PUSH1 0x4 ADD PUSH2 0x10A0 SWAP2 SWAP1 PUSH2 0x429C JUMP JUMPDEST PUSH1 0x40 MLOAD DUP1 SWAP2 SUB SWAP1 REVERT JUMPDEST DUP1 PUSH1 0x82 PUSH0 DUP6 PUSH20 0xFFFFFFFFFFFFFFFFFFFFFFFFFFFFFFFFFFFFFFFF AND PUSH20 0xFFFFFFFFFFFFFFFFFFFFFFFFFFFFFFFFFFFFFFFF AND DUP2 MSTORE PUSH1 0x20 ADD SWAP1 DUP2 MSTORE PUSH1 0x20 ADD PUSH0 KECCAK256 PUSH0 DUP5 PUSH20 0xFFFFFFFFFFFFFFFFFFFFFFFFFFFFFFFFFFFFFFFF AND PUSH20 0xFFFFFFFFFFFFFFFFFFFFFFFFFFFFFFFFFFFFFFFF AND DUP2 MSTORE PUSH1 0x20 ADD SWAP1 DUP2 MSTORE PUSH1 0x20 ADD PUSH0 KECCAK256 PUSH0 PUSH2 0x100 EXP DUP2 SLOAD DUP2 PUSH1 0xFF MUL NOT AND SWAP1 DUP4 ISZERO ISZERO MUL OR SWAP1 SSTORE POP DUP2 PUSH20 0xFFFFFFFFFFFFFFFFFFFFFFFFFFFFFFFFFFFFFFFF AND DUP4 PUSH20 0xFFFFFFFFFFFFFFFFFFFFFFFFFFFFFFFFFFFFFFFF AND PUSH32 0x17307EAB39AB6107E8899845AD3D59BD9653F200F220920489CA2B5937696C31 DUP4 PUSH1 0x40 MLOAD PUSH2 0x1195 SWAP2 SWAP1 PUSH2 0x36FB JUMP JUMPDEST PUSH1 0x40 MLOAD DUP1 SWAP2 SUB SWAP1 LOG3 POP POP POP JUMP JUMPDEST PUSH0 PUSH20 0xFFFFFFFFFFFFFFFFFFFFFFFFFFFFFFFFFFFFFFFF AND DUP5 PUSH20 0xFFFFFFFFFFFFFFFFFFFFFFFFFFFFFFFFFFFFFFFF AND SUB PUSH2 0x1212 JUMPI PUSH0 PUSH1 0x40 MLOAD PUSH32 0x57F447CE00000000000000000000000000000000000000000000000000000000 DUP2 MSTORE PUSH1 0x4 ADD PUSH2 0x1209 SWAP2 SWAP1 PUSH2 0x429C JUMP JUMPDEST PUSH1 0x40 MLOAD DUP1 SWAP2 SUB SWAP1 REVERT JUMPDEST PUSH0 PUSH20 0xFFFFFFFFFFFFFFFFFFFFFFFFFFFFFFFFFFFFFFFF AND DUP6 PUSH20 0xFFFFFFFFFFFFFFFFFFFFFFFFFFFFFFFFFFFFFFFF AND SUB PUSH2 0x1282 JUMPI PUSH0 PUSH1 0x40 MLOAD PUSH32 0x1A8351400000000000000000000000000000000000000000000000000000000 DUP2 MSTORE PUSH1 0x4 ADD PUSH2 0x1279 SWAP2 SWAP1 PUSH2 0x429C JUMP JUMPDEST PUSH1 0x40 MLOAD DUP1 SWAP2 SUB SWAP1 REVERT JUMPDEST PUSH0 DUP1 PUSH2 0x128E DUP6 DUP6 PUSH2 0x2C07 JUMP JUMPDEST SWAP2 POP SWAP2 POP PUSH2 0x129F DUP8 DUP8 DUP5 DUP5 DUP8 PUSH2 0x2B5B JUMP JUMPDEST POP POP POP POP POP POP POP JUMP JUMPDEST PUSH0 DUP1 PUSH0 SWAP1 POP PUSH0 DUP1 PUSH0 PUSH16 0xD3094C70F034DE4B96FF7D5B6F99FCD8 DUP7 LT PUSH2 0x131F JUMPI PUSH16 0x40000000000000000000000000000000 DUP5 PUSH2 0x12E3 SWAP2 SWAP1 PUSH2 0x4159 JUMP JUMPDEST SWAP4 POP PUSH16 0xD3094C70F034DE4B96FF7D5B6F99FCD8 PUSH16 0x80000000000000000000000000000000 DUP8 PUSH2 0x1312 SWAP2 SWAP1 PUSH2 0x40BB JUMP JUMPDEST PUSH2 0x131C SWAP2 SWAP1 PUSH2 0x4129 JUMP JUMPDEST SWAP6 POP JUMPDEST PUSH16 0xA45AF1E1F40C333B3DE1DB4DD55F29A7 DUP7 LT PUSH2 0x138E JUMPI PUSH16 0x20000000000000000000000000000000 DUP5 PUSH2 0x1352 SWAP2 SWAP1 PUSH2 0x4159 JUMP JUMPDEST SWAP4 POP PUSH16 0xA45AF1E1F40C333B3DE1DB4DD55F29A7 PUSH16 0x80000000000000000000000000000000 DUP8 PUSH2 0x1381 SWAP2 SWAP1 PUSH2 0x40BB JUMP JUMPDEST PUSH2 0x138B SWAP2 SWAP1 PUSH2 0x4129 JUMP JUMPDEST SWAP6 POP JUMPDEST PUSH16 0x910B022DB7AE67CE76B441C27035C6A1 DUP7 LT PUSH2 0x13FD JUMPI PUSH16 0x10000000000000000000000000000000 DUP5 PUSH2 0x13C1 SWAP2 SWAP1 PUSH2 0x4159 JUMP JUMPDEST SWAP4 POP PUSH16 0x910B022DB7AE67CE76B441C27035C6A1 PUSH16 0x80000000000000000000000000000000 DUP8 PUSH2 0x13F0 SWAP2 SWAP1 PUSH2 0x40BB JUMP JUMPDEST PUSH2 0x13FA SWAP2 SWAP1 PUSH2 0x4129 JUMP JUMPDEST SWAP6 POP JUMPDEST PUSH16 0x88415ABBE9A76BEAD8D00CF112E4D4A8 DUP7 LT PUSH2 0x146C JUMPI PUSH16 0x8000000000000000000000000000000 DUP5 PUSH2 0x1430 SWAP2 SWAP1 PUSH2 0x4159 JUMP JUMPDEST SWAP4 POP PUSH16 0x88415ABBE9A76BEAD8D00CF112E4D4A8 PUSH16 0x80000000000000000000000000000000 DUP8 PUSH2 0x145F SWAP2 SWAP1 PUSH2 0x40BB JUMP JUMPDEST PUSH2 0x1469 SWAP2 SWAP1 PUSH2 0x4129 JUMP JUMPDEST SWAP6 POP JUMPDEST PUSH16 0x84102B00893F64C705E841D5D4064BD3 DUP7 LT PUSH2 0x14DB JUMPI PUSH16 0x4000000000000000000000000000000 DUP5 PUSH2 0x149F SWAP2 SWAP1 PUSH2 0x4159 JUMP JUMPDEST SWAP4 POP PUSH16 0x84102B00893F64C705E841D5D4064BD3 PUSH16 0x80000000000000000000000000000000 DUP8 PUSH2 0x14CE SWAP2 SWAP1 PUSH2 0x40BB JUMP JUMPDEST PUSH2 0x14D8 SWAP2 SWAP1 PUSH2 0x4129 JUMP JUMPDEST SWAP6 POP JUMPDEST PUSH16 0x8204055AAEF1C8BD5C3259F4822735A2 DUP7 LT PUSH2 0x154A JUMPI PUSH16 0x2000000000000000000000000000000 DUP5 PUSH2 0x150E SWAP2 SWAP1 PUSH2 0x4159 JUMP JUMPDEST SWAP4 POP PUSH16 0x8204055AAEF1C8BD5C3259F4822735A2 PUSH16 0x80000000000000000000000000000000 DUP8 PUSH2 0x153D SWAP2 SWAP1 PUSH2 0x40BB JUMP JUMPDEST PUSH2 0x1547 SWAP2 SWAP1 PUSH2 0x4129 JUMP JUMPDEST SWAP6 POP JUMPDEST PUSH16 0x810100AB00222D861931C15E39B44E99 DUP7 LT PUSH2 0x15B9 JUMPI PUSH16 0x1000000000000000000000000000000 DUP5 PUSH2 0x157D SWAP2 SWAP1 PUSH2 0x4159 JUMP JUMPDEST SWAP4 POP PUSH16 0x810100AB00222D861931C15E39B44E99 PUSH16 0x80000000000000000000000000000000 DUP8 PUSH2 0x15AC SWAP2 SWAP1 PUSH2 0x40BB JUMP JUMPDEST PUSH2 0x15B6 SWAP2 SWAP1 PUSH2 0x4129 JUMP JUMPDEST SWAP6 POP JUMPDEST PUSH16 0x808040155AABBBE9451521693554F733 DUP7 LT PUSH2 0x1627 JUMPI PUSH15 0x800000000000000000000000000000 DUP5 PUSH2 0x15EB SWAP2 SWAP1 PUSH2 0x4159 JUMP JUMPDEST SWAP4 POP PUSH16 0x808040155AABBBE9451521693554F733 PUSH16 0x80000000000000000000000000000000 DUP8 PUSH2 0x161A SWAP2 SWAP1 PUSH2 0x40BB JUMP JUMPDEST PUSH2 0x1624 SWAP2 SWAP1 PUSH2 0x4129 JUMP JUMPDEST SWAP6 POP JUMPDEST PUSH16 0x80000000000000000000000000000000 DUP7 PUSH2 0x1643 SWAP2 SWAP1 PUSH2 0x3FB7 JUMP JUMPDEST SWAP3 POP DUP3 SWAP2 POP PUSH16 0x80000000000000000000000000000000 DUP4 DUP5 PUSH2 0x1665 SWAP2 SWAP1 PUSH2 0x40BB JUMP JUMPDEST PUSH2 0x166F SWAP2 SWAP1 PUSH2 0x4129 JUMP JUMPDEST SWAP1 POP PUSH17 0x100000000000000000000000000000000 DUP4 PUSH17 0x100000000000000000000000000000000 PUSH2 0x16A0 SWAP2 SWAP1 PUSH2 0x3FB7 JUMP JUMPDEST DUP4 PUSH2 0x16AB SWAP2 SWAP1 PUSH2 0x40BB JUMP JUMPDEST PUSH2 0x16B5 SWAP2 SWAP1 PUSH2 0x4129 JUMP JUMPDEST DUP5 PUSH2 0x16C0 SWAP2 SWAP1 PUSH2 0x4159 JUMP JUMPDEST SWAP4 POP PUSH16 0x80000000000000000000000000000000 DUP2 DUP4 PUSH2 0x16DF SWAP2 SWAP1 PUSH2 0x40BB JUMP JUMPDEST PUSH2 0x16E9 SWAP2 SWAP1 PUSH2 0x4129 JUMP JUMPDEST SWAP2 POP PUSH17 0x200000000000000000000000000000000 DUP4 PUSH16 0xAAAAAAAAAAAAAAAAAAAAAAAAAAAAAAAA PUSH2 0x1719 SWAP2 SWAP1 PUSH2 0x3FB7 JUMP JUMPDEST DUP4 PUSH2 0x1724 SWAP2 SWAP1 PUSH2 0x40BB JUMP JUMPDEST PUSH2 0x172E SWAP2 SWAP1 PUSH2 0x4129 JUMP JUMPDEST DUP5 PUSH2 0x1739 SWAP2 SWAP1 PUSH2 0x4159 JUMP JUMPDEST SWAP4 POP PUSH16 0x80000000000000000000000000000000 DUP2 DUP4 PUSH2 0x1758 SWAP2 SWAP1 PUSH2 0x40BB JUMP JUMPDEST PUSH2 0x1762 SWAP2 SWAP1 PUSH2 0x4129 JUMP JUMPDEST SWAP2 POP PUSH17 0x300000000000000000000000000000000 DUP4 PUSH16 0x99999999999999999999999999999999 PUSH2 0x1792 SWAP2 SWAP1 PUSH2 0x3FB7 JUMP JUMPDEST DUP4 PUSH2 0x179D SWAP2 SWAP1 PUSH2 0x40BB JUMP JUMPDEST PUSH2 0x17A7 SWAP2 SWAP1 PUSH2 0x4129 JUMP JUMPDEST DUP5 PUSH2 0x17B2 SWAP2 SWAP1 PUSH2 0x4159 JUMP JUMPDEST SWAP4 POP PUSH16 0x80000000000000000000000000000000 DUP2 DUP4 PUSH2 0x17D1 SWAP2 SWAP1 PUSH2 0x40BB JUMP JUMPDEST PUSH2 0x17DB SWAP2 SWAP1 PUSH2 0x4129 JUMP JUMPDEST SWAP2 POP PUSH17 0x400000000000000000000000000000000 DUP4 PUSH16 0x92492492492492492492492492492492 PUSH2 0x180B SWAP2 SWAP1 PUSH2 0x3FB7 JUMP JUMPDEST DUP4 PUSH2 0x1816 SWAP2 SWAP1 PUSH2 0x40BB JUMP JUMPDEST PUSH2 0x1820 SWAP2 SWAP1 PUSH2 0x4129 JUMP JUMPDEST DUP5 PUSH2 0x182B SWAP2 SWAP1 PUSH2 0x4159 JUMP JUMPDEST SWAP4 POP PUSH16 0x80000000000000000000000000000000 DUP2 DUP4 PUSH2 0x184A SWAP2 SWAP1 PUSH2 0x40BB JUMP JUMPDEST PUSH2 0x1854 SWAP2 SWAP1 PUSH2 0x4129 JUMP JUMPDEST SWAP2 POP PUSH17 0x500000000000000000000000000000000 DUP4 PUSH16 0x8E38E38E38E38E38E38E38E38E38E38E PUSH2 0x1884 SWAP2 SWAP1 PUSH2 0x3FB7 JUMP JUMPDEST DUP4 PUSH2 0x188F SWAP2 SWAP1 PUSH2 0x40BB JUMP JUMPDEST PUSH2 0x1899 SWAP2 SWAP1 PUSH2 0x4129 JUMP JUMPDEST DUP5 PUSH2 0x18A4 SWAP2 SWAP1 PUSH2 0x4159 JUMP JUMPDEST SWAP4 POP PUSH16 0x80000000000000000000000000000000 DUP2 DUP4 PUSH2 0x18C3 SWAP2 SWAP1 PUSH2 0x40BB JUMP JUMPDEST PUSH2 0x18CD SWAP2 SWAP1 PUSH2 0x4129 JUMP JUMPDEST SWAP2 POP PUSH17 0x600000000000000000000000000000000 DUP4 PUSH16 0x8BA2E8BA2E8BA2E8BA2E8BA2E8BA2E8B PUSH2 0x18FD SWAP2 SWAP1 PUSH2 0x3FB7 JUMP JUMPDEST DUP4 PUSH2 0x1908 SWAP2 SWAP1 PUSH2 0x40BB JUMP JUMPDEST PUSH2 0x1912 SWAP2 SWAP1 PUSH2 0x4129 JUMP JUMPDEST DUP5 PUSH2 0x191D SWAP2 SWAP1 PUSH2 0x4159 JUMP JUMPDEST SWAP4 POP PUSH16 0x80000000000000000000000000000000 DUP2 DUP4 PUSH2 0x193C SWAP2 SWAP1 PUSH2 0x40BB JUMP JUMPDEST PUSH2 0x1946 SWAP2 SWAP1 PUSH2 0x4129 JUMP JUMPDEST SWAP2 POP PUSH17 0x700000000000000000000000000000000 DUP4 PUSH16 0x89D89D89D89D89D89D89D89D89D89D89 PUSH2 0x1976 SWAP2 SWAP1 PUSH2 0x3FB7 JUMP JUMPDEST DUP4 PUSH2 0x1981 SWAP2 SWAP1 PUSH2 0x40BB JUMP JUMPDEST PUSH2 0x198B SWAP2 SWAP1 PUSH2 0x4129 JUMP JUMPDEST DUP5 PUSH2 0x1996 SWAP2 SWAP1 PUSH2 0x4159 JUMP JUMPDEST SWAP4 POP PUSH16 0x80000000000000000000000000000000 DUP2 DUP4 PUSH2 0x19B5 SWAP2 SWAP1 PUSH2 0x40BB JUMP JUMPDEST PUSH2 0x19BF SWAP2 SWAP1 PUSH2 0x4129 JUMP JUMPDEST SWAP2 POP PUSH17 0x800000000000000000000000000000000 DUP4 PUSH16 0x88888888888888888888888888888888 PUSH2 0x19EF SWAP2 SWAP1 PUSH2 0x3FB7 JUMP JUMPDEST DUP4 PUSH2 0x19FA SWAP2 SWAP1 PUSH2 0x40BB JUMP JUMPDEST PUSH2 0x1A04 SWAP2 SWAP1 PUSH2 0x4129 JUMP JUMPDEST DUP5 PUSH2 0x1A0F SWAP2 SWAP1 PUSH2 0x4159 JUMP JUMPDEST SWAP4 POP DUP4 SWAP5 POP POP POP POP POP SWAP2 SWAP1 POP JUMP JUMPDEST PUSH0 DUP1 PUSH0 SWAP1 POP PUSH0 DUP4 SWAP1 POP PUSH17 0x100000000000000000000000000000000 DUP2 LT PUSH2 0x1A91 JUMPI PUSH0 PUSH2 0x1A63 PUSH16 0x80000000000000000000000000000000 DUP4 PUSH2 0x1A5E SWAP2 SWAP1 PUSH2 0x4129 JUMP JUMPDEST PUSH2 0x2C37 JUMP JUMPDEST SWAP1 POP DUP1 PUSH1 0xFF AND DUP3 SWAP1 SHR SWAP2 POP PUSH16 0x80000000000000000000000000000000 DUP2 PUSH1 0xFF AND PUSH2 0x1A8D SWAP2 SWAP1 PUSH2 0x40BB JUMP JUMPDEST SWAP3 POP POP JUMPDEST PUSH16 0x80000000000000000000000000000000 DUP2 GT ISZERO PUSH2 0x1B37 JUMPI PUSH0 PUSH1 0x7F SWAP1 POP JUMPDEST PUSH0 DUP2 PUSH1 0xFF AND GT ISZERO PUSH2 0x1B35 JUMPI PUSH16 0x80000000000000000000000000000000 DUP3 DUP4 PUSH2 0x1AD7 SWAP2 SWAP1 PUSH2 0x40BB JUMP JUMPDEST PUSH2 0x1AE1 SWAP2 SWAP1 PUSH2 0x4129 JUMP JUMPDEST SWAP2 POP PUSH17 0x100000000000000000000000000000000 DUP3 LT PUSH2 0x1B24 JUMPI PUSH1 0x1 DUP3 SWAP1 SHR SWAP2 POP PUSH1 0x1 DUP2 PUSH2 0x1B0F SWAP2 SWAP1 PUSH2 0x4268 JUMP JUMPDEST PUSH1 0xFF AND PUSH1 0x1 SWAP1 SHL DUP4 PUSH2 0x1B21 SWAP2 SWAP1 PUSH2 0x4159 JUMP JUMPDEST SWAP3 POP JUMPDEST DUP1 PUSH2 0x1B2E SWAP1 PUSH2 0x42B5 JUMP JUMPDEST SWAP1 POP PUSH2 0x1AAF JUMP JUMPDEST POP JUMPDEST PUSH16 0x5B9DE1D10BF4103D647B0955897BA80 PUSH16 0x3F80FE03F80FE03F80FE03F80FE03F8 DUP4 PUSH2 0x1B64 SWAP2 SWAP1 PUSH2 0x40BB JUMP JUMPDEST PUSH2 0x1B6E SWAP2 SWAP1 PUSH2 0x4129 JUMP JUMPDEST SWAP3 POP POP POP SWAP2 SWAP1 POP JUMP JUMPDEST PUSH0 DUP1 PUSH0 SWAP1 POP PUSH0 DUP1 PUSH16 0x10000000000000000000000000000000 DUP6 PUSH2 0x1B9A SWAP2 SWAP1 PUSH2 0x42DC JUMP JUMPDEST SWAP2 POP DUP2 SWAP1 POP PUSH16 0x80000000000000000000000000000000 DUP3 DUP3 PUSH2 0x1BBC SWAP2 SWAP1 PUSH2 0x40BB JUMP JUMPDEST PUSH2 0x1BC6 SWAP2 SWAP1 PUSH2 0x4129 JUMP JUMPDEST SWAP1 POP PUSH8 0x10E1B3BE415A0000 DUP2 PUSH2 0x1BDC SWAP2 SWAP1 PUSH2 0x40BB JUMP JUMPDEST DUP4 PUSH2 0x1BE7 SWAP2 SWAP1 PUSH2 0x4159 JUMP JUMPDEST SWAP3 POP PUSH16 0x80000000000000000000000000000000 DUP3 DUP3 PUSH2 0x1C06 SWAP2 SWAP1 PUSH2 0x40BB JUMP JUMPDEST PUSH2 0x1C10 SWAP2 SWAP1 PUSH2 0x4129 JUMP JUMPDEST SWAP1 POP PUSH8 0x5A0913F6B1E0000 DUP2 PUSH2 0x1C26 SWAP2 SWAP1 PUSH2 0x40BB JUMP JUMPDEST DUP4 PUSH2 0x1C31 SWAP2 SWAP1 PUSH2 0x4159 JUMP JUMPDEST SWAP3 POP PUSH16 0x80000000000000000000000000000000 DUP3 DUP3 PUSH2 0x1C50 SWAP2 SWAP1 PUSH2 0x40BB JUMP JUMPDEST PUSH2 0x1C5A SWAP2 SWAP1 PUSH2 0x4129 JUMP JUMPDEST SWAP1 POP PUSH8 0x168244FDAC78000 DUP2 PUSH2 0x1C70 SWAP2 SWAP1 PUSH2 0x40BB JUMP JUMPDEST DUP4 PUSH2 0x1C7B SWAP2 SWAP1 PUSH2 0x4159 JUMP JUMPDEST SWAP3 POP PUSH16 0x80000000000000000000000000000000 DUP3 DUP3 PUSH2 0x1C9A SWAP2 SWAP1 PUSH2 0x40BB JUMP JUMPDEST PUSH2 0x1CA4 SWAP2 SWAP1 PUSH2 0x4129 JUMP JUMPDEST SWAP1 POP PUSH7 0x4807432BC18000 DUP2 PUSH2 0x1CB9 SWAP2 SWAP1 PUSH2 0x40BB JUMP JUMPDEST DUP4 PUSH2 0x1CC4 SWAP2 SWAP1 PUSH2 0x4159 JUMP JUMPDEST SWAP3 POP PUSH16 0x80000000000000000000000000000000 DUP3 DUP3 PUSH2 0x1CE3 SWAP2 SWAP1 PUSH2 0x40BB JUMP JUMPDEST PUSH2 0x1CED SWAP2 SWAP1 PUSH2 0x4129 JUMP JUMPDEST SWAP1 POP PUSH7 0xC0135DCA04000 DUP2 PUSH2 0x1D02 SWAP2 SWAP1 PUSH2 0x40BB JUMP JUMPDEST DUP4 PUSH2 0x1D0D SWAP2 SWAP1 PUSH2 0x4159 JUMP JUMPDEST SWAP3 POP PUSH16 0x80000000000000000000000000000000 DUP3 DUP3 PUSH2 0x1D2C SWAP2 SWAP1 PUSH2 0x40BB JUMP JUMPDEST PUSH2 0x1D36 SWAP2 SWAP1 PUSH2 0x4129 JUMP JUMPDEST SWAP1 POP PUSH7 0x1B707B1CDC000 DUP2 PUSH2 0x1D4B SWAP2 SWAP1 PUSH2 0x40BB JUMP JUMPDEST DUP4 PUSH2 0x1D56 SWAP2 SWAP1 PUSH2 0x4159 JUMP JUMPDEST SWAP3 POP PUSH16 0x80000000000000000000000000000000 DUP3 DUP3 PUSH2 0x1D75 SWAP2 SWAP1 PUSH2 0x40BB JUMP JUMPDEST PUSH2 0x1D7F SWAP2 SWAP1 PUSH2 0x4129 JUMP JUMPDEST SWAP1 POP PUSH6 0x36E0F639B800 DUP2 PUSH2 0x1D93 SWAP2 SWAP1 PUSH2 0x40BB JUMP JUMPDEST DUP4 PUSH2 0x1D9E SWAP2 SWAP1 PUSH2 0x4159 JUMP JUMPDEST SWAP3 POP PUSH16 0x80000000000000000000000000000000 DUP3 DUP3 PUSH2 0x1DBD SWAP2 SWAP1 PUSH2 0x40BB JUMP JUMPDEST PUSH2 0x1DC7 SWAP2 SWAP1 PUSH2 0x4129 JUMP JUMPDEST SWAP1 POP PUSH6 0x618FEE9F800 DUP2 PUSH2 0x1DDB SWAP2 SWAP1 PUSH2 0x40BB JUMP JUMPDEST DUP4 PUSH2 0x1DE6 SWAP2 SWAP1 PUSH2 0x4159 JUMP JUMPDEST SWAP3 POP PUSH16 0x80000000000000000000000000000000 DUP3 DUP3 PUSH2 0x1E05 SWAP2 SWAP1 PUSH2 0x40BB JUMP JUMPDEST PUSH2 0x1E0F SWAP2 SWAP1 PUSH2 0x4129 JUMP JUMPDEST SWAP1 POP PUSH5 0x9C197DCC00 DUP2 PUSH2 0x1E22 SWAP2 SWAP1 PUSH2 0x40BB JUMP JUMPDEST DUP4 PUSH2 0x1E2D SWAP2 SWAP1 PUSH2 0x4159 JUMP JUMPDEST SWAP3 POP PUSH16 0x80000000000000000000000000000000 DUP3 DUP3 PUSH2 0x1E4C SWAP2 SWAP1 PUSH2 0x40BB JUMP JUMPDEST PUSH2 0x1E56 SWAP2 SWAP1 PUSH2 0x4129 JUMP JUMPDEST SWAP1 POP PUSH5 0xE30DCE400 DUP2 PUSH2 0x1E69 SWAP2 SWAP1 PUSH2 0x40BB JUMP JUMPDEST DUP4 PUSH2 0x1E74 SWAP2 SWAP1 PUSH2 0x4159 JUMP JUMPDEST SWAP3 POP PUSH16 0x80000000000000000000000000000000 DUP3 DUP3 PUSH2 0x1E93 SWAP2 SWAP1 PUSH2 0x40BB JUMP JUMPDEST PUSH2 0x1E9D SWAP2 SWAP1 PUSH2 0x4129 JUMP JUMPDEST SWAP1 POP PUSH5 0x12EBD1300 DUP2 PUSH2 0x1EB0 SWAP2 SWAP1 PUSH2 0x40BB JUMP JUMPDEST DUP4 PUSH2 0x1EBB SWAP2 SWAP1 PUSH2 0x4159 JUMP JUMPDEST SWAP3 POP PUSH16 0x80000000000000000000000000000000 DUP3 DUP3 PUSH2 0x1EDA SWAP2 SWAP1 PUSH2 0x40BB JUMP JUMPDEST PUSH2 0x1EE4 SWAP2 SWAP1 PUSH2 0x4129 JUMP JUMPDEST SWAP1 POP PUSH4 0x17499F00 DUP2 PUSH2 0x1EF6 SWAP2 SWAP1 PUSH2 0x40BB JUMP JUMPDEST DUP4 PUSH2 0x1F01 SWAP2 SWAP1 PUSH2 0x4159 JUMP JUMPDEST SWAP3 POP PUSH16 0x80000000000000000000000000000000 DUP3 DUP3 PUSH2 0x1F20 SWAP2 SWAP1 PUSH2 0x40BB JUMP JUMPDEST PUSH2 0x1F2A SWAP2 SWAP1 PUSH2 0x4129 JUMP JUMPDEST SWAP1 POP PUSH4 0x1A9D480 DUP2 PUSH2 0x1F3C SWAP2 SWAP1 PUSH2 0x40BB JUMP JUMPDEST DUP4 PUSH2 0x1F47 SWAP2 SWAP1 PUSH2 0x4159 JUMP JUMPDEST SWAP3 POP PUSH16 0x80000000000000000000000000000000 DUP3 DUP3 PUSH2 0x1F66 SWAP2 SWAP1 PUSH2 0x40BB JUMP JUMPDEST PUSH2 0x1F70 SWAP2 SWAP1 PUSH2 0x4129 JUMP JUMPDEST SWAP1 POP PUSH3 0x1C6380 DUP2 PUSH2 0x1F81 SWAP2 SWAP1 PUSH2 0x40BB JUMP JUMPDEST DUP4 PUSH2 0x1F8C SWAP2 SWAP1 PUSH2 0x4159 JUMP JUMPDEST SWAP3 POP PUSH16 0x80000000000000000000000000000000 DUP3 DUP3 PUSH2 0x1FAB SWAP2 SWAP1 PUSH2 0x40BB JUMP JUMPDEST PUSH2 0x1FB5 SWAP2 SWAP1 PUSH2 0x4129 JUMP JUMPDEST SWAP1 POP PUSH3 0x1C638 DUP2 PUSH2 0x1FC6 SWAP2 SWAP1 PUSH2 0x40BB JUMP JUMPDEST DUP4 PUSH2 0x1FD1 SWAP2 SWAP1 PUSH2 0x4159 JUMP JUMPDEST SWAP3 POP PUSH16 0x80000000000000000000000000000000 DUP3 DUP3 PUSH2 0x1FF0 SWAP2 SWAP1 PUSH2 0x40BB JUMP JUMPDEST PUSH2 0x1FFA SWAP2 SWAP1 PUSH2 0x4129 JUMP JUMPDEST SWAP1 POP PUSH2 0x1AB8 DUP2 PUSH2 0x200A SWAP2 SWAP1 PUSH2 0x40BB JUMP JUMPDEST DUP4 PUSH2 0x2015 SWAP2 SWAP1 PUSH2 0x4159 JUMP JUMPDEST SWAP3 POP PUSH16 0x80000000000000000000000000000000 DUP3 DUP3 PUSH2 0x2034 SWAP2 SWAP1 PUSH2 0x40BB JUMP JUMPDEST PUSH2 0x203E SWAP2 SWAP1 PUSH2 0x4129 JUMP JUMPDEST SWAP1 POP PUSH2 0x17C DUP2 PUSH2 0x204E SWAP2 SWAP1 PUSH2 0x40BB JUMP JUMPDEST DUP4 PUSH2 0x2059 SWAP2 SWAP1 PUSH2 0x4159 JUMP JUMPDEST SWAP3 POP PUSH16 0x80000000000000000000000000000000 DUP3 DUP3 PUSH2 0x2078 SWAP2 SWAP1 PUSH2 0x40BB JUMP JUMPDEST PUSH2 0x2082 SWAP2 SWAP1 PUSH2 0x4129 JUMP JUMPDEST SWAP1 POP PUSH1 0x14 DUP2 PUSH2 0x2091 SWAP2 SWAP1 PUSH2 0x40BB JUMP JUMPDEST DUP4 PUSH2 0x209C SWAP2 SWAP1 PUSH2 0x4159 JUMP JUMPDEST SWAP3 POP PUSH16 0x80000000000000000000000000000000 DUP3 DUP3 PUSH2 0x20BB SWAP2 SWAP1 PUSH2 0x40BB JUMP JUMPDEST PUSH2 0x20C5 SWAP2 SWAP1 PUSH2 0x4129 JUMP JUMPDEST SWAP1 POP PUSH1 0x1 DUP2 PUSH2 0x20D4 SWAP2 SWAP1 PUSH2 0x40BB JUMP JUMPDEST DUP4 PUSH2 0x20DF SWAP2 SWAP1 PUSH2 0x4159 JUMP JUMPDEST SWAP3 POP PUSH16 0x80000000000000000000000000000000 DUP3 PUSH8 0x21C3677C82B40000 DUP6 PUSH2 0x2107 SWAP2 SWAP1 PUSH2 0x4129 JUMP JUMPDEST PUSH2 0x2111 SWAP2 SWAP1 PUSH2 0x4159 JUMP JUMPDEST PUSH2 0x211B SWAP2 SWAP1 PUSH2 0x4159 JUMP JUMPDEST SWAP3 POP PUSH0 PUSH16 0x10000000000000000000000000000000 DUP7 AND EQ PUSH2 0x2172 JUMPI PUSH17 0x18EBEF9EAC820AE8682B9793AC6D1E776 PUSH17 0x1C3D6A24ED82218787D624D3E5EBA95F9 DUP5 PUSH2 0x2165 SWAP2 SWAP1 PUSH2 0x40BB JUMP JUMPDEST PUSH2 0x216F SWAP2 SWAP1 PUSH2 0x4129 JUMP JUMPDEST SWAP3 POP JUMPDEST PUSH0 PUSH16 0x20000000000000000000000000000000 DUP7 AND EQ PUSH2 0x21C7 JUMPI PUSH17 0x1368B2FC6F9609FE7ACEB46AA619BAED4 PUSH17 0x18EBEF9EAC820AE8682B9793AC6D1E778 DUP5 PUSH2 0x21BA SWAP2 SWAP1 PUSH2 0x40BB JUMP JUMPDEST PUSH2 0x21C4 SWAP2 SWAP1 PUSH2 0x4129 JUMP JUMPDEST SWAP3 POP JUMPDEST PUSH0 PUSH16 0x40000000000000000000000000000000 DUP7 AND EQ PUSH2 0x221B JUMPI PUSH16 0xBC5AB1B16779BE3575BD8F0520A9F21F PUSH17 0x1368B2FC6F9609FE7ACEB46AA619BAED5 DUP5 PUSH2 0x220E SWAP2 SWAP1 PUSH2 0x40BB JUMP JUMPDEST PUSH2 0x2218 SWAP2 SWAP1 PUSH2 0x4129 JUMP JUMPDEST SWAP3 POP JUMPDEST PUSH0 PUSH16 0x80000000000000000000000000000000 DUP7 AND EQ PUSH2 0x226E JUMPI PUSH16 0x454AAA8EFE072E7F6DDBAB84B40A55C9 PUSH16 0xBC5AB1B16779BE3575BD8F0520A9F21E DUP5 PUSH2 0x2261 SWAP2 SWAP1 PUSH2 0x40BB JUMP JUMPDEST PUSH2 0x226B SWAP2 SWAP1 PUSH2 0x4129 JUMP JUMPDEST SWAP3 POP JUMPDEST PUSH0 PUSH17 0x100000000000000000000000000000000 DUP7 AND EQ PUSH2 0x22C2 JUMPI PUSH16 0x960AADC109E7A3BF4578099615711EA PUSH16 0x454AAA8EFE072E7F6DDBAB84B40A55C5 DUP5 PUSH2 0x22B5 SWAP2 SWAP1 PUSH2 0x40BB JUMP JUMPDEST PUSH2 0x22BF SWAP2 SWAP1 PUSH2 0x4129 JUMP JUMPDEST SWAP3 POP JUMPDEST PUSH0 PUSH17 0x200000000000000000000000000000000 DUP7 AND EQ PUSH2 0x2315 JUMPI PUSH15 0x2BF84208204F5977F9A8CF01FDCE3D PUSH16 0x960AADC109E7A3BF4578099615711D7 DUP5 PUSH2 0x2308 SWAP2 SWAP1 PUSH2 0x40BB JUMP JUMPDEST PUSH2 0x2312 SWAP2 SWAP1 PUSH2 0x4129 JUMP JUMPDEST SWAP3 POP JUMPDEST PUSH0 PUSH17 0x400000000000000000000000000000000 DUP7 AND EQ PUSH2 0x2366 JUMPI PUSH14 0x3C6AB775DD0B95B4CBEE7E65D11 PUSH15 0x2BF84208204F5977F9A8CF01FDC307 DUP5 PUSH2 0x2359 SWAP2 SWAP1 PUSH2 0x40BB JUMP JUMPDEST PUSH2 0x2363 SWAP2 SWAP1 PUSH2 0x4129 JUMP JUMPDEST SWAP3 POP JUMPDEST DUP3 SWAP4 POP POP POP POP SWAP2 SWAP1 POP JUMP JUMPDEST PUSH0 DUP1 PUSH1 0x20 SWAP1 POP PUSH0 PUSH1 0x7F SWAP1 POP JUMPDEST DUP1 PUSH1 0xFF AND PUSH1 0x1 DUP4 PUSH2 0x238E SWAP2 SWAP1 PUSH2 0x430C JUMP JUMPDEST PUSH1 0xFF AND LT ISZERO PUSH2 0x23E3 JUMPI PUSH0 PUSH1 0x2 DUP3 DUP5 PUSH2 0x23A6 SWAP2 SWAP1 PUSH2 0x430C JUMP JUMPDEST PUSH2 0x23B0 SWAP2 SWAP1 PUSH2 0x4340 JUMP JUMPDEST SWAP1 POP DUP5 PUSH1 0x1 DUP3 PUSH1 0xFF AND PUSH1 0x80 DUP2 LT PUSH2 0x23CA JUMPI PUSH2 0x23C9 PUSH2 0x4047 JUMP JUMPDEST JUMPDEST ADD SLOAD LT PUSH2 0x23D9 JUMPI DUP1 SWAP3 POP PUSH2 0x23DD JUMP JUMPDEST DUP1 SWAP2 POP JUMPDEST POP PUSH2 0x237D JUMP JUMPDEST DUP4 PUSH1 0x1 DUP3 PUSH1 0xFF AND PUSH1 0x80 DUP2 LT PUSH2 0x23FB JUMPI PUSH2 0x23FA PUSH2 0x4047 JUMP JUMPDEST JUMPDEST ADD SLOAD LT PUSH2 0x240C JUMPI DUP1 SWAP3 POP POP POP PUSH2 0x2449 JUMP JUMPDEST DUP4 PUSH1 0x1 DUP4 PUSH1 0xFF AND PUSH1 0x80 DUP2 LT PUSH2 0x2424 JUMPI PUSH2 0x2423 PUSH2 0x4047 JUMP JUMPDEST JUMPDEST ADD SLOAD LT PUSH2 0x2435 JUMPI DUP2 SWAP3 POP POP POP PUSH2 0x2449 JUMP JUMPDEST PUSH0 PUSH2 0x2443 JUMPI PUSH2 0x2442 PUSH2 0x4370 JUMP JUMPDEST JUMPDEST PUSH0 SWAP3 POP POP POP JUMPDEST SWAP2 SWAP1 POP JUMP JUMPDEST PUSH0 DUP1 DUP4 SWAP1 POP PUSH0 DUP4 PUSH1 0xFF AND DUP6 DUP4 PUSH2 0x2464 SWAP2 SWAP1 PUSH2 0x40BB JUMP JUMPDEST SWAP1 SHR SWAP2 POP PUSH16 0x3442C4E6074A82F1797F72AC0000000 DUP3 PUSH2 0x2484 SWAP2 SWAP1 PUSH2 0x40BB JUMP JUMPDEST DUP2 PUSH2 0x248F SWAP2 SWAP1 PUSH2 0x4159 JUMP JUMPDEST SWAP1 POP DUP4 PUSH1 0xFF AND DUP6 DUP4 PUSH2 0x24A1 SWAP2 SWAP1 PUSH2 0x40BB JUMP JUMPDEST SWAP1 SHR SWAP2 POP PUSH16 0x116B96F757C380FB287FD0E40000000 DUP3 PUSH2 0x24C1 SWAP2 SWAP1 PUSH2 0x40BB JUMP JUMPDEST DUP2 PUSH2 0x24CC SWAP2 SWAP1 PUSH2 0x4159 JUMP JUMPDEST SWAP1 POP DUP4 PUSH1 0xFF AND DUP6 DUP4 PUSH2 0x24DE SWAP2 SWAP1 PUSH2 0x40BB JUMP JUMPDEST SWAP1 SHR SWAP2 POP PUSH15 0x45AE5BDD5F0E03ECA1FF4390000000 DUP3 PUSH2 0x24FD SWAP2 SWAP1 PUSH2 0x40BB JUMP JUMPDEST DUP2 PUSH2 0x2508 SWAP2 SWAP1 PUSH2 0x4159 JUMP JUMPDEST SWAP1 POP DUP4 PUSH1 0xFF AND DUP6 DUP4 PUSH2 0x251A SWAP2 SWAP1 PUSH2 0x40BB JUMP JUMPDEST SWAP1 SHR SWAP2 POP PUSH15 0xDEFABF91302CD95B9FFDA50000000 DUP3 PUSH2 0x2539 SWAP2 SWAP1 PUSH2 0x40BB JUMP JUMPDEST DUP2 PUSH2 0x2544 SWAP2 SWAP1 PUSH2 0x4159 JUMP JUMPDEST SWAP1 POP DUP4 PUSH1 0xFF AND DUP6 DUP4 PUSH2 0x2556 SWAP2 SWAP1 PUSH2 0x40BB JUMP JUMPDEST SWAP1 SHR SWAP2 POP PUSH15 0x2529CA9832B22439EFFF9B8000000 DUP3 PUSH2 0x2575 SWAP2 SWAP1 PUSH2 0x40BB JUMP JUMPDEST DUP2 PUSH2 0x2580 SWAP2 SWAP1 PUSH2 0x4159 JUMP JUMPDEST SWAP1 POP DUP4 PUSH1 0xFF AND DUP6 DUP4 PUSH2 0x2592 SWAP2 SWAP1 PUSH2 0x40BB JUMP JUMPDEST SWAP1 SHR SWAP2 POP PUSH14 0x54F1CF12BD04E516B6DA88000000 DUP3 PUSH2 0x25B0 SWAP2 SWAP1 PUSH2 0x40BB JUMP JUMPDEST DUP2 PUSH2 0x25BB SWAP2 SWAP1 PUSH2 0x4159 JUMP JUMPDEST SWAP1 POP DUP4 PUSH1 0xFF AND DUP6 DUP4 PUSH2 0x25CD SWAP2 SWAP1 PUSH2 0x40BB JUMP JUMPDEST SWAP1 SHR SWAP2 POP PUSH14 0xA9E39E257A09CA2D6DB51000000 DUP3 PUSH2 0x25EB SWAP2 SWAP1 PUSH2 0x40BB JUMP JUMPDEST DUP2 PUSH2 0x25F6 SWAP2 SWAP1 PUSH2 0x4159 JUMP JUMPDEST SWAP1 POP DUP4 PUSH1 0xFF AND DUP6 DUP4 PUSH2 0x2608 SWAP2 SWAP1 PUSH2 0x40BB JUMP JUMPDEST SWAP1 SHR SWAP2 POP PUSH14 0x12E066E7B839FA050C309000000 DUP3 PUSH2 0x2626 SWAP2 SWAP1 PUSH2 0x40BB JUMP JUMPDEST DUP2 PUSH2 0x2631 SWAP2 SWAP1 PUSH2 0x4159 JUMP JUMPDEST SWAP1 POP DUP4 PUSH1 0xFF AND DUP6 DUP4 PUSH2 0x2643 SWAP2 SWAP1 PUSH2 0x40BB JUMP JUMPDEST SWAP1 SHR SWAP2 POP PUSH13 0x1E33D7D926C329A1AD1A800000 DUP3 PUSH2 0x2660 SWAP2 SWAP1 PUSH2 0x40BB JUMP JUMPDEST DUP2 PUSH2 0x266B SWAP2 SWAP1 PUSH2 0x4159 JUMP JUMPDEST SWAP1 POP DUP4 PUSH1 0xFF AND DUP6 DUP4 PUSH2 0x267D SWAP2 SWAP1 PUSH2 0x40BB JUMP JUMPDEST SWAP1 SHR SWAP2 POP PUSH13 0x2BEE513BDB4A6B19B5F800000 DUP3 PUSH2 0x269A SWAP2 SWAP1 PUSH2 0x40BB JUMP JUMPDEST DUP2 PUSH2 0x26A5 SWAP2 SWAP1 PUSH2 0x4159 JUMP JUMPDEST SWAP1 POP DUP4 PUSH1 0xFF AND DUP6 DUP4 PUSH2 0x26B7 SWAP2 SWAP1 PUSH2 0x40BB JUMP JUMPDEST SWAP1 SHR SWAP2 POP PUSH12 0x3A9316FA79B88ECCF2A00000 DUP3 PUSH2 0x26D3 SWAP2 SWAP1 PUSH2 0x40BB JUMP JUMPDEST DUP2 PUSH2 0x26DE SWAP2 SWAP1 PUSH2 0x4159 JUMP JUMPDEST SWAP1 POP DUP4 PUSH1 0xFF AND DUP6 DUP4 PUSH2 0x26F0 SWAP2 SWAP1 PUSH2 0x40BB JUMP JUMPDEST SWAP1 SHR SWAP2 POP PUSH12 0x48177EBE1FA812375200000 DUP3 PUSH2 0x270C SWAP2 SWAP1 PUSH2 0x40BB JUMP JUMPDEST DUP2 PUSH2 0x2717 SWAP2 SWAP1 PUSH2 0x4159 JUMP JUMPDEST SWAP1 POP DUP4 PUSH1 0xFF AND DUP6 DUP4 PUSH2 0x2729 SWAP2 SWAP1 PUSH2 0x40BB JUMP JUMPDEST SWAP1 SHR SWAP2 POP PUSH11 0x5263FE90242DCBACF00000 DUP3 PUSH2 0x2744 SWAP2 SWAP1 PUSH2 0x40BB JUMP JUMPDEST DUP2 PUSH2 0x274F SWAP2 SWAP1 PUSH2 0x4159 JUMP JUMPDEST SWAP1 POP DUP4 PUSH1 0xFF AND DUP6 DUP4 PUSH2 0x2761 SWAP2 SWAP1 PUSH2 0x40BB JUMP JUMPDEST SWAP1 SHR SWAP2 POP PUSH11 0x57E22099C030D94100000 DUP3 PUSH2 0x277C SWAP2 SWAP1 PUSH2 0x40BB JUMP JUMPDEST DUP2 PUSH2 0x2787 SWAP2 SWAP1 PUSH2 0x4159 JUMP JUMPDEST SWAP1 POP DUP4 PUSH1 0xFF AND DUP6 DUP4 PUSH2 0x2799 SWAP2 SWAP1 PUSH2 0x40BB JUMP JUMPDEST SWAP1 SHR SWAP2 POP PUSH10 0x57E22099C030D9410000 DUP3 PUSH2 0x27B3 SWAP2 SWAP1 PUSH2 0x40BB JUMP JUMPDEST DUP2 PUSH2 0x27BE SWAP2 SWAP1 PUSH2 0x4159 JUMP JUMPDEST SWAP1 POP DUP4 PUSH1 0xFF AND DUP6 DUP4 PUSH2 0x27D0 SWAP2 SWAP1 PUSH2 0x40BB JUMP JUMPDEST SWAP1 SHR SWAP2 POP PUSH10 0x52B6B54569976310000 DUP3 PUSH2 0x27EA SWAP2 SWAP1 PUSH2 0x40BB JUMP JUMPDEST DUP2 PUSH2 0x27F5 SWAP2 SWAP1 PUSH2 0x4159 JUMP JUMPDEST SWAP1 POP DUP4 PUSH1 0xFF AND DUP6 DUP4 PUSH2 0x2807 SWAP2 SWAP1 PUSH2 0x40BB JUMP JUMPDEST SWAP1 SHR SWAP2 POP PUSH9 0x4985F67696BF748000 DUP3 PUSH2 0x2820 SWAP2 SWAP1 PUSH2 0x40BB JUMP JUMPDEST DUP2 PUSH2 0x282B SWAP2 SWAP1 PUSH2 0x4159 JUMP JUMPDEST SWAP1 POP DUP4 PUSH1 0xFF AND DUP6 DUP4 PUSH2 0x283D SWAP2 SWAP1 PUSH2 0x40BB JUMP JUMPDEST SWAP1 SHR SWAP2 POP PUSH9 0x3DEA12EA99E498000 DUP3 PUSH2 0x2856 SWAP2 SWAP1 PUSH2 0x40BB JUMP JUMPDEST DUP2 PUSH2 0x2861 SWAP2 SWAP1 PUSH2 0x4159 JUMP JUMPDEST SWAP1 POP DUP4 PUSH1 0xFF AND DUP6 DUP4 PUSH2 0x2873 SWAP2 SWAP1 PUSH2 0x40BB JUMP JUMPDEST SWAP1 SHR SWAP2 POP PUSH8 0x31880F2214B6E000 DUP3 PUSH2 0x288B SWAP2 SWAP1 PUSH2 0x40BB JUMP JUMPDEST DUP2 PUSH2 0x2896 SWAP2 SWAP1 PUSH2 0x4159 JUMP JUMPDEST SWAP1 POP DUP4 PUSH1 0xFF AND DUP6 DUP4 PUSH2 0x28A8 SWAP2 SWAP1 PUSH2 0x40BB JUMP JUMPDEST SWAP1 SHR SWAP2 POP PUSH8 0x25BCFF56EB36000 DUP3 PUSH2 0x28C0 SWAP2 SWAP1 PUSH2 0x40BB JUMP JUMPDEST DUP2 PUSH2 0x28CB SWAP2 SWAP1 PUSH2 0x4159 JUMP JUMPDEST SWAP1 POP DUP4 PUSH1 0xFF AND DUP6 DUP4 PUSH2 0x28DD SWAP2 SWAP1 PUSH2 0x40BB JUMP JUMPDEST SWAP1 SHR SWAP2 POP PUSH7 0x1B722E10AB1000 DUP3 PUSH2 0x28F4 SWAP2 SWAP1 PUSH2 0x40BB JUMP JUMPDEST DUP2 PUSH2 0x28FF SWAP2 SWAP1 PUSH2 0x4159 JUMP JUMPDEST SWAP1 POP DUP4 PUSH1 0xFF AND DUP6 DUP4 PUSH2 0x2911 SWAP2 SWAP1 PUSH2 0x40BB JUMP JUMPDEST SWAP1 SHR SWAP2 POP PUSH7 0x1317C70077000 DUP3 PUSH2 0x2928 SWAP2 SWAP1 PUSH2 0x40BB JUMP JUMPDEST DUP2 PUSH2 0x2933 SWAP2 SWAP1 PUSH2 0x4159 JUMP JUMPDEST SWAP1 POP DUP4 PUSH1 0xFF AND DUP6 DUP4 PUSH2 0x2945 SWAP2 SWAP1 PUSH2 0x40BB JUMP JUMPDEST SWAP1 SHR SWAP2 POP PUSH6 0xCBA84AAFA00 DUP3 PUSH2 0x295B SWAP2 SWAP1 PUSH2 0x40BB JUMP JUMPDEST DUP2 PUSH2 0x2966 SWAP2 SWAP1 PUSH2 0x4159 JUMP JUMPDEST SWAP1 POP DUP4 PUSH1 0xFF AND DUP6 DUP4 PUSH2 0x2978 SWAP2 SWAP1 PUSH2 0x40BB JUMP JUMPDEST SWAP1 SHR SWAP2 POP PUSH5 0x82573A0A00 DUP3 PUSH2 0x298D SWAP2 SWAP1 PUSH2 0x40BB JUMP JUMPDEST DUP2 PUSH2 0x2998 SWAP2 SWAP1 PUSH2 0x4159 JUMP JUMPDEST SWAP1 POP DUP4 PUSH1 0xFF AND DUP6 DUP4 PUSH2 0x29AA SWAP2 SWAP1 PUSH2 0x40BB JUMP JUMPDEST SWAP1 SHR SWAP2 POP PUSH5 0x5035AD900 DUP3 PUSH2 0x29BF SWAP2 SWAP1 PUSH2 0x40BB JUMP JUMPDEST DUP2 PUSH2 0x29CA SWAP2 SWAP1 PUSH2 0x4159 JUMP JUMPDEST SWAP1 POP DUP4 PUSH1 0xFF AND DUP6 DUP4 PUSH2 0x29DC SWAP2 SWAP1 PUSH2 0x40BB JUMP JUMPDEST SWAP1 SHR SWAP2 POP PUSH4 0x2F881B00 DUP3 PUSH2 0x29F0 SWAP2 SWAP1 PUSH2 0x40BB JUMP JUMPDEST DUP2 PUSH2 0x29FB SWAP2 SWAP1 PUSH2 0x4159 JUMP JUMPDEST SWAP1 POP DUP4 PUSH1 0xFF AND DUP6 DUP4 PUSH2 0x2A0D SWAP2 SWAP1 PUSH2 0x40BB JUMP JUMPDEST SWAP1 SHR SWAP2 POP PUSH4 0x1B29340 DUP3 PUSH2 0x2A21 SWAP2 SWAP1 PUSH2 0x40BB JUMP JUMPDEST DUP2 PUSH2 0x2A2C SWAP2 SWAP1 PUSH2 0x4159 JUMP JUMPDEST SWAP1 POP DUP4 PUSH1 0xFF AND DUP6 DUP4 PUSH2 0x2A3E SWAP2 SWAP1 PUSH2 0x40BB JUMP JUMPDEST SWAP1 SHR SWAP2 POP PUSH3 0xEFC40 DUP3 PUSH2 0x2A51 SWAP2 SWAP1 PUSH2 0x40BB JUMP JUMPDEST DUP2 PUSH2 0x2A5C SWAP2 SWAP1 PUSH2 0x4159 JUMP JUMPDEST SWAP1 POP DUP4 PUSH1 0xFF AND DUP6 DUP4 PUSH2 0x2A6E SWAP2 SWAP1 PUSH2 0x40BB JUMP JUMPDEST SWAP1 SHR SWAP2 POP PUSH2 0x7FE0 DUP3 PUSH2 0x2A80 SWAP2 SWAP1 PUSH2 0x40BB JUMP JUMPDEST DUP2 PUSH2 0x2A8B SWAP2 SWAP1 PUSH2 0x4159 JUMP JUMPDEST SWAP1 POP DUP4 PUSH1 0xFF AND DUP6 DUP4 PUSH2 0x2A9D SWAP2 SWAP1 PUSH2 0x40BB JUMP JUMPDEST SWAP1 SHR SWAP2 POP PUSH2 0x420 DUP3 PUSH2 0x2AAF SWAP2 SWAP1 PUSH2 0x40BB JUMP JUMPDEST DUP2 PUSH2 0x2ABA SWAP2 SWAP1 PUSH2 0x4159 JUMP JUMPDEST SWAP1 POP DUP4 PUSH1 0xFF AND DUP6 DUP4 PUSH2 0x2ACC SWAP2 SWAP1 PUSH2 0x40BB JUMP JUMPDEST SWAP1 SHR SWAP2 POP PUSH1 0x21 DUP3 PUSH2 0x2ADD SWAP2 SWAP1 PUSH2 0x40BB JUMP JUMPDEST DUP2 PUSH2 0x2AE8 SWAP2 SWAP1 PUSH2 0x4159 JUMP JUMPDEST SWAP1 POP DUP4 PUSH1 0xFF AND DUP6 DUP4 PUSH2 0x2AFA SWAP2 SWAP1 PUSH2 0x40BB JUMP JUMPDEST SWAP1 SHR SWAP2 POP PUSH1 0x1 DUP3 PUSH2 0x2B0B SWAP2 SWAP1 PUSH2 0x40BB JUMP JUMPDEST DUP2 PUSH2 0x2B16 SWAP2 SWAP1 PUSH2 0x4159 JUMP JUMPDEST SWAP1 POP DUP4 PUSH1 0xFF AND PUSH1 0x1 SWAP1 SHL DUP6 PUSH16 0x688589CC0E9505E2F2FEE5580000000 DUP4 PUSH2 0x2B3D SWAP2 SWAP1 PUSH2 0x4129 JUMP JUMPDEST PUSH2 0x2B47 SWAP2 SWAP1 PUSH2 0x4159 JUMP JUMPDEST PUSH2 0x2B51 SWAP2 SWAP1 PUSH2 0x4159 JUMP JUMPDEST SWAP3 POP POP POP SWAP3 SWAP2 POP POP JUMP JUMPDEST PUSH2 0x2B67 DUP6 DUP6 DUP6 DUP6 PUSH2 0x2CBD JUMP JUMPDEST PUSH0 PUSH20 0xFFFFFFFFFFFFFFFFFFFFFFFFFFFFFFFFFFFFFFFF AND DUP5 PUSH20 0xFFFFFFFFFFFFFFFFFFFFFFFFFFFFFFFFFFFFFFFF AND EQ PUSH2 0x2C00 JUMPI PUSH0 PUSH2 0x2BA3 PUSH2 0xF03 JUMP JUMPDEST SWAP1 POP PUSH1 0x1 DUP5 MLOAD SUB PUSH2 0x2BEF JUMPI PUSH0 PUSH2 0x2BC2 PUSH0 DUP7 PUSH2 0x1026 SWAP1 SWAP2 SWAP1 PUSH4 0xFFFFFFFF AND JUMP JUMPDEST SWAP1 POP PUSH0 PUSH2 0x2BD8 PUSH0 DUP7 PUSH2 0x1026 SWAP1 SWAP2 SWAP1 PUSH4 0xFFFFFFFF AND JUMP JUMPDEST SWAP1 POP PUSH2 0x2BE8 DUP4 DUP10 DUP10 DUP6 DUP6 DUP10 PUSH2 0x2E66 JUMP JUMPDEST POP POP PUSH2 0x2BFE JUMP JUMPDEST PUSH2 0x2BFD DUP2 DUP8 DUP8 DUP8 DUP8 DUP8 PUSH2 0x3015 JUMP JUMPDEST JUMPDEST POP JUMPDEST POP POP POP POP POP JUMP JUMPDEST PUSH1 0x60 DUP1 PUSH1 0x40 MLOAD SWAP2 POP PUSH1 0x1 DUP3 MSTORE DUP4 PUSH1 0x20 DUP4 ADD MSTORE PUSH1 0x40 DUP3 ADD SWAP1 POP PUSH1 0x1 DUP2 MSTORE DUP3 PUSH1 0x20 DUP3 ADD MSTORE PUSH1 0x40 DUP2 ADD PUSH1 0x40 MSTORE SWAP3 POP SWAP3 SWAP1 POP JUMP JUMPDEST PUSH0 DUP1 PUSH0 SWAP1 POP PUSH0 DUP4 SWAP1 POP PUSH2 0x100 DUP2 LT ISZERO PUSH2 0x2C74 JUMPI JUMPDEST PUSH1 0x1 DUP2 GT ISZERO PUSH2 0x2C6F JUMPI PUSH1 0x1 DUP2 SWAP1 SHR SWAP1 POP PUSH1 0x1 DUP3 PUSH2 0x2C68 SWAP2 SWAP1 PUSH2 0x430C JUMP JUMPDEST SWAP2 POP PUSH2 0x2C4B JUMP JUMPDEST PUSH2 0x2CB3 JUMP JUMPDEST PUSH0 PUSH1 0x80 SWAP1 POP JUMPDEST PUSH0 DUP2 PUSH1 0xFF AND GT ISZERO PUSH2 0x2CB1 JUMPI DUP1 PUSH1 0xFF AND PUSH1 0x1 SWAP1 SHL DUP3 LT PUSH2 0x2CA2 JUMPI DUP1 PUSH1 0xFF AND DUP3 SWAP1 SHR SWAP2 POP DUP1 DUP4 OR SWAP3 POP JUMPDEST PUSH1 0x1 DUP2 PUSH1 0xFF AND SWAP1 SHR SWAP1 POP PUSH2 0x2C7A JUMP JUMPDEST POP JUMPDEST DUP2 SWAP3 POP POP POP SWAP2 SWAP1 POP JUMP JUMPDEST PUSH2 0x2CC9 DUP5 DUP5 DUP5 DUP5 PUSH2 0x31C4 JUMP JUMPDEST PUSH0 PUSH20 0xFFFFFFFFFFFFFFFFFFFFFFFFFFFFFFFFFFFFFFFF AND DUP5 PUSH20 0xFFFFFFFFFFFFFFFFFFFFFFFFFFFFFFFFFFFFFFFF AND SUB PUSH2 0x2DA2 JUMPI PUSH0 DUP1 JUMPDEST DUP4 MLOAD DUP2 LT ISZERO PUSH2 0x2D87 JUMPI PUSH0 DUP4 DUP3 DUP2 MLOAD DUP2 LT PUSH2 0x2D1C JUMPI PUSH2 0x2D1B PUSH2 0x4047 JUMP JUMPDEST JUMPDEST PUSH1 0x20 MUL PUSH1 0x20 ADD ADD MLOAD SWAP1 POP DUP1 PUSH1 0x84 PUSH0 DUP8 DUP6 DUP2 MLOAD DUP2 LT PUSH2 0x2D3D JUMPI PUSH2 0x2D3C PUSH2 0x4047 JUMP JUMPDEST JUMPDEST PUSH1 0x20 MUL PUSH1 0x20 ADD ADD MLOAD DUP2 MSTORE PUSH1 0x20 ADD SWAP1 DUP2 MSTORE PUSH1 0x20 ADD PUSH0 KECCAK256 PUSH0 DUP3 DUP3 SLOAD PUSH2 0x2D60 SWAP2 SWAP1 PUSH2 0x4159 JUMP JUMPDEST SWAP3 POP POP DUP2 SWAP1 SSTORE POP DUP1 DUP4 PUSH2 0x2D73 SWAP2 SWAP1 PUSH2 0x4159 JUMP JUMPDEST SWAP3 POP POP DUP1 PUSH2 0x2D80 SWAP1 PUSH2 0x4074 JUMP JUMPDEST SWAP1 POP PUSH2 0x2CFF JUMP JUMPDEST POP DUP1 PUSH1 0x85 PUSH0 DUP3 DUP3 SLOAD PUSH2 0x2D99 SWAP2 SWAP1 PUSH2 0x4159 JUMP JUMPDEST SWAP3 POP POP DUP2 SWAP1 SSTORE POP POP JUMPDEST PUSH0 PUSH20 0xFFFFFFFFFFFFFFFFFFFFFFFFFFFFFFFFFFFFFFFF AND DUP4 PUSH20 0xFFFFFFFFFFFFFFFFFFFFFFFFFFFFFFFFFFFFFFFF AND SUB PUSH2 0x2E60 JUMPI PUSH0 DUP1 JUMPDEST DUP4 MLOAD DUP2 LT ISZERO PUSH2 0x2E4E JUMPI PUSH0 DUP4 DUP3 DUP2 MLOAD DUP2 LT PUSH2 0x2DF5 JUMPI PUSH2 0x2DF4 PUSH2 0x4047 JUMP JUMPDEST JUMPDEST PUSH1 0x20 MUL PUSH1 0x20 ADD ADD MLOAD SWAP1 POP DUP1 PUSH1 0x84 PUSH0 DUP8 DUP6 DUP2 MLOAD DUP2 LT PUSH2 0x2E16 JUMPI PUSH2 0x2E15 PUSH2 0x4047 JUMP JUMPDEST JUMPDEST PUSH1 0x20 MUL PUSH1 0x20 ADD ADD MLOAD DUP2 MSTORE PUSH1 0x20 ADD SWAP1 DUP2 MSTORE PUSH1 0x20 ADD PUSH0 KECCAK256 PUSH0 DUP3 DUP3 SLOAD SUB SWAP3 POP POP DUP2 SWAP1 SSTORE POP DUP1 DUP4 ADD SWAP3 POP POP DUP1 PUSH2 0x2E47 SWAP1 PUSH2 0x4074 JUMP JUMPDEST SWAP1 POP PUSH2 0x2DD8 JUMP JUMPDEST POP DUP1 PUSH1 0x85 PUSH0 DUP3 DUP3 SLOAD SUB SWAP3 POP POP DUP2 SWAP1 SSTORE POP POP JUMPDEST POP POP POP POP JUMP JUMPDEST PUSH0 DUP5 PUSH20 0xFFFFFFFFFFFFFFFFFFFFFFFFFFFFFFFFFFFFFFFF AND EXTCODESIZE GT ISZERO PUSH2 0x300D JUMPI DUP4 PUSH20 0xFFFFFFFFFFFFFFFFFFFFFFFFFFFFFFFFFFFFFFFF AND PUSH4 0xF23A6E61 DUP8 DUP8 DUP7 DUP7 DUP7 PUSH1 0x40 MLOAD DUP7 PUSH4 0xFFFFFFFF AND PUSH1 0xE0 SHL DUP2 MSTORE PUSH1 0x4 ADD PUSH2 0x2EC6 SWAP6 SWAP5 SWAP4 SWAP3 SWAP2 SWAP1 PUSH2 0x43EF JUMP JUMPDEST PUSH1 0x20 PUSH1 0x40 MLOAD DUP1 DUP4 SUB DUP2 PUSH0 DUP8 GAS CALL SWAP3 POP POP POP DUP1 ISZERO PUSH2 0x2F01 JUMPI POP PUSH1 0x40 MLOAD RETURNDATASIZE PUSH1 0x1F NOT PUSH1 0x1F DUP3 ADD AND DUP3 ADD DUP1 PUSH1 0x40 MSTORE POP DUP2 ADD SWAP1 PUSH2 0x2EFE SWAP2 SWAP1 PUSH2 0x445B JUMP JUMPDEST PUSH1 0x1 JUMPDEST PUSH2 0x2F82 JUMPI RETURNDATASIZE DUP1 PUSH0 DUP2 EQ PUSH2 0x2F2F JUMPI PUSH1 0x40 MLOAD SWAP2 POP PUSH1 0x1F NOT PUSH1 0x3F RETURNDATASIZE ADD AND DUP3 ADD PUSH1 0x40 MSTORE RETURNDATASIZE DUP3 MSTORE RETURNDATASIZE PUSH0 PUSH1 0x20 DUP5 ADD RETURNDATACOPY PUSH2 0x2F34 JUMP JUMPDEST PUSH1 0x60 SWAP2 POP JUMPDEST POP PUSH0 DUP2 MLOAD SUB PUSH2 0x2F7A JUMPI DUP5 PUSH1 0x40 MLOAD PUSH32 0x57F447CE00000000000000000000000000000000000000000000000000000000 DUP2 MSTORE PUSH1 0x4 ADD PUSH2 0x2F71 SWAP2 SWAP1 PUSH2 0x429C JUMP JUMPDEST PUSH1 0x40 MLOAD DUP1 SWAP2 SUB SWAP1 REVERT JUMPDEST DUP1 MLOAD DUP2 PUSH1 0x20 ADD REVERT JUMPDEST PUSH4 0xF23A6E61 PUSH1 0xE0 SHL PUSH28 0xFFFFFFFFFFFFFFFFFFFFFFFFFFFFFFFFFFFFFFFFFFFFFFFFFFFFFFFF NOT AND DUP2 PUSH28 0xFFFFFFFFFFFFFFFFFFFFFFFFFFFFFFFFFFFFFFFFFFFFFFFFFFFFFFFF NOT AND EQ PUSH2 0x300B JUMPI DUP5 PUSH1 0x40 MLOAD PUSH32 0x57F447CE00000000000000000000000000000000000000000000000000000000 DUP2 MSTORE PUSH1 0x4 ADD PUSH2 0x3002 SWAP2 SWAP1 PUSH2 0x429C JUMP JUMPDEST PUSH1 0x40 MLOAD DUP1 SWAP2 SUB SWAP1 REVERT JUMPDEST POP JUMPDEST POP POP POP POP POP POP JUMP JUMPDEST PUSH0 DUP5 PUSH20 0xFFFFFFFFFFFFFFFFFFFFFFFFFFFFFFFFFFFFFFFF AND EXTCODESIZE GT ISZERO PUSH2 0x31BC JUMPI DUP4 PUSH20 0xFFFFFFFFFFFFFFFFFFFFFFFFFFFFFFFFFFFFFFFF AND PUSH4 0xBC197C81 DUP8 DUP8 DUP7 DUP7 DUP7 PUSH1 0x40 MLOAD DUP7 PUSH4 0xFFFFFFFF AND PUSH1 0xE0 SHL DUP2 MSTORE PUSH1 0x4 ADD PUSH2 0x3075 SWAP6 SWAP5 SWAP4 SWAP3 SWAP2 SWAP1 PUSH2 0x4486 JUMP JUMPDEST PUSH1 0x20 PUSH1 0x40 MLOAD DUP1 DUP4 SUB DUP2 PUSH0 DUP8 GAS CALL SWAP3 POP POP POP DUP1 ISZERO PUSH2 0x30B0 JUMPI POP PUSH1 0x40 MLOAD RETURNDATASIZE PUSH1 0x1F NOT PUSH1 0x1F DUP3 ADD AND DUP3 ADD DUP1 PUSH1 0x40 MSTORE POP DUP2 ADD SWAP1 PUSH2 0x30AD SWAP2 SWAP1 PUSH2 0x445B JUMP JUMPDEST PUSH1 0x1 JUMPDEST PUSH2 0x3131 JUMPI RETURNDATASIZE DUP1 PUSH0 DUP2 EQ PUSH2 0x30DE JUMPI PUSH1 0x40 MLOAD SWAP2 POP PUSH1 0x1F NOT PUSH1 0x3F RETURNDATASIZE ADD AND DUP3 ADD PUSH1 0x40 MSTORE RETURNDATASIZE DUP3 MSTORE RETURNDATASIZE PUSH0 PUSH1 0x20 DUP5 ADD RETURNDATACOPY PUSH2 0x30E3 JUMP JUMPDEST PUSH1 0x60 SWAP2 POP JUMPDEST POP PUSH0 DUP2 MLOAD SUB PUSH2 0x3129 JUMPI DUP5 PUSH1 0x40 MLOAD PUSH32 0x57F447CE00000000000000000000000000000000000000000000000000000000 DUP2 MSTORE PUSH1 0x4 ADD PUSH2 0x3120 SWAP2 SWAP1 PUSH2 0x429C JUMP JUMPDEST PUSH1 0x40 MLOAD DUP1 SWAP2 SUB SWAP1 REVERT JUMPDEST DUP1 MLOAD DUP2 PUSH1 0x20 ADD REVERT JUMPDEST PUSH4 0xBC197C81 PUSH1 0xE0 SHL PUSH28 0xFFFFFFFFFFFFFFFFFFFFFFFFFFFFFFFFFFFFFFFFFFFFFFFFFFFFFFFF NOT AND DUP2 PUSH28 0xFFFFFFFFFFFFFFFFFFFFFFFFFFFFFFFFFFFFFFFFFFFFFFFFFFFFFFFF NOT AND EQ PUSH2 0x31BA JUMPI DUP5 PUSH1 0x40 MLOAD PUSH32 0x57F447CE00000000000000000000000000000000000000000000000000000000 DUP2 MSTORE PUSH1 0x4 ADD PUSH2 0x31B1 SWAP2 SWAP1 PUSH2 0x429C JUMP JUMPDEST PUSH1 0x40 MLOAD DUP1 SWAP2 SUB SWAP1 REVERT JUMPDEST POP JUMPDEST POP POP POP POP POP POP JUMP JUMPDEST DUP1 MLOAD DUP3 MLOAD EQ PUSH2 0x320E JUMPI DUP2 MLOAD DUP2 MLOAD PUSH1 0x40 MLOAD PUSH32 0x5B05999100000000000000000000000000000000000000000000000000000000 DUP2 MSTORE PUSH1 0x4 ADD PUSH2 0x3205 SWAP3 SWAP2 SWAP1 PUSH2 0x4020 JUMP JUMPDEST PUSH1 0x40 MLOAD DUP1 SWAP2 SUB SWAP1 REVERT JUMPDEST PUSH0 PUSH2 0x3217 PUSH2 0xF03 JUMP JUMPDEST SWAP1 POP PUSH0 JUMPDEST DUP4 MLOAD DUP2 LT ISZERO PUSH2 0x341C JUMPI PUSH0 PUSH2 0x3238 DUP3 DUP7 PUSH2 0x1026 SWAP1 SWAP2 SWAP1 PUSH4 0xFFFFFFFF AND JUMP JUMPDEST SWAP1 POP PUSH0 PUSH2 0x324E DUP4 DUP7 PUSH2 0x1026 SWAP1 SWAP2 SWAP1 PUSH4 0xFFFFFFFF AND JUMP JUMPDEST SWAP1 POP PUSH0 PUSH20 0xFFFFFFFFFFFFFFFFFFFFFFFFFFFFFFFFFFFFFFFF AND DUP9 PUSH20 0xFFFFFFFFFFFFFFFFFFFFFFFFFFFFFFFFFFFFFFFF AND EQ PUSH2 0x3373 JUMPI PUSH0 PUSH1 0x81 PUSH0 DUP5 DUP2 MSTORE PUSH1 0x20 ADD SWAP1 DUP2 MSTORE PUSH1 0x20 ADD PUSH0 KECCAK256 PUSH0 DUP11 PUSH20 0xFFFFFFFFFFFFFFFFFFFFFFFFFFFFFFFFFFFFFFFF AND PUSH20 0xFFFFFFFFFFFFFFFFFFFFFFFFFFFFFFFFFFFFFFFF AND DUP2 MSTORE PUSH1 0x20 ADD SWAP1 DUP2 MSTORE PUSH1 0x20 ADD PUSH0 KECCAK256 SLOAD SWAP1 POP DUP2 DUP2 LT ISZERO PUSH2 0x331E JUMPI DUP9 DUP2 DUP4 DUP6 PUSH1 0x40 MLOAD PUSH32 0x3DEE4C500000000000000000000000000000000000000000000000000000000 DUP2 MSTORE PUSH1 0x4 ADD PUSH2 0x3315 SWAP5 SWAP4 SWAP3 SWAP2 SWAP1 PUSH2 0x44EC JUMP JUMPDEST PUSH1 0x40 MLOAD DUP1 SWAP2 SUB SWAP1 REVERT JUMPDEST DUP2 DUP2 SUB PUSH1 0x81 PUSH0 DUP6 DUP2 MSTORE PUSH1 0x20 ADD SWAP1 DUP2 MSTORE PUSH1 0x20 ADD PUSH0 KECCAK256 PUSH0 DUP12 PUSH20 0xFFFFFFFFFFFFFFFFFFFFFFFFFFFFFFFFFFFFFFFF AND PUSH20 0xFFFFFFFFFFFFFFFFFFFFFFFFFFFFFFFFFFFFFFFF AND DUP2 MSTORE PUSH1 0x20 ADD SWAP1 DUP2 MSTORE PUSH1 0x20 ADD PUSH0 KECCAK256 DUP2 SWAP1 SSTORE POP POP JUMPDEST PUSH0 PUSH20 0xFFFFFFFFFFFFFFFFFFFFFFFFFFFFFFFFFFFFFFFF AND DUP8 PUSH20 0xFFFFFFFFFFFFFFFFFFFFFFFFFFFFFFFFFFFFFFFF AND EQ PUSH2 0x3409 JUMPI DUP1 PUSH1 0x81 PUSH0 DUP5 DUP2 MSTORE PUSH1 0x20 ADD SWAP1 DUP2 MSTORE PUSH1 0x20 ADD PUSH0 KECCAK256 PUSH0 DUP10 PUSH20 0xFFFFFFFFFFFFFFFFFFFFFFFFFFFFFFFFFFFFFFFF AND PUSH20 0xFFFFFFFFFFFFFFFFFFFFFFFFFFFFFFFFFFFFFFFF AND DUP2 MSTORE PUSH1 0x20 ADD SWAP1 DUP2 MSTORE PUSH1 0x20 ADD PUSH0 KECCAK256 PUSH0 DUP3 DUP3 SLOAD PUSH2 0x3401 SWAP2 SWAP1 PUSH2 0x4159 JUMP JUMPDEST SWAP3 POP POP DUP2 SWAP1 SSTORE POP JUMPDEST POP POP DUP1 PUSH2 0x3415 SWAP1 PUSH2 0x4074 JUMP JUMPDEST SWAP1 POP PUSH2 0x321B JUMP JUMPDEST POP PUSH1 0x1 DUP4 MLOAD SUB PUSH2 0x34D7 JUMPI PUSH0 PUSH2 0x343A PUSH0 DUP6 PUSH2 0x1026 SWAP1 SWAP2 SWAP1 PUSH4 0xFFFFFFFF AND JUMP JUMPDEST SWAP1 POP PUSH0 PUSH2 0x3450 PUSH0 DUP6 PUSH2 0x1026 SWAP1 SWAP2 SWAP1 PUSH4 0xFFFFFFFF AND JUMP JUMPDEST SWAP1 POP DUP6 PUSH20 0xFFFFFFFFFFFFFFFFFFFFFFFFFFFFFFFFFFFFFFFF AND DUP8 PUSH20 0xFFFFFFFFFFFFFFFFFFFFFFFFFFFFFFFFFFFFFFFF AND DUP5 PUSH20 0xFFFFFFFFFFFFFFFFFFFFFFFFFFFFFFFFFFFFFFFF AND PUSH32 0xC3D58168C5AE7397731D063D5BBF3D657854427343F4C083240F7AACAA2D0F62 DUP6 DUP6 PUSH1 0x40 MLOAD PUSH2 0x34C8 SWAP3 SWAP2 SWAP1 PUSH2 0x4020 JUMP JUMPDEST PUSH1 0x40 MLOAD DUP1 SWAP2 SUB SWAP1 LOG4 POP POP PUSH2 0x3556 JUMP JUMPDEST DUP4 PUSH20 0xFFFFFFFFFFFFFFFFFFFFFFFFFFFFFFFFFFFFFFFF AND DUP6 PUSH20 0xFFFFFFFFFFFFFFFFFFFFFFFFFFFFFFFFFFFFFFFF AND DUP3 PUSH20 0xFFFFFFFFFFFFFFFFFFFFFFFFFFFFFFFFFFFFFFFF AND PUSH32 0x4A39DC06D4C0DBC64B70AF90FD698A233A518AA5D07E595D983B8C0526C8F7FB DUP7 DUP7 PUSH1 0x40 MLOAD PUSH2 0x354D SWAP3 SWAP2 SWAP1 PUSH2 0x452F JUMP JUMPDEST PUSH1 0x40 MLOAD DUP1 SWAP2 SUB SWAP1 LOG4 JUMPDEST POP POP POP POP POP JUMP JUMPDEST PUSH0 PUSH1 0x40 MLOAD SWAP1 POP SWAP1 JUMP JUMPDEST PUSH0 DUP1 REVERT JUMPDEST PUSH0 DUP1 REVERT JUMPDEST PUSH0 PUSH20 0xFFFFFFFFFFFFFFFFFFFFFFFFFFFFFFFFFFFFFFFF DUP3 AND SWAP1 POP SWAP2 SWAP1 POP JUMP JUMPDEST PUSH0 PUSH2 0x3597 DUP3 PUSH2 0x356E JUMP JUMPDEST SWAP1 POP SWAP2 SWAP1 POP JUMP JUMPDEST PUSH2 0x35A7 DUP2 PUSH2 0x358D JUMP JUMPDEST DUP2 EQ PUSH2 0x35B1 JUMPI PUSH0 DUP1 REVERT JUMPDEST POP JUMP JUMPDEST PUSH0 DUP2 CALLDATALOAD SWAP1 POP PUSH2 0x35C2 DUP2 PUSH2 0x359E JUMP JUMPDEST SWAP3 SWAP2 POP POP JUMP JUMPDEST PUSH0 DUP2 SWAP1 POP SWAP2 SWAP1 POP JUMP JUMPDEST PUSH2 0x35DA DUP2 PUSH2 0x35C8 JUMP JUMPDEST DUP2 EQ PUSH2 0x35E4 JUMPI PUSH0 DUP1 REVERT JUMPDEST POP JUMP JUMPDEST PUSH0 DUP2 CALLDATALOAD SWAP1 POP PUSH2 0x35F5 DUP2 PUSH2 0x35D1 JUMP JUMPDEST SWAP3 SWAP2 POP POP JUMP JUMPDEST PUSH0 DUP1 PUSH1 0x40 DUP4 DUP6 SUB SLT ISZERO PUSH2 0x3611 JUMPI PUSH2 0x3610 PUSH2 0x3566 JUMP JUMPDEST JUMPDEST PUSH0 PUSH2 0x361E DUP6 DUP3 DUP7 ADD PUSH2 0x35B4 JUMP JUMPDEST SWAP3 POP POP PUSH1 0x20 PUSH2 0x362F DUP6 DUP3 DUP7 ADD PUSH2 0x35E7 JUMP JUMPDEST SWAP2 POP POP SWAP3 POP SWAP3 SWAP1 POP JUMP JUMPDEST PUSH2 0x3642 DUP2 PUSH2 0x35C8 JUMP JUMPDEST DUP3 MSTORE POP POP JUMP JUMPDEST PUSH0 PUSH1 0x20 DUP3 ADD SWAP1 POP PUSH2 0x365B PUSH0 DUP4 ADD DUP5 PUSH2 0x3639 JUMP JUMPDEST SWAP3 SWAP2 POP POP JUMP JUMPDEST PUSH0 PUSH32 0xFFFFFFFF00000000000000000000000000000000000000000000000000000000 DUP3 AND SWAP1 POP SWAP2 SWAP1 POP JUMP JUMPDEST PUSH2 0x3695 DUP2 PUSH2 0x3661 JUMP JUMPDEST DUP2 EQ PUSH2 0x369F JUMPI PUSH0 DUP1 REVERT JUMPDEST POP JUMP JUMPDEST PUSH0 DUP2 CALLDATALOAD SWAP1 POP PUSH2 0x36B0 DUP2 PUSH2 0x368C JUMP JUMPDEST SWAP3 SWAP2 POP POP JUMP JUMPDEST PUSH0 PUSH1 0x20 DUP3 DUP5 SUB SLT ISZERO PUSH2 0x36CB JUMPI PUSH2 0x36CA PUSH2 0x3566 JUMP JUMPDEST JUMPDEST PUSH0 PUSH2 0x36D8 DUP5 DUP3 DUP6 ADD PUSH2 0x36A2 JUMP JUMPDEST SWAP2 POP POP SWAP3 SWAP2 POP POP JUMP JUMPDEST PUSH0 DUP2 ISZERO ISZERO SWAP1 POP SWAP2 SWAP1 POP JUMP JUMPDEST PUSH2 0x36F5 DUP2 PUSH2 0x36E1 JUMP JUMPDEST DUP3 MSTORE POP POP JUMP JUMPDEST PUSH0 PUSH1 0x20 DUP3 ADD SWAP1 POP PUSH2 0x370E PUSH0 DUP4 ADD DUP5 PUSH2 0x36EC JUMP JUMPDEST SWAP3 SWAP2 POP POP JUMP JUMPDEST PUSH0 PUSH1 0x20 DUP3 DUP5 SUB SLT ISZERO PUSH2 0x3729 JUMPI PUSH2 0x3728 PUSH2 0x3566 JUMP JUMPDEST JUMPDEST PUSH0 PUSH2 0x3736 DUP5 DUP3 DUP6 ADD PUSH2 0x35E7 JUMP JUMPDEST SWAP2 POP POP SWAP3 SWAP2 POP POP JUMP JUMPDEST PUSH0 DUP2 MLOAD SWAP1 POP SWAP2 SWAP1 POP JUMP JUMPDEST PUSH0 DUP3 DUP3 MSTORE PUSH1 0x20 DUP3 ADD SWAP1 POP SWAP3 SWAP2 POP POP JUMP JUMPDEST PUSH0 JUMPDEST DUP4 DUP2 LT ISZERO PUSH2 0x3776 JUMPI DUP1 DUP3 ADD MLOAD DUP2 DUP5 ADD MSTORE PUSH1 0x20 DUP2 ADD SWAP1 POP PUSH2 0x375B JUMP JUMPDEST PUSH0 DUP5 DUP5 ADD MSTORE POP POP POP POP JUMP JUMPDEST PUSH0 PUSH1 0x1F NOT PUSH1 0x1F DUP4 ADD AND SWAP1 POP SWAP2 SWAP1 POP JUMP JUMPDEST PUSH0 PUSH2 0x379B DUP3 PUSH2 0x373F JUMP JUMPDEST PUSH2 0x37A5 DUP2 DUP6 PUSH2 0x3749 JUMP JUMPDEST SWAP4 POP PUSH2 0x37B5 DUP2 DUP6 PUSH1 0x20 DUP7 ADD PUSH2 0x3759 JUMP JUMPDEST PUSH2 0x37BE DUP2 PUSH2 0x3781 JUMP JUMPDEST DUP5 ADD SWAP2 POP POP SWAP3 SWAP2 POP POP JUMP JUMPDEST PUSH0 PUSH1 0x20 DUP3 ADD SWAP1 POP DUP2 DUP2 SUB PUSH0 DUP4 ADD MSTORE PUSH2 0x37E1 DUP2 DUP5 PUSH2 0x3791 JUMP JUMPDEST SWAP1 POP SWAP3 SWAP2 POP POP JUMP JUMPDEST PUSH0 PUSH4 0xFFFFFFFF DUP3 AND SWAP1 POP SWAP2 SWAP1 POP JUMP JUMPDEST PUSH2 0x3801 DUP2 PUSH2 0x37E9 JUMP JUMPDEST DUP2 EQ PUSH2 0x380B JUMPI PUSH0 DUP1 REVERT JUMPDEST POP JUMP JUMPDEST PUSH0 DUP2 CALLDATALOAD SWAP1 POP PUSH2 0x381C DUP2 PUSH2 0x37F8 JUMP JUMPDEST SWAP3 SWAP2 POP POP JUMP JUMPDEST PUSH0 DUP1 PUSH0 DUP1 PUSH1 0x80 DUP6 DUP8 SUB SLT ISZERO PUSH2 0x383A JUMPI PUSH2 0x3839 PUSH2 0x3566 JUMP JUMPDEST JUMPDEST PUSH0 PUSH2 0x3847 DUP8 DUP3 DUP9 ADD PUSH2 0x35E7 JUMP JUMPDEST SWAP5 POP POP PUSH1 0x20 PUSH2 0x3858 DUP8 DUP3 DUP9 ADD PUSH2 0x35E7 JUMP JUMPDEST SWAP4 POP POP PUSH1 0x40 PUSH2 0x3869 DUP8 DUP3 DUP9 ADD PUSH2 0x380E JUMP JUMPDEST SWAP3 POP POP PUSH1 0x60 PUSH2 0x387A DUP8 DUP3 DUP9 ADD PUSH2 0x35E7 JUMP JUMPDEST SWAP2 POP POP SWAP3 SWAP6 SWAP2 SWAP5 POP SWAP3 POP JUMP JUMPDEST PUSH0 DUP1 REVERT JUMPDEST PUSH32 0x4E487B7100000000000000000000000000000000000000000000000000000000 PUSH0 MSTORE PUSH1 0x41 PUSH1 0x4 MSTORE PUSH1 0x24 PUSH0 REVERT JUMPDEST PUSH2 0x38C0 DUP3 PUSH2 0x3781 JUMP JUMPDEST DUP2 ADD DUP2 DUP2 LT PUSH8 0xFFFFFFFFFFFFFFFF DUP3 GT OR ISZERO PUSH2 0x38DF JUMPI PUSH2 0x38DE PUSH2 0x388A JUMP JUMPDEST JUMPDEST DUP1 PUSH1 0x40 MSTORE POP POP POP JUMP JUMPDEST PUSH0 PUSH2 0x38F1 PUSH2 0x355D JUMP JUMPDEST SWAP1 POP PUSH2 0x38FD DUP3 DUP3 PUSH2 0x38B7 JUMP JUMPDEST SWAP2 SWAP1 POP JUMP JUMPDEST PUSH0 PUSH8 0xFFFFFFFFFFFFFFFF DUP3 GT ISZERO PUSH2 0x391C JUMPI PUSH2 0x391B PUSH2 0x388A JUMP JUMPDEST JUMPDEST PUSH1 0x20 DUP3 MUL SWAP1 POP PUSH1 0x20 DUP2 ADD SWAP1 POP SWAP2 SWAP1 POP JUMP JUMPDEST PUSH0 DUP1 REVERT JUMPDEST PUSH0 PUSH2 0x3943 PUSH2 0x393E DUP5 PUSH2 0x3902 JUMP JUMPDEST PUSH2 0x38E8 JUMP JUMPDEST SWAP1 POP DUP1 DUP4 DUP3 MSTORE PUSH1 0x20 DUP3 ADD SWAP1 POP PUSH1 0x20 DUP5 MUL DUP4 ADD DUP6 DUP2 GT ISZERO PUSH2 0x3966 JUMPI PUSH2 0x3965 PUSH2 0x392D JUMP JUMPDEST JUMPDEST DUP4 JUMPDEST DUP2 DUP2 LT ISZERO PUSH2 0x398F JUMPI DUP1 PUSH2 0x397B DUP9 DUP3 PUSH2 0x35E7 JUMP JUMPDEST DUP5 MSTORE PUSH1 0x20 DUP5 ADD SWAP4 POP POP PUSH1 0x20 DUP2 ADD SWAP1 POP PUSH2 0x3968 JUMP JUMPDEST POP POP POP SWAP4 SWAP3 POP POP POP JUMP JUMPDEST PUSH0 DUP3 PUSH1 0x1F DUP4 ADD SLT PUSH2 0x39AD JUMPI PUSH2 0x39AC PUSH2 0x3886 JUMP JUMPDEST JUMPDEST DUP2 CALLDATALOAD PUSH2 0x39BD DUP5 DUP3 PUSH1 0x20 DUP7 ADD PUSH2 0x3931 JUMP JUMPDEST SWAP2 POP POP SWAP3 SWAP2 POP POP JUMP JUMPDEST PUSH0 DUP1 REVERT JUMPDEST PUSH0 PUSH8 0xFFFFFFFFFFFFFFFF DUP3 GT ISZERO PUSH2 0x39E4 JUMPI PUSH2 0x39E3 PUSH2 0x388A JUMP JUMPDEST JUMPDEST PUSH2 0x39ED DUP3 PUSH2 0x3781 JUMP JUMPDEST SWAP1 POP PUSH1 0x20 DUP2 ADD SWAP1 POP SWAP2 SWAP1 POP JUMP JUMPDEST DUP3 DUP2 DUP4 CALLDATACOPY PUSH0 DUP4 DUP4 ADD MSTORE POP POP POP JUMP JUMPDEST PUSH0 PUSH2 0x3A1A PUSH2 0x3A15 DUP5 PUSH2 0x39CA JUMP JUMPDEST PUSH2 0x38E8 JUMP JUMPDEST SWAP1 POP DUP3 DUP2 MSTORE PUSH1 0x20 DUP2 ADD DUP5 DUP5 DUP5 ADD GT ISZERO PUSH2 0x3A36 JUMPI PUSH2 0x3A35 PUSH2 0x39C6 JUMP JUMPDEST JUMPDEST PUSH2 0x3A41 DUP5 DUP3 DUP6 PUSH2 0x39FA JUMP JUMPDEST POP SWAP4 SWAP3 POP POP POP JUMP JUMPDEST PUSH0 DUP3 PUSH1 0x1F DUP4 ADD SLT PUSH2 0x3A5D JUMPI PUSH2 0x3A5C PUSH2 0x3886 JUMP JUMPDEST JUMPDEST DUP2 CALLDATALOAD PUSH2 0x3A6D DUP5 DUP3 PUSH1 0x20 DUP7 ADD PUSH2 0x3A08 JUMP JUMPDEST SWAP2 POP POP SWAP3 SWAP2 POP POP JUMP JUMPDEST PUSH0 DUP1 PUSH0 DUP1 PUSH0 PUSH1 0xA0 DUP7 DUP9 SUB SLT ISZERO PUSH2 0x3A8F JUMPI PUSH2 0x3A8E PUSH2 0x3566 JUMP JUMPDEST JUMPDEST PUSH0 PUSH2 0x3A9C DUP9 DUP3 DUP10 ADD PUSH2 0x35B4 JUMP JUMPDEST SWAP6 POP POP PUSH1 0x20 PUSH2 0x3AAD DUP9 DUP3 DUP10 ADD PUSH2 0x35B4 JUMP JUMPDEST SWAP5 POP POP PUSH1 0x40 DUP7 ADD CALLDATALOAD PUSH8 0xFFFFFFFFFFFFFFFF DUP2 GT ISZERO PUSH2 0x3ACE JUMPI PUSH2 0x3ACD PUSH2 0x356A JUMP JUMPDEST JUMPDEST PUSH2 0x3ADA DUP9 DUP3 DUP10 ADD PUSH2 0x3999 JUMP JUMPDEST SWAP4 POP POP PUSH1 0x60 DUP7 ADD CALLDATALOAD PUSH8 0xFFFFFFFFFFFFFFFF DUP2 GT ISZERO PUSH2 0x3AFB JUMPI PUSH2 0x3AFA PUSH2 0x356A JUMP JUMPDEST JUMPDEST PUSH2 0x3B07 DUP9 DUP3 DUP10 ADD PUSH2 0x3999 JUMP JUMPDEST SWAP3 POP POP PUSH1 0x80 DUP7 ADD CALLDATALOAD PUSH8 0xFFFFFFFFFFFFFFFF DUP2 GT ISZERO PUSH2 0x3B28 JUMPI PUSH2 0x3B27 PUSH2 0x356A JUMP JUMPDEST JUMPDEST PUSH2 0x3B34 DUP9 DUP3 DUP10 ADD PUSH2 0x3A49 JUMP JUMPDEST SWAP2 POP POP SWAP3 SWAP6 POP SWAP3 SWAP6 SWAP1 SWAP4 POP JUMP JUMPDEST PUSH0 PUSH8 0xFFFFFFFFFFFFFFFF DUP3 GT ISZERO PUSH2 0x3B5B JUMPI PUSH2 0x3B5A PUSH2 0x388A JUMP JUMPDEST JUMPDEST PUSH1 0x20 DUP3 MUL SWAP1 POP PUSH1 0x20 DUP2 ADD SWAP1 POP SWAP2 SWAP1 POP JUMP JUMPDEST PUSH0 PUSH2 0x3B7E PUSH2 0x3B79 DUP5 PUSH2 0x3B41 JUMP JUMPDEST PUSH2 0x38E8 JUMP JUMPDEST SWAP1 POP DUP1 DUP4 DUP3 MSTORE PUSH1 0x20 DUP3 ADD SWAP1 POP PUSH1 0x20 DUP5 MUL DUP4 ADD DUP6 DUP2 GT ISZERO PUSH2 0x3BA1 JUMPI PUSH2 0x3BA0 PUSH2 0x392D JUMP JUMPDEST JUMPDEST DUP4 JUMPDEST DUP2 DUP2 LT ISZERO PUSH2 0x3BCA JUMPI DUP1 PUSH2 0x3BB6 DUP9 DUP3 PUSH2 0x35B4 JUMP JUMPDEST DUP5 MSTORE PUSH1 0x20 DUP5 ADD SWAP4 POP POP PUSH1 0x20 DUP2 ADD SWAP1 POP PUSH2 0x3BA3 JUMP JUMPDEST POP POP POP SWAP4 SWAP3 POP POP POP JUMP JUMPDEST PUSH0 DUP3 PUSH1 0x1F DUP4 ADD SLT PUSH2 0x3BE8 JUMPI PUSH2 0x3BE7 PUSH2 0x3886 JUMP JUMPDEST JUMPDEST DUP2 CALLDATALOAD PUSH2 0x3BF8 DUP5 DUP3 PUSH1 0x20 DUP7 ADD PUSH2 0x3B6C JUMP JUMPDEST SWAP2 POP POP SWAP3 SWAP2 POP POP JUMP JUMPDEST PUSH0 DUP1 PUSH1 0x40 DUP4 DUP6 SUB SLT ISZERO PUSH2 0x3C17 JUMPI PUSH2 0x3C16 PUSH2 0x3566 JUMP JUMPDEST JUMPDEST PUSH0 DUP4 ADD CALLDATALOAD PUSH8 0xFFFFFFFFFFFFFFFF DUP2 GT ISZERO PUSH2 0x3C34 JUMPI PUSH2 0x3C33 PUSH2 0x356A JUMP JUMPDEST JUMPDEST PUSH2 0x3C40 DUP6 DUP3 DUP7 ADD PUSH2 0x3BD4 JUMP JUMPDEST SWAP3 POP POP PUSH1 0x20 DUP4 ADD CALLDATALOAD PUSH8 0xFFFFFFFFFFFFFFFF DUP2 GT ISZERO PUSH2 0x3C61 JUMPI PUSH2 0x3C60 PUSH2 0x356A JUMP JUMPDEST JUMPDEST PUSH2 0x3C6D DUP6 DUP3 DUP7 ADD PUSH2 0x3999 JUMP JUMPDEST SWAP2 POP POP SWAP3 POP SWAP3 SWAP1 POP JUMP JUMPDEST PUSH0 DUP2 MLOAD SWAP1 POP SWAP2 SWAP1 POP JUMP JUMPDEST PUSH0 DUP3 DUP3 MSTORE PUSH1 0x20 DUP3 ADD SWAP1 POP SWAP3 SWAP2 POP POP JUMP JUMPDEST PUSH0 DUP2 SWAP1 POP PUSH1 0x20 DUP3 ADD SWAP1 POP SWAP2 SWAP1 POP JUMP JUMPDEST PUSH2 0x3CA9 DUP2 PUSH2 0x35C8 JUMP JUMPDEST DUP3 MSTORE POP POP JUMP JUMPDEST PUSH0 PUSH2 0x3CBA DUP4 DUP4 PUSH2 0x3CA0 JUMP JUMPDEST PUSH1 0x20 DUP4 ADD SWAP1 POP SWAP3 SWAP2 POP POP JUMP JUMPDEST PUSH0 PUSH1 0x20 DUP3 ADD SWAP1 POP SWAP2 SWAP1 POP JUMP JUMPDEST PUSH0 PUSH2 0x3CDC DUP3 PUSH2 0x3C77 JUMP JUMPDEST PUSH2 0x3CE6 DUP2 DUP6 PUSH2 0x3C81 JUMP JUMPDEST SWAP4 POP PUSH2 0x3CF1 DUP4 PUSH2 0x3C91 JUMP JUMPDEST DUP1 PUSH0 JUMPDEST DUP4 DUP2 LT ISZERO PUSH2 0x3D21 JUMPI DUP2 MLOAD PUSH2 0x3D08 DUP9 DUP3 PUSH2 0x3CAF JUMP JUMPDEST SWAP8 POP PUSH2 0x3D13 DUP4 PUSH2 0x3CC6 JUMP JUMPDEST SWAP3 POP POP PUSH1 0x1 DUP2 ADD SWAP1 POP PUSH2 0x3CF4 JUMP JUMPDEST POP DUP6 SWAP4 POP POP POP POP SWAP3 SWAP2 POP POP JUMP JUMPDEST PUSH0 PUSH1 0x20 DUP3 ADD SWAP1 POP DUP2 DUP2 SUB PUSH0 DUP4 ADD MSTORE PUSH2 0x3D46 DUP2 DUP5 PUSH2 0x3CD2 JUMP JUMPDEST SWAP1 POP SWAP3 SWAP2 POP POP JUMP JUMPDEST PUSH2 0x3D57 DUP2 PUSH2 0x36E1 JUMP JUMPDEST DUP2 EQ PUSH2 0x3D61 JUMPI PUSH0 DUP1 REVERT JUMPDEST POP JUMP JUMPDEST PUSH0 DUP2 CALLDATALOAD SWAP1 POP PUSH2 0x3D72 DUP2 PUSH2 0x3D4E JUMP JUMPDEST SWAP3 SWAP2 POP POP JUMP JUMPDEST PUSH0 DUP1 PUSH1 0x40 DUP4 DUP6 SUB SLT ISZERO PUSH2 0x3D8E JUMPI PUSH2 0x3D8D PUSH2 0x3566 JUMP JUMPDEST JUMPDEST PUSH0 PUSH2 0x3D9B DUP6 DUP3 DUP7 ADD PUSH2 0x35B4 JUMP JUMPDEST SWAP3 POP POP PUSH1 0x20 PUSH2 0x3DAC DUP6 DUP3 DUP7 ADD PUSH2 0x3D64 JUMP JUMPDEST SWAP2 POP POP SWAP3 POP SWAP3 SWAP1 POP JUMP JUMPDEST PUSH0 DUP1 PUSH1 0x40 DUP4 DUP6 SUB SLT ISZERO PUSH2 0x3DCC JUMPI PUSH2 0x3DCB PUSH2 0x3566 JUMP JUMPDEST JUMPDEST PUSH0 PUSH2 0x3DD9 DUP6 DUP3 DUP7 ADD PUSH2 0x35E7 JUMP JUMPDEST SWAP3 POP POP PUSH1 0x20 PUSH2 0x3DEA DUP6 DUP3 DUP7 ADD PUSH2 0x35E7 JUMP JUMPDEST SWAP2 POP POP SWAP3 POP SWAP3 SWAP1 POP JUMP JUMPDEST PUSH0 DUP1 PUSH1 0x40 DUP4 DUP6 SUB SLT ISZERO PUSH2 0x3E0A JUMPI PUSH2 0x3E09 PUSH2 0x3566 JUMP JUMPDEST JUMPDEST PUSH0 PUSH2 0x3E17 DUP6 DUP3 DUP7 ADD PUSH2 0x35B4 JUMP JUMPDEST SWAP3 POP POP PUSH1 0x20 PUSH2 0x3E28 DUP6 DUP3 DUP7 ADD PUSH2 0x35B4 JUMP JUMPDEST SWAP2 POP POP SWAP3 POP SWAP3 SWAP1 POP JUMP JUMPDEST PUSH0 DUP1 PUSH0 DUP1 PUSH0 PUSH1 0xA0 DUP7 DUP9 SUB SLT ISZERO PUSH2 0x3E4B JUMPI PUSH2 0x3E4A PUSH2 0x3566 JUMP JUMPDEST JUMPDEST PUSH0 PUSH2 0x3E58 DUP9 DUP3 DUP10 ADD PUSH2 0x35B4 JUMP JUMPDEST SWAP6 POP POP PUSH1 0x20 PUSH2 0x3E69 DUP9 DUP3 DUP10 ADD PUSH2 0x35B4 JUMP JUMPDEST SWAP5 POP POP PUSH1 0x40 PUSH2 0x3E7A DUP9 DUP3 DUP10 ADD PUSH2 0x35E7 JUMP JUMPDEST SWAP4 POP POP PUSH1 0x60 PUSH2 0x3E8B DUP9 DUP3 DUP10 ADD PUSH2 0x35E7 JUMP JUMPDEST SWAP3 POP POP PUSH1 0x80 DUP7 ADD CALLDATALOAD PUSH8 0xFFFFFFFFFFFFFFFF DUP2 GT ISZERO PUSH2 0x3EAC JUMPI PUSH2 0x3EAB PUSH2 0x356A JUMP JUMPDEST JUMPDEST PUSH2 0x3EB8 DUP9 DUP3 DUP10 ADD PUSH2 0x3A49 JUMP JUMPDEST SWAP2 POP POP SWAP3 SWAP6 POP SWAP3 SWAP6 SWAP1 SWAP4 POP JUMP JUMPDEST PUSH32 0x4E487B7100000000000000000000000000000000000000000000000000000000 PUSH0 MSTORE PUSH1 0x22 PUSH1 0x4 MSTORE PUSH1 0x24 PUSH0 REVERT JUMPDEST PUSH0 PUSH1 0x2 DUP3 DIV SWAP1 POP PUSH1 0x1 DUP3 AND DUP1 PUSH2 0x3F09 JUMPI PUSH1 0x7F DUP3 AND SWAP2 POP JUMPDEST PUSH1 0x20 DUP3 LT DUP2 SUB PUSH2 0x3F1C JUMPI PUSH2 0x3F1B PUSH2 0x3EC5 JUMP JUMPDEST JUMPDEST POP SWAP2 SWAP1 POP JUMP JUMPDEST PUSH32 0x496E76616C696420496E70757400000000000000000000000000000000000000 PUSH0 DUP3 ADD MSTORE POP JUMP JUMPDEST PUSH0 PUSH2 0x3F56 PUSH1 0xD DUP4 PUSH2 0x3749 JUMP JUMPDEST SWAP2 POP PUSH2 0x3F61 DUP3 PUSH2 0x3F22 JUMP JUMPDEST PUSH1 0x20 DUP3 ADD SWAP1 POP SWAP2 SWAP1 POP JUMP JUMPDEST PUSH0 PUSH1 0x20 DUP3 ADD SWAP1 POP DUP2 DUP2 SUB PUSH0 DUP4 ADD MSTORE PUSH2 0x3F83 DUP2 PUSH2 0x3F4A JUMP JUMPDEST SWAP1 POP SWAP2 SWAP1 POP JUMP JUMPDEST PUSH32 0x4E487B7100000000000000000000000000000000000000000000000000000000 PUSH0 MSTORE PUSH1 0x11 PUSH1 0x4 MSTORE PUSH1 0x24 PUSH0 REVERT JUMPDEST PUSH0 PUSH2 0x3FC1 DUP3 PUSH2 0x35C8 JUMP JUMPDEST SWAP2 POP PUSH2 0x3FCC DUP4 PUSH2 0x35C8 JUMP JUMPDEST SWAP3 POP DUP3 DUP3 SUB SWAP1 POP DUP2 DUP2 GT ISZERO PUSH2 0x3FE4 JUMPI PUSH2 0x3FE3 PUSH2 0x3F8A JUMP JUMPDEST JUMPDEST SWAP3 SWAP2 POP POP JUMP JUMPDEST PUSH2 0x3FF3 DUP2 PUSH2 0x358D JUMP JUMPDEST DUP3 MSTORE POP POP JUMP JUMPDEST PUSH0 PUSH1 0x40 DUP3 ADD SWAP1 POP PUSH2 0x400C PUSH0 DUP4 ADD DUP6 PUSH2 0x3FEA JUMP JUMPDEST PUSH2 0x4019 PUSH1 0x20 DUP4 ADD DUP5 PUSH2 0x3FEA JUMP JUMPDEST SWAP4 SWAP3 POP POP POP JUMP JUMPDEST PUSH0 PUSH1 0x40 DUP3 ADD SWAP1 POP PUSH2 0x4033 PUSH0 DUP4 ADD DUP6 PUSH2 0x3639 JUMP JUMPDEST PUSH2 0x4040 PUSH1 0x20 DUP4 ADD DUP5 PUSH2 0x3639 JUMP JUMPDEST SWAP4 SWAP3 POP POP POP JUMP JUMPDEST PUSH32 0x4E487B7100000000000000000000000000000000000000000000000000000000 PUSH0 MSTORE PUSH1 0x32 PUSH1 0x4 MSTORE PUSH1 0x24 PUSH0 REVERT JUMPDEST PUSH0 PUSH2 0x407E DUP3 PUSH2 0x35C8 JUMP JUMPDEST SWAP2 POP PUSH32 0xFFFFFFFFFFFFFFFFFFFFFFFFFFFFFFFFFFFFFFFFFFFFFFFFFFFFFFFFFFFFFFFF DUP3 SUB PUSH2 0x40B0 JUMPI PUSH2 0x40AF PUSH2 0x3F8A JUMP JUMPDEST JUMPDEST PUSH1 0x1 DUP3 ADD SWAP1 POP SWAP2 SWAP1 POP JUMP JUMPDEST PUSH0 PUSH2 0x40C5 DUP3 PUSH2 0x35C8 JUMP JUMPDEST SWAP2 POP PUSH2 0x40D0 DUP4 PUSH2 0x35C8 JUMP JUMPDEST SWAP3 POP DUP3 DUP3 MUL PUSH2 0x40DE DUP2 PUSH2 0x35C8 JUMP JUMPDEST SWAP2 POP DUP3 DUP3 DIV DUP5 EQ DUP4 ISZERO OR PUSH2 0x40F5 JUMPI PUSH2 0x40F4 PUSH2 0x3F8A JUMP JUMPDEST JUMPDEST POP SWAP3 SWAP2 POP POP JUMP JUMPDEST PUSH32 0x4E487B7100000000000000000000000000000000000000000000000000000000 PUSH0 MSTORE PUSH1 0x12 PUSH1 0x4 MSTORE PUSH1 0x24 PUSH0 REVERT JUMPDEST PUSH0 PUSH2 0x4133 DUP3 PUSH2 0x35C8 JUMP JUMPDEST SWAP2 POP PUSH2 0x413E DUP4 PUSH2 0x35C8 JUMP JUMPDEST SWAP3 POP DUP3 PUSH2 0x414E JUMPI PUSH2 0x414D PUSH2 0x40FC JUMP JUMPDEST JUMPDEST DUP3 DUP3 DIV SWAP1 POP SWAP3 SWAP2 POP POP JUMP JUMPDEST PUSH0 PUSH2 0x4163 DUP3 PUSH2 0x35C8 JUMP JUMPDEST SWAP2 POP PUSH2 0x416E DUP4 PUSH2 0x35C8 JUMP JUMPDEST SWAP3 POP DUP3 DUP3 ADD SWAP1 POP DUP1 DUP3 GT ISZERO PUSH2 0x4186 JUMPI PUSH2 0x4185 PUSH2 0x3F8A JUMP JUMPDEST JUMPDEST SWAP3 SWAP2 POP POP JUMP JUMPDEST PUSH32 0x626173654E2065786365656473206D61782076616C75652E0000000000000000 PUSH0 DUP3 ADD MSTORE POP JUMP JUMPDEST PUSH0 PUSH2 0x41C0 PUSH1 0x18 DUP4 PUSH2 0x3749 JUMP JUMPDEST SWAP2 POP PUSH2 0x41CB DUP3 PUSH2 0x418C JUMP JUMPDEST PUSH1 0x20 DUP3 ADD SWAP1 POP SWAP2 SWAP1 POP JUMP JUMPDEST PUSH0 PUSH1 0x20 DUP3 ADD SWAP1 POP DUP2 DUP2 SUB PUSH0 DUP4 ADD MSTORE PUSH2 0x41ED DUP2 PUSH2 0x41B4 JUMP JUMPDEST SWAP1 POP SWAP2 SWAP1 POP JUMP JUMPDEST PUSH32 0x4261736573203C203120617265206E6F7420737570706F727465642E00000000 PUSH0 DUP3 ADD MSTORE POP JUMP JUMPDEST PUSH0 PUSH2 0x4228 PUSH1 0x1C DUP4 PUSH2 0x3749 JUMP JUMPDEST SWAP2 POP PUSH2 0x4233 DUP3 PUSH2 0x41F4 JUMP JUMPDEST PUSH1 0x20 DUP3 ADD SWAP1 POP SWAP2 SWAP1 POP JUMP JUMPDEST PUSH0 PUSH1 0x20 DUP3 ADD SWAP1 POP DUP2 DUP2 SUB PUSH0 DUP4 ADD MSTORE PUSH2 0x4255 DUP2 PUSH2 0x421C JUMP JUMPDEST SWAP1 POP SWAP2 SWAP1 POP JUMP JUMPDEST PUSH0 PUSH1 0xFF DUP3 AND SWAP1 POP SWAP2 SWAP1 POP JUMP JUMPDEST PUSH0 PUSH2 0x4272 DUP3 PUSH2 0x425C JUMP JUMPDEST SWAP2 POP PUSH2 0x427D DUP4 PUSH2 0x425C JUMP JUMPDEST SWAP3 POP DUP3 DUP3 SUB SWAP1 POP PUSH1 0xFF DUP2 GT ISZERO PUSH2 0x4296 JUMPI PUSH2 0x4295 PUSH2 0x3F8A JUMP JUMPDEST JUMPDEST SWAP3 SWAP2 POP POP JUMP JUMPDEST PUSH0 PUSH1 0x20 DUP3 ADD SWAP1 POP PUSH2 0x42AF PUSH0 DUP4 ADD DUP5 PUSH2 0x3FEA JUMP JUMPDEST SWAP3 SWAP2 POP POP JUMP JUMPDEST PUSH0 PUSH2 0x42BF DUP3 PUSH2 0x425C JUMP JUMPDEST SWAP2 POP PUSH0 DUP3 SUB PUSH2 0x42D1 JUMPI PUSH2 0x42D0 PUSH2 0x3F8A JUMP JUMPDEST JUMPDEST PUSH1 0x1 DUP3 SUB SWAP1 POP SWAP2 SWAP1 POP JUMP JUMPDEST PUSH0 PUSH2 0x42E6 DUP3 PUSH2 0x35C8 JUMP JUMPDEST SWAP2 POP PUSH2 0x42F1 DUP4 PUSH2 0x35C8 JUMP JUMPDEST SWAP3 POP DUP3 PUSH2 0x4301 JUMPI PUSH2 0x4300 PUSH2 0x40FC JUMP JUMPDEST JUMPDEST DUP3 DUP3 MOD SWAP1 POP SWAP3 SWAP2 POP POP JUMP JUMPDEST PUSH0 PUSH2 0x4316 DUP3 PUSH2 0x425C JUMP JUMPDEST SWAP2 POP PUSH2 0x4321 DUP4 PUSH2 0x425C JUMP JUMPDEST SWAP3 POP DUP3 DUP3 ADD SWAP1 POP PUSH1 0xFF DUP2 GT ISZERO PUSH2 0x433A JUMPI PUSH2 0x4339 PUSH2 0x3F8A JUMP JUMPDEST JUMPDEST SWAP3 SWAP2 POP POP JUMP JUMPDEST PUSH0 PUSH2 0x434A DUP3 PUSH2 0x425C JUMP JUMPDEST SWAP2 POP PUSH2 0x4355 DUP4 PUSH2 0x425C JUMP JUMPDEST SWAP3 POP DUP3 PUSH2 0x4365 JUMPI PUSH2 0x4364 PUSH2 0x40FC JUMP JUMPDEST JUMPDEST DUP3 DUP3 DIV SWAP1 POP SWAP3 SWAP2 POP POP JUMP JUMPDEST PUSH32 0x4E487B7100000000000000000000000000000000000000000000000000000000 PUSH0 MSTORE PUSH1 0x1 PUSH1 0x4 MSTORE PUSH1 0x24 PUSH0 REVERT JUMPDEST PUSH0 DUP2 MLOAD SWAP1 POP SWAP2 SWAP1 POP JUMP JUMPDEST PUSH0 DUP3 DUP3 MSTORE PUSH1 0x20 DUP3 ADD SWAP1 POP SWAP3 SWAP2 POP POP JUMP JUMPDEST PUSH0 PUSH2 0x43C1 DUP3 PUSH2 0x439D JUMP JUMPDEST PUSH2 0x43CB DUP2 DUP6 PUSH2 0x43A7 JUMP JUMPDEST SWAP4 POP PUSH2 0x43DB DUP2 DUP6 PUSH1 0x20 DUP7 ADD PUSH2 0x3759 JUMP JUMPDEST PUSH2 0x43E4 DUP2 PUSH2 0x3781 JUMP JUMPDEST DUP5 ADD SWAP2 POP POP SWAP3 SWAP2 POP POP JUMP JUMPDEST PUSH0 PUSH1 0xA0 DUP3 ADD SWAP1 POP PUSH2 0x4402 PUSH0 DUP4 ADD DUP9 PUSH2 0x3FEA JUMP JUMPDEST PUSH2 0x440F PUSH1 0x20 DUP4 ADD DUP8 PUSH2 0x3FEA JUMP JUMPDEST PUSH2 0x441C PUSH1 0x40 DUP4 ADD DUP7 PUSH2 0x3639 JUMP JUMPDEST PUSH2 0x4429 PUSH1 0x60 DUP4 ADD DUP6 PUSH2 0x3639 JUMP JUMPDEST DUP2 DUP2 SUB PUSH1 0x80 DUP4 ADD MSTORE PUSH2 0x443B DUP2 DUP5 PUSH2 0x43B7 JUMP JUMPDEST SWAP1 POP SWAP7 SWAP6 POP POP POP POP POP POP JUMP JUMPDEST PUSH0 DUP2 MLOAD SWAP1 POP PUSH2 0x4455 DUP2 PUSH2 0x368C JUMP JUMPDEST SWAP3 SWAP2 POP POP JUMP JUMPDEST PUSH0 PUSH1 0x20 DUP3 DUP5 SUB SLT ISZERO PUSH2 0x4470 JUMPI PUSH2 0x446F PUSH2 0x3566 JUMP JUMPDEST JUMPDEST PUSH0 PUSH2 0x447D DUP5 DUP3 DUP6 ADD PUSH2 0x4447 JUMP JUMPDEST SWAP2 POP POP SWAP3 SWAP2 POP POP JUMP JUMPDEST PUSH0 PUSH1 0xA0 DUP3 ADD SWAP1 POP PUSH2 0x4499 PUSH0 DUP4 ADD DUP9 PUSH2 0x3FEA JUMP JUMPDEST PUSH2 0x44A6 PUSH1 0x20 DUP4 ADD DUP8 PUSH2 0x3FEA JUMP JUMPDEST DUP2 DUP2 SUB PUSH1 0x40 DUP4 ADD MSTORE PUSH2 0x44B8 DUP2 DUP7 PUSH2 0x3CD2 JUMP JUMPDEST SWAP1 POP DUP2 DUP2 SUB PUSH1 0x60 DUP4 ADD MSTORE PUSH2 0x44CC DUP2 DUP6 PUSH2 0x3CD2 JUMP JUMPDEST SWAP1 POP DUP2 DUP2 SUB PUSH1 0x80 DUP4 ADD MSTORE PUSH2 0x44E0 DUP2 DUP5 PUSH2 0x43B7 JUMP JUMPDEST SWAP1 POP SWAP7 SWAP6 POP POP POP POP POP POP JUMP JUMPDEST PUSH0 PUSH1 0x80 DUP3 ADD SWAP1 POP PUSH2 0x44FF PUSH0 DUP4 ADD DUP8 PUSH2 0x3FEA JUMP JUMPDEST PUSH2 0x450C PUSH1 0x20 DUP4 ADD DUP7 PUSH2 0x3639 JUMP JUMPDEST PUSH2 0x4519 PUSH1 0x40 DUP4 ADD DUP6 PUSH2 0x3639 JUMP JUMPDEST PUSH2 0x4526 PUSH1 0x60 DUP4 ADD DUP5 PUSH2 0x3639 JUMP JUMPDEST SWAP6 SWAP5 POP POP POP POP POP JUMP JUMPDEST PUSH0 PUSH1 0x40 DUP3 ADD SWAP1 POP DUP2 DUP2 SUB PUSH0 DUP4 ADD MSTORE PUSH2 0x4547 DUP2 DUP6 PUSH2 0x3CD2 JUMP JUMPDEST SWAP1 POP DUP2 DUP2 SUB PUSH1 0x20 DUP4 ADD MSTORE PUSH2 0x455B DUP2 DUP5 PUSH2 0x3CD2 JUMP JUMPDEST SWAP1 POP SWAP4 SWAP3 POP POP POP JUMP INVALID LOG2 PUSH5 0x6970667358 0x22 SLT KECCAK256 0x4D LOG4 0x2B 0x4E PUSH17 0xFD6F45B477E55C8BE678E75BE0844F1C18 0x27 PC 0xC6 SWAP3 CALLCODE 0xD1 0xEA SELFBALANCE SWAP3 0xDA PUSH5 0x736F6C6343 STOP ADDMOD EQ STOP CALLER "
		},
		"gasEstimates": {
			"creation": {
				"codeDepositCost": "3563600",
				"executionCost": "infinite",
				"totalCost": "infinite"
			},
			"external": {
				"SCALE()": "391",
				"balanceOf(address,uint256)": "infinite",
				"balanceOfBatch(address[],uint256[])": "infinite",
				"calculateCurvedBurnReturn(uint256,uint256)": "infinite",
				"calculateCurvedMintReturn(uint256,uint256)": "infinite",
				"calculatePurchaseReturn(uint256,uint256,uint32,uint256)": "infinite",
				"calculateSaleReturn(uint256,uint256,uint32,uint256)": "infinite",
				"exists(uint256)": "2868",
				"isApprovedForAll(address,address)": "infinite",
				"reserveBalance(uint256)": "infinite",
				"reserveRatio()": "2493",
				"safeBatchTransferFrom(address,address,uint256[],uint256[],bytes)": "infinite",
				"safeTransferFrom(address,address,uint256,uint256,bytes)": "infinite",
				"setApprovalForAll(address,bool)": "infinite",
				"supportsInterface(bytes4)": "809",
				"totalSupply()": "2477",
				"totalSupply(uint256)": "infinite",
				"uri(uint256)": "infinite",
				"version()": "infinite"
			},
			"internal": {
				"_curvedBurn(uint256,uint256)": "infinite",
				"_curvedMint(uint256,uint256)": "infinite"
			}
		},
		"methodIdentifiers": {
			"SCALE()": "eced5526",
			"balanceOf(address,uint256)": "00fdd58e",
			"balanceOfBatch(address[],uint256[])": "4e1273f4",
			"calculateCurvedBurnReturn(uint256,uint256)": "ee37778d",
			"calculateCurvedMintReturn(uint256,uint256)": "a3111abd",
			"calculatePurchaseReturn(uint256,uint256,uint32,uint256)": "29a00e7c",
			"calculateSaleReturn(uint256,uint256,uint32,uint256)": "49f9b0f7",
			"exists(uint256)": "4f558e79",
			"isApprovedForAll(address,address)": "e985e9c5",
			"reserveBalance(uint256)": "14269687",
			"reserveRatio()": "0c7d5cd8",
			"safeBatchTransferFrom(address,address,uint256[],uint256[],bytes)": "2eb2c2d6",
			"safeTransferFrom(address,address,uint256,uint256,bytes)": "f242432a",
			"setApprovalForAll(address,bool)": "a22cb465",
			"supportsInterface(bytes4)": "01ffc9a7",
			"totalSupply()": "18160ddd",
			"totalSupply(uint256)": "bd85b039",
			"uri(uint256)": "0e89341c",
			"version()": "54fd4d50"
		}
	},
	"abi": [
		{
			"inputs": [
				{
					"internalType": "uint256",
					"name": "_reserveRatio",
					"type": "uint256"
				}
			],
			"stateMutability": "nonpayable",
			"type": "constructor"
		},
		{
			"inputs": [
				{
					"internalType": "address",
					"name": "sender",
					"type": "address"
				},
				{
					"internalType": "uint256",
					"name": "balance",
					"type": "uint256"
				},
				{
					"internalType": "uint256",
					"name": "needed",
					"type": "uint256"
				},
				{
					"internalType": "uint256",
					"name": "tokenId",
					"type": "uint256"
				}
			],
			"name": "ERC1155InsufficientBalance",
			"type": "error"
		},
		{
			"inputs": [
				{
					"internalType": "address",
					"name": "approver",
					"type": "address"
				}
			],
			"name": "ERC1155InvalidApprover",
			"type": "error"
		},
		{
			"inputs": [
				{
					"internalType": "uint256",
					"name": "idsLength",
					"type": "uint256"
				},
				{
					"internalType": "uint256",
					"name": "valuesLength",
					"type": "uint256"
				}
			],
			"name": "ERC1155InvalidArrayLength",
			"type": "error"
		},
		{
			"inputs": [
				{
					"internalType": "address",
					"name": "operator",
					"type": "address"
				}
			],
			"name": "ERC1155InvalidOperator",
			"type": "error"
		},
		{
			"inputs": [
				{
					"internalType": "address",
					"name": "receiver",
					"type": "address"
				}
			],
			"name": "ERC1155InvalidReceiver",
			"type": "error"
		},
		{
			"inputs": [
				{
					"internalType": "address",
					"name": "sender",
					"type": "address"
				}
			],
			"name": "ERC1155InvalidSender",
			"type": "error"
		},
		{
			"inputs": [
				{
					"internalType": "address",
					"name": "operator",
					"type": "address"
				},
				{
					"internalType": "address",
					"name": "owner",
					"type": "address"
				}
			],
			"name": "ERC1155MissingApprovalForAll",
			"type": "error"
		},
		{
			"anonymous": false,
			"inputs": [
				{
					"indexed": true,
					"internalType": "address",
					"name": "account",
					"type": "address"
				},
				{
					"indexed": true,
					"internalType": "address",
					"name": "operator",
					"type": "address"
				},
				{
					"indexed": false,
					"internalType": "bool",
					"name": "approved",
					"type": "bool"
				}
			],
			"name": "ApprovalForAll",
			"type": "event"
		},
		{
			"anonymous": false,
			"inputs": [
				{
					"indexed": false,
					"internalType": "address",
					"name": "account",
					"type": "address"
				},
				{
					"indexed": false,
					"internalType": "uint256",
					"name": "burned",
					"type": "uint256"
				},
				{
					"indexed": false,
					"internalType": "uint256",
					"name": "received",
					"type": "uint256"
				}
			],
			"name": "CurvedBurn",
			"type": "event"
		},
		{
			"anonymous": false,
			"inputs": [
				{
					"indexed": false,
					"internalType": "address",
					"name": "account",
					"type": "address"
				},
				{
					"indexed": false,
					"internalType": "uint256",
					"name": "received",
					"type": "uint256"
				},
				{
					"indexed": false,
					"internalType": "uint256",
					"name": "deposit",
					"type": "uint256"
				}
			],
			"name": "CurvedMint",
			"type": "event"
		},
		{
			"anonymous": false,
			"inputs": [
				{
					"indexed": true,
					"internalType": "address",
					"name": "operator",
					"type": "address"
				},
				{
					"indexed": true,
					"internalType": "address",
					"name": "from",
					"type": "address"
				},
				{
					"indexed": true,
					"internalType": "address",
					"name": "to",
					"type": "address"
				},
				{
					"indexed": false,
					"internalType": "uint256[]",
					"name": "ids",
					"type": "uint256[]"
				},
				{
					"indexed": false,
					"internalType": "uint256[]",
					"name": "values",
					"type": "uint256[]"
				}
			],
			"name": "TransferBatch",
			"type": "event"
		},
		{
			"anonymous": false,
			"inputs": [
				{
					"indexed": true,
					"internalType": "address",
					"name": "operator",
					"type": "address"
				},
				{
					"indexed": true,
					"internalType": "address",
					"name": "from",
					"type": "address"
				},
				{
					"indexed": true,
					"internalType": "address",
					"name": "to",
					"type": "address"
				},
				{
					"indexed": false,
					"internalType": "uint256",
					"name": "id",
					"type": "uint256"
				},
				{
					"indexed": false,
					"internalType": "uint256",
					"name": "value",
					"type": "uint256"
				}
			],
			"name": "TransferSingle",
			"type": "event"
		},
		{
			"anonymous": false,
			"inputs": [
				{
					"indexed": false,
					"internalType": "string",
					"name": "value",
					"type": "string"
				},
				{
					"indexed": true,
					"internalType": "uint256",
					"name": "id",
					"type": "uint256"
				}
			],
			"name": "URI",
			"type": "event"
		},
		{
			"inputs": [],
			"name": "SCALE",
			"outputs": [
				{
					"internalType": "uint256",
					"name": "",
					"type": "uint256"
				}
			],
			"stateMutability": "view",
			"type": "function"
		},
		{
			"inputs": [
				{
					"internalType": "address",
					"name": "account",
					"type": "address"
				},
				{
					"internalType": "uint256",
					"name": "id",
					"type": "uint256"
				}
			],
			"name": "balanceOf",
			"outputs": [
				{
					"internalType": "uint256",
					"name": "",
					"type": "uint256"
				}
			],
			"stateMutability": "view",
			"type": "function"
		},
		{
			"inputs": [
				{
					"internalType": "address[]",
					"name": "accounts",
					"type": "address[]"
				},
				{
					"internalType": "uint256[]",
					"name": "ids",
					"type": "uint256[]"
				}
			],
			"name": "balanceOfBatch",
			"outputs": [
				{
					"internalType": "uint256[]",
					"name": "",
					"type": "uint256[]"
				}
			],
			"stateMutability": "view",
			"type": "function"
		},
		{
			"inputs": [
				{
					"internalType": "uint256",
					"name": "_id",
					"type": "uint256"
				},
				{
					"internalType": "uint256",
					"name": "_amount",
					"type": "uint256"
				}
			],
			"name": "calculateCurvedBurnReturn",
			"outputs": [
				{
					"internalType": "uint256",
					"name": "burnAmount",
					"type": "uint256"
				}
			],
			"stateMutability": "view",
			"type": "function"
		},
		{
			"inputs": [
				{
					"internalType": "uint256",
					"name": "_id",
					"type": "uint256"
				},
				{
					"internalType": "uint256",
					"name": "_amount",
					"type": "uint256"
				}
			],
			"name": "calculateCurvedMintReturn",
			"outputs": [
				{
					"internalType": "uint256",
					"name": "mintAmount",
					"type": "uint256"
				}
			],
			"stateMutability": "view",
			"type": "function"
		},
		{
			"inputs": [
				{
					"internalType": "uint256",
					"name": "_supply",
					"type": "uint256"
				},
				{
					"internalType": "uint256",
					"name": "_reserveBalance",
					"type": "uint256"
				},
				{
					"internalType": "uint32",
					"name": "_reserveRatio",
					"type": "uint32"
				},
				{
					"internalType": "uint256",
					"name": "_depositAmount",
					"type": "uint256"
				}
			],
			"name": "calculatePurchaseReturn",
			"outputs": [
				{
					"internalType": "uint256",
					"name": "",
					"type": "uint256"
				}
			],
			"stateMutability": "view",
			"type": "function"
		},
		{
			"inputs": [
				{
					"internalType": "uint256",
					"name": "_supply",
					"type": "uint256"
				},
				{
					"internalType": "uint256",
					"name": "_reserveBalance",
					"type": "uint256"
				},
				{
					"internalType": "uint32",
					"name": "_reserveRatio",
					"type": "uint32"
				},
				{
					"internalType": "uint256",
					"name": "_sellAmount",
					"type": "uint256"
				}
			],
			"name": "calculateSaleReturn",
			"outputs": [
				{
					"internalType": "uint256",
					"name": "",
					"type": "uint256"
				}
			],
			"stateMutability": "view",
			"type": "function"
		},
		{
			"inputs": [
				{
					"internalType": "uint256",
					"name": "id",
					"type": "uint256"
				}
			],
			"name": "exists",
			"outputs": [
				{
					"internalType": "bool",
					"name": "",
					"type": "bool"
				}
			],
			"stateMutability": "view",
			"type": "function"
		},
		{
			"inputs": [
				{
					"internalType": "address",
					"name": "account",
					"type": "address"
				},
				{
					"internalType": "address",
					"name": "operator",
					"type": "address"
				}
			],
			"name": "isApprovedForAll",
			"outputs": [
				{
					"internalType": "bool",
					"name": "",
					"type": "bool"
				}
			],
			"stateMutability": "view",
			"type": "function"
		},
		{
			"inputs": [
				{
					"internalType": "uint256",
					"name": "",
					"type": "uint256"
				}
			],
			"name": "reserveBalance",
			"outputs": [
				{
					"internalType": "uint256",
					"name": "",
					"type": "uint256"
				}
			],
			"stateMutability": "view",
			"type": "function"
		},
		{
			"inputs": [],
			"name": "reserveRatio",
			"outputs": [
				{
					"internalType": "uint256",
					"name": "",
					"type": "uint256"
				}
			],
			"stateMutability": "view",
			"type": "function"
		},
		{
			"inputs": [
				{
					"internalType": "address",
					"name": "from",
					"type": "address"
				},
				{
					"internalType": "address",
					"name": "to",
					"type": "address"
				},
				{
					"internalType": "uint256[]",
					"name": "ids",
					"type": "uint256[]"
				},
				{
					"internalType": "uint256[]",
					"name": "values",
					"type": "uint256[]"
				},
				{
					"internalType": "bytes",
					"name": "data",
					"type": "bytes"
				}
			],
			"name": "safeBatchTransferFrom",
			"outputs": [],
			"stateMutability": "nonpayable",
			"type": "function"
		},
		{
			"inputs": [
				{
					"internalType": "address",
					"name": "from",
					"type": "address"
				},
				{
					"internalType": "address",
					"name": "to",
					"type": "address"
				},
				{
					"internalType": "uint256",
					"name": "id",
					"type": "uint256"
				},
				{
					"internalType": "uint256",
					"name": "value",
					"type": "uint256"
				},
				{
					"internalType": "bytes",
					"name": "data",
					"type": "bytes"
				}
			],
			"name": "safeTransferFrom",
			"outputs": [],
			"stateMutability": "nonpayable",
			"type": "function"
		},
		{
			"inputs": [
				{
					"internalType": "address",
					"name": "operator",
					"type": "address"
				},
				{
					"internalType": "bool",
					"name": "approved",
					"type": "bool"
				}
			],
			"name": "setApprovalForAll",
			"outputs": [],
			"stateMutability": "nonpayable",
			"type": "function"
		},
		{
			"inputs": [
				{
					"internalType": "bytes4",
					"name": "interfaceId",
					"type": "bytes4"
				}
			],
			"name": "supportsInterface",
			"outputs": [
				{
					"internalType": "bool",
					"name": "",
					"type": "bool"
				}
			],
			"stateMutability": "view",
			"type": "function"
		},
		{
			"inputs": [],
			"name": "totalSupply",
			"outputs": [
				{
					"internalType": "uint256",
					"name": "",
					"type": "uint256"
				}
			],
			"stateMutability": "view",
			"type": "function"
		},
		{
			"inputs": [
				{
					"internalType": "uint256",
					"name": "id",
					"type": "uint256"
				}
			],
			"name": "totalSupply",
			"outputs": [
				{
					"internalType": "uint256",
					"name": "",
					"type": "uint256"
				}
			],
			"stateMutability": "view",
			"type": "function"
		},
		{
			"inputs": [
				{
					"internalType": "uint256",
					"name": "",
					"type": "uint256"
				}
			],
			"name": "uri",
			"outputs": [
				{
					"internalType": "string",
					"name": "",
					"type": "string"
				}
			],
			"stateMutability": "view",
			"type": "function"
		},
		{
			"inputs": [],
			"name": "version",
			"outputs": [
				{
					"internalType": "string",
					"name": "",
					"type": "string"
				}
			],
			"stateMutability": "view",
			"type": "function"
		}
	]
}