{
	"contracts/CelebStarRewards.sol": {
		"CelebStarRewards": {
			"abi": [
				{
					"inputs": [
						{
							"internalType": "address",
							"name": "_oracleClientAddress",
							"type": "address"
						}
					],
					"stateMutability": "nonpayable",
					"type": "constructor"
				},
				{
					"inputs": [
						{
							"internalType": "address",
							"name": "owner",
							"type": "address"
						}
					],
					"name": "OwnableInvalidOwner",
					"type": "error"
				},
				{
					"inputs": [
						{
							"internalType": "address",
							"name": "account",
							"type": "address"
						}
					],
					"name": "OwnableUnauthorizedAccount",
					"type": "error"
				},
				{
					"anonymous": false,
					"inputs": [
						{
							"indexed": false,
							"internalType": "address",
							"name": "account",
							"type": "address"
						},
						{
							"indexed": false,
							"internalType": "uint256",
							"name": "celebId",
							"type": "uint256"
						},
						{
							"indexed": false,
							"internalType": "uint256",
							"name": "rewardAmount",
							"type": "uint256"
						}
					],
					"name": "FirstTimeRewardClaimed",
					"type": "event"
				},
				{
					"anonymous": false,
					"inputs": [
						{
							"indexed": true,
							"internalType": "address",
							"name": "previousOwner",
							"type": "address"
						},
						{
							"indexed": true,
							"internalType": "address",
							"name": "newOwner",
							"type": "address"
						}
					],
					"name": "OwnershipTransferred",
					"type": "event"
				},
				{
					"anonymous": false,
					"inputs": [
						{
							"indexed": false,
							"internalType": "address",
							"name": "account",
							"type": "address"
						},
						{
							"indexed": false,
							"internalType": "uint256",
							"name": "rewardId",
							"type": "uint256"
						},
						{
							"indexed": false,
							"internalType": "uint256",
							"name": "amount",
							"type": "uint256"
						}
					],
					"name": "RewardClaimed",
					"type": "event"
				},
				{
					"anonymous": false,
					"inputs": [
						{
							"indexed": false,
							"internalType": "uint256",
							"name": "rewardId",
							"type": "uint256"
						},
						{
							"indexed": false,
							"internalType": "bytes32",
							"name": "requestId",
							"type": "bytes32"
						}
					],
					"name": "RewardDataRequested",
					"type": "event"
				},
				{
					"anonymous": false,
					"inputs": [
						{
							"indexed": false,
							"internalType": "address",
							"name": "account",
							"type": "address"
						},
						{
							"indexed": false,
							"internalType": "uint256",
							"name": "fundAmount",
							"type": "uint256"
						}
					],
					"name": "RewardFundCredited",
					"type": "event"
				},
				{
					"anonymous": false,
					"inputs": [
						{
							"indexed": false,
							"internalType": "uint256",
							"name": "id",
							"type": "uint256"
						},
						{
							"indexed": false,
							"internalType": "uint256",
							"name": "start",
							"type": "uint256"
						},
						{
							"indexed": false,
							"internalType": "uint256",
							"name": "end",
							"type": "uint256"
						},
						{
							"indexed": false,
							"internalType": "uint256",
							"name": "totalRewardAmount",
							"type": "uint256"
						}
					],
					"name": "RewardScheduled",
					"type": "event"
				},
				{
					"inputs": [
						{
							"internalType": "address",
							"name": "",
							"type": "address"
						}
					],
					"name": "accountFirstTimeReward",
					"outputs": [
						{
							"internalType": "uint256",
							"name": "celebId",
							"type": "uint256"
						},
						{
							"internalType": "uint256",
							"name": "rewardAmount",
							"type": "uint256"
						},
						{
							"internalType": "bool",
							"name": "claimed",
							"type": "bool"
						}
					],
					"stateMutability": "view",
					"type": "function"
				},
				{
					"inputs": [],
					"name": "availableRewardFunds",
					"outputs": [
						{
							"internalType": "uint256",
							"name": "",
							"type": "uint256"
						}
					],
					"stateMutability": "view",
					"type": "function"
				},
				{
					"inputs": [
						{
							"internalType": "uint256",
							"name": "_depositAmount",
							"type": "uint256"
						}
					],
					"name": "calculateFirstTimeRewardAmount",
					"outputs": [
						{
							"internalType": "uint256",
							"name": "",
							"type": "uint256"
						}
					],
					"stateMutability": "view",
					"type": "function"
				},
				{
					"inputs": [
						{
							"internalType": "uint256",
							"name": "_rewardId",
							"type": "uint256"
						},
						{
							"internalType": "uint256",
							"name": "_accountBalance",
							"type": "uint256"
						}
					],
					"name": "calculateRewardAmount",
					"outputs": [
						{
							"internalType": "uint256",
							"name": "",
							"type": "uint256"
						}
					],
					"stateMutability": "view",
					"type": "function"
				},
				{
					"inputs": [
						{
							"internalType": "address",
							"name": "",
							"type": "address"
						}
					],
					"name": "claimed",
					"outputs": [
						{
							"internalType": "uint256",
							"name": "",
							"type": "uint256"
						}
					],
					"stateMutability": "view",
					"type": "function"
				},
				{
					"inputs": [],
					"name": "firstTimeRewardPercentage",
					"outputs": [
						{
							"internalType": "uint256",
							"name": "",
							"type": "uint256"
						}
					],
					"stateMutability": "view",
					"type": "function"
				},
				{
					"inputs": [],
					"name": "getActiveRewardId",
					"outputs": [
						{
							"internalType": "uint256",
							"name": "rewardId",
							"type": "uint256"
						}
					],
					"stateMutability": "view",
					"type": "function"
				},
				{
					"inputs": [
						{
							"internalType": "uint256",
							"name": "_rewardId",
							"type": "uint256"
						}
					],
					"name": "getCelebIdToBeRewarded",
					"outputs": [
						{
							"internalType": "bool",
							"name": "celebIdFetched",
							"type": "bool"
						},
						{
							"internalType": "uint256",
							"name": "celebId",
							"type": "uint256"
						}
					],
					"stateMutability": "nonpayable",
					"type": "function"
				},
				{
					"inputs": [
						{
							"internalType": "address",
							"name": "_account",
							"type": "address"
						}
					],
					"name": "getFirstTimeRewardAmount",
					"outputs": [
						{
							"internalType": "uint256",
							"name": "",
							"type": "uint256"
						}
					],
					"stateMutability": "view",
					"type": "function"
				},
				{
					"inputs": [
						{
							"internalType": "address",
							"name": "_account",
							"type": "address"
						}
					],
					"name": "hasMintedAtleastOnce",
					"outputs": [
						{
							"internalType": "bool",
							"name": "",
							"type": "bool"
						}
					],
					"stateMutability": "view",
					"type": "function"
				},
				{
					"inputs": [
						{
							"internalType": "address",
							"name": "_account",
							"type": "address"
						}
					],
					"name": "isFirstTimeMinter",
					"outputs": [
						{
							"internalType": "bool",
							"name": "",
							"type": "bool"
						}
					],
					"stateMutability": "view",
					"type": "function"
				},
				{
					"inputs": [
						{
							"internalType": "address",
							"name": "_account",
							"type": "address"
						}
					],
					"name": "isFirstTimeRewardClaimed",
					"outputs": [
						{
							"internalType": "bool",
							"name": "",
							"type": "bool"
						}
					],
					"stateMutability": "view",
					"type": "function"
				},
				{
					"inputs": [],
					"name": "isRewardActive",
					"outputs": [
						{
							"internalType": "bool",
							"name": "",
							"type": "bool"
						}
					],
					"stateMutability": "view",
					"type": "function"
				},
				{
					"inputs": [
						{
							"internalType": "address",
							"name": "_account",
							"type": "address"
						},
						{
							"internalType": "uint256",
							"name": "_rewardId",
							"type": "uint256"
						}
					],
					"name": "isRewardClaimed",
					"outputs": [
						{
							"internalType": "bool",
							"name": "",
							"type": "bool"
						}
					],
					"stateMutability": "view",
					"type": "function"
				},
				{
					"inputs": [],
					"name": "isRewardScheduled",
					"outputs": [
						{
							"internalType": "bool",
							"name": "",
							"type": "bool"
						}
					],
					"stateMutability": "view",
					"type": "function"
				},
				{
					"inputs": [],
					"name": "nextRewardId",
					"outputs": [
						{
							"internalType": "uint256",
							"name": "",
							"type": "uint256"
						}
					],
					"stateMutability": "view",
					"type": "function"
				},
				{
					"inputs": [],
					"name": "owner",
					"outputs": [
						{
							"internalType": "address",
							"name": "",
							"type": "address"
						}
					],
					"stateMutability": "view",
					"type": "function"
				},
				{
					"inputs": [],
					"name": "renounceOwnership",
					"outputs": [],
					"stateMutability": "nonpayable",
					"type": "function"
				},
				{
					"inputs": [
						{
							"internalType": "uint256",
							"name": "",
							"type": "uint256"
						}
					],
					"name": "rewards",
					"outputs": [
						{
							"internalType": "uint256",
							"name": "id",
							"type": "uint256"
						},
						{
							"internalType": "uint256",
							"name": "start",
							"type": "uint256"
						},
						{
							"internalType": "uint256",
							"name": "end",
							"type": "uint256"
						},
						{
							"internalType": "uint256",
							"name": "totalRewardAmount",
							"type": "uint256"
						},
						{
							"internalType": "uint256",
							"name": "celebId",
							"type": "uint256"
						},
						{
							"internalType": "uint256",
							"name": "totalRewardTokenSupply",
							"type": "uint256"
						},
						{
							"internalType": "bool",
							"name": "celebIdFetched",
							"type": "bool"
						}
					],
					"stateMutability": "view",
					"type": "function"
				},
				{
					"inputs": [
						{
							"internalType": "address",
							"name": "newOwner",
							"type": "address"
						}
					],
					"name": "transferOwnership",
					"outputs": [],
					"stateMutability": "nonpayable",
					"type": "function"
				},
				{
					"inputs": [
						{
							"internalType": "uint256",
							"name": "percent",
							"type": "uint256"
						}
					],
					"name": "updateFirstTimeRewardPercentage",
					"outputs": [],
					"stateMutability": "nonpayable",
					"type": "function"
				}
			],
			"devdoc": {
				"errors": {
					"OwnableInvalidOwner(address)": [
						{
							"details": "The owner is not a valid owner account. (eg. `address(0)`)"
						}
					],
					"OwnableUnauthorizedAccount(address)": [
						{
							"details": "The caller account is not authorized to perform an operation."
						}
					]
				},
				"kind": "dev",
				"methods": {
					"owner()": {
						"details": "Returns the address of the current owner."
					},
					"renounceOwnership()": {
						"details": "Leaves the contract without owner. It will not be possible to call `onlyOwner` functions. Can only be called by the current owner. NOTE: Renouncing ownership will leave the contract without an owner, thereby disabling any functionality that is only available to the owner."
					},
					"transferOwnership(address)": {
						"details": "Transfers ownership of the contract to a new account (`newOwner`). Can only be called by the current owner."
					}
				},
				"version": 1
			},
			"evm": {
				"assembly": "    /* \"contracts/CelebStarRewards.sol\":355:7368  contract CelebStarRewards is Ownable(msg.sender) {... */\n  mstore(0x40, 0x80)\n    /* \"contracts/CelebStarRewards.sol\":472:473  1 */\n  0x01\n    /* \"contracts/CelebStarRewards.sol\":442:473  uint256 public nextRewardId = 1 */\n  dup1\n  sstore\n    /* \"contracts/CelebStarRewards.sol\":517:518  0 */\n  0x00\n    /* \"contracts/CelebStarRewards.sol\":479:518  uint256 public availableRewardFunds = 0 */\n  0x02\n  sstore\n    /* \"contracts/CelebStarRewards.sol\":567:571  5000 */\n  0x1388\n    /* \"contracts/CelebStarRewards.sol\":524:571  uint256 public firstTimeRewardPercentage = 5000 */\n  0x03\n  sstore\n    /* \"contracts/CelebStarRewards.sol\":1683:1792  constructor(address _oracleClientAddress) {... */\n  callvalue\n  dup1\n  iszero\n  tag_1\n  jumpi\n  0x00\n  dup1\n  revert\ntag_1:\n  pop\n  mload(0x40)\n  sub(codesize, bytecodeSize)\n  dup1\n  bytecodeSize\n  dup4\n  codecopy\n  dup2\n  dup2\n  add\n  0x40\n  mstore\n  dup2\n  add\n  swap1\n  tag_2\n  swap2\n  swap1\n  tag_3\n  jump\t// in\ntag_2:\n    /* \"contracts/CelebStarRewards.sol\":392:402  msg.sender */\n  caller\n    /* \"@openzeppelin/contracts/access/Ownable.sol\":1297:1298  0 */\n  0x00\n    /* \"@openzeppelin/contracts/access/Ownable.sol\":1273:1299  initialOwner == address(0) */\n  0xffffffffffffffffffffffffffffffffffffffff\n  and\n    /* \"@openzeppelin/contracts/access/Ownable.sol\":1273:1285  initialOwner */\n  dup2\n    /* \"@openzeppelin/contracts/access/Ownable.sol\":1273:1299  initialOwner == address(0) */\n  0xffffffffffffffffffffffffffffffffffffffff\n  and\n  sub\n    /* \"@openzeppelin/contracts/access/Ownable.sol\":1269:1364  if (initialOwner == address(0)) {... */\n  tag_7\n  jumpi\n    /* \"@openzeppelin/contracts/access/Ownable.sol\":1350:1351  0 */\n  0x00\n    /* \"@openzeppelin/contracts/access/Ownable.sol\":1322:1353  OwnableInvalidOwner(address(0)) */\n  mload(0x40)\n  0x1e4fbdf700000000000000000000000000000000000000000000000000000000\n  dup2\n  mstore\n  0x04\n  add\n  tag_8\n  swap2\n  swap1\n  tag_9\n  jump\t// in\ntag_8:\n  mload(0x40)\n  dup1\n  swap2\n  sub\n  swap1\n  revert\n    /* \"@openzeppelin/contracts/access/Ownable.sol\":1269:1364  if (initialOwner == address(0)) {... */\ntag_7:\n    /* \"@openzeppelin/contracts/access/Ownable.sol\":1373:1405  _transferOwnership(initialOwner) */\n  tag_10\n    /* \"@openzeppelin/contracts/access/Ownable.sol\":1392:1404  initialOwner */\n  dup2\n    /* \"@openzeppelin/contracts/access/Ownable.sol\":1373:1391  _transferOwnership */\n  shl(0x20, tag_11)\n    /* \"@openzeppelin/contracts/access/Ownable.sol\":1373:1405  _transferOwnership(initialOwner) */\n  0x20\n  shr\n  jump\t// in\ntag_10:\n    /* \"@openzeppelin/contracts/access/Ownable.sol\":1225:1412  constructor(address initialOwner) {... */\n  pop\n    /* \"contracts/CelebStarRewards.sol\":1764:1784  _oracleClientAddress */\n  dup1\n    /* \"contracts/CelebStarRewards.sol\":1735:1747  oracleClient */\n  0x04\n  0x00\n    /* \"contracts/CelebStarRewards.sol\":1735:1785  oracleClient = IOracleClient(_oracleClientAddress) */\n  0x0100\n  exp\n  dup2\n  sload\n  dup2\n  0xffffffffffffffffffffffffffffffffffffffff\n  mul\n  not\n  and\n  swap1\n  dup4\n  0xffffffffffffffffffffffffffffffffffffffff\n  and\n  mul\n  or\n  swap1\n  sstore\n  pop\n    /* \"contracts/CelebStarRewards.sol\":1683:1792  constructor(address _oracleClientAddress) {... */\n  pop\n    /* \"contracts/CelebStarRewards.sol\":355:7368  contract CelebStarRewards is Ownable(msg.sender) {... */\n  jump(tag_13)\n    /* \"@openzeppelin/contracts/access/Ownable.sol\":2912:3099  function _transferOwnership(address newOwner) internal virtual {... */\ntag_11:\n    /* \"@openzeppelin/contracts/access/Ownable.sol\":2985:3001  address oldOwner */\n  0x00\n    /* \"@openzeppelin/contracts/access/Ownable.sol\":3004:3010  _owner */\n  dup1\n  0x00\n  swap1\n  sload\n  swap1\n  0x0100\n  exp\n  swap1\n  div\n  0xffffffffffffffffffffffffffffffffffffffff\n  and\n    /* \"@openzeppelin/contracts/access/Ownable.sol\":2985:3010  address oldOwner = _owner */\n  swap1\n  pop\n    /* \"@openzeppelin/contracts/access/Ownable.sol\":3029:3037  newOwner */\n  dup2\n    /* \"@openzeppelin/contracts/access/Ownable.sol\":3020:3026  _owner */\n  0x00\n  dup1\n    /* \"@openzeppelin/contracts/access/Ownable.sol\":3020:3037  _owner = newOwner */\n  0x0100\n  exp\n  dup2\n  sload\n  dup2\n  0xffffffffffffffffffffffffffffffffffffffff\n  mul\n  not\n  and\n  swap1\n  dup4\n  0xffffffffffffffffffffffffffffffffffffffff\n  and\n  mul\n  or\n  swap1\n  sstore\n  pop\n    /* \"@openzeppelin/contracts/access/Ownable.sol\":3083:3091  newOwner */\n  dup2\n    /* \"@openzeppelin/contracts/access/Ownable.sol\":3052:3092  OwnershipTransferred(oldOwner, newOwner) */\n  0xffffffffffffffffffffffffffffffffffffffff\n  and\n    /* \"@openzeppelin/contracts/access/Ownable.sol\":3073:3081  oldOwner */\n  dup2\n    /* \"@openzeppelin/contracts/access/Ownable.sol\":3052:3092  OwnershipTransferred(oldOwner, newOwner) */\n  0xffffffffffffffffffffffffffffffffffffffff\n  and\n  0x8be0079c531659141344cd1fd0a4f28419497f9722a3daafe3b4186f6b6457e0\n  mload(0x40)\n  mload(0x40)\n  dup1\n  swap2\n  sub\n  swap1\n  log3\n    /* \"@openzeppelin/contracts/access/Ownable.sol\":2975:3099  {... */\n  pop\n    /* \"@openzeppelin/contracts/access/Ownable.sol\":2912:3099  function _transferOwnership(address newOwner) internal virtual {... */\n  pop\n  jump\t// out\n    /* \"#utility.yul\":88:205   */\ntag_16:\n    /* \"#utility.yul\":197:198   */\n  0x00\n    /* \"#utility.yul\":194:195   */\n  dup1\n    /* \"#utility.yul\":187:199   */\n  revert\n    /* \"#utility.yul\":334:460   */\ntag_18:\n    /* \"#utility.yul\":371:378   */\n  0x00\n    /* \"#utility.yul\":411:453   */\n  0xffffffffffffffffffffffffffffffffffffffff\n    /* \"#utility.yul\":404:409   */\n  dup3\n    /* \"#utility.yul\":400:454   */\n  and\n    /* \"#utility.yul\":389:454   */\n  swap1\n  pop\n    /* \"#utility.yul\":334:460   */\n  swap2\n  swap1\n  pop\n  jump\t// out\n    /* \"#utility.yul\":466:562   */\ntag_19:\n    /* \"#utility.yul\":503:510   */\n  0x00\n    /* \"#utility.yul\":532:556   */\n  tag_29\n    /* \"#utility.yul\":550:555   */\n  dup3\n    /* \"#utility.yul\":532:556   */\n  tag_18\n  jump\t// in\ntag_29:\n    /* \"#utility.yul\":521:556   */\n  swap1\n  pop\n    /* \"#utility.yul\":466:562   */\n  swap2\n  swap1\n  pop\n  jump\t// out\n    /* \"#utility.yul\":568:690   */\ntag_20:\n    /* \"#utility.yul\":641:665   */\n  tag_31\n    /* \"#utility.yul\":659:664   */\n  dup2\n    /* \"#utility.yul\":641:665   */\n  tag_19\n  jump\t// in\ntag_31:\n    /* \"#utility.yul\":634:639   */\n  dup2\n    /* \"#utility.yul\":631:666   */\n  eq\n    /* \"#utility.yul\":621:684   */\n  tag_32\n  jumpi\n    /* \"#utility.yul\":680:681   */\n  0x00\n    /* \"#utility.yul\":677:678   */\n  dup1\n    /* \"#utility.yul\":670:682   */\n  revert\n    /* \"#utility.yul\":621:684   */\ntag_32:\n    /* \"#utility.yul\":568:690   */\n  pop\n  jump\t// out\n    /* \"#utility.yul\":696:839   */\ntag_21:\n    /* \"#utility.yul\":753:758   */\n  0x00\n    /* \"#utility.yul\":784:790   */\n  dup2\n    /* \"#utility.yul\":778:791   */\n  mload\n    /* \"#utility.yul\":769:791   */\n  swap1\n  pop\n    /* \"#utility.yul\":800:833   */\n  tag_34\n    /* \"#utility.yul\":827:832   */\n  dup2\n    /* \"#utility.yul\":800:833   */\n  tag_20\n  jump\t// in\ntag_34:\n    /* \"#utility.yul\":696:839   */\n  swap3\n  swap2\n  pop\n  pop\n  jump\t// out\n    /* \"#utility.yul\":845:1196   */\ntag_3:\n    /* \"#utility.yul\":915:921   */\n  0x00\n    /* \"#utility.yul\":964:966   */\n  0x20\n    /* \"#utility.yul\":952:961   */\n  dup3\n    /* \"#utility.yul\":943:950   */\n  dup5\n    /* \"#utility.yul\":939:962   */\n  sub\n    /* \"#utility.yul\":935:967   */\n  slt\n    /* \"#utility.yul\":932:1051   */\n  iszero\n  tag_36\n  jumpi\n    /* \"#utility.yul\":970:1049   */\n  tag_37\n  tag_16\n  jump\t// in\ntag_37:\n    /* \"#utility.yul\":932:1051   */\ntag_36:\n    /* \"#utility.yul\":1090:1091   */\n  0x00\n    /* \"#utility.yul\":1115:1179   */\n  tag_38\n    /* \"#utility.yul\":1171:1178   */\n  dup5\n    /* \"#utility.yul\":1162:1168   */\n  dup3\n    /* \"#utility.yul\":1151:1160   */\n  dup6\n    /* \"#utility.yul\":1147:1169   */\n  add\n    /* \"#utility.yul\":1115:1179   */\n  tag_21\n  jump\t// in\ntag_38:\n    /* \"#utility.yul\":1105:1179   */\n  swap2\n  pop\n    /* \"#utility.yul\":1061:1189   */\n  pop\n    /* \"#utility.yul\":845:1196   */\n  swap3\n  swap2\n  pop\n  pop\n  jump\t// out\n    /* \"#utility.yul\":1202:1320   */\ntag_22:\n    /* \"#utility.yul\":1289:1313   */\n  tag_40\n    /* \"#utility.yul\":1307:1312   */\n  dup2\n    /* \"#utility.yul\":1289:1313   */\n  tag_19\n  jump\t// in\ntag_40:\n    /* \"#utility.yul\":1284:1287   */\n  dup3\n    /* \"#utility.yul\":1277:1314   */\n  mstore\n    /* \"#utility.yul\":1202:1320   */\n  pop\n  pop\n  jump\t// out\n    /* \"#utility.yul\":1326:1548   */\ntag_9:\n    /* \"#utility.yul\":1419:1423   */\n  0x00\n    /* \"#utility.yul\":1457:1459   */\n  0x20\n    /* \"#utility.yul\":1446:1455   */\n  dup3\n    /* \"#utility.yul\":1442:1460   */\n  add\n    /* \"#utility.yul\":1434:1460   */\n  swap1\n  pop\n    /* \"#utility.yul\":1470:1541   */\n  tag_42\n    /* \"#utility.yul\":1538:1539   */\n  0x00\n    /* \"#utility.yul\":1527:1536   */\n  dup4\n    /* \"#utility.yul\":1523:1540   */\n  add\n    /* \"#utility.yul\":1514:1520   */\n  dup5\n    /* \"#utility.yul\":1470:1541   */\n  tag_22\n  jump\t// in\ntag_42:\n    /* \"#utility.yul\":1326:1548   */\n  swap3\n  swap2\n  pop\n  pop\n  jump\t// out\n    /* \"contracts/CelebStarRewards.sol\":355:7368  contract CelebStarRewards is Ownable(msg.sender) {... */\ntag_13:\n  dataSize(sub_0)\n  dup1\n  dataOffset(sub_0)\n  0x00\n  codecopy\n  0x00\n  return\nstop\n\nsub_0: assembly {\n        /* \"contracts/CelebStarRewards.sol\":355:7368  contract CelebStarRewards is Ownable(msg.sender) {... */\n      mstore(0x40, 0x80)\n      callvalue\n      dup1\n      iszero\n      tag_1\n      jumpi\n      0x00\n      dup1\n      revert\n    tag_1:\n      pop\n      jumpi(tag_2, lt(calldatasize, 0x04))\n      shr(0xe0, calldataload(0x00))\n      dup1\n      0x83ded12e\n      gt\n      tag_24\n      jumpi\n      dup1\n      0xdaec6af6\n      gt\n      tag_25\n      jumpi\n      dup1\n      0xdaec6af6\n      eq\n      tag_18\n      jumpi\n      dup1\n      0xdf478880\n      eq\n      tag_19\n      jumpi\n      dup1\n      0xf064997c\n      eq\n      tag_20\n      jumpi\n      dup1\n      0xf2fde38b\n      eq\n      tag_21\n      jumpi\n      dup1\n      0xf301af42\n      eq\n      tag_22\n      jumpi\n      dup1\n      0xf3432b88\n      eq\n      tag_23\n      jumpi\n      jump(tag_2)\n    tag_25:\n      dup1\n      0x83ded12e\n      eq\n      tag_13\n      jumpi\n      dup1\n      0x8da5cb5b\n      eq\n      tag_14\n      jumpi\n      dup1\n      0xc884ef83\n      eq\n      tag_15\n      jumpi\n      dup1\n      0xd0377094\n      eq\n      tag_16\n      jumpi\n      dup1\n      0xd1f89993\n      eq\n      tag_17\n      jumpi\n      jump(tag_2)\n    tag_24:\n      dup1\n      0x5e1aea0a\n      gt\n      tag_26\n      jumpi\n      dup1\n      0x5e1aea0a\n      eq\n      tag_8\n      jumpi\n      dup1\n      0x636d8e54\n      eq\n      tag_9\n      jumpi\n      dup1\n      0x715018a6\n      eq\n      tag_10\n      jumpi\n      dup1\n      0x7a67f053\n      eq\n      tag_11\n      jumpi\n      dup1\n      0x81e0a842\n      eq\n      tag_12\n      jumpi\n      jump(tag_2)\n    tag_26:\n      dup1\n      0x03f1c622\n      eq\n      tag_3\n      jumpi\n      dup1\n      0x1d0e98f3\n      eq\n      tag_4\n      jumpi\n      dup1\n      0x1e257a04\n      eq\n      tag_5\n      jumpi\n      dup1\n      0x5333ecb8\n      eq\n      tag_6\n      jumpi\n      dup1\n      0x57c1a47f\n      eq\n      tag_7\n      jumpi\n    tag_2:\n      0x00\n      dup1\n      revert\n        /* \"contracts/CelebStarRewards.sol\":1176:1241  mapping(address => FirstTimeReward) public accountFirstTimeReward */\n    tag_3:\n      tag_27\n      0x04\n      dup1\n      calldatasize\n      sub\n      dup2\n      add\n      swap1\n      tag_28\n      swap2\n      swap1\n      tag_29\n      jump\t// in\n    tag_28:\n      tag_30\n      jump\t// in\n    tag_27:\n      mload(0x40)\n      tag_31\n      swap4\n      swap3\n      swap2\n      swap1\n      tag_32\n      jump\t// in\n    tag_31:\n      mload(0x40)\n      dup1\n      swap2\n      sub\n      swap1\n      return\n        /* \"contracts/CelebStarRewards.sol\":1798:2069  function isRewardActive() public view returns (bool) {... */\n    tag_4:\n      tag_33\n      tag_34\n      jump\t// in\n    tag_33:\n      mload(0x40)\n      tag_35\n      swap2\n      swap1\n      tag_36\n      jump\t// in\n    tag_35:\n      mload(0x40)\n      dup1\n      swap2\n      sub\n      swap1\n      return\n        /* \"contracts/CelebStarRewards.sol\":3630:3933  function calculateRewardAmount(uint256 _rewardId, uint256 _accountBalance)... */\n    tag_5:\n      tag_37\n      0x04\n      dup1\n      calldatasize\n      sub\n      dup2\n      add\n      swap1\n      tag_38\n      swap2\n      swap1\n      tag_39\n      jump\t// in\n    tag_38:\n      tag_40\n      jump\t// in\n    tag_37:\n      mload(0x40)\n      tag_41\n      swap2\n      swap1\n      tag_42\n      jump\t// in\n    tag_41:\n      mload(0x40)\n      dup1\n      swap2\n      sub\n      swap1\n      return\n        /* \"contracts/CelebStarRewards.sol\":524:571  uint256 public firstTimeRewardPercentage = 5000 */\n    tag_6:\n      tag_43\n      tag_44\n      jump\t// in\n    tag_43:\n      mload(0x40)\n      tag_45\n      swap2\n      swap1\n      tag_42\n      jump\t// in\n    tag_45:\n      mload(0x40)\n      dup1\n      swap2\n      sub\n      swap1\n      return\n        /* \"contracts/CelebStarRewards.sol\":2277:2442  function getActiveRewardId() public view returns (uint256 rewardId) {... */\n    tag_7:\n      tag_46\n      tag_47\n      jump\t// in\n    tag_46:\n      mload(0x40)\n      tag_48\n      swap2\n      swap1\n      tag_42\n      jump\t// in\n    tag_48:\n      mload(0x40)\n      dup1\n      swap2\n      sub\n      swap1\n      return\n        /* \"contracts/CelebStarRewards.sol\":2448:3187  function getCelebIdToBeRewarded(uint256 _rewardId)... */\n    tag_8:\n      tag_49\n      0x04\n      dup1\n      calldatasize\n      sub\n      dup2\n      add\n      swap1\n      tag_50\n      swap2\n      swap1\n      tag_51\n      jump\t// in\n    tag_50:\n      tag_52\n      jump\t// in\n    tag_49:\n      mload(0x40)\n      tag_53\n      swap3\n      swap2\n      swap1\n      tag_54\n      jump\t// in\n    tag_53:\n      mload(0x40)\n      dup1\n      swap2\n      sub\n      swap1\n      return\n        /* \"contracts/CelebStarRewards.sol\":7232:7365  function updateFirstTimeRewardPercentage(uint256 percent) external onlyOwner {... */\n    tag_9:\n      tag_55\n      0x04\n      dup1\n      calldatasize\n      sub\n      dup2\n      add\n      swap1\n      tag_56\n      swap2\n      swap1\n      tag_51\n      jump\t// in\n    tag_56:\n      tag_57\n      jump\t// in\n    tag_55:\n      stop\n        /* \"@openzeppelin/contracts/access/Ownable.sol\":2293:2394  function renounceOwnership() public virtual onlyOwner {... */\n    tag_10:\n      tag_58\n      tag_59\n      jump\t// in\n    tag_58:\n      stop\n        /* \"contracts/CelebStarRewards.sol\":6588:6737  function getFirstTimeRewardAmount(address _account) public view returns(uint256){... */\n    tag_11:\n      tag_60\n      0x04\n      dup1\n      calldatasize\n      sub\n      dup2\n      add\n      swap1\n      tag_61\n      swap2\n      swap1\n      tag_29\n      jump\t// in\n    tag_61:\n      tag_62\n      jump\t// in\n    tag_60:\n      mload(0x40)\n      tag_63\n      swap2\n      swap1\n      tag_42\n      jump\t// in\n    tag_63:\n      mload(0x40)\n      dup1\n      swap2\n      sub\n      swap1\n      return\n        /* \"contracts/CelebStarRewards.sol\":3939:4112  function isRewardClaimed(address _account, uint256 _rewardId)... */\n    tag_12:\n      tag_64\n      0x04\n      dup1\n      calldatasize\n      sub\n      dup2\n      add\n      swap1\n      tag_65\n      swap2\n      swap1\n      tag_66\n      jump\t// in\n    tag_65:\n      tag_67\n      jump\t// in\n    tag_64:\n      mload(0x40)\n      tag_68\n      swap2\n      swap1\n      tag_36\n      jump\t// in\n    tag_68:\n      mload(0x40)\n      dup1\n      swap2\n      sub\n      swap1\n      return\n        /* \"contracts/CelebStarRewards.sol\":6103:6275  function calculateFirstTimeRewardAmount(uint256 _depositAmount) public view returns(uint256){... */\n    tag_13:\n      tag_69\n      0x04\n      dup1\n      calldatasize\n      sub\n      dup2\n      add\n      swap1\n      tag_70\n      swap2\n      swap1\n      tag_51\n      jump\t// in\n    tag_70:\n      tag_71\n      jump\t// in\n    tag_69:\n      mload(0x40)\n      tag_72\n      swap2\n      swap1\n      tag_42\n      jump\t// in\n    tag_72:\n      mload(0x40)\n      dup1\n      swap2\n      sub\n      swap1\n      return\n        /* \"@openzeppelin/contracts/access/Ownable.sol\":1638:1723  function owner() public view virtual returns (address) {... */\n    tag_14:\n      tag_73\n      tag_74\n      jump\t// in\n    tag_73:\n      mload(0x40)\n      tag_75\n      swap2\n      swap1\n      tag_76\n      jump\t// in\n    tag_75:\n      mload(0x40)\n      dup1\n      swap2\n      sub\n      swap1\n      return\n        /* \"contracts/CelebStarRewards.sol\":1020:1062  mapping(address => uint256) public claimed */\n    tag_15:\n      tag_77\n      0x04\n      dup1\n      calldatasize\n      sub\n      dup2\n      add\n      swap1\n      tag_78\n      swap2\n      swap1\n      tag_29\n      jump\t// in\n    tag_78:\n      tag_79\n      jump\t// in\n    tag_77:\n      mload(0x40)\n      tag_80\n      swap2\n      swap1\n      tag_42\n      jump\t// in\n    tag_80:\n      mload(0x40)\n      dup1\n      swap2\n      sub\n      swap1\n      return\n        /* \"contracts/CelebStarRewards.sol\":479:518  uint256 public availableRewardFunds = 0 */\n    tag_16:\n      tag_81\n      tag_82\n      jump\t// in\n    tag_81:\n      mload(0x40)\n      tag_83\n      swap2\n      swap1\n      tag_42\n      jump\t// in\n    tag_83:\n      mload(0x40)\n      dup1\n      swap2\n      sub\n      swap1\n      return\n        /* \"contracts/CelebStarRewards.sol\":5642:5787  function isFirstTimeMinter(address _account) public view returns(bool) {... */\n    tag_17:\n      tag_84\n      0x04\n      dup1\n      calldatasize\n      sub\n      dup2\n      add\n      swap1\n      tag_85\n      swap2\n      swap1\n      tag_29\n      jump\t// in\n    tag_85:\n      tag_86\n      jump\t// in\n    tag_84:\n      mload(0x40)\n      tag_87\n      swap2\n      swap1\n      tag_36\n      jump\t// in\n    tag_87:\n      mload(0x40)\n      dup1\n      swap2\n      sub\n      swap1\n      return\n        /* \"contracts/CelebStarRewards.sol\":5793:5941  function hasMintedAtleastOnce(address _account) public view returns(bool) {... */\n    tag_18:\n      tag_88\n      0x04\n      dup1\n      calldatasize\n      sub\n      dup2\n      add\n      swap1\n      tag_89\n      swap2\n      swap1\n      tag_29\n      jump\t// in\n    tag_89:\n      tag_90\n      jump\t// in\n    tag_88:\n      mload(0x40)\n      tag_91\n      swap2\n      swap1\n      tag_36\n      jump\t// in\n    tag_91:\n      mload(0x40)\n      dup1\n      swap2\n      sub\n      swap1\n      return\n        /* \"contracts/CelebStarRewards.sol\":2075:2271  function isRewardScheduled() public view returns (bool) {... */\n    tag_19:\n      tag_92\n      tag_93\n      jump\t// in\n    tag_92:\n      mload(0x40)\n      tag_94\n      swap2\n      swap1\n      tag_36\n      jump\t// in\n    tag_94:\n      mload(0x40)\n      dup1\n      swap2\n      sub\n      swap1\n      return\n        /* \"contracts/CelebStarRewards.sol\":442:473  uint256 public nextRewardId = 1 */\n    tag_20:\n      tag_95\n      tag_96\n      jump\t// in\n    tag_95:\n      mload(0x40)\n      tag_97\n      swap2\n      swap1\n      tag_42\n      jump\t// in\n    tag_97:\n      mload(0x40)\n      dup1\n      swap2\n      sub\n      swap1\n      return\n        /* \"@openzeppelin/contracts/access/Ownable.sol\":2543:2758  function transferOwnership(address newOwner) public virtual onlyOwner {... */\n    tag_21:\n      tag_98\n      0x04\n      dup1\n      calldatasize\n      sub\n      dup2\n      add\n      swap1\n      tag_99\n      swap2\n      swap1\n      tag_29\n      jump\t// in\n    tag_99:\n      tag_100\n      jump\t// in\n    tag_98:\n      stop\n        /* \"contracts/CelebStarRewards.sol\":1069:1110  mapping(uint256 => Reward) public rewards */\n    tag_22:\n      tag_101\n      0x04\n      dup1\n      calldatasize\n      sub\n      dup2\n      add\n      swap1\n      tag_102\n      swap2\n      swap1\n      tag_51\n      jump\t// in\n    tag_102:\n      tag_103\n      jump\t// in\n    tag_101:\n      mload(0x40)\n      tag_104\n      swap8\n      swap7\n      swap6\n      swap5\n      swap4\n      swap3\n      swap2\n      swap1\n      tag_105\n      jump\t// in\n    tag_104:\n      mload(0x40)\n      dup1\n      swap2\n      sub\n      swap1\n      return\n        /* \"contracts/CelebStarRewards.sol\":5947:6097  function isFirstTimeRewardClaimed(address _account) public view returns(bool) {... */\n    tag_23:\n      tag_106\n      0x04\n      dup1\n      calldatasize\n      sub\n      dup2\n      add\n      swap1\n      tag_107\n      swap2\n      swap1\n      tag_29\n      jump\t// in\n    tag_107:\n      tag_108\n      jump\t// in\n    tag_106:\n      mload(0x40)\n      tag_109\n      swap2\n      swap1\n      tag_36\n      jump\t// in\n    tag_109:\n      mload(0x40)\n      dup1\n      swap2\n      sub\n      swap1\n      return\n        /* \"contracts/CelebStarRewards.sol\":1176:1241  mapping(address => FirstTimeReward) public accountFirstTimeReward */\n    tag_30:\n      mstore(0x20, 0x07)\n      dup1\n      0x00\n      mstore\n      keccak256(0x00, 0x40)\n      0x00\n      swap2\n      pop\n      swap1\n      pop\n      dup1\n      0x00\n      add\n      sload\n      swap1\n      dup1\n      0x01\n      add\n      sload\n      swap1\n      dup1\n      0x02\n      add\n      0x00\n      swap1\n      sload\n      swap1\n      0x0100\n      exp\n      swap1\n      div\n      0xff\n      and\n      swap1\n      pop\n      dup4\n      jump\t// out\n        /* \"contracts/CelebStarRewards.sol\":1798:2069  function isRewardActive() public view returns (bool) {... */\n    tag_34:\n        /* \"contracts/CelebStarRewards.sol\":1845:1849  bool */\n      0x00\n        /* \"contracts/CelebStarRewards.sol\":1881:1882  1 */\n      0x01\n        /* \"contracts/CelebStarRewards.sol\":1865:1877  nextRewardId */\n      dup1\n      sload\n        /* \"contracts/CelebStarRewards.sol\":1865:1882  nextRewardId == 1 */\n      sub\n        /* \"contracts/CelebStarRewards.sol\":1861:1921  if (nextRewardId == 1) {... */\n      tag_111\n      jumpi\n        /* \"contracts/CelebStarRewards.sol\":1905:1910  false */\n      0x00\n        /* \"contracts/CelebStarRewards.sol\":1898:1910  return false */\n      swap1\n      pop\n      jump(tag_110)\n        /* \"contracts/CelebStarRewards.sol\":1861:1921  if (nextRewardId == 1) {... */\n    tag_111:\n        /* \"contracts/CelebStarRewards.sol\":1967:1974  rewards */\n      0x06\n        /* \"contracts/CelebStarRewards.sol\":1967:1992  rewards[nextRewardId - 1] */\n      0x00\n        /* \"contracts/CelebStarRewards.sol\":1990:1991  1 */\n      0x01\n        /* \"contracts/CelebStarRewards.sol\":1975:1987  nextRewardId */\n      dup1\n      sload\n        /* \"contracts/CelebStarRewards.sol\":1975:1991  nextRewardId - 1 */\n      tag_112\n      swap2\n      swap1\n      tag_113\n      jump\t// in\n    tag_112:\n        /* \"contracts/CelebStarRewards.sol\":1967:1992  rewards[nextRewardId - 1] */\n      dup2\n      mstore\n      0x20\n      add\n      swap1\n      dup2\n      mstore\n      0x20\n      add\n      0x00\n      keccak256\n        /* \"contracts/CelebStarRewards.sol\":1967:1998  rewards[nextRewardId - 1].start */\n      0x01\n      add\n      sload\n        /* \"contracts/CelebStarRewards.sol\":1951:1963  block.number */\n      number\n        /* \"contracts/CelebStarRewards.sol\":1951:1998  block.number >= rewards[nextRewardId - 1].start */\n      lt\n      iszero\n        /* \"contracts/CelebStarRewards.sol\":1950:2062  (block.number >= rewards[nextRewardId - 1].start) &&... */\n      dup1\n      iszero\n      tag_114\n      jumpi\n      pop\n        /* \"contracts/CelebStarRewards.sol\":2032:2039  rewards */\n      0x06\n        /* \"contracts/CelebStarRewards.sol\":2032:2057  rewards[nextRewardId - 1] */\n      0x00\n        /* \"contracts/CelebStarRewards.sol\":2055:2056  1 */\n      0x01\n        /* \"contracts/CelebStarRewards.sol\":2040:2052  nextRewardId */\n      dup1\n      sload\n        /* \"contracts/CelebStarRewards.sol\":2040:2056  nextRewardId - 1 */\n      tag_115\n      swap2\n      swap1\n      tag_113\n      jump\t// in\n    tag_115:\n        /* \"contracts/CelebStarRewards.sol\":2032:2057  rewards[nextRewardId - 1] */\n      dup2\n      mstore\n      0x20\n      add\n      swap1\n      dup2\n      mstore\n      0x20\n      add\n      0x00\n      keccak256\n        /* \"contracts/CelebStarRewards.sol\":2032:2061  rewards[nextRewardId - 1].end */\n      0x02\n      add\n      sload\n        /* \"contracts/CelebStarRewards.sol\":2016:2028  block.number */\n      number\n        /* \"contracts/CelebStarRewards.sol\":2016:2061  block.number <= rewards[nextRewardId - 1].end */\n      gt\n      iszero\n        /* \"contracts/CelebStarRewards.sol\":1950:2062  (block.number >= rewards[nextRewardId - 1].start) &&... */\n    tag_114:\n        /* \"contracts/CelebStarRewards.sol\":1931:2062  return... */\n      swap1\n      pop\n        /* \"contracts/CelebStarRewards.sol\":1798:2069  function isRewardActive() public view returns (bool) {... */\n    tag_110:\n      swap1\n      jump\t// out\n        /* \"contracts/CelebStarRewards.sol\":3630:3933  function calculateRewardAmount(uint256 _rewardId, uint256 _accountBalance)... */\n    tag_40:\n        /* \"contracts/CelebStarRewards.sol\":3750:3757  uint256 */\n      0x00\n        /* \"contracts/CelebStarRewards.sol\":3792:3926  rewards[_rewardId].totalRewardAmount.mul(_accountBalance).div(... */\n      tag_117\n        /* \"contracts/CelebStarRewards.sol\":3871:3878  rewards */\n      0x06\n        /* \"contracts/CelebStarRewards.sol\":3871:3889  rewards[_rewardId] */\n      0x00\n        /* \"contracts/CelebStarRewards.sol\":3879:3888  _rewardId */\n      dup6\n        /* \"contracts/CelebStarRewards.sol\":3871:3889  rewards[_rewardId] */\n      dup2\n      mstore\n      0x20\n      add\n      swap1\n      dup2\n      mstore\n      0x20\n      add\n      0x00\n      keccak256\n        /* \"contracts/CelebStarRewards.sol\":3871:3912  rewards[_rewardId].totalRewardTokenSupply */\n      0x05\n      add\n      sload\n        /* \"contracts/CelebStarRewards.sol\":3792:3849  rewards[_rewardId].totalRewardAmount.mul(_accountBalance) */\n      tag_118\n        /* \"contracts/CelebStarRewards.sol\":3833:3848  _accountBalance */\n      dup5\n        /* \"contracts/CelebStarRewards.sol\":3792:3799  rewards */\n      0x06\n        /* \"contracts/CelebStarRewards.sol\":3792:3810  rewards[_rewardId] */\n      0x00\n        /* \"contracts/CelebStarRewards.sol\":3800:3809  _rewardId */\n      dup9\n        /* \"contracts/CelebStarRewards.sol\":3792:3810  rewards[_rewardId] */\n      dup2\n      mstore\n      0x20\n      add\n      swap1\n      dup2\n      mstore\n      0x20\n      add\n      0x00\n      keccak256\n        /* \"contracts/CelebStarRewards.sol\":3792:3828  rewards[_rewardId].totalRewardAmount */\n      0x03\n      add\n      sload\n        /* \"contracts/CelebStarRewards.sol\":3792:3832  rewards[_rewardId].totalRewardAmount.mul */\n      tag_119\n      swap1\n        /* \"contracts/CelebStarRewards.sol\":3792:3849  rewards[_rewardId].totalRewardAmount.mul(_accountBalance) */\n      swap2\n      swap1\n      0xffffffff\n      and\n      jump\t// in\n    tag_118:\n        /* \"contracts/CelebStarRewards.sol\":3792:3853  rewards[_rewardId].totalRewardAmount.mul(_accountBalance).div */\n      tag_120\n      swap1\n        /* \"contracts/CelebStarRewards.sol\":3792:3926  rewards[_rewardId].totalRewardAmount.mul(_accountBalance).div(... */\n      swap2\n      swap1\n      0xffffffff\n      and\n      jump\t// in\n    tag_117:\n        /* \"contracts/CelebStarRewards.sol\":3773:3926  return... */\n      swap1\n      pop\n        /* \"contracts/CelebStarRewards.sol\":3630:3933  function calculateRewardAmount(uint256 _rewardId, uint256 _accountBalance)... */\n      swap3\n      swap2\n      pop\n      pop\n      jump\t// out\n        /* \"contracts/CelebStarRewards.sol\":524:571  uint256 public firstTimeRewardPercentage = 5000 */\n    tag_44:\n      sload(0x03)\n      dup2\n      jump\t// out\n        /* \"contracts/CelebStarRewards.sol\":2277:2442  function getActiveRewardId() public view returns (uint256 rewardId) {... */\n    tag_47:\n        /* \"contracts/CelebStarRewards.sol\":2327:2343  uint256 rewardId */\n      0x00\n        /* \"contracts/CelebStarRewards.sol\":2363:2379  isRewardActive() */\n      tag_122\n        /* \"contracts/CelebStarRewards.sol\":2363:2377  isRewardActive */\n      tag_34\n        /* \"contracts/CelebStarRewards.sol\":2363:2379  isRewardActive() */\n      jump\t// in\n    tag_122:\n        /* \"contracts/CelebStarRewards.sol\":2355:2402  require(isRewardActive(), \"No active rewards!\") */\n      tag_123\n      jumpi\n      mload(0x40)\n      0x08c379a000000000000000000000000000000000000000000000000000000000\n      dup2\n      mstore\n      0x04\n      add\n      tag_124\n      swap1\n      tag_125\n      jump\t// in\n    tag_124:\n      mload(0x40)\n      dup1\n      swap2\n      sub\n      swap1\n      revert\n    tag_123:\n        /* \"contracts/CelebStarRewards.sol\":2434:2435  1 */\n      0x01\n        /* \"contracts/CelebStarRewards.sol\":2419:2431  nextRewardId */\n      dup1\n      sload\n        /* \"contracts/CelebStarRewards.sol\":2419:2435  nextRewardId - 1 */\n      tag_126\n      swap2\n      swap1\n      tag_113\n      jump\t// in\n    tag_126:\n        /* \"contracts/CelebStarRewards.sol\":2412:2435  return nextRewardId - 1 */\n      swap1\n      pop\n        /* \"contracts/CelebStarRewards.sol\":2277:2442  function getActiveRewardId() public view returns (uint256 rewardId) {... */\n      swap1\n      jump\t// out\n        /* \"contracts/CelebStarRewards.sol\":2448:3187  function getCelebIdToBeRewarded(uint256 _rewardId)... */\n    tag_52:\n        /* \"contracts/CelebStarRewards.sol\":2531:2550  bool celebIdFetched */\n      0x00\n        /* \"contracts/CelebStarRewards.sol\":2552:2567  uint256 celebId */\n      dup1\n        /* \"contracts/CelebStarRewards.sol\":2587:2594  rewards */\n      0x06\n        /* \"contracts/CelebStarRewards.sol\":2587:2605  rewards[_rewardId] */\n      0x00\n        /* \"contracts/CelebStarRewards.sol\":2595:2604  _rewardId */\n      dup5\n        /* \"contracts/CelebStarRewards.sol\":2587:2605  rewards[_rewardId] */\n      dup2\n      mstore\n      0x20\n      add\n      swap1\n      dup2\n      mstore\n      0x20\n      add\n      0x00\n      keccak256\n        /* \"contracts/CelebStarRewards.sol\":2587:2620  rewards[_rewardId].celebIdFetched */\n      0x06\n      add\n      0x00\n      swap1\n      sload\n      swap1\n      0x0100\n      exp\n      swap1\n      div\n      0xff\n      and\n        /* \"contracts/CelebStarRewards.sol\":2583:2688  if (rewards[_rewardId].celebIdFetched) {... */\n      iszero\n      tag_128\n      jumpi\n        /* \"contracts/CelebStarRewards.sol\":2644:2648  true */\n      0x01\n        /* \"contracts/CelebStarRewards.sol\":2650:2657  rewards */\n      0x06\n        /* \"contracts/CelebStarRewards.sol\":2650:2668  rewards[_rewardId] */\n      0x00\n        /* \"contracts/CelebStarRewards.sol\":2658:2667  _rewardId */\n      dup6\n        /* \"contracts/CelebStarRewards.sol\":2650:2668  rewards[_rewardId] */\n      dup2\n      mstore\n      0x20\n      add\n      swap1\n      dup2\n      mstore\n      0x20\n      add\n      0x00\n      keccak256\n        /* \"contracts/CelebStarRewards.sol\":2650:2676  rewards[_rewardId].celebId */\n      0x04\n      add\n      sload\n        /* \"contracts/CelebStarRewards.sol\":2636:2677  return (true, rewards[_rewardId].celebId) */\n      swap2\n      pop\n      swap2\n      pop\n      jump(tag_127)\n        /* \"contracts/CelebStarRewards.sol\":2583:2688  if (rewards[_rewardId].celebIdFetched) {... */\n    tag_128:\n        /* \"contracts/CelebStarRewards.sol\":2699:2722  uint256 celebIdToReward */\n      0x00\n        /* \"contracts/CelebStarRewards.sol\":2724:2745  bool responseReceived */\n      dup1\n        /* \"contracts/CelebStarRewards.sol\":2749:2761  oracleClient */\n      0x04\n      0x00\n      swap1\n      sload\n      swap1\n      0x0100\n      exp\n      swap1\n      div\n      0xffffffffffffffffffffffffffffffffffffffff\n      and\n        /* \"contracts/CelebStarRewards.sol\":2749:2797  oracleClient... */\n      0xffffffffffffffffffffffffffffffffffffffff\n      and\n      0x6b53f42a\n        /* \"contracts/CelebStarRewards.sol\":2798:2807  _rewardId */\n      dup7\n        /* \"contracts/CelebStarRewards.sol\":2749:2808  oracleClient... */\n      mload(0x40)\n      dup3\n      0xffffffff\n      and\n      0xe0\n      shl\n      dup2\n      mstore\n      0x04\n      add\n      tag_129\n      swap2\n      swap1\n      tag_42\n      jump\t// in\n    tag_129:\n      0x40\n      dup1\n      mload\n      dup1\n      dup4\n      sub\n      dup2\n      dup7\n      gas\n      staticcall\n      iszero\n      dup1\n      iszero\n      tag_131\n      jumpi\n      returndatasize\n      0x00\n      dup1\n      returndatacopy\n      revert(0x00, returndatasize)\n    tag_131:\n      pop\n      pop\n      pop\n      pop\n      mload(0x40)\n      returndatasize\n      not(0x1f)\n      0x1f\n      dup3\n      add\n      and\n      dup3\n      add\n      dup1\n      0x40\n      mstore\n      pop\n      dup2\n      add\n      swap1\n      tag_132\n      swap2\n      swap1\n      tag_133\n      jump\t// in\n    tag_132:\n        /* \"contracts/CelebStarRewards.sol\":2698:2808  (uint256 celebIdToReward, bool responseReceived) = oracleClient... */\n      swap2\n      pop\n      swap2\n      pop\n        /* \"contracts/CelebStarRewards.sol\":2823:2839  responseReceived */\n      dup1\n        /* \"contracts/CelebStarRewards.sol\":2819:3153  if (responseReceived) {... */\n      iszero\n      tag_134\n      jumpi\n        /* \"contracts/CelebStarRewards.sol\":2891:2895  true */\n      0x01\n        /* \"contracts/CelebStarRewards.sol\":2855:2862  rewards */\n      0x06\n        /* \"contracts/CelebStarRewards.sol\":2855:2873  rewards[_rewardId] */\n      0x00\n        /* \"contracts/CelebStarRewards.sol\":2863:2872  _rewardId */\n      dup8\n        /* \"contracts/CelebStarRewards.sol\":2855:2873  rewards[_rewardId] */\n      dup2\n      mstore\n      0x20\n      add\n      swap1\n      dup2\n      mstore\n      0x20\n      add\n      0x00\n      keccak256\n        /* \"contracts/CelebStarRewards.sol\":2855:2888  rewards[_rewardId].celebIdFetched */\n      0x06\n      add\n      0x00\n        /* \"contracts/CelebStarRewards.sol\":2855:2895  rewards[_rewardId].celebIdFetched = true */\n      0x0100\n      exp\n      dup2\n      sload\n      dup2\n      0xff\n      mul\n      not\n      and\n      swap1\n      dup4\n      iszero\n      iszero\n      mul\n      or\n      swap1\n      sstore\n      pop\n        /* \"contracts/CelebStarRewards.sol\":2938:2953  celebIdToReward */\n      dup2\n        /* \"contracts/CelebStarRewards.sol\":2909:2916  rewards */\n      0x06\n        /* \"contracts/CelebStarRewards.sol\":2909:2927  rewards[_rewardId] */\n      0x00\n        /* \"contracts/CelebStarRewards.sol\":2917:2926  _rewardId */\n      dup8\n        /* \"contracts/CelebStarRewards.sol\":2909:2927  rewards[_rewardId] */\n      dup2\n      mstore\n      0x20\n      add\n      swap1\n      dup2\n      mstore\n      0x20\n      add\n      0x00\n      keccak256\n        /* \"contracts/CelebStarRewards.sol\":2909:2935  rewards[_rewardId].celebId */\n      0x04\n      add\n        /* \"contracts/CelebStarRewards.sol\":2909:2953  rewards[_rewardId].celebId = celebIdToReward */\n      dup2\n      swap1\n      sstore\n      pop\n        /* \"contracts/CelebStarRewards.sol\":3050:3054  this */\n      address\n        /* \"contracts/CelebStarRewards.sol\":3011:3081  ERC1155Supply(... */\n      0xffffffffffffffffffffffffffffffffffffffff\n      and\n      0xbd85b039\n        /* \"contracts/CelebStarRewards.sol\":3082:3097  celebIdToReward */\n      dup4\n        /* \"contracts/CelebStarRewards.sol\":3011:3098  ERC1155Supply(... */\n      mload(0x40)\n      dup3\n      0xffffffff\n      and\n      0xe0\n      shl\n      dup2\n      mstore\n      0x04\n      add\n      tag_135\n      swap2\n      swap1\n      tag_42\n      jump\t// in\n    tag_135:\n      0x20\n      mload(0x40)\n      dup1\n      dup4\n      sub\n      dup2\n      dup7\n      gas\n      staticcall\n      iszero\n      dup1\n      iszero\n      tag_137\n      jumpi\n      returndatasize\n      0x00\n      dup1\n      returndatacopy\n      revert(0x00, returndatasize)\n    tag_137:\n      pop\n      pop\n      pop\n      pop\n      mload(0x40)\n      returndatasize\n      not(0x1f)\n      0x1f\n      dup3\n      add\n      and\n      dup3\n      add\n      dup1\n      0x40\n      mstore\n      pop\n      dup2\n      add\n      swap1\n      tag_138\n      swap2\n      swap1\n      tag_139\n      jump\t// in\n    tag_138:\n        /* \"contracts/CelebStarRewards.sol\":2967:2974  rewards */\n      0x06\n        /* \"contracts/CelebStarRewards.sol\":2967:2985  rewards[_rewardId] */\n      0x00\n        /* \"contracts/CelebStarRewards.sol\":2975:2984  _rewardId */\n      dup8\n        /* \"contracts/CelebStarRewards.sol\":2967:2985  rewards[_rewardId] */\n      dup2\n      mstore\n      0x20\n      add\n      swap1\n      dup2\n      mstore\n      0x20\n      add\n      0x00\n      keccak256\n        /* \"contracts/CelebStarRewards.sol\":2967:3008  rewards[_rewardId].totalRewardTokenSupply */\n      0x05\n      add\n        /* \"contracts/CelebStarRewards.sol\":2967:3098  rewards[_rewardId].totalRewardTokenSupply = ERC1155Supply(... */\n      dup2\n      swap1\n      sstore\n      pop\n        /* \"contracts/CelebStarRewards.sol\":3120:3124  true */\n      0x01\n        /* \"contracts/CelebStarRewards.sol\":3126:3141  celebIdToReward */\n      dup3\n        /* \"contracts/CelebStarRewards.sol\":3112:3142  return (true, celebIdToReward) */\n      swap4\n      pop\n      swap4\n      pop\n      pop\n      pop\n      jump(tag_127)\n        /* \"contracts/CelebStarRewards.sol\":2819:3153  if (responseReceived) {... */\n    tag_134:\n        /* \"contracts/CelebStarRewards.sol\":3171:3176  false */\n      0x00\n        /* \"contracts/CelebStarRewards.sol\":3178:3179  0 */\n      dup1\n        /* \"contracts/CelebStarRewards.sol\":3163:3180  return (false, 0) */\n      swap4\n      pop\n      swap4\n      pop\n      pop\n      pop\n        /* \"contracts/CelebStarRewards.sol\":2448:3187  function getCelebIdToBeRewarded(uint256 _rewardId)... */\n    tag_127:\n      swap2\n      pop\n      swap2\n      jump\t// out\n        /* \"contracts/CelebStarRewards.sol\":7232:7365  function updateFirstTimeRewardPercentage(uint256 percent) external onlyOwner {... */\n    tag_57:\n        /* \"@openzeppelin/contracts/access/Ownable.sol\":1531:1544  _checkOwner() */\n      tag_141\n        /* \"@openzeppelin/contracts/access/Ownable.sol\":1531:1542  _checkOwner */\n      tag_142\n        /* \"@openzeppelin/contracts/access/Ownable.sol\":1531:1544  _checkOwner() */\n      jump\t// in\n    tag_141:\n        /* \"contracts/CelebStarRewards.sol\":7347:7354  percent */\n      dup1\n        /* \"contracts/CelebStarRewards.sol\":7319:7344  firstTimeRewardPercentage */\n      0x03\n        /* \"contracts/CelebStarRewards.sol\":7319:7354  firstTimeRewardPercentage = percent */\n      dup2\n      swap1\n      sstore\n      pop\n        /* \"contracts/CelebStarRewards.sol\":7232:7365  function updateFirstTimeRewardPercentage(uint256 percent) external onlyOwner {... */\n      pop\n      jump\t// out\n        /* \"@openzeppelin/contracts/access/Ownable.sol\":2293:2394  function renounceOwnership() public virtual onlyOwner {... */\n    tag_59:\n        /* \"@openzeppelin/contracts/access/Ownable.sol\":1531:1544  _checkOwner() */\n      tag_145\n        /* \"@openzeppelin/contracts/access/Ownable.sol\":1531:1542  _checkOwner */\n      tag_142\n        /* \"@openzeppelin/contracts/access/Ownable.sol\":1531:1544  _checkOwner() */\n      jump\t// in\n    tag_145:\n        /* \"@openzeppelin/contracts/access/Ownable.sol\":2357:2387  _transferOwnership(address(0)) */\n      tag_147\n        /* \"@openzeppelin/contracts/access/Ownable.sol\":2384:2385  0 */\n      0x00\n        /* \"@openzeppelin/contracts/access/Ownable.sol\":2357:2375  _transferOwnership */\n      tag_148\n        /* \"@openzeppelin/contracts/access/Ownable.sol\":2357:2387  _transferOwnership(address(0)) */\n      jump\t// in\n    tag_147:\n        /* \"@openzeppelin/contracts/access/Ownable.sol\":2293:2394  function renounceOwnership() public virtual onlyOwner {... */\n      jump\t// out\n        /* \"contracts/CelebStarRewards.sol\":6588:6737  function getFirstTimeRewardAmount(address _account) public view returns(uint256){... */\n    tag_62:\n        /* \"contracts/CelebStarRewards.sol\":6660:6667  uint256 */\n      0x00\n        /* \"contracts/CelebStarRewards.sol\":6685:6707  accountFirstTimeReward */\n      0x07\n        /* \"contracts/CelebStarRewards.sol\":6685:6717  accountFirstTimeReward[_account] */\n      0x00\n        /* \"contracts/CelebStarRewards.sol\":6708:6716  _account */\n      dup4\n        /* \"contracts/CelebStarRewards.sol\":6685:6717  accountFirstTimeReward[_account] */\n      0xffffffffffffffffffffffffffffffffffffffff\n      and\n      0xffffffffffffffffffffffffffffffffffffffff\n      and\n      dup2\n      mstore\n      0x20\n      add\n      swap1\n      dup2\n      mstore\n      0x20\n      add\n      0x00\n      keccak256\n        /* \"contracts/CelebStarRewards.sol\":6685:6730  accountFirstTimeReward[_account].rewardAmount */\n      0x01\n      add\n      sload\n        /* \"contracts/CelebStarRewards.sol\":6678:6730  return accountFirstTimeReward[_account].rewardAmount */\n      swap1\n      pop\n        /* \"contracts/CelebStarRewards.sol\":6588:6737  function getFirstTimeRewardAmount(address _account) public view returns(uint256){... */\n      swap2\n      swap1\n      pop\n      jump\t// out\n        /* \"contracts/CelebStarRewards.sol\":3939:4112  function isRewardClaimed(address _account, uint256 _rewardId)... */\n    tag_67:\n        /* \"contracts/CelebStarRewards.sol\":4046:4050  bool */\n      0x00\n        /* \"contracts/CelebStarRewards.sol\":4095:4104  _rewardId */\n      dup2\n        /* \"contracts/CelebStarRewards.sol\":4074:4081  claimed */\n      0x05\n        /* \"contracts/CelebStarRewards.sol\":4074:4091  claimed[_account] */\n      0x00\n        /* \"contracts/CelebStarRewards.sol\":4082:4090  _account */\n      dup6\n        /* \"contracts/CelebStarRewards.sol\":4074:4091  claimed[_account] */\n      0xffffffffffffffffffffffffffffffffffffffff\n      and\n      0xffffffffffffffffffffffffffffffffffffffff\n      and\n      dup2\n      mstore\n      0x20\n      add\n      swap1\n      dup2\n      mstore\n      0x20\n      add\n      0x00\n      keccak256\n      sload\n        /* \"contracts/CelebStarRewards.sol\":4074:4104  claimed[_account] == _rewardId */\n      eq\n        /* \"contracts/CelebStarRewards.sol\":4066:4105  return (claimed[_account] == _rewardId) */\n      swap1\n      pop\n        /* \"contracts/CelebStarRewards.sol\":3939:4112  function isRewardClaimed(address _account, uint256 _rewardId)... */\n      swap3\n      swap2\n      pop\n      pop\n      jump\t// out\n        /* \"contracts/CelebStarRewards.sol\":6103:6275  function calculateFirstTimeRewardAmount(uint256 _depositAmount) public view returns(uint256){... */\n    tag_71:\n        /* \"contracts/CelebStarRewards.sol\":6187:6194  uint256 */\n      0x00\n        /* \"contracts/CelebStarRewards.sol\":6212:6268  _depositAmount.mul(firstTimeRewardPercentage).div(10**5) */\n      tag_152\n        /* \"contracts/CelebStarRewards.sol\":6262:6267  10**5 */\n      0x0186a0\n        /* \"contracts/CelebStarRewards.sol\":6212:6257  _depositAmount.mul(firstTimeRewardPercentage) */\n      tag_153\n        /* \"contracts/CelebStarRewards.sol\":6231:6256  firstTimeRewardPercentage */\n      sload(0x03)\n        /* \"contracts/CelebStarRewards.sol\":6212:6226  _depositAmount */\n      dup6\n        /* \"contracts/CelebStarRewards.sol\":6212:6230  _depositAmount.mul */\n      tag_119\n      swap1\n        /* \"contracts/CelebStarRewards.sol\":6212:6257  _depositAmount.mul(firstTimeRewardPercentage) */\n      swap2\n      swap1\n      0xffffffff\n      and\n      jump\t// in\n    tag_153:\n        /* \"contracts/CelebStarRewards.sol\":6212:6261  _depositAmount.mul(firstTimeRewardPercentage).div */\n      tag_120\n      swap1\n        /* \"contracts/CelebStarRewards.sol\":6212:6268  _depositAmount.mul(firstTimeRewardPercentage).div(10**5) */\n      swap2\n      swap1\n      0xffffffff\n      and\n      jump\t// in\n    tag_152:\n        /* \"contracts/CelebStarRewards.sol\":6205:6268  return _depositAmount.mul(firstTimeRewardPercentage).div(10**5) */\n      swap1\n      pop\n        /* \"contracts/CelebStarRewards.sol\":6103:6275  function calculateFirstTimeRewardAmount(uint256 _depositAmount) public view returns(uint256){... */\n      swap2\n      swap1\n      pop\n      jump\t// out\n        /* \"@openzeppelin/contracts/access/Ownable.sol\":1638:1723  function owner() public view virtual returns (address) {... */\n    tag_74:\n        /* \"@openzeppelin/contracts/access/Ownable.sol\":1684:1691  address */\n      0x00\n        /* \"@openzeppelin/contracts/access/Ownable.sol\":1710:1716  _owner */\n      dup1\n      0x00\n      swap1\n      sload\n      swap1\n      0x0100\n      exp\n      swap1\n      div\n      0xffffffffffffffffffffffffffffffffffffffff\n      and\n        /* \"@openzeppelin/contracts/access/Ownable.sol\":1703:1716  return _owner */\n      swap1\n      pop\n        /* \"@openzeppelin/contracts/access/Ownable.sol\":1638:1723  function owner() public view virtual returns (address) {... */\n      swap1\n      jump\t// out\n        /* \"contracts/CelebStarRewards.sol\":1020:1062  mapping(address => uint256) public claimed */\n    tag_79:\n      mstore(0x20, 0x05)\n      dup1\n      0x00\n      mstore\n      keccak256(0x00, 0x40)\n      0x00\n      swap2\n      pop\n      swap1\n      pop\n      sload\n      dup2\n      jump\t// out\n        /* \"contracts/CelebStarRewards.sol\":479:518  uint256 public availableRewardFunds = 0 */\n    tag_82:\n      sload(0x02)\n      dup2\n      jump\t// out\n        /* \"contracts/CelebStarRewards.sol\":5642:5787  function isFirstTimeMinter(address _account) public view returns(bool) {... */\n    tag_86:\n        /* \"contracts/CelebStarRewards.sol\":5707:5711  bool */\n      0x00\n        /* \"contracts/CelebStarRewards.sol\":5779:5780  0 */\n      dup1\n        /* \"contracts/CelebStarRewards.sol\":5730:5752  accountFirstTimeReward */\n      0x07\n        /* \"contracts/CelebStarRewards.sol\":5730:5762  accountFirstTimeReward[_account] */\n      0x00\n        /* \"contracts/CelebStarRewards.sol\":5753:5761  _account */\n      dup5\n        /* \"contracts/CelebStarRewards.sol\":5730:5762  accountFirstTimeReward[_account] */\n      0xffffffffffffffffffffffffffffffffffffffff\n      and\n      0xffffffffffffffffffffffffffffffffffffffff\n      and\n      dup2\n      mstore\n      0x20\n      add\n      swap1\n      dup2\n      mstore\n      0x20\n      add\n      0x00\n      keccak256\n        /* \"contracts/CelebStarRewards.sol\":5730:5775  accountFirstTimeReward[_account].rewardAmount */\n      0x01\n      add\n      sload\n        /* \"contracts/CelebStarRewards.sol\":5730:5780  accountFirstTimeReward[_account].rewardAmount == 0 */\n      eq\n        /* \"contracts/CelebStarRewards.sol\":5723:5780  return accountFirstTimeReward[_account].rewardAmount == 0 */\n      swap1\n      pop\n        /* \"contracts/CelebStarRewards.sol\":5642:5787  function isFirstTimeMinter(address _account) public view returns(bool) {... */\n      swap2\n      swap1\n      pop\n      jump\t// out\n        /* \"contracts/CelebStarRewards.sol\":5793:5941  function hasMintedAtleastOnce(address _account) public view returns(bool) {... */\n    tag_90:\n        /* \"contracts/CelebStarRewards.sol\":5861:5865  bool */\n      0x00\n        /* \"contracts/CelebStarRewards.sol\":5933:5934  0 */\n      dup1\n        /* \"contracts/CelebStarRewards.sol\":5884:5906  accountFirstTimeReward */\n      0x07\n        /* \"contracts/CelebStarRewards.sol\":5884:5916  accountFirstTimeReward[_account] */\n      0x00\n        /* \"contracts/CelebStarRewards.sol\":5907:5915  _account */\n      dup5\n        /* \"contracts/CelebStarRewards.sol\":5884:5916  accountFirstTimeReward[_account] */\n      0xffffffffffffffffffffffffffffffffffffffff\n      and\n      0xffffffffffffffffffffffffffffffffffffffff\n      and\n      dup2\n      mstore\n      0x20\n      add\n      swap1\n      dup2\n      mstore\n      0x20\n      add\n      0x00\n      keccak256\n        /* \"contracts/CelebStarRewards.sol\":5884:5929  accountFirstTimeReward[_account].rewardAmount */\n      0x01\n      add\n      sload\n        /* \"contracts/CelebStarRewards.sol\":5884:5934  accountFirstTimeReward[_account].rewardAmount != 0 */\n      eq\n      iszero\n        /* \"contracts/CelebStarRewards.sol\":5877:5934  return accountFirstTimeReward[_account].rewardAmount != 0 */\n      swap1\n      pop\n        /* \"contracts/CelebStarRewards.sol\":5793:5941  function hasMintedAtleastOnce(address _account) public view returns(bool) {... */\n      swap2\n      swap1\n      pop\n      jump\t// out\n        /* \"contracts/CelebStarRewards.sol\":2075:2271  function isRewardScheduled() public view returns (bool) {... */\n    tag_93:\n        /* \"contracts/CelebStarRewards.sol\":2125:2129  bool */\n      0x00\n        /* \"contracts/CelebStarRewards.sol\":2161:2162  1 */\n      0x01\n        /* \"contracts/CelebStarRewards.sol\":2145:2157  nextRewardId */\n      dup1\n      sload\n        /* \"contracts/CelebStarRewards.sol\":2145:2162  nextRewardId == 1 */\n      sub\n        /* \"contracts/CelebStarRewards.sol\":2141:2201  if (nextRewardId == 1) {... */\n      tag_158\n      jumpi\n        /* \"contracts/CelebStarRewards.sol\":2185:2190  false */\n      0x00\n        /* \"contracts/CelebStarRewards.sol\":2178:2190  return false */\n      swap1\n      pop\n      jump(tag_157)\n        /* \"contracts/CelebStarRewards.sol\":2141:2201  if (nextRewardId == 1) {... */\n    tag_158:\n        /* \"contracts/CelebStarRewards.sol\":2233:2240  rewards */\n      0x06\n        /* \"contracts/CelebStarRewards.sol\":2233:2258  rewards[nextRewardId - 1] */\n      0x00\n        /* \"contracts/CelebStarRewards.sol\":2256:2257  1 */\n      0x01\n        /* \"contracts/CelebStarRewards.sol\":2241:2253  nextRewardId */\n      dup1\n      sload\n        /* \"contracts/CelebStarRewards.sol\":2241:2257  nextRewardId - 1 */\n      tag_159\n      swap2\n      swap1\n      tag_113\n      jump\t// in\n    tag_159:\n        /* \"contracts/CelebStarRewards.sol\":2233:2258  rewards[nextRewardId - 1] */\n      dup2\n      mstore\n      0x20\n      add\n      swap1\n      dup2\n      mstore\n      0x20\n      add\n      0x00\n      keccak256\n        /* \"contracts/CelebStarRewards.sol\":2233:2264  rewards[nextRewardId - 1].start */\n      0x01\n      add\n      sload\n        /* \"contracts/CelebStarRewards.sol\":2218:2230  block.number */\n      number\n        /* \"contracts/CelebStarRewards.sol\":2218:2264  block.number < rewards[nextRewardId - 1].start */\n      lt\n        /* \"contracts/CelebStarRewards.sol\":2211:2264  return block.number < rewards[nextRewardId - 1].start */\n      swap1\n      pop\n        /* \"contracts/CelebStarRewards.sol\":2075:2271  function isRewardScheduled() public view returns (bool) {... */\n    tag_157:\n      swap1\n      jump\t// out\n        /* \"contracts/CelebStarRewards.sol\":442:473  uint256 public nextRewardId = 1 */\n    tag_96:\n      sload(0x01)\n      dup2\n      jump\t// out\n        /* \"@openzeppelin/contracts/access/Ownable.sol\":2543:2758  function transferOwnership(address newOwner) public virtual onlyOwner {... */\n    tag_100:\n        /* \"@openzeppelin/contracts/access/Ownable.sol\":1531:1544  _checkOwner() */\n      tag_161\n        /* \"@openzeppelin/contracts/access/Ownable.sol\":1531:1542  _checkOwner */\n      tag_142\n        /* \"@openzeppelin/contracts/access/Ownable.sol\":1531:1544  _checkOwner() */\n      jump\t// in\n    tag_161:\n        /* \"@openzeppelin/contracts/access/Ownable.sol\":2647:2648  0 */\n      0x00\n        /* \"@openzeppelin/contracts/access/Ownable.sol\":2627:2649  newOwner == address(0) */\n      0xffffffffffffffffffffffffffffffffffffffff\n      and\n        /* \"@openzeppelin/contracts/access/Ownable.sol\":2627:2635  newOwner */\n      dup2\n        /* \"@openzeppelin/contracts/access/Ownable.sol\":2627:2649  newOwner == address(0) */\n      0xffffffffffffffffffffffffffffffffffffffff\n      and\n      sub\n        /* \"@openzeppelin/contracts/access/Ownable.sol\":2623:2714  if (newOwner == address(0)) {... */\n      tag_163\n      jumpi\n        /* \"@openzeppelin/contracts/access/Ownable.sol\":2700:2701  0 */\n      0x00\n        /* \"@openzeppelin/contracts/access/Ownable.sol\":2672:2703  OwnableInvalidOwner(address(0)) */\n      mload(0x40)\n      0x1e4fbdf700000000000000000000000000000000000000000000000000000000\n      dup2\n      mstore\n      0x04\n      add\n      tag_164\n      swap2\n      swap1\n      tag_76\n      jump\t// in\n    tag_164:\n      mload(0x40)\n      dup1\n      swap2\n      sub\n      swap1\n      revert\n        /* \"@openzeppelin/contracts/access/Ownable.sol\":2623:2714  if (newOwner == address(0)) {... */\n    tag_163:\n        /* \"@openzeppelin/contracts/access/Ownable.sol\":2723:2751  _transferOwnership(newOwner) */\n      tag_165\n        /* \"@openzeppelin/contracts/access/Ownable.sol\":2742:2750  newOwner */\n      dup2\n        /* \"@openzeppelin/contracts/access/Ownable.sol\":2723:2741  _transferOwnership */\n      tag_148\n        /* \"@openzeppelin/contracts/access/Ownable.sol\":2723:2751  _transferOwnership(newOwner) */\n      jump\t// in\n    tag_165:\n        /* \"@openzeppelin/contracts/access/Ownable.sol\":2543:2758  function transferOwnership(address newOwner) public virtual onlyOwner {... */\n      pop\n      jump\t// out\n        /* \"contracts/CelebStarRewards.sol\":1069:1110  mapping(uint256 => Reward) public rewards */\n    tag_103:\n      mstore(0x20, 0x06)\n      dup1\n      0x00\n      mstore\n      keccak256(0x00, 0x40)\n      0x00\n      swap2\n      pop\n      swap1\n      pop\n      dup1\n      0x00\n      add\n      sload\n      swap1\n      dup1\n      0x01\n      add\n      sload\n      swap1\n      dup1\n      0x02\n      add\n      sload\n      swap1\n      dup1\n      0x03\n      add\n      sload\n      swap1\n      dup1\n      0x04\n      add\n      sload\n      swap1\n      dup1\n      0x05\n      add\n      sload\n      swap1\n      dup1\n      0x06\n      add\n      0x00\n      swap1\n      sload\n      swap1\n      0x0100\n      exp\n      swap1\n      div\n      0xff\n      and\n      swap1\n      pop\n      dup8\n      jump\t// out\n        /* \"contracts/CelebStarRewards.sol\":5947:6097  function isFirstTimeRewardClaimed(address _account) public view returns(bool) {... */\n    tag_108:\n        /* \"contracts/CelebStarRewards.sol\":6019:6023  bool */\n      0x00\n        /* \"contracts/CelebStarRewards.sol\":6086:6090  true */\n      0x01\n        /* \"contracts/CelebStarRewards.sol\":6042:6090  accountFirstTimeReward[_account].claimed == true */\n      iszero\n      iszero\n        /* \"contracts/CelebStarRewards.sol\":6042:6064  accountFirstTimeReward */\n      0x07\n        /* \"contracts/CelebStarRewards.sol\":6042:6074  accountFirstTimeReward[_account] */\n      0x00\n        /* \"contracts/CelebStarRewards.sol\":6065:6073  _account */\n      dup5\n        /* \"contracts/CelebStarRewards.sol\":6042:6074  accountFirstTimeReward[_account] */\n      0xffffffffffffffffffffffffffffffffffffffff\n      and\n      0xffffffffffffffffffffffffffffffffffffffff\n      and\n      dup2\n      mstore\n      0x20\n      add\n      swap1\n      dup2\n      mstore\n      0x20\n      add\n      0x00\n      keccak256\n        /* \"contracts/CelebStarRewards.sol\":6042:6082  accountFirstTimeReward[_account].claimed */\n      0x02\n      add\n      0x00\n      swap1\n      sload\n      swap1\n      0x0100\n      exp\n      swap1\n      div\n      0xff\n      and\n        /* \"contracts/CelebStarRewards.sol\":6042:6090  accountFirstTimeReward[_account].claimed == true */\n      iszero\n      iszero\n      eq\n        /* \"contracts/CelebStarRewards.sol\":6035:6090  return accountFirstTimeReward[_account].claimed == true */\n      swap1\n      pop\n        /* \"contracts/CelebStarRewards.sol\":5947:6097  function isFirstTimeRewardClaimed(address _account) public view returns(bool) {... */\n      swap2\n      swap1\n      pop\n      jump\t// out\n        /* \"@openzeppelin/contracts/utils/math/SafeMath.sol\":3465:3561  function mul(uint256 a, uint256 b) internal pure returns (uint256) {... */\n    tag_119:\n        /* \"@openzeppelin/contracts/utils/math/SafeMath.sol\":3523:3530  uint256 */\n      0x00\n        /* \"@openzeppelin/contracts/utils/math/SafeMath.sol\":3553:3554  b */\n      dup2\n        /* \"@openzeppelin/contracts/utils/math/SafeMath.sol\":3549:3550  a */\n      dup4\n        /* \"@openzeppelin/contracts/utils/math/SafeMath.sol\":3549:3554  a * b */\n      tag_168\n      swap2\n      swap1\n      tag_169\n      jump\t// in\n    tag_168:\n        /* \"@openzeppelin/contracts/utils/math/SafeMath.sol\":3542:3554  return a * b */\n      swap1\n      pop\n        /* \"@openzeppelin/contracts/utils/math/SafeMath.sol\":3465:3561  function mul(uint256 a, uint256 b) internal pure returns (uint256) {... */\n      swap3\n      swap2\n      pop\n      pop\n      jump\t// out\n        /* \"@openzeppelin/contracts/utils/math/SafeMath.sol\":3850:3946  function div(uint256 a, uint256 b) internal pure returns (uint256) {... */\n    tag_120:\n        /* \"@openzeppelin/contracts/utils/math/SafeMath.sol\":3908:3915  uint256 */\n      0x00\n        /* \"@openzeppelin/contracts/utils/math/SafeMath.sol\":3938:3939  b */\n      dup2\n        /* \"@openzeppelin/contracts/utils/math/SafeMath.sol\":3934:3935  a */\n      dup4\n        /* \"@openzeppelin/contracts/utils/math/SafeMath.sol\":3934:3939  a / b */\n      tag_171\n      swap2\n      swap1\n      tag_172\n      jump\t// in\n    tag_171:\n        /* \"@openzeppelin/contracts/utils/math/SafeMath.sol\":3927:3939  return a / b */\n      swap1\n      pop\n        /* \"@openzeppelin/contracts/utils/math/SafeMath.sol\":3850:3946  function div(uint256 a, uint256 b) internal pure returns (uint256) {... */\n      swap3\n      swap2\n      pop\n      pop\n      jump\t// out\n        /* \"@openzeppelin/contracts/access/Ownable.sol\":1796:1958  function _checkOwner() internal view virtual {... */\n    tag_142:\n        /* \"@openzeppelin/contracts/access/Ownable.sol\":1866:1878  _msgSender() */\n      tag_174\n        /* \"@openzeppelin/contracts/access/Ownable.sol\":1866:1876  _msgSender */\n      tag_175\n        /* \"@openzeppelin/contracts/access/Ownable.sol\":1866:1878  _msgSender() */\n      jump\t// in\n    tag_174:\n        /* \"@openzeppelin/contracts/access/Ownable.sol\":1855:1878  owner() != _msgSender() */\n      0xffffffffffffffffffffffffffffffffffffffff\n      and\n        /* \"@openzeppelin/contracts/access/Ownable.sol\":1855:1862  owner() */\n      tag_176\n        /* \"@openzeppelin/contracts/access/Ownable.sol\":1855:1860  owner */\n      tag_74\n        /* \"@openzeppelin/contracts/access/Ownable.sol\":1855:1862  owner() */\n      jump\t// in\n    tag_176:\n        /* \"@openzeppelin/contracts/access/Ownable.sol\":1855:1878  owner() != _msgSender() */\n      0xffffffffffffffffffffffffffffffffffffffff\n      and\n      eq\n        /* \"@openzeppelin/contracts/access/Ownable.sol\":1851:1952  if (owner() != _msgSender()) {... */\n      tag_177\n      jumpi\n        /* \"@openzeppelin/contracts/access/Ownable.sol\":1928:1940  _msgSender() */\n      tag_178\n        /* \"@openzeppelin/contracts/access/Ownable.sol\":1928:1938  _msgSender */\n      tag_175\n        /* \"@openzeppelin/contracts/access/Ownable.sol\":1928:1940  _msgSender() */\n      jump\t// in\n    tag_178:\n        /* \"@openzeppelin/contracts/access/Ownable.sol\":1901:1941  OwnableUnauthorizedAccount(_msgSender()) */\n      mload(0x40)\n      0x118cdaa700000000000000000000000000000000000000000000000000000000\n      dup2\n      mstore\n      0x04\n      add\n      tag_179\n      swap2\n      swap1\n      tag_76\n      jump\t// in\n    tag_179:\n      mload(0x40)\n      dup1\n      swap2\n      sub\n      swap1\n      revert\n        /* \"@openzeppelin/contracts/access/Ownable.sol\":1851:1952  if (owner() != _msgSender()) {... */\n    tag_177:\n        /* \"@openzeppelin/contracts/access/Ownable.sol\":1796:1958  function _checkOwner() internal view virtual {... */\n      jump\t// out\n        /* \"@openzeppelin/contracts/access/Ownable.sol\":2912:3099  function _transferOwnership(address newOwner) internal virtual {... */\n    tag_148:\n        /* \"@openzeppelin/contracts/access/Ownable.sol\":2985:3001  address oldOwner */\n      0x00\n        /* \"@openzeppelin/contracts/access/Ownable.sol\":3004:3010  _owner */\n      dup1\n      0x00\n      swap1\n      sload\n      swap1\n      0x0100\n      exp\n      swap1\n      div\n      0xffffffffffffffffffffffffffffffffffffffff\n      and\n        /* \"@openzeppelin/contracts/access/Ownable.sol\":2985:3010  address oldOwner = _owner */\n      swap1\n      pop\n        /* \"@openzeppelin/contracts/access/Ownable.sol\":3029:3037  newOwner */\n      dup2\n        /* \"@openzeppelin/contracts/access/Ownable.sol\":3020:3026  _owner */\n      0x00\n      dup1\n        /* \"@openzeppelin/contracts/access/Ownable.sol\":3020:3037  _owner = newOwner */\n      0x0100\n      exp\n      dup2\n      sload\n      dup2\n      0xffffffffffffffffffffffffffffffffffffffff\n      mul\n      not\n      and\n      swap1\n      dup4\n      0xffffffffffffffffffffffffffffffffffffffff\n      and\n      mul\n      or\n      swap1\n      sstore\n      pop\n        /* \"@openzeppelin/contracts/access/Ownable.sol\":3083:3091  newOwner */\n      dup2\n        /* \"@openzeppelin/contracts/access/Ownable.sol\":3052:3092  OwnershipTransferred(oldOwner, newOwner) */\n      0xffffffffffffffffffffffffffffffffffffffff\n      and\n        /* \"@openzeppelin/contracts/access/Ownable.sol\":3073:3081  oldOwner */\n      dup2\n        /* \"@openzeppelin/contracts/access/Ownable.sol\":3052:3092  OwnershipTransferred(oldOwner, newOwner) */\n      0xffffffffffffffffffffffffffffffffffffffff\n      and\n      0x8be0079c531659141344cd1fd0a4f28419497f9722a3daafe3b4186f6b6457e0\n      mload(0x40)\n      mload(0x40)\n      dup1\n      swap2\n      sub\n      swap1\n      log3\n        /* \"@openzeppelin/contracts/access/Ownable.sol\":2975:3099  {... */\n      pop\n        /* \"@openzeppelin/contracts/access/Ownable.sol\":2912:3099  function _transferOwnership(address newOwner) internal virtual {... */\n      pop\n      jump\t// out\n        /* \"@openzeppelin/contracts/utils/Context.sol\":656:752  function _msgSender() internal view virtual returns (address) {... */\n    tag_175:\n        /* \"@openzeppelin/contracts/utils/Context.sol\":709:716  address */\n      0x00\n        /* \"@openzeppelin/contracts/utils/Context.sol\":735:745  msg.sender */\n      caller\n        /* \"@openzeppelin/contracts/utils/Context.sol\":728:745  return msg.sender */\n      swap1\n      pop\n        /* \"@openzeppelin/contracts/utils/Context.sol\":656:752  function _msgSender() internal view virtual returns (address) {... */\n      swap1\n      jump\t// out\n        /* \"#utility.yul\":88:205   */\n    tag_183:\n        /* \"#utility.yul\":197:198   */\n      0x00\n        /* \"#utility.yul\":194:195   */\n      dup1\n        /* \"#utility.yul\":187:199   */\n      revert\n        /* \"#utility.yul\":334:460   */\n    tag_185:\n        /* \"#utility.yul\":371:378   */\n      0x00\n        /* \"#utility.yul\":411:453   */\n      0xffffffffffffffffffffffffffffffffffffffff\n        /* \"#utility.yul\":404:409   */\n      dup3\n        /* \"#utility.yul\":400:454   */\n      and\n        /* \"#utility.yul\":389:454   */\n      swap1\n      pop\n        /* \"#utility.yul\":334:460   */\n      swap2\n      swap1\n      pop\n      jump\t// out\n        /* \"#utility.yul\":466:562   */\n    tag_186:\n        /* \"#utility.yul\":503:510   */\n      0x00\n        /* \"#utility.yul\":532:556   */\n      tag_210\n        /* \"#utility.yul\":550:555   */\n      dup3\n        /* \"#utility.yul\":532:556   */\n      tag_185\n      jump\t// in\n    tag_210:\n        /* \"#utility.yul\":521:556   */\n      swap1\n      pop\n        /* \"#utility.yul\":466:562   */\n      swap2\n      swap1\n      pop\n      jump\t// out\n        /* \"#utility.yul\":568:690   */\n    tag_187:\n        /* \"#utility.yul\":641:665   */\n      tag_212\n        /* \"#utility.yul\":659:664   */\n      dup2\n        /* \"#utility.yul\":641:665   */\n      tag_186\n      jump\t// in\n    tag_212:\n        /* \"#utility.yul\":634:639   */\n      dup2\n        /* \"#utility.yul\":631:666   */\n      eq\n        /* \"#utility.yul\":621:684   */\n      tag_213\n      jumpi\n        /* \"#utility.yul\":680:681   */\n      0x00\n        /* \"#utility.yul\":677:678   */\n      dup1\n        /* \"#utility.yul\":670:682   */\n      revert\n        /* \"#utility.yul\":621:684   */\n    tag_213:\n        /* \"#utility.yul\":568:690   */\n      pop\n      jump\t// out\n        /* \"#utility.yul\":696:835   */\n    tag_188:\n        /* \"#utility.yul\":742:747   */\n      0x00\n        /* \"#utility.yul\":780:786   */\n      dup2\n        /* \"#utility.yul\":767:787   */\n      calldataload\n        /* \"#utility.yul\":758:787   */\n      swap1\n      pop\n        /* \"#utility.yul\":796:829   */\n      tag_215\n        /* \"#utility.yul\":823:828   */\n      dup2\n        /* \"#utility.yul\":796:829   */\n      tag_187\n      jump\t// in\n    tag_215:\n        /* \"#utility.yul\":696:835   */\n      swap3\n      swap2\n      pop\n      pop\n      jump\t// out\n        /* \"#utility.yul\":841:1170   */\n    tag_29:\n        /* \"#utility.yul\":900:906   */\n      0x00\n        /* \"#utility.yul\":949:951   */\n      0x20\n        /* \"#utility.yul\":937:946   */\n      dup3\n        /* \"#utility.yul\":928:935   */\n      dup5\n        /* \"#utility.yul\":924:947   */\n      sub\n        /* \"#utility.yul\":920:952   */\n      slt\n        /* \"#utility.yul\":917:1036   */\n      iszero\n      tag_217\n      jumpi\n        /* \"#utility.yul\":955:1034   */\n      tag_218\n      tag_183\n      jump\t// in\n    tag_218:\n        /* \"#utility.yul\":917:1036   */\n    tag_217:\n        /* \"#utility.yul\":1075:1076   */\n      0x00\n        /* \"#utility.yul\":1100:1153   */\n      tag_219\n        /* \"#utility.yul\":1145:1152   */\n      dup5\n        /* \"#utility.yul\":1136:1142   */\n      dup3\n        /* \"#utility.yul\":1125:1134   */\n      dup6\n        /* \"#utility.yul\":1121:1143   */\n      add\n        /* \"#utility.yul\":1100:1153   */\n      tag_188\n      jump\t// in\n    tag_219:\n        /* \"#utility.yul\":1090:1153   */\n      swap2\n      pop\n        /* \"#utility.yul\":1046:1163   */\n      pop\n        /* \"#utility.yul\":841:1170   */\n      swap3\n      swap2\n      pop\n      pop\n      jump\t// out\n        /* \"#utility.yul\":1176:1253   */\n    tag_189:\n        /* \"#utility.yul\":1213:1220   */\n      0x00\n        /* \"#utility.yul\":1242:1247   */\n      dup2\n        /* \"#utility.yul\":1231:1247   */\n      swap1\n      pop\n        /* \"#utility.yul\":1176:1253   */\n      swap2\n      swap1\n      pop\n      jump\t// out\n        /* \"#utility.yul\":1259:1377   */\n    tag_190:\n        /* \"#utility.yul\":1346:1370   */\n      tag_222\n        /* \"#utility.yul\":1364:1369   */\n      dup2\n        /* \"#utility.yul\":1346:1370   */\n      tag_189\n      jump\t// in\n    tag_222:\n        /* \"#utility.yul\":1341:1344   */\n      dup3\n        /* \"#utility.yul\":1334:1371   */\n      mstore\n        /* \"#utility.yul\":1259:1377   */\n      pop\n      pop\n      jump\t// out\n        /* \"#utility.yul\":1383:1473   */\n    tag_191:\n        /* \"#utility.yul\":1417:1424   */\n      0x00\n        /* \"#utility.yul\":1460:1465   */\n      dup2\n        /* \"#utility.yul\":1453:1466   */\n      iszero\n        /* \"#utility.yul\":1446:1467   */\n      iszero\n        /* \"#utility.yul\":1435:1467   */\n      swap1\n      pop\n        /* \"#utility.yul\":1383:1473   */\n      swap2\n      swap1\n      pop\n      jump\t// out\n        /* \"#utility.yul\":1479:1588   */\n    tag_192:\n        /* \"#utility.yul\":1560:1581   */\n      tag_225\n        /* \"#utility.yul\":1575:1580   */\n      dup2\n        /* \"#utility.yul\":1560:1581   */\n      tag_191\n      jump\t// in\n    tag_225:\n        /* \"#utility.yul\":1555:1558   */\n      dup3\n        /* \"#utility.yul\":1548:1582   */\n      mstore\n        /* \"#utility.yul\":1479:1588   */\n      pop\n      pop\n      jump\t// out\n        /* \"#utility.yul\":1594:2024   */\n    tag_32:\n        /* \"#utility.yul\":1737:1741   */\n      0x00\n        /* \"#utility.yul\":1775:1777   */\n      0x60\n        /* \"#utility.yul\":1764:1773   */\n      dup3\n        /* \"#utility.yul\":1760:1778   */\n      add\n        /* \"#utility.yul\":1752:1778   */\n      swap1\n      pop\n        /* \"#utility.yul\":1788:1859   */\n      tag_227\n        /* \"#utility.yul\":1856:1857   */\n      0x00\n        /* \"#utility.yul\":1845:1854   */\n      dup4\n        /* \"#utility.yul\":1841:1858   */\n      add\n        /* \"#utility.yul\":1832:1838   */\n      dup7\n        /* \"#utility.yul\":1788:1859   */\n      tag_190\n      jump\t// in\n    tag_227:\n        /* \"#utility.yul\":1869:1941   */\n      tag_228\n        /* \"#utility.yul\":1937:1939   */\n      0x20\n        /* \"#utility.yul\":1926:1935   */\n      dup4\n        /* \"#utility.yul\":1922:1940   */\n      add\n        /* \"#utility.yul\":1913:1919   */\n      dup6\n        /* \"#utility.yul\":1869:1941   */\n      tag_190\n      jump\t// in\n    tag_228:\n        /* \"#utility.yul\":1951:2017   */\n      tag_229\n        /* \"#utility.yul\":2013:2015   */\n      0x40\n        /* \"#utility.yul\":2002:2011   */\n      dup4\n        /* \"#utility.yul\":1998:2016   */\n      add\n        /* \"#utility.yul\":1989:1995   */\n      dup5\n        /* \"#utility.yul\":1951:2017   */\n      tag_192\n      jump\t// in\n    tag_229:\n        /* \"#utility.yul\":1594:2024   */\n      swap5\n      swap4\n      pop\n      pop\n      pop\n      pop\n      jump\t// out\n        /* \"#utility.yul\":2030:2240   */\n    tag_36:\n        /* \"#utility.yul\":2117:2121   */\n      0x00\n        /* \"#utility.yul\":2155:2157   */\n      0x20\n        /* \"#utility.yul\":2144:2153   */\n      dup3\n        /* \"#utility.yul\":2140:2158   */\n      add\n        /* \"#utility.yul\":2132:2158   */\n      swap1\n      pop\n        /* \"#utility.yul\":2168:2233   */\n      tag_231\n        /* \"#utility.yul\":2230:2231   */\n      0x00\n        /* \"#utility.yul\":2219:2228   */\n      dup4\n        /* \"#utility.yul\":2215:2232   */\n      add\n        /* \"#utility.yul\":2206:2212   */\n      dup5\n        /* \"#utility.yul\":2168:2233   */\n      tag_192\n      jump\t// in\n    tag_231:\n        /* \"#utility.yul\":2030:2240   */\n      swap3\n      swap2\n      pop\n      pop\n      jump\t// out\n        /* \"#utility.yul\":2246:2368   */\n    tag_193:\n        /* \"#utility.yul\":2319:2343   */\n      tag_233\n        /* \"#utility.yul\":2337:2342   */\n      dup2\n        /* \"#utility.yul\":2319:2343   */\n      tag_189\n      jump\t// in\n    tag_233:\n        /* \"#utility.yul\":2312:2317   */\n      dup2\n        /* \"#utility.yul\":2309:2344   */\n      eq\n        /* \"#utility.yul\":2299:2362   */\n      tag_234\n      jumpi\n        /* \"#utility.yul\":2358:2359   */\n      0x00\n        /* \"#utility.yul\":2355:2356   */\n      dup1\n        /* \"#utility.yul\":2348:2360   */\n      revert\n        /* \"#utility.yul\":2299:2362   */\n    tag_234:\n        /* \"#utility.yul\":2246:2368   */\n      pop\n      jump\t// out\n        /* \"#utility.yul\":2374:2513   */\n    tag_194:\n        /* \"#utility.yul\":2420:2425   */\n      0x00\n        /* \"#utility.yul\":2458:2464   */\n      dup2\n        /* \"#utility.yul\":2445:2465   */\n      calldataload\n        /* \"#utility.yul\":2436:2465   */\n      swap1\n      pop\n        /* \"#utility.yul\":2474:2507   */\n      tag_236\n        /* \"#utility.yul\":2501:2506   */\n      dup2\n        /* \"#utility.yul\":2474:2507   */\n      tag_193\n      jump\t// in\n    tag_236:\n        /* \"#utility.yul\":2374:2513   */\n      swap3\n      swap2\n      pop\n      pop\n      jump\t// out\n        /* \"#utility.yul\":2519:2993   */\n    tag_39:\n        /* \"#utility.yul\":2587:2593   */\n      0x00\n        /* \"#utility.yul\":2595:2601   */\n      dup1\n        /* \"#utility.yul\":2644:2646   */\n      0x40\n        /* \"#utility.yul\":2632:2641   */\n      dup4\n        /* \"#utility.yul\":2623:2630   */\n      dup6\n        /* \"#utility.yul\":2619:2642   */\n      sub\n        /* \"#utility.yul\":2615:2647   */\n      slt\n        /* \"#utility.yul\":2612:2731   */\n      iszero\n      tag_238\n      jumpi\n        /* \"#utility.yul\":2650:2729   */\n      tag_239\n      tag_183\n      jump\t// in\n    tag_239:\n        /* \"#utility.yul\":2612:2731   */\n    tag_238:\n        /* \"#utility.yul\":2770:2771   */\n      0x00\n        /* \"#utility.yul\":2795:2848   */\n      tag_240\n        /* \"#utility.yul\":2840:2847   */\n      dup6\n        /* \"#utility.yul\":2831:2837   */\n      dup3\n        /* \"#utility.yul\":2820:2829   */\n      dup7\n        /* \"#utility.yul\":2816:2838   */\n      add\n        /* \"#utility.yul\":2795:2848   */\n      tag_194\n      jump\t// in\n    tag_240:\n        /* \"#utility.yul\":2785:2848   */\n      swap3\n      pop\n        /* \"#utility.yul\":2741:2858   */\n      pop\n        /* \"#utility.yul\":2897:2899   */\n      0x20\n        /* \"#utility.yul\":2923:2976   */\n      tag_241\n        /* \"#utility.yul\":2968:2975   */\n      dup6\n        /* \"#utility.yul\":2959:2965   */\n      dup3\n        /* \"#utility.yul\":2948:2957   */\n      dup7\n        /* \"#utility.yul\":2944:2966   */\n      add\n        /* \"#utility.yul\":2923:2976   */\n      tag_194\n      jump\t// in\n    tag_241:\n        /* \"#utility.yul\":2913:2976   */\n      swap2\n      pop\n        /* \"#utility.yul\":2868:2986   */\n      pop\n        /* \"#utility.yul\":2519:2993   */\n      swap3\n      pop\n      swap3\n      swap1\n      pop\n      jump\t// out\n        /* \"#utility.yul\":2999:3221   */\n    tag_42:\n        /* \"#utility.yul\":3092:3096   */\n      0x00\n        /* \"#utility.yul\":3130:3132   */\n      0x20\n        /* \"#utility.yul\":3119:3128   */\n      dup3\n        /* \"#utility.yul\":3115:3133   */\n      add\n        /* \"#utility.yul\":3107:3133   */\n      swap1\n      pop\n        /* \"#utility.yul\":3143:3214   */\n      tag_243\n        /* \"#utility.yul\":3211:3212   */\n      0x00\n        /* \"#utility.yul\":3200:3209   */\n      dup4\n        /* \"#utility.yul\":3196:3213   */\n      add\n        /* \"#utility.yul\":3187:3193   */\n      dup5\n        /* \"#utility.yul\":3143:3214   */\n      tag_190\n      jump\t// in\n    tag_243:\n        /* \"#utility.yul\":2999:3221   */\n      swap3\n      swap2\n      pop\n      pop\n      jump\t// out\n        /* \"#utility.yul\":3227:3556   */\n    tag_51:\n        /* \"#utility.yul\":3286:3292   */\n      0x00\n        /* \"#utility.yul\":3335:3337   */\n      0x20\n        /* \"#utility.yul\":3323:3332   */\n      dup3\n        /* \"#utility.yul\":3314:3321   */\n      dup5\n        /* \"#utility.yul\":3310:3333   */\n      sub\n        /* \"#utility.yul\":3306:3338   */\n      slt\n        /* \"#utility.yul\":3303:3422   */\n      iszero\n      tag_245\n      jumpi\n        /* \"#utility.yul\":3341:3420   */\n      tag_246\n      tag_183\n      jump\t// in\n    tag_246:\n        /* \"#utility.yul\":3303:3422   */\n    tag_245:\n        /* \"#utility.yul\":3461:3462   */\n      0x00\n        /* \"#utility.yul\":3486:3539   */\n      tag_247\n        /* \"#utility.yul\":3531:3538   */\n      dup5\n        /* \"#utility.yul\":3522:3528   */\n      dup3\n        /* \"#utility.yul\":3511:3520   */\n      dup6\n        /* \"#utility.yul\":3507:3529   */\n      add\n        /* \"#utility.yul\":3486:3539   */\n      tag_194\n      jump\t// in\n    tag_247:\n        /* \"#utility.yul\":3476:3539   */\n      swap2\n      pop\n        /* \"#utility.yul\":3432:3549   */\n      pop\n        /* \"#utility.yul\":3227:3556   */\n      swap3\n      swap2\n      pop\n      pop\n      jump\t// out\n        /* \"#utility.yul\":3562:3882   */\n    tag_54:\n        /* \"#utility.yul\":3677:3681   */\n      0x00\n        /* \"#utility.yul\":3715:3717   */\n      0x40\n        /* \"#utility.yul\":3704:3713   */\n      dup3\n        /* \"#utility.yul\":3700:3718   */\n      add\n        /* \"#utility.yul\":3692:3718   */\n      swap1\n      pop\n        /* \"#utility.yul\":3728:3793   */\n      tag_249\n        /* \"#utility.yul\":3790:3791   */\n      0x00\n        /* \"#utility.yul\":3779:3788   */\n      dup4\n        /* \"#utility.yul\":3775:3792   */\n      add\n        /* \"#utility.yul\":3766:3772   */\n      dup6\n        /* \"#utility.yul\":3728:3793   */\n      tag_192\n      jump\t// in\n    tag_249:\n        /* \"#utility.yul\":3803:3875   */\n      tag_250\n        /* \"#utility.yul\":3871:3873   */\n      0x20\n        /* \"#utility.yul\":3860:3869   */\n      dup4\n        /* \"#utility.yul\":3856:3874   */\n      add\n        /* \"#utility.yul\":3847:3853   */\n      dup5\n        /* \"#utility.yul\":3803:3875   */\n      tag_190\n      jump\t// in\n    tag_250:\n        /* \"#utility.yul\":3562:3882   */\n      swap4\n      swap3\n      pop\n      pop\n      pop\n      jump\t// out\n        /* \"#utility.yul\":3888:4362   */\n    tag_66:\n        /* \"#utility.yul\":3956:3962   */\n      0x00\n        /* \"#utility.yul\":3964:3970   */\n      dup1\n        /* \"#utility.yul\":4013:4015   */\n      0x40\n        /* \"#utility.yul\":4001:4010   */\n      dup4\n        /* \"#utility.yul\":3992:3999   */\n      dup6\n        /* \"#utility.yul\":3988:4011   */\n      sub\n        /* \"#utility.yul\":3984:4016   */\n      slt\n        /* \"#utility.yul\":3981:4100   */\n      iszero\n      tag_252\n      jumpi\n        /* \"#utility.yul\":4019:4098   */\n      tag_253\n      tag_183\n      jump\t// in\n    tag_253:\n        /* \"#utility.yul\":3981:4100   */\n    tag_252:\n        /* \"#utility.yul\":4139:4140   */\n      0x00\n        /* \"#utility.yul\":4164:4217   */\n      tag_254\n        /* \"#utility.yul\":4209:4216   */\n      dup6\n        /* \"#utility.yul\":4200:4206   */\n      dup3\n        /* \"#utility.yul\":4189:4198   */\n      dup7\n        /* \"#utility.yul\":4185:4207   */\n      add\n        /* \"#utility.yul\":4164:4217   */\n      tag_188\n      jump\t// in\n    tag_254:\n        /* \"#utility.yul\":4154:4217   */\n      swap3\n      pop\n        /* \"#utility.yul\":4110:4227   */\n      pop\n        /* \"#utility.yul\":4266:4268   */\n      0x20\n        /* \"#utility.yul\":4292:4345   */\n      tag_255\n        /* \"#utility.yul\":4337:4344   */\n      dup6\n        /* \"#utility.yul\":4328:4334   */\n      dup3\n        /* \"#utility.yul\":4317:4326   */\n      dup7\n        /* \"#utility.yul\":4313:4335   */\n      add\n        /* \"#utility.yul\":4292:4345   */\n      tag_194\n      jump\t// in\n    tag_255:\n        /* \"#utility.yul\":4282:4345   */\n      swap2\n      pop\n        /* \"#utility.yul\":4237:4355   */\n      pop\n        /* \"#utility.yul\":3888:4362   */\n      swap3\n      pop\n      swap3\n      swap1\n      pop\n      jump\t// out\n        /* \"#utility.yul\":4368:4486   */\n    tag_195:\n        /* \"#utility.yul\":4455:4479   */\n      tag_257\n        /* \"#utility.yul\":4473:4478   */\n      dup2\n        /* \"#utility.yul\":4455:4479   */\n      tag_186\n      jump\t// in\n    tag_257:\n        /* \"#utility.yul\":4450:4453   */\n      dup3\n        /* \"#utility.yul\":4443:4480   */\n      mstore\n        /* \"#utility.yul\":4368:4486   */\n      pop\n      pop\n      jump\t// out\n        /* \"#utility.yul\":4492:4714   */\n    tag_76:\n        /* \"#utility.yul\":4585:4589   */\n      0x00\n        /* \"#utility.yul\":4623:4625   */\n      0x20\n        /* \"#utility.yul\":4612:4621   */\n      dup3\n        /* \"#utility.yul\":4608:4626   */\n      add\n        /* \"#utility.yul\":4600:4626   */\n      swap1\n      pop\n        /* \"#utility.yul\":4636:4707   */\n      tag_259\n        /* \"#utility.yul\":4704:4705   */\n      0x00\n        /* \"#utility.yul\":4693:4702   */\n      dup4\n        /* \"#utility.yul\":4689:4706   */\n      add\n        /* \"#utility.yul\":4680:4686   */\n      dup5\n        /* \"#utility.yul\":4636:4707   */\n      tag_195\n      jump\t// in\n    tag_259:\n        /* \"#utility.yul\":4492:4714   */\n      swap3\n      swap2\n      pop\n      pop\n      jump\t// out\n        /* \"#utility.yul\":4720:5594   */\n    tag_105:\n        /* \"#utility.yul\":4975:4979   */\n      0x00\n        /* \"#utility.yul\":5013:5016   */\n      0xe0\n        /* \"#utility.yul\":5002:5011   */\n      dup3\n        /* \"#utility.yul\":4998:5017   */\n      add\n        /* \"#utility.yul\":4990:5017   */\n      swap1\n      pop\n        /* \"#utility.yul\":5027:5098   */\n      tag_261\n        /* \"#utility.yul\":5095:5096   */\n      0x00\n        /* \"#utility.yul\":5084:5093   */\n      dup4\n        /* \"#utility.yul\":5080:5097   */\n      add\n        /* \"#utility.yul\":5071:5077   */\n      dup11\n        /* \"#utility.yul\":5027:5098   */\n      tag_190\n      jump\t// in\n    tag_261:\n        /* \"#utility.yul\":5108:5180   */\n      tag_262\n        /* \"#utility.yul\":5176:5178   */\n      0x20\n        /* \"#utility.yul\":5165:5174   */\n      dup4\n        /* \"#utility.yul\":5161:5179   */\n      add\n        /* \"#utility.yul\":5152:5158   */\n      dup10\n        /* \"#utility.yul\":5108:5180   */\n      tag_190\n      jump\t// in\n    tag_262:\n        /* \"#utility.yul\":5190:5262   */\n      tag_263\n        /* \"#utility.yul\":5258:5260   */\n      0x40\n        /* \"#utility.yul\":5247:5256   */\n      dup4\n        /* \"#utility.yul\":5243:5261   */\n      add\n        /* \"#utility.yul\":5234:5240   */\n      dup9\n        /* \"#utility.yul\":5190:5262   */\n      tag_190\n      jump\t// in\n    tag_263:\n        /* \"#utility.yul\":5272:5344   */\n      tag_264\n        /* \"#utility.yul\":5340:5342   */\n      0x60\n        /* \"#utility.yul\":5329:5338   */\n      dup4\n        /* \"#utility.yul\":5325:5343   */\n      add\n        /* \"#utility.yul\":5316:5322   */\n      dup8\n        /* \"#utility.yul\":5272:5344   */\n      tag_190\n      jump\t// in\n    tag_264:\n        /* \"#utility.yul\":5354:5427   */\n      tag_265\n        /* \"#utility.yul\":5422:5425   */\n      0x80\n        /* \"#utility.yul\":5411:5420   */\n      dup4\n        /* \"#utility.yul\":5407:5426   */\n      add\n        /* \"#utility.yul\":5398:5404   */\n      dup7\n        /* \"#utility.yul\":5354:5427   */\n      tag_190\n      jump\t// in\n    tag_265:\n        /* \"#utility.yul\":5437:5510   */\n      tag_266\n        /* \"#utility.yul\":5505:5508   */\n      0xa0\n        /* \"#utility.yul\":5494:5503   */\n      dup4\n        /* \"#utility.yul\":5490:5509   */\n      add\n        /* \"#utility.yul\":5481:5487   */\n      dup6\n        /* \"#utility.yul\":5437:5510   */\n      tag_190\n      jump\t// in\n    tag_266:\n        /* \"#utility.yul\":5520:5587   */\n      tag_267\n        /* \"#utility.yul\":5582:5585   */\n      0xc0\n        /* \"#utility.yul\":5571:5580   */\n      dup4\n        /* \"#utility.yul\":5567:5586   */\n      add\n        /* \"#utility.yul\":5558:5564   */\n      dup5\n        /* \"#utility.yul\":5520:5587   */\n      tag_192\n      jump\t// in\n    tag_267:\n        /* \"#utility.yul\":4720:5594   */\n      swap9\n      swap8\n      pop\n      pop\n      pop\n      pop\n      pop\n      pop\n      pop\n      pop\n      jump\t// out\n        /* \"#utility.yul\":5600:5780   */\n    tag_196:\n        /* \"#utility.yul\":5648:5725   */\n      0x4e487b7100000000000000000000000000000000000000000000000000000000\n        /* \"#utility.yul\":5645:5646   */\n      0x00\n        /* \"#utility.yul\":5638:5726   */\n      mstore\n        /* \"#utility.yul\":5745:5749   */\n      0x11\n        /* \"#utility.yul\":5742:5743   */\n      0x04\n        /* \"#utility.yul\":5735:5750   */\n      mstore\n        /* \"#utility.yul\":5769:5773   */\n      0x24\n        /* \"#utility.yul\":5766:5767   */\n      0x00\n        /* \"#utility.yul\":5759:5774   */\n      revert\n        /* \"#utility.yul\":5786:5980   */\n    tag_113:\n        /* \"#utility.yul\":5826:5830   */\n      0x00\n        /* \"#utility.yul\":5846:5866   */\n      tag_270\n        /* \"#utility.yul\":5864:5865   */\n      dup3\n        /* \"#utility.yul\":5846:5866   */\n      tag_189\n      jump\t// in\n    tag_270:\n        /* \"#utility.yul\":5841:5866   */\n      swap2\n      pop\n        /* \"#utility.yul\":5880:5900   */\n      tag_271\n        /* \"#utility.yul\":5898:5899   */\n      dup4\n        /* \"#utility.yul\":5880:5900   */\n      tag_189\n      jump\t// in\n    tag_271:\n        /* \"#utility.yul\":5875:5900   */\n      swap3\n      pop\n        /* \"#utility.yul\":5924:5925   */\n      dup3\n        /* \"#utility.yul\":5921:5922   */\n      dup3\n        /* \"#utility.yul\":5917:5926   */\n      sub\n        /* \"#utility.yul\":5909:5926   */\n      swap1\n      pop\n        /* \"#utility.yul\":5948:5949   */\n      dup2\n        /* \"#utility.yul\":5942:5946   */\n      dup2\n        /* \"#utility.yul\":5939:5950   */\n      gt\n        /* \"#utility.yul\":5936:5973   */\n      iszero\n      tag_272\n      jumpi\n        /* \"#utility.yul\":5953:5971   */\n      tag_273\n      tag_196\n      jump\t// in\n    tag_273:\n        /* \"#utility.yul\":5936:5973   */\n    tag_272:\n        /* \"#utility.yul\":5786:5980   */\n      swap3\n      swap2\n      pop\n      pop\n      jump\t// out\n        /* \"#utility.yul\":5986:6155   */\n    tag_197:\n        /* \"#utility.yul\":6070:6081   */\n      0x00\n        /* \"#utility.yul\":6104:6110   */\n      dup3\n        /* \"#utility.yul\":6099:6102   */\n      dup3\n        /* \"#utility.yul\":6092:6111   */\n      mstore\n        /* \"#utility.yul\":6144:6148   */\n      0x20\n        /* \"#utility.yul\":6139:6142   */\n      dup3\n        /* \"#utility.yul\":6135:6149   */\n      add\n        /* \"#utility.yul\":6120:6149   */\n      swap1\n      pop\n        /* \"#utility.yul\":5986:6155   */\n      swap3\n      swap2\n      pop\n      pop\n      jump\t// out\n        /* \"#utility.yul\":6161:6329   */\n    tag_198:\n        /* \"#utility.yul\":6301:6321   */\n      0x4e6f206163746976652072657761726473210000000000000000000000000000\n        /* \"#utility.yul\":6297:6298   */\n      0x00\n        /* \"#utility.yul\":6289:6295   */\n      dup3\n        /* \"#utility.yul\":6285:6299   */\n      add\n        /* \"#utility.yul\":6278:6322   */\n      mstore\n        /* \"#utility.yul\":6161:6329   */\n      pop\n      jump\t// out\n        /* \"#utility.yul\":6335:6701   */\n    tag_199:\n        /* \"#utility.yul\":6477:6480   */\n      0x00\n        /* \"#utility.yul\":6498:6565   */\n      tag_277\n        /* \"#utility.yul\":6562:6564   */\n      0x12\n        /* \"#utility.yul\":6557:6560   */\n      dup4\n        /* \"#utility.yul\":6498:6565   */\n      tag_197\n      jump\t// in\n    tag_277:\n        /* \"#utility.yul\":6491:6565   */\n      swap2\n      pop\n        /* \"#utility.yul\":6574:6667   */\n      tag_278\n        /* \"#utility.yul\":6663:6666   */\n      dup3\n        /* \"#utility.yul\":6574:6667   */\n      tag_198\n      jump\t// in\n    tag_278:\n        /* \"#utility.yul\":6692:6694   */\n      0x20\n        /* \"#utility.yul\":6687:6690   */\n      dup3\n        /* \"#utility.yul\":6683:6695   */\n      add\n        /* \"#utility.yul\":6676:6695   */\n      swap1\n      pop\n        /* \"#utility.yul\":6335:6701   */\n      swap2\n      swap1\n      pop\n      jump\t// out\n        /* \"#utility.yul\":6707:7126   */\n    tag_125:\n        /* \"#utility.yul\":6873:6877   */\n      0x00\n        /* \"#utility.yul\":6911:6913   */\n      0x20\n        /* \"#utility.yul\":6900:6909   */\n      dup3\n        /* \"#utility.yul\":6896:6914   */\n      add\n        /* \"#utility.yul\":6888:6914   */\n      swap1\n      pop\n        /* \"#utility.yul\":6960:6969   */\n      dup2\n        /* \"#utility.yul\":6954:6958   */\n      dup2\n        /* \"#utility.yul\":6950:6970   */\n      sub\n        /* \"#utility.yul\":6946:6947   */\n      0x00\n        /* \"#utility.yul\":6935:6944   */\n      dup4\n        /* \"#utility.yul\":6931:6948   */\n      add\n        /* \"#utility.yul\":6924:6971   */\n      mstore\n        /* \"#utility.yul\":6988:7119   */\n      tag_280\n        /* \"#utility.yul\":7114:7118   */\n      dup2\n        /* \"#utility.yul\":6988:7119   */\n      tag_199\n      jump\t// in\n    tag_280:\n        /* \"#utility.yul\":6980:7119   */\n      swap1\n      pop\n        /* \"#utility.yul\":6707:7126   */\n      swap2\n      swap1\n      pop\n      jump\t// out\n        /* \"#utility.yul\":7132:7275   */\n    tag_200:\n        /* \"#utility.yul\":7189:7194   */\n      0x00\n        /* \"#utility.yul\":7220:7226   */\n      dup2\n        /* \"#utility.yul\":7214:7227   */\n      mload\n        /* \"#utility.yul\":7205:7227   */\n      swap1\n      pop\n        /* \"#utility.yul\":7236:7269   */\n      tag_282\n        /* \"#utility.yul\":7263:7268   */\n      dup2\n        /* \"#utility.yul\":7236:7269   */\n      tag_193\n      jump\t// in\n    tag_282:\n        /* \"#utility.yul\":7132:7275   */\n      swap3\n      swap2\n      pop\n      pop\n      jump\t// out\n        /* \"#utility.yul\":7281:7397   */\n    tag_201:\n        /* \"#utility.yul\":7351:7372   */\n      tag_284\n        /* \"#utility.yul\":7366:7371   */\n      dup2\n        /* \"#utility.yul\":7351:7372   */\n      tag_191\n      jump\t// in\n    tag_284:\n        /* \"#utility.yul\":7344:7349   */\n      dup2\n        /* \"#utility.yul\":7341:7373   */\n      eq\n        /* \"#utility.yul\":7331:7391   */\n      tag_285\n      jumpi\n        /* \"#utility.yul\":7387:7388   */\n      0x00\n        /* \"#utility.yul\":7384:7385   */\n      dup1\n        /* \"#utility.yul\":7377:7389   */\n      revert\n        /* \"#utility.yul\":7331:7391   */\n    tag_285:\n        /* \"#utility.yul\":7281:7397   */\n      pop\n      jump\t// out\n        /* \"#utility.yul\":7403:7540   */\n    tag_202:\n        /* \"#utility.yul\":7457:7462   */\n      0x00\n        /* \"#utility.yul\":7488:7494   */\n      dup2\n        /* \"#utility.yul\":7482:7495   */\n      mload\n        /* \"#utility.yul\":7473:7495   */\n      swap1\n      pop\n        /* \"#utility.yul\":7504:7534   */\n      tag_287\n        /* \"#utility.yul\":7528:7533   */\n      dup2\n        /* \"#utility.yul\":7504:7534   */\n      tag_201\n      jump\t// in\n    tag_287:\n        /* \"#utility.yul\":7403:7540   */\n      swap3\n      swap2\n      pop\n      pop\n      jump\t// out\n        /* \"#utility.yul\":7546:8047   */\n    tag_133:\n        /* \"#utility.yul\":7622:7628   */\n      0x00\n        /* \"#utility.yul\":7630:7636   */\n      dup1\n        /* \"#utility.yul\":7679:7681   */\n      0x40\n        /* \"#utility.yul\":7667:7676   */\n      dup4\n        /* \"#utility.yul\":7658:7665   */\n      dup6\n        /* \"#utility.yul\":7654:7677   */\n      sub\n        /* \"#utility.yul\":7650:7682   */\n      slt\n        /* \"#utility.yul\":7647:7766   */\n      iszero\n      tag_289\n      jumpi\n        /* \"#utility.yul\":7685:7764   */\n      tag_290\n      tag_183\n      jump\t// in\n    tag_290:\n        /* \"#utility.yul\":7647:7766   */\n    tag_289:\n        /* \"#utility.yul\":7805:7806   */\n      0x00\n        /* \"#utility.yul\":7830:7894   */\n      tag_291\n        /* \"#utility.yul\":7886:7893   */\n      dup6\n        /* \"#utility.yul\":7877:7883   */\n      dup3\n        /* \"#utility.yul\":7866:7875   */\n      dup7\n        /* \"#utility.yul\":7862:7884   */\n      add\n        /* \"#utility.yul\":7830:7894   */\n      tag_200\n      jump\t// in\n    tag_291:\n        /* \"#utility.yul\":7820:7894   */\n      swap3\n      pop\n        /* \"#utility.yul\":7776:7904   */\n      pop\n        /* \"#utility.yul\":7943:7945   */\n      0x20\n        /* \"#utility.yul\":7969:8030   */\n      tag_292\n        /* \"#utility.yul\":8022:8029   */\n      dup6\n        /* \"#utility.yul\":8013:8019   */\n      dup3\n        /* \"#utility.yul\":8002:8011   */\n      dup7\n        /* \"#utility.yul\":7998:8020   */\n      add\n        /* \"#utility.yul\":7969:8030   */\n      tag_202\n      jump\t// in\n    tag_292:\n        /* \"#utility.yul\":7959:8030   */\n      swap2\n      pop\n        /* \"#utility.yul\":7914:8040   */\n      pop\n        /* \"#utility.yul\":7546:8047   */\n      swap3\n      pop\n      swap3\n      swap1\n      pop\n      jump\t// out\n        /* \"#utility.yul\":8053:8404   */\n    tag_139:\n        /* \"#utility.yul\":8123:8129   */\n      0x00\n        /* \"#utility.yul\":8172:8174   */\n      0x20\n        /* \"#utility.yul\":8160:8169   */\n      dup3\n        /* \"#utility.yul\":8151:8158   */\n      dup5\n        /* \"#utility.yul\":8147:8170   */\n      sub\n        /* \"#utility.yul\":8143:8175   */\n      slt\n        /* \"#utility.yul\":8140:8259   */\n      iszero\n      tag_294\n      jumpi\n        /* \"#utility.yul\":8178:8257   */\n      tag_295\n      tag_183\n      jump\t// in\n    tag_295:\n        /* \"#utility.yul\":8140:8259   */\n    tag_294:\n        /* \"#utility.yul\":8298:8299   */\n      0x00\n        /* \"#utility.yul\":8323:8387   */\n      tag_296\n        /* \"#utility.yul\":8379:8386   */\n      dup5\n        /* \"#utility.yul\":8370:8376   */\n      dup3\n        /* \"#utility.yul\":8359:8368   */\n      dup6\n        /* \"#utility.yul\":8355:8377   */\n      add\n        /* \"#utility.yul\":8323:8387   */\n      tag_200\n      jump\t// in\n    tag_296:\n        /* \"#utility.yul\":8313:8387   */\n      swap2\n      pop\n        /* \"#utility.yul\":8269:8397   */\n      pop\n        /* \"#utility.yul\":8053:8404   */\n      swap3\n      swap2\n      pop\n      pop\n      jump\t// out\n        /* \"#utility.yul\":8410:8820   */\n    tag_169:\n        /* \"#utility.yul\":8450:8457   */\n      0x00\n        /* \"#utility.yul\":8473:8493   */\n      tag_298\n        /* \"#utility.yul\":8491:8492   */\n      dup3\n        /* \"#utility.yul\":8473:8493   */\n      tag_189\n      jump\t// in\n    tag_298:\n        /* \"#utility.yul\":8468:8493   */\n      swap2\n      pop\n        /* \"#utility.yul\":8507:8527   */\n      tag_299\n        /* \"#utility.yul\":8525:8526   */\n      dup4\n        /* \"#utility.yul\":8507:8527   */\n      tag_189\n      jump\t// in\n    tag_299:\n        /* \"#utility.yul\":8502:8527   */\n      swap3\n      pop\n        /* \"#utility.yul\":8562:8563   */\n      dup3\n        /* \"#utility.yul\":8559:8560   */\n      dup3\n        /* \"#utility.yul\":8555:8564   */\n      mul\n        /* \"#utility.yul\":8584:8614   */\n      tag_300\n        /* \"#utility.yul\":8602:8613   */\n      dup2\n        /* \"#utility.yul\":8584:8614   */\n      tag_189\n      jump\t// in\n    tag_300:\n        /* \"#utility.yul\":8573:8614   */\n      swap2\n      pop\n        /* \"#utility.yul\":8763:8764   */\n      dup3\n        /* \"#utility.yul\":8754:8761   */\n      dup3\n        /* \"#utility.yul\":8750:8765   */\n      div\n        /* \"#utility.yul\":8747:8748   */\n      dup5\n        /* \"#utility.yul\":8744:8766   */\n      eq\n        /* \"#utility.yul\":8724:8725   */\n      dup4\n        /* \"#utility.yul\":8717:8726   */\n      iszero\n        /* \"#utility.yul\":8697:8780   */\n      or\n        /* \"#utility.yul\":8674:8813   */\n      tag_301\n      jumpi\n        /* \"#utility.yul\":8793:8811   */\n      tag_302\n      tag_196\n      jump\t// in\n    tag_302:\n        /* \"#utility.yul\":8674:8813   */\n    tag_301:\n        /* \"#utility.yul\":8458:8820   */\n      pop\n        /* \"#utility.yul\":8410:8820   */\n      swap3\n      swap2\n      pop\n      pop\n      jump\t// out\n        /* \"#utility.yul\":8826:9006   */\n    tag_203:\n        /* \"#utility.yul\":8874:8951   */\n      0x4e487b7100000000000000000000000000000000000000000000000000000000\n        /* \"#utility.yul\":8871:8872   */\n      0x00\n        /* \"#utility.yul\":8864:8952   */\n      mstore\n        /* \"#utility.yul\":8971:8975   */\n      0x12\n        /* \"#utility.yul\":8968:8969   */\n      0x04\n        /* \"#utility.yul\":8961:8976   */\n      mstore\n        /* \"#utility.yul\":8995:8999   */\n      0x24\n        /* \"#utility.yul\":8992:8993   */\n      0x00\n        /* \"#utility.yul\":8985:9000   */\n      revert\n        /* \"#utility.yul\":9012:9197   */\n    tag_172:\n        /* \"#utility.yul\":9052:9053   */\n      0x00\n        /* \"#utility.yul\":9069:9089   */\n      tag_305\n        /* \"#utility.yul\":9087:9088   */\n      dup3\n        /* \"#utility.yul\":9069:9089   */\n      tag_189\n      jump\t// in\n    tag_305:\n        /* \"#utility.yul\":9064:9089   */\n      swap2\n      pop\n        /* \"#utility.yul\":9103:9123   */\n      tag_306\n        /* \"#utility.yul\":9121:9122   */\n      dup4\n        /* \"#utility.yul\":9103:9123   */\n      tag_189\n      jump\t// in\n    tag_306:\n        /* \"#utility.yul\":9098:9123   */\n      swap3\n      pop\n        /* \"#utility.yul\":9142:9143   */\n      dup3\n        /* \"#utility.yul\":9132:9167   */\n      tag_307\n      jumpi\n        /* \"#utility.yul\":9147:9165   */\n      tag_308\n      tag_203\n      jump\t// in\n    tag_308:\n        /* \"#utility.yul\":9132:9167   */\n    tag_307:\n        /* \"#utility.yul\":9189:9190   */\n      dup3\n        /* \"#utility.yul\":9186:9187   */\n      dup3\n        /* \"#utility.yul\":9182:9191   */\n      div\n        /* \"#utility.yul\":9177:9191   */\n      swap1\n      pop\n        /* \"#utility.yul\":9012:9197   */\n      swap3\n      swap2\n      pop\n      pop\n      jump\t// out\n\n    auxdata: 0xa2646970667358221220250d6c4c5c9514665e77facfa8dc2d095fa6dd2cc6e7f330ae1a9d0b3a54ee4764736f6c63430008140033\n}\n",
				"bytecode": {
					"linkReferences": {},
					"object": "6080604052600180555f6002556113886003553480156200001e575f80fd5b50604051620013e0380380620013e0833981810160405281019062000044919062000237565b335f73ffffffffffffffffffffffffffffffffffffffff168173ffffffffffffffffffffffffffffffffffffffff1603620000b8575f6040517f1e4fbdf7000000000000000000000000000000000000000000000000000000008152600401620000af919062000278565b60405180910390fd5b620000c9816200011160201b60201c565b508060045f6101000a81548173ffffffffffffffffffffffffffffffffffffffff021916908373ffffffffffffffffffffffffffffffffffffffff1602179055505062000293565b5f805f9054906101000a900473ffffffffffffffffffffffffffffffffffffffff169050815f806101000a81548173ffffffffffffffffffffffffffffffffffffffff021916908373ffffffffffffffffffffffffffffffffffffffff1602179055508173ffffffffffffffffffffffffffffffffffffffff168173ffffffffffffffffffffffffffffffffffffffff167f8be0079c531659141344cd1fd0a4f28419497f9722a3daafe3b4186f6b6457e060405160405180910390a35050565b5f80fd5b5f73ffffffffffffffffffffffffffffffffffffffff82169050919050565b5f6200020182620001d6565b9050919050565b6200021381620001f5565b81146200021e575f80fd5b50565b5f81519050620002318162000208565b92915050565b5f602082840312156200024f576200024e620001d2565b5b5f6200025e8482850162000221565b91505092915050565b6200027281620001f5565b82525050565b5f6020820190506200028d5f83018462000267565b92915050565b61113f80620002a15f395ff3fe608060405234801561000f575f80fd5b5060043610610135575f3560e01c806383ded12e116100b6578063daec6af61161007a578063daec6af614610378578063df478880146103a8578063f064997c146103c6578063f2fde38b146103e4578063f301af4214610400578063f3432b881461043657610135565b806383ded12e146102ac5780638da5cb5b146102dc578063c884ef83146102fa578063d03770941461032a578063d1f899931461034857610135565b80635e1aea0a116100fd5780635e1aea0a146101f5578063636d8e5414610226578063715018a6146102425780637a67f0531461024c57806381e0a8421461027c57610135565b806303f1c622146101395780631d0e98f31461016b5780631e257a04146101895780635333ecb8146101b957806357c1a47f146101d7575b5f80fd5b610153600480360381019061014e9190610c9b565b610466565b60405161016293929190610cf8565b60405180910390f35b610173610498565b6040516101809190610d2d565b60405180910390f35b6101a3600480360381019061019e9190610d70565b610502565b6040516101b09190610dae565b60405180910390f35b6101c1610558565b6040516101ce9190610dae565b60405180910390f35b6101df61055e565b6040516101ec9190610dae565b60405180910390f35b61020f600480360381019061020a9190610dc7565b6105b9565b60405161021d929190610df2565b60405180910390f35b610240600480360381019061023b9190610dc7565b610796565b005b61024a6107a8565b005b61026660048036038101906102619190610c9b565b6107bb565b6040516102739190610dae565b60405180910390f35b61029660048036038101906102919190610e19565b610804565b6040516102a39190610d2d565b60405180910390f35b6102c660048036038101906102c19190610dc7565b61084d565b6040516102d39190610dae565b60405180910390f35b6102e461087f565b6040516102f19190610e66565b60405180910390f35b610314600480360381019061030f9190610c9b565b6108a6565b6040516103219190610dae565b60405180910390f35b6103326108bb565b60405161033f9190610dae565b60405180910390f35b610362600480360381019061035d9190610c9b565b6108c1565b60405161036f9190610d2d565b60405180910390f35b610392600480360381019061038d9190610c9b565b61090c565b60405161039f9190610d2d565b60405180910390f35b6103b0610958565b6040516103bd9190610d2d565b60405180910390f35b6103ce610994565b6040516103db9190610dae565b60405180910390f35b6103fe60048036038101906103f99190610c9b565b61099a565b005b61041a60048036038101906104159190610dc7565b610a1e565b60405161042d9796959493929190610e7f565b60405180910390f35b610450600480360381019061044b9190610c9b565b610a68565b60405161045d9190610d2d565b60405180910390f35b6007602052805f5260405f205f91509050805f015490806001015490806002015f9054906101000a900460ff16905083565b5f60018054036104aa575f90506104ff565b60065f600180546104bb9190610f19565b81526020019081526020015f206001015443101580156104fc575060065f600180546104e79190610f19565b81526020019081526020015f20600201544311155b90505b90565b5f61055060065f8581526020019081526020015f20600501546105428460065f8881526020019081526020015f2060030154610ac490919063ffffffff16565b610ad990919063ffffffff16565b905092915050565b60035481565b5f610567610498565b6105a6576040517f08c379a000000000000000000000000000000000000000000000000000000000815260040161059d90610fa6565b60405180910390fd5b600180546105b49190610f19565b905090565b5f8060065f8481526020019081526020015f206006015f9054906101000a900460ff161561060157600160065f8581526020019081526020015f206004015491509150610791565b5f8060045f9054906101000a900473ffffffffffffffffffffffffffffffffffffffff1673ffffffffffffffffffffffffffffffffffffffff16636b53f42a866040518263ffffffff1660e01b815260040161065d9190610dae565b6040805180830381865afa158015610677573d5f803e3d5ffd5b505050506040513d601f19601f8201168201806040525081019061069b9190611002565b91509150801561078857600160065f8781526020019081526020015f206006015f6101000a81548160ff0219169083151502179055508160065f8781526020019081526020015f20600401819055503073ffffffffffffffffffffffffffffffffffffffff1663bd85b039836040518263ffffffff1660e01b81526004016107239190610dae565b602060405180830381865afa15801561073e573d5f803e3d5ffd5b505050506040513d601f19601f820116820180604052508101906107629190611040565b60065f8781526020019081526020015f2060050181905550600182935093505050610791565b5f809350935050505b915091565b61079e610aee565b8060038190555050565b6107b0610aee565b6107b95f610b75565b565b5f60075f8373ffffffffffffffffffffffffffffffffffffffff1673ffffffffffffffffffffffffffffffffffffffff1681526020019081526020015f20600101549050919050565b5f8160055f8573ffffffffffffffffffffffffffffffffffffffff1673ffffffffffffffffffffffffffffffffffffffff1681526020019081526020015f205414905092915050565b5f610878620186a061086a60035485610ac490919063ffffffff16565b610ad990919063ffffffff16565b9050919050565b5f805f9054906101000a900473ffffffffffffffffffffffffffffffffffffffff16905090565b6005602052805f5260405f205f915090505481565b60025481565b5f8060075f8473ffffffffffffffffffffffffffffffffffffffff1673ffffffffffffffffffffffffffffffffffffffff1681526020019081526020015f2060010154149050919050565b5f8060075f8473ffffffffffffffffffffffffffffffffffffffff1673ffffffffffffffffffffffffffffffffffffffff1681526020019081526020015f206001015414159050919050565b5f600180540361096a575f9050610991565b60065f6001805461097b9190610f19565b81526020019081526020015f2060010154431090505b90565b60015481565b6109a2610aee565b5f73ffffffffffffffffffffffffffffffffffffffff168173ffffffffffffffffffffffffffffffffffffffff1603610a12575f6040517f1e4fbdf7000000000000000000000000000000000000000000000000000000008152600401610a099190610e66565b60405180910390fd5b610a1b81610b75565b50565b6006602052805f5260405f205f91509050805f015490806001015490806002015490806003015490806004015490806005015490806006015f9054906101000a900460ff16905087565b5f6001151560075f8473ffffffffffffffffffffffffffffffffffffffff1673ffffffffffffffffffffffffffffffffffffffff1681526020019081526020015f206002015f9054906101000a900460ff161515149050919050565b5f8183610ad1919061106b565b905092915050565b5f8183610ae691906110d9565b905092915050565b610af6610c36565b73ffffffffffffffffffffffffffffffffffffffff16610b1461087f565b73ffffffffffffffffffffffffffffffffffffffff1614610b7357610b37610c36565b6040517f118cdaa7000000000000000000000000000000000000000000000000000000008152600401610b6a9190610e66565b60405180910390fd5b565b5f805f9054906101000a900473ffffffffffffffffffffffffffffffffffffffff169050815f806101000a81548173ffffffffffffffffffffffffffffffffffffffff021916908373ffffffffffffffffffffffffffffffffffffffff1602179055508173ffffffffffffffffffffffffffffffffffffffff168173ffffffffffffffffffffffffffffffffffffffff167f8be0079c531659141344cd1fd0a4f28419497f9722a3daafe3b4186f6b6457e060405160405180910390a35050565b5f33905090565b5f80fd5b5f73ffffffffffffffffffffffffffffffffffffffff82169050919050565b5f610c6a82610c41565b9050919050565b610c7a81610c60565b8114610c84575f80fd5b50565b5f81359050610c9581610c71565b92915050565b5f60208284031215610cb057610caf610c3d565b5b5f610cbd84828501610c87565b91505092915050565b5f819050919050565b610cd881610cc6565b82525050565b5f8115159050919050565b610cf281610cde565b82525050565b5f606082019050610d0b5f830186610ccf565b610d186020830185610ccf565b610d256040830184610ce9565b949350505050565b5f602082019050610d405f830184610ce9565b92915050565b610d4f81610cc6565b8114610d59575f80fd5b50565b5f81359050610d6a81610d46565b92915050565b5f8060408385031215610d8657610d85610c3d565b5b5f610d9385828601610d5c565b9250506020610da485828601610d5c565b9150509250929050565b5f602082019050610dc15f830184610ccf565b92915050565b5f60208284031215610ddc57610ddb610c3d565b5b5f610de984828501610d5c565b91505092915050565b5f604082019050610e055f830185610ce9565b610e126020830184610ccf565b9392505050565b5f8060408385031215610e2f57610e2e610c3d565b5b5f610e3c85828601610c87565b9250506020610e4d85828601610d5c565b9150509250929050565b610e6081610c60565b82525050565b5f602082019050610e795f830184610e57565b92915050565b5f60e082019050610e925f83018a610ccf565b610e9f6020830189610ccf565b610eac6040830188610ccf565b610eb96060830187610ccf565b610ec66080830186610ccf565b610ed360a0830185610ccf565b610ee060c0830184610ce9565b98975050505050505050565b7f4e487b71000000000000000000000000000000000000000000000000000000005f52601160045260245ffd5b5f610f2382610cc6565b9150610f2e83610cc6565b9250828203905081811115610f4657610f45610eec565b5b92915050565b5f82825260208201905092915050565b7f4e6f2061637469766520726577617264732100000000000000000000000000005f82015250565b5f610f90601283610f4c565b9150610f9b82610f5c565b602082019050919050565b5f6020820190508181035f830152610fbd81610f84565b9050919050565b5f81519050610fd281610d46565b92915050565b610fe181610cde565b8114610feb575f80fd5b50565b5f81519050610ffc81610fd8565b92915050565b5f806040838503121561101857611017610c3d565b5b5f61102585828601610fc4565b925050602061103685828601610fee565b9150509250929050565b5f6020828403121561105557611054610c3d565b5b5f61106284828501610fc4565b91505092915050565b5f61107582610cc6565b915061108083610cc6565b925082820261108e81610cc6565b915082820484148315176110a5576110a4610eec565b5b5092915050565b7f4e487b71000000000000000000000000000000000000000000000000000000005f52601260045260245ffd5b5f6110e382610cc6565b91506110ee83610cc6565b9250826110fe576110fd6110ac565b5b82820490509291505056fea2646970667358221220250d6c4c5c9514665e77facfa8dc2d095fa6dd2cc6e7f330ae1a9d0b3a54ee4764736f6c63430008140033",
					"opcodes": "PUSH1 0x80 PUSH1 0x40 MSTORE PUSH1 0x1 DUP1 SSTORE PUSH0 PUSH1 0x2 SSTORE PUSH2 0x1388 PUSH1 0x3 SSTORE CALLVALUE DUP1 ISZERO PUSH3 0x1E JUMPI PUSH0 DUP1 REVERT JUMPDEST POP PUSH1 0x40 MLOAD PUSH3 0x13E0 CODESIZE SUB DUP1 PUSH3 0x13E0 DUP4 CODECOPY DUP2 DUP2 ADD PUSH1 0x40 MSTORE DUP2 ADD SWAP1 PUSH3 0x44 SWAP2 SWAP1 PUSH3 0x237 JUMP JUMPDEST CALLER PUSH0 PUSH20 0xFFFFFFFFFFFFFFFFFFFFFFFFFFFFFFFFFFFFFFFF AND DUP2 PUSH20 0xFFFFFFFFFFFFFFFFFFFFFFFFFFFFFFFFFFFFFFFF AND SUB PUSH3 0xB8 JUMPI PUSH0 PUSH1 0x40 MLOAD PUSH32 0x1E4FBDF700000000000000000000000000000000000000000000000000000000 DUP2 MSTORE PUSH1 0x4 ADD PUSH3 0xAF SWAP2 SWAP1 PUSH3 0x278 JUMP JUMPDEST PUSH1 0x40 MLOAD DUP1 SWAP2 SUB SWAP1 REVERT JUMPDEST PUSH3 0xC9 DUP2 PUSH3 0x111 PUSH1 0x20 SHL PUSH1 0x20 SHR JUMP JUMPDEST POP DUP1 PUSH1 0x4 PUSH0 PUSH2 0x100 EXP DUP2 SLOAD DUP2 PUSH20 0xFFFFFFFFFFFFFFFFFFFFFFFFFFFFFFFFFFFFFFFF MUL NOT AND SWAP1 DUP4 PUSH20 0xFFFFFFFFFFFFFFFFFFFFFFFFFFFFFFFFFFFFFFFF AND MUL OR SWAP1 SSTORE POP POP PUSH3 0x293 JUMP JUMPDEST PUSH0 DUP1 PUSH0 SWAP1 SLOAD SWAP1 PUSH2 0x100 EXP SWAP1 DIV PUSH20 0xFFFFFFFFFFFFFFFFFFFFFFFFFFFFFFFFFFFFFFFF AND SWAP1 POP DUP2 PUSH0 DUP1 PUSH2 0x100 EXP DUP2 SLOAD DUP2 PUSH20 0xFFFFFFFFFFFFFFFFFFFFFFFFFFFFFFFFFFFFFFFF MUL NOT AND SWAP1 DUP4 PUSH20 0xFFFFFFFFFFFFFFFFFFFFFFFFFFFFFFFFFFFFFFFF AND MUL OR SWAP1 SSTORE POP DUP2 PUSH20 0xFFFFFFFFFFFFFFFFFFFFFFFFFFFFFFFFFFFFFFFF AND DUP2 PUSH20 0xFFFFFFFFFFFFFFFFFFFFFFFFFFFFFFFFFFFFFFFF AND PUSH32 0x8BE0079C531659141344CD1FD0A4F28419497F9722A3DAAFE3B4186F6B6457E0 PUSH1 0x40 MLOAD PUSH1 0x40 MLOAD DUP1 SWAP2 SUB SWAP1 LOG3 POP POP JUMP JUMPDEST PUSH0 DUP1 REVERT JUMPDEST PUSH0 PUSH20 0xFFFFFFFFFFFFFFFFFFFFFFFFFFFFFFFFFFFFFFFF DUP3 AND SWAP1 POP SWAP2 SWAP1 POP JUMP JUMPDEST PUSH0 PUSH3 0x201 DUP3 PUSH3 0x1D6 JUMP JUMPDEST SWAP1 POP SWAP2 SWAP1 POP JUMP JUMPDEST PUSH3 0x213 DUP2 PUSH3 0x1F5 JUMP JUMPDEST DUP2 EQ PUSH3 0x21E JUMPI PUSH0 DUP1 REVERT JUMPDEST POP JUMP JUMPDEST PUSH0 DUP2 MLOAD SWAP1 POP PUSH3 0x231 DUP2 PUSH3 0x208 JUMP JUMPDEST SWAP3 SWAP2 POP POP JUMP JUMPDEST PUSH0 PUSH1 0x20 DUP3 DUP5 SUB SLT ISZERO PUSH3 0x24F JUMPI PUSH3 0x24E PUSH3 0x1D2 JUMP JUMPDEST JUMPDEST PUSH0 PUSH3 0x25E DUP5 DUP3 DUP6 ADD PUSH3 0x221 JUMP JUMPDEST SWAP2 POP POP SWAP3 SWAP2 POP POP JUMP JUMPDEST PUSH3 0x272 DUP2 PUSH3 0x1F5 JUMP JUMPDEST DUP3 MSTORE POP POP JUMP JUMPDEST PUSH0 PUSH1 0x20 DUP3 ADD SWAP1 POP PUSH3 0x28D PUSH0 DUP4 ADD DUP5 PUSH3 0x267 JUMP JUMPDEST SWAP3 SWAP2 POP POP JUMP JUMPDEST PUSH2 0x113F DUP1 PUSH3 0x2A1 PUSH0 CODECOPY PUSH0 RETURN INVALID PUSH1 0x80 PUSH1 0x40 MSTORE CALLVALUE DUP1 ISZERO PUSH2 0xF JUMPI PUSH0 DUP1 REVERT JUMPDEST POP PUSH1 0x4 CALLDATASIZE LT PUSH2 0x135 JUMPI PUSH0 CALLDATALOAD PUSH1 0xE0 SHR DUP1 PUSH4 0x83DED12E GT PUSH2 0xB6 JUMPI DUP1 PUSH4 0xDAEC6AF6 GT PUSH2 0x7A JUMPI DUP1 PUSH4 0xDAEC6AF6 EQ PUSH2 0x378 JUMPI DUP1 PUSH4 0xDF478880 EQ PUSH2 0x3A8 JUMPI DUP1 PUSH4 0xF064997C EQ PUSH2 0x3C6 JUMPI DUP1 PUSH4 0xF2FDE38B EQ PUSH2 0x3E4 JUMPI DUP1 PUSH4 0xF301AF42 EQ PUSH2 0x400 JUMPI DUP1 PUSH4 0xF3432B88 EQ PUSH2 0x436 JUMPI PUSH2 0x135 JUMP JUMPDEST DUP1 PUSH4 0x83DED12E EQ PUSH2 0x2AC JUMPI DUP1 PUSH4 0x8DA5CB5B EQ PUSH2 0x2DC JUMPI DUP1 PUSH4 0xC884EF83 EQ PUSH2 0x2FA JUMPI DUP1 PUSH4 0xD0377094 EQ PUSH2 0x32A JUMPI DUP1 PUSH4 0xD1F89993 EQ PUSH2 0x348 JUMPI PUSH2 0x135 JUMP JUMPDEST DUP1 PUSH4 0x5E1AEA0A GT PUSH2 0xFD JUMPI DUP1 PUSH4 0x5E1AEA0A EQ PUSH2 0x1F5 JUMPI DUP1 PUSH4 0x636D8E54 EQ PUSH2 0x226 JUMPI DUP1 PUSH4 0x715018A6 EQ PUSH2 0x242 JUMPI DUP1 PUSH4 0x7A67F053 EQ PUSH2 0x24C JUMPI DUP1 PUSH4 0x81E0A842 EQ PUSH2 0x27C JUMPI PUSH2 0x135 JUMP JUMPDEST DUP1 PUSH4 0x3F1C622 EQ PUSH2 0x139 JUMPI DUP1 PUSH4 0x1D0E98F3 EQ PUSH2 0x16B JUMPI DUP1 PUSH4 0x1E257A04 EQ PUSH2 0x189 JUMPI DUP1 PUSH4 0x5333ECB8 EQ PUSH2 0x1B9 JUMPI DUP1 PUSH4 0x57C1A47F EQ PUSH2 0x1D7 JUMPI JUMPDEST PUSH0 DUP1 REVERT JUMPDEST PUSH2 0x153 PUSH1 0x4 DUP1 CALLDATASIZE SUB DUP2 ADD SWAP1 PUSH2 0x14E SWAP2 SWAP1 PUSH2 0xC9B JUMP JUMPDEST PUSH2 0x466 JUMP JUMPDEST PUSH1 0x40 MLOAD PUSH2 0x162 SWAP4 SWAP3 SWAP2 SWAP1 PUSH2 0xCF8 JUMP JUMPDEST PUSH1 0x40 MLOAD DUP1 SWAP2 SUB SWAP1 RETURN JUMPDEST PUSH2 0x173 PUSH2 0x498 JUMP JUMPDEST PUSH1 0x40 MLOAD PUSH2 0x180 SWAP2 SWAP1 PUSH2 0xD2D JUMP JUMPDEST PUSH1 0x40 MLOAD DUP1 SWAP2 SUB SWAP1 RETURN JUMPDEST PUSH2 0x1A3 PUSH1 0x4 DUP1 CALLDATASIZE SUB DUP2 ADD SWAP1 PUSH2 0x19E SWAP2 SWAP1 PUSH2 0xD70 JUMP JUMPDEST PUSH2 0x502 JUMP JUMPDEST PUSH1 0x40 MLOAD PUSH2 0x1B0 SWAP2 SWAP1 PUSH2 0xDAE JUMP JUMPDEST PUSH1 0x40 MLOAD DUP1 SWAP2 SUB SWAP1 RETURN JUMPDEST PUSH2 0x1C1 PUSH2 0x558 JUMP JUMPDEST PUSH1 0x40 MLOAD PUSH2 0x1CE SWAP2 SWAP1 PUSH2 0xDAE JUMP JUMPDEST PUSH1 0x40 MLOAD DUP1 SWAP2 SUB SWAP1 RETURN JUMPDEST PUSH2 0x1DF PUSH2 0x55E JUMP JUMPDEST PUSH1 0x40 MLOAD PUSH2 0x1EC SWAP2 SWAP1 PUSH2 0xDAE JUMP JUMPDEST PUSH1 0x40 MLOAD DUP1 SWAP2 SUB SWAP1 RETURN JUMPDEST PUSH2 0x20F PUSH1 0x4 DUP1 CALLDATASIZE SUB DUP2 ADD SWAP1 PUSH2 0x20A SWAP2 SWAP1 PUSH2 0xDC7 JUMP JUMPDEST PUSH2 0x5B9 JUMP JUMPDEST PUSH1 0x40 MLOAD PUSH2 0x21D SWAP3 SWAP2 SWAP1 PUSH2 0xDF2 JUMP JUMPDEST PUSH1 0x40 MLOAD DUP1 SWAP2 SUB SWAP1 RETURN JUMPDEST PUSH2 0x240 PUSH1 0x4 DUP1 CALLDATASIZE SUB DUP2 ADD SWAP1 PUSH2 0x23B SWAP2 SWAP1 PUSH2 0xDC7 JUMP JUMPDEST PUSH2 0x796 JUMP JUMPDEST STOP JUMPDEST PUSH2 0x24A PUSH2 0x7A8 JUMP JUMPDEST STOP JUMPDEST PUSH2 0x266 PUSH1 0x4 DUP1 CALLDATASIZE SUB DUP2 ADD SWAP1 PUSH2 0x261 SWAP2 SWAP1 PUSH2 0xC9B JUMP JUMPDEST PUSH2 0x7BB JUMP JUMPDEST PUSH1 0x40 MLOAD PUSH2 0x273 SWAP2 SWAP1 PUSH2 0xDAE JUMP JUMPDEST PUSH1 0x40 MLOAD DUP1 SWAP2 SUB SWAP1 RETURN JUMPDEST PUSH2 0x296 PUSH1 0x4 DUP1 CALLDATASIZE SUB DUP2 ADD SWAP1 PUSH2 0x291 SWAP2 SWAP1 PUSH2 0xE19 JUMP JUMPDEST PUSH2 0x804 JUMP JUMPDEST PUSH1 0x40 MLOAD PUSH2 0x2A3 SWAP2 SWAP1 PUSH2 0xD2D JUMP JUMPDEST PUSH1 0x40 MLOAD DUP1 SWAP2 SUB SWAP1 RETURN JUMPDEST PUSH2 0x2C6 PUSH1 0x4 DUP1 CALLDATASIZE SUB DUP2 ADD SWAP1 PUSH2 0x2C1 SWAP2 SWAP1 PUSH2 0xDC7 JUMP JUMPDEST PUSH2 0x84D JUMP JUMPDEST PUSH1 0x40 MLOAD PUSH2 0x2D3 SWAP2 SWAP1 PUSH2 0xDAE JUMP JUMPDEST PUSH1 0x40 MLOAD DUP1 SWAP2 SUB SWAP1 RETURN JUMPDEST PUSH2 0x2E4 PUSH2 0x87F JUMP JUMPDEST PUSH1 0x40 MLOAD PUSH2 0x2F1 SWAP2 SWAP1 PUSH2 0xE66 JUMP JUMPDEST PUSH1 0x40 MLOAD DUP1 SWAP2 SUB SWAP1 RETURN JUMPDEST PUSH2 0x314 PUSH1 0x4 DUP1 CALLDATASIZE SUB DUP2 ADD SWAP1 PUSH2 0x30F SWAP2 SWAP1 PUSH2 0xC9B JUMP JUMPDEST PUSH2 0x8A6 JUMP JUMPDEST PUSH1 0x40 MLOAD PUSH2 0x321 SWAP2 SWAP1 PUSH2 0xDAE JUMP JUMPDEST PUSH1 0x40 MLOAD DUP1 SWAP2 SUB SWAP1 RETURN JUMPDEST PUSH2 0x332 PUSH2 0x8BB JUMP JUMPDEST PUSH1 0x40 MLOAD PUSH2 0x33F SWAP2 SWAP1 PUSH2 0xDAE JUMP JUMPDEST PUSH1 0x40 MLOAD DUP1 SWAP2 SUB SWAP1 RETURN JUMPDEST PUSH2 0x362 PUSH1 0x4 DUP1 CALLDATASIZE SUB DUP2 ADD SWAP1 PUSH2 0x35D SWAP2 SWAP1 PUSH2 0xC9B JUMP JUMPDEST PUSH2 0x8C1 JUMP JUMPDEST PUSH1 0x40 MLOAD PUSH2 0x36F SWAP2 SWAP1 PUSH2 0xD2D JUMP JUMPDEST PUSH1 0x40 MLOAD DUP1 SWAP2 SUB SWAP1 RETURN JUMPDEST PUSH2 0x392 PUSH1 0x4 DUP1 CALLDATASIZE SUB DUP2 ADD SWAP1 PUSH2 0x38D SWAP2 SWAP1 PUSH2 0xC9B JUMP JUMPDEST PUSH2 0x90C JUMP JUMPDEST PUSH1 0x40 MLOAD PUSH2 0x39F SWAP2 SWAP1 PUSH2 0xD2D JUMP JUMPDEST PUSH1 0x40 MLOAD DUP1 SWAP2 SUB SWAP1 RETURN JUMPDEST PUSH2 0x3B0 PUSH2 0x958 JUMP JUMPDEST PUSH1 0x40 MLOAD PUSH2 0x3BD SWAP2 SWAP1 PUSH2 0xD2D JUMP JUMPDEST PUSH1 0x40 MLOAD DUP1 SWAP2 SUB SWAP1 RETURN JUMPDEST PUSH2 0x3CE PUSH2 0x994 JUMP JUMPDEST PUSH1 0x40 MLOAD PUSH2 0x3DB SWAP2 SWAP1 PUSH2 0xDAE JUMP JUMPDEST PUSH1 0x40 MLOAD DUP1 SWAP2 SUB SWAP1 RETURN JUMPDEST PUSH2 0x3FE PUSH1 0x4 DUP1 CALLDATASIZE SUB DUP2 ADD SWAP1 PUSH2 0x3F9 SWAP2 SWAP1 PUSH2 0xC9B JUMP JUMPDEST PUSH2 0x99A JUMP JUMPDEST STOP JUMPDEST PUSH2 0x41A PUSH1 0x4 DUP1 CALLDATASIZE SUB DUP2 ADD SWAP1 PUSH2 0x415 SWAP2 SWAP1 PUSH2 0xDC7 JUMP JUMPDEST PUSH2 0xA1E JUMP JUMPDEST PUSH1 0x40 MLOAD PUSH2 0x42D SWAP8 SWAP7 SWAP6 SWAP5 SWAP4 SWAP3 SWAP2 SWAP1 PUSH2 0xE7F JUMP JUMPDEST PUSH1 0x40 MLOAD DUP1 SWAP2 SUB SWAP1 RETURN JUMPDEST PUSH2 0x450 PUSH1 0x4 DUP1 CALLDATASIZE SUB DUP2 ADD SWAP1 PUSH2 0x44B SWAP2 SWAP1 PUSH2 0xC9B JUMP JUMPDEST PUSH2 0xA68 JUMP JUMPDEST PUSH1 0x40 MLOAD PUSH2 0x45D SWAP2 SWAP1 PUSH2 0xD2D JUMP JUMPDEST PUSH1 0x40 MLOAD DUP1 SWAP2 SUB SWAP1 RETURN JUMPDEST PUSH1 0x7 PUSH1 0x20 MSTORE DUP1 PUSH0 MSTORE PUSH1 0x40 PUSH0 KECCAK256 PUSH0 SWAP2 POP SWAP1 POP DUP1 PUSH0 ADD SLOAD SWAP1 DUP1 PUSH1 0x1 ADD SLOAD SWAP1 DUP1 PUSH1 0x2 ADD PUSH0 SWAP1 SLOAD SWAP1 PUSH2 0x100 EXP SWAP1 DIV PUSH1 0xFF AND SWAP1 POP DUP4 JUMP JUMPDEST PUSH0 PUSH1 0x1 DUP1 SLOAD SUB PUSH2 0x4AA JUMPI PUSH0 SWAP1 POP PUSH2 0x4FF JUMP JUMPDEST PUSH1 0x6 PUSH0 PUSH1 0x1 DUP1 SLOAD PUSH2 0x4BB SWAP2 SWAP1 PUSH2 0xF19 JUMP JUMPDEST DUP2 MSTORE PUSH1 0x20 ADD SWAP1 DUP2 MSTORE PUSH1 0x20 ADD PUSH0 KECCAK256 PUSH1 0x1 ADD SLOAD NUMBER LT ISZERO DUP1 ISZERO PUSH2 0x4FC JUMPI POP PUSH1 0x6 PUSH0 PUSH1 0x1 DUP1 SLOAD PUSH2 0x4E7 SWAP2 SWAP1 PUSH2 0xF19 JUMP JUMPDEST DUP2 MSTORE PUSH1 0x20 ADD SWAP1 DUP2 MSTORE PUSH1 0x20 ADD PUSH0 KECCAK256 PUSH1 0x2 ADD SLOAD NUMBER GT ISZERO JUMPDEST SWAP1 POP JUMPDEST SWAP1 JUMP JUMPDEST PUSH0 PUSH2 0x550 PUSH1 0x6 PUSH0 DUP6 DUP2 MSTORE PUSH1 0x20 ADD SWAP1 DUP2 MSTORE PUSH1 0x20 ADD PUSH0 KECCAK256 PUSH1 0x5 ADD SLOAD PUSH2 0x542 DUP5 PUSH1 0x6 PUSH0 DUP9 DUP2 MSTORE PUSH1 0x20 ADD SWAP1 DUP2 MSTORE PUSH1 0x20 ADD PUSH0 KECCAK256 PUSH1 0x3 ADD SLOAD PUSH2 0xAC4 SWAP1 SWAP2 SWAP1 PUSH4 0xFFFFFFFF AND JUMP JUMPDEST PUSH2 0xAD9 SWAP1 SWAP2 SWAP1 PUSH4 0xFFFFFFFF AND JUMP JUMPDEST SWAP1 POP SWAP3 SWAP2 POP POP JUMP JUMPDEST PUSH1 0x3 SLOAD DUP2 JUMP JUMPDEST PUSH0 PUSH2 0x567 PUSH2 0x498 JUMP JUMPDEST PUSH2 0x5A6 JUMPI PUSH1 0x40 MLOAD PUSH32 0x8C379A000000000000000000000000000000000000000000000000000000000 DUP2 MSTORE PUSH1 0x4 ADD PUSH2 0x59D SWAP1 PUSH2 0xFA6 JUMP JUMPDEST PUSH1 0x40 MLOAD DUP1 SWAP2 SUB SWAP1 REVERT JUMPDEST PUSH1 0x1 DUP1 SLOAD PUSH2 0x5B4 SWAP2 SWAP1 PUSH2 0xF19 JUMP JUMPDEST SWAP1 POP SWAP1 JUMP JUMPDEST PUSH0 DUP1 PUSH1 0x6 PUSH0 DUP5 DUP2 MSTORE PUSH1 0x20 ADD SWAP1 DUP2 MSTORE PUSH1 0x20 ADD PUSH0 KECCAK256 PUSH1 0x6 ADD PUSH0 SWAP1 SLOAD SWAP1 PUSH2 0x100 EXP SWAP1 DIV PUSH1 0xFF AND ISZERO PUSH2 0x601 JUMPI PUSH1 0x1 PUSH1 0x6 PUSH0 DUP6 DUP2 MSTORE PUSH1 0x20 ADD SWAP1 DUP2 MSTORE PUSH1 0x20 ADD PUSH0 KECCAK256 PUSH1 0x4 ADD SLOAD SWAP2 POP SWAP2 POP PUSH2 0x791 JUMP JUMPDEST PUSH0 DUP1 PUSH1 0x4 PUSH0 SWAP1 SLOAD SWAP1 PUSH2 0x100 EXP SWAP1 DIV PUSH20 0xFFFFFFFFFFFFFFFFFFFFFFFFFFFFFFFFFFFFFFFF AND PUSH20 0xFFFFFFFFFFFFFFFFFFFFFFFFFFFFFFFFFFFFFFFF AND PUSH4 0x6B53F42A DUP7 PUSH1 0x40 MLOAD DUP3 PUSH4 0xFFFFFFFF AND PUSH1 0xE0 SHL DUP2 MSTORE PUSH1 0x4 ADD PUSH2 0x65D SWAP2 SWAP1 PUSH2 0xDAE JUMP JUMPDEST PUSH1 0x40 DUP1 MLOAD DUP1 DUP4 SUB DUP2 DUP7 GAS STATICCALL ISZERO DUP1 ISZERO PUSH2 0x677 JUMPI RETURNDATASIZE PUSH0 DUP1 RETURNDATACOPY RETURNDATASIZE PUSH0 REVERT JUMPDEST POP POP POP POP PUSH1 0x40 MLOAD RETURNDATASIZE PUSH1 0x1F NOT PUSH1 0x1F DUP3 ADD AND DUP3 ADD DUP1 PUSH1 0x40 MSTORE POP DUP2 ADD SWAP1 PUSH2 0x69B SWAP2 SWAP1 PUSH2 0x1002 JUMP JUMPDEST SWAP2 POP SWAP2 POP DUP1 ISZERO PUSH2 0x788 JUMPI PUSH1 0x1 PUSH1 0x6 PUSH0 DUP8 DUP2 MSTORE PUSH1 0x20 ADD SWAP1 DUP2 MSTORE PUSH1 0x20 ADD PUSH0 KECCAK256 PUSH1 0x6 ADD PUSH0 PUSH2 0x100 EXP DUP2 SLOAD DUP2 PUSH1 0xFF MUL NOT AND SWAP1 DUP4 ISZERO ISZERO MUL OR SWAP1 SSTORE POP DUP2 PUSH1 0x6 PUSH0 DUP8 DUP2 MSTORE PUSH1 0x20 ADD SWAP1 DUP2 MSTORE PUSH1 0x20 ADD PUSH0 KECCAK256 PUSH1 0x4 ADD DUP2 SWAP1 SSTORE POP ADDRESS PUSH20 0xFFFFFFFFFFFFFFFFFFFFFFFFFFFFFFFFFFFFFFFF AND PUSH4 0xBD85B039 DUP4 PUSH1 0x40 MLOAD DUP3 PUSH4 0xFFFFFFFF AND PUSH1 0xE0 SHL DUP2 MSTORE PUSH1 0x4 ADD PUSH2 0x723 SWAP2 SWAP1 PUSH2 0xDAE JUMP JUMPDEST PUSH1 0x20 PUSH1 0x40 MLOAD DUP1 DUP4 SUB DUP2 DUP7 GAS STATICCALL ISZERO DUP1 ISZERO PUSH2 0x73E JUMPI RETURNDATASIZE PUSH0 DUP1 RETURNDATACOPY RETURNDATASIZE PUSH0 REVERT JUMPDEST POP POP POP POP PUSH1 0x40 MLOAD RETURNDATASIZE PUSH1 0x1F NOT PUSH1 0x1F DUP3 ADD AND DUP3 ADD DUP1 PUSH1 0x40 MSTORE POP DUP2 ADD SWAP1 PUSH2 0x762 SWAP2 SWAP1 PUSH2 0x1040 JUMP JUMPDEST PUSH1 0x6 PUSH0 DUP8 DUP2 MSTORE PUSH1 0x20 ADD SWAP1 DUP2 MSTORE PUSH1 0x20 ADD PUSH0 KECCAK256 PUSH1 0x5 ADD DUP2 SWAP1 SSTORE POP PUSH1 0x1 DUP3 SWAP4 POP SWAP4 POP POP POP PUSH2 0x791 JUMP JUMPDEST PUSH0 DUP1 SWAP4 POP SWAP4 POP POP POP JUMPDEST SWAP2 POP SWAP2 JUMP JUMPDEST PUSH2 0x79E PUSH2 0xAEE JUMP JUMPDEST DUP1 PUSH1 0x3 DUP2 SWAP1 SSTORE POP POP JUMP JUMPDEST PUSH2 0x7B0 PUSH2 0xAEE JUMP JUMPDEST PUSH2 0x7B9 PUSH0 PUSH2 0xB75 JUMP JUMPDEST JUMP JUMPDEST PUSH0 PUSH1 0x7 PUSH0 DUP4 PUSH20 0xFFFFFFFFFFFFFFFFFFFFFFFFFFFFFFFFFFFFFFFF AND PUSH20 0xFFFFFFFFFFFFFFFFFFFFFFFFFFFFFFFFFFFFFFFF AND DUP2 MSTORE PUSH1 0x20 ADD SWAP1 DUP2 MSTORE PUSH1 0x20 ADD PUSH0 KECCAK256 PUSH1 0x1 ADD SLOAD SWAP1 POP SWAP2 SWAP1 POP JUMP JUMPDEST PUSH0 DUP2 PUSH1 0x5 PUSH0 DUP6 PUSH20 0xFFFFFFFFFFFFFFFFFFFFFFFFFFFFFFFFFFFFFFFF AND PUSH20 0xFFFFFFFFFFFFFFFFFFFFFFFFFFFFFFFFFFFFFFFF AND DUP2 MSTORE PUSH1 0x20 ADD SWAP1 DUP2 MSTORE PUSH1 0x20 ADD PUSH0 KECCAK256 SLOAD EQ SWAP1 POP SWAP3 SWAP2 POP POP JUMP JUMPDEST PUSH0 PUSH2 0x878 PUSH3 0x186A0 PUSH2 0x86A PUSH1 0x3 SLOAD DUP6 PUSH2 0xAC4 SWAP1 SWAP2 SWAP1 PUSH4 0xFFFFFFFF AND JUMP JUMPDEST PUSH2 0xAD9 SWAP1 SWAP2 SWAP1 PUSH4 0xFFFFFFFF AND JUMP JUMPDEST SWAP1 POP SWAP2 SWAP1 POP JUMP JUMPDEST PUSH0 DUP1 PUSH0 SWAP1 SLOAD SWAP1 PUSH2 0x100 EXP SWAP1 DIV PUSH20 0xFFFFFFFFFFFFFFFFFFFFFFFFFFFFFFFFFFFFFFFF AND SWAP1 POP SWAP1 JUMP JUMPDEST PUSH1 0x5 PUSH1 0x20 MSTORE DUP1 PUSH0 MSTORE PUSH1 0x40 PUSH0 KECCAK256 PUSH0 SWAP2 POP SWAP1 POP SLOAD DUP2 JUMP JUMPDEST PUSH1 0x2 SLOAD DUP2 JUMP JUMPDEST PUSH0 DUP1 PUSH1 0x7 PUSH0 DUP5 PUSH20 0xFFFFFFFFFFFFFFFFFFFFFFFFFFFFFFFFFFFFFFFF AND PUSH20 0xFFFFFFFFFFFFFFFFFFFFFFFFFFFFFFFFFFFFFFFF AND DUP2 MSTORE PUSH1 0x20 ADD SWAP1 DUP2 MSTORE PUSH1 0x20 ADD PUSH0 KECCAK256 PUSH1 0x1 ADD SLOAD EQ SWAP1 POP SWAP2 SWAP1 POP JUMP JUMPDEST PUSH0 DUP1 PUSH1 0x7 PUSH0 DUP5 PUSH20 0xFFFFFFFFFFFFFFFFFFFFFFFFFFFFFFFFFFFFFFFF AND PUSH20 0xFFFFFFFFFFFFFFFFFFFFFFFFFFFFFFFFFFFFFFFF AND DUP2 MSTORE PUSH1 0x20 ADD SWAP1 DUP2 MSTORE PUSH1 0x20 ADD PUSH0 KECCAK256 PUSH1 0x1 ADD SLOAD EQ ISZERO SWAP1 POP SWAP2 SWAP1 POP JUMP JUMPDEST PUSH0 PUSH1 0x1 DUP1 SLOAD SUB PUSH2 0x96A JUMPI PUSH0 SWAP1 POP PUSH2 0x991 JUMP JUMPDEST PUSH1 0x6 PUSH0 PUSH1 0x1 DUP1 SLOAD PUSH2 0x97B SWAP2 SWAP1 PUSH2 0xF19 JUMP JUMPDEST DUP2 MSTORE PUSH1 0x20 ADD SWAP1 DUP2 MSTORE PUSH1 0x20 ADD PUSH0 KECCAK256 PUSH1 0x1 ADD SLOAD NUMBER LT SWAP1 POP JUMPDEST SWAP1 JUMP JUMPDEST PUSH1 0x1 SLOAD DUP2 JUMP JUMPDEST PUSH2 0x9A2 PUSH2 0xAEE JUMP JUMPDEST PUSH0 PUSH20 0xFFFFFFFFFFFFFFFFFFFFFFFFFFFFFFFFFFFFFFFF AND DUP2 PUSH20 0xFFFFFFFFFFFFFFFFFFFFFFFFFFFFFFFFFFFFFFFF AND SUB PUSH2 0xA12 JUMPI PUSH0 PUSH1 0x40 MLOAD PUSH32 0x1E4FBDF700000000000000000000000000000000000000000000000000000000 DUP2 MSTORE PUSH1 0x4 ADD PUSH2 0xA09 SWAP2 SWAP1 PUSH2 0xE66 JUMP JUMPDEST PUSH1 0x40 MLOAD DUP1 SWAP2 SUB SWAP1 REVERT JUMPDEST PUSH2 0xA1B DUP2 PUSH2 0xB75 JUMP JUMPDEST POP JUMP JUMPDEST PUSH1 0x6 PUSH1 0x20 MSTORE DUP1 PUSH0 MSTORE PUSH1 0x40 PUSH0 KECCAK256 PUSH0 SWAP2 POP SWAP1 POP DUP1 PUSH0 ADD SLOAD SWAP1 DUP1 PUSH1 0x1 ADD SLOAD SWAP1 DUP1 PUSH1 0x2 ADD SLOAD SWAP1 DUP1 PUSH1 0x3 ADD SLOAD SWAP1 DUP1 PUSH1 0x4 ADD SLOAD SWAP1 DUP1 PUSH1 0x5 ADD SLOAD SWAP1 DUP1 PUSH1 0x6 ADD PUSH0 SWAP1 SLOAD SWAP1 PUSH2 0x100 EXP SWAP1 DIV PUSH1 0xFF AND SWAP1 POP DUP8 JUMP JUMPDEST PUSH0 PUSH1 0x1 ISZERO ISZERO PUSH1 0x7 PUSH0 DUP5 PUSH20 0xFFFFFFFFFFFFFFFFFFFFFFFFFFFFFFFFFFFFFFFF AND PUSH20 0xFFFFFFFFFFFFFFFFFFFFFFFFFFFFFFFFFFFFFFFF AND DUP2 MSTORE PUSH1 0x20 ADD SWAP1 DUP2 MSTORE PUSH1 0x20 ADD PUSH0 KECCAK256 PUSH1 0x2 ADD PUSH0 SWAP1 SLOAD SWAP1 PUSH2 0x100 EXP SWAP1 DIV PUSH1 0xFF AND ISZERO ISZERO EQ SWAP1 POP SWAP2 SWAP1 POP JUMP JUMPDEST PUSH0 DUP2 DUP4 PUSH2 0xAD1 SWAP2 SWAP1 PUSH2 0x106B JUMP JUMPDEST SWAP1 POP SWAP3 SWAP2 POP POP JUMP JUMPDEST PUSH0 DUP2 DUP4 PUSH2 0xAE6 SWAP2 SWAP1 PUSH2 0x10D9 JUMP JUMPDEST SWAP1 POP SWAP3 SWAP2 POP POP JUMP JUMPDEST PUSH2 0xAF6 PUSH2 0xC36 JUMP JUMPDEST PUSH20 0xFFFFFFFFFFFFFFFFFFFFFFFFFFFFFFFFFFFFFFFF AND PUSH2 0xB14 PUSH2 0x87F JUMP JUMPDEST PUSH20 0xFFFFFFFFFFFFFFFFFFFFFFFFFFFFFFFFFFFFFFFF AND EQ PUSH2 0xB73 JUMPI PUSH2 0xB37 PUSH2 0xC36 JUMP JUMPDEST PUSH1 0x40 MLOAD PUSH32 0x118CDAA700000000000000000000000000000000000000000000000000000000 DUP2 MSTORE PUSH1 0x4 ADD PUSH2 0xB6A SWAP2 SWAP1 PUSH2 0xE66 JUMP JUMPDEST PUSH1 0x40 MLOAD DUP1 SWAP2 SUB SWAP1 REVERT JUMPDEST JUMP JUMPDEST PUSH0 DUP1 PUSH0 SWAP1 SLOAD SWAP1 PUSH2 0x100 EXP SWAP1 DIV PUSH20 0xFFFFFFFFFFFFFFFFFFFFFFFFFFFFFFFFFFFFFFFF AND SWAP1 POP DUP2 PUSH0 DUP1 PUSH2 0x100 EXP DUP2 SLOAD DUP2 PUSH20 0xFFFFFFFFFFFFFFFFFFFFFFFFFFFFFFFFFFFFFFFF MUL NOT AND SWAP1 DUP4 PUSH20 0xFFFFFFFFFFFFFFFFFFFFFFFFFFFFFFFFFFFFFFFF AND MUL OR SWAP1 SSTORE POP DUP2 PUSH20 0xFFFFFFFFFFFFFFFFFFFFFFFFFFFFFFFFFFFFFFFF AND DUP2 PUSH20 0xFFFFFFFFFFFFFFFFFFFFFFFFFFFFFFFFFFFFFFFF AND PUSH32 0x8BE0079C531659141344CD1FD0A4F28419497F9722A3DAAFE3B4186F6B6457E0 PUSH1 0x40 MLOAD PUSH1 0x40 MLOAD DUP1 SWAP2 SUB SWAP1 LOG3 POP POP JUMP JUMPDEST PUSH0 CALLER SWAP1 POP SWAP1 JUMP JUMPDEST PUSH0 DUP1 REVERT JUMPDEST PUSH0 PUSH20 0xFFFFFFFFFFFFFFFFFFFFFFFFFFFFFFFFFFFFFFFF DUP3 AND SWAP1 POP SWAP2 SWAP1 POP JUMP JUMPDEST PUSH0 PUSH2 0xC6A DUP3 PUSH2 0xC41 JUMP JUMPDEST SWAP1 POP SWAP2 SWAP1 POP JUMP JUMPDEST PUSH2 0xC7A DUP2 PUSH2 0xC60 JUMP JUMPDEST DUP2 EQ PUSH2 0xC84 JUMPI PUSH0 DUP1 REVERT JUMPDEST POP JUMP JUMPDEST PUSH0 DUP2 CALLDATALOAD SWAP1 POP PUSH2 0xC95 DUP2 PUSH2 0xC71 JUMP JUMPDEST SWAP3 SWAP2 POP POP JUMP JUMPDEST PUSH0 PUSH1 0x20 DUP3 DUP5 SUB SLT ISZERO PUSH2 0xCB0 JUMPI PUSH2 0xCAF PUSH2 0xC3D JUMP JUMPDEST JUMPDEST PUSH0 PUSH2 0xCBD DUP5 DUP3 DUP6 ADD PUSH2 0xC87 JUMP JUMPDEST SWAP2 POP POP SWAP3 SWAP2 POP POP JUMP JUMPDEST PUSH0 DUP2 SWAP1 POP SWAP2 SWAP1 POP JUMP JUMPDEST PUSH2 0xCD8 DUP2 PUSH2 0xCC6 JUMP JUMPDEST DUP3 MSTORE POP POP JUMP JUMPDEST PUSH0 DUP2 ISZERO ISZERO SWAP1 POP SWAP2 SWAP1 POP JUMP JUMPDEST PUSH2 0xCF2 DUP2 PUSH2 0xCDE JUMP JUMPDEST DUP3 MSTORE POP POP JUMP JUMPDEST PUSH0 PUSH1 0x60 DUP3 ADD SWAP1 POP PUSH2 0xD0B PUSH0 DUP4 ADD DUP7 PUSH2 0xCCF JUMP JUMPDEST PUSH2 0xD18 PUSH1 0x20 DUP4 ADD DUP6 PUSH2 0xCCF JUMP JUMPDEST PUSH2 0xD25 PUSH1 0x40 DUP4 ADD DUP5 PUSH2 0xCE9 JUMP JUMPDEST SWAP5 SWAP4 POP POP POP POP JUMP JUMPDEST PUSH0 PUSH1 0x20 DUP3 ADD SWAP1 POP PUSH2 0xD40 PUSH0 DUP4 ADD DUP5 PUSH2 0xCE9 JUMP JUMPDEST SWAP3 SWAP2 POP POP JUMP JUMPDEST PUSH2 0xD4F DUP2 PUSH2 0xCC6 JUMP JUMPDEST DUP2 EQ PUSH2 0xD59 JUMPI PUSH0 DUP1 REVERT JUMPDEST POP JUMP JUMPDEST PUSH0 DUP2 CALLDATALOAD SWAP1 POP PUSH2 0xD6A DUP2 PUSH2 0xD46 JUMP JUMPDEST SWAP3 SWAP2 POP POP JUMP JUMPDEST PUSH0 DUP1 PUSH1 0x40 DUP4 DUP6 SUB SLT ISZERO PUSH2 0xD86 JUMPI PUSH2 0xD85 PUSH2 0xC3D JUMP JUMPDEST JUMPDEST PUSH0 PUSH2 0xD93 DUP6 DUP3 DUP7 ADD PUSH2 0xD5C JUMP JUMPDEST SWAP3 POP POP PUSH1 0x20 PUSH2 0xDA4 DUP6 DUP3 DUP7 ADD PUSH2 0xD5C JUMP JUMPDEST SWAP2 POP POP SWAP3 POP SWAP3 SWAP1 POP JUMP JUMPDEST PUSH0 PUSH1 0x20 DUP3 ADD SWAP1 POP PUSH2 0xDC1 PUSH0 DUP4 ADD DUP5 PUSH2 0xCCF JUMP JUMPDEST SWAP3 SWAP2 POP POP JUMP JUMPDEST PUSH0 PUSH1 0x20 DUP3 DUP5 SUB SLT ISZERO PUSH2 0xDDC JUMPI PUSH2 0xDDB PUSH2 0xC3D JUMP JUMPDEST JUMPDEST PUSH0 PUSH2 0xDE9 DUP5 DUP3 DUP6 ADD PUSH2 0xD5C JUMP JUMPDEST SWAP2 POP POP SWAP3 SWAP2 POP POP JUMP JUMPDEST PUSH0 PUSH1 0x40 DUP3 ADD SWAP1 POP PUSH2 0xE05 PUSH0 DUP4 ADD DUP6 PUSH2 0xCE9 JUMP JUMPDEST PUSH2 0xE12 PUSH1 0x20 DUP4 ADD DUP5 PUSH2 0xCCF JUMP JUMPDEST SWAP4 SWAP3 POP POP POP JUMP JUMPDEST PUSH0 DUP1 PUSH1 0x40 DUP4 DUP6 SUB SLT ISZERO PUSH2 0xE2F JUMPI PUSH2 0xE2E PUSH2 0xC3D JUMP JUMPDEST JUMPDEST PUSH0 PUSH2 0xE3C DUP6 DUP3 DUP7 ADD PUSH2 0xC87 JUMP JUMPDEST SWAP3 POP POP PUSH1 0x20 PUSH2 0xE4D DUP6 DUP3 DUP7 ADD PUSH2 0xD5C JUMP JUMPDEST SWAP2 POP POP SWAP3 POP SWAP3 SWAP1 POP JUMP JUMPDEST PUSH2 0xE60 DUP2 PUSH2 0xC60 JUMP JUMPDEST DUP3 MSTORE POP POP JUMP JUMPDEST PUSH0 PUSH1 0x20 DUP3 ADD SWAP1 POP PUSH2 0xE79 PUSH0 DUP4 ADD DUP5 PUSH2 0xE57 JUMP JUMPDEST SWAP3 SWAP2 POP POP JUMP JUMPDEST PUSH0 PUSH1 0xE0 DUP3 ADD SWAP1 POP PUSH2 0xE92 PUSH0 DUP4 ADD DUP11 PUSH2 0xCCF JUMP JUMPDEST PUSH2 0xE9F PUSH1 0x20 DUP4 ADD DUP10 PUSH2 0xCCF JUMP JUMPDEST PUSH2 0xEAC PUSH1 0x40 DUP4 ADD DUP9 PUSH2 0xCCF JUMP JUMPDEST PUSH2 0xEB9 PUSH1 0x60 DUP4 ADD DUP8 PUSH2 0xCCF JUMP JUMPDEST PUSH2 0xEC6 PUSH1 0x80 DUP4 ADD DUP7 PUSH2 0xCCF JUMP JUMPDEST PUSH2 0xED3 PUSH1 0xA0 DUP4 ADD DUP6 PUSH2 0xCCF JUMP JUMPDEST PUSH2 0xEE0 PUSH1 0xC0 DUP4 ADD DUP5 PUSH2 0xCE9 JUMP JUMPDEST SWAP9 SWAP8 POP POP POP POP POP POP POP POP JUMP JUMPDEST PUSH32 0x4E487B7100000000000000000000000000000000000000000000000000000000 PUSH0 MSTORE PUSH1 0x11 PUSH1 0x4 MSTORE PUSH1 0x24 PUSH0 REVERT JUMPDEST PUSH0 PUSH2 0xF23 DUP3 PUSH2 0xCC6 JUMP JUMPDEST SWAP2 POP PUSH2 0xF2E DUP4 PUSH2 0xCC6 JUMP JUMPDEST SWAP3 POP DUP3 DUP3 SUB SWAP1 POP DUP2 DUP2 GT ISZERO PUSH2 0xF46 JUMPI PUSH2 0xF45 PUSH2 0xEEC JUMP JUMPDEST JUMPDEST SWAP3 SWAP2 POP POP JUMP JUMPDEST PUSH0 DUP3 DUP3 MSTORE PUSH1 0x20 DUP3 ADD SWAP1 POP SWAP3 SWAP2 POP POP JUMP JUMPDEST PUSH32 0x4E6F206163746976652072657761726473210000000000000000000000000000 PUSH0 DUP3 ADD MSTORE POP JUMP JUMPDEST PUSH0 PUSH2 0xF90 PUSH1 0x12 DUP4 PUSH2 0xF4C JUMP JUMPDEST SWAP2 POP PUSH2 0xF9B DUP3 PUSH2 0xF5C JUMP JUMPDEST PUSH1 0x20 DUP3 ADD SWAP1 POP SWAP2 SWAP1 POP JUMP JUMPDEST PUSH0 PUSH1 0x20 DUP3 ADD SWAP1 POP DUP2 DUP2 SUB PUSH0 DUP4 ADD MSTORE PUSH2 0xFBD DUP2 PUSH2 0xF84 JUMP JUMPDEST SWAP1 POP SWAP2 SWAP1 POP JUMP JUMPDEST PUSH0 DUP2 MLOAD SWAP1 POP PUSH2 0xFD2 DUP2 PUSH2 0xD46 JUMP JUMPDEST SWAP3 SWAP2 POP POP JUMP JUMPDEST PUSH2 0xFE1 DUP2 PUSH2 0xCDE JUMP JUMPDEST DUP2 EQ PUSH2 0xFEB JUMPI PUSH0 DUP1 REVERT JUMPDEST POP JUMP JUMPDEST PUSH0 DUP2 MLOAD SWAP1 POP PUSH2 0xFFC DUP2 PUSH2 0xFD8 JUMP JUMPDEST SWAP3 SWAP2 POP POP JUMP JUMPDEST PUSH0 DUP1 PUSH1 0x40 DUP4 DUP6 SUB SLT ISZERO PUSH2 0x1018 JUMPI PUSH2 0x1017 PUSH2 0xC3D JUMP JUMPDEST JUMPDEST PUSH0 PUSH2 0x1025 DUP6 DUP3 DUP7 ADD PUSH2 0xFC4 JUMP JUMPDEST SWAP3 POP POP PUSH1 0x20 PUSH2 0x1036 DUP6 DUP3 DUP7 ADD PUSH2 0xFEE JUMP JUMPDEST SWAP2 POP POP SWAP3 POP SWAP3 SWAP1 POP JUMP JUMPDEST PUSH0 PUSH1 0x20 DUP3 DUP5 SUB SLT ISZERO PUSH2 0x1055 JUMPI PUSH2 0x1054 PUSH2 0xC3D JUMP JUMPDEST JUMPDEST PUSH0 PUSH2 0x1062 DUP5 DUP3 DUP6 ADD PUSH2 0xFC4 JUMP JUMPDEST SWAP2 POP POP SWAP3 SWAP2 POP POP JUMP JUMPDEST PUSH0 PUSH2 0x1075 DUP3 PUSH2 0xCC6 JUMP JUMPDEST SWAP2 POP PUSH2 0x1080 DUP4 PUSH2 0xCC6 JUMP JUMPDEST SWAP3 POP DUP3 DUP3 MUL PUSH2 0x108E DUP2 PUSH2 0xCC6 JUMP JUMPDEST SWAP2 POP DUP3 DUP3 DIV DUP5 EQ DUP4 ISZERO OR PUSH2 0x10A5 JUMPI PUSH2 0x10A4 PUSH2 0xEEC JUMP JUMPDEST JUMPDEST POP SWAP3 SWAP2 POP POP JUMP JUMPDEST PUSH32 0x4E487B7100000000000000000000000000000000000000000000000000000000 PUSH0 MSTORE PUSH1 0x12 PUSH1 0x4 MSTORE PUSH1 0x24 PUSH0 REVERT JUMPDEST PUSH0 PUSH2 0x10E3 DUP3 PUSH2 0xCC6 JUMP JUMPDEST SWAP2 POP PUSH2 0x10EE DUP4 PUSH2 0xCC6 JUMP JUMPDEST SWAP3 POP DUP3 PUSH2 0x10FE JUMPI PUSH2 0x10FD PUSH2 0x10AC JUMP JUMPDEST JUMPDEST DUP3 DUP3 DIV SWAP1 POP SWAP3 SWAP2 POP POP JUMP INVALID LOG2 PUSH5 0x6970667358 0x22 SLT KECCAK256 0x25 0xD PUSH13 0x4C5C9514665E77FACFA8DC2D09 PUSH0 0xA6 0xDD 0x2C 0xC6 0xE7 RETURN ADDRESS 0xAE BYTE SWAP14 SIGNEXTEND GASPRICE SLOAD 0xEE SELFBALANCE PUSH5 0x736F6C6343 STOP ADDMOD EQ STOP CALLER "
				},
				"gasEstimates": {
					"creation": {
						"codeDepositCost": "883000",
						"executionCost": "infinite",
						"totalCost": "infinite"
					},
					"external": {
						"accountFirstTimeReward(address)": "infinite",
						"availableRewardFunds()": "2514",
						"calculateFirstTimeRewardAmount(uint256)": "infinite",
						"calculateRewardAmount(uint256,uint256)": "infinite",
						"claimed(address)": "2869",
						"firstTimeRewardPercentage()": "2515",
						"getActiveRewardId()": "infinite",
						"getCelebIdToBeRewarded(uint256)": "infinite",
						"getFirstTimeRewardAmount(address)": "2924",
						"hasMintedAtleastOnce(address)": "2872",
						"isFirstTimeMinter(address)": "2958",
						"isFirstTimeRewardClaimed(address)": "3026",
						"isRewardActive()": "infinite",
						"isRewardClaimed(address,uint256)": "3123",
						"isRewardScheduled()": "infinite",
						"nextRewardId()": "2491",
						"owner()": "2560",
						"renounceOwnership()": "infinite",
						"rewards(uint256)": "infinite",
						"transferOwnership(address)": "infinite",
						"updateFirstTimeRewardPercentage(uint256)": "infinite"
					},
					"internal": {
						"depositRewardFunds(uint256)": "infinite",
						"markClaimed(address,uint256,uint256)": "infinite",
						"markFirstTimeRewardClaimed(address)": "infinite",
						"registerAndScheduleReward(uint256,uint256,uint256)": "infinite",
						"requestRewardedCelebId(uint256)": "infinite",
						"setFirstTimeReward(address,uint256,uint256)": "infinite"
					}
				},
				"methodIdentifiers": {
					"accountFirstTimeReward(address)": "03f1c622",
					"availableRewardFunds()": "d0377094",
					"calculateFirstTimeRewardAmount(uint256)": "83ded12e",
					"calculateRewardAmount(uint256,uint256)": "1e257a04",
					"claimed(address)": "c884ef83",
					"firstTimeRewardPercentage()": "5333ecb8",
					"getActiveRewardId()": "57c1a47f",
					"getCelebIdToBeRewarded(uint256)": "5e1aea0a",
					"getFirstTimeRewardAmount(address)": "7a67f053",
					"hasMintedAtleastOnce(address)": "daec6af6",
					"isFirstTimeMinter(address)": "d1f89993",
					"isFirstTimeRewardClaimed(address)": "f3432b88",
					"isRewardActive()": "1d0e98f3",
					"isRewardClaimed(address,uint256)": "81e0a842",
					"isRewardScheduled()": "df478880",
					"nextRewardId()": "f064997c",
					"owner()": "8da5cb5b",
					"renounceOwnership()": "715018a6",
					"rewards(uint256)": "f301af42",
					"transferOwnership(address)": "f2fde38b",
					"updateFirstTimeRewardPercentage(uint256)": "636d8e54"
				}
			},
			"storageLayout": {
				"storage": [
					{
						"astId": 8,
						"contract": "contracts/CelebStarRewards.sol:CelebStarRewards",
						"label": "_owner",
						"offset": 0,
						"slot": "0",
						"type": "t_address"
					},
					{
						"astId": 3500,
						"contract": "contracts/CelebStarRewards.sol:CelebStarRewards",
						"label": "nextRewardId",
						"offset": 0,
						"slot": "1",
						"type": "t_uint256"
					},
					{
						"astId": 3503,
						"contract": "contracts/CelebStarRewards.sol:CelebStarRewards",
						"label": "availableRewardFunds",
						"offset": 0,
						"slot": "2",
						"type": "t_uint256"
					},
					{
						"astId": 3506,
						"contract": "contracts/CelebStarRewards.sol:CelebStarRewards",
						"label": "firstTimeRewardPercentage",
						"offset": 0,
						"slot": "3",
						"type": "t_uint256"
					},
					{
						"astId": 3509,
						"contract": "contracts/CelebStarRewards.sol:CelebStarRewards",
						"label": "oracleClient",
						"offset": 0,
						"slot": "4",
						"type": "t_contract(IOracleClient)4146"
					},
					{
						"astId": 3535,
						"contract": "contracts/CelebStarRewards.sol:CelebStarRewards",
						"label": "claimed",
						"offset": 0,
						"slot": "5",
						"type": "t_mapping(t_address,t_uint256)"
					},
					{
						"astId": 3540,
						"contract": "contracts/CelebStarRewards.sol:CelebStarRewards",
						"label": "rewards",
						"offset": 0,
						"slot": "6",
						"type": "t_mapping(t_uint256,t_struct(Reward)3524_storage)"
					},
					{
						"astId": 3545,
						"contract": "contracts/CelebStarRewards.sol:CelebStarRewards",
						"label": "accountFirstTimeReward",
						"offset": 0,
						"slot": "7",
						"type": "t_mapping(t_address,t_struct(FirstTimeReward)3531_storage)"
					}
				],
				"types": {
					"t_address": {
						"encoding": "inplace",
						"label": "address",
						"numberOfBytes": "20"
					},
					"t_bool": {
						"encoding": "inplace",
						"label": "bool",
						"numberOfBytes": "1"
					},
					"t_contract(IOracleClient)4146": {
						"encoding": "inplace",
						"label": "contract IOracleClient",
						"numberOfBytes": "20"
					},
					"t_mapping(t_address,t_struct(FirstTimeReward)3531_storage)": {
						"encoding": "mapping",
						"key": "t_address",
						"label": "mapping(address => struct CelebStarRewards.FirstTimeReward)",
						"numberOfBytes": "32",
						"value": "t_struct(FirstTimeReward)3531_storage"
					},
					"t_mapping(t_address,t_uint256)": {
						"encoding": "mapping",
						"key": "t_address",
						"label": "mapping(address => uint256)",
						"numberOfBytes": "32",
						"value": "t_uint256"
					},
					"t_mapping(t_uint256,t_struct(Reward)3524_storage)": {
						"encoding": "mapping",
						"key": "t_uint256",
						"label": "mapping(uint256 => struct CelebStarRewards.Reward)",
						"numberOfBytes": "32",
						"value": "t_struct(Reward)3524_storage"
					},
					"t_struct(FirstTimeReward)3531_storage": {
						"encoding": "inplace",
						"label": "struct CelebStarRewards.FirstTimeReward",
						"members": [
							{
								"astId": 3526,
								"contract": "contracts/CelebStarRewards.sol:CelebStarRewards",
								"label": "celebId",
								"offset": 0,
								"slot": "0",
								"type": "t_uint256"
							},
							{
								"astId": 3528,
								"contract": "contracts/CelebStarRewards.sol:CelebStarRewards",
								"label": "rewardAmount",
								"offset": 0,
								"slot": "1",
								"type": "t_uint256"
							},
							{
								"astId": 3530,
								"contract": "contracts/CelebStarRewards.sol:CelebStarRewards",
								"label": "claimed",
								"offset": 0,
								"slot": "2",
								"type": "t_bool"
							}
						],
						"numberOfBytes": "96"
					},
					"t_struct(Reward)3524_storage": {
						"encoding": "inplace",
						"label": "struct CelebStarRewards.Reward",
						"members": [
							{
								"astId": 3511,
								"contract": "contracts/CelebStarRewards.sol:CelebStarRewards",
								"label": "id",
								"offset": 0,
								"slot": "0",
								"type": "t_uint256"
							},
							{
								"astId": 3513,
								"contract": "contracts/CelebStarRewards.sol:CelebStarRewards",
								"label": "start",
								"offset": 0,
								"slot": "1",
								"type": "t_uint256"
							},
							{
								"astId": 3515,
								"contract": "contracts/CelebStarRewards.sol:CelebStarRewards",
								"label": "end",
								"offset": 0,
								"slot": "2",
								"type": "t_uint256"
							},
							{
								"astId": 3517,
								"contract": "contracts/CelebStarRewards.sol:CelebStarRewards",
								"label": "totalRewardAmount",
								"offset": 0,
								"slot": "3",
								"type": "t_uint256"
							},
							{
								"astId": 3519,
								"contract": "contracts/CelebStarRewards.sol:CelebStarRewards",
								"label": "celebId",
								"offset": 0,
								"slot": "4",
								"type": "t_uint256"
							},
							{
								"astId": 3521,
								"contract": "contracts/CelebStarRewards.sol:CelebStarRewards",
								"label": "totalRewardTokenSupply",
								"offset": 0,
								"slot": "5",
								"type": "t_uint256"
							},
							{
								"astId": 3523,
								"contract": "contracts/CelebStarRewards.sol:CelebStarRewards",
								"label": "celebIdFetched",
								"offset": 0,
								"slot": "6",
								"type": "t_bool"
							}
						],
						"numberOfBytes": "224"
					},
					"t_uint256": {
						"encoding": "inplace",
						"label": "uint256",
						"numberOfBytes": "32"
					}
				}
			},
			"userdoc": {
				"kind": "user",
				"methods": {},
				"version": 1
			}
		}
	}
}