{
	"data": {
		"bytecode": {
			"linkReferences": {},
			"object": "60806040526040518060400160405280600381526020017f302e3300000000000000000000000000000000000000000000000000000000008152505f90816200004991906200169a565b5060016089555f608a55611388608b555f6090555f6092553480156200006d575f80fd5b50604051620092ed380380620092ed833981810160405281019062000093919062001812565b80338460405180602001604052805f815250701c35fedd14ffffffffffffffffffffffff6001602060808110620000cf57620000ce6200186b565b5b0181905550701b0ce43b323fffffffffffffffffffffff6001602160808110620000fe57620000fd6200186b565b5b01819055507019f0028ec1ffffffffffffffffffffffff60016022608081106200012d576200012c6200186b565b5b01819055507018ded91f0e7fffffffffffffffffffffff60016023608081106200015c576200015b6200186b565b5b01819055507017d8ec7f0417ffffffffffffffffffffff60016024608081106200018b576200018a6200186b565b5b01819055507016ddc6556cdbffffffffffffffffffffff6001602560808110620001ba57620001b96200186b565b5b01819055507015ecf52776a1ffffffffffffffffffffff6001602660808110620001e957620001e86200186b565b5b01819055507015060c256cb2ffffffffffffffffffffff60016027608081106200021857620002176200186b565b5b0181905550701428a2f98d72ffffffffffffffffffffff60016028608081106200024757620002466200186b565b5b01819055507013545598e5c23fffffffffffffffffffff60016029608081106200027657620002756200186b565b5b0181905550701288c4161ce1dfffffffffffffffffffff6001602a60808110620002a557620002a46200186b565b5b01819055507011c592761c666fffffffffffffffffffff6001602b60808110620002d457620002d36200186b565b5b018190555070110a688680a757ffffffffffffffffffff6001602c608081106200030357620003026200186b565b5b0181905550701056f1b5bedf77ffffffffffffffffffff6001602d608081106200033257620003316200186b565b5b0181905550700faadceceeff8bffffffffffffffffffff6001602e608081106200036157620003606200186b565b5b0181905550700f05dc6b27edadffffffffffffffffffff6001602f6080811062000390576200038f6200186b565b5b0181905550700e67a5a25da4107fffffffffffffffffff6001603060808110620003bf57620003be6200186b565b5b0181905550700dcff115b14eedffffffffffffffffffff6001603160808110620003ee57620003ed6200186b565b5b0181905550700d3e7a392431239fffffffffffffffffff60016032608081106200041d576200041c6200186b565b5b0181905550700cb2ff529eb71e4fffffffffffffffffff60016033608081106200044c576200044b6200186b565b5b0181905550700c2d415c3db974afffffffffffffffffff60016034608081106200047b576200047a6200186b565b5b0181905550700bad03e7d883f69bffffffffffffffffff6001603560808110620004aa57620004a96200186b565b5b0181905550700b320d03b2c343d5ffffffffffffffffff6001603660808110620004d957620004d86200186b565b5b0181905550700abc25204e02828dffffffffffffffffff60016037608081106200050857620005076200186b565b5b0181905550700a4b16f74ee4bb207fffffffffffffffff60016038608081106200053757620005366200186b565b5b01819055507009deaf736ac1f569ffffffffffffffffff60016039608081106200056657620005656200186b565b5b0181905550700976bd9952c7aa957fffffffffffffffff6001603a608081106200059557620005946200186b565b5b01819055507009131271922eaa606fffffffffffffffff6001603b60808110620005c457620005c36200186b565b5b01819055507008b380f3558668c46fffffffffffffffff6001603c60808110620005f357620005f26200186b565b5b0181905550700857ddf0117efa215bffffffffffffffff6001603d608081106200062257620006216200186b565b5b01819055507007ffffffffffffffffffffffffffffffff6001603e608081106200065157620006506200186b565b5b01819055507007abbf6f6abb9d087fffffffffffffffff6001603f6080811062000680576200067f6200186b565b5b018190555070075af62cbac95f7dfa7fffffffffffffff6001604060808110620006af57620006ae6200186b565b5b018190555070070d7fb7452e187ac13fffffffffffffff6001604160808110620006de57620006dd6200186b565b5b01819055507006c3390ecc8af379295fffffffffffffff60016042608081106200070d576200070c6200186b565b5b018190555070067c00a3b07ffc01fd6fffffffffffffff60016043608081106200073c576200073b6200186b565b5b0181905550700637b647c39cbb9d3d27ffffffffffffff60016044608081106200076b576200076a6200186b565b5b01819055507005f63b1fc104dbd39587ffffffffffffff60016045608081106200079a57620007996200186b565b5b01819055507005b771955b36e12f7235ffffffffffffff6001604660808110620007c957620007c86200186b565b5b018190555070057b3d49dda84556d6f6ffffffffffffff6001604760808110620007f857620007f76200186b565b5b018190555070054183095b2c8ececf30ffffffffffffff60016048608081106200082757620008266200186b565b5b018190555070050a28be635ca2b888f77fffffffffffff60016049608081106200085657620008556200186b565b5b01819055507004d5156639708c9db33c3fffffffffffff6001604a608081106200088557620008846200186b565b5b01819055507004a23105873875bd52dfdfffffffffffff6001604b60808110620008b457620008b36200186b565b5b0181905550700471649d87199aa990756fffffffffffff6001604c60808110620008e357620008e26200186b565b5b01819055507004429a21a029d4c1457cfbffffffffffff6001604d608081106200091257620009116200186b565b5b0181905550700415bc6d6fb7dd71af2cb3ffffffffffff6001604e608081106200094157620009406200186b565b5b01819055507003eab73b3bbfe282243ce1ffffffffffff6001604f6080811062000970576200096f6200186b565b5b01819055507003c1771ac9fb6b4c18e229ffffffffffff60016050608081106200099f576200099e6200186b565b5b0181905550700399e96897690418f785257fffffffffff6001605160808110620009ce57620009cd6200186b565b5b0181905550700373fc456c53bb779bf0ea9fffffffffff6001605260808110620009fd57620009fc6200186b565b5b018190555070034f9e8e490c48e67e6ab8bfffffffffff600160536080811062000a2c5762000a2b6200186b565b5b018190555070032cbfd4a7adc790560b3337ffffffffff600160546080811062000a5b5762000a5a6200186b565b5b018190555070030b50570f6e5d2acca94613ffffffffff600160556080811062000a8a5762000a896200186b565b5b01819055507002eb40f9f620fda6b56c2861ffffffffff600160566080811062000ab95762000ab86200186b565b5b01819055507002cc8340ecb0d0f520a6af58ffffffffff600160576080811062000ae85762000ae76200186b565b5b01819055507002af09481380a0a35cf1ba02ffffffffff600160586080811062000b175762000b166200186b565b5b0181905550700292c5bdd3b92ec810287b1b3fffffffff600160596080811062000b465762000b456200186b565b5b0181905550700277abdcdab07d5a77ac6d6b9fffffffff6001605a6080811062000b755762000b746200186b565b5b018190555070025daf6654b1eaa55fd64df5efffffffff6001605b6080811062000ba45762000ba36200186b565b5b0181905550700244c49c648baa98192dce88b7ffffffff6001605c6080811062000bd35762000bd26200186b565b5b018190555070022ce03cd5619a311b2471268bffffffff6001605d6080811062000c025762000c016200186b565b5b0181905550700215f77c045fbe885654a44a0fffffffff6001605e6080811062000c315762000c306200186b565b5b01819055507001ffffffffffffffffffffffffffffffff6001605f6080811062000c605762000c5f6200186b565b5b01819055507001eaefdbdaaee7421fc4d3ede5ffffffff600160606080811062000c8f5762000c8e6200186b565b5b01819055507001d6bd8b2eb257df7e8ca57b09bfffffff600160616080811062000cbe5762000cbd6200186b565b5b01819055507001c35fedd14b861eb0443f7f133fffffff600160626080811062000ced5762000cec6200186b565b5b01819055507001b0ce43b322bcde4a56e8ada5afffffff600160636080811062000d1c5762000d1b6200186b565b5b018190555070019f0028ec1fff007f5a195a39dfffffff600160646080811062000d4b5762000d4a6200186b565b5b018190555070018ded91f0e72ee74f49b15ba527ffffff600160656080811062000d7a5762000d796200186b565b5b018190555070017d8ec7f04136f4e5615fd41a63ffffff600160666080811062000da95762000da86200186b565b5b018190555070016ddc6556cdb84bdc8d12d22e6fffffff600160676080811062000dd85762000dd76200186b565b5b018190555070015ecf52776a1155b5bd8395814f7fffff600160686080811062000e075762000e066200186b565b5b018190555070015060c256cb23b3b3cc3754cf40ffffff600160696080811062000e365762000e356200186b565b5b01819055507001428a2f98d728ae223ddab715be3fffff6001606a6080811062000e655762000e646200186b565b5b018190555070013545598e5c23276ccf0ede68034fffff6001606b6080811062000e945762000e936200186b565b5b01819055507001288c4161ce1d6f54b7f61081194fffff6001606c6080811062000ec35762000ec26200186b565b5b018190555070011c592761c666aa641d5a01a40f17ffff6001606d6080811062000ef25762000ef16200186b565b5b0181905550700110a688680a7530515f3e6e6cfdcdffff6001606e6080811062000f215762000f206200186b565b5b01819055507001056f1b5bedf75c6bcb2ce8aed428ffff6001606f6080811062000f505762000f4f6200186b565b5b01819055506ffaadceceeff8a0890f3875f008277fff600160706080811062000f7e5762000f7d6200186b565b5b01819055506ff05dc6b27edad306388a600f6ba0bfff600160716080811062000fac5762000fab6200186b565b5b01819055506fe67a5a25da41063de1495d5b18cdbfff600160726080811062000fda5762000fd96200186b565b5b01819055506fdcff115b14eedde6fc3aa5353f2e4fff60016073608081106200100857620010076200186b565b5b01819055506fd3e7a3924312399f9aae2e0f868f8fff60016074608081106200103657620010356200186b565b5b01819055506fcb2ff529eb71e41582cccd5a1ee26fff60016075608081106200106457620010636200186b565b5b01819055506fc2d415c3db974ab32a51840c0b67edff60016076608081106200109257620010916200186b565b5b01819055506fbad03e7d883f69ad5b0a186184e06bff6001607760808110620010c057620010bf6200186b565b5b01819055506fb320d03b2c343d4829abd6075f0cc5ff6001607860808110620010ee57620010ed6200186b565b5b01819055506fabc25204e02828d73c6e80bcdb1a95bf60016079608081106200111c576200111b6200186b565b5b01819055506fa4b16f74ee4bb2040a1ec6c15fbbf2df6001607a608081106200114a57620011496200186b565b5b01819055506f9deaf736ac1f569deb1b5ae3f36c130f6001607b608081106200117857620011776200186b565b5b01819055506f976bd9952c7aa957f5937d790ef650376001607c60808110620011a657620011a56200186b565b5b01819055506f9131271922eaa6064b73a22d0bd4f2bf6001607d60808110620011d457620011d36200186b565b5b01819055506f8b380f3558668c46c91c49a2f8e967b96001607e608081106200120257620012016200186b565b5b01819055506f857ddf0117efa215952912839f6473e66001607f6080811062001230576200122f6200186b565b5b018190555062001246816200135e60201b60201c565b5080608781905550505f73ffffffffffffffffffffffffffffffffffffffff168173ffffffffffffffffffffffffffffffffffffffff1603620012c2575f6040517f1e4fbdf7000000000000000000000000000000000000000000000000000000008152600401620012b99190620018a9565b60405180910390fd5b620012d3816200137360201b60201c565b5080608c5f6101000a81548173ffffffffffffffffffffffffffffffffffffffff021916908373ffffffffffffffffffffffffffffffffffffffff160217905550508160915f6101000a81548173ffffffffffffffffffffffffffffffffffffffff021916908373ffffffffffffffffffffffffffffffffffffffff160217905550505050620018c4565b80608390816200136f91906200169a565b5050565b5f60885f9054906101000a900473ffffffffffffffffffffffffffffffffffffffff1690508160885f6101000a81548173ffffffffffffffffffffffffffffffffffffffff021916908373ffffffffffffffffffffffffffffffffffffffff1602179055508173ffffffffffffffffffffffffffffffffffffffff168173ffffffffffffffffffffffffffffffffffffffff167f8be0079c531659141344cd1fd0a4f28419497f9722a3daafe3b4186f6b6457e060405160405180910390a35050565b5f81519050919050565b7f4e487b71000000000000000000000000000000000000000000000000000000005f52604160045260245ffd5b7f4e487b71000000000000000000000000000000000000000000000000000000005f52602260045260245ffd5b5f6002820490506001821680620014b257607f821691505b602082108103620014c857620014c76200146d565b5b50919050565b5f819050815f5260205f209050919050565b5f6020601f8301049050919050565b5f82821b905092915050565b5f600883026200152c7fffffffffffffffffffffffffffffffffffffffffffffffffffffffffffffffff82620014ef565b620015388683620014ef565b95508019841693508086168417925050509392505050565b5f819050919050565b5f819050919050565b5f620015826200157c620015768462001550565b62001559565b62001550565b9050919050565b5f819050919050565b6200159d8362001562565b620015b5620015ac8262001589565b848454620014fb565b825550505050565b5f90565b620015cb620015bd565b620015d881848462001592565b505050565b5b81811015620015ff57620015f35f82620015c1565b600181019050620015de565b5050565b601f8211156200164e576200161881620014ce565b6200162384620014e0565b8101602085101562001633578190505b6200164b6200164285620014e0565b830182620015dd565b50505b505050565b5f82821c905092915050565b5f620016705f198460080262001653565b1980831691505092915050565b5f6200168a83836200165f565b9150826002028217905092915050565b620016a58262001436565b67ffffffffffffffff811115620016c157620016c062001440565b5b620016cd82546200149a565b620016da82828562001603565b5f60209050601f83116001811462001710575f8415620016fb578287015190505b6200170785826200167d565b86555062001776565b601f1984166200172086620014ce565b5f5b82811015620017495784890151825560018201915060208501945060208101905062001722565b8683101562001769578489015162001765601f8916826200165f565b8355505b6001600288020188555050505b505050505050565b5f80fd5b6200178d8162001550565b811462001798575f80fd5b50565b5f81519050620017ab8162001782565b92915050565b5f73ffffffffffffffffffffffffffffffffffffffff82169050919050565b5f620017dc82620017b1565b9050919050565b620017ee81620017d0565b8114620017f9575f80fd5b50565b5f815190506200180c81620017e3565b92915050565b5f805f606084860312156200182c576200182b6200177e565b5b5f6200183b868287016200179b565b93505060206200184e86828701620017fc565b92505060406200186186828701620017fc565b9150509250925092565b7f4e487b71000000000000000000000000000000000000000000000000000000005f52603260045260245ffd5b620018a381620017d0565b82525050565b5f602082019050620018be5f83018462001898565b92915050565b617a1b80620018d25f395ff3fe608060405260043610610333575f3560e01c806371b7747a116101aa578063c884ef83116100f6578063ee37778d11610094578063f242432a1161006e578063f242432a14610cec578063f2fde38b14610d14578063f301af4214610d3c578063f3432b8814610d7e57610333565b8063ee37778d14610c5e578063ef5cfb8c14610c9a578063f064997c14610cc257610333565b8063daec6af6116100d0578063daec6af614610b92578063df47888014610bce578063e985e9c514610bf8578063eced552614610c3457610333565b8063c884ef8314610af0578063d037709414610b2c578063d1f8999314610b5657610333565b8063a22cb46511610163578063b3cb11071161013d578063b3cb110714610a3a578063b6a33e5614610a62578063bd85b03914610a8c578063c62472f314610ac857610333565b8063a22cb465146109ae578063a3111abd146109d6578063b390c0ab14610a1257610333565b806371b7747a1461087c5780637a67f053146108a657806381e0a842146108e257806383ded12e1461091e5780638515dd811461095a5780638da5cb5b1461098457610333565b80632eb2c2d6116102845780635333ecb8116102225780635e1aea0a116101fc5780635e1aea0a146107c5578063636d8e5414610802578063708cb49c1461082a578063715018a61461086657610333565b80635333ecb81461074757806354fd4d501461077157806357c1a47f1461079b57610333565b806335d1fc061161025e57806335d1fc061461066957806349f9b0f7146106935780634e1273f4146106cf5780634f558e791461070b57610333565b80632eb2c2d6146105db57806334241793146106035780633517d9d71461062d57610333565b806318160ddd116102f15780631e257a04116102cb5780631e257a04146104ff578063254f8c9f1461053b57806329a00e7c146105775780632cc34940146105b357610333565b806318160ddd1461048f5780631b2ef1ca146104b95780631d0e98f3146104d557610333565b8062fdd58e1461033757806301ffc9a71461037357806303f1c622146103af5780630c7d5cd8146103ed5780630e89341c146104175780631426968714610453575b5f80fd5b348015610342575f80fd5b5061035d60048036038101906103589190615fb4565b610dba565b60405161036a9190616001565b60405180910390f35b34801561037e575f80fd5b506103996004803603810190610394919061606f565b610e10565b6040516103a691906160b4565b60405180910390f35b3480156103ba575f80fd5b506103d560048036038101906103d091906160cd565b610ef1565b6040516103e4939291906160f8565b60405180910390f35b3480156103f8575f80fd5b50610401610f23565b60405161040e9190616001565b60405180910390f35b348015610422575f80fd5b5061043d6004803603810190610438919061612d565b610f29565b60405161044a91906161e2565b60405180910390f35b34801561045e575f80fd5b506104796004803603810190610474919061612d565b610fbb565b6040516104869190616001565b60405180910390f35b34801561049a575f80fd5b506104a3610fd0565b6040516104b09190616001565b60405180910390f35b6104d360048036038101906104ce9190616202565b610fd9565b005b3480156104e0575f80fd5b506104e96111e0565b6040516104f691906160b4565b60405180910390f35b34801561050a575f80fd5b5061052560048036038101906105209190616202565b61124d565b6040516105329190616001565b60405180910390f35b348015610546575f80fd5b50610561600480360381019061055c919061612d565b6112a3565b60405161056e9190616001565b60405180910390f35b348015610582575f80fd5b5061059d60048036038101906105989190616279565b6112da565b6040516105aa9190616001565b60405180910390f35b3480156105be575f80fd5b506105d960048036038101906105d4919061612d565b61140b565b005b3480156105e6575f80fd5b5061060160048036038101906105fc91906164cd565b6114fb565b005b34801561060e575f80fd5b506106176115a2565b6040516106249190616001565b60405180910390f35b348015610638575f80fd5b50610653600480360381019061064e9190616202565b6115a8565b6040516106609190616001565b60405180910390f35b348015610674575f80fd5b5061067d6115df565b60405161068a91906165a7565b60405180910390f35b34801561069e575f80fd5b506106b960048036038101906106b49190616279565b6115e4565b6040516106c69190616001565b60405180910390f35b3480156106da575f80fd5b506106f560048036038101906106f09190616680565b611747565b60405161070291906167ad565b60405180910390f35b348015610716575f80fd5b50610731600480360381019061072c919061612d565b611854565b60405161073e91906160b4565b60405180910390f35b348015610752575f80fd5b5061075b611867565b6040516107689190616001565b60405180910390f35b34801561077c575f80fd5b5061078561186d565b60405161079291906161e2565b60405180910390f35b3480156107a6575f80fd5b506107af6118f8565b6040516107bc9190616001565b60405180910390f35b3480156107d0575f80fd5b506107eb60048036038101906107e6919061612d565b611954565b6040516107f99291906167cd565b60405180910390f35b34801561080d575f80fd5b506108286004803603810190610823919061612d565b611b31565b005b348015610835575f80fd5b50610850600480360381019061084b9190616202565b611b43565b60405161085d9190616001565b60405180910390f35b348015610871575f80fd5b5061087a611b7a565b005b348015610887575f80fd5b50610890611b8d565b60405161089d919061680c565b60405180910390f35b3480156108b1575f80fd5b506108cc60048036038101906108c791906160cd565b611b9e565b6040516108d99190616001565b60405180910390f35b3480156108ed575f80fd5b5061090860048036038101906109039190615fb4565b611be7565b60405161091591906160b4565b60405180910390f35b348015610929575f80fd5b50610944600480360381019061093f919061612d565b611c30565b6040516109519190616001565b60405180910390f35b348015610965575f80fd5b5061096e611c62565b60405161097b9190616001565b60405180910390f35b34801561098f575f80fd5b50610998611c6b565b6040516109a59190616834565b60405180910390f35b3480156109b9575f80fd5b506109d460048036038101906109cf9190616877565b611c93565b005b3480156109e1575f80fd5b506109fc60048036038101906109f79190616202565b611ca9565b604051610a099190616001565b60405180910390f35b348015610a1d575f80fd5b50610a386004803603810190610a339190616202565b611cd9565b005b348015610a45575f80fd5b50610a606004803603810190610a5b91906160cd565b611ecf565b005b348015610a6d575f80fd5b50610a76612054565b604051610a839190616001565b60405180910390f35b348015610a97575f80fd5b50610ab26004803603810190610aad919061612d565b612214565b604051610abf9190616001565b60405180910390f35b348015610ad3575f80fd5b50610aee6004803603810190610ae991906168b5565b61222e565b005b348015610afb575f80fd5b50610b166004803603810190610b1191906160cd565b612246565b604051610b239190616001565b60405180910390f35b348015610b37575f80fd5b50610b4061225b565b604051610b4d9190616001565b60405180910390f35b348015610b61575f80fd5b50610b7c6004803603810190610b7791906160cd565b612261565b604051610b8991906160b4565b60405180910390f35b348015610b9d575f80fd5b50610bb86004803603810190610bb391906160cd565b6122ac565b604051610bc591906160b4565b60405180910390f35b348015610bd9575f80fd5b50610be26122f8565b604051610bef91906160b4565b60405180910390f35b348015610c03575f80fd5b50610c1e6004803603810190610c199190616905565b612336565b604051610c2b91906160b4565b60405180910390f35b348015610c3f575f80fd5b50610c486123c4565b604051610c559190616001565b60405180910390f35b348015610c69575f80fd5b50610c846004803603810190610c7f9190616202565b6123d0565b604051610c919190616001565b60405180910390f35b348015610ca5575f80fd5b50610cc06004803603810190610cbb91906160cd565b612400565b005b348015610ccd575f80fd5b50610cd6612473565b604051610ce39190616001565b60405180910390f35b348015610cf7575f80fd5b50610d126004803603810190610d0d9190616943565b612479565b005b348015610d1f575f80fd5b50610d3a6004803603810190610d3591906160cd565b612520565b005b348015610d47575f80fd5b50610d626004803603810190610d5d919061612d565b6125a4565b604051610d7597969594939291906169d6565b60405180910390f35b348015610d89575f80fd5b50610da46004803603810190610d9f91906160cd565b6125ee565b604051610db191906160b4565b60405180910390f35b5f60815f8381526020019081526020015f205f8473ffffffffffffffffffffffffffffffffffffffff1673ffffffffffffffffffffffffffffffffffffffff1681526020019081526020015f2054905092915050565b5f7fd9b67a26000000000000000000000000000000000000000000000000000000007bffffffffffffffffffffffffffffffffffffffffffffffffffffffff1916827bffffffffffffffffffffffffffffffffffffffffffffffffffffffff19161480610eda57507f0e89341c000000000000000000000000000000000000000000000000000000007bffffffffffffffffffffffffffffffffffffffffffffffffffffffff1916827bffffffffffffffffffffffffffffffffffffffffffffffffffffffff1916145b80610eea5750610ee98261264a565b5b9050919050565b608f602052805f5260405f205f91509050805f015490806001015490806002015f9054906101000a900460ff16905083565b60875481565b606060838054610f3890616a70565b80601f0160208091040260200160405190810160405280929190818152602001828054610f6490616a70565b8015610faf5780601f10610f8657610100808354040283529160200191610faf565b820191905f5260205f20905b815481529060010190602001808311610f9257829003601f168201915b50505050509050919050565b6086602052805f5260405f205f915090505481565b5f608554905090565b609054821061101d576040517f08c379a000000000000000000000000000000000000000000000000000000000815260040161101490616aea565b60405180910390fd5b5f8060605f61103261102d6126b3565b6126ba565b809450819550829650839750505050506004600581111561105657611055616b08565b5b83600581111561106957611068616b08565b5b036110a9576040517f08c379a00000000000000000000000000000000000000000000000000000000081526004016110a090616ba5565b60405180910390fd5b6110bb6110b46126b3565b87876128a8565b5f6110c58661290f565b90505f6110db828861293b90919063ffffffff16565b90506110e78882612950565b5060915f9054906101000a900473ffffffffffffffffffffffffffffffffffffffff1673ffffffffffffffffffffffffffffffffffffffff166323b872dd61112d6126b3565b308a6040518463ffffffff1660e01b815260040161114d93929190616bc3565b6020604051808303815f875af1158015611169573d5f803e3d5ffd5b505050506040513d601f19601f8201168201806040525081019061118d9190616c0c565b6111cc576040517f08c379a00000000000000000000000000000000000000000000000000000000081526004016111c390616c81565b60405180910390fd5b6111d68584612a48565b5050505050505050565b5f6001608954036111f3575f905061124a565b608e5f60016089546112059190616ccc565b81526020019081526020015f206001015443101580156112475750608e5f60016089546112329190616ccc565b81526020019081526020015f20600201544311155b90505b90565b5f61129b608e5f8581526020019081526020015f206005015461128d84608e5f8881526020019081526020015f2060030154612b5a90919063ffffffff16565b612b6f90919063ffffffff16565b905092915050565b5f6112d3620186a06112c5606463ffffffff1685612b5a90919063ffffffff16565b612b6f90919063ffffffff16565b9050919050565b5f80851180156112e957505f84115b80156112fa57505f8363ffffffff16115b80156113155750620f424063ffffffff168363ffffffff1611155b611354576040517f08c379a000000000000000000000000000000000000000000000000000000000815260040161134b90616d49565b60405180910390fd5b5f8203611363575f9050611403565b620f424063ffffffff168363ffffffff16036113a55761139e846113908488612b5a90919063ffffffff16565b612b6f90919063ffffffff16565b9050611403565b5f805f6113bb8786612b8490919063ffffffff16565b90506113cc818888620f4240612b99565b80935081945050505f8260ff166113ec858b612b5a90919063ffffffff16565b901c905088816113fc9190616ccc565b9450505050505b949350505050565b60915f9054906101000a900473ffffffffffffffffffffffffffffffffffffffff1673ffffffffffffffffffffffffffffffffffffffff166323b872dd6114506126b3565b30846040518463ffffffff1660e01b815260040161147093929190616bc3565b6020604051808303815f875af115801561148c573d5f803e3d5ffd5b505050506040513d601f19601f820116820180604052508101906114b09190616c0c565b6114ef576040517f08c379a00000000000000000000000000000000000000000000000000000000081526004016114e690616db1565b60405180910390fd5b6114f881612d22565b50565b5f6115046126b3565b90508073ffffffffffffffffffffffffffffffffffffffff168673ffffffffffffffffffffffffffffffffffffffff161415801561154957506115478682612336565b155b1561158d5780866040517fe237d922000000000000000000000000000000000000000000000000000000008152600401611584929190616dcf565b60405180910390fd5b61159a8686868686612d80565b505050505050565b60925481565b5f806115b3836112a3565b90505f6115c9828561293b90919063ffffffff16565b90506115d58582611ca9565b9250505092915050565b606481565b5f80851180156115f357505f84115b801561160457505f8363ffffffff16115b801561161f5750620f424063ffffffff168363ffffffff1611155b801561162b5750848211155b61166a576040517f08c379a000000000000000000000000000000000000000000000000000000000815260040161166190616d49565b60405180910390fd5b5f8203611679575f905061173f565b8482036116885783905061173f565b620f424063ffffffff168363ffffffff16036116ca576116c3856116b58487612b5a90919063ffffffff16565b612b6f90919063ffffffff16565b905061173f565b5f805f84886116d99190616ccc565b90506116ea8882620f424089612b99565b80935081945050505f6117068489612b5a90919063ffffffff16565b90505f8360ff1689901b905061173785611729838561293b90919063ffffffff16565b612b6f90919063ffffffff16565b955050505050505b949350505050565b6060815183511461179357815183516040517f5b05999100000000000000000000000000000000000000000000000000000000815260040161178a929190616df6565b60405180910390fd5b5f835167ffffffffffffffff8111156117af576117ae6162e1565b5b6040519080825280602002602001820160405280156117dd5781602001602082028036833780820191505090505b5090505f5b8451811015611849576118196118018287612e7490919063ffffffff16565b6118148387612e8790919063ffffffff16565b610dba565b82828151811061182c5761182b616e1d565b5b6020026020010181815250508061184290616e4a565b90506117e2565b508091505092915050565b5f8061185f83612214565b119050919050565b608b5481565b5f805461187990616a70565b80601f01602080910402602001604051908101604052809291908181526020018280546118a590616a70565b80156118f05780601f106118c7576101008083540402835291602001916118f0565b820191905f5260205f20905b8154815290600101906020018083116118d357829003601f168201915b505050505081565b5f6119016111e0565b611940576040517f08c379a000000000000000000000000000000000000000000000000000000000815260040161193790616edb565b60405180910390fd5b600160895461194f9190616ccc565b905090565b5f80608e5f8481526020019081526020015f206006015f9054906101000a900460ff161561199c576001608e5f8581526020019081526020015f206004015491509150611b2c565b5f80608c5f9054906101000a900473ffffffffffffffffffffffffffffffffffffffff1673ffffffffffffffffffffffffffffffffffffffff16636b53f42a866040518263ffffffff1660e01b81526004016119f89190616001565b6040805180830381865afa158015611a12573d5f803e3d5ffd5b505050506040513d601f19601f82011682018060405250810190611a369190616f0d565b915091508015611b23576001608e5f8781526020019081526020015f206006015f6101000a81548160ff02191690831515021790555081608e5f8781526020019081526020015f20600401819055503073ffffffffffffffffffffffffffffffffffffffff1663bd85b039836040518263ffffffff1660e01b8152600401611abe9190616001565b602060405180830381865afa158015611ad9573d5f803e3d5ffd5b505050506040513d601f19601f82011682018060405250810190611afd9190616f4b565b608e5f8781526020019081526020015f2060050181905550600182935093505050611b2c565b5f809350935050505b915091565b611b39612e9a565b80608b8190555050565b5f80611b4f84846123d0565b90505f611b5b826112a3565b9050611b70818361293b90919063ffffffff16565b9250505092915050565b611b82612e9a565b611b8b5f612f21565b565b5f611b99609054612fe4565b905090565b5f608f5f8373ffffffffffffffffffffffffffffffffffffffff1673ffffffffffffffffffffffffffffffffffffffff1681526020019081526020015f20600101549050919050565b5f81608d5f8573ffffffffffffffffffffffffffffffffffffffff1673ffffffffffffffffffffffffffffffffffffffff1681526020019081526020015f205414905092915050565b5f611c5b620186a0611c4d608b5485612b5a90919063ffffffff16565b612b6f90919063ffffffff16565b9050919050565b5f609054905090565b5f60885f9054906101000a900473ffffffffffffffffffffffffffffffffffffffff16905090565b611ca5611c9e6126b3565b838361312e565b5050565b5f611cd1611cb684612214565b60865f8681526020019081526020015f2054608754856112da565b905092915050565b6090548210611d1d576040517f08c379a0000000000000000000000000000000000000000000000000000000008152600401611d1490616aea565b60405180910390fd5b5f8060605f611d32611d2d6126b3565b6126ba565b8094508195508296508397505050505060046005811115611d5657611d55616b08565b5b836005811115611d6957611d68616b08565b5b03611da9576040517f08c379a0000000000000000000000000000000000000000000000000000000008152600401611da090616ba5565b60405180910390fd5b5f611db48787613297565b90505f611dc08261290f565b90505f611dd6828461293b90919063ffffffff16565b9050611de28685612a48565b60915f9054906101000a900473ffffffffffffffffffffffffffffffffffffffff1673ffffffffffffffffffffffffffffffffffffffff1663a9059cbb611e276126b3565b836040518363ffffffff1660e01b8152600401611e45929190616f76565b6020604051808303815f875af1158015611e61573d5f803e3d5ffd5b505050506040513d601f19601f82011682018060405250810190611e859190616c0c565b611ec4576040517f08c379a0000000000000000000000000000000000000000000000000000000008152600401611ebb90616c81565b60405180910390fd5b505050505050505050565b611ed8816122ac565b611f17576040517f08c379a0000000000000000000000000000000000000000000000000000000008152600401611f0e90616fe7565b60405180910390fd5b611f20816125ee565b15611f60576040517f08c379a0000000000000000000000000000000000000000000000000000000008152600401611f579061704f565b60405180910390fd5b5f611f6a82611b9e565b9050611f75826133d5565b60915f9054906101000a900473ffffffffffffffffffffffffffffffffffffffff1673ffffffffffffffffffffffffffffffffffffffff1663a9059cbb83836040518363ffffffff1660e01b8152600401611fd1929190616f76565b6020604051808303815f875af1158015611fed573d5f803e3d5ffd5b505050506040513d601f19601f820116820180604052508101906120119190616c0c565b612050576040517f08c379a000000000000000000000000000000000000000000000000000000000815260040161204790616c81565b60405180910390fd5b5050565b5f61205d612e9a565b60915f9054906101000a900473ffffffffffffffffffffffffffffffffffffffff1673ffffffffffffffffffffffffffffffffffffffff166323b872dd6120a26126b3565b30670de0b6b3a764000060016120b8919061706d565b6040518463ffffffff1660e01b81526004016120d693929190616bc3565b6020604051808303815f875af11580156120f2573d5f803e3d5ffd5b505050506040513d601f19601f820116820180604052508101906121169190616c0c565b612155576040517f08c379a000000000000000000000000000000000000000000000000000000000815260040161214c90616c81565b60405180910390fd5b5f60905f81548092919061216890616e4a565b919050559050670de0b6b3a76400006001612183919061706d565b60865f8381526020019081526020015f20819055506121cd6121a36126b3565b82670de0b6b3a764000060016121b9919061706d565b60405180602001604052805f8152506135ca565b7fb4c396a88fca8d5d15002a1d24b003a4aaf4816b8237e6663b60af02db9c79b46121f66126b3565b82604051612205929190616f76565b60405180910390a18091505090565b5f60845f8381526020019081526020015f20549050919050565b612236612e9a565b61224183838361365f565b505050565b608d602052805f5260405f205f915090505481565b608a5481565b5f80608f5f8473ffffffffffffffffffffffffffffffffffffffff1673ffffffffffffffffffffffffffffffffffffffff1681526020019081526020015f2060010154149050919050565b5f80608f5f8473ffffffffffffffffffffffffffffffffffffffff1673ffffffffffffffffffffffffffffffffffffffff1681526020019081526020015f206001015414159050919050565b5f60016089540361230b575f9050612333565b608e5f600160895461231d9190616ccc565b81526020019081526020015f2060010154431090505b90565b5f60825f8473ffffffffffffffffffffffffffffffffffffffff1673ffffffffffffffffffffffffffffffffffffffff1681526020019081526020015f205f8373ffffffffffffffffffffffffffffffffffffffff1673ffffffffffffffffffffffffffffffffffffffff1681526020019081526020015f205f9054906101000a900460ff16905092915050565b670de0b6b3a764000081565b5f6123f86123dd84612214565b60865f8681526020019081526020015f2054608754856115e4565b905092915050565b5f8060605f61240e856126ba565b809450819550829650839750505050506124288382612a48565b83829061246b576040517f08c379a000000000000000000000000000000000000000000000000000000000815260040161246291906161e2565b60405180910390fd5b505050505050565b60895481565b5f6124826126b3565b90508073ffffffffffffffffffffffffffffffffffffffff168673ffffffffffffffffffffffffffffffffffffffff16141580156124c757506124c58682612336565b155b1561250b5780866040517fe237d922000000000000000000000000000000000000000000000000000000008152600401612502929190616dcf565b60405180910390fd5b6125188686868686613984565b505050505050565b612528612e9a565b5f73ffffffffffffffffffffffffffffffffffffffff168173ffffffffffffffffffffffffffffffffffffffff1603612598575f6040517f1e4fbdf700000000000000000000000000000000000000000000000000000000815260040161258f9190616834565b60405180910390fd5b6125a181612f21565b50565b608e602052805f5260405f205f91509050805f015490806001015490806002015490806003015490806004015490806005015490806006015f9054906101000a900460ff16905087565b5f60011515608f5f8473ffffffffffffffffffffffffffffffffffffffff1673ffffffffffffffffffffffffffffffffffffffff1681526020019081526020015f206002015f9054906101000a900460ff161515149050919050565b5f7f01ffc9a7000000000000000000000000000000000000000000000000000000007bffffffffffffffffffffffffffffffffffffffffffffffffffffffff1916827bffffffffffffffffffffffffffffffffffffffffffffffffffffffff1916149050919050565b5f33905090565b5f8060605f6126c76111e0565b612712575f805f6040518060400160405280601281526020017f4e6f2061637469766520726577617264732100000000000000000000000000008152509093509350935093506128a1565b5f61271b6118f8565b90506127278682611be7565b15612775575f60015f6040518060400160405280601781526020017f52657761726420616c726561647920636c61696d656421000000000000000000815250909450945094509450506128a1565b5f8061278083611954565b91509150816127d4575f60045f6040518060400160405280602081526020017f52657761726465642063656c6562206964206e6f7420617661696c61626c65218152509096509650965096505050506128a1565b5f6127df8983610dba565b90505f810361283f576127f389855f613a8a565b5f60025f6040518060400160405280601881526020017f4e6f7420656c696769626c6520666f7220726577617264210000000000000000815250909750975097509750505050506128a1565b5f61284a858361124d565b90506128578a8683613a8a565b60016005826040518060400160405280601c81526020017f5265776172647320636c61696d6564207375636365737366756c6c790000000081525090985098509850985050505050505b9193509193565b6128b183612261565b1561290a575f6128c082611c30565b90506128cd848483613b27565b7f7a8b74794bd86a2aa2cce3f5ecd233ef7b96a2ea21cd6c4ab522185c01d01759848483604051612900939291906170ae565b60405180910390a1505b505050565b5f612919826112a3565b905061293081609254612b8490919063ffffffff16565b609281905550919050565b5f81836129489190616ccc565b905092915050565b5f815f8111612994576040517f08c379a000000000000000000000000000000000000000000000000000000000815260040161298b9061712d565b60405180910390fd5b5f61299f8585611ca9565b90506129c58460865f8881526020019081526020015f2054612b8490919063ffffffff16565b60865f8781526020019081526020015f20819055506129fb6129e56126b3565b868360405180602001604052805f8152506135ca565b7f65ab8b57af027ad387b3f608b0745de61b7dc81d07be6ded03736db32fe46bd9612a246126b3565b8286604051612a35939291906170ae565b60405180910390a1809250505092915050565b600580811115612a5b57612a5a616b08565b5b826005811115612a6e57612a6d616b08565b5b03612b565760915f9054906101000a900473ffffffffffffffffffffffffffffffffffffffff1673ffffffffffffffffffffffffffffffffffffffff1663a9059cbb612ab86126b3565b836040518363ffffffff1660e01b8152600401612ad6929190616f76565b6020604051808303815f875af1158015612af2573d5f803e3d5ffd5b505050506040513d601f19601f82011682018060405250810190612b169190616c0c565b612b55576040517f08c379a0000000000000000000000000000000000000000000000000000000008152600401612b4c90616c81565b60405180910390fd5b5b5050565b5f8183612b67919061706d565b905092915050565b5f8183612b7c9190617178565b905092915050565b5f8183612b9191906171a8565b905092915050565b5f807002000000000000000000000000000000008610612bee576040517f08c379a0000000000000000000000000000000000000000000000000000000008152600401612be590617225565b60405180910390fd5b84861015612c31576040517f08c379a0000000000000000000000000000000000000000000000000000000008152600401612c289061728d565b60405180910390fd5b5f80866f8000000000000000000000000000000089612c50919061706d565b612c5a9190617178565b905070015bf0a8b1457695355fb8ac404e7a79e3811015612c8557612c7e81613bbf565b9150612c91565b612c8e81614334565b91505b5f8563ffffffff168763ffffffff1684612cab919061706d565b612cb59190617178565b9050700800000000000000000000000000000000811015612ce757612cd98161448e565b607f94509450505050612d19565b5f612cf182614c88565b9050612d0f81607f612d0391906172b7565b60ff1683901c82614d65565b8195509550505050505b94509492505050565b612d3781608a54612b8490919063ffffffff16565b608a819055507f3d560ffd62f992091e727a573216bc1324ea4bc13abd039e69319844d3be5ba5612d666126b3565b82604051612d75929190616f76565b60405180910390a150565b5f73ffffffffffffffffffffffffffffffffffffffff168473ffffffffffffffffffffffffffffffffffffffff1603612df0575f6040517f57f447ce000000000000000000000000000000000000000000000000000000008152600401612de79190616834565b60405180910390fd5b5f73ffffffffffffffffffffffffffffffffffffffff168573ffffffffffffffffffffffffffffffffffffffff1603612e60575f6040517f01a83514000000000000000000000000000000000000000000000000000000008152600401612e579190616834565b60405180910390fd5b612e6d8585858585615472565b5050505050565b5f60208202602084010151905092915050565b5f60208202602084010151905092915050565b612ea26126b3565b73ffffffffffffffffffffffffffffffffffffffff16612ec0611c6b565b73ffffffffffffffffffffffffffffffffffffffff1614612f1f57612ee36126b3565b6040517f118cdaa7000000000000000000000000000000000000000000000000000000008152600401612f169190616834565b60405180910390fd5b565b5f60885f9054906101000a900473ffffffffffffffffffffffffffffffffffffffff1690508160885f6101000a81548173ffffffffffffffffffffffffffffffffffffffff021916908373ffffffffffffffffffffffffffffffffffffffff1602179055508173ffffffffffffffffffffffffffffffffffffffff168173ffffffffffffffffffffffffffffffffffffffff167f8be0079c531659141344cd1fd0a4f28419497f9722a3daafe3b4186f6b6457e060405160405180910390a35050565b5f80612fee6118f8565b9050608e5f8281526020019081526020015f206006015f9054906101000a900460ff1615613051576040517f08c379a00000000000000000000000000000000000000000000000000000000081526004016130489061735b565b60405180910390fd5b608c5f9054906101000a900473ffffffffffffffffffffffffffffffffffffffff1673ffffffffffffffffffffffffffffffffffffffff1663167916a982856040518363ffffffff1660e01b81526004016130ad929190616df6565b6020604051808303815f875af11580156130c9573d5f803e3d5ffd5b505050506040513d601f19601f820116820180604052508101906130ed91906173a3565b91507fddd41fe2f3dde7b604bdc7ebf90e6d8b3966ef11be0be82c6d6e34a03b5bf9e381836040516131209291906173ce565b60405180910390a150919050565b5f73ffffffffffffffffffffffffffffffffffffffff168273ffffffffffffffffffffffffffffffffffffffff160361319e575f6040517fced3e1000000000000000000000000000000000000000000000000000000000081526004016131959190616834565b60405180910390fd5b8060825f8573ffffffffffffffffffffffffffffffffffffffff1673ffffffffffffffffffffffffffffffffffffffff1681526020019081526020015f205f8473ffffffffffffffffffffffffffffffffffffffff1673ffffffffffffffffffffffffffffffffffffffff1681526020019081526020015f205f6101000a81548160ff0219169083151502179055508173ffffffffffffffffffffffffffffffffffffffff168373ffffffffffffffffffffffffffffffffffffffff167f17307eab39ab6107e8899845ad3d59bd9653f200f220920489ca2b5937696c318360405161328a91906160b4565b60405180910390a3505050565b5f82825f81116132dc576040517f08c379a00000000000000000000000000000000000000000000000000000000081526004016132d39061743f565b60405180910390fd5b806132ee6132e86126b3565b84610dba565b101561332f576040517f08c379a0000000000000000000000000000000000000000000000000000000008152600401613326906174a7565b60405180910390fd5b5f61333a86866123d0565b90506133608160865f8981526020019081526020015f205461293b90919063ffffffff16565b60865f8881526020019081526020015f20819055506133876133806126b3565b878761551e565b7f14feb1b32dbb3ebf172a72bc6b201cb3ddcd8dd148da8b8ac41207f2d69bdd326133b06126b3565b86836040516133c1939291906170ae565b60405180910390a180935050505092915050565b608f5f8273ffffffffffffffffffffffffffffffffffffffff1673ffffffffffffffffffffffffffffffffffffffff1681526020019081526020015f2060010154608a54101561345a576040517f08c379a00000000000000000000000000000000000000000000000000000000081526004016134519061750f565b60405180910390fd5b6001608f5f8373ffffffffffffffffffffffffffffffffffffffff1673ffffffffffffffffffffffffffffffffffffffff1681526020019081526020015f206002015f6101000a81548160ff021916908315150217905550613507608f5f8373ffffffffffffffffffffffffffffffffffffffff1673ffffffffffffffffffffffffffffffffffffffff1681526020019081526020015f2060010154608a5461293b90919063ffffffff16565b608a819055507fc4e231d9ed0cd3497c89e1c78e5e4b547cac9d09ab7a402fb66a54e9f9cf620381608f5f8473ffffffffffffffffffffffffffffffffffffffff1673ffffffffffffffffffffffffffffffffffffffff1681526020019081526020015f205f0154608f5f8573ffffffffffffffffffffffffffffffffffffffff1673ffffffffffffffffffffffffffffffffffffffff1681526020019081526020015f20600101546040516135bf939291906170ae565b60405180910390a150565b5f73ffffffffffffffffffffffffffffffffffffffff168473ffffffffffffffffffffffffffffffffffffffff160361363a575f6040517f57f447ce0000000000000000000000000000000000000000000000000000000081526004016136319190616834565b60405180910390fd5b5f8061364685856155c0565b915091506136575f87848487615472565b505050505050565b613667612e9a565b438310156136aa576040517f08c379a00000000000000000000000000000000000000000000000000000000081526004016136a190617577565b60405180910390fd5b8183106136ec576040517f08c379a00000000000000000000000000000000000000000000000000000000081526004016136e3906175df565b60405180910390fd5b80608a541015613731576040517f08c379a00000000000000000000000000000000000000000000000000000000081526004016137289061750f565b60405180910390fd5b6137396111e0565b8061374857506137476122f8565b5b15613788576040517f08c379a000000000000000000000000000000000000000000000000000000000815260040161377f9061766d565b60405180910390fd5b608c5f9054906101000a900473ffffffffffffffffffffffffffffffffffffffff1673ffffffffffffffffffffffffffffffffffffffff16638f25f1dc608c5f9054906101000a900473ffffffffffffffffffffffffffffffffffffffff166040518263ffffffff1660e01b81526004016138039190616834565b602060405180830381865afa15801561381e573d5f803e3d5ffd5b505050506040513d601f19601f820116820180604052508101906138429190616c0c565b613881576040517f08c379a0000000000000000000000000000000000000000000000000000000008152600401613878906176d5565b60405180910390fd5b5f60895f81548092919061389490616e4a565b9190505590505f6040518060e001604052808381526020018681526020018581526020018481526020015f81526020015f81526020015f1515815250905080608e5f8481526020019081526020015f205f820151815f01556020820151816001015560408201518160020155606082015181600301556080820151816004015560a0820151816005015560c0820151816006015f6101000a81548160ff0219169083151502179055509050507f1dd3e8b17419aa7c49bf1ef36039e8c2297623a9f2562f286d7d2a95cdb0456e8286868660405161397594939291906176f3565b60405180910390a15050505050565b5f73ffffffffffffffffffffffffffffffffffffffff168473ffffffffffffffffffffffffffffffffffffffff16036139f4575f6040517f57f447ce0000000000000000000000000000000000000000000000000000000081526004016139eb9190616834565b60405180910390fd5b5f73ffffffffffffffffffffffffffffffffffffffff168573ffffffffffffffffffffffffffffffffffffffff1603613a64575f6040517f01a83514000000000000000000000000000000000000000000000000000000008152600401613a5b9190616834565b60405180910390fd5b5f80613a7085856155c0565b91509150613a818787848487615472565b50505050505050565b81608d5f8573ffffffffffffffffffffffffffffffffffffffff1673ffffffffffffffffffffffffffffffffffffffff1681526020019081526020015f2081905550613ae181608a5461293b90919063ffffffff16565b608a819055507ff01da32686223933d8a18a391060918c7f11a3648639edd87ae013e2e2731743838383604051613b1a939291906170ae565b60405180910390a1505050565b5f60405180606001604052808481526020018381526020015f1515815250905080608f5f8673ffffffffffffffffffffffffffffffffffffffff1673ffffffffffffffffffffffffffffffffffffffff1681526020019081526020015f205f820151815f0155602082015181600101556040820151816002015f6101000a81548160ff02191690831515021790555090505050505050565b5f805f90505f805f6fd3094c70f034de4b96ff7d5b6f99fcd88610613c36576f4000000000000000000000000000000084613bfa91906171a8565b93506fd3094c70f034de4b96ff7d5b6f99fcd86f8000000000000000000000000000000087613c29919061706d565b613c339190617178565b95505b6fa45af1e1f40c333b3de1db4dd55f29a78610613ca5576f2000000000000000000000000000000084613c6991906171a8565b93506fa45af1e1f40c333b3de1db4dd55f29a76f8000000000000000000000000000000087613c98919061706d565b613ca29190617178565b95505b6f910b022db7ae67ce76b441c27035c6a18610613d14576f1000000000000000000000000000000084613cd891906171a8565b93506f910b022db7ae67ce76b441c27035c6a16f8000000000000000000000000000000087613d07919061706d565b613d119190617178565b95505b6f88415abbe9a76bead8d00cf112e4d4a88610613d83576f0800000000000000000000000000000084613d4791906171a8565b93506f88415abbe9a76bead8d00cf112e4d4a86f8000000000000000000000000000000087613d76919061706d565b613d809190617178565b95505b6f84102b00893f64c705e841d5d4064bd38610613df2576f0400000000000000000000000000000084613db691906171a8565b93506f84102b00893f64c705e841d5d4064bd36f8000000000000000000000000000000087613de5919061706d565b613def9190617178565b95505b6f8204055aaef1c8bd5c3259f4822735a28610613e61576f0200000000000000000000000000000084613e2591906171a8565b93506f8204055aaef1c8bd5c3259f4822735a26f8000000000000000000000000000000087613e54919061706d565b613e5e9190617178565b95505b6f810100ab00222d861931c15e39b44e998610613ed0576f0100000000000000000000000000000084613e9491906171a8565b93506f810100ab00222d861931c15e39b44e996f8000000000000000000000000000000087613ec3919061706d565b613ecd9190617178565b95505b6f808040155aabbbe9451521693554f7338610613f3e576e80000000000000000000000000000084613f0291906171a8565b93506f808040155aabbbe9451521693554f7336f8000000000000000000000000000000087613f31919061706d565b613f3b9190617178565b95505b6f8000000000000000000000000000000086613f5a9190616ccc565b92508291506f800000000000000000000000000000008384613f7c919061706d565b613f869190617178565b905070010000000000000000000000000000000083700100000000000000000000000000000000613fb79190616ccc565b83613fc2919061706d565b613fcc9190617178565b84613fd791906171a8565b93506f800000000000000000000000000000008183613ff6919061706d565b6140009190617178565b9150700200000000000000000000000000000000836faaaaaaaaaaaaaaaaaaaaaaaaaaaaaaaa6140309190616ccc565b8361403b919061706d565b6140459190617178565b8461405091906171a8565b93506f80000000000000000000000000000000818361406f919061706d565b6140799190617178565b9150700300000000000000000000000000000000836f999999999999999999999999999999996140a99190616ccc565b836140b4919061706d565b6140be9190617178565b846140c991906171a8565b93506f8000000000000000000000000000000081836140e8919061706d565b6140f29190617178565b9150700400000000000000000000000000000000836f924924924924924924924924924924926141229190616ccc565b8361412d919061706d565b6141379190617178565b8461414291906171a8565b93506f800000000000000000000000000000008183614161919061706d565b61416b9190617178565b9150700500000000000000000000000000000000836f8e38e38e38e38e38e38e38e38e38e38e61419b9190616ccc565b836141a6919061706d565b6141b09190617178565b846141bb91906171a8565b93506f8000000000000000000000000000000081836141da919061706d565b6141e49190617178565b9150700600000000000000000000000000000000836f8ba2e8ba2e8ba2e8ba2e8ba2e8ba2e8b6142149190616ccc565b8361421f919061706d565b6142299190617178565b8461423491906171a8565b93506f800000000000000000000000000000008183614253919061706d565b61425d9190617178565b9150700700000000000000000000000000000000836f89d89d89d89d89d89d89d89d89d89d8961428d9190616ccc565b83614298919061706d565b6142a29190617178565b846142ad91906171a8565b93506f8000000000000000000000000000000081836142cc919061706d565b6142d69190617178565b9150700800000000000000000000000000000000836f888888888888888888888888888888886143069190616ccc565b83614311919061706d565b61431b9190617178565b8461432691906171a8565b935083945050505050919050565b5f805f90505f83905070010000000000000000000000000000000081106143a8575f61437a6f80000000000000000000000000000000836143759190617178565b6155f0565b90508060ff1682901c91506f800000000000000000000000000000008160ff166143a4919061706d565b9250505b6f8000000000000000000000000000000081111561444e575f607f90505b5f8160ff16111561444c576f8000000000000000000000000000000082836143ee919061706d565b6143f89190617178565b9150700100000000000000000000000000000000821061443b57600182901c915060018161442691906172b7565b60ff166001901b8361443891906171a8565b92505b8061444590617736565b90506143c6565b505b6f05b9de1d10bf4103d647b0955897ba806f03f80fe03f80fe03f80fe03f80fe03f88361447b919061706d565b6144859190617178565b92505050919050565b5f805f90505f806f10000000000000000000000000000000856144b1919061775d565b91508190506f8000000000000000000000000000000082826144d3919061706d565b6144dd9190617178565b90506710e1b3be415a0000816144f3919061706d565b836144fe91906171a8565b92506f80000000000000000000000000000000828261451d919061706d565b6145279190617178565b90506705a0913f6b1e00008161453d919061706d565b8361454891906171a8565b92506f800000000000000000000000000000008282614567919061706d565b6145719190617178565b9050670168244fdac7800081614587919061706d565b8361459291906171a8565b92506f8000000000000000000000000000000082826145b1919061706d565b6145bb9190617178565b9050664807432bc18000816145d0919061706d565b836145db91906171a8565b92506f8000000000000000000000000000000082826145fa919061706d565b6146049190617178565b9050660c0135dca0400081614619919061706d565b8361462491906171a8565b92506f800000000000000000000000000000008282614643919061706d565b61464d9190617178565b90506601b707b1cdc00081614662919061706d565b8361466d91906171a8565b92506f80000000000000000000000000000000828261468c919061706d565b6146969190617178565b90506536e0f639b800816146aa919061706d565b836146b591906171a8565b92506f8000000000000000000000000000000082826146d4919061706d565b6146de9190617178565b9050650618fee9f800816146f2919061706d565b836146fd91906171a8565b92506f80000000000000000000000000000000828261471c919061706d565b6147269190617178565b9050649c197dcc0081614739919061706d565b8361474491906171a8565b92506f800000000000000000000000000000008282614763919061706d565b61476d9190617178565b9050640e30dce40081614780919061706d565b8361478b91906171a8565b92506f8000000000000000000000000000000082826147aa919061706d565b6147b49190617178565b905064012ebd1300816147c7919061706d565b836147d291906171a8565b92506f8000000000000000000000000000000082826147f1919061706d565b6147fb9190617178565b90506317499f008161480d919061706d565b8361481891906171a8565b92506f800000000000000000000000000000008282614837919061706d565b6148419190617178565b90506301a9d48081614853919061706d565b8361485e91906171a8565b92506f80000000000000000000000000000000828261487d919061706d565b6148879190617178565b9050621c638081614898919061706d565b836148a391906171a8565b92506f8000000000000000000000000000000082826148c2919061706d565b6148cc9190617178565b90506201c638816148dd919061706d565b836148e891906171a8565b92506f800000000000000000000000000000008282614907919061706d565b6149119190617178565b9050611ab881614921919061706d565b8361492c91906171a8565b92506f80000000000000000000000000000000828261494b919061706d565b6149559190617178565b905061017c81614965919061706d565b8361497091906171a8565b92506f80000000000000000000000000000000828261498f919061706d565b6149999190617178565b90506014816149a8919061706d565b836149b391906171a8565b92506f8000000000000000000000000000000082826149d2919061706d565b6149dc9190617178565b90506001816149eb919061706d565b836149f691906171a8565b92506f80000000000000000000000000000000826721c3677c82b4000085614a1e9190617178565b614a2891906171a8565b614a3291906171a8565b92505f6f10000000000000000000000000000000861614614a895770018ebef9eac820ae8682b9793ac6d1e7767001c3d6a24ed82218787d624d3e5eba95f984614a7c919061706d565b614a869190617178565b92505b5f6f20000000000000000000000000000000861614614ade577001368b2fc6f9609fe7aceb46aa619baed470018ebef9eac820ae8682b9793ac6d1e77884614ad1919061706d565b614adb9190617178565b92505b5f6f40000000000000000000000000000000861614614b32576fbc5ab1b16779be3575bd8f0520a9f21f7001368b2fc6f9609fe7aceb46aa619baed584614b25919061706d565b614b2f9190617178565b92505b5f6f80000000000000000000000000000000861614614b85576f454aaa8efe072e7f6ddbab84b40a55c96fbc5ab1b16779be3575bd8f0520a9f21e84614b78919061706d565b614b829190617178565b92505b5f700100000000000000000000000000000000861614614bd9576f0960aadc109e7a3bf4578099615711ea6f454aaa8efe072e7f6ddbab84b40a55c584614bcc919061706d565b614bd69190617178565b92505b5f700200000000000000000000000000000000861614614c2c576e2bf84208204f5977f9a8cf01fdce3d6f0960aadc109e7a3bf4578099615711d784614c1f919061706d565b614c299190617178565b92505b5f700400000000000000000000000000000000861614614c7d576d03c6ab775dd0b95b4cbee7e65d116e2bf84208204f5977f9a8cf01fdc30784614c70919061706d565b614c7a9190617178565b92505b829350505050919050565b5f80602090505f607f90505b8060ff16600183614ca5919061778d565b60ff161015614cfa575f60028284614cbd919061778d565b614cc791906177c1565b90508460018260ff1660808110614ce157614ce0616e1d565b5b015410614cf057809250614cf4565b8091505b50614c94565b8360018260ff1660808110614d1257614d11616e1d565b5b015410614d23578092505050614d60565b8360018360ff1660808110614d3b57614d3a616e1d565b5b015410614d4c578192505050614d60565b5f614d5a57614d596177f1565b5b5f925050505b919050565b5f808390505f8360ff168583614d7b919061706d565b901c91506f03442c4e6074a82f1797f72ac000000082614d9b919061706d565b81614da691906171a8565b90508360ff168583614db8919061706d565b901c91506f0116b96f757c380fb287fd0e4000000082614dd8919061706d565b81614de391906171a8565b90508360ff168583614df5919061706d565b901c91506e45ae5bdd5f0e03eca1ff439000000082614e14919061706d565b81614e1f91906171a8565b90508360ff168583614e31919061706d565b901c91506e0defabf91302cd95b9ffda5000000082614e50919061706d565b81614e5b91906171a8565b90508360ff168583614e6d919061706d565b901c91506e02529ca9832b22439efff9b800000082614e8c919061706d565b81614e9791906171a8565b90508360ff168583614ea9919061706d565b901c91506d54f1cf12bd04e516b6da8800000082614ec7919061706d565b81614ed291906171a8565b90508360ff168583614ee4919061706d565b901c91506d0a9e39e257a09ca2d6db5100000082614f02919061706d565b81614f0d91906171a8565b90508360ff168583614f1f919061706d565b901c91506d012e066e7b839fa050c30900000082614f3d919061706d565b81614f4891906171a8565b90508360ff168583614f5a919061706d565b901c91506c1e33d7d926c329a1ad1a80000082614f77919061706d565b81614f8291906171a8565b90508360ff168583614f94919061706d565b901c91506c02bee513bdb4a6b19b5f80000082614fb1919061706d565b81614fbc91906171a8565b90508360ff168583614fce919061706d565b901c91506b3a9316fa79b88eccf2a0000082614fea919061706d565b81614ff591906171a8565b90508360ff168583615007919061706d565b901c91506b048177ebe1fa81237520000082615023919061706d565b8161502e91906171a8565b90508360ff168583615040919061706d565b901c91506a5263fe90242dcbacf000008261505b919061706d565b8161506691906171a8565b90508360ff168583615078919061706d565b901c91506a057e22099c030d9410000082615093919061706d565b8161509e91906171a8565b90508360ff1685836150b0919061706d565b901c91506957e22099c030d9410000826150ca919061706d565b816150d591906171a8565b90508360ff1685836150e7919061706d565b901c915069052b6b5456997631000082615101919061706d565b8161510c91906171a8565b90508360ff16858361511e919061706d565b901c9150684985f67696bf74800082615137919061706d565b8161514291906171a8565b90508360ff168583615154919061706d565b901c91506803dea12ea99e4980008261516d919061706d565b8161517891906171a8565b90508360ff16858361518a919061706d565b901c91506731880f2214b6e000826151a2919061706d565b816151ad91906171a8565b90508360ff1685836151bf919061706d565b901c915067025bcff56eb36000826151d7919061706d565b816151e291906171a8565b90508360ff1685836151f4919061706d565b901c9150661b722e10ab10008261520b919061706d565b8161521691906171a8565b90508360ff168583615228919061706d565b901c91506601317c700770008261523f919061706d565b8161524a91906171a8565b90508360ff16858361525c919061706d565b901c9150650cba84aafa0082615272919061706d565b8161527d91906171a8565b90508360ff16858361528f919061706d565b901c91506482573a0a00826152a4919061706d565b816152af91906171a8565b90508360ff1685836152c1919061706d565b901c91506405035ad900826152d6919061706d565b816152e191906171a8565b90508360ff1685836152f3919061706d565b901c9150632f881b0082615307919061706d565b8161531291906171a8565b90508360ff168583615324919061706d565b901c91506301b2934082615338919061706d565b8161534391906171a8565b90508360ff168583615355919061706d565b901c9150620efc4082615368919061706d565b8161537391906171a8565b90508360ff168583615385919061706d565b901c9150617fe082615397919061706d565b816153a291906171a8565b90508360ff1685836153b4919061706d565b901c9150610420826153c6919061706d565b816153d191906171a8565b90508360ff1685836153e3919061706d565b901c91506021826153f4919061706d565b816153ff91906171a8565b90508360ff168583615411919061706d565b901c9150600182615422919061706d565b8161542d91906171a8565b90508360ff166001901b856f0688589cc0e9505e2f2fee5580000000836154549190617178565b61545e91906171a8565b61546891906171a8565b9250505092915050565b61547e85858585615676565b5f73ffffffffffffffffffffffffffffffffffffffff168473ffffffffffffffffffffffffffffffffffffffff1614615517575f6154ba6126b3565b90506001845103615506575f6154d95f86612e8790919063ffffffff16565b90505f6154ef5f86612e8790919063ffffffff16565b90506154ff83898985858961581f565b5050615515565b6155148187878787876159ce565b5b505b5050505050565b5f73ffffffffffffffffffffffffffffffffffffffff168373ffffffffffffffffffffffffffffffffffffffff160361558e575f6040517f01a835140000000000000000000000000000000000000000000000000000000081526004016155859190616834565b60405180910390fd5b5f8061559a84846155c0565b915091506155b9855f848460405180602001604052805f815250615472565b5050505050565b60608060405191506001825283602083015260408201905060018152826020820152604081016040529250929050565b5f805f90505f83905061010081101561562d575b600181111561562857600181901c9050600182615621919061778d565b9150615604565b61566c565b5f608090505b5f8160ff16111561566a578060ff166001901b821061565b578060ff1682901c915080831792505b60018160ff16901c9050615633565b505b8192505050919050565b61568284848484615b7d565b5f73ffffffffffffffffffffffffffffffffffffffff168473ffffffffffffffffffffffffffffffffffffffff160361575b575f805b8351811015615740575f8382815181106156d5576156d4616e1d565b5b602002602001015190508060845f8785815181106156f6576156f5616e1d565b5b602002602001015181526020019081526020015f205f82825461571991906171a8565b92505081905550808361572c91906171a8565b9250508061573990616e4a565b90506156b8565b508060855f82825461575291906171a8565b92505081905550505b5f73ffffffffffffffffffffffffffffffffffffffff168373ffffffffffffffffffffffffffffffffffffffff1603615819575f805b8351811015615807575f8382815181106157ae576157ad616e1d565b5b602002602001015190508060845f8785815181106157cf576157ce616e1d565b5b602002602001015181526020019081526020015f205f82825403925050819055508083019250508061580090616e4a565b9050615791565b508060855f8282540392505081905550505b50505050565b5f8473ffffffffffffffffffffffffffffffffffffffff163b11156159c6578373ffffffffffffffffffffffffffffffffffffffff1663f23a6e6187878686866040518663ffffffff1660e01b815260040161587f959493929190617870565b6020604051808303815f875af19250505080156158ba57506040513d601f19601f820116820180604052508101906158b791906178dc565b60015b61593b573d805f81146158e8576040519150601f19603f3d011682016040523d82523d5f602084013e6158ed565b606091505b505f81510361593357846040517f57f447ce00000000000000000000000000000000000000000000000000000000815260040161592a9190616834565b60405180910390fd5b805181602001fd5b63f23a6e6160e01b7bffffffffffffffffffffffffffffffffffffffffffffffffffffffff1916817bffffffffffffffffffffffffffffffffffffffffffffffffffffffff1916146159c457846040517f57f447ce0000000000000000000000000000000000000000000000000000000081526004016159bb9190616834565b60405180910390fd5b505b505050505050565b5f8473ffffffffffffffffffffffffffffffffffffffff163b1115615b75578373ffffffffffffffffffffffffffffffffffffffff1663bc197c8187878686866040518663ffffffff1660e01b8152600401615a2e959493929190617907565b6020604051808303815f875af1925050508015615a6957506040513d601f19601f82011682018060405250810190615a6691906178dc565b60015b615aea573d805f8114615a97576040519150601f19603f3d011682016040523d82523d5f602084013e615a9c565b606091505b505f815103615ae257846040517f57f447ce000000000000000000000000000000000000000000000000000000008152600401615ad99190616834565b60405180910390fd5b805181602001fd5b63bc197c8160e01b7bffffffffffffffffffffffffffffffffffffffffffffffffffffffff1916817bffffffffffffffffffffffffffffffffffffffffffffffffffffffff191614615b7357846040517f57f447ce000000000000000000000000000000000000000000000000000000008152600401615b6a9190616834565b60405180910390fd5b505b505050505050565b8051825114615bc757815181516040517f5b059991000000000000000000000000000000000000000000000000000000008152600401615bbe929190616df6565b60405180910390fd5b5f615bd06126b3565b90505f5b8351811015615dd5575f615bf18286612e8790919063ffffffff16565b90505f615c078386612e8790919063ffffffff16565b90505f73ffffffffffffffffffffffffffffffffffffffff168873ffffffffffffffffffffffffffffffffffffffff1614615d2c575f60815f8481526020019081526020015f205f8a73ffffffffffffffffffffffffffffffffffffffff1673ffffffffffffffffffffffffffffffffffffffff1681526020019081526020015f2054905081811015615cd757888183856040517f03dee4c5000000000000000000000000000000000000000000000000000000008152600401615cce949392919061796d565b60405180910390fd5b81810360815f8581526020019081526020015f205f8b73ffffffffffffffffffffffffffffffffffffffff1673ffffffffffffffffffffffffffffffffffffffff1681526020019081526020015f2081905550505b5f73ffffffffffffffffffffffffffffffffffffffff168773ffffffffffffffffffffffffffffffffffffffff1614615dc2578060815f8481526020019081526020015f205f8973ffffffffffffffffffffffffffffffffffffffff1673ffffffffffffffffffffffffffffffffffffffff1681526020019081526020015f205f828254615dba91906171a8565b925050819055505b505080615dce90616e4a565b9050615bd4565b506001835103615e90575f615df35f85612e8790919063ffffffff16565b90505f615e095f85612e8790919063ffffffff16565b90508573ffffffffffffffffffffffffffffffffffffffff168773ffffffffffffffffffffffffffffffffffffffff168473ffffffffffffffffffffffffffffffffffffffff167fc3d58168c5ae7397731d063d5bbf3d657854427343f4c083240f7aacaa2d0f628585604051615e81929190616df6565b60405180910390a45050615f0f565b8373ffffffffffffffffffffffffffffffffffffffff168573ffffffffffffffffffffffffffffffffffffffff168273ffffffffffffffffffffffffffffffffffffffff167f4a39dc06d4c0dbc64b70af90fd698a233a518aa5d07e595d983b8c0526c8f7fb8686604051615f069291906179b0565b60405180910390a45b5050505050565b5f604051905090565b5f80fd5b5f80fd5b5f73ffffffffffffffffffffffffffffffffffffffff82169050919050565b5f615f5082615f27565b9050919050565b615f6081615f46565b8114615f6a575f80fd5b50565b5f81359050615f7b81615f57565b92915050565b5f819050919050565b615f9381615f81565b8114615f9d575f80fd5b50565b5f81359050615fae81615f8a565b92915050565b5f8060408385031215615fca57615fc9615f1f565b5b5f615fd785828601615f6d565b9250506020615fe885828601615fa0565b9150509250929050565b615ffb81615f81565b82525050565b5f6020820190506160145f830184615ff2565b92915050565b5f7fffffffff0000000000000000000000000000000000000000000000000000000082169050919050565b61604e8161601a565b8114616058575f80fd5b50565b5f8135905061606981616045565b92915050565b5f6020828403121561608457616083615f1f565b5b5f6160918482850161605b565b91505092915050565b5f8115159050919050565b6160ae8161609a565b82525050565b5f6020820190506160c75f8301846160a5565b92915050565b5f602082840312156160e2576160e1615f1f565b5b5f6160ef84828501615f6d565b91505092915050565b5f60608201905061610b5f830186615ff2565b6161186020830185615ff2565b61612560408301846160a5565b949350505050565b5f6020828403121561614257616141615f1f565b5b5f61614f84828501615fa0565b91505092915050565b5f81519050919050565b5f82825260208201905092915050565b5f5b8381101561618f578082015181840152602081019050616174565b5f8484015250505050565b5f601f19601f8301169050919050565b5f6161b482616158565b6161be8185616162565b93506161ce818560208601616172565b6161d78161619a565b840191505092915050565b5f6020820190508181035f8301526161fa81846161aa565b905092915050565b5f806040838503121561621857616217615f1f565b5b5f61622585828601615fa0565b925050602061623685828601615fa0565b9150509250929050565b5f63ffffffff82169050919050565b61625881616240565b8114616262575f80fd5b50565b5f813590506162738161624f565b92915050565b5f805f806080858703121561629157616290615f1f565b5b5f61629e87828801615fa0565b94505060206162af87828801615fa0565b93505060406162c087828801616265565b92505060606162d187828801615fa0565b91505092959194509250565b5f80fd5b7f4e487b71000000000000000000000000000000000000000000000000000000005f52604160045260245ffd5b6163178261619a565b810181811067ffffffffffffffff82111715616336576163356162e1565b5b80604052505050565b5f616348615f16565b9050616354828261630e565b919050565b5f67ffffffffffffffff821115616373576163726162e1565b5b602082029050602081019050919050565b5f80fd5b5f61639a61639584616359565b61633f565b905080838252602082019050602084028301858111156163bd576163bc616384565b5b835b818110156163e657806163d28882615fa0565b8452602084019350506020810190506163bf565b5050509392505050565b5f82601f830112616404576164036162dd565b5b8135616414848260208601616388565b91505092915050565b5f80fd5b5f67ffffffffffffffff82111561643b5761643a6162e1565b5b6164448261619a565b9050602081019050919050565b828183375f83830152505050565b5f61647161646c84616421565b61633f565b90508281526020810184848401111561648d5761648c61641d565b5b616498848285616451565b509392505050565b5f82601f8301126164b4576164b36162dd565b5b81356164c484826020860161645f565b91505092915050565b5f805f805f60a086880312156164e6576164e5615f1f565b5b5f6164f388828901615f6d565b955050602061650488828901615f6d565b945050604086013567ffffffffffffffff81111561652557616524615f23565b5b616531888289016163f0565b935050606086013567ffffffffffffffff81111561655257616551615f23565b5b61655e888289016163f0565b925050608086013567ffffffffffffffff81111561657f5761657e615f23565b5b61658b888289016164a0565b9150509295509295909350565b6165a181616240565b82525050565b5f6020820190506165ba5f830184616598565b92915050565b5f67ffffffffffffffff8211156165da576165d96162e1565b5b602082029050602081019050919050565b5f6165fd6165f8846165c0565b61633f565b905080838252602082019050602084028301858111156166205761661f616384565b5b835b8181101561664957806166358882615f6d565b845260208401935050602081019050616622565b5050509392505050565b5f82601f830112616667576166666162dd565b5b81356166778482602086016165eb565b91505092915050565b5f806040838503121561669657616695615f1f565b5b5f83013567ffffffffffffffff8111156166b3576166b2615f23565b5b6166bf85828601616653565b925050602083013567ffffffffffffffff8111156166e0576166df615f23565b5b6166ec858286016163f0565b9150509250929050565b5f81519050919050565b5f82825260208201905092915050565b5f819050602082019050919050565b61672881615f81565b82525050565b5f616739838361671f565b60208301905092915050565b5f602082019050919050565b5f61675b826166f6565b6167658185616700565b935061677083616710565b805f5b838110156167a0578151616787888261672e565b975061679283616745565b925050600181019050616773565b5085935050505092915050565b5f6020820190508181035f8301526167c58184616751565b905092915050565b5f6040820190506167e05f8301856160a5565b6167ed6020830184615ff2565b9392505050565b5f819050919050565b616806816167f4565b82525050565b5f60208201905061681f5f8301846167fd565b92915050565b61682e81615f46565b82525050565b5f6020820190506168475f830184616825565b92915050565b6168568161609a565b8114616860575f80fd5b50565b5f813590506168718161684d565b92915050565b5f806040838503121561688d5761688c615f1f565b5b5f61689a85828601615f6d565b92505060206168ab85828601616863565b9150509250929050565b5f805f606084860312156168cc576168cb615f1f565b5b5f6168d986828701615fa0565b93505060206168ea86828701615fa0565b92505060406168fb86828701615fa0565b9150509250925092565b5f806040838503121561691b5761691a615f1f565b5b5f61692885828601615f6d565b925050602061693985828601615f6d565b9150509250929050565b5f805f805f60a0868803121561695c5761695b615f1f565b5b5f61696988828901615f6d565b955050602061697a88828901615f6d565b945050604061698b88828901615fa0565b935050606061699c88828901615fa0565b925050608086013567ffffffffffffffff8111156169bd576169bc615f23565b5b6169c9888289016164a0565b9150509295509295909350565b5f60e0820190506169e95f83018a615ff2565b6169f66020830189615ff2565b616a036040830188615ff2565b616a106060830187615ff2565b616a1d6080830186615ff2565b616a2a60a0830185615ff2565b616a3760c08301846160a5565b98975050505050505050565b7f4e487b71000000000000000000000000000000000000000000000000000000005f52602260045260245ffd5b5f6002820490506001821680616a8757607f821691505b602082108103616a9a57616a99616a43565b5b50919050565b7f496e76616c696420746f6b656e2069642e0000000000000000000000000000005f82015250565b5f616ad4601183616162565b9150616adf82616aa0565b602082019050919050565b5f6020820190508181035f830152616b0181616ac8565b9050919050565b7f4e487b71000000000000000000000000000000000000000000000000000000005f52602160045260245ffd5b7f6d696e742f6275726e2074656d706f726172696c7920756e617661696c61626c5f8201527f6521000000000000000000000000000000000000000000000000000000000000602082015250565b5f616b8f602283616162565b9150616b9a82616b35565b604082019050919050565b5f6020820190508181035f830152616bbc81616b83565b9050919050565b5f606082019050616bd65f830186616825565b616be36020830185616825565b616bf06040830184615ff2565b949350505050565b5f81519050616c068161684d565b92915050565b5f60208284031215616c2157616c20615f1f565b5b5f616c2e84828501616bf8565b91505092915050565b7f54414c20746f6b656e207472616e736572206661696c65642e000000000000005f82015250565b5f616c6b601983616162565b9150616c7682616c37565b602082019050919050565b5f6020820190508181035f830152616c9881616c5f565b9050919050565b7f4e487b71000000000000000000000000000000000000000000000000000000005f52601160045260245ffd5b5f616cd682615f81565b9150616ce183615f81565b9250828203905081811115616cf957616cf8616c9f565b5b92915050565b7f496e76616c696420496e707574000000000000000000000000000000000000005f82015250565b5f616d33600d83616162565b9150616d3e82616cff565b602082019050919050565b5f6020820190508181035f830152616d6081616d27565b9050919050565b7f54414c20746f6b656e207472616e736572206661696c656421000000000000005f82015250565b5f616d9b601983616162565b9150616da682616d67565b602082019050919050565b5f6020820190508181035f830152616dc881616d8f565b9050919050565b5f604082019050616de25f830185616825565b616def6020830184616825565b9392505050565b5f604082019050616e095f830185615ff2565b616e166020830184615ff2565b9392505050565b7f4e487b71000000000000000000000000000000000000000000000000000000005f52603260045260245ffd5b5f616e5482615f81565b91507fffffffffffffffffffffffffffffffffffffffffffffffffffffffffffffffff8203616e8657616e85616c9f565b5b600182019050919050565b7f4e6f2061637469766520726577617264732100000000000000000000000000005f82015250565b5f616ec5601283616162565b9150616ed082616e91565b602082019050919050565b5f6020820190508181035f830152616ef281616eb9565b9050919050565b5f81519050616f0781615f8a565b92915050565b5f8060408385031215616f2357616f22615f1f565b5b5f616f3085828601616ef9565b9250506020616f4185828601616bf8565b9150509250929050565b5f60208284031215616f6057616f5f615f1f565b5b5f616f6d84828501616ef9565b91505092915050565b5f604082019050616f895f830185616825565b616f966020830184615ff2565b9392505050565b7f4d696e742061746c65617374206f6e63650000000000000000000000000000005f82015250565b5f616fd1601183616162565b9150616fdc82616f9d565b602082019050919050565b5f6020820190508181035f830152616ffe81616fc5565b9050919050565b7f52657761726420616c726561647920636c61696d6564210000000000000000005f82015250565b5f617039601783616162565b915061704482617005565b602082019050919050565b5f6020820190508181035f8301526170668161702d565b9050919050565b5f61707782615f81565b915061708283615f81565b925082820261709081615f81565b915082820484148315176170a7576170a6616c9f565b5b5092915050565b5f6060820190506170c15f830186616825565b6170ce6020830185615ff2565b6170db6040830184615ff2565b949350505050565b7f4465706f736974206d757374206265206d6f7265207468616e203021000000005f82015250565b5f617117601c83616162565b9150617122826170e3565b602082019050919050565b5f6020820190508181035f8301526171448161710b565b9050919050565b7f4e487b71000000000000000000000000000000000000000000000000000000005f52601260045260245ffd5b5f61718282615f81565b915061718d83615f81565b92508261719d5761719c61714b565b5b828204905092915050565b5f6171b282615f81565b91506171bd83615f81565b92508282019050808211156171d5576171d4616c9f565b5b92915050565b7f626173654e2065786365656473206d61782076616c75652e00000000000000005f82015250565b5f61720f601883616162565b915061721a826171db565b602082019050919050565b5f6020820190508181035f83015261723c81617203565b9050919050565b7f4261736573203c203120617265206e6f7420737570706f727465642e000000005f82015250565b5f617277601c83616162565b915061728282617243565b602082019050919050565b5f6020820190508181035f8301526172a48161726b565b9050919050565b5f60ff82169050919050565b5f6172c1826172ab565b91506172cc836172ab565b9250828203905060ff8111156172e5576172e4616c9f565b5b92915050565b7f52657761726465642063656c656220696420616c7265616479206665746368655f8201527f642e000000000000000000000000000000000000000000000000000000000000602082015250565b5f617345602283616162565b9150617350826172eb565b604082019050919050565b5f6020820190508181035f83015261737281617339565b9050919050565b617382816167f4565b811461738c575f80fd5b50565b5f8151905061739d81617379565b92915050565b5f602082840312156173b8576173b7615f1f565b5b5f6173c58482850161738f565b91505092915050565b5f6040820190506173e15f830185615ff2565b6173ee60208301846167fd565b9392505050565b7f416d6f756e74206d757374206265206e6f6e2d7a65726f2100000000000000005f82015250565b5f617429601883616162565b9150617434826173f5565b602082019050919050565b5f6020820190508181035f8301526174568161741d565b9050919050565b7f496e73756666696369656e7420746f6b656e7320746f206275726e21000000005f82015250565b5f617491601c83616162565b915061749c8261745d565b602082019050919050565b5f6020820190508181035f8301526174be81617485565b9050919050565b7f4e6f7420656e6f756768207265776172642066756e64732100000000000000005f82015250565b5f6174f9601883616162565b9150617504826174c5565b602082019050919050565b5f6020820190508181035f830152617526816174ed565b9050919050565b7f43616e6e6f74207363686564756c6520666f72207061737420646174650000005f82015250565b5f617561601d83616162565b915061756c8261752d565b602082019050919050565b5f6020820190508181035f83015261758e81617555565b9050919050565b7f496e76616c696420696e707574732100000000000000000000000000000000005f82015250565b5f6175c9600f83616162565b91506175d482617595565b602082019050919050565b5f6020820190508181035f8301526175f6816175bd565b9050919050565b7f5265776172647320646973747269627574696f6e206973207374696c6c2061635f8201527f74697665206f7220616c7265616479207363686564756c656421000000000000602082015250565b5f617657603a83616162565b9150617662826175fd565b604082019050919050565b5f6020820190508181035f8301526176848161764b565b9050919050565b7f4e6f7420656e6f756768204c696e6b2062616c616e63652100000000000000005f82015250565b5f6176bf601883616162565b91506176ca8261768b565b602082019050919050565b5f6020820190508181035f8301526176ec816176b3565b9050919050565b5f6080820190506177065f830187615ff2565b6177136020830186615ff2565b6177206040830185615ff2565b61772d6060830184615ff2565b95945050505050565b5f617740826172ab565b91505f820361775257617751616c9f565b5b600182039050919050565b5f61776782615f81565b915061777283615f81565b9250826177825761778161714b565b5b828206905092915050565b5f617797826172ab565b91506177a2836172ab565b9250828201905060ff8111156177bb576177ba616c9f565b5b92915050565b5f6177cb826172ab565b91506177d6836172ab565b9250826177e6576177e561714b565b5b828204905092915050565b7f4e487b71000000000000000000000000000000000000000000000000000000005f52600160045260245ffd5b5f81519050919050565b5f82825260208201905092915050565b5f6178428261781e565b61784c8185617828565b935061785c818560208601616172565b6178658161619a565b840191505092915050565b5f60a0820190506178835f830188616825565b6178906020830187616825565b61789d6040830186615ff2565b6178aa6060830185615ff2565b81810360808301526178bc8184617838565b90509695505050505050565b5f815190506178d681616045565b92915050565b5f602082840312156178f1576178f0615f1f565b5b5f6178fe848285016178c8565b91505092915050565b5f60a08201905061791a5f830188616825565b6179276020830187616825565b81810360408301526179398186616751565b9050818103606083015261794d8185616751565b905081810360808301526179618184617838565b90509695505050505050565b5f6080820190506179805f830187616825565b61798d6020830186615ff2565b61799a6040830185615ff2565b6179a76060830184615ff2565b95945050505050565b5f6040820190508181035f8301526179c88185616751565b905081810360208301526179dc8184616751565b9050939250505056fea2646970667358221220dc16c9443916232c67bf489bb82ad07f2d127f7dfe29e6f02ee2329999750e0864736f6c63430008140033",
			"opcodes": "PUSH1 0x80 PUSH1 0x40 MSTORE PUSH1 0x40 MLOAD DUP1 PUSH1 0x40 ADD PUSH1 0x40 MSTORE DUP1 PUSH1 0x3 DUP2 MSTORE PUSH1 0x20 ADD PUSH32 0x302E330000000000000000000000000000000000000000000000000000000000 DUP2 MSTORE POP PUSH0 SWAP1 DUP2 PUSH3 0x49 SWAP2 SWAP1 PUSH3 0x169A JUMP JUMPDEST POP PUSH1 0x1 PUSH1 0x89 SSTORE PUSH0 PUSH1 0x8A SSTORE PUSH2 0x1388 PUSH1 0x8B SSTORE PUSH0 PUSH1 0x90 SSTORE PUSH0 PUSH1 0x92 SSTORE CALLVALUE DUP1 ISZERO PUSH3 0x6D JUMPI PUSH0 DUP1 REVERT JUMPDEST POP PUSH1 0x40 MLOAD PUSH3 0x92ED CODESIZE SUB DUP1 PUSH3 0x92ED DUP4 CODECOPY DUP2 DUP2 ADD PUSH1 0x40 MSTORE DUP2 ADD SWAP1 PUSH3 0x93 SWAP2 SWAP1 PUSH3 0x1812 JUMP JUMPDEST DUP1 CALLER DUP5 PUSH1 0x40 MLOAD DUP1 PUSH1 0x20 ADD PUSH1 0x40 MSTORE DUP1 PUSH0 DUP2 MSTORE POP PUSH17 0x1C35FEDD14FFFFFFFFFFFFFFFFFFFFFFFF PUSH1 0x1 PUSH1 0x20 PUSH1 0x80 DUP2 LT PUSH3 0xCF JUMPI PUSH3 0xCE PUSH3 0x186B JUMP JUMPDEST JUMPDEST ADD DUP2 SWAP1 SSTORE POP PUSH17 0x1B0CE43B323FFFFFFFFFFFFFFFFFFFFFFF PUSH1 0x1 PUSH1 0x21 PUSH1 0x80 DUP2 LT PUSH3 0xFE JUMPI PUSH3 0xFD PUSH3 0x186B JUMP JUMPDEST JUMPDEST ADD DUP2 SWAP1 SSTORE POP PUSH17 0x19F0028EC1FFFFFFFFFFFFFFFFFFFFFFFF PUSH1 0x1 PUSH1 0x22 PUSH1 0x80 DUP2 LT PUSH3 0x12D JUMPI PUSH3 0x12C PUSH3 0x186B JUMP JUMPDEST JUMPDEST ADD DUP2 SWAP1 SSTORE POP PUSH17 0x18DED91F0E7FFFFFFFFFFFFFFFFFFFFFFF PUSH1 0x1 PUSH1 0x23 PUSH1 0x80 DUP2 LT PUSH3 0x15C JUMPI PUSH3 0x15B PUSH3 0x186B JUMP JUMPDEST JUMPDEST ADD DUP2 SWAP1 SSTORE POP PUSH17 0x17D8EC7F0417FFFFFFFFFFFFFFFFFFFFFF PUSH1 0x1 PUSH1 0x24 PUSH1 0x80 DUP2 LT PUSH3 0x18B JUMPI PUSH3 0x18A PUSH3 0x186B JUMP JUMPDEST JUMPDEST ADD DUP2 SWAP1 SSTORE POP PUSH17 0x16DDC6556CDBFFFFFFFFFFFFFFFFFFFFFF PUSH1 0x1 PUSH1 0x25 PUSH1 0x80 DUP2 LT PUSH3 0x1BA JUMPI PUSH3 0x1B9 PUSH3 0x186B JUMP JUMPDEST JUMPDEST ADD DUP2 SWAP1 SSTORE POP PUSH17 0x15ECF52776A1FFFFFFFFFFFFFFFFFFFFFF PUSH1 0x1 PUSH1 0x26 PUSH1 0x80 DUP2 LT PUSH3 0x1E9 JUMPI PUSH3 0x1E8 PUSH3 0x186B JUMP JUMPDEST JUMPDEST ADD DUP2 SWAP1 SSTORE POP PUSH17 0x15060C256CB2FFFFFFFFFFFFFFFFFFFFFF PUSH1 0x1 PUSH1 0x27 PUSH1 0x80 DUP2 LT PUSH3 0x218 JUMPI PUSH3 0x217 PUSH3 0x186B JUMP JUMPDEST JUMPDEST ADD DUP2 SWAP1 SSTORE POP PUSH17 0x1428A2F98D72FFFFFFFFFFFFFFFFFFFFFF PUSH1 0x1 PUSH1 0x28 PUSH1 0x80 DUP2 LT PUSH3 0x247 JUMPI PUSH3 0x246 PUSH3 0x186B JUMP JUMPDEST JUMPDEST ADD DUP2 SWAP1 SSTORE POP PUSH17 0x13545598E5C23FFFFFFFFFFFFFFFFFFFFF PUSH1 0x1 PUSH1 0x29 PUSH1 0x80 DUP2 LT PUSH3 0x276 JUMPI PUSH3 0x275 PUSH3 0x186B JUMP JUMPDEST JUMPDEST ADD DUP2 SWAP1 SSTORE POP PUSH17 0x1288C4161CE1DFFFFFFFFFFFFFFFFFFFFF PUSH1 0x1 PUSH1 0x2A PUSH1 0x80 DUP2 LT PUSH3 0x2A5 JUMPI PUSH3 0x2A4 PUSH3 0x186B JUMP JUMPDEST JUMPDEST ADD DUP2 SWAP1 SSTORE POP PUSH17 0x11C592761C666FFFFFFFFFFFFFFFFFFFFF PUSH1 0x1 PUSH1 0x2B PUSH1 0x80 DUP2 LT PUSH3 0x2D4 JUMPI PUSH3 0x2D3 PUSH3 0x186B JUMP JUMPDEST JUMPDEST ADD DUP2 SWAP1 SSTORE POP PUSH17 0x110A688680A757FFFFFFFFFFFFFFFFFFFF PUSH1 0x1 PUSH1 0x2C PUSH1 0x80 DUP2 LT PUSH3 0x303 JUMPI PUSH3 0x302 PUSH3 0x186B JUMP JUMPDEST JUMPDEST ADD DUP2 SWAP1 SSTORE POP PUSH17 0x1056F1B5BEDF77FFFFFFFFFFFFFFFFFFFF PUSH1 0x1 PUSH1 0x2D PUSH1 0x80 DUP2 LT PUSH3 0x332 JUMPI PUSH3 0x331 PUSH3 0x186B JUMP JUMPDEST JUMPDEST ADD DUP2 SWAP1 SSTORE POP PUSH17 0xFAADCECEEFF8BFFFFFFFFFFFFFFFFFFFF PUSH1 0x1 PUSH1 0x2E PUSH1 0x80 DUP2 LT PUSH3 0x361 JUMPI PUSH3 0x360 PUSH3 0x186B JUMP JUMPDEST JUMPDEST ADD DUP2 SWAP1 SSTORE POP PUSH17 0xF05DC6B27EDADFFFFFFFFFFFFFFFFFFFF PUSH1 0x1 PUSH1 0x2F PUSH1 0x80 DUP2 LT PUSH3 0x390 JUMPI PUSH3 0x38F PUSH3 0x186B JUMP JUMPDEST JUMPDEST ADD DUP2 SWAP1 SSTORE POP PUSH17 0xE67A5A25DA4107FFFFFFFFFFFFFFFFFFF PUSH1 0x1 PUSH1 0x30 PUSH1 0x80 DUP2 LT PUSH3 0x3BF JUMPI PUSH3 0x3BE PUSH3 0x186B JUMP JUMPDEST JUMPDEST ADD DUP2 SWAP1 SSTORE POP PUSH17 0xDCFF115B14EEDFFFFFFFFFFFFFFFFFFFF PUSH1 0x1 PUSH1 0x31 PUSH1 0x80 DUP2 LT PUSH3 0x3EE JUMPI PUSH3 0x3ED PUSH3 0x186B JUMP JUMPDEST JUMPDEST ADD DUP2 SWAP1 SSTORE POP PUSH17 0xD3E7A392431239FFFFFFFFFFFFFFFFFFF PUSH1 0x1 PUSH1 0x32 PUSH1 0x80 DUP2 LT PUSH3 0x41D JUMPI PUSH3 0x41C PUSH3 0x186B JUMP JUMPDEST JUMPDEST ADD DUP2 SWAP1 SSTORE POP PUSH17 0xCB2FF529EB71E4FFFFFFFFFFFFFFFFFFF PUSH1 0x1 PUSH1 0x33 PUSH1 0x80 DUP2 LT PUSH3 0x44C JUMPI PUSH3 0x44B PUSH3 0x186B JUMP JUMPDEST JUMPDEST ADD DUP2 SWAP1 SSTORE POP PUSH17 0xC2D415C3DB974AFFFFFFFFFFFFFFFFFFF PUSH1 0x1 PUSH1 0x34 PUSH1 0x80 DUP2 LT PUSH3 0x47B JUMPI PUSH3 0x47A PUSH3 0x186B JUMP JUMPDEST JUMPDEST ADD DUP2 SWAP1 SSTORE POP PUSH17 0xBAD03E7D883F69BFFFFFFFFFFFFFFFFFF PUSH1 0x1 PUSH1 0x35 PUSH1 0x80 DUP2 LT PUSH3 0x4AA JUMPI PUSH3 0x4A9 PUSH3 0x186B JUMP JUMPDEST JUMPDEST ADD DUP2 SWAP1 SSTORE POP PUSH17 0xB320D03B2C343D5FFFFFFFFFFFFFFFFFF PUSH1 0x1 PUSH1 0x36 PUSH1 0x80 DUP2 LT PUSH3 0x4D9 JUMPI PUSH3 0x4D8 PUSH3 0x186B JUMP JUMPDEST JUMPDEST ADD DUP2 SWAP1 SSTORE POP PUSH17 0xABC25204E02828DFFFFFFFFFFFFFFFFFF PUSH1 0x1 PUSH1 0x37 PUSH1 0x80 DUP2 LT PUSH3 0x508 JUMPI PUSH3 0x507 PUSH3 0x186B JUMP JUMPDEST JUMPDEST ADD DUP2 SWAP1 SSTORE POP PUSH17 0xA4B16F74EE4BB207FFFFFFFFFFFFFFFFF PUSH1 0x1 PUSH1 0x38 PUSH1 0x80 DUP2 LT PUSH3 0x537 JUMPI PUSH3 0x536 PUSH3 0x186B JUMP JUMPDEST JUMPDEST ADD DUP2 SWAP1 SSTORE POP PUSH17 0x9DEAF736AC1F569FFFFFFFFFFFFFFFFFF PUSH1 0x1 PUSH1 0x39 PUSH1 0x80 DUP2 LT PUSH3 0x566 JUMPI PUSH3 0x565 PUSH3 0x186B JUMP JUMPDEST JUMPDEST ADD DUP2 SWAP1 SSTORE POP PUSH17 0x976BD9952C7AA957FFFFFFFFFFFFFFFFF PUSH1 0x1 PUSH1 0x3A PUSH1 0x80 DUP2 LT PUSH3 0x595 JUMPI PUSH3 0x594 PUSH3 0x186B JUMP JUMPDEST JUMPDEST ADD DUP2 SWAP1 SSTORE POP PUSH17 0x9131271922EAA606FFFFFFFFFFFFFFFFF PUSH1 0x1 PUSH1 0x3B PUSH1 0x80 DUP2 LT PUSH3 0x5C4 JUMPI PUSH3 0x5C3 PUSH3 0x186B JUMP JUMPDEST JUMPDEST ADD DUP2 SWAP1 SSTORE POP PUSH17 0x8B380F3558668C46FFFFFFFFFFFFFFFFF PUSH1 0x1 PUSH1 0x3C PUSH1 0x80 DUP2 LT PUSH3 0x5F3 JUMPI PUSH3 0x5F2 PUSH3 0x186B JUMP JUMPDEST JUMPDEST ADD DUP2 SWAP1 SSTORE POP PUSH17 0x857DDF0117EFA215BFFFFFFFFFFFFFFFF PUSH1 0x1 PUSH1 0x3D PUSH1 0x80 DUP2 LT PUSH3 0x622 JUMPI PUSH3 0x621 PUSH3 0x186B JUMP JUMPDEST JUMPDEST ADD DUP2 SWAP1 SSTORE POP PUSH17 0x7FFFFFFFFFFFFFFFFFFFFFFFFFFFFFFFF PUSH1 0x1 PUSH1 0x3E PUSH1 0x80 DUP2 LT PUSH3 0x651 JUMPI PUSH3 0x650 PUSH3 0x186B JUMP JUMPDEST JUMPDEST ADD DUP2 SWAP1 SSTORE POP PUSH17 0x7ABBF6F6ABB9D087FFFFFFFFFFFFFFFFF PUSH1 0x1 PUSH1 0x3F PUSH1 0x80 DUP2 LT PUSH3 0x680 JUMPI PUSH3 0x67F PUSH3 0x186B JUMP JUMPDEST JUMPDEST ADD DUP2 SWAP1 SSTORE POP PUSH17 0x75AF62CBAC95F7DFA7FFFFFFFFFFFFFFF PUSH1 0x1 PUSH1 0x40 PUSH1 0x80 DUP2 LT PUSH3 0x6AF JUMPI PUSH3 0x6AE PUSH3 0x186B JUMP JUMPDEST JUMPDEST ADD DUP2 SWAP1 SSTORE POP PUSH17 0x70D7FB7452E187AC13FFFFFFFFFFFFFFF PUSH1 0x1 PUSH1 0x41 PUSH1 0x80 DUP2 LT PUSH3 0x6DE JUMPI PUSH3 0x6DD PUSH3 0x186B JUMP JUMPDEST JUMPDEST ADD DUP2 SWAP1 SSTORE POP PUSH17 0x6C3390ECC8AF379295FFFFFFFFFFFFFFF PUSH1 0x1 PUSH1 0x42 PUSH1 0x80 DUP2 LT PUSH3 0x70D JUMPI PUSH3 0x70C PUSH3 0x186B JUMP JUMPDEST JUMPDEST ADD DUP2 SWAP1 SSTORE POP PUSH17 0x67C00A3B07FFC01FD6FFFFFFFFFFFFFFF PUSH1 0x1 PUSH1 0x43 PUSH1 0x80 DUP2 LT PUSH3 0x73C JUMPI PUSH3 0x73B PUSH3 0x186B JUMP JUMPDEST JUMPDEST ADD DUP2 SWAP1 SSTORE POP PUSH17 0x637B647C39CBB9D3D27FFFFFFFFFFFFFF PUSH1 0x1 PUSH1 0x44 PUSH1 0x80 DUP2 LT PUSH3 0x76B JUMPI PUSH3 0x76A PUSH3 0x186B JUMP JUMPDEST JUMPDEST ADD DUP2 SWAP1 SSTORE POP PUSH17 0x5F63B1FC104DBD39587FFFFFFFFFFFFFF PUSH1 0x1 PUSH1 0x45 PUSH1 0x80 DUP2 LT PUSH3 0x79A JUMPI PUSH3 0x799 PUSH3 0x186B JUMP JUMPDEST JUMPDEST ADD DUP2 SWAP1 SSTORE POP PUSH17 0x5B771955B36E12F7235FFFFFFFFFFFFFF PUSH1 0x1 PUSH1 0x46 PUSH1 0x80 DUP2 LT PUSH3 0x7C9 JUMPI PUSH3 0x7C8 PUSH3 0x186B JUMP JUMPDEST JUMPDEST ADD DUP2 SWAP1 SSTORE POP PUSH17 0x57B3D49DDA84556D6F6FFFFFFFFFFFFFF PUSH1 0x1 PUSH1 0x47 PUSH1 0x80 DUP2 LT PUSH3 0x7F8 JUMPI PUSH3 0x7F7 PUSH3 0x186B JUMP JUMPDEST JUMPDEST ADD DUP2 SWAP1 SSTORE POP PUSH17 0x54183095B2C8ECECF30FFFFFFFFFFFFFF PUSH1 0x1 PUSH1 0x48 PUSH1 0x80 DUP2 LT PUSH3 0x827 JUMPI PUSH3 0x826 PUSH3 0x186B JUMP JUMPDEST JUMPDEST ADD DUP2 SWAP1 SSTORE POP PUSH17 0x50A28BE635CA2B888F77FFFFFFFFFFFFF PUSH1 0x1 PUSH1 0x49 PUSH1 0x80 DUP2 LT PUSH3 0x856 JUMPI PUSH3 0x855 PUSH3 0x186B JUMP JUMPDEST JUMPDEST ADD DUP2 SWAP1 SSTORE POP PUSH17 0x4D5156639708C9DB33C3FFFFFFFFFFFFF PUSH1 0x1 PUSH1 0x4A PUSH1 0x80 DUP2 LT PUSH3 0x885 JUMPI PUSH3 0x884 PUSH3 0x186B JUMP JUMPDEST JUMPDEST ADD DUP2 SWAP1 SSTORE POP PUSH17 0x4A23105873875BD52DFDFFFFFFFFFFFFF PUSH1 0x1 PUSH1 0x4B PUSH1 0x80 DUP2 LT PUSH3 0x8B4 JUMPI PUSH3 0x8B3 PUSH3 0x186B JUMP JUMPDEST JUMPDEST ADD DUP2 SWAP1 SSTORE POP PUSH17 0x471649D87199AA990756FFFFFFFFFFFFF PUSH1 0x1 PUSH1 0x4C PUSH1 0x80 DUP2 LT PUSH3 0x8E3 JUMPI PUSH3 0x8E2 PUSH3 0x186B JUMP JUMPDEST JUMPDEST ADD DUP2 SWAP1 SSTORE POP PUSH17 0x4429A21A029D4C1457CFBFFFFFFFFFFFF PUSH1 0x1 PUSH1 0x4D PUSH1 0x80 DUP2 LT PUSH3 0x912 JUMPI PUSH3 0x911 PUSH3 0x186B JUMP JUMPDEST JUMPDEST ADD DUP2 SWAP1 SSTORE POP PUSH17 0x415BC6D6FB7DD71AF2CB3FFFFFFFFFFFF PUSH1 0x1 PUSH1 0x4E PUSH1 0x80 DUP2 LT PUSH3 0x941 JUMPI PUSH3 0x940 PUSH3 0x186B JUMP JUMPDEST JUMPDEST ADD DUP2 SWAP1 SSTORE POP PUSH17 0x3EAB73B3BBFE282243CE1FFFFFFFFFFFF PUSH1 0x1 PUSH1 0x4F PUSH1 0x80 DUP2 LT PUSH3 0x970 JUMPI PUSH3 0x96F PUSH3 0x186B JUMP JUMPDEST JUMPDEST ADD DUP2 SWAP1 SSTORE POP PUSH17 0x3C1771AC9FB6B4C18E229FFFFFFFFFFFF PUSH1 0x1 PUSH1 0x50 PUSH1 0x80 DUP2 LT PUSH3 0x99F JUMPI PUSH3 0x99E PUSH3 0x186B JUMP JUMPDEST JUMPDEST ADD DUP2 SWAP1 SSTORE POP PUSH17 0x399E96897690418F785257FFFFFFFFFFF PUSH1 0x1 PUSH1 0x51 PUSH1 0x80 DUP2 LT PUSH3 0x9CE JUMPI PUSH3 0x9CD PUSH3 0x186B JUMP JUMPDEST JUMPDEST ADD DUP2 SWAP1 SSTORE POP PUSH17 0x373FC456C53BB779BF0EA9FFFFFFFFFFF PUSH1 0x1 PUSH1 0x52 PUSH1 0x80 DUP2 LT PUSH3 0x9FD JUMPI PUSH3 0x9FC PUSH3 0x186B JUMP JUMPDEST JUMPDEST ADD DUP2 SWAP1 SSTORE POP PUSH17 0x34F9E8E490C48E67E6AB8BFFFFFFFFFFF PUSH1 0x1 PUSH1 0x53 PUSH1 0x80 DUP2 LT PUSH3 0xA2C JUMPI PUSH3 0xA2B PUSH3 0x186B JUMP JUMPDEST JUMPDEST ADD DUP2 SWAP1 SSTORE POP PUSH17 0x32CBFD4A7ADC790560B3337FFFFFFFFFF PUSH1 0x1 PUSH1 0x54 PUSH1 0x80 DUP2 LT PUSH3 0xA5B JUMPI PUSH3 0xA5A PUSH3 0x186B JUMP JUMPDEST JUMPDEST ADD DUP2 SWAP1 SSTORE POP PUSH17 0x30B50570F6E5D2ACCA94613FFFFFFFFFF PUSH1 0x1 PUSH1 0x55 PUSH1 0x80 DUP2 LT PUSH3 0xA8A JUMPI PUSH3 0xA89 PUSH3 0x186B JUMP JUMPDEST JUMPDEST ADD DUP2 SWAP1 SSTORE POP PUSH17 0x2EB40F9F620FDA6B56C2861FFFFFFFFFF PUSH1 0x1 PUSH1 0x56 PUSH1 0x80 DUP2 LT PUSH3 0xAB9 JUMPI PUSH3 0xAB8 PUSH3 0x186B JUMP JUMPDEST JUMPDEST ADD DUP2 SWAP1 SSTORE POP PUSH17 0x2CC8340ECB0D0F520A6AF58FFFFFFFFFF PUSH1 0x1 PUSH1 0x57 PUSH1 0x80 DUP2 LT PUSH3 0xAE8 JUMPI PUSH3 0xAE7 PUSH3 0x186B JUMP JUMPDEST JUMPDEST ADD DUP2 SWAP1 SSTORE POP PUSH17 0x2AF09481380A0A35CF1BA02FFFFFFFFFF PUSH1 0x1 PUSH1 0x58 PUSH1 0x80 DUP2 LT PUSH3 0xB17 JUMPI PUSH3 0xB16 PUSH3 0x186B JUMP JUMPDEST JUMPDEST ADD DUP2 SWAP1 SSTORE POP PUSH17 0x292C5BDD3B92EC810287B1B3FFFFFFFFF PUSH1 0x1 PUSH1 0x59 PUSH1 0x80 DUP2 LT PUSH3 0xB46 JUMPI PUSH3 0xB45 PUSH3 0x186B JUMP JUMPDEST JUMPDEST ADD DUP2 SWAP1 SSTORE POP PUSH17 0x277ABDCDAB07D5A77AC6D6B9FFFFFFFFF PUSH1 0x1 PUSH1 0x5A PUSH1 0x80 DUP2 LT PUSH3 0xB75 JUMPI PUSH3 0xB74 PUSH3 0x186B JUMP JUMPDEST JUMPDEST ADD DUP2 SWAP1 SSTORE POP PUSH17 0x25DAF6654B1EAA55FD64DF5EFFFFFFFFF PUSH1 0x1 PUSH1 0x5B PUSH1 0x80 DUP2 LT PUSH3 0xBA4 JUMPI PUSH3 0xBA3 PUSH3 0x186B JUMP JUMPDEST JUMPDEST ADD DUP2 SWAP1 SSTORE POP PUSH17 0x244C49C648BAA98192DCE88B7FFFFFFFF PUSH1 0x1 PUSH1 0x5C PUSH1 0x80 DUP2 LT PUSH3 0xBD3 JUMPI PUSH3 0xBD2 PUSH3 0x186B JUMP JUMPDEST JUMPDEST ADD DUP2 SWAP1 SSTORE POP PUSH17 0x22CE03CD5619A311B2471268BFFFFFFFF PUSH1 0x1 PUSH1 0x5D PUSH1 0x80 DUP2 LT PUSH3 0xC02 JUMPI PUSH3 0xC01 PUSH3 0x186B JUMP JUMPDEST JUMPDEST ADD DUP2 SWAP1 SSTORE POP PUSH17 0x215F77C045FBE885654A44A0FFFFFFFFF PUSH1 0x1 PUSH1 0x5E PUSH1 0x80 DUP2 LT PUSH3 0xC31 JUMPI PUSH3 0xC30 PUSH3 0x186B JUMP JUMPDEST JUMPDEST ADD DUP2 SWAP1 SSTORE POP PUSH17 0x1FFFFFFFFFFFFFFFFFFFFFFFFFFFFFFFF PUSH1 0x1 PUSH1 0x5F PUSH1 0x80 DUP2 LT PUSH3 0xC60 JUMPI PUSH3 0xC5F PUSH3 0x186B JUMP JUMPDEST JUMPDEST ADD DUP2 SWAP1 SSTORE POP PUSH17 0x1EAEFDBDAAEE7421FC4D3EDE5FFFFFFFF PUSH1 0x1 PUSH1 0x60 PUSH1 0x80 DUP2 LT PUSH3 0xC8F JUMPI PUSH3 0xC8E PUSH3 0x186B JUMP JUMPDEST JUMPDEST ADD DUP2 SWAP1 SSTORE POP PUSH17 0x1D6BD8B2EB257DF7E8CA57B09BFFFFFFF PUSH1 0x1 PUSH1 0x61 PUSH1 0x80 DUP2 LT PUSH3 0xCBE JUMPI PUSH3 0xCBD PUSH3 0x186B JUMP JUMPDEST JUMPDEST ADD DUP2 SWAP1 SSTORE POP PUSH17 0x1C35FEDD14B861EB0443F7F133FFFFFFF PUSH1 0x1 PUSH1 0x62 PUSH1 0x80 DUP2 LT PUSH3 0xCED JUMPI PUSH3 0xCEC PUSH3 0x186B JUMP JUMPDEST JUMPDEST ADD DUP2 SWAP1 SSTORE POP PUSH17 0x1B0CE43B322BCDE4A56E8ADA5AFFFFFFF PUSH1 0x1 PUSH1 0x63 PUSH1 0x80 DUP2 LT PUSH3 0xD1C JUMPI PUSH3 0xD1B PUSH3 0x186B JUMP JUMPDEST JUMPDEST ADD DUP2 SWAP1 SSTORE POP PUSH17 0x19F0028EC1FFF007F5A195A39DFFFFFFF PUSH1 0x1 PUSH1 0x64 PUSH1 0x80 DUP2 LT PUSH3 0xD4B JUMPI PUSH3 0xD4A PUSH3 0x186B JUMP JUMPDEST JUMPDEST ADD DUP2 SWAP1 SSTORE POP PUSH17 0x18DED91F0E72EE74F49B15BA527FFFFFF PUSH1 0x1 PUSH1 0x65 PUSH1 0x80 DUP2 LT PUSH3 0xD7A JUMPI PUSH3 0xD79 PUSH3 0x186B JUMP JUMPDEST JUMPDEST ADD DUP2 SWAP1 SSTORE POP PUSH17 0x17D8EC7F04136F4E5615FD41A63FFFFFF PUSH1 0x1 PUSH1 0x66 PUSH1 0x80 DUP2 LT PUSH3 0xDA9 JUMPI PUSH3 0xDA8 PUSH3 0x186B JUMP JUMPDEST JUMPDEST ADD DUP2 SWAP1 SSTORE POP PUSH17 0x16DDC6556CDB84BDC8D12D22E6FFFFFFF PUSH1 0x1 PUSH1 0x67 PUSH1 0x80 DUP2 LT PUSH3 0xDD8 JUMPI PUSH3 0xDD7 PUSH3 0x186B JUMP JUMPDEST JUMPDEST ADD DUP2 SWAP1 SSTORE POP PUSH17 0x15ECF52776A1155B5BD8395814F7FFFFF PUSH1 0x1 PUSH1 0x68 PUSH1 0x80 DUP2 LT PUSH3 0xE07 JUMPI PUSH3 0xE06 PUSH3 0x186B JUMP JUMPDEST JUMPDEST ADD DUP2 SWAP1 SSTORE POP PUSH17 0x15060C256CB23B3B3CC3754CF40FFFFFF PUSH1 0x1 PUSH1 0x69 PUSH1 0x80 DUP2 LT PUSH3 0xE36 JUMPI PUSH3 0xE35 PUSH3 0x186B JUMP JUMPDEST JUMPDEST ADD DUP2 SWAP1 SSTORE POP PUSH17 0x1428A2F98D728AE223DDAB715BE3FFFFF PUSH1 0x1 PUSH1 0x6A PUSH1 0x80 DUP2 LT PUSH3 0xE65 JUMPI PUSH3 0xE64 PUSH3 0x186B JUMP JUMPDEST JUMPDEST ADD DUP2 SWAP1 SSTORE POP PUSH17 0x13545598E5C23276CCF0EDE68034FFFFF PUSH1 0x1 PUSH1 0x6B PUSH1 0x80 DUP2 LT PUSH3 0xE94 JUMPI PUSH3 0xE93 PUSH3 0x186B JUMP JUMPDEST JUMPDEST ADD DUP2 SWAP1 SSTORE POP PUSH17 0x1288C4161CE1D6F54B7F61081194FFFFF PUSH1 0x1 PUSH1 0x6C PUSH1 0x80 DUP2 LT PUSH3 0xEC3 JUMPI PUSH3 0xEC2 PUSH3 0x186B JUMP JUMPDEST JUMPDEST ADD DUP2 SWAP1 SSTORE POP PUSH17 0x11C592761C666AA641D5A01A40F17FFFF PUSH1 0x1 PUSH1 0x6D PUSH1 0x80 DUP2 LT PUSH3 0xEF2 JUMPI PUSH3 0xEF1 PUSH3 0x186B JUMP JUMPDEST JUMPDEST ADD DUP2 SWAP1 SSTORE POP PUSH17 0x110A688680A7530515F3E6E6CFDCDFFFF PUSH1 0x1 PUSH1 0x6E PUSH1 0x80 DUP2 LT PUSH3 0xF21 JUMPI PUSH3 0xF20 PUSH3 0x186B JUMP JUMPDEST JUMPDEST ADD DUP2 SWAP1 SSTORE POP PUSH17 0x1056F1B5BEDF75C6BCB2CE8AED428FFFF PUSH1 0x1 PUSH1 0x6F PUSH1 0x80 DUP2 LT PUSH3 0xF50 JUMPI PUSH3 0xF4F PUSH3 0x186B JUMP JUMPDEST JUMPDEST ADD DUP2 SWAP1 SSTORE POP PUSH16 0xFAADCECEEFF8A0890F3875F008277FFF PUSH1 0x1 PUSH1 0x70 PUSH1 0x80 DUP2 LT PUSH3 0xF7E JUMPI PUSH3 0xF7D PUSH3 0x186B JUMP JUMPDEST JUMPDEST ADD DUP2 SWAP1 SSTORE POP PUSH16 0xF05DC6B27EDAD306388A600F6BA0BFFF PUSH1 0x1 PUSH1 0x71 PUSH1 0x80 DUP2 LT PUSH3 0xFAC JUMPI PUSH3 0xFAB PUSH3 0x186B JUMP JUMPDEST JUMPDEST ADD DUP2 SWAP1 SSTORE POP PUSH16 0xE67A5A25DA41063DE1495D5B18CDBFFF PUSH1 0x1 PUSH1 0x72 PUSH1 0x80 DUP2 LT PUSH3 0xFDA JUMPI PUSH3 0xFD9 PUSH3 0x186B JUMP JUMPDEST JUMPDEST ADD DUP2 SWAP1 SSTORE POP PUSH16 0xDCFF115B14EEDDE6FC3AA5353F2E4FFF PUSH1 0x1 PUSH1 0x73 PUSH1 0x80 DUP2 LT PUSH3 0x1008 JUMPI PUSH3 0x1007 PUSH3 0x186B JUMP JUMPDEST JUMPDEST ADD DUP2 SWAP1 SSTORE POP PUSH16 0xD3E7A3924312399F9AAE2E0F868F8FFF PUSH1 0x1 PUSH1 0x74 PUSH1 0x80 DUP2 LT PUSH3 0x1036 JUMPI PUSH3 0x1035 PUSH3 0x186B JUMP JUMPDEST JUMPDEST ADD DUP2 SWAP1 SSTORE POP PUSH16 0xCB2FF529EB71E41582CCCD5A1EE26FFF PUSH1 0x1 PUSH1 0x75 PUSH1 0x80 DUP2 LT PUSH3 0x1064 JUMPI PUSH3 0x1063 PUSH3 0x186B JUMP JUMPDEST JUMPDEST ADD DUP2 SWAP1 SSTORE POP PUSH16 0xC2D415C3DB974AB32A51840C0B67EDFF PUSH1 0x1 PUSH1 0x76 PUSH1 0x80 DUP2 LT PUSH3 0x1092 JUMPI PUSH3 0x1091 PUSH3 0x186B JUMP JUMPDEST JUMPDEST ADD DUP2 SWAP1 SSTORE POP PUSH16 0xBAD03E7D883F69AD5B0A186184E06BFF PUSH1 0x1 PUSH1 0x77 PUSH1 0x80 DUP2 LT PUSH3 0x10C0 JUMPI PUSH3 0x10BF PUSH3 0x186B JUMP JUMPDEST JUMPDEST ADD DUP2 SWAP1 SSTORE POP PUSH16 0xB320D03B2C343D4829ABD6075F0CC5FF PUSH1 0x1 PUSH1 0x78 PUSH1 0x80 DUP2 LT PUSH3 0x10EE JUMPI PUSH3 0x10ED PUSH3 0x186B JUMP JUMPDEST JUMPDEST ADD DUP2 SWAP1 SSTORE POP PUSH16 0xABC25204E02828D73C6E80BCDB1A95BF PUSH1 0x1 PUSH1 0x79 PUSH1 0x80 DUP2 LT PUSH3 0x111C JUMPI PUSH3 0x111B PUSH3 0x186B JUMP JUMPDEST JUMPDEST ADD DUP2 SWAP1 SSTORE POP PUSH16 0xA4B16F74EE4BB2040A1EC6C15FBBF2DF PUSH1 0x1 PUSH1 0x7A PUSH1 0x80 DUP2 LT PUSH3 0x114A JUMPI PUSH3 0x1149 PUSH3 0x186B JUMP JUMPDEST JUMPDEST ADD DUP2 SWAP1 SSTORE POP PUSH16 0x9DEAF736AC1F569DEB1B5AE3F36C130F PUSH1 0x1 PUSH1 0x7B PUSH1 0x80 DUP2 LT PUSH3 0x1178 JUMPI PUSH3 0x1177 PUSH3 0x186B JUMP JUMPDEST JUMPDEST ADD DUP2 SWAP1 SSTORE POP PUSH16 0x976BD9952C7AA957F5937D790EF65037 PUSH1 0x1 PUSH1 0x7C PUSH1 0x80 DUP2 LT PUSH3 0x11A6 JUMPI PUSH3 0x11A5 PUSH3 0x186B JUMP JUMPDEST JUMPDEST ADD DUP2 SWAP1 SSTORE POP PUSH16 0x9131271922EAA6064B73A22D0BD4F2BF PUSH1 0x1 PUSH1 0x7D PUSH1 0x80 DUP2 LT PUSH3 0x11D4 JUMPI PUSH3 0x11D3 PUSH3 0x186B JUMP JUMPDEST JUMPDEST ADD DUP2 SWAP1 SSTORE POP PUSH16 0x8B380F3558668C46C91C49A2F8E967B9 PUSH1 0x1 PUSH1 0x7E PUSH1 0x80 DUP2 LT PUSH3 0x1202 JUMPI PUSH3 0x1201 PUSH3 0x186B JUMP JUMPDEST JUMPDEST ADD DUP2 SWAP1 SSTORE POP PUSH16 0x857DDF0117EFA215952912839F6473E6 PUSH1 0x1 PUSH1 0x7F PUSH1 0x80 DUP2 LT PUSH3 0x1230 JUMPI PUSH3 0x122F PUSH3 0x186B JUMP JUMPDEST JUMPDEST ADD DUP2 SWAP1 SSTORE POP PUSH3 0x1246 DUP2 PUSH3 0x135E PUSH1 0x20 SHL PUSH1 0x20 SHR JUMP JUMPDEST POP DUP1 PUSH1 0x87 DUP2 SWAP1 SSTORE POP POP PUSH0 PUSH20 0xFFFFFFFFFFFFFFFFFFFFFFFFFFFFFFFFFFFFFFFF AND DUP2 PUSH20 0xFFFFFFFFFFFFFFFFFFFFFFFFFFFFFFFFFFFFFFFF AND SUB PUSH3 0x12C2 JUMPI PUSH0 PUSH1 0x40 MLOAD PUSH32 0x1E4FBDF700000000000000000000000000000000000000000000000000000000 DUP2 MSTORE PUSH1 0x4 ADD PUSH3 0x12B9 SWAP2 SWAP1 PUSH3 0x18A9 JUMP JUMPDEST PUSH1 0x40 MLOAD DUP1 SWAP2 SUB SWAP1 REVERT JUMPDEST PUSH3 0x12D3 DUP2 PUSH3 0x1373 PUSH1 0x20 SHL PUSH1 0x20 SHR JUMP JUMPDEST POP DUP1 PUSH1 0x8C PUSH0 PUSH2 0x100 EXP DUP2 SLOAD DUP2 PUSH20 0xFFFFFFFFFFFFFFFFFFFFFFFFFFFFFFFFFFFFFFFF MUL NOT AND SWAP1 DUP4 PUSH20 0xFFFFFFFFFFFFFFFFFFFFFFFFFFFFFFFFFFFFFFFF AND MUL OR SWAP1 SSTORE POP POP DUP2 PUSH1 0x91 PUSH0 PUSH2 0x100 EXP DUP2 SLOAD DUP2 PUSH20 0xFFFFFFFFFFFFFFFFFFFFFFFFFFFFFFFFFFFFFFFF MUL NOT AND SWAP1 DUP4 PUSH20 0xFFFFFFFFFFFFFFFFFFFFFFFFFFFFFFFFFFFFFFFF AND MUL OR SWAP1 SSTORE POP POP POP POP PUSH3 0x18C4 JUMP JUMPDEST DUP1 PUSH1 0x83 SWAP1 DUP2 PUSH3 0x136F SWAP2 SWAP1 PUSH3 0x169A JUMP JUMPDEST POP POP JUMP JUMPDEST PUSH0 PUSH1 0x88 PUSH0 SWAP1 SLOAD SWAP1 PUSH2 0x100 EXP SWAP1 DIV PUSH20 0xFFFFFFFFFFFFFFFFFFFFFFFFFFFFFFFFFFFFFFFF AND SWAP1 POP DUP2 PUSH1 0x88 PUSH0 PUSH2 0x100 EXP DUP2 SLOAD DUP2 PUSH20 0xFFFFFFFFFFFFFFFFFFFFFFFFFFFFFFFFFFFFFFFF MUL NOT AND SWAP1 DUP4 PUSH20 0xFFFFFFFFFFFFFFFFFFFFFFFFFFFFFFFFFFFFFFFF AND MUL OR SWAP1 SSTORE POP DUP2 PUSH20 0xFFFFFFFFFFFFFFFFFFFFFFFFFFFFFFFFFFFFFFFF AND DUP2 PUSH20 0xFFFFFFFFFFFFFFFFFFFFFFFFFFFFFFFFFFFFFFFF AND PUSH32 0x8BE0079C531659141344CD1FD0A4F28419497F9722A3DAAFE3B4186F6B6457E0 PUSH1 0x40 MLOAD PUSH1 0x40 MLOAD DUP1 SWAP2 SUB SWAP1 LOG3 POP POP JUMP JUMPDEST PUSH0 DUP2 MLOAD SWAP1 POP SWAP2 SWAP1 POP JUMP JUMPDEST PUSH32 0x4E487B7100000000000000000000000000000000000000000000000000000000 PUSH0 MSTORE PUSH1 0x41 PUSH1 0x4 MSTORE PUSH1 0x24 PUSH0 REVERT JUMPDEST PUSH32 0x4E487B7100000000000000000000000000000000000000000000000000000000 PUSH0 MSTORE PUSH1 0x22 PUSH1 0x4 MSTORE PUSH1 0x24 PUSH0 REVERT JUMPDEST PUSH0 PUSH1 0x2 DUP3 DIV SWAP1 POP PUSH1 0x1 DUP3 AND DUP1 PUSH3 0x14B2 JUMPI PUSH1 0x7F DUP3 AND SWAP2 POP JUMPDEST PUSH1 0x20 DUP3 LT DUP2 SUB PUSH3 0x14C8 JUMPI PUSH3 0x14C7 PUSH3 0x146D JUMP JUMPDEST JUMPDEST POP SWAP2 SWAP1 POP JUMP JUMPDEST PUSH0 DUP2 SWAP1 POP DUP2 PUSH0 MSTORE PUSH1 0x20 PUSH0 KECCAK256 SWAP1 POP SWAP2 SWAP1 POP JUMP JUMPDEST PUSH0 PUSH1 0x20 PUSH1 0x1F DUP4 ADD DIV SWAP1 POP SWAP2 SWAP1 POP JUMP JUMPDEST PUSH0 DUP3 DUP3 SHL SWAP1 POP SWAP3 SWAP2 POP POP JUMP JUMPDEST PUSH0 PUSH1 0x8 DUP4 MUL PUSH3 0x152C PUSH32 0xFFFFFFFFFFFFFFFFFFFFFFFFFFFFFFFFFFFFFFFFFFFFFFFFFFFFFFFFFFFFFFFF DUP3 PUSH3 0x14EF JUMP JUMPDEST PUSH3 0x1538 DUP7 DUP4 PUSH3 0x14EF JUMP JUMPDEST SWAP6 POP DUP1 NOT DUP5 AND SWAP4 POP DUP1 DUP7 AND DUP5 OR SWAP3 POP POP POP SWAP4 SWAP3 POP POP POP JUMP JUMPDEST PUSH0 DUP2 SWAP1 POP SWAP2 SWAP1 POP JUMP JUMPDEST PUSH0 DUP2 SWAP1 POP SWAP2 SWAP1 POP JUMP JUMPDEST PUSH0 PUSH3 0x1582 PUSH3 0x157C PUSH3 0x1576 DUP5 PUSH3 0x1550 JUMP JUMPDEST PUSH3 0x1559 JUMP JUMPDEST PUSH3 0x1550 JUMP JUMPDEST SWAP1 POP SWAP2 SWAP1 POP JUMP JUMPDEST PUSH0 DUP2 SWAP1 POP SWAP2 SWAP1 POP JUMP JUMPDEST PUSH3 0x159D DUP4 PUSH3 0x1562 JUMP JUMPDEST PUSH3 0x15B5 PUSH3 0x15AC DUP3 PUSH3 0x1589 JUMP JUMPDEST DUP5 DUP5 SLOAD PUSH3 0x14FB JUMP JUMPDEST DUP3 SSTORE POP POP POP POP JUMP JUMPDEST PUSH0 SWAP1 JUMP JUMPDEST PUSH3 0x15CB PUSH3 0x15BD JUMP JUMPDEST PUSH3 0x15D8 DUP2 DUP5 DUP5 PUSH3 0x1592 JUMP JUMPDEST POP POP POP JUMP JUMPDEST JUMPDEST DUP2 DUP2 LT ISZERO PUSH3 0x15FF JUMPI PUSH3 0x15F3 PUSH0 DUP3 PUSH3 0x15C1 JUMP JUMPDEST PUSH1 0x1 DUP2 ADD SWAP1 POP PUSH3 0x15DE JUMP JUMPDEST POP POP JUMP JUMPDEST PUSH1 0x1F DUP3 GT ISZERO PUSH3 0x164E JUMPI PUSH3 0x1618 DUP2 PUSH3 0x14CE JUMP JUMPDEST PUSH3 0x1623 DUP5 PUSH3 0x14E0 JUMP JUMPDEST DUP2 ADD PUSH1 0x20 DUP6 LT ISZERO PUSH3 0x1633 JUMPI DUP2 SWAP1 POP JUMPDEST PUSH3 0x164B PUSH3 0x1642 DUP6 PUSH3 0x14E0 JUMP JUMPDEST DUP4 ADD DUP3 PUSH3 0x15DD JUMP JUMPDEST POP POP JUMPDEST POP POP POP JUMP JUMPDEST PUSH0 DUP3 DUP3 SHR SWAP1 POP SWAP3 SWAP2 POP POP JUMP JUMPDEST PUSH0 PUSH3 0x1670 PUSH0 NOT DUP5 PUSH1 0x8 MUL PUSH3 0x1653 JUMP JUMPDEST NOT DUP1 DUP4 AND SWAP2 POP POP SWAP3 SWAP2 POP POP JUMP JUMPDEST PUSH0 PUSH3 0x168A DUP4 DUP4 PUSH3 0x165F JUMP JUMPDEST SWAP2 POP DUP3 PUSH1 0x2 MUL DUP3 OR SWAP1 POP SWAP3 SWAP2 POP POP JUMP JUMPDEST PUSH3 0x16A5 DUP3 PUSH3 0x1436 JUMP JUMPDEST PUSH8 0xFFFFFFFFFFFFFFFF DUP2 GT ISZERO PUSH3 0x16C1 JUMPI PUSH3 0x16C0 PUSH3 0x1440 JUMP JUMPDEST JUMPDEST PUSH3 0x16CD DUP3 SLOAD PUSH3 0x149A JUMP JUMPDEST PUSH3 0x16DA DUP3 DUP3 DUP6 PUSH3 0x1603 JUMP JUMPDEST PUSH0 PUSH1 0x20 SWAP1 POP PUSH1 0x1F DUP4 GT PUSH1 0x1 DUP2 EQ PUSH3 0x1710 JUMPI PUSH0 DUP5 ISZERO PUSH3 0x16FB JUMPI DUP3 DUP8 ADD MLOAD SWAP1 POP JUMPDEST PUSH3 0x1707 DUP6 DUP3 PUSH3 0x167D JUMP JUMPDEST DUP7 SSTORE POP PUSH3 0x1776 JUMP JUMPDEST PUSH1 0x1F NOT DUP5 AND PUSH3 0x1720 DUP7 PUSH3 0x14CE JUMP JUMPDEST PUSH0 JUMPDEST DUP3 DUP2 LT ISZERO PUSH3 0x1749 JUMPI DUP5 DUP10 ADD MLOAD DUP3 SSTORE PUSH1 0x1 DUP3 ADD SWAP2 POP PUSH1 0x20 DUP6 ADD SWAP5 POP PUSH1 0x20 DUP2 ADD SWAP1 POP PUSH3 0x1722 JUMP JUMPDEST DUP7 DUP4 LT ISZERO PUSH3 0x1769 JUMPI DUP5 DUP10 ADD MLOAD PUSH3 0x1765 PUSH1 0x1F DUP10 AND DUP3 PUSH3 0x165F JUMP JUMPDEST DUP4 SSTORE POP JUMPDEST PUSH1 0x1 PUSH1 0x2 DUP9 MUL ADD DUP9 SSTORE POP POP POP JUMPDEST POP POP POP POP POP POP JUMP JUMPDEST PUSH0 DUP1 REVERT JUMPDEST PUSH3 0x178D DUP2 PUSH3 0x1550 JUMP JUMPDEST DUP2 EQ PUSH3 0x1798 JUMPI PUSH0 DUP1 REVERT JUMPDEST POP JUMP JUMPDEST PUSH0 DUP2 MLOAD SWAP1 POP PUSH3 0x17AB DUP2 PUSH3 0x1782 JUMP JUMPDEST SWAP3 SWAP2 POP POP JUMP JUMPDEST PUSH0 PUSH20 0xFFFFFFFFFFFFFFFFFFFFFFFFFFFFFFFFFFFFFFFF DUP3 AND SWAP1 POP SWAP2 SWAP1 POP JUMP JUMPDEST PUSH0 PUSH3 0x17DC DUP3 PUSH3 0x17B1 JUMP JUMPDEST SWAP1 POP SWAP2 SWAP1 POP JUMP JUMPDEST PUSH3 0x17EE DUP2 PUSH3 0x17D0 JUMP JUMPDEST DUP2 EQ PUSH3 0x17F9 JUMPI PUSH0 DUP1 REVERT JUMPDEST POP JUMP JUMPDEST PUSH0 DUP2 MLOAD SWAP1 POP PUSH3 0x180C DUP2 PUSH3 0x17E3 JUMP JUMPDEST SWAP3 SWAP2 POP POP JUMP JUMPDEST PUSH0 DUP1 PUSH0 PUSH1 0x60 DUP5 DUP7 SUB SLT ISZERO PUSH3 0x182C JUMPI PUSH3 0x182B PUSH3 0x177E JUMP JUMPDEST JUMPDEST PUSH0 PUSH3 0x183B DUP7 DUP3 DUP8 ADD PUSH3 0x179B JUMP JUMPDEST SWAP4 POP POP PUSH1 0x20 PUSH3 0x184E DUP7 DUP3 DUP8 ADD PUSH3 0x17FC JUMP JUMPDEST SWAP3 POP POP PUSH1 0x40 PUSH3 0x1861 DUP7 DUP3 DUP8 ADD PUSH3 0x17FC JUMP JUMPDEST SWAP2 POP POP SWAP3 POP SWAP3 POP SWAP3 JUMP JUMPDEST PUSH32 0x4E487B7100000000000000000000000000000000000000000000000000000000 PUSH0 MSTORE PUSH1 0x32 PUSH1 0x4 MSTORE PUSH1 0x24 PUSH0 REVERT JUMPDEST PUSH3 0x18A3 DUP2 PUSH3 0x17D0 JUMP JUMPDEST DUP3 MSTORE POP POP JUMP JUMPDEST PUSH0 PUSH1 0x20 DUP3 ADD SWAP1 POP PUSH3 0x18BE PUSH0 DUP4 ADD DUP5 PUSH3 0x1898 JUMP JUMPDEST SWAP3 SWAP2 POP POP JUMP JUMPDEST PUSH2 0x7A1B DUP1 PUSH3 0x18D2 PUSH0 CODECOPY PUSH0 RETURN INVALID PUSH1 0x80 PUSH1 0x40 MSTORE PUSH1 0x4 CALLDATASIZE LT PUSH2 0x333 JUMPI PUSH0 CALLDATALOAD PUSH1 0xE0 SHR DUP1 PUSH4 0x71B7747A GT PUSH2 0x1AA JUMPI DUP1 PUSH4 0xC884EF83 GT PUSH2 0xF6 JUMPI DUP1 PUSH4 0xEE37778D GT PUSH2 0x94 JUMPI DUP1 PUSH4 0xF242432A GT PUSH2 0x6E JUMPI DUP1 PUSH4 0xF242432A EQ PUSH2 0xCEC JUMPI DUP1 PUSH4 0xF2FDE38B EQ PUSH2 0xD14 JUMPI DUP1 PUSH4 0xF301AF42 EQ PUSH2 0xD3C JUMPI DUP1 PUSH4 0xF3432B88 EQ PUSH2 0xD7E JUMPI PUSH2 0x333 JUMP JUMPDEST DUP1 PUSH4 0xEE37778D EQ PUSH2 0xC5E JUMPI DUP1 PUSH4 0xEF5CFB8C EQ PUSH2 0xC9A JUMPI DUP1 PUSH4 0xF064997C EQ PUSH2 0xCC2 JUMPI PUSH2 0x333 JUMP JUMPDEST DUP1 PUSH4 0xDAEC6AF6 GT PUSH2 0xD0 JUMPI DUP1 PUSH4 0xDAEC6AF6 EQ PUSH2 0xB92 JUMPI DUP1 PUSH4 0xDF478880 EQ PUSH2 0xBCE JUMPI DUP1 PUSH4 0xE985E9C5 EQ PUSH2 0xBF8 JUMPI DUP1 PUSH4 0xECED5526 EQ PUSH2 0xC34 JUMPI PUSH2 0x333 JUMP JUMPDEST DUP1 PUSH4 0xC884EF83 EQ PUSH2 0xAF0 JUMPI DUP1 PUSH4 0xD0377094 EQ PUSH2 0xB2C JUMPI DUP1 PUSH4 0xD1F89993 EQ PUSH2 0xB56 JUMPI PUSH2 0x333 JUMP JUMPDEST DUP1 PUSH4 0xA22CB465 GT PUSH2 0x163 JUMPI DUP1 PUSH4 0xB3CB1107 GT PUSH2 0x13D JUMPI DUP1 PUSH4 0xB3CB1107 EQ PUSH2 0xA3A JUMPI DUP1 PUSH4 0xB6A33E56 EQ PUSH2 0xA62 JUMPI DUP1 PUSH4 0xBD85B039 EQ PUSH2 0xA8C JUMPI DUP1 PUSH4 0xC62472F3 EQ PUSH2 0xAC8 JUMPI PUSH2 0x333 JUMP JUMPDEST DUP1 PUSH4 0xA22CB465 EQ PUSH2 0x9AE JUMPI DUP1 PUSH4 0xA3111ABD EQ PUSH2 0x9D6 JUMPI DUP1 PUSH4 0xB390C0AB EQ PUSH2 0xA12 JUMPI PUSH2 0x333 JUMP JUMPDEST DUP1 PUSH4 0x71B7747A EQ PUSH2 0x87C JUMPI DUP1 PUSH4 0x7A67F053 EQ PUSH2 0x8A6 JUMPI DUP1 PUSH4 0x81E0A842 EQ PUSH2 0x8E2 JUMPI DUP1 PUSH4 0x83DED12E EQ PUSH2 0x91E JUMPI DUP1 PUSH4 0x8515DD81 EQ PUSH2 0x95A JUMPI DUP1 PUSH4 0x8DA5CB5B EQ PUSH2 0x984 JUMPI PUSH2 0x333 JUMP JUMPDEST DUP1 PUSH4 0x2EB2C2D6 GT PUSH2 0x284 JUMPI DUP1 PUSH4 0x5333ECB8 GT PUSH2 0x222 JUMPI DUP1 PUSH4 0x5E1AEA0A GT PUSH2 0x1FC JUMPI DUP1 PUSH4 0x5E1AEA0A EQ PUSH2 0x7C5 JUMPI DUP1 PUSH4 0x636D8E54 EQ PUSH2 0x802 JUMPI DUP1 PUSH4 0x708CB49C EQ PUSH2 0x82A JUMPI DUP1 PUSH4 0x715018A6 EQ PUSH2 0x866 JUMPI PUSH2 0x333 JUMP JUMPDEST DUP1 PUSH4 0x5333ECB8 EQ PUSH2 0x747 JUMPI DUP1 PUSH4 0x54FD4D50 EQ PUSH2 0x771 JUMPI DUP1 PUSH4 0x57C1A47F EQ PUSH2 0x79B JUMPI PUSH2 0x333 JUMP JUMPDEST DUP1 PUSH4 0x35D1FC06 GT PUSH2 0x25E JUMPI DUP1 PUSH4 0x35D1FC06 EQ PUSH2 0x669 JUMPI DUP1 PUSH4 0x49F9B0F7 EQ PUSH2 0x693 JUMPI DUP1 PUSH4 0x4E1273F4 EQ PUSH2 0x6CF JUMPI DUP1 PUSH4 0x4F558E79 EQ PUSH2 0x70B JUMPI PUSH2 0x333 JUMP JUMPDEST DUP1 PUSH4 0x2EB2C2D6 EQ PUSH2 0x5DB JUMPI DUP1 PUSH4 0x34241793 EQ PUSH2 0x603 JUMPI DUP1 PUSH4 0x3517D9D7 EQ PUSH2 0x62D JUMPI PUSH2 0x333 JUMP JUMPDEST DUP1 PUSH4 0x18160DDD GT PUSH2 0x2F1 JUMPI DUP1 PUSH4 0x1E257A04 GT PUSH2 0x2CB JUMPI DUP1 PUSH4 0x1E257A04 EQ PUSH2 0x4FF JUMPI DUP1 PUSH4 0x254F8C9F EQ PUSH2 0x53B JUMPI DUP1 PUSH4 0x29A00E7C EQ PUSH2 0x577 JUMPI DUP1 PUSH4 0x2CC34940 EQ PUSH2 0x5B3 JUMPI PUSH2 0x333 JUMP JUMPDEST DUP1 PUSH4 0x18160DDD EQ PUSH2 0x48F JUMPI DUP1 PUSH4 0x1B2EF1CA EQ PUSH2 0x4B9 JUMPI DUP1 PUSH4 0x1D0E98F3 EQ PUSH2 0x4D5 JUMPI PUSH2 0x333 JUMP JUMPDEST DUP1 PUSH3 0xFDD58E EQ PUSH2 0x337 JUMPI DUP1 PUSH4 0x1FFC9A7 EQ PUSH2 0x373 JUMPI DUP1 PUSH4 0x3F1C622 EQ PUSH2 0x3AF JUMPI DUP1 PUSH4 0xC7D5CD8 EQ PUSH2 0x3ED JUMPI DUP1 PUSH4 0xE89341C EQ PUSH2 0x417 JUMPI DUP1 PUSH4 0x14269687 EQ PUSH2 0x453 JUMPI JUMPDEST PUSH0 DUP1 REVERT JUMPDEST CALLVALUE DUP1 ISZERO PUSH2 0x342 JUMPI PUSH0 DUP1 REVERT JUMPDEST POP PUSH2 0x35D PUSH1 0x4 DUP1 CALLDATASIZE SUB DUP2 ADD SWAP1 PUSH2 0x358 SWAP2 SWAP1 PUSH2 0x5FB4 JUMP JUMPDEST PUSH2 0xDBA JUMP JUMPDEST PUSH1 0x40 MLOAD PUSH2 0x36A SWAP2 SWAP1 PUSH2 0x6001 JUMP JUMPDEST PUSH1 0x40 MLOAD DUP1 SWAP2 SUB SWAP1 RETURN JUMPDEST CALLVALUE DUP1 ISZERO PUSH2 0x37E JUMPI PUSH0 DUP1 REVERT JUMPDEST POP PUSH2 0x399 PUSH1 0x4 DUP1 CALLDATASIZE SUB DUP2 ADD SWAP1 PUSH2 0x394 SWAP2 SWAP1 PUSH2 0x606F JUMP JUMPDEST PUSH2 0xE10 JUMP JUMPDEST PUSH1 0x40 MLOAD PUSH2 0x3A6 SWAP2 SWAP1 PUSH2 0x60B4 JUMP JUMPDEST PUSH1 0x40 MLOAD DUP1 SWAP2 SUB SWAP1 RETURN JUMPDEST CALLVALUE DUP1 ISZERO PUSH2 0x3BA JUMPI PUSH0 DUP1 REVERT JUMPDEST POP PUSH2 0x3D5 PUSH1 0x4 DUP1 CALLDATASIZE SUB DUP2 ADD SWAP1 PUSH2 0x3D0 SWAP2 SWAP1 PUSH2 0x60CD JUMP JUMPDEST PUSH2 0xEF1 JUMP JUMPDEST PUSH1 0x40 MLOAD PUSH2 0x3E4 SWAP4 SWAP3 SWAP2 SWAP1 PUSH2 0x60F8 JUMP JUMPDEST PUSH1 0x40 MLOAD DUP1 SWAP2 SUB SWAP1 RETURN JUMPDEST CALLVALUE DUP1 ISZERO PUSH2 0x3F8 JUMPI PUSH0 DUP1 REVERT JUMPDEST POP PUSH2 0x401 PUSH2 0xF23 JUMP JUMPDEST PUSH1 0x40 MLOAD PUSH2 0x40E SWAP2 SWAP1 PUSH2 0x6001 JUMP JUMPDEST PUSH1 0x40 MLOAD DUP1 SWAP2 SUB SWAP1 RETURN JUMPDEST CALLVALUE DUP1 ISZERO PUSH2 0x422 JUMPI PUSH0 DUP1 REVERT JUMPDEST POP PUSH2 0x43D PUSH1 0x4 DUP1 CALLDATASIZE SUB DUP2 ADD SWAP1 PUSH2 0x438 SWAP2 SWAP1 PUSH2 0x612D JUMP JUMPDEST PUSH2 0xF29 JUMP JUMPDEST PUSH1 0x40 MLOAD PUSH2 0x44A SWAP2 SWAP1 PUSH2 0x61E2 JUMP JUMPDEST PUSH1 0x40 MLOAD DUP1 SWAP2 SUB SWAP1 RETURN JUMPDEST CALLVALUE DUP1 ISZERO PUSH2 0x45E JUMPI PUSH0 DUP1 REVERT JUMPDEST POP PUSH2 0x479 PUSH1 0x4 DUP1 CALLDATASIZE SUB DUP2 ADD SWAP1 PUSH2 0x474 SWAP2 SWAP1 PUSH2 0x612D JUMP JUMPDEST PUSH2 0xFBB JUMP JUMPDEST PUSH1 0x40 MLOAD PUSH2 0x486 SWAP2 SWAP1 PUSH2 0x6001 JUMP JUMPDEST PUSH1 0x40 MLOAD DUP1 SWAP2 SUB SWAP1 RETURN JUMPDEST CALLVALUE DUP1 ISZERO PUSH2 0x49A JUMPI PUSH0 DUP1 REVERT JUMPDEST POP PUSH2 0x4A3 PUSH2 0xFD0 JUMP JUMPDEST PUSH1 0x40 MLOAD PUSH2 0x4B0 SWAP2 SWAP1 PUSH2 0x6001 JUMP JUMPDEST PUSH1 0x40 MLOAD DUP1 SWAP2 SUB SWAP1 RETURN JUMPDEST PUSH2 0x4D3 PUSH1 0x4 DUP1 CALLDATASIZE SUB DUP2 ADD SWAP1 PUSH2 0x4CE SWAP2 SWAP1 PUSH2 0x6202 JUMP JUMPDEST PUSH2 0xFD9 JUMP JUMPDEST STOP JUMPDEST CALLVALUE DUP1 ISZERO PUSH2 0x4E0 JUMPI PUSH0 DUP1 REVERT JUMPDEST POP PUSH2 0x4E9 PUSH2 0x11E0 JUMP JUMPDEST PUSH1 0x40 MLOAD PUSH2 0x4F6 SWAP2 SWAP1 PUSH2 0x60B4 JUMP JUMPDEST PUSH1 0x40 MLOAD DUP1 SWAP2 SUB SWAP1 RETURN JUMPDEST CALLVALUE DUP1 ISZERO PUSH2 0x50A JUMPI PUSH0 DUP1 REVERT JUMPDEST POP PUSH2 0x525 PUSH1 0x4 DUP1 CALLDATASIZE SUB DUP2 ADD SWAP1 PUSH2 0x520 SWAP2 SWAP1 PUSH2 0x6202 JUMP JUMPDEST PUSH2 0x124D JUMP JUMPDEST PUSH1 0x40 MLOAD PUSH2 0x532 SWAP2 SWAP1 PUSH2 0x6001 JUMP JUMPDEST PUSH1 0x40 MLOAD DUP1 SWAP2 SUB SWAP1 RETURN JUMPDEST CALLVALUE DUP1 ISZERO PUSH2 0x546 JUMPI PUSH0 DUP1 REVERT JUMPDEST POP PUSH2 0x561 PUSH1 0x4 DUP1 CALLDATASIZE SUB DUP2 ADD SWAP1 PUSH2 0x55C SWAP2 SWAP1 PUSH2 0x612D JUMP JUMPDEST PUSH2 0x12A3 JUMP JUMPDEST PUSH1 0x40 MLOAD PUSH2 0x56E SWAP2 SWAP1 PUSH2 0x6001 JUMP JUMPDEST PUSH1 0x40 MLOAD DUP1 SWAP2 SUB SWAP1 RETURN JUMPDEST CALLVALUE DUP1 ISZERO PUSH2 0x582 JUMPI PUSH0 DUP1 REVERT JUMPDEST POP PUSH2 0x59D PUSH1 0x4 DUP1 CALLDATASIZE SUB DUP2 ADD SWAP1 PUSH2 0x598 SWAP2 SWAP1 PUSH2 0x6279 JUMP JUMPDEST PUSH2 0x12DA JUMP JUMPDEST PUSH1 0x40 MLOAD PUSH2 0x5AA SWAP2 SWAP1 PUSH2 0x6001 JUMP JUMPDEST PUSH1 0x40 MLOAD DUP1 SWAP2 SUB SWAP1 RETURN JUMPDEST CALLVALUE DUP1 ISZERO PUSH2 0x5BE JUMPI PUSH0 DUP1 REVERT JUMPDEST POP PUSH2 0x5D9 PUSH1 0x4 DUP1 CALLDATASIZE SUB DUP2 ADD SWAP1 PUSH2 0x5D4 SWAP2 SWAP1 PUSH2 0x612D JUMP JUMPDEST PUSH2 0x140B JUMP JUMPDEST STOP JUMPDEST CALLVALUE DUP1 ISZERO PUSH2 0x5E6 JUMPI PUSH0 DUP1 REVERT JUMPDEST POP PUSH2 0x601 PUSH1 0x4 DUP1 CALLDATASIZE SUB DUP2 ADD SWAP1 PUSH2 0x5FC SWAP2 SWAP1 PUSH2 0x64CD JUMP JUMPDEST PUSH2 0x14FB JUMP JUMPDEST STOP JUMPDEST CALLVALUE DUP1 ISZERO PUSH2 0x60E JUMPI PUSH0 DUP1 REVERT JUMPDEST POP PUSH2 0x617 PUSH2 0x15A2 JUMP JUMPDEST PUSH1 0x40 MLOAD PUSH2 0x624 SWAP2 SWAP1 PUSH2 0x6001 JUMP JUMPDEST PUSH1 0x40 MLOAD DUP1 SWAP2 SUB SWAP1 RETURN JUMPDEST CALLVALUE DUP1 ISZERO PUSH2 0x638 JUMPI PUSH0 DUP1 REVERT JUMPDEST POP PUSH2 0x653 PUSH1 0x4 DUP1 CALLDATASIZE SUB DUP2 ADD SWAP1 PUSH2 0x64E SWAP2 SWAP1 PUSH2 0x6202 JUMP JUMPDEST PUSH2 0x15A8 JUMP JUMPDEST PUSH1 0x40 MLOAD PUSH2 0x660 SWAP2 SWAP1 PUSH2 0x6001 JUMP JUMPDEST PUSH1 0x40 MLOAD DUP1 SWAP2 SUB SWAP1 RETURN JUMPDEST CALLVALUE DUP1 ISZERO PUSH2 0x674 JUMPI PUSH0 DUP1 REVERT JUMPDEST POP PUSH2 0x67D PUSH2 0x15DF JUMP JUMPDEST PUSH1 0x40 MLOAD PUSH2 0x68A SWAP2 SWAP1 PUSH2 0x65A7 JUMP JUMPDEST PUSH1 0x40 MLOAD DUP1 SWAP2 SUB SWAP1 RETURN JUMPDEST CALLVALUE DUP1 ISZERO PUSH2 0x69E JUMPI PUSH0 DUP1 REVERT JUMPDEST POP PUSH2 0x6B9 PUSH1 0x4 DUP1 CALLDATASIZE SUB DUP2 ADD SWAP1 PUSH2 0x6B4 SWAP2 SWAP1 PUSH2 0x6279 JUMP JUMPDEST PUSH2 0x15E4 JUMP JUMPDEST PUSH1 0x40 MLOAD PUSH2 0x6C6 SWAP2 SWAP1 PUSH2 0x6001 JUMP JUMPDEST PUSH1 0x40 MLOAD DUP1 SWAP2 SUB SWAP1 RETURN JUMPDEST CALLVALUE DUP1 ISZERO PUSH2 0x6DA JUMPI PUSH0 DUP1 REVERT JUMPDEST POP PUSH2 0x6F5 PUSH1 0x4 DUP1 CALLDATASIZE SUB DUP2 ADD SWAP1 PUSH2 0x6F0 SWAP2 SWAP1 PUSH2 0x6680 JUMP JUMPDEST PUSH2 0x1747 JUMP JUMPDEST PUSH1 0x40 MLOAD PUSH2 0x702 SWAP2 SWAP1 PUSH2 0x67AD JUMP JUMPDEST PUSH1 0x40 MLOAD DUP1 SWAP2 SUB SWAP1 RETURN JUMPDEST CALLVALUE DUP1 ISZERO PUSH2 0x716 JUMPI PUSH0 DUP1 REVERT JUMPDEST POP PUSH2 0x731 PUSH1 0x4 DUP1 CALLDATASIZE SUB DUP2 ADD SWAP1 PUSH2 0x72C SWAP2 SWAP1 PUSH2 0x612D JUMP JUMPDEST PUSH2 0x1854 JUMP JUMPDEST PUSH1 0x40 MLOAD PUSH2 0x73E SWAP2 SWAP1 PUSH2 0x60B4 JUMP JUMPDEST PUSH1 0x40 MLOAD DUP1 SWAP2 SUB SWAP1 RETURN JUMPDEST CALLVALUE DUP1 ISZERO PUSH2 0x752 JUMPI PUSH0 DUP1 REVERT JUMPDEST POP PUSH2 0x75B PUSH2 0x1867 JUMP JUMPDEST PUSH1 0x40 MLOAD PUSH2 0x768 SWAP2 SWAP1 PUSH2 0x6001 JUMP JUMPDEST PUSH1 0x40 MLOAD DUP1 SWAP2 SUB SWAP1 RETURN JUMPDEST CALLVALUE DUP1 ISZERO PUSH2 0x77C JUMPI PUSH0 DUP1 REVERT JUMPDEST POP PUSH2 0x785 PUSH2 0x186D JUMP JUMPDEST PUSH1 0x40 MLOAD PUSH2 0x792 SWAP2 SWAP1 PUSH2 0x61E2 JUMP JUMPDEST PUSH1 0x40 MLOAD DUP1 SWAP2 SUB SWAP1 RETURN JUMPDEST CALLVALUE DUP1 ISZERO PUSH2 0x7A6 JUMPI PUSH0 DUP1 REVERT JUMPDEST POP PUSH2 0x7AF PUSH2 0x18F8 JUMP JUMPDEST PUSH1 0x40 MLOAD PUSH2 0x7BC SWAP2 SWAP1 PUSH2 0x6001 JUMP JUMPDEST PUSH1 0x40 MLOAD DUP1 SWAP2 SUB SWAP1 RETURN JUMPDEST CALLVALUE DUP1 ISZERO PUSH2 0x7D0 JUMPI PUSH0 DUP1 REVERT JUMPDEST POP PUSH2 0x7EB PUSH1 0x4 DUP1 CALLDATASIZE SUB DUP2 ADD SWAP1 PUSH2 0x7E6 SWAP2 SWAP1 PUSH2 0x612D JUMP JUMPDEST PUSH2 0x1954 JUMP JUMPDEST PUSH1 0x40 MLOAD PUSH2 0x7F9 SWAP3 SWAP2 SWAP1 PUSH2 0x67CD JUMP JUMPDEST PUSH1 0x40 MLOAD DUP1 SWAP2 SUB SWAP1 RETURN JUMPDEST CALLVALUE DUP1 ISZERO PUSH2 0x80D JUMPI PUSH0 DUP1 REVERT JUMPDEST POP PUSH2 0x828 PUSH1 0x4 DUP1 CALLDATASIZE SUB DUP2 ADD SWAP1 PUSH2 0x823 SWAP2 SWAP1 PUSH2 0x612D JUMP JUMPDEST PUSH2 0x1B31 JUMP JUMPDEST STOP JUMPDEST CALLVALUE DUP1 ISZERO PUSH2 0x835 JUMPI PUSH0 DUP1 REVERT JUMPDEST POP PUSH2 0x850 PUSH1 0x4 DUP1 CALLDATASIZE SUB DUP2 ADD SWAP1 PUSH2 0x84B SWAP2 SWAP1 PUSH2 0x6202 JUMP JUMPDEST PUSH2 0x1B43 JUMP JUMPDEST PUSH1 0x40 MLOAD PUSH2 0x85D SWAP2 SWAP1 PUSH2 0x6001 JUMP JUMPDEST PUSH1 0x40 MLOAD DUP1 SWAP2 SUB SWAP1 RETURN JUMPDEST CALLVALUE DUP1 ISZERO PUSH2 0x871 JUMPI PUSH0 DUP1 REVERT JUMPDEST POP PUSH2 0x87A PUSH2 0x1B7A JUMP JUMPDEST STOP JUMPDEST CALLVALUE DUP1 ISZERO PUSH2 0x887 JUMPI PUSH0 DUP1 REVERT JUMPDEST POP PUSH2 0x890 PUSH2 0x1B8D JUMP JUMPDEST PUSH1 0x40 MLOAD PUSH2 0x89D SWAP2 SWAP1 PUSH2 0x680C JUMP JUMPDEST PUSH1 0x40 MLOAD DUP1 SWAP2 SUB SWAP1 RETURN JUMPDEST CALLVALUE DUP1 ISZERO PUSH2 0x8B1 JUMPI PUSH0 DUP1 REVERT JUMPDEST POP PUSH2 0x8CC PUSH1 0x4 DUP1 CALLDATASIZE SUB DUP2 ADD SWAP1 PUSH2 0x8C7 SWAP2 SWAP1 PUSH2 0x60CD JUMP JUMPDEST PUSH2 0x1B9E JUMP JUMPDEST PUSH1 0x40 MLOAD PUSH2 0x8D9 SWAP2 SWAP1 PUSH2 0x6001 JUMP JUMPDEST PUSH1 0x40 MLOAD DUP1 SWAP2 SUB SWAP1 RETURN JUMPDEST CALLVALUE DUP1 ISZERO PUSH2 0x8ED JUMPI PUSH0 DUP1 REVERT JUMPDEST POP PUSH2 0x908 PUSH1 0x4 DUP1 CALLDATASIZE SUB DUP2 ADD SWAP1 PUSH2 0x903 SWAP2 SWAP1 PUSH2 0x5FB4 JUMP JUMPDEST PUSH2 0x1BE7 JUMP JUMPDEST PUSH1 0x40 MLOAD PUSH2 0x915 SWAP2 SWAP1 PUSH2 0x60B4 JUMP JUMPDEST PUSH1 0x40 MLOAD DUP1 SWAP2 SUB SWAP1 RETURN JUMPDEST CALLVALUE DUP1 ISZERO PUSH2 0x929 JUMPI PUSH0 DUP1 REVERT JUMPDEST POP PUSH2 0x944 PUSH1 0x4 DUP1 CALLDATASIZE SUB DUP2 ADD SWAP1 PUSH2 0x93F SWAP2 SWAP1 PUSH2 0x612D JUMP JUMPDEST PUSH2 0x1C30 JUMP JUMPDEST PUSH1 0x40 MLOAD PUSH2 0x951 SWAP2 SWAP1 PUSH2 0x6001 JUMP JUMPDEST PUSH1 0x40 MLOAD DUP1 SWAP2 SUB SWAP1 RETURN JUMPDEST CALLVALUE DUP1 ISZERO PUSH2 0x965 JUMPI PUSH0 DUP1 REVERT JUMPDEST POP PUSH2 0x96E PUSH2 0x1C62 JUMP JUMPDEST PUSH1 0x40 MLOAD PUSH2 0x97B SWAP2 SWAP1 PUSH2 0x6001 JUMP JUMPDEST PUSH1 0x40 MLOAD DUP1 SWAP2 SUB SWAP1 RETURN JUMPDEST CALLVALUE DUP1 ISZERO PUSH2 0x98F JUMPI PUSH0 DUP1 REVERT JUMPDEST POP PUSH2 0x998 PUSH2 0x1C6B JUMP JUMPDEST PUSH1 0x40 MLOAD PUSH2 0x9A5 SWAP2 SWAP1 PUSH2 0x6834 JUMP JUMPDEST PUSH1 0x40 MLOAD DUP1 SWAP2 SUB SWAP1 RETURN JUMPDEST CALLVALUE DUP1 ISZERO PUSH2 0x9B9 JUMPI PUSH0 DUP1 REVERT JUMPDEST POP PUSH2 0x9D4 PUSH1 0x4 DUP1 CALLDATASIZE SUB DUP2 ADD SWAP1 PUSH2 0x9CF SWAP2 SWAP1 PUSH2 0x6877 JUMP JUMPDEST PUSH2 0x1C93 JUMP JUMPDEST STOP JUMPDEST CALLVALUE DUP1 ISZERO PUSH2 0x9E1 JUMPI PUSH0 DUP1 REVERT JUMPDEST POP PUSH2 0x9FC PUSH1 0x4 DUP1 CALLDATASIZE SUB DUP2 ADD SWAP1 PUSH2 0x9F7 SWAP2 SWAP1 PUSH2 0x6202 JUMP JUMPDEST PUSH2 0x1CA9 JUMP JUMPDEST PUSH1 0x40 MLOAD PUSH2 0xA09 SWAP2 SWAP1 PUSH2 0x6001 JUMP JUMPDEST PUSH1 0x40 MLOAD DUP1 SWAP2 SUB SWAP1 RETURN JUMPDEST CALLVALUE DUP1 ISZERO PUSH2 0xA1D JUMPI PUSH0 DUP1 REVERT JUMPDEST POP PUSH2 0xA38 PUSH1 0x4 DUP1 CALLDATASIZE SUB DUP2 ADD SWAP1 PUSH2 0xA33 SWAP2 SWAP1 PUSH2 0x6202 JUMP JUMPDEST PUSH2 0x1CD9 JUMP JUMPDEST STOP JUMPDEST CALLVALUE DUP1 ISZERO PUSH2 0xA45 JUMPI PUSH0 DUP1 REVERT JUMPDEST POP PUSH2 0xA60 PUSH1 0x4 DUP1 CALLDATASIZE SUB DUP2 ADD SWAP1 PUSH2 0xA5B SWAP2 SWAP1 PUSH2 0x60CD JUMP JUMPDEST PUSH2 0x1ECF JUMP JUMPDEST STOP JUMPDEST CALLVALUE DUP1 ISZERO PUSH2 0xA6D JUMPI PUSH0 DUP1 REVERT JUMPDEST POP PUSH2 0xA76 PUSH2 0x2054 JUMP JUMPDEST PUSH1 0x40 MLOAD PUSH2 0xA83 SWAP2 SWAP1 PUSH2 0x6001 JUMP JUMPDEST PUSH1 0x40 MLOAD DUP1 SWAP2 SUB SWAP1 RETURN JUMPDEST CALLVALUE DUP1 ISZERO PUSH2 0xA97 JUMPI PUSH0 DUP1 REVERT JUMPDEST POP PUSH2 0xAB2 PUSH1 0x4 DUP1 CALLDATASIZE SUB DUP2 ADD SWAP1 PUSH2 0xAAD SWAP2 SWAP1 PUSH2 0x612D JUMP JUMPDEST PUSH2 0x2214 JUMP JUMPDEST PUSH1 0x40 MLOAD PUSH2 0xABF SWAP2 SWAP1 PUSH2 0x6001 JUMP JUMPDEST PUSH1 0x40 MLOAD DUP1 SWAP2 SUB SWAP1 RETURN JUMPDEST CALLVALUE DUP1 ISZERO PUSH2 0xAD3 JUMPI PUSH0 DUP1 REVERT JUMPDEST POP PUSH2 0xAEE PUSH1 0x4 DUP1 CALLDATASIZE SUB DUP2 ADD SWAP1 PUSH2 0xAE9 SWAP2 SWAP1 PUSH2 0x68B5 JUMP JUMPDEST PUSH2 0x222E JUMP JUMPDEST STOP JUMPDEST CALLVALUE DUP1 ISZERO PUSH2 0xAFB JUMPI PUSH0 DUP1 REVERT JUMPDEST POP PUSH2 0xB16 PUSH1 0x4 DUP1 CALLDATASIZE SUB DUP2 ADD SWAP1 PUSH2 0xB11 SWAP2 SWAP1 PUSH2 0x60CD JUMP JUMPDEST PUSH2 0x2246 JUMP JUMPDEST PUSH1 0x40 MLOAD PUSH2 0xB23 SWAP2 SWAP1 PUSH2 0x6001 JUMP JUMPDEST PUSH1 0x40 MLOAD DUP1 SWAP2 SUB SWAP1 RETURN JUMPDEST CALLVALUE DUP1 ISZERO PUSH2 0xB37 JUMPI PUSH0 DUP1 REVERT JUMPDEST POP PUSH2 0xB40 PUSH2 0x225B JUMP JUMPDEST PUSH1 0x40 MLOAD PUSH2 0xB4D SWAP2 SWAP1 PUSH2 0x6001 JUMP JUMPDEST PUSH1 0x40 MLOAD DUP1 SWAP2 SUB SWAP1 RETURN JUMPDEST CALLVALUE DUP1 ISZERO PUSH2 0xB61 JUMPI PUSH0 DUP1 REVERT JUMPDEST POP PUSH2 0xB7C PUSH1 0x4 DUP1 CALLDATASIZE SUB DUP2 ADD SWAP1 PUSH2 0xB77 SWAP2 SWAP1 PUSH2 0x60CD JUMP JUMPDEST PUSH2 0x2261 JUMP JUMPDEST PUSH1 0x40 MLOAD PUSH2 0xB89 SWAP2 SWAP1 PUSH2 0x60B4 JUMP JUMPDEST PUSH1 0x40 MLOAD DUP1 SWAP2 SUB SWAP1 RETURN JUMPDEST CALLVALUE DUP1 ISZERO PUSH2 0xB9D JUMPI PUSH0 DUP1 REVERT JUMPDEST POP PUSH2 0xBB8 PUSH1 0x4 DUP1 CALLDATASIZE SUB DUP2 ADD SWAP1 PUSH2 0xBB3 SWAP2 SWAP1 PUSH2 0x60CD JUMP JUMPDEST PUSH2 0x22AC JUMP JUMPDEST PUSH1 0x40 MLOAD PUSH2 0xBC5 SWAP2 SWAP1 PUSH2 0x60B4 JUMP JUMPDEST PUSH1 0x40 MLOAD DUP1 SWAP2 SUB SWAP1 RETURN JUMPDEST CALLVALUE DUP1 ISZERO PUSH2 0xBD9 JUMPI PUSH0 DUP1 REVERT JUMPDEST POP PUSH2 0xBE2 PUSH2 0x22F8 JUMP JUMPDEST PUSH1 0x40 MLOAD PUSH2 0xBEF SWAP2 SWAP1 PUSH2 0x60B4 JUMP JUMPDEST PUSH1 0x40 MLOAD DUP1 SWAP2 SUB SWAP1 RETURN JUMPDEST CALLVALUE DUP1 ISZERO PUSH2 0xC03 JUMPI PUSH0 DUP1 REVERT JUMPDEST POP PUSH2 0xC1E PUSH1 0x4 DUP1 CALLDATASIZE SUB DUP2 ADD SWAP1 PUSH2 0xC19 SWAP2 SWAP1 PUSH2 0x6905 JUMP JUMPDEST PUSH2 0x2336 JUMP JUMPDEST PUSH1 0x40 MLOAD PUSH2 0xC2B SWAP2 SWAP1 PUSH2 0x60B4 JUMP JUMPDEST PUSH1 0x40 MLOAD DUP1 SWAP2 SUB SWAP1 RETURN JUMPDEST CALLVALUE DUP1 ISZERO PUSH2 0xC3F JUMPI PUSH0 DUP1 REVERT JUMPDEST POP PUSH2 0xC48 PUSH2 0x23C4 JUMP JUMPDEST PUSH1 0x40 MLOAD PUSH2 0xC55 SWAP2 SWAP1 PUSH2 0x6001 JUMP JUMPDEST PUSH1 0x40 MLOAD DUP1 SWAP2 SUB SWAP1 RETURN JUMPDEST CALLVALUE DUP1 ISZERO PUSH2 0xC69 JUMPI PUSH0 DUP1 REVERT JUMPDEST POP PUSH2 0xC84 PUSH1 0x4 DUP1 CALLDATASIZE SUB DUP2 ADD SWAP1 PUSH2 0xC7F SWAP2 SWAP1 PUSH2 0x6202 JUMP JUMPDEST PUSH2 0x23D0 JUMP JUMPDEST PUSH1 0x40 MLOAD PUSH2 0xC91 SWAP2 SWAP1 PUSH2 0x6001 JUMP JUMPDEST PUSH1 0x40 MLOAD DUP1 SWAP2 SUB SWAP1 RETURN JUMPDEST CALLVALUE DUP1 ISZERO PUSH2 0xCA5 JUMPI PUSH0 DUP1 REVERT JUMPDEST POP PUSH2 0xCC0 PUSH1 0x4 DUP1 CALLDATASIZE SUB DUP2 ADD SWAP1 PUSH2 0xCBB SWAP2 SWAP1 PUSH2 0x60CD JUMP JUMPDEST PUSH2 0x2400 JUMP JUMPDEST STOP JUMPDEST CALLVALUE DUP1 ISZERO PUSH2 0xCCD JUMPI PUSH0 DUP1 REVERT JUMPDEST POP PUSH2 0xCD6 PUSH2 0x2473 JUMP JUMPDEST PUSH1 0x40 MLOAD PUSH2 0xCE3 SWAP2 SWAP1 PUSH2 0x6001 JUMP JUMPDEST PUSH1 0x40 MLOAD DUP1 SWAP2 SUB SWAP1 RETURN JUMPDEST CALLVALUE DUP1 ISZERO PUSH2 0xCF7 JUMPI PUSH0 DUP1 REVERT JUMPDEST POP PUSH2 0xD12 PUSH1 0x4 DUP1 CALLDATASIZE SUB DUP2 ADD SWAP1 PUSH2 0xD0D SWAP2 SWAP1 PUSH2 0x6943 JUMP JUMPDEST PUSH2 0x2479 JUMP JUMPDEST STOP JUMPDEST CALLVALUE DUP1 ISZERO PUSH2 0xD1F JUMPI PUSH0 DUP1 REVERT JUMPDEST POP PUSH2 0xD3A PUSH1 0x4 DUP1 CALLDATASIZE SUB DUP2 ADD SWAP1 PUSH2 0xD35 SWAP2 SWAP1 PUSH2 0x60CD JUMP JUMPDEST PUSH2 0x2520 JUMP JUMPDEST STOP JUMPDEST CALLVALUE DUP1 ISZERO PUSH2 0xD47 JUMPI PUSH0 DUP1 REVERT JUMPDEST POP PUSH2 0xD62 PUSH1 0x4 DUP1 CALLDATASIZE SUB DUP2 ADD SWAP1 PUSH2 0xD5D SWAP2 SWAP1 PUSH2 0x612D JUMP JUMPDEST PUSH2 0x25A4 JUMP JUMPDEST PUSH1 0x40 MLOAD PUSH2 0xD75 SWAP8 SWAP7 SWAP6 SWAP5 SWAP4 SWAP3 SWAP2 SWAP1 PUSH2 0x69D6 JUMP JUMPDEST PUSH1 0x40 MLOAD DUP1 SWAP2 SUB SWAP1 RETURN JUMPDEST CALLVALUE DUP1 ISZERO PUSH2 0xD89 JUMPI PUSH0 DUP1 REVERT JUMPDEST POP PUSH2 0xDA4 PUSH1 0x4 DUP1 CALLDATASIZE SUB DUP2 ADD SWAP1 PUSH2 0xD9F SWAP2 SWAP1 PUSH2 0x60CD JUMP JUMPDEST PUSH2 0x25EE JUMP JUMPDEST PUSH1 0x40 MLOAD PUSH2 0xDB1 SWAP2 SWAP1 PUSH2 0x60B4 JUMP JUMPDEST PUSH1 0x40 MLOAD DUP1 SWAP2 SUB SWAP1 RETURN JUMPDEST PUSH0 PUSH1 0x81 PUSH0 DUP4 DUP2 MSTORE PUSH1 0x20 ADD SWAP1 DUP2 MSTORE PUSH1 0x20 ADD PUSH0 KECCAK256 PUSH0 DUP5 PUSH20 0xFFFFFFFFFFFFFFFFFFFFFFFFFFFFFFFFFFFFFFFF AND PUSH20 0xFFFFFFFFFFFFFFFFFFFFFFFFFFFFFFFFFFFFFFFF AND DUP2 MSTORE PUSH1 0x20 ADD SWAP1 DUP2 MSTORE PUSH1 0x20 ADD PUSH0 KECCAK256 SLOAD SWAP1 POP SWAP3 SWAP2 POP POP JUMP JUMPDEST PUSH0 PUSH32 0xD9B67A2600000000000000000000000000000000000000000000000000000000 PUSH28 0xFFFFFFFFFFFFFFFFFFFFFFFFFFFFFFFFFFFFFFFFFFFFFFFFFFFFFFFF NOT AND DUP3 PUSH28 0xFFFFFFFFFFFFFFFFFFFFFFFFFFFFFFFFFFFFFFFFFFFFFFFFFFFFFFFF NOT AND EQ DUP1 PUSH2 0xEDA JUMPI POP PUSH32 0xE89341C00000000000000000000000000000000000000000000000000000000 PUSH28 0xFFFFFFFFFFFFFFFFFFFFFFFFFFFFFFFFFFFFFFFFFFFFFFFFFFFFFFFF NOT AND DUP3 PUSH28 0xFFFFFFFFFFFFFFFFFFFFFFFFFFFFFFFFFFFFFFFFFFFFFFFFFFFFFFFF NOT AND EQ JUMPDEST DUP1 PUSH2 0xEEA JUMPI POP PUSH2 0xEE9 DUP3 PUSH2 0x264A JUMP JUMPDEST JUMPDEST SWAP1 POP SWAP2 SWAP1 POP JUMP JUMPDEST PUSH1 0x8F PUSH1 0x20 MSTORE DUP1 PUSH0 MSTORE PUSH1 0x40 PUSH0 KECCAK256 PUSH0 SWAP2 POP SWAP1 POP DUP1 PUSH0 ADD SLOAD SWAP1 DUP1 PUSH1 0x1 ADD SLOAD SWAP1 DUP1 PUSH1 0x2 ADD PUSH0 SWAP1 SLOAD SWAP1 PUSH2 0x100 EXP SWAP1 DIV PUSH1 0xFF AND SWAP1 POP DUP4 JUMP JUMPDEST PUSH1 0x87 SLOAD DUP2 JUMP JUMPDEST PUSH1 0x60 PUSH1 0x83 DUP1 SLOAD PUSH2 0xF38 SWAP1 PUSH2 0x6A70 JUMP JUMPDEST DUP1 PUSH1 0x1F ADD PUSH1 0x20 DUP1 SWAP2 DIV MUL PUSH1 0x20 ADD PUSH1 0x40 MLOAD SWAP1 DUP2 ADD PUSH1 0x40 MSTORE DUP1 SWAP3 SWAP2 SWAP1 DUP2 DUP2 MSTORE PUSH1 0x20 ADD DUP3 DUP1 SLOAD PUSH2 0xF64 SWAP1 PUSH2 0x6A70 JUMP JUMPDEST DUP1 ISZERO PUSH2 0xFAF JUMPI DUP1 PUSH1 0x1F LT PUSH2 0xF86 JUMPI PUSH2 0x100 DUP1 DUP4 SLOAD DIV MUL DUP4 MSTORE SWAP2 PUSH1 0x20 ADD SWAP2 PUSH2 0xFAF JUMP JUMPDEST DUP3 ADD SWAP2 SWAP1 PUSH0 MSTORE PUSH1 0x20 PUSH0 KECCAK256 SWAP1 JUMPDEST DUP2 SLOAD DUP2 MSTORE SWAP1 PUSH1 0x1 ADD SWAP1 PUSH1 0x20 ADD DUP1 DUP4 GT PUSH2 0xF92 JUMPI DUP3 SWAP1 SUB PUSH1 0x1F AND DUP3 ADD SWAP2 JUMPDEST POP POP POP POP POP SWAP1 POP SWAP2 SWAP1 POP JUMP JUMPDEST PUSH1 0x86 PUSH1 0x20 MSTORE DUP1 PUSH0 MSTORE PUSH1 0x40 PUSH0 KECCAK256 PUSH0 SWAP2 POP SWAP1 POP SLOAD DUP2 JUMP JUMPDEST PUSH0 PUSH1 0x85 SLOAD SWAP1 POP SWAP1 JUMP JUMPDEST PUSH1 0x90 SLOAD DUP3 LT PUSH2 0x101D JUMPI PUSH1 0x40 MLOAD PUSH32 0x8C379A000000000000000000000000000000000000000000000000000000000 DUP2 MSTORE PUSH1 0x4 ADD PUSH2 0x1014 SWAP1 PUSH2 0x6AEA JUMP JUMPDEST PUSH1 0x40 MLOAD DUP1 SWAP2 SUB SWAP1 REVERT JUMPDEST PUSH0 DUP1 PUSH1 0x60 PUSH0 PUSH2 0x1032 PUSH2 0x102D PUSH2 0x26B3 JUMP JUMPDEST PUSH2 0x26BA JUMP JUMPDEST DUP1 SWAP5 POP DUP2 SWAP6 POP DUP3 SWAP7 POP DUP4 SWAP8 POP POP POP POP POP PUSH1 0x4 PUSH1 0x5 DUP2 GT ISZERO PUSH2 0x1056 JUMPI PUSH2 0x1055 PUSH2 0x6B08 JUMP JUMPDEST JUMPDEST DUP4 PUSH1 0x5 DUP2 GT ISZERO PUSH2 0x1069 JUMPI PUSH2 0x1068 PUSH2 0x6B08 JUMP JUMPDEST JUMPDEST SUB PUSH2 0x10A9 JUMPI PUSH1 0x40 MLOAD PUSH32 0x8C379A000000000000000000000000000000000000000000000000000000000 DUP2 MSTORE PUSH1 0x4 ADD PUSH2 0x10A0 SWAP1 PUSH2 0x6BA5 JUMP JUMPDEST PUSH1 0x40 MLOAD DUP1 SWAP2 SUB SWAP1 REVERT JUMPDEST PUSH2 0x10BB PUSH2 0x10B4 PUSH2 0x26B3 JUMP JUMPDEST DUP8 DUP8 PUSH2 0x28A8 JUMP JUMPDEST PUSH0 PUSH2 0x10C5 DUP7 PUSH2 0x290F JUMP JUMPDEST SWAP1 POP PUSH0 PUSH2 0x10DB DUP3 DUP9 PUSH2 0x293B SWAP1 SWAP2 SWAP1 PUSH4 0xFFFFFFFF AND JUMP JUMPDEST SWAP1 POP PUSH2 0x10E7 DUP9 DUP3 PUSH2 0x2950 JUMP JUMPDEST POP PUSH1 0x91 PUSH0 SWAP1 SLOAD SWAP1 PUSH2 0x100 EXP SWAP1 DIV PUSH20 0xFFFFFFFFFFFFFFFFFFFFFFFFFFFFFFFFFFFFFFFF AND PUSH20 0xFFFFFFFFFFFFFFFFFFFFFFFFFFFFFFFFFFFFFFFF AND PUSH4 0x23B872DD PUSH2 0x112D PUSH2 0x26B3 JUMP JUMPDEST ADDRESS DUP11 PUSH1 0x40 MLOAD DUP5 PUSH4 0xFFFFFFFF AND PUSH1 0xE0 SHL DUP2 MSTORE PUSH1 0x4 ADD PUSH2 0x114D SWAP4 SWAP3 SWAP2 SWAP1 PUSH2 0x6BC3 JUMP JUMPDEST PUSH1 0x20 PUSH1 0x40 MLOAD DUP1 DUP4 SUB DUP2 PUSH0 DUP8 GAS CALL ISZERO DUP1 ISZERO PUSH2 0x1169 JUMPI RETURNDATASIZE PUSH0 DUP1 RETURNDATACOPY RETURNDATASIZE PUSH0 REVERT JUMPDEST POP POP POP POP PUSH1 0x40 MLOAD RETURNDATASIZE PUSH1 0x1F NOT PUSH1 0x1F DUP3 ADD AND DUP3 ADD DUP1 PUSH1 0x40 MSTORE POP DUP2 ADD SWAP1 PUSH2 0x118D SWAP2 SWAP1 PUSH2 0x6C0C JUMP JUMPDEST PUSH2 0x11CC JUMPI PUSH1 0x40 MLOAD PUSH32 0x8C379A000000000000000000000000000000000000000000000000000000000 DUP2 MSTORE PUSH1 0x4 ADD PUSH2 0x11C3 SWAP1 PUSH2 0x6C81 JUMP JUMPDEST PUSH1 0x40 MLOAD DUP1 SWAP2 SUB SWAP1 REVERT JUMPDEST PUSH2 0x11D6 DUP6 DUP5 PUSH2 0x2A48 JUMP JUMPDEST POP POP POP POP POP POP POP POP JUMP JUMPDEST PUSH0 PUSH1 0x1 PUSH1 0x89 SLOAD SUB PUSH2 0x11F3 JUMPI PUSH0 SWAP1 POP PUSH2 0x124A JUMP JUMPDEST PUSH1 0x8E PUSH0 PUSH1 0x1 PUSH1 0x89 SLOAD PUSH2 0x1205 SWAP2 SWAP1 PUSH2 0x6CCC JUMP JUMPDEST DUP2 MSTORE PUSH1 0x20 ADD SWAP1 DUP2 MSTORE PUSH1 0x20 ADD PUSH0 KECCAK256 PUSH1 0x1 ADD SLOAD NUMBER LT ISZERO DUP1 ISZERO PUSH2 0x1247 JUMPI POP PUSH1 0x8E PUSH0 PUSH1 0x1 PUSH1 0x89 SLOAD PUSH2 0x1232 SWAP2 SWAP1 PUSH2 0x6CCC JUMP JUMPDEST DUP2 MSTORE PUSH1 0x20 ADD SWAP1 DUP2 MSTORE PUSH1 0x20 ADD PUSH0 KECCAK256 PUSH1 0x2 ADD SLOAD NUMBER GT ISZERO JUMPDEST SWAP1 POP JUMPDEST SWAP1 JUMP JUMPDEST PUSH0 PUSH2 0x129B PUSH1 0x8E PUSH0 DUP6 DUP2 MSTORE PUSH1 0x20 ADD SWAP1 DUP2 MSTORE PUSH1 0x20 ADD PUSH0 KECCAK256 PUSH1 0x5 ADD SLOAD PUSH2 0x128D DUP5 PUSH1 0x8E PUSH0 DUP9 DUP2 MSTORE PUSH1 0x20 ADD SWAP1 DUP2 MSTORE PUSH1 0x20 ADD PUSH0 KECCAK256 PUSH1 0x3 ADD SLOAD PUSH2 0x2B5A SWAP1 SWAP2 SWAP1 PUSH4 0xFFFFFFFF AND JUMP JUMPDEST PUSH2 0x2B6F SWAP1 SWAP2 SWAP1 PUSH4 0xFFFFFFFF AND JUMP JUMPDEST SWAP1 POP SWAP3 SWAP2 POP POP JUMP JUMPDEST PUSH0 PUSH2 0x12D3 PUSH3 0x186A0 PUSH2 0x12C5 PUSH1 0x64 PUSH4 0xFFFFFFFF AND DUP6 PUSH2 0x2B5A SWAP1 SWAP2 SWAP1 PUSH4 0xFFFFFFFF AND JUMP JUMPDEST PUSH2 0x2B6F SWAP1 SWAP2 SWAP1 PUSH4 0xFFFFFFFF AND JUMP JUMPDEST SWAP1 POP SWAP2 SWAP1 POP JUMP JUMPDEST PUSH0 DUP1 DUP6 GT DUP1 ISZERO PUSH2 0x12E9 JUMPI POP PUSH0 DUP5 GT JUMPDEST DUP1 ISZERO PUSH2 0x12FA JUMPI POP PUSH0 DUP4 PUSH4 0xFFFFFFFF AND GT JUMPDEST DUP1 ISZERO PUSH2 0x1315 JUMPI POP PUSH3 0xF4240 PUSH4 0xFFFFFFFF AND DUP4 PUSH4 0xFFFFFFFF AND GT ISZERO JUMPDEST PUSH2 0x1354 JUMPI PUSH1 0x40 MLOAD PUSH32 0x8C379A000000000000000000000000000000000000000000000000000000000 DUP2 MSTORE PUSH1 0x4 ADD PUSH2 0x134B SWAP1 PUSH2 0x6D49 JUMP JUMPDEST PUSH1 0x40 MLOAD DUP1 SWAP2 SUB SWAP1 REVERT JUMPDEST PUSH0 DUP3 SUB PUSH2 0x1363 JUMPI PUSH0 SWAP1 POP PUSH2 0x1403 JUMP JUMPDEST PUSH3 0xF4240 PUSH4 0xFFFFFFFF AND DUP4 PUSH4 0xFFFFFFFF AND SUB PUSH2 0x13A5 JUMPI PUSH2 0x139E DUP5 PUSH2 0x1390 DUP5 DUP9 PUSH2 0x2B5A SWAP1 SWAP2 SWAP1 PUSH4 0xFFFFFFFF AND JUMP JUMPDEST PUSH2 0x2B6F SWAP1 SWAP2 SWAP1 PUSH4 0xFFFFFFFF AND JUMP JUMPDEST SWAP1 POP PUSH2 0x1403 JUMP JUMPDEST PUSH0 DUP1 PUSH0 PUSH2 0x13BB DUP8 DUP7 PUSH2 0x2B84 SWAP1 SWAP2 SWAP1 PUSH4 0xFFFFFFFF AND JUMP JUMPDEST SWAP1 POP PUSH2 0x13CC DUP2 DUP9 DUP9 PUSH3 0xF4240 PUSH2 0x2B99 JUMP JUMPDEST DUP1 SWAP4 POP DUP2 SWAP5 POP POP POP PUSH0 DUP3 PUSH1 0xFF AND PUSH2 0x13EC DUP6 DUP12 PUSH2 0x2B5A SWAP1 SWAP2 SWAP1 PUSH4 0xFFFFFFFF AND JUMP JUMPDEST SWAP1 SHR SWAP1 POP DUP9 DUP2 PUSH2 0x13FC SWAP2 SWAP1 PUSH2 0x6CCC JUMP JUMPDEST SWAP5 POP POP POP POP POP JUMPDEST SWAP5 SWAP4 POP POP POP POP JUMP JUMPDEST PUSH1 0x91 PUSH0 SWAP1 SLOAD SWAP1 PUSH2 0x100 EXP SWAP1 DIV PUSH20 0xFFFFFFFFFFFFFFFFFFFFFFFFFFFFFFFFFFFFFFFF AND PUSH20 0xFFFFFFFFFFFFFFFFFFFFFFFFFFFFFFFFFFFFFFFF AND PUSH4 0x23B872DD PUSH2 0x1450 PUSH2 0x26B3 JUMP JUMPDEST ADDRESS DUP5 PUSH1 0x40 MLOAD DUP5 PUSH4 0xFFFFFFFF AND PUSH1 0xE0 SHL DUP2 MSTORE PUSH1 0x4 ADD PUSH2 0x1470 SWAP4 SWAP3 SWAP2 SWAP1 PUSH2 0x6BC3 JUMP JUMPDEST PUSH1 0x20 PUSH1 0x40 MLOAD DUP1 DUP4 SUB DUP2 PUSH0 DUP8 GAS CALL ISZERO DUP1 ISZERO PUSH2 0x148C JUMPI RETURNDATASIZE PUSH0 DUP1 RETURNDATACOPY RETURNDATASIZE PUSH0 REVERT JUMPDEST POP POP POP POP PUSH1 0x40 MLOAD RETURNDATASIZE PUSH1 0x1F NOT PUSH1 0x1F DUP3 ADD AND DUP3 ADD DUP1 PUSH1 0x40 MSTORE POP DUP2 ADD SWAP1 PUSH2 0x14B0 SWAP2 SWAP1 PUSH2 0x6C0C JUMP JUMPDEST PUSH2 0x14EF JUMPI PUSH1 0x40 MLOAD PUSH32 0x8C379A000000000000000000000000000000000000000000000000000000000 DUP2 MSTORE PUSH1 0x4 ADD PUSH2 0x14E6 SWAP1 PUSH2 0x6DB1 JUMP JUMPDEST PUSH1 0x40 MLOAD DUP1 SWAP2 SUB SWAP1 REVERT JUMPDEST PUSH2 0x14F8 DUP2 PUSH2 0x2D22 JUMP JUMPDEST POP JUMP JUMPDEST PUSH0 PUSH2 0x1504 PUSH2 0x26B3 JUMP JUMPDEST SWAP1 POP DUP1 PUSH20 0xFFFFFFFFFFFFFFFFFFFFFFFFFFFFFFFFFFFFFFFF AND DUP7 PUSH20 0xFFFFFFFFFFFFFFFFFFFFFFFFFFFFFFFFFFFFFFFF AND EQ ISZERO DUP1 ISZERO PUSH2 0x1549 JUMPI POP PUSH2 0x1547 DUP7 DUP3 PUSH2 0x2336 JUMP JUMPDEST ISZERO JUMPDEST ISZERO PUSH2 0x158D JUMPI DUP1 DUP7 PUSH1 0x40 MLOAD PUSH32 0xE237D92200000000000000000000000000000000000000000000000000000000 DUP2 MSTORE PUSH1 0x4 ADD PUSH2 0x1584 SWAP3 SWAP2 SWAP1 PUSH2 0x6DCF JUMP JUMPDEST PUSH1 0x40 MLOAD DUP1 SWAP2 SUB SWAP1 REVERT JUMPDEST PUSH2 0x159A DUP7 DUP7 DUP7 DUP7 DUP7 PUSH2 0x2D80 JUMP JUMPDEST POP POP POP POP POP POP JUMP JUMPDEST PUSH1 0x92 SLOAD DUP2 JUMP JUMPDEST PUSH0 DUP1 PUSH2 0x15B3 DUP4 PUSH2 0x12A3 JUMP JUMPDEST SWAP1 POP PUSH0 PUSH2 0x15C9 DUP3 DUP6 PUSH2 0x293B SWAP1 SWAP2 SWAP1 PUSH4 0xFFFFFFFF AND JUMP JUMPDEST SWAP1 POP PUSH2 0x15D5 DUP6 DUP3 PUSH2 0x1CA9 JUMP JUMPDEST SWAP3 POP POP POP SWAP3 SWAP2 POP POP JUMP JUMPDEST PUSH1 0x64 DUP2 JUMP JUMPDEST PUSH0 DUP1 DUP6 GT DUP1 ISZERO PUSH2 0x15F3 JUMPI POP PUSH0 DUP5 GT JUMPDEST DUP1 ISZERO PUSH2 0x1604 JUMPI POP PUSH0 DUP4 PUSH4 0xFFFFFFFF AND GT JUMPDEST DUP1 ISZERO PUSH2 0x161F JUMPI POP PUSH3 0xF4240 PUSH4 0xFFFFFFFF AND DUP4 PUSH4 0xFFFFFFFF AND GT ISZERO JUMPDEST DUP1 ISZERO PUSH2 0x162B JUMPI POP DUP5 DUP3 GT ISZERO JUMPDEST PUSH2 0x166A JUMPI PUSH1 0x40 MLOAD PUSH32 0x8C379A000000000000000000000000000000000000000000000000000000000 DUP2 MSTORE PUSH1 0x4 ADD PUSH2 0x1661 SWAP1 PUSH2 0x6D49 JUMP JUMPDEST PUSH1 0x40 MLOAD DUP1 SWAP2 SUB SWAP1 REVERT JUMPDEST PUSH0 DUP3 SUB PUSH2 0x1679 JUMPI PUSH0 SWAP1 POP PUSH2 0x173F JUMP JUMPDEST DUP5 DUP3 SUB PUSH2 0x1688 JUMPI DUP4 SWAP1 POP PUSH2 0x173F JUMP JUMPDEST PUSH3 0xF4240 PUSH4 0xFFFFFFFF AND DUP4 PUSH4 0xFFFFFFFF AND SUB PUSH2 0x16CA JUMPI PUSH2 0x16C3 DUP6 PUSH2 0x16B5 DUP5 DUP8 PUSH2 0x2B5A SWAP1 SWAP2 SWAP1 PUSH4 0xFFFFFFFF AND JUMP JUMPDEST PUSH2 0x2B6F SWAP1 SWAP2 SWAP1 PUSH4 0xFFFFFFFF AND JUMP JUMPDEST SWAP1 POP PUSH2 0x173F JUMP JUMPDEST PUSH0 DUP1 PUSH0 DUP5 DUP9 PUSH2 0x16D9 SWAP2 SWAP1 PUSH2 0x6CCC JUMP JUMPDEST SWAP1 POP PUSH2 0x16EA DUP9 DUP3 PUSH3 0xF4240 DUP10 PUSH2 0x2B99 JUMP JUMPDEST DUP1 SWAP4 POP DUP2 SWAP5 POP POP POP PUSH0 PUSH2 0x1706 DUP5 DUP10 PUSH2 0x2B5A SWAP1 SWAP2 SWAP1 PUSH4 0xFFFFFFFF AND JUMP JUMPDEST SWAP1 POP PUSH0 DUP4 PUSH1 0xFF AND DUP10 SWAP1 SHL SWAP1 POP PUSH2 0x1737 DUP6 PUSH2 0x1729 DUP4 DUP6 PUSH2 0x293B SWAP1 SWAP2 SWAP1 PUSH4 0xFFFFFFFF AND JUMP JUMPDEST PUSH2 0x2B6F SWAP1 SWAP2 SWAP1 PUSH4 0xFFFFFFFF AND JUMP JUMPDEST SWAP6 POP POP POP POP POP POP JUMPDEST SWAP5 SWAP4 POP POP POP POP JUMP JUMPDEST PUSH1 0x60 DUP2 MLOAD DUP4 MLOAD EQ PUSH2 0x1793 JUMPI DUP2 MLOAD DUP4 MLOAD PUSH1 0x40 MLOAD PUSH32 0x5B05999100000000000000000000000000000000000000000000000000000000 DUP2 MSTORE PUSH1 0x4 ADD PUSH2 0x178A SWAP3 SWAP2 SWAP1 PUSH2 0x6DF6 JUMP JUMPDEST PUSH1 0x40 MLOAD DUP1 SWAP2 SUB SWAP1 REVERT JUMPDEST PUSH0 DUP4 MLOAD PUSH8 0xFFFFFFFFFFFFFFFF DUP2 GT ISZERO PUSH2 0x17AF JUMPI PUSH2 0x17AE PUSH2 0x62E1 JUMP JUMPDEST JUMPDEST PUSH1 0x40 MLOAD SWAP1 DUP1 DUP3 MSTORE DUP1 PUSH1 0x20 MUL PUSH1 0x20 ADD DUP3 ADD PUSH1 0x40 MSTORE DUP1 ISZERO PUSH2 0x17DD JUMPI DUP2 PUSH1 0x20 ADD PUSH1 0x20 DUP3 MUL DUP1 CALLDATASIZE DUP4 CALLDATACOPY DUP1 DUP3 ADD SWAP2 POP POP SWAP1 POP JUMPDEST POP SWAP1 POP PUSH0 JUMPDEST DUP5 MLOAD DUP2 LT ISZERO PUSH2 0x1849 JUMPI PUSH2 0x1819 PUSH2 0x1801 DUP3 DUP8 PUSH2 0x2E74 SWAP1 SWAP2 SWAP1 PUSH4 0xFFFFFFFF AND JUMP JUMPDEST PUSH2 0x1814 DUP4 DUP8 PUSH2 0x2E87 SWAP1 SWAP2 SWAP1 PUSH4 0xFFFFFFFF AND JUMP JUMPDEST PUSH2 0xDBA JUMP JUMPDEST DUP3 DUP3 DUP2 MLOAD DUP2 LT PUSH2 0x182C JUMPI PUSH2 0x182B PUSH2 0x6E1D JUMP JUMPDEST JUMPDEST PUSH1 0x20 MUL PUSH1 0x20 ADD ADD DUP2 DUP2 MSTORE POP POP DUP1 PUSH2 0x1842 SWAP1 PUSH2 0x6E4A JUMP JUMPDEST SWAP1 POP PUSH2 0x17E2 JUMP JUMPDEST POP DUP1 SWAP2 POP POP SWAP3 SWAP2 POP POP JUMP JUMPDEST PUSH0 DUP1 PUSH2 0x185F DUP4 PUSH2 0x2214 JUMP JUMPDEST GT SWAP1 POP SWAP2 SWAP1 POP JUMP JUMPDEST PUSH1 0x8B SLOAD DUP2 JUMP JUMPDEST PUSH0 DUP1 SLOAD PUSH2 0x1879 SWAP1 PUSH2 0x6A70 JUMP JUMPDEST DUP1 PUSH1 0x1F ADD PUSH1 0x20 DUP1 SWAP2 DIV MUL PUSH1 0x20 ADD PUSH1 0x40 MLOAD SWAP1 DUP2 ADD PUSH1 0x40 MSTORE DUP1 SWAP3 SWAP2 SWAP1 DUP2 DUP2 MSTORE PUSH1 0x20 ADD DUP3 DUP1 SLOAD PUSH2 0x18A5 SWAP1 PUSH2 0x6A70 JUMP JUMPDEST DUP1 ISZERO PUSH2 0x18F0 JUMPI DUP1 PUSH1 0x1F LT PUSH2 0x18C7 JUMPI PUSH2 0x100 DUP1 DUP4 SLOAD DIV MUL DUP4 MSTORE SWAP2 PUSH1 0x20 ADD SWAP2 PUSH2 0x18F0 JUMP JUMPDEST DUP3 ADD SWAP2 SWAP1 PUSH0 MSTORE PUSH1 0x20 PUSH0 KECCAK256 SWAP1 JUMPDEST DUP2 SLOAD DUP2 MSTORE SWAP1 PUSH1 0x1 ADD SWAP1 PUSH1 0x20 ADD DUP1 DUP4 GT PUSH2 0x18D3 JUMPI DUP3 SWAP1 SUB PUSH1 0x1F AND DUP3 ADD SWAP2 JUMPDEST POP POP POP POP POP DUP2 JUMP JUMPDEST PUSH0 PUSH2 0x1901 PUSH2 0x11E0 JUMP JUMPDEST PUSH2 0x1940 JUMPI PUSH1 0x40 MLOAD PUSH32 0x8C379A000000000000000000000000000000000000000000000000000000000 DUP2 MSTORE PUSH1 0x4 ADD PUSH2 0x1937 SWAP1 PUSH2 0x6EDB JUMP JUMPDEST PUSH1 0x40 MLOAD DUP1 SWAP2 SUB SWAP1 REVERT JUMPDEST PUSH1 0x1 PUSH1 0x89 SLOAD PUSH2 0x194F SWAP2 SWAP1 PUSH2 0x6CCC JUMP JUMPDEST SWAP1 POP SWAP1 JUMP JUMPDEST PUSH0 DUP1 PUSH1 0x8E PUSH0 DUP5 DUP2 MSTORE PUSH1 0x20 ADD SWAP1 DUP2 MSTORE PUSH1 0x20 ADD PUSH0 KECCAK256 PUSH1 0x6 ADD PUSH0 SWAP1 SLOAD SWAP1 PUSH2 0x100 EXP SWAP1 DIV PUSH1 0xFF AND ISZERO PUSH2 0x199C JUMPI PUSH1 0x1 PUSH1 0x8E PUSH0 DUP6 DUP2 MSTORE PUSH1 0x20 ADD SWAP1 DUP2 MSTORE PUSH1 0x20 ADD PUSH0 KECCAK256 PUSH1 0x4 ADD SLOAD SWAP2 POP SWAP2 POP PUSH2 0x1B2C JUMP JUMPDEST PUSH0 DUP1 PUSH1 0x8C PUSH0 SWAP1 SLOAD SWAP1 PUSH2 0x100 EXP SWAP1 DIV PUSH20 0xFFFFFFFFFFFFFFFFFFFFFFFFFFFFFFFFFFFFFFFF AND PUSH20 0xFFFFFFFFFFFFFFFFFFFFFFFFFFFFFFFFFFFFFFFF AND PUSH4 0x6B53F42A DUP7 PUSH1 0x40 MLOAD DUP3 PUSH4 0xFFFFFFFF AND PUSH1 0xE0 SHL DUP2 MSTORE PUSH1 0x4 ADD PUSH2 0x19F8 SWAP2 SWAP1 PUSH2 0x6001 JUMP JUMPDEST PUSH1 0x40 DUP1 MLOAD DUP1 DUP4 SUB DUP2 DUP7 GAS STATICCALL ISZERO DUP1 ISZERO PUSH2 0x1A12 JUMPI RETURNDATASIZE PUSH0 DUP1 RETURNDATACOPY RETURNDATASIZE PUSH0 REVERT JUMPDEST POP POP POP POP PUSH1 0x40 MLOAD RETURNDATASIZE PUSH1 0x1F NOT PUSH1 0x1F DUP3 ADD AND DUP3 ADD DUP1 PUSH1 0x40 MSTORE POP DUP2 ADD SWAP1 PUSH2 0x1A36 SWAP2 SWAP1 PUSH2 0x6F0D JUMP JUMPDEST SWAP2 POP SWAP2 POP DUP1 ISZERO PUSH2 0x1B23 JUMPI PUSH1 0x1 PUSH1 0x8E PUSH0 DUP8 DUP2 MSTORE PUSH1 0x20 ADD SWAP1 DUP2 MSTORE PUSH1 0x20 ADD PUSH0 KECCAK256 PUSH1 0x6 ADD PUSH0 PUSH2 0x100 EXP DUP2 SLOAD DUP2 PUSH1 0xFF MUL NOT AND SWAP1 DUP4 ISZERO ISZERO MUL OR SWAP1 SSTORE POP DUP2 PUSH1 0x8E PUSH0 DUP8 DUP2 MSTORE PUSH1 0x20 ADD SWAP1 DUP2 MSTORE PUSH1 0x20 ADD PUSH0 KECCAK256 PUSH1 0x4 ADD DUP2 SWAP1 SSTORE POP ADDRESS PUSH20 0xFFFFFFFFFFFFFFFFFFFFFFFFFFFFFFFFFFFFFFFF AND PUSH4 0xBD85B039 DUP4 PUSH1 0x40 MLOAD DUP3 PUSH4 0xFFFFFFFF AND PUSH1 0xE0 SHL DUP2 MSTORE PUSH1 0x4 ADD PUSH2 0x1ABE SWAP2 SWAP1 PUSH2 0x6001 JUMP JUMPDEST PUSH1 0x20 PUSH1 0x40 MLOAD DUP1 DUP4 SUB DUP2 DUP7 GAS STATICCALL ISZERO DUP1 ISZERO PUSH2 0x1AD9 JUMPI RETURNDATASIZE PUSH0 DUP1 RETURNDATACOPY RETURNDATASIZE PUSH0 REVERT JUMPDEST POP POP POP POP PUSH1 0x40 MLOAD RETURNDATASIZE PUSH1 0x1F NOT PUSH1 0x1F DUP3 ADD AND DUP3 ADD DUP1 PUSH1 0x40 MSTORE POP DUP2 ADD SWAP1 PUSH2 0x1AFD SWAP2 SWAP1 PUSH2 0x6F4B JUMP JUMPDEST PUSH1 0x8E PUSH0 DUP8 DUP2 MSTORE PUSH1 0x20 ADD SWAP1 DUP2 MSTORE PUSH1 0x20 ADD PUSH0 KECCAK256 PUSH1 0x5 ADD DUP2 SWAP1 SSTORE POP PUSH1 0x1 DUP3 SWAP4 POP SWAP4 POP POP POP PUSH2 0x1B2C JUMP JUMPDEST PUSH0 DUP1 SWAP4 POP SWAP4 POP POP POP JUMPDEST SWAP2 POP SWAP2 JUMP JUMPDEST PUSH2 0x1B39 PUSH2 0x2E9A JUMP JUMPDEST DUP1 PUSH1 0x8B DUP2 SWAP1 SSTORE POP POP JUMP JUMPDEST PUSH0 DUP1 PUSH2 0x1B4F DUP5 DUP5 PUSH2 0x23D0 JUMP JUMPDEST SWAP1 POP PUSH0 PUSH2 0x1B5B DUP3 PUSH2 0x12A3 JUMP JUMPDEST SWAP1 POP PUSH2 0x1B70 DUP2 DUP4 PUSH2 0x293B SWAP1 SWAP2 SWAP1 PUSH4 0xFFFFFFFF AND JUMP JUMPDEST SWAP3 POP POP POP SWAP3 SWAP2 POP POP JUMP JUMPDEST PUSH2 0x1B82 PUSH2 0x2E9A JUMP JUMPDEST PUSH2 0x1B8B PUSH0 PUSH2 0x2F21 JUMP JUMPDEST JUMP JUMPDEST PUSH0 PUSH2 0x1B99 PUSH1 0x90 SLOAD PUSH2 0x2FE4 JUMP JUMPDEST SWAP1 POP SWAP1 JUMP JUMPDEST PUSH0 PUSH1 0x8F PUSH0 DUP4 PUSH20 0xFFFFFFFFFFFFFFFFFFFFFFFFFFFFFFFFFFFFFFFF AND PUSH20 0xFFFFFFFFFFFFFFFFFFFFFFFFFFFFFFFFFFFFFFFF AND DUP2 MSTORE PUSH1 0x20 ADD SWAP1 DUP2 MSTORE PUSH1 0x20 ADD PUSH0 KECCAK256 PUSH1 0x1 ADD SLOAD SWAP1 POP SWAP2 SWAP1 POP JUMP JUMPDEST PUSH0 DUP2 PUSH1 0x8D PUSH0 DUP6 PUSH20 0xFFFFFFFFFFFFFFFFFFFFFFFFFFFFFFFFFFFFFFFF AND PUSH20 0xFFFFFFFFFFFFFFFFFFFFFFFFFFFFFFFFFFFFFFFF AND DUP2 MSTORE PUSH1 0x20 ADD SWAP1 DUP2 MSTORE PUSH1 0x20 ADD PUSH0 KECCAK256 SLOAD EQ SWAP1 POP SWAP3 SWAP2 POP POP JUMP JUMPDEST PUSH0 PUSH2 0x1C5B PUSH3 0x186A0 PUSH2 0x1C4D PUSH1 0x8B SLOAD DUP6 PUSH2 0x2B5A SWAP1 SWAP2 SWAP1 PUSH4 0xFFFFFFFF AND JUMP JUMPDEST PUSH2 0x2B6F SWAP1 SWAP2 SWAP1 PUSH4 0xFFFFFFFF AND JUMP JUMPDEST SWAP1 POP SWAP2 SWAP1 POP JUMP JUMPDEST PUSH0 PUSH1 0x90 SLOAD SWAP1 POP SWAP1 JUMP JUMPDEST PUSH0 PUSH1 0x88 PUSH0 SWAP1 SLOAD SWAP1 PUSH2 0x100 EXP SWAP1 DIV PUSH20 0xFFFFFFFFFFFFFFFFFFFFFFFFFFFFFFFFFFFFFFFF AND SWAP1 POP SWAP1 JUMP JUMPDEST PUSH2 0x1CA5 PUSH2 0x1C9E PUSH2 0x26B3 JUMP JUMPDEST DUP4 DUP4 PUSH2 0x312E JUMP JUMPDEST POP POP JUMP JUMPDEST PUSH0 PUSH2 0x1CD1 PUSH2 0x1CB6 DUP5 PUSH2 0x2214 JUMP JUMPDEST PUSH1 0x86 PUSH0 DUP7 DUP2 MSTORE PUSH1 0x20 ADD SWAP1 DUP2 MSTORE PUSH1 0x20 ADD PUSH0 KECCAK256 SLOAD PUSH1 0x87 SLOAD DUP6 PUSH2 0x12DA JUMP JUMPDEST SWAP1 POP SWAP3 SWAP2 POP POP JUMP JUMPDEST PUSH1 0x90 SLOAD DUP3 LT PUSH2 0x1D1D JUMPI PUSH1 0x40 MLOAD PUSH32 0x8C379A000000000000000000000000000000000000000000000000000000000 DUP2 MSTORE PUSH1 0x4 ADD PUSH2 0x1D14 SWAP1 PUSH2 0x6AEA JUMP JUMPDEST PUSH1 0x40 MLOAD DUP1 SWAP2 SUB SWAP1 REVERT JUMPDEST PUSH0 DUP1 PUSH1 0x60 PUSH0 PUSH2 0x1D32 PUSH2 0x1D2D PUSH2 0x26B3 JUMP JUMPDEST PUSH2 0x26BA JUMP JUMPDEST DUP1 SWAP5 POP DUP2 SWAP6 POP DUP3 SWAP7 POP DUP4 SWAP8 POP POP POP POP POP PUSH1 0x4 PUSH1 0x5 DUP2 GT ISZERO PUSH2 0x1D56 JUMPI PUSH2 0x1D55 PUSH2 0x6B08 JUMP JUMPDEST JUMPDEST DUP4 PUSH1 0x5 DUP2 GT ISZERO PUSH2 0x1D69 JUMPI PUSH2 0x1D68 PUSH2 0x6B08 JUMP JUMPDEST JUMPDEST SUB PUSH2 0x1DA9 JUMPI PUSH1 0x40 MLOAD PUSH32 0x8C379A000000000000000000000000000000000000000000000000000000000 DUP2 MSTORE PUSH1 0x4 ADD PUSH2 0x1DA0 SWAP1 PUSH2 0x6BA5 JUMP JUMPDEST PUSH1 0x40 MLOAD DUP1 SWAP2 SUB SWAP1 REVERT JUMPDEST PUSH0 PUSH2 0x1DB4 DUP8 DUP8 PUSH2 0x3297 JUMP JUMPDEST SWAP1 POP PUSH0 PUSH2 0x1DC0 DUP3 PUSH2 0x290F JUMP JUMPDEST SWAP1 POP PUSH0 PUSH2 0x1DD6 DUP3 DUP5 PUSH2 0x293B SWAP1 SWAP2 SWAP1 PUSH4 0xFFFFFFFF AND JUMP JUMPDEST SWAP1 POP PUSH2 0x1DE2 DUP7 DUP6 PUSH2 0x2A48 JUMP JUMPDEST PUSH1 0x91 PUSH0 SWAP1 SLOAD SWAP1 PUSH2 0x100 EXP SWAP1 DIV PUSH20 0xFFFFFFFFFFFFFFFFFFFFFFFFFFFFFFFFFFFFFFFF AND PUSH20 0xFFFFFFFFFFFFFFFFFFFFFFFFFFFFFFFFFFFFFFFF AND PUSH4 0xA9059CBB PUSH2 0x1E27 PUSH2 0x26B3 JUMP JUMPDEST DUP4 PUSH1 0x40 MLOAD DUP4 PUSH4 0xFFFFFFFF AND PUSH1 0xE0 SHL DUP2 MSTORE PUSH1 0x4 ADD PUSH2 0x1E45 SWAP3 SWAP2 SWAP1 PUSH2 0x6F76 JUMP JUMPDEST PUSH1 0x20 PUSH1 0x40 MLOAD DUP1 DUP4 SUB DUP2 PUSH0 DUP8 GAS CALL ISZERO DUP1 ISZERO PUSH2 0x1E61 JUMPI RETURNDATASIZE PUSH0 DUP1 RETURNDATACOPY RETURNDATASIZE PUSH0 REVERT JUMPDEST POP POP POP POP PUSH1 0x40 MLOAD RETURNDATASIZE PUSH1 0x1F NOT PUSH1 0x1F DUP3 ADD AND DUP3 ADD DUP1 PUSH1 0x40 MSTORE POP DUP2 ADD SWAP1 PUSH2 0x1E85 SWAP2 SWAP1 PUSH2 0x6C0C JUMP JUMPDEST PUSH2 0x1EC4 JUMPI PUSH1 0x40 MLOAD PUSH32 0x8C379A000000000000000000000000000000000000000000000000000000000 DUP2 MSTORE PUSH1 0x4 ADD PUSH2 0x1EBB SWAP1 PUSH2 0x6C81 JUMP JUMPDEST PUSH1 0x40 MLOAD DUP1 SWAP2 SUB SWAP1 REVERT JUMPDEST POP POP POP POP POP POP POP POP POP JUMP JUMPDEST PUSH2 0x1ED8 DUP2 PUSH2 0x22AC JUMP JUMPDEST PUSH2 0x1F17 JUMPI PUSH1 0x40 MLOAD PUSH32 0x8C379A000000000000000000000000000000000000000000000000000000000 DUP2 MSTORE PUSH1 0x4 ADD PUSH2 0x1F0E SWAP1 PUSH2 0x6FE7 JUMP JUMPDEST PUSH1 0x40 MLOAD DUP1 SWAP2 SUB SWAP1 REVERT JUMPDEST PUSH2 0x1F20 DUP2 PUSH2 0x25EE JUMP JUMPDEST ISZERO PUSH2 0x1F60 JUMPI PUSH1 0x40 MLOAD PUSH32 0x8C379A000000000000000000000000000000000000000000000000000000000 DUP2 MSTORE PUSH1 0x4 ADD PUSH2 0x1F57 SWAP1 PUSH2 0x704F JUMP JUMPDEST PUSH1 0x40 MLOAD DUP1 SWAP2 SUB SWAP1 REVERT JUMPDEST PUSH0 PUSH2 0x1F6A DUP3 PUSH2 0x1B9E JUMP JUMPDEST SWAP1 POP PUSH2 0x1F75 DUP3 PUSH2 0x33D5 JUMP JUMPDEST PUSH1 0x91 PUSH0 SWAP1 SLOAD SWAP1 PUSH2 0x100 EXP SWAP1 DIV PUSH20 0xFFFFFFFFFFFFFFFFFFFFFFFFFFFFFFFFFFFFFFFF AND PUSH20 0xFFFFFFFFFFFFFFFFFFFFFFFFFFFFFFFFFFFFFFFF AND PUSH4 0xA9059CBB DUP4 DUP4 PUSH1 0x40 MLOAD DUP4 PUSH4 0xFFFFFFFF AND PUSH1 0xE0 SHL DUP2 MSTORE PUSH1 0x4 ADD PUSH2 0x1FD1 SWAP3 SWAP2 SWAP1 PUSH2 0x6F76 JUMP JUMPDEST PUSH1 0x20 PUSH1 0x40 MLOAD DUP1 DUP4 SUB DUP2 PUSH0 DUP8 GAS CALL ISZERO DUP1 ISZERO PUSH2 0x1FED JUMPI RETURNDATASIZE PUSH0 DUP1 RETURNDATACOPY RETURNDATASIZE PUSH0 REVERT JUMPDEST POP POP POP POP PUSH1 0x40 MLOAD RETURNDATASIZE PUSH1 0x1F NOT PUSH1 0x1F DUP3 ADD AND DUP3 ADD DUP1 PUSH1 0x40 MSTORE POP DUP2 ADD SWAP1 PUSH2 0x2011 SWAP2 SWAP1 PUSH2 0x6C0C JUMP JUMPDEST PUSH2 0x2050 JUMPI PUSH1 0x40 MLOAD PUSH32 0x8C379A000000000000000000000000000000000000000000000000000000000 DUP2 MSTORE PUSH1 0x4 ADD PUSH2 0x2047 SWAP1 PUSH2 0x6C81 JUMP JUMPDEST PUSH1 0x40 MLOAD DUP1 SWAP2 SUB SWAP1 REVERT JUMPDEST POP POP JUMP JUMPDEST PUSH0 PUSH2 0x205D PUSH2 0x2E9A JUMP JUMPDEST PUSH1 0x91 PUSH0 SWAP1 SLOAD SWAP1 PUSH2 0x100 EXP SWAP1 DIV PUSH20 0xFFFFFFFFFFFFFFFFFFFFFFFFFFFFFFFFFFFFFFFF AND PUSH20 0xFFFFFFFFFFFFFFFFFFFFFFFFFFFFFFFFFFFFFFFF AND PUSH4 0x23B872DD PUSH2 0x20A2 PUSH2 0x26B3 JUMP JUMPDEST ADDRESS PUSH8 0xDE0B6B3A7640000 PUSH1 0x1 PUSH2 0x20B8 SWAP2 SWAP1 PUSH2 0x706D JUMP JUMPDEST PUSH1 0x40 MLOAD DUP5 PUSH4 0xFFFFFFFF AND PUSH1 0xE0 SHL DUP2 MSTORE PUSH1 0x4 ADD PUSH2 0x20D6 SWAP4 SWAP3 SWAP2 SWAP1 PUSH2 0x6BC3 JUMP JUMPDEST PUSH1 0x20 PUSH1 0x40 MLOAD DUP1 DUP4 SUB DUP2 PUSH0 DUP8 GAS CALL ISZERO DUP1 ISZERO PUSH2 0x20F2 JUMPI RETURNDATASIZE PUSH0 DUP1 RETURNDATACOPY RETURNDATASIZE PUSH0 REVERT JUMPDEST POP POP POP POP PUSH1 0x40 MLOAD RETURNDATASIZE PUSH1 0x1F NOT PUSH1 0x1F DUP3 ADD AND DUP3 ADD DUP1 PUSH1 0x40 MSTORE POP DUP2 ADD SWAP1 PUSH2 0x2116 SWAP2 SWAP1 PUSH2 0x6C0C JUMP JUMPDEST PUSH2 0x2155 JUMPI PUSH1 0x40 MLOAD PUSH32 0x8C379A000000000000000000000000000000000000000000000000000000000 DUP2 MSTORE PUSH1 0x4 ADD PUSH2 0x214C SWAP1 PUSH2 0x6C81 JUMP JUMPDEST PUSH1 0x40 MLOAD DUP1 SWAP2 SUB SWAP1 REVERT JUMPDEST PUSH0 PUSH1 0x90 PUSH0 DUP2 SLOAD DUP1 SWAP3 SWAP2 SWAP1 PUSH2 0x2168 SWAP1 PUSH2 0x6E4A JUMP JUMPDEST SWAP2 SWAP1 POP SSTORE SWAP1 POP PUSH8 0xDE0B6B3A7640000 PUSH1 0x1 PUSH2 0x2183 SWAP2 SWAP1 PUSH2 0x706D JUMP JUMPDEST PUSH1 0x86 PUSH0 DUP4 DUP2 MSTORE PUSH1 0x20 ADD SWAP1 DUP2 MSTORE PUSH1 0x20 ADD PUSH0 KECCAK256 DUP2 SWAP1 SSTORE POP PUSH2 0x21CD PUSH2 0x21A3 PUSH2 0x26B3 JUMP JUMPDEST DUP3 PUSH8 0xDE0B6B3A7640000 PUSH1 0x1 PUSH2 0x21B9 SWAP2 SWAP1 PUSH2 0x706D JUMP JUMPDEST PUSH1 0x40 MLOAD DUP1 PUSH1 0x20 ADD PUSH1 0x40 MSTORE DUP1 PUSH0 DUP2 MSTORE POP PUSH2 0x35CA JUMP JUMPDEST PUSH32 0xB4C396A88FCA8D5D15002A1D24B003A4AAF4816B8237E6663B60AF02DB9C79B4 PUSH2 0x21F6 PUSH2 0x26B3 JUMP JUMPDEST DUP3 PUSH1 0x40 MLOAD PUSH2 0x2205 SWAP3 SWAP2 SWAP1 PUSH2 0x6F76 JUMP JUMPDEST PUSH1 0x40 MLOAD DUP1 SWAP2 SUB SWAP1 LOG1 DUP1 SWAP2 POP POP SWAP1 JUMP JUMPDEST PUSH0 PUSH1 0x84 PUSH0 DUP4 DUP2 MSTORE PUSH1 0x20 ADD SWAP1 DUP2 MSTORE PUSH1 0x20 ADD PUSH0 KECCAK256 SLOAD SWAP1 POP SWAP2 SWAP1 POP JUMP JUMPDEST PUSH2 0x2236 PUSH2 0x2E9A JUMP JUMPDEST PUSH2 0x2241 DUP4 DUP4 DUP4 PUSH2 0x365F JUMP JUMPDEST POP POP POP JUMP JUMPDEST PUSH1 0x8D PUSH1 0x20 MSTORE DUP1 PUSH0 MSTORE PUSH1 0x40 PUSH0 KECCAK256 PUSH0 SWAP2 POP SWAP1 POP SLOAD DUP2 JUMP JUMPDEST PUSH1 0x8A SLOAD DUP2 JUMP JUMPDEST PUSH0 DUP1 PUSH1 0x8F PUSH0 DUP5 PUSH20 0xFFFFFFFFFFFFFFFFFFFFFFFFFFFFFFFFFFFFFFFF AND PUSH20 0xFFFFFFFFFFFFFFFFFFFFFFFFFFFFFFFFFFFFFFFF AND DUP2 MSTORE PUSH1 0x20 ADD SWAP1 DUP2 MSTORE PUSH1 0x20 ADD PUSH0 KECCAK256 PUSH1 0x1 ADD SLOAD EQ SWAP1 POP SWAP2 SWAP1 POP JUMP JUMPDEST PUSH0 DUP1 PUSH1 0x8F PUSH0 DUP5 PUSH20 0xFFFFFFFFFFFFFFFFFFFFFFFFFFFFFFFFFFFFFFFF AND PUSH20 0xFFFFFFFFFFFFFFFFFFFFFFFFFFFFFFFFFFFFFFFF AND DUP2 MSTORE PUSH1 0x20 ADD SWAP1 DUP2 MSTORE PUSH1 0x20 ADD PUSH0 KECCAK256 PUSH1 0x1 ADD SLOAD EQ ISZERO SWAP1 POP SWAP2 SWAP1 POP JUMP JUMPDEST PUSH0 PUSH1 0x1 PUSH1 0x89 SLOAD SUB PUSH2 0x230B JUMPI PUSH0 SWAP1 POP PUSH2 0x2333 JUMP JUMPDEST PUSH1 0x8E PUSH0 PUSH1 0x1 PUSH1 0x89 SLOAD PUSH2 0x231D SWAP2 SWAP1 PUSH2 0x6CCC JUMP JUMPDEST DUP2 MSTORE PUSH1 0x20 ADD SWAP1 DUP2 MSTORE PUSH1 0x20 ADD PUSH0 KECCAK256 PUSH1 0x1 ADD SLOAD NUMBER LT SWAP1 POP JUMPDEST SWAP1 JUMP JUMPDEST PUSH0 PUSH1 0x82 PUSH0 DUP5 PUSH20 0xFFFFFFFFFFFFFFFFFFFFFFFFFFFFFFFFFFFFFFFF AND PUSH20 0xFFFFFFFFFFFFFFFFFFFFFFFFFFFFFFFFFFFFFFFF AND DUP2 MSTORE PUSH1 0x20 ADD SWAP1 DUP2 MSTORE PUSH1 0x20 ADD PUSH0 KECCAK256 PUSH0 DUP4 PUSH20 0xFFFFFFFFFFFFFFFFFFFFFFFFFFFFFFFFFFFFFFFF AND PUSH20 0xFFFFFFFFFFFFFFFFFFFFFFFFFFFFFFFFFFFFFFFF AND DUP2 MSTORE PUSH1 0x20 ADD SWAP1 DUP2 MSTORE PUSH1 0x20 ADD PUSH0 KECCAK256 PUSH0 SWAP1 SLOAD SWAP1 PUSH2 0x100 EXP SWAP1 DIV PUSH1 0xFF AND SWAP1 POP SWAP3 SWAP2 POP POP JUMP JUMPDEST PUSH8 0xDE0B6B3A7640000 DUP2 JUMP JUMPDEST PUSH0 PUSH2 0x23F8 PUSH2 0x23DD DUP5 PUSH2 0x2214 JUMP JUMPDEST PUSH1 0x86 PUSH0 DUP7 DUP2 MSTORE PUSH1 0x20 ADD SWAP1 DUP2 MSTORE PUSH1 0x20 ADD PUSH0 KECCAK256 SLOAD PUSH1 0x87 SLOAD DUP6 PUSH2 0x15E4 JUMP JUMPDEST SWAP1 POP SWAP3 SWAP2 POP POP JUMP JUMPDEST PUSH0 DUP1 PUSH1 0x60 PUSH0 PUSH2 0x240E DUP6 PUSH2 0x26BA JUMP JUMPDEST DUP1 SWAP5 POP DUP2 SWAP6 POP DUP3 SWAP7 POP DUP4 SWAP8 POP POP POP POP POP PUSH2 0x2428 DUP4 DUP3 PUSH2 0x2A48 JUMP JUMPDEST DUP4 DUP3 SWAP1 PUSH2 0x246B JUMPI PUSH1 0x40 MLOAD PUSH32 0x8C379A000000000000000000000000000000000000000000000000000000000 DUP2 MSTORE PUSH1 0x4 ADD PUSH2 0x2462 SWAP2 SWAP1 PUSH2 0x61E2 JUMP JUMPDEST PUSH1 0x40 MLOAD DUP1 SWAP2 SUB SWAP1 REVERT JUMPDEST POP POP POP POP POP POP JUMP JUMPDEST PUSH1 0x89 SLOAD DUP2 JUMP JUMPDEST PUSH0 PUSH2 0x2482 PUSH2 0x26B3 JUMP JUMPDEST SWAP1 POP DUP1 PUSH20 0xFFFFFFFFFFFFFFFFFFFFFFFFFFFFFFFFFFFFFFFF AND DUP7 PUSH20 0xFFFFFFFFFFFFFFFFFFFFFFFFFFFFFFFFFFFFFFFF AND EQ ISZERO DUP1 ISZERO PUSH2 0x24C7 JUMPI POP PUSH2 0x24C5 DUP7 DUP3 PUSH2 0x2336 JUMP JUMPDEST ISZERO JUMPDEST ISZERO PUSH2 0x250B JUMPI DUP1 DUP7 PUSH1 0x40 MLOAD PUSH32 0xE237D92200000000000000000000000000000000000000000000000000000000 DUP2 MSTORE PUSH1 0x4 ADD PUSH2 0x2502 SWAP3 SWAP2 SWAP1 PUSH2 0x6DCF JUMP JUMPDEST PUSH1 0x40 MLOAD DUP1 SWAP2 SUB SWAP1 REVERT JUMPDEST PUSH2 0x2518 DUP7 DUP7 DUP7 DUP7 DUP7 PUSH2 0x3984 JUMP JUMPDEST POP POP POP POP POP POP JUMP JUMPDEST PUSH2 0x2528 PUSH2 0x2E9A JUMP JUMPDEST PUSH0 PUSH20 0xFFFFFFFFFFFFFFFFFFFFFFFFFFFFFFFFFFFFFFFF AND DUP2 PUSH20 0xFFFFFFFFFFFFFFFFFFFFFFFFFFFFFFFFFFFFFFFF AND SUB PUSH2 0x2598 JUMPI PUSH0 PUSH1 0x40 MLOAD PUSH32 0x1E4FBDF700000000000000000000000000000000000000000000000000000000 DUP2 MSTORE PUSH1 0x4 ADD PUSH2 0x258F SWAP2 SWAP1 PUSH2 0x6834 JUMP JUMPDEST PUSH1 0x40 MLOAD DUP1 SWAP2 SUB SWAP1 REVERT JUMPDEST PUSH2 0x25A1 DUP2 PUSH2 0x2F21 JUMP JUMPDEST POP JUMP JUMPDEST PUSH1 0x8E PUSH1 0x20 MSTORE DUP1 PUSH0 MSTORE PUSH1 0x40 PUSH0 KECCAK256 PUSH0 SWAP2 POP SWAP1 POP DUP1 PUSH0 ADD SLOAD SWAP1 DUP1 PUSH1 0x1 ADD SLOAD SWAP1 DUP1 PUSH1 0x2 ADD SLOAD SWAP1 DUP1 PUSH1 0x3 ADD SLOAD SWAP1 DUP1 PUSH1 0x4 ADD SLOAD SWAP1 DUP1 PUSH1 0x5 ADD SLOAD SWAP1 DUP1 PUSH1 0x6 ADD PUSH0 SWAP1 SLOAD SWAP1 PUSH2 0x100 EXP SWAP1 DIV PUSH1 0xFF AND SWAP1 POP DUP8 JUMP JUMPDEST PUSH0 PUSH1 0x1 ISZERO ISZERO PUSH1 0x8F PUSH0 DUP5 PUSH20 0xFFFFFFFFFFFFFFFFFFFFFFFFFFFFFFFFFFFFFFFF AND PUSH20 0xFFFFFFFFFFFFFFFFFFFFFFFFFFFFFFFFFFFFFFFF AND DUP2 MSTORE PUSH1 0x20 ADD SWAP1 DUP2 MSTORE PUSH1 0x20 ADD PUSH0 KECCAK256 PUSH1 0x2 ADD PUSH0 SWAP1 SLOAD SWAP1 PUSH2 0x100 EXP SWAP1 DIV PUSH1 0xFF AND ISZERO ISZERO EQ SWAP1 POP SWAP2 SWAP1 POP JUMP JUMPDEST PUSH0 PUSH32 0x1FFC9A700000000000000000000000000000000000000000000000000000000 PUSH28 0xFFFFFFFFFFFFFFFFFFFFFFFFFFFFFFFFFFFFFFFFFFFFFFFFFFFFFFFF NOT AND DUP3 PUSH28 0xFFFFFFFFFFFFFFFFFFFFFFFFFFFFFFFFFFFFFFFFFFFFFFFFFFFFFFFF NOT AND EQ SWAP1 POP SWAP2 SWAP1 POP JUMP JUMPDEST PUSH0 CALLER SWAP1 POP SWAP1 JUMP JUMPDEST PUSH0 DUP1 PUSH1 0x60 PUSH0 PUSH2 0x26C7 PUSH2 0x11E0 JUMP JUMPDEST PUSH2 0x2712 JUMPI PUSH0 DUP1 PUSH0 PUSH1 0x40 MLOAD DUP1 PUSH1 0x40 ADD PUSH1 0x40 MSTORE DUP1 PUSH1 0x12 DUP2 MSTORE PUSH1 0x20 ADD PUSH32 0x4E6F206163746976652072657761726473210000000000000000000000000000 DUP2 MSTORE POP SWAP1 SWAP4 POP SWAP4 POP SWAP4 POP SWAP4 POP PUSH2 0x28A1 JUMP JUMPDEST PUSH0 PUSH2 0x271B PUSH2 0x18F8 JUMP JUMPDEST SWAP1 POP PUSH2 0x2727 DUP7 DUP3 PUSH2 0x1BE7 JUMP JUMPDEST ISZERO PUSH2 0x2775 JUMPI PUSH0 PUSH1 0x1 PUSH0 PUSH1 0x40 MLOAD DUP1 PUSH1 0x40 ADD PUSH1 0x40 MSTORE DUP1 PUSH1 0x17 DUP2 MSTORE PUSH1 0x20 ADD PUSH32 0x52657761726420616C726561647920636C61696D656421000000000000000000 DUP2 MSTORE POP SWAP1 SWAP5 POP SWAP5 POP SWAP5 POP SWAP5 POP POP PUSH2 0x28A1 JUMP JUMPDEST PUSH0 DUP1 PUSH2 0x2780 DUP4 PUSH2 0x1954 JUMP JUMPDEST SWAP2 POP SWAP2 POP DUP2 PUSH2 0x27D4 JUMPI PUSH0 PUSH1 0x4 PUSH0 PUSH1 0x40 MLOAD DUP1 PUSH1 0x40 ADD PUSH1 0x40 MSTORE DUP1 PUSH1 0x20 DUP2 MSTORE PUSH1 0x20 ADD PUSH32 0x52657761726465642063656C6562206964206E6F7420617661696C61626C6521 DUP2 MSTORE POP SWAP1 SWAP7 POP SWAP7 POP SWAP7 POP SWAP7 POP POP POP POP PUSH2 0x28A1 JUMP JUMPDEST PUSH0 PUSH2 0x27DF DUP10 DUP4 PUSH2 0xDBA JUMP JUMPDEST SWAP1 POP PUSH0 DUP2 SUB PUSH2 0x283F JUMPI PUSH2 0x27F3 DUP10 DUP6 PUSH0 PUSH2 0x3A8A JUMP JUMPDEST PUSH0 PUSH1 0x2 PUSH0 PUSH1 0x40 MLOAD DUP1 PUSH1 0x40 ADD PUSH1 0x40 MSTORE DUP1 PUSH1 0x18 DUP2 MSTORE PUSH1 0x20 ADD PUSH32 0x4E6F7420656C696769626C6520666F7220726577617264210000000000000000 DUP2 MSTORE POP SWAP1 SWAP8 POP SWAP8 POP SWAP8 POP SWAP8 POP POP POP POP POP PUSH2 0x28A1 JUMP JUMPDEST PUSH0 PUSH2 0x284A DUP6 DUP4 PUSH2 0x124D JUMP JUMPDEST SWAP1 POP PUSH2 0x2857 DUP11 DUP7 DUP4 PUSH2 0x3A8A JUMP JUMPDEST PUSH1 0x1 PUSH1 0x5 DUP3 PUSH1 0x40 MLOAD DUP1 PUSH1 0x40 ADD PUSH1 0x40 MSTORE DUP1 PUSH1 0x1C DUP2 MSTORE PUSH1 0x20 ADD PUSH32 0x5265776172647320636C61696D6564207375636365737366756C6C7900000000 DUP2 MSTORE POP SWAP1 SWAP9 POP SWAP9 POP SWAP9 POP SWAP9 POP POP POP POP POP POP JUMPDEST SWAP2 SWAP4 POP SWAP2 SWAP4 JUMP JUMPDEST PUSH2 0x28B1 DUP4 PUSH2 0x2261 JUMP JUMPDEST ISZERO PUSH2 0x290A JUMPI PUSH0 PUSH2 0x28C0 DUP3 PUSH2 0x1C30 JUMP JUMPDEST SWAP1 POP PUSH2 0x28CD DUP5 DUP5 DUP4 PUSH2 0x3B27 JUMP JUMPDEST PUSH32 0x7A8B74794BD86A2AA2CCE3F5ECD233EF7B96A2EA21CD6C4AB522185C01D01759 DUP5 DUP5 DUP4 PUSH1 0x40 MLOAD PUSH2 0x2900 SWAP4 SWAP3 SWAP2 SWAP1 PUSH2 0x70AE JUMP JUMPDEST PUSH1 0x40 MLOAD DUP1 SWAP2 SUB SWAP1 LOG1 POP JUMPDEST POP POP POP JUMP JUMPDEST PUSH0 PUSH2 0x2919 DUP3 PUSH2 0x12A3 JUMP JUMPDEST SWAP1 POP PUSH2 0x2930 DUP2 PUSH1 0x92 SLOAD PUSH2 0x2B84 SWAP1 SWAP2 SWAP1 PUSH4 0xFFFFFFFF AND JUMP JUMPDEST PUSH1 0x92 DUP2 SWAP1 SSTORE POP SWAP2 SWAP1 POP JUMP JUMPDEST PUSH0 DUP2 DUP4 PUSH2 0x2948 SWAP2 SWAP1 PUSH2 0x6CCC JUMP JUMPDEST SWAP1 POP SWAP3 SWAP2 POP POP JUMP JUMPDEST PUSH0 DUP2 PUSH0 DUP2 GT PUSH2 0x2994 JUMPI PUSH1 0x40 MLOAD PUSH32 0x8C379A000000000000000000000000000000000000000000000000000000000 DUP2 MSTORE PUSH1 0x4 ADD PUSH2 0x298B SWAP1 PUSH2 0x712D JUMP JUMPDEST PUSH1 0x40 MLOAD DUP1 SWAP2 SUB SWAP1 REVERT JUMPDEST PUSH0 PUSH2 0x299F DUP6 DUP6 PUSH2 0x1CA9 JUMP JUMPDEST SWAP1 POP PUSH2 0x29C5 DUP5 PUSH1 0x86 PUSH0 DUP9 DUP2 MSTORE PUSH1 0x20 ADD SWAP1 DUP2 MSTORE PUSH1 0x20 ADD PUSH0 KECCAK256 SLOAD PUSH2 0x2B84 SWAP1 SWAP2 SWAP1 PUSH4 0xFFFFFFFF AND JUMP JUMPDEST PUSH1 0x86 PUSH0 DUP8 DUP2 MSTORE PUSH1 0x20 ADD SWAP1 DUP2 MSTORE PUSH1 0x20 ADD PUSH0 KECCAK256 DUP2 SWAP1 SSTORE POP PUSH2 0x29FB PUSH2 0x29E5 PUSH2 0x26B3 JUMP JUMPDEST DUP7 DUP4 PUSH1 0x40 MLOAD DUP1 PUSH1 0x20 ADD PUSH1 0x40 MSTORE DUP1 PUSH0 DUP2 MSTORE POP PUSH2 0x35CA JUMP JUMPDEST PUSH32 0x65AB8B57AF027AD387B3F608B0745DE61B7DC81D07BE6DED03736DB32FE46BD9 PUSH2 0x2A24 PUSH2 0x26B3 JUMP JUMPDEST DUP3 DUP7 PUSH1 0x40 MLOAD PUSH2 0x2A35 SWAP4 SWAP3 SWAP2 SWAP1 PUSH2 0x70AE JUMP JUMPDEST PUSH1 0x40 MLOAD DUP1 SWAP2 SUB SWAP1 LOG1 DUP1 SWAP3 POP POP POP SWAP3 SWAP2 POP POP JUMP JUMPDEST PUSH1 0x5 DUP1 DUP2 GT ISZERO PUSH2 0x2A5B JUMPI PUSH2 0x2A5A PUSH2 0x6B08 JUMP JUMPDEST JUMPDEST DUP3 PUSH1 0x5 DUP2 GT ISZERO PUSH2 0x2A6E JUMPI PUSH2 0x2A6D PUSH2 0x6B08 JUMP JUMPDEST JUMPDEST SUB PUSH2 0x2B56 JUMPI PUSH1 0x91 PUSH0 SWAP1 SLOAD SWAP1 PUSH2 0x100 EXP SWAP1 DIV PUSH20 0xFFFFFFFFFFFFFFFFFFFFFFFFFFFFFFFFFFFFFFFF AND PUSH20 0xFFFFFFFFFFFFFFFFFFFFFFFFFFFFFFFFFFFFFFFF AND PUSH4 0xA9059CBB PUSH2 0x2AB8 PUSH2 0x26B3 JUMP JUMPDEST DUP4 PUSH1 0x40 MLOAD DUP4 PUSH4 0xFFFFFFFF AND PUSH1 0xE0 SHL DUP2 MSTORE PUSH1 0x4 ADD PUSH2 0x2AD6 SWAP3 SWAP2 SWAP1 PUSH2 0x6F76 JUMP JUMPDEST PUSH1 0x20 PUSH1 0x40 MLOAD DUP1 DUP4 SUB DUP2 PUSH0 DUP8 GAS CALL ISZERO DUP1 ISZERO PUSH2 0x2AF2 JUMPI RETURNDATASIZE PUSH0 DUP1 RETURNDATACOPY RETURNDATASIZE PUSH0 REVERT JUMPDEST POP POP POP POP PUSH1 0x40 MLOAD RETURNDATASIZE PUSH1 0x1F NOT PUSH1 0x1F DUP3 ADD AND DUP3 ADD DUP1 PUSH1 0x40 MSTORE POP DUP2 ADD SWAP1 PUSH2 0x2B16 SWAP2 SWAP1 PUSH2 0x6C0C JUMP JUMPDEST PUSH2 0x2B55 JUMPI PUSH1 0x40 MLOAD PUSH32 0x8C379A000000000000000000000000000000000000000000000000000000000 DUP2 MSTORE PUSH1 0x4 ADD PUSH2 0x2B4C SWAP1 PUSH2 0x6C81 JUMP JUMPDEST PUSH1 0x40 MLOAD DUP1 SWAP2 SUB SWAP1 REVERT JUMPDEST JUMPDEST POP POP JUMP JUMPDEST PUSH0 DUP2 DUP4 PUSH2 0x2B67 SWAP2 SWAP1 PUSH2 0x706D JUMP JUMPDEST SWAP1 POP SWAP3 SWAP2 POP POP JUMP JUMPDEST PUSH0 DUP2 DUP4 PUSH2 0x2B7C SWAP2 SWAP1 PUSH2 0x7178 JUMP JUMPDEST SWAP1 POP SWAP3 SWAP2 POP POP JUMP JUMPDEST PUSH0 DUP2 DUP4 PUSH2 0x2B91 SWAP2 SWAP1 PUSH2 0x71A8 JUMP JUMPDEST SWAP1 POP SWAP3 SWAP2 POP POP JUMP JUMPDEST PUSH0 DUP1 PUSH17 0x200000000000000000000000000000000 DUP7 LT PUSH2 0x2BEE JUMPI PUSH1 0x40 MLOAD PUSH32 0x8C379A000000000000000000000000000000000000000000000000000000000 DUP2 MSTORE PUSH1 0x4 ADD PUSH2 0x2BE5 SWAP1 PUSH2 0x7225 JUMP JUMPDEST PUSH1 0x40 MLOAD DUP1 SWAP2 SUB SWAP1 REVERT JUMPDEST DUP5 DUP7 LT ISZERO PUSH2 0x2C31 JUMPI PUSH1 0x40 MLOAD PUSH32 0x8C379A000000000000000000000000000000000000000000000000000000000 DUP2 MSTORE PUSH1 0x4 ADD PUSH2 0x2C28 SWAP1 PUSH2 0x728D JUMP JUMPDEST PUSH1 0x40 MLOAD DUP1 SWAP2 SUB SWAP1 REVERT JUMPDEST PUSH0 DUP1 DUP7 PUSH16 0x80000000000000000000000000000000 DUP10 PUSH2 0x2C50 SWAP2 SWAP1 PUSH2 0x706D JUMP JUMPDEST PUSH2 0x2C5A SWAP2 SWAP1 PUSH2 0x7178 JUMP JUMPDEST SWAP1 POP PUSH17 0x15BF0A8B1457695355FB8AC404E7A79E3 DUP2 LT ISZERO PUSH2 0x2C85 JUMPI PUSH2 0x2C7E DUP2 PUSH2 0x3BBF JUMP JUMPDEST SWAP2 POP PUSH2 0x2C91 JUMP JUMPDEST PUSH2 0x2C8E DUP2 PUSH2 0x4334 JUMP JUMPDEST SWAP2 POP JUMPDEST PUSH0 DUP6 PUSH4 0xFFFFFFFF AND DUP8 PUSH4 0xFFFFFFFF AND DUP5 PUSH2 0x2CAB SWAP2 SWAP1 PUSH2 0x706D JUMP JUMPDEST PUSH2 0x2CB5 SWAP2 SWAP1 PUSH2 0x7178 JUMP JUMPDEST SWAP1 POP PUSH17 0x800000000000000000000000000000000 DUP2 LT ISZERO PUSH2 0x2CE7 JUMPI PUSH2 0x2CD9 DUP2 PUSH2 0x448E JUMP JUMPDEST PUSH1 0x7F SWAP5 POP SWAP5 POP POP POP POP PUSH2 0x2D19 JUMP JUMPDEST PUSH0 PUSH2 0x2CF1 DUP3 PUSH2 0x4C88 JUMP JUMPDEST SWAP1 POP PUSH2 0x2D0F DUP2 PUSH1 0x7F PUSH2 0x2D03 SWAP2 SWAP1 PUSH2 0x72B7 JUMP JUMPDEST PUSH1 0xFF AND DUP4 SWAP1 SHR DUP3 PUSH2 0x4D65 JUMP JUMPDEST DUP2 SWAP6 POP SWAP6 POP POP POP POP POP JUMPDEST SWAP5 POP SWAP5 SWAP3 POP POP POP JUMP JUMPDEST PUSH2 0x2D37 DUP2 PUSH1 0x8A SLOAD PUSH2 0x2B84 SWAP1 SWAP2 SWAP1 PUSH4 0xFFFFFFFF AND JUMP JUMPDEST PUSH1 0x8A DUP2 SWAP1 SSTORE POP PUSH32 0x3D560FFD62F992091E727A573216BC1324EA4BC13ABD039E69319844D3BE5BA5 PUSH2 0x2D66 PUSH2 0x26B3 JUMP JUMPDEST DUP3 PUSH1 0x40 MLOAD PUSH2 0x2D75 SWAP3 SWAP2 SWAP1 PUSH2 0x6F76 JUMP JUMPDEST PUSH1 0x40 MLOAD DUP1 SWAP2 SUB SWAP1 LOG1 POP JUMP JUMPDEST PUSH0 PUSH20 0xFFFFFFFFFFFFFFFFFFFFFFFFFFFFFFFFFFFFFFFF AND DUP5 PUSH20 0xFFFFFFFFFFFFFFFFFFFFFFFFFFFFFFFFFFFFFFFF AND SUB PUSH2 0x2DF0 JUMPI PUSH0 PUSH1 0x40 MLOAD PUSH32 0x57F447CE00000000000000000000000000000000000000000000000000000000 DUP2 MSTORE PUSH1 0x4 ADD PUSH2 0x2DE7 SWAP2 SWAP1 PUSH2 0x6834 JUMP JUMPDEST PUSH1 0x40 MLOAD DUP1 SWAP2 SUB SWAP1 REVERT JUMPDEST PUSH0 PUSH20 0xFFFFFFFFFFFFFFFFFFFFFFFFFFFFFFFFFFFFFFFF AND DUP6 PUSH20 0xFFFFFFFFFFFFFFFFFFFFFFFFFFFFFFFFFFFFFFFF AND SUB PUSH2 0x2E60 JUMPI PUSH0 PUSH1 0x40 MLOAD PUSH32 0x1A8351400000000000000000000000000000000000000000000000000000000 DUP2 MSTORE PUSH1 0x4 ADD PUSH2 0x2E57 SWAP2 SWAP1 PUSH2 0x6834 JUMP JUMPDEST PUSH1 0x40 MLOAD DUP1 SWAP2 SUB SWAP1 REVERT JUMPDEST PUSH2 0x2E6D DUP6 DUP6 DUP6 DUP6 DUP6 PUSH2 0x5472 JUMP JUMPDEST POP POP POP POP POP JUMP JUMPDEST PUSH0 PUSH1 0x20 DUP3 MUL PUSH1 0x20 DUP5 ADD ADD MLOAD SWAP1 POP SWAP3 SWAP2 POP POP JUMP JUMPDEST PUSH0 PUSH1 0x20 DUP3 MUL PUSH1 0x20 DUP5 ADD ADD MLOAD SWAP1 POP SWAP3 SWAP2 POP POP JUMP JUMPDEST PUSH2 0x2EA2 PUSH2 0x26B3 JUMP JUMPDEST PUSH20 0xFFFFFFFFFFFFFFFFFFFFFFFFFFFFFFFFFFFFFFFF AND PUSH2 0x2EC0 PUSH2 0x1C6B JUMP JUMPDEST PUSH20 0xFFFFFFFFFFFFFFFFFFFFFFFFFFFFFFFFFFFFFFFF AND EQ PUSH2 0x2F1F JUMPI PUSH2 0x2EE3 PUSH2 0x26B3 JUMP JUMPDEST PUSH1 0x40 MLOAD PUSH32 0x118CDAA700000000000000000000000000000000000000000000000000000000 DUP2 MSTORE PUSH1 0x4 ADD PUSH2 0x2F16 SWAP2 SWAP1 PUSH2 0x6834 JUMP JUMPDEST PUSH1 0x40 MLOAD DUP1 SWAP2 SUB SWAP1 REVERT JUMPDEST JUMP JUMPDEST PUSH0 PUSH1 0x88 PUSH0 SWAP1 SLOAD SWAP1 PUSH2 0x100 EXP SWAP1 DIV PUSH20 0xFFFFFFFFFFFFFFFFFFFFFFFFFFFFFFFFFFFFFFFF AND SWAP1 POP DUP2 PUSH1 0x88 PUSH0 PUSH2 0x100 EXP DUP2 SLOAD DUP2 PUSH20 0xFFFFFFFFFFFFFFFFFFFFFFFFFFFFFFFFFFFFFFFF MUL NOT AND SWAP1 DUP4 PUSH20 0xFFFFFFFFFFFFFFFFFFFFFFFFFFFFFFFFFFFFFFFF AND MUL OR SWAP1 SSTORE POP DUP2 PUSH20 0xFFFFFFFFFFFFFFFFFFFFFFFFFFFFFFFFFFFFFFFF AND DUP2 PUSH20 0xFFFFFFFFFFFFFFFFFFFFFFFFFFFFFFFFFFFFFFFF AND PUSH32 0x8BE0079C531659141344CD1FD0A4F28419497F9722A3DAAFE3B4186F6B6457E0 PUSH1 0x40 MLOAD PUSH1 0x40 MLOAD DUP1 SWAP2 SUB SWAP1 LOG3 POP POP JUMP JUMPDEST PUSH0 DUP1 PUSH2 0x2FEE PUSH2 0x18F8 JUMP JUMPDEST SWAP1 POP PUSH1 0x8E PUSH0 DUP3 DUP2 MSTORE PUSH1 0x20 ADD SWAP1 DUP2 MSTORE PUSH1 0x20 ADD PUSH0 KECCAK256 PUSH1 0x6 ADD PUSH0 SWAP1 SLOAD SWAP1 PUSH2 0x100 EXP SWAP1 DIV PUSH1 0xFF AND ISZERO PUSH2 0x3051 JUMPI PUSH1 0x40 MLOAD PUSH32 0x8C379A000000000000000000000000000000000000000000000000000000000 DUP2 MSTORE PUSH1 0x4 ADD PUSH2 0x3048 SWAP1 PUSH2 0x735B JUMP JUMPDEST PUSH1 0x40 MLOAD DUP1 SWAP2 SUB SWAP1 REVERT JUMPDEST PUSH1 0x8C PUSH0 SWAP1 SLOAD SWAP1 PUSH2 0x100 EXP SWAP1 DIV PUSH20 0xFFFFFFFFFFFFFFFFFFFFFFFFFFFFFFFFFFFFFFFF AND PUSH20 0xFFFFFFFFFFFFFFFFFFFFFFFFFFFFFFFFFFFFFFFF AND PUSH4 0x167916A9 DUP3 DUP6 PUSH1 0x40 MLOAD DUP4 PUSH4 0xFFFFFFFF AND PUSH1 0xE0 SHL DUP2 MSTORE PUSH1 0x4 ADD PUSH2 0x30AD SWAP3 SWAP2 SWAP1 PUSH2 0x6DF6 JUMP JUMPDEST PUSH1 0x20 PUSH1 0x40 MLOAD DUP1 DUP4 SUB DUP2 PUSH0 DUP8 GAS CALL ISZERO DUP1 ISZERO PUSH2 0x30C9 JUMPI RETURNDATASIZE PUSH0 DUP1 RETURNDATACOPY RETURNDATASIZE PUSH0 REVERT JUMPDEST POP POP POP POP PUSH1 0x40 MLOAD RETURNDATASIZE PUSH1 0x1F NOT PUSH1 0x1F DUP3 ADD AND DUP3 ADD DUP1 PUSH1 0x40 MSTORE POP DUP2 ADD SWAP1 PUSH2 0x30ED SWAP2 SWAP1 PUSH2 0x73A3 JUMP JUMPDEST SWAP2 POP PUSH32 0xDDD41FE2F3DDE7B604BDC7EBF90E6D8B3966EF11BE0BE82C6D6E34A03B5BF9E3 DUP2 DUP4 PUSH1 0x40 MLOAD PUSH2 0x3120 SWAP3 SWAP2 SWAP1 PUSH2 0x73CE JUMP JUMPDEST PUSH1 0x40 MLOAD DUP1 SWAP2 SUB SWAP1 LOG1 POP SWAP2 SWAP1 POP JUMP JUMPDEST PUSH0 PUSH20 0xFFFFFFFFFFFFFFFFFFFFFFFFFFFFFFFFFFFFFFFF AND DUP3 PUSH20 0xFFFFFFFFFFFFFFFFFFFFFFFFFFFFFFFFFFFFFFFF AND SUB PUSH2 0x319E JUMPI PUSH0 PUSH1 0x40 MLOAD PUSH32 0xCED3E10000000000000000000000000000000000000000000000000000000000 DUP2 MSTORE PUSH1 0x4 ADD PUSH2 0x3195 SWAP2 SWAP1 PUSH2 0x6834 JUMP JUMPDEST PUSH1 0x40 MLOAD DUP1 SWAP2 SUB SWAP1 REVERT JUMPDEST DUP1 PUSH1 0x82 PUSH0 DUP6 PUSH20 0xFFFFFFFFFFFFFFFFFFFFFFFFFFFFFFFFFFFFFFFF AND PUSH20 0xFFFFFFFFFFFFFFFFFFFFFFFFFFFFFFFFFFFFFFFF AND DUP2 MSTORE PUSH1 0x20 ADD SWAP1 DUP2 MSTORE PUSH1 0x20 ADD PUSH0 KECCAK256 PUSH0 DUP5 PUSH20 0xFFFFFFFFFFFFFFFFFFFFFFFFFFFFFFFFFFFFFFFF AND PUSH20 0xFFFFFFFFFFFFFFFFFFFFFFFFFFFFFFFFFFFFFFFF AND DUP2 MSTORE PUSH1 0x20 ADD SWAP1 DUP2 MSTORE PUSH1 0x20 ADD PUSH0 KECCAK256 PUSH0 PUSH2 0x100 EXP DUP2 SLOAD DUP2 PUSH1 0xFF MUL NOT AND SWAP1 DUP4 ISZERO ISZERO MUL OR SWAP1 SSTORE POP DUP2 PUSH20 0xFFFFFFFFFFFFFFFFFFFFFFFFFFFFFFFFFFFFFFFF AND DUP4 PUSH20 0xFFFFFFFFFFFFFFFFFFFFFFFFFFFFFFFFFFFFFFFF AND PUSH32 0x17307EAB39AB6107E8899845AD3D59BD9653F200F220920489CA2B5937696C31 DUP4 PUSH1 0x40 MLOAD PUSH2 0x328A SWAP2 SWAP1 PUSH2 0x60B4 JUMP JUMPDEST PUSH1 0x40 MLOAD DUP1 SWAP2 SUB SWAP1 LOG3 POP POP POP JUMP JUMPDEST PUSH0 DUP3 DUP3 PUSH0 DUP2 GT PUSH2 0x32DC JUMPI PUSH1 0x40 MLOAD PUSH32 0x8C379A000000000000000000000000000000000000000000000000000000000 DUP2 MSTORE PUSH1 0x4 ADD PUSH2 0x32D3 SWAP1 PUSH2 0x743F JUMP JUMPDEST PUSH1 0x40 MLOAD DUP1 SWAP2 SUB SWAP1 REVERT JUMPDEST DUP1 PUSH2 0x32EE PUSH2 0x32E8 PUSH2 0x26B3 JUMP JUMPDEST DUP5 PUSH2 0xDBA JUMP JUMPDEST LT ISZERO PUSH2 0x332F JUMPI PUSH1 0x40 MLOAD PUSH32 0x8C379A000000000000000000000000000000000000000000000000000000000 DUP2 MSTORE PUSH1 0x4 ADD PUSH2 0x3326 SWAP1 PUSH2 0x74A7 JUMP JUMPDEST PUSH1 0x40 MLOAD DUP1 SWAP2 SUB SWAP1 REVERT JUMPDEST PUSH0 PUSH2 0x333A DUP7 DUP7 PUSH2 0x23D0 JUMP JUMPDEST SWAP1 POP PUSH2 0x3360 DUP2 PUSH1 0x86 PUSH0 DUP10 DUP2 MSTORE PUSH1 0x20 ADD SWAP1 DUP2 MSTORE PUSH1 0x20 ADD PUSH0 KECCAK256 SLOAD PUSH2 0x293B SWAP1 SWAP2 SWAP1 PUSH4 0xFFFFFFFF AND JUMP JUMPDEST PUSH1 0x86 PUSH0 DUP9 DUP2 MSTORE PUSH1 0x20 ADD SWAP1 DUP2 MSTORE PUSH1 0x20 ADD PUSH0 KECCAK256 DUP2 SWAP1 SSTORE POP PUSH2 0x3387 PUSH2 0x3380 PUSH2 0x26B3 JUMP JUMPDEST DUP8 DUP8 PUSH2 0x551E JUMP JUMPDEST PUSH32 0x14FEB1B32DBB3EBF172A72BC6B201CB3DDCD8DD148DA8B8AC41207F2D69BDD32 PUSH2 0x33B0 PUSH2 0x26B3 JUMP JUMPDEST DUP7 DUP4 PUSH1 0x40 MLOAD PUSH2 0x33C1 SWAP4 SWAP3 SWAP2 SWAP1 PUSH2 0x70AE JUMP JUMPDEST PUSH1 0x40 MLOAD DUP1 SWAP2 SUB SWAP1 LOG1 DUP1 SWAP4 POP POP POP POP SWAP3 SWAP2 POP POP JUMP JUMPDEST PUSH1 0x8F PUSH0 DUP3 PUSH20 0xFFFFFFFFFFFFFFFFFFFFFFFFFFFFFFFFFFFFFFFF AND PUSH20 0xFFFFFFFFFFFFFFFFFFFFFFFFFFFFFFFFFFFFFFFF AND DUP2 MSTORE PUSH1 0x20 ADD SWAP1 DUP2 MSTORE PUSH1 0x20 ADD PUSH0 KECCAK256 PUSH1 0x1 ADD SLOAD PUSH1 0x8A SLOAD LT ISZERO PUSH2 0x345A JUMPI PUSH1 0x40 MLOAD PUSH32 0x8C379A000000000000000000000000000000000000000000000000000000000 DUP2 MSTORE PUSH1 0x4 ADD PUSH2 0x3451 SWAP1 PUSH2 0x750F JUMP JUMPDEST PUSH1 0x40 MLOAD DUP1 SWAP2 SUB SWAP1 REVERT JUMPDEST PUSH1 0x1 PUSH1 0x8F PUSH0 DUP4 PUSH20 0xFFFFFFFFFFFFFFFFFFFFFFFFFFFFFFFFFFFFFFFF AND PUSH20 0xFFFFFFFFFFFFFFFFFFFFFFFFFFFFFFFFFFFFFFFF AND DUP2 MSTORE PUSH1 0x20 ADD SWAP1 DUP2 MSTORE PUSH1 0x20 ADD PUSH0 KECCAK256 PUSH1 0x2 ADD PUSH0 PUSH2 0x100 EXP DUP2 SLOAD DUP2 PUSH1 0xFF MUL NOT AND SWAP1 DUP4 ISZERO ISZERO MUL OR SWAP1 SSTORE POP PUSH2 0x3507 PUSH1 0x8F PUSH0 DUP4 PUSH20 0xFFFFFFFFFFFFFFFFFFFFFFFFFFFFFFFFFFFFFFFF AND PUSH20 0xFFFFFFFFFFFFFFFFFFFFFFFFFFFFFFFFFFFFFFFF AND DUP2 MSTORE PUSH1 0x20 ADD SWAP1 DUP2 MSTORE PUSH1 0x20 ADD PUSH0 KECCAK256 PUSH1 0x1 ADD SLOAD PUSH1 0x8A SLOAD PUSH2 0x293B SWAP1 SWAP2 SWAP1 PUSH4 0xFFFFFFFF AND JUMP JUMPDEST PUSH1 0x8A DUP2 SWAP1 SSTORE POP PUSH32 0xC4E231D9ED0CD3497C89E1C78E5E4B547CAC9D09AB7A402FB66A54E9F9CF6203 DUP2 PUSH1 0x8F PUSH0 DUP5 PUSH20 0xFFFFFFFFFFFFFFFFFFFFFFFFFFFFFFFFFFFFFFFF AND PUSH20 0xFFFFFFFFFFFFFFFFFFFFFFFFFFFFFFFFFFFFFFFF AND DUP2 MSTORE PUSH1 0x20 ADD SWAP1 DUP2 MSTORE PUSH1 0x20 ADD PUSH0 KECCAK256 PUSH0 ADD SLOAD PUSH1 0x8F PUSH0 DUP6 PUSH20 0xFFFFFFFFFFFFFFFFFFFFFFFFFFFFFFFFFFFFFFFF AND PUSH20 0xFFFFFFFFFFFFFFFFFFFFFFFFFFFFFFFFFFFFFFFF AND DUP2 MSTORE PUSH1 0x20 ADD SWAP1 DUP2 MSTORE PUSH1 0x20 ADD PUSH0 KECCAK256 PUSH1 0x1 ADD SLOAD PUSH1 0x40 MLOAD PUSH2 0x35BF SWAP4 SWAP3 SWAP2 SWAP1 PUSH2 0x70AE JUMP JUMPDEST PUSH1 0x40 MLOAD DUP1 SWAP2 SUB SWAP1 LOG1 POP JUMP JUMPDEST PUSH0 PUSH20 0xFFFFFFFFFFFFFFFFFFFFFFFFFFFFFFFFFFFFFFFF AND DUP5 PUSH20 0xFFFFFFFFFFFFFFFFFFFFFFFFFFFFFFFFFFFFFFFF AND SUB PUSH2 0x363A JUMPI PUSH0 PUSH1 0x40 MLOAD PUSH32 0x57F447CE00000000000000000000000000000000000000000000000000000000 DUP2 MSTORE PUSH1 0x4 ADD PUSH2 0x3631 SWAP2 SWAP1 PUSH2 0x6834 JUMP JUMPDEST PUSH1 0x40 MLOAD DUP1 SWAP2 SUB SWAP1 REVERT JUMPDEST PUSH0 DUP1 PUSH2 0x3646 DUP6 DUP6 PUSH2 0x55C0 JUMP JUMPDEST SWAP2 POP SWAP2 POP PUSH2 0x3657 PUSH0 DUP8 DUP5 DUP5 DUP8 PUSH2 0x5472 JUMP JUMPDEST POP POP POP POP POP POP JUMP JUMPDEST PUSH2 0x3667 PUSH2 0x2E9A JUMP JUMPDEST NUMBER DUP4 LT ISZERO PUSH2 0x36AA JUMPI PUSH1 0x40 MLOAD PUSH32 0x8C379A000000000000000000000000000000000000000000000000000000000 DUP2 MSTORE PUSH1 0x4 ADD PUSH2 0x36A1 SWAP1 PUSH2 0x7577 JUMP JUMPDEST PUSH1 0x40 MLOAD DUP1 SWAP2 SUB SWAP1 REVERT JUMPDEST DUP2 DUP4 LT PUSH2 0x36EC JUMPI PUSH1 0x40 MLOAD PUSH32 0x8C379A000000000000000000000000000000000000000000000000000000000 DUP2 MSTORE PUSH1 0x4 ADD PUSH2 0x36E3 SWAP1 PUSH2 0x75DF JUMP JUMPDEST PUSH1 0x40 MLOAD DUP1 SWAP2 SUB SWAP1 REVERT JUMPDEST DUP1 PUSH1 0x8A SLOAD LT ISZERO PUSH2 0x3731 JUMPI PUSH1 0x40 MLOAD PUSH32 0x8C379A000000000000000000000000000000000000000000000000000000000 DUP2 MSTORE PUSH1 0x4 ADD PUSH2 0x3728 SWAP1 PUSH2 0x750F JUMP JUMPDEST PUSH1 0x40 MLOAD DUP1 SWAP2 SUB SWAP1 REVERT JUMPDEST PUSH2 0x3739 PUSH2 0x11E0 JUMP JUMPDEST DUP1 PUSH2 0x3748 JUMPI POP PUSH2 0x3747 PUSH2 0x22F8 JUMP JUMPDEST JUMPDEST ISZERO PUSH2 0x3788 JUMPI PUSH1 0x40 MLOAD PUSH32 0x8C379A000000000000000000000000000000000000000000000000000000000 DUP2 MSTORE PUSH1 0x4 ADD PUSH2 0x377F SWAP1 PUSH2 0x766D JUMP JUMPDEST PUSH1 0x40 MLOAD DUP1 SWAP2 SUB SWAP1 REVERT JUMPDEST PUSH1 0x8C PUSH0 SWAP1 SLOAD SWAP1 PUSH2 0x100 EXP SWAP1 DIV PUSH20 0xFFFFFFFFFFFFFFFFFFFFFFFFFFFFFFFFFFFFFFFF AND PUSH20 0xFFFFFFFFFFFFFFFFFFFFFFFFFFFFFFFFFFFFFFFF AND PUSH4 0x8F25F1DC PUSH1 0x8C PUSH0 SWAP1 SLOAD SWAP1 PUSH2 0x100 EXP SWAP1 DIV PUSH20 0xFFFFFFFFFFFFFFFFFFFFFFFFFFFFFFFFFFFFFFFF AND PUSH1 0x40 MLOAD DUP3 PUSH4 0xFFFFFFFF AND PUSH1 0xE0 SHL DUP2 MSTORE PUSH1 0x4 ADD PUSH2 0x3803 SWAP2 SWAP1 PUSH2 0x6834 JUMP JUMPDEST PUSH1 0x20 PUSH1 0x40 MLOAD DUP1 DUP4 SUB DUP2 DUP7 GAS STATICCALL ISZERO DUP1 ISZERO PUSH2 0x381E JUMPI RETURNDATASIZE PUSH0 DUP1 RETURNDATACOPY RETURNDATASIZE PUSH0 REVERT JUMPDEST POP POP POP POP PUSH1 0x40 MLOAD RETURNDATASIZE PUSH1 0x1F NOT PUSH1 0x1F DUP3 ADD AND DUP3 ADD DUP1 PUSH1 0x40 MSTORE POP DUP2 ADD SWAP1 PUSH2 0x3842 SWAP2 SWAP1 PUSH2 0x6C0C JUMP JUMPDEST PUSH2 0x3881 JUMPI PUSH1 0x40 MLOAD PUSH32 0x8C379A000000000000000000000000000000000000000000000000000000000 DUP2 MSTORE PUSH1 0x4 ADD PUSH2 0x3878 SWAP1 PUSH2 0x76D5 JUMP JUMPDEST PUSH1 0x40 MLOAD DUP1 SWAP2 SUB SWAP1 REVERT JUMPDEST PUSH0 PUSH1 0x89 PUSH0 DUP2 SLOAD DUP1 SWAP3 SWAP2 SWAP1 PUSH2 0x3894 SWAP1 PUSH2 0x6E4A JUMP JUMPDEST SWAP2 SWAP1 POP SSTORE SWAP1 POP PUSH0 PUSH1 0x40 MLOAD DUP1 PUSH1 0xE0 ADD PUSH1 0x40 MSTORE DUP1 DUP4 DUP2 MSTORE PUSH1 0x20 ADD DUP7 DUP2 MSTORE PUSH1 0x20 ADD DUP6 DUP2 MSTORE PUSH1 0x20 ADD DUP5 DUP2 MSTORE PUSH1 0x20 ADD PUSH0 DUP2 MSTORE PUSH1 0x20 ADD PUSH0 DUP2 MSTORE PUSH1 0x20 ADD PUSH0 ISZERO ISZERO DUP2 MSTORE POP SWAP1 POP DUP1 PUSH1 0x8E PUSH0 DUP5 DUP2 MSTORE PUSH1 0x20 ADD SWAP1 DUP2 MSTORE PUSH1 0x20 ADD PUSH0 KECCAK256 PUSH0 DUP3 ADD MLOAD DUP2 PUSH0 ADD SSTORE PUSH1 0x20 DUP3 ADD MLOAD DUP2 PUSH1 0x1 ADD SSTORE PUSH1 0x40 DUP3 ADD MLOAD DUP2 PUSH1 0x2 ADD SSTORE PUSH1 0x60 DUP3 ADD MLOAD DUP2 PUSH1 0x3 ADD SSTORE PUSH1 0x80 DUP3 ADD MLOAD DUP2 PUSH1 0x4 ADD SSTORE PUSH1 0xA0 DUP3 ADD MLOAD DUP2 PUSH1 0x5 ADD SSTORE PUSH1 0xC0 DUP3 ADD MLOAD DUP2 PUSH1 0x6 ADD PUSH0 PUSH2 0x100 EXP DUP2 SLOAD DUP2 PUSH1 0xFF MUL NOT AND SWAP1 DUP4 ISZERO ISZERO MUL OR SWAP1 SSTORE POP SWAP1 POP POP PUSH32 0x1DD3E8B17419AA7C49BF1EF36039E8C2297623A9F2562F286D7D2A95CDB0456E DUP3 DUP7 DUP7 DUP7 PUSH1 0x40 MLOAD PUSH2 0x3975 SWAP5 SWAP4 SWAP3 SWAP2 SWAP1 PUSH2 0x76F3 JUMP JUMPDEST PUSH1 0x40 MLOAD DUP1 SWAP2 SUB SWAP1 LOG1 POP POP POP POP POP JUMP JUMPDEST PUSH0 PUSH20 0xFFFFFFFFFFFFFFFFFFFFFFFFFFFFFFFFFFFFFFFF AND DUP5 PUSH20 0xFFFFFFFFFFFFFFFFFFFFFFFFFFFFFFFFFFFFFFFF AND SUB PUSH2 0x39F4 JUMPI PUSH0 PUSH1 0x40 MLOAD PUSH32 0x57F447CE00000000000000000000000000000000000000000000000000000000 DUP2 MSTORE PUSH1 0x4 ADD PUSH2 0x39EB SWAP2 SWAP1 PUSH2 0x6834 JUMP JUMPDEST PUSH1 0x40 MLOAD DUP1 SWAP2 SUB SWAP1 REVERT JUMPDEST PUSH0 PUSH20 0xFFFFFFFFFFFFFFFFFFFFFFFFFFFFFFFFFFFFFFFF AND DUP6 PUSH20 0xFFFFFFFFFFFFFFFFFFFFFFFFFFFFFFFFFFFFFFFF AND SUB PUSH2 0x3A64 JUMPI PUSH0 PUSH1 0x40 MLOAD PUSH32 0x1A8351400000000000000000000000000000000000000000000000000000000 DUP2 MSTORE PUSH1 0x4 ADD PUSH2 0x3A5B SWAP2 SWAP1 PUSH2 0x6834 JUMP JUMPDEST PUSH1 0x40 MLOAD DUP1 SWAP2 SUB SWAP1 REVERT JUMPDEST PUSH0 DUP1 PUSH2 0x3A70 DUP6 DUP6 PUSH2 0x55C0 JUMP JUMPDEST SWAP2 POP SWAP2 POP PUSH2 0x3A81 DUP8 DUP8 DUP5 DUP5 DUP8 PUSH2 0x5472 JUMP JUMPDEST POP POP POP POP POP POP POP JUMP JUMPDEST DUP2 PUSH1 0x8D PUSH0 DUP6 PUSH20 0xFFFFFFFFFFFFFFFFFFFFFFFFFFFFFFFFFFFFFFFF AND PUSH20 0xFFFFFFFFFFFFFFFFFFFFFFFFFFFFFFFFFFFFFFFF AND DUP2 MSTORE PUSH1 0x20 ADD SWAP1 DUP2 MSTORE PUSH1 0x20 ADD PUSH0 KECCAK256 DUP2 SWAP1 SSTORE POP PUSH2 0x3AE1 DUP2 PUSH1 0x8A SLOAD PUSH2 0x293B SWAP1 SWAP2 SWAP1 PUSH4 0xFFFFFFFF AND JUMP JUMPDEST PUSH1 0x8A DUP2 SWAP1 SSTORE POP PUSH32 0xF01DA32686223933D8A18A391060918C7F11A3648639EDD87AE013E2E2731743 DUP4 DUP4 DUP4 PUSH1 0x40 MLOAD PUSH2 0x3B1A SWAP4 SWAP3 SWAP2 SWAP1 PUSH2 0x70AE JUMP JUMPDEST PUSH1 0x40 MLOAD DUP1 SWAP2 SUB SWAP1 LOG1 POP POP POP JUMP JUMPDEST PUSH0 PUSH1 0x40 MLOAD DUP1 PUSH1 0x60 ADD PUSH1 0x40 MSTORE DUP1 DUP5 DUP2 MSTORE PUSH1 0x20 ADD DUP4 DUP2 MSTORE PUSH1 0x20 ADD PUSH0 ISZERO ISZERO DUP2 MSTORE POP SWAP1 POP DUP1 PUSH1 0x8F PUSH0 DUP7 PUSH20 0xFFFFFFFFFFFFFFFFFFFFFFFFFFFFFFFFFFFFFFFF AND PUSH20 0xFFFFFFFFFFFFFFFFFFFFFFFFFFFFFFFFFFFFFFFF AND DUP2 MSTORE PUSH1 0x20 ADD SWAP1 DUP2 MSTORE PUSH1 0x20 ADD PUSH0 KECCAK256 PUSH0 DUP3 ADD MLOAD DUP2 PUSH0 ADD SSTORE PUSH1 0x20 DUP3 ADD MLOAD DUP2 PUSH1 0x1 ADD SSTORE PUSH1 0x40 DUP3 ADD MLOAD DUP2 PUSH1 0x2 ADD PUSH0 PUSH2 0x100 EXP DUP2 SLOAD DUP2 PUSH1 0xFF MUL NOT AND SWAP1 DUP4 ISZERO ISZERO MUL OR SWAP1 SSTORE POP SWAP1 POP POP POP POP POP POP JUMP JUMPDEST PUSH0 DUP1 PUSH0 SWAP1 POP PUSH0 DUP1 PUSH0 PUSH16 0xD3094C70F034DE4B96FF7D5B6F99FCD8 DUP7 LT PUSH2 0x3C36 JUMPI PUSH16 0x40000000000000000000000000000000 DUP5 PUSH2 0x3BFA SWAP2 SWAP1 PUSH2 0x71A8 JUMP JUMPDEST SWAP4 POP PUSH16 0xD3094C70F034DE4B96FF7D5B6F99FCD8 PUSH16 0x80000000000000000000000000000000 DUP8 PUSH2 0x3C29 SWAP2 SWAP1 PUSH2 0x706D JUMP JUMPDEST PUSH2 0x3C33 SWAP2 SWAP1 PUSH2 0x7178 JUMP JUMPDEST SWAP6 POP JUMPDEST PUSH16 0xA45AF1E1F40C333B3DE1DB4DD55F29A7 DUP7 LT PUSH2 0x3CA5 JUMPI PUSH16 0x20000000000000000000000000000000 DUP5 PUSH2 0x3C69 SWAP2 SWAP1 PUSH2 0x71A8 JUMP JUMPDEST SWAP4 POP PUSH16 0xA45AF1E1F40C333B3DE1DB4DD55F29A7 PUSH16 0x80000000000000000000000000000000 DUP8 PUSH2 0x3C98 SWAP2 SWAP1 PUSH2 0x706D JUMP JUMPDEST PUSH2 0x3CA2 SWAP2 SWAP1 PUSH2 0x7178 JUMP JUMPDEST SWAP6 POP JUMPDEST PUSH16 0x910B022DB7AE67CE76B441C27035C6A1 DUP7 LT PUSH2 0x3D14 JUMPI PUSH16 0x10000000000000000000000000000000 DUP5 PUSH2 0x3CD8 SWAP2 SWAP1 PUSH2 0x71A8 JUMP JUMPDEST SWAP4 POP PUSH16 0x910B022DB7AE67CE76B441C27035C6A1 PUSH16 0x80000000000000000000000000000000 DUP8 PUSH2 0x3D07 SWAP2 SWAP1 PUSH2 0x706D JUMP JUMPDEST PUSH2 0x3D11 SWAP2 SWAP1 PUSH2 0x7178 JUMP JUMPDEST SWAP6 POP JUMPDEST PUSH16 0x88415ABBE9A76BEAD8D00CF112E4D4A8 DUP7 LT PUSH2 0x3D83 JUMPI PUSH16 0x8000000000000000000000000000000 DUP5 PUSH2 0x3D47 SWAP2 SWAP1 PUSH2 0x71A8 JUMP JUMPDEST SWAP4 POP PUSH16 0x88415ABBE9A76BEAD8D00CF112E4D4A8 PUSH16 0x80000000000000000000000000000000 DUP8 PUSH2 0x3D76 SWAP2 SWAP1 PUSH2 0x706D JUMP JUMPDEST PUSH2 0x3D80 SWAP2 SWAP1 PUSH2 0x7178 JUMP JUMPDEST SWAP6 POP JUMPDEST PUSH16 0x84102B00893F64C705E841D5D4064BD3 DUP7 LT PUSH2 0x3DF2 JUMPI PUSH16 0x4000000000000000000000000000000 DUP5 PUSH2 0x3DB6 SWAP2 SWAP1 PUSH2 0x71A8 JUMP JUMPDEST SWAP4 POP PUSH16 0x84102B00893F64C705E841D5D4064BD3 PUSH16 0x80000000000000000000000000000000 DUP8 PUSH2 0x3DE5 SWAP2 SWAP1 PUSH2 0x706D JUMP JUMPDEST PUSH2 0x3DEF SWAP2 SWAP1 PUSH2 0x7178 JUMP JUMPDEST SWAP6 POP JUMPDEST PUSH16 0x8204055AAEF1C8BD5C3259F4822735A2 DUP7 LT PUSH2 0x3E61 JUMPI PUSH16 0x2000000000000000000000000000000 DUP5 PUSH2 0x3E25 SWAP2 SWAP1 PUSH2 0x71A8 JUMP JUMPDEST SWAP4 POP PUSH16 0x8204055AAEF1C8BD5C3259F4822735A2 PUSH16 0x80000000000000000000000000000000 DUP8 PUSH2 0x3E54 SWAP2 SWAP1 PUSH2 0x706D JUMP JUMPDEST PUSH2 0x3E5E SWAP2 SWAP1 PUSH2 0x7178 JUMP JUMPDEST SWAP6 POP JUMPDEST PUSH16 0x810100AB00222D861931C15E39B44E99 DUP7 LT PUSH2 0x3ED0 JUMPI PUSH16 0x1000000000000000000000000000000 DUP5 PUSH2 0x3E94 SWAP2 SWAP1 PUSH2 0x71A8 JUMP JUMPDEST SWAP4 POP PUSH16 0x810100AB00222D861931C15E39B44E99 PUSH16 0x80000000000000000000000000000000 DUP8 PUSH2 0x3EC3 SWAP2 SWAP1 PUSH2 0x706D JUMP JUMPDEST PUSH2 0x3ECD SWAP2 SWAP1 PUSH2 0x7178 JUMP JUMPDEST SWAP6 POP JUMPDEST PUSH16 0x808040155AABBBE9451521693554F733 DUP7 LT PUSH2 0x3F3E JUMPI PUSH15 0x800000000000000000000000000000 DUP5 PUSH2 0x3F02 SWAP2 SWAP1 PUSH2 0x71A8 JUMP JUMPDEST SWAP4 POP PUSH16 0x808040155AABBBE9451521693554F733 PUSH16 0x80000000000000000000000000000000 DUP8 PUSH2 0x3F31 SWAP2 SWAP1 PUSH2 0x706D JUMP JUMPDEST PUSH2 0x3F3B SWAP2 SWAP1 PUSH2 0x7178 JUMP JUMPDEST SWAP6 POP JUMPDEST PUSH16 0x80000000000000000000000000000000 DUP7 PUSH2 0x3F5A SWAP2 SWAP1 PUSH2 0x6CCC JUMP JUMPDEST SWAP3 POP DUP3 SWAP2 POP PUSH16 0x80000000000000000000000000000000 DUP4 DUP5 PUSH2 0x3F7C SWAP2 SWAP1 PUSH2 0x706D JUMP JUMPDEST PUSH2 0x3F86 SWAP2 SWAP1 PUSH2 0x7178 JUMP JUMPDEST SWAP1 POP PUSH17 0x100000000000000000000000000000000 DUP4 PUSH17 0x100000000000000000000000000000000 PUSH2 0x3FB7 SWAP2 SWAP1 PUSH2 0x6CCC JUMP JUMPDEST DUP4 PUSH2 0x3FC2 SWAP2 SWAP1 PUSH2 0x706D JUMP JUMPDEST PUSH2 0x3FCC SWAP2 SWAP1 PUSH2 0x7178 JUMP JUMPDEST DUP5 PUSH2 0x3FD7 SWAP2 SWAP1 PUSH2 0x71A8 JUMP JUMPDEST SWAP4 POP PUSH16 0x80000000000000000000000000000000 DUP2 DUP4 PUSH2 0x3FF6 SWAP2 SWAP1 PUSH2 0x706D JUMP JUMPDEST PUSH2 0x4000 SWAP2 SWAP1 PUSH2 0x7178 JUMP JUMPDEST SWAP2 POP PUSH17 0x200000000000000000000000000000000 DUP4 PUSH16 0xAAAAAAAAAAAAAAAAAAAAAAAAAAAAAAAA PUSH2 0x4030 SWAP2 SWAP1 PUSH2 0x6CCC JUMP JUMPDEST DUP4 PUSH2 0x403B SWAP2 SWAP1 PUSH2 0x706D JUMP JUMPDEST PUSH2 0x4045 SWAP2 SWAP1 PUSH2 0x7178 JUMP JUMPDEST DUP5 PUSH2 0x4050 SWAP2 SWAP1 PUSH2 0x71A8 JUMP JUMPDEST SWAP4 POP PUSH16 0x80000000000000000000000000000000 DUP2 DUP4 PUSH2 0x406F SWAP2 SWAP1 PUSH2 0x706D JUMP JUMPDEST PUSH2 0x4079 SWAP2 SWAP1 PUSH2 0x7178 JUMP JUMPDEST SWAP2 POP PUSH17 0x300000000000000000000000000000000 DUP4 PUSH16 0x99999999999999999999999999999999 PUSH2 0x40A9 SWAP2 SWAP1 PUSH2 0x6CCC JUMP JUMPDEST DUP4 PUSH2 0x40B4 SWAP2 SWAP1 PUSH2 0x706D JUMP JUMPDEST PUSH2 0x40BE SWAP2 SWAP1 PUSH2 0x7178 JUMP JUMPDEST DUP5 PUSH2 0x40C9 SWAP2 SWAP1 PUSH2 0x71A8 JUMP JUMPDEST SWAP4 POP PUSH16 0x80000000000000000000000000000000 DUP2 DUP4 PUSH2 0x40E8 SWAP2 SWAP1 PUSH2 0x706D JUMP JUMPDEST PUSH2 0x40F2 SWAP2 SWAP1 PUSH2 0x7178 JUMP JUMPDEST SWAP2 POP PUSH17 0x400000000000000000000000000000000 DUP4 PUSH16 0x92492492492492492492492492492492 PUSH2 0x4122 SWAP2 SWAP1 PUSH2 0x6CCC JUMP JUMPDEST DUP4 PUSH2 0x412D SWAP2 SWAP1 PUSH2 0x706D JUMP JUMPDEST PUSH2 0x4137 SWAP2 SWAP1 PUSH2 0x7178 JUMP JUMPDEST DUP5 PUSH2 0x4142 SWAP2 SWAP1 PUSH2 0x71A8 JUMP JUMPDEST SWAP4 POP PUSH16 0x80000000000000000000000000000000 DUP2 DUP4 PUSH2 0x4161 SWAP2 SWAP1 PUSH2 0x706D JUMP JUMPDEST PUSH2 0x416B SWAP2 SWAP1 PUSH2 0x7178 JUMP JUMPDEST SWAP2 POP PUSH17 0x500000000000000000000000000000000 DUP4 PUSH16 0x8E38E38E38E38E38E38E38E38E38E38E PUSH2 0x419B SWAP2 SWAP1 PUSH2 0x6CCC JUMP JUMPDEST DUP4 PUSH2 0x41A6 SWAP2 SWAP1 PUSH2 0x706D JUMP JUMPDEST PUSH2 0x41B0 SWAP2 SWAP1 PUSH2 0x7178 JUMP JUMPDEST DUP5 PUSH2 0x41BB SWAP2 SWAP1 PUSH2 0x71A8 JUMP JUMPDEST SWAP4 POP PUSH16 0x80000000000000000000000000000000 DUP2 DUP4 PUSH2 0x41DA SWAP2 SWAP1 PUSH2 0x706D JUMP JUMPDEST PUSH2 0x41E4 SWAP2 SWAP1 PUSH2 0x7178 JUMP JUMPDEST SWAP2 POP PUSH17 0x600000000000000000000000000000000 DUP4 PUSH16 0x8BA2E8BA2E8BA2E8BA2E8BA2E8BA2E8B PUSH2 0x4214 SWAP2 SWAP1 PUSH2 0x6CCC JUMP JUMPDEST DUP4 PUSH2 0x421F SWAP2 SWAP1 PUSH2 0x706D JUMP JUMPDEST PUSH2 0x4229 SWAP2 SWAP1 PUSH2 0x7178 JUMP JUMPDEST DUP5 PUSH2 0x4234 SWAP2 SWAP1 PUSH2 0x71A8 JUMP JUMPDEST SWAP4 POP PUSH16 0x80000000000000000000000000000000 DUP2 DUP4 PUSH2 0x4253 SWAP2 SWAP1 PUSH2 0x706D JUMP JUMPDEST PUSH2 0x425D SWAP2 SWAP1 PUSH2 0x7178 JUMP JUMPDEST SWAP2 POP PUSH17 0x700000000000000000000000000000000 DUP4 PUSH16 0x89D89D89D89D89D89D89D89D89D89D89 PUSH2 0x428D SWAP2 SWAP1 PUSH2 0x6CCC JUMP JUMPDEST DUP4 PUSH2 0x4298 SWAP2 SWAP1 PUSH2 0x706D JUMP JUMPDEST PUSH2 0x42A2 SWAP2 SWAP1 PUSH2 0x7178 JUMP JUMPDEST DUP5 PUSH2 0x42AD SWAP2 SWAP1 PUSH2 0x71A8 JUMP JUMPDEST SWAP4 POP PUSH16 0x80000000000000000000000000000000 DUP2 DUP4 PUSH2 0x42CC SWAP2 SWAP1 PUSH2 0x706D JUMP JUMPDEST PUSH2 0x42D6 SWAP2 SWAP1 PUSH2 0x7178 JUMP JUMPDEST SWAP2 POP PUSH17 0x800000000000000000000000000000000 DUP4 PUSH16 0x88888888888888888888888888888888 PUSH2 0x4306 SWAP2 SWAP1 PUSH2 0x6CCC JUMP JUMPDEST DUP4 PUSH2 0x4311 SWAP2 SWAP1 PUSH2 0x706D JUMP JUMPDEST PUSH2 0x431B SWAP2 SWAP1 PUSH2 0x7178 JUMP JUMPDEST DUP5 PUSH2 0x4326 SWAP2 SWAP1 PUSH2 0x71A8 JUMP JUMPDEST SWAP4 POP DUP4 SWAP5 POP POP POP POP POP SWAP2 SWAP1 POP JUMP JUMPDEST PUSH0 DUP1 PUSH0 SWAP1 POP PUSH0 DUP4 SWAP1 POP PUSH17 0x100000000000000000000000000000000 DUP2 LT PUSH2 0x43A8 JUMPI PUSH0 PUSH2 0x437A PUSH16 0x80000000000000000000000000000000 DUP4 PUSH2 0x4375 SWAP2 SWAP1 PUSH2 0x7178 JUMP JUMPDEST PUSH2 0x55F0 JUMP JUMPDEST SWAP1 POP DUP1 PUSH1 0xFF AND DUP3 SWAP1 SHR SWAP2 POP PUSH16 0x80000000000000000000000000000000 DUP2 PUSH1 0xFF AND PUSH2 0x43A4 SWAP2 SWAP1 PUSH2 0x706D JUMP JUMPDEST SWAP3 POP POP JUMPDEST PUSH16 0x80000000000000000000000000000000 DUP2 GT ISZERO PUSH2 0x444E JUMPI PUSH0 PUSH1 0x7F SWAP1 POP JUMPDEST PUSH0 DUP2 PUSH1 0xFF AND GT ISZERO PUSH2 0x444C JUMPI PUSH16 0x80000000000000000000000000000000 DUP3 DUP4 PUSH2 0x43EE SWAP2 SWAP1 PUSH2 0x706D JUMP JUMPDEST PUSH2 0x43F8 SWAP2 SWAP1 PUSH2 0x7178 JUMP JUMPDEST SWAP2 POP PUSH17 0x100000000000000000000000000000000 DUP3 LT PUSH2 0x443B JUMPI PUSH1 0x1 DUP3 SWAP1 SHR SWAP2 POP PUSH1 0x1 DUP2 PUSH2 0x4426 SWAP2 SWAP1 PUSH2 0x72B7 JUMP JUMPDEST PUSH1 0xFF AND PUSH1 0x1 SWAP1 SHL DUP4 PUSH2 0x4438 SWAP2 SWAP1 PUSH2 0x71A8 JUMP JUMPDEST SWAP3 POP JUMPDEST DUP1 PUSH2 0x4445 SWAP1 PUSH2 0x7736 JUMP JUMPDEST SWAP1 POP PUSH2 0x43C6 JUMP JUMPDEST POP JUMPDEST PUSH16 0x5B9DE1D10BF4103D647B0955897BA80 PUSH16 0x3F80FE03F80FE03F80FE03F80FE03F8 DUP4 PUSH2 0x447B SWAP2 SWAP1 PUSH2 0x706D JUMP JUMPDEST PUSH2 0x4485 SWAP2 SWAP1 PUSH2 0x7178 JUMP JUMPDEST SWAP3 POP POP POP SWAP2 SWAP1 POP JUMP JUMPDEST PUSH0 DUP1 PUSH0 SWAP1 POP PUSH0 DUP1 PUSH16 0x10000000000000000000000000000000 DUP6 PUSH2 0x44B1 SWAP2 SWAP1 PUSH2 0x775D JUMP JUMPDEST SWAP2 POP DUP2 SWAP1 POP PUSH16 0x80000000000000000000000000000000 DUP3 DUP3 PUSH2 0x44D3 SWAP2 SWAP1 PUSH2 0x706D JUMP JUMPDEST PUSH2 0x44DD SWAP2 SWAP1 PUSH2 0x7178 JUMP JUMPDEST SWAP1 POP PUSH8 0x10E1B3BE415A0000 DUP2 PUSH2 0x44F3 SWAP2 SWAP1 PUSH2 0x706D JUMP JUMPDEST DUP4 PUSH2 0x44FE SWAP2 SWAP1 PUSH2 0x71A8 JUMP JUMPDEST SWAP3 POP PUSH16 0x80000000000000000000000000000000 DUP3 DUP3 PUSH2 0x451D SWAP2 SWAP1 PUSH2 0x706D JUMP JUMPDEST PUSH2 0x4527 SWAP2 SWAP1 PUSH2 0x7178 JUMP JUMPDEST SWAP1 POP PUSH8 0x5A0913F6B1E0000 DUP2 PUSH2 0x453D SWAP2 SWAP1 PUSH2 0x706D JUMP JUMPDEST DUP4 PUSH2 0x4548 SWAP2 SWAP1 PUSH2 0x71A8 JUMP JUMPDEST SWAP3 POP PUSH16 0x80000000000000000000000000000000 DUP3 DUP3 PUSH2 0x4567 SWAP2 SWAP1 PUSH2 0x706D JUMP JUMPDEST PUSH2 0x4571 SWAP2 SWAP1 PUSH2 0x7178 JUMP JUMPDEST SWAP1 POP PUSH8 0x168244FDAC78000 DUP2 PUSH2 0x4587 SWAP2 SWAP1 PUSH2 0x706D JUMP JUMPDEST DUP4 PUSH2 0x4592 SWAP2 SWAP1 PUSH2 0x71A8 JUMP JUMPDEST SWAP3 POP PUSH16 0x80000000000000000000000000000000 DUP3 DUP3 PUSH2 0x45B1 SWAP2 SWAP1 PUSH2 0x706D JUMP JUMPDEST PUSH2 0x45BB SWAP2 SWAP1 PUSH2 0x7178 JUMP JUMPDEST SWAP1 POP PUSH7 0x4807432BC18000 DUP2 PUSH2 0x45D0 SWAP2 SWAP1 PUSH2 0x706D JUMP JUMPDEST DUP4 PUSH2 0x45DB SWAP2 SWAP1 PUSH2 0x71A8 JUMP JUMPDEST SWAP3 POP PUSH16 0x80000000000000000000000000000000 DUP3 DUP3 PUSH2 0x45FA SWAP2 SWAP1 PUSH2 0x706D JUMP JUMPDEST PUSH2 0x4604 SWAP2 SWAP1 PUSH2 0x7178 JUMP JUMPDEST SWAP1 POP PUSH7 0xC0135DCA04000 DUP2 PUSH2 0x4619 SWAP2 SWAP1 PUSH2 0x706D JUMP JUMPDEST DUP4 PUSH2 0x4624 SWAP2 SWAP1 PUSH2 0x71A8 JUMP JUMPDEST SWAP3 POP PUSH16 0x80000000000000000000000000000000 DUP3 DUP3 PUSH2 0x4643 SWAP2 SWAP1 PUSH2 0x706D JUMP JUMPDEST PUSH2 0x464D SWAP2 SWAP1 PUSH2 0x7178 JUMP JUMPDEST SWAP1 POP PUSH7 0x1B707B1CDC000 DUP2 PUSH2 0x4662 SWAP2 SWAP1 PUSH2 0x706D JUMP JUMPDEST DUP4 PUSH2 0x466D SWAP2 SWAP1 PUSH2 0x71A8 JUMP JUMPDEST SWAP3 POP PUSH16 0x80000000000000000000000000000000 DUP3 DUP3 PUSH2 0x468C SWAP2 SWAP1 PUSH2 0x706D JUMP JUMPDEST PUSH2 0x4696 SWAP2 SWAP1 PUSH2 0x7178 JUMP JUMPDEST SWAP1 POP PUSH6 0x36E0F639B800 DUP2 PUSH2 0x46AA SWAP2 SWAP1 PUSH2 0x706D JUMP JUMPDEST DUP4 PUSH2 0x46B5 SWAP2 SWAP1 PUSH2 0x71A8 JUMP JUMPDEST SWAP3 POP PUSH16 0x80000000000000000000000000000000 DUP3 DUP3 PUSH2 0x46D4 SWAP2 SWAP1 PUSH2 0x706D JUMP JUMPDEST PUSH2 0x46DE SWAP2 SWAP1 PUSH2 0x7178 JUMP JUMPDEST SWAP1 POP PUSH6 0x618FEE9F800 DUP2 PUSH2 0x46F2 SWAP2 SWAP1 PUSH2 0x706D JUMP JUMPDEST DUP4 PUSH2 0x46FD SWAP2 SWAP1 PUSH2 0x71A8 JUMP JUMPDEST SWAP3 POP PUSH16 0x80000000000000000000000000000000 DUP3 DUP3 PUSH2 0x471C SWAP2 SWAP1 PUSH2 0x706D JUMP JUMPDEST PUSH2 0x4726 SWAP2 SWAP1 PUSH2 0x7178 JUMP JUMPDEST SWAP1 POP PUSH5 0x9C197DCC00 DUP2 PUSH2 0x4739 SWAP2 SWAP1 PUSH2 0x706D JUMP JUMPDEST DUP4 PUSH2 0x4744 SWAP2 SWAP1 PUSH2 0x71A8 JUMP JUMPDEST SWAP3 POP PUSH16 0x80000000000000000000000000000000 DUP3 DUP3 PUSH2 0x4763 SWAP2 SWAP1 PUSH2 0x706D JUMP JUMPDEST PUSH2 0x476D SWAP2 SWAP1 PUSH2 0x7178 JUMP JUMPDEST SWAP1 POP PUSH5 0xE30DCE400 DUP2 PUSH2 0x4780 SWAP2 SWAP1 PUSH2 0x706D JUMP JUMPDEST DUP4 PUSH2 0x478B SWAP2 SWAP1 PUSH2 0x71A8 JUMP JUMPDEST SWAP3 POP PUSH16 0x80000000000000000000000000000000 DUP3 DUP3 PUSH2 0x47AA SWAP2 SWAP1 PUSH2 0x706D JUMP JUMPDEST PUSH2 0x47B4 SWAP2 SWAP1 PUSH2 0x7178 JUMP JUMPDEST SWAP1 POP PUSH5 0x12EBD1300 DUP2 PUSH2 0x47C7 SWAP2 SWAP1 PUSH2 0x706D JUMP JUMPDEST DUP4 PUSH2 0x47D2 SWAP2 SWAP1 PUSH2 0x71A8 JUMP JUMPDEST SWAP3 POP PUSH16 0x80000000000000000000000000000000 DUP3 DUP3 PUSH2 0x47F1 SWAP2 SWAP1 PUSH2 0x706D JUMP JUMPDEST PUSH2 0x47FB SWAP2 SWAP1 PUSH2 0x7178 JUMP JUMPDEST SWAP1 POP PUSH4 0x17499F00 DUP2 PUSH2 0x480D SWAP2 SWAP1 PUSH2 0x706D JUMP JUMPDEST DUP4 PUSH2 0x4818 SWAP2 SWAP1 PUSH2 0x71A8 JUMP JUMPDEST SWAP3 POP PUSH16 0x80000000000000000000000000000000 DUP3 DUP3 PUSH2 0x4837 SWAP2 SWAP1 PUSH2 0x706D JUMP JUMPDEST PUSH2 0x4841 SWAP2 SWAP1 PUSH2 0x7178 JUMP JUMPDEST SWAP1 POP PUSH4 0x1A9D480 DUP2 PUSH2 0x4853 SWAP2 SWAP1 PUSH2 0x706D JUMP JUMPDEST DUP4 PUSH2 0x485E SWAP2 SWAP1 PUSH2 0x71A8 JUMP JUMPDEST SWAP3 POP PUSH16 0x80000000000000000000000000000000 DUP3 DUP3 PUSH2 0x487D SWAP2 SWAP1 PUSH2 0x706D JUMP JUMPDEST PUSH2 0x4887 SWAP2 SWAP1 PUSH2 0x7178 JUMP JUMPDEST SWAP1 POP PUSH3 0x1C6380 DUP2 PUSH2 0x4898 SWAP2 SWAP1 PUSH2 0x706D JUMP JUMPDEST DUP4 PUSH2 0x48A3 SWAP2 SWAP1 PUSH2 0x71A8 JUMP JUMPDEST SWAP3 POP PUSH16 0x80000000000000000000000000000000 DUP3 DUP3 PUSH2 0x48C2 SWAP2 SWAP1 PUSH2 0x706D JUMP JUMPDEST PUSH2 0x48CC SWAP2 SWAP1 PUSH2 0x7178 JUMP JUMPDEST SWAP1 POP PUSH3 0x1C638 DUP2 PUSH2 0x48DD SWAP2 SWAP1 PUSH2 0x706D JUMP JUMPDEST DUP4 PUSH2 0x48E8 SWAP2 SWAP1 PUSH2 0x71A8 JUMP JUMPDEST SWAP3 POP PUSH16 0x80000000000000000000000000000000 DUP3 DUP3 PUSH2 0x4907 SWAP2 SWAP1 PUSH2 0x706D JUMP JUMPDEST PUSH2 0x4911 SWAP2 SWAP1 PUSH2 0x7178 JUMP JUMPDEST SWAP1 POP PUSH2 0x1AB8 DUP2 PUSH2 0x4921 SWAP2 SWAP1 PUSH2 0x706D JUMP JUMPDEST DUP4 PUSH2 0x492C SWAP2 SWAP1 PUSH2 0x71A8 JUMP JUMPDEST SWAP3 POP PUSH16 0x80000000000000000000000000000000 DUP3 DUP3 PUSH2 0x494B SWAP2 SWAP1 PUSH2 0x706D JUMP JUMPDEST PUSH2 0x4955 SWAP2 SWAP1 PUSH2 0x7178 JUMP JUMPDEST SWAP1 POP PUSH2 0x17C DUP2 PUSH2 0x4965 SWAP2 SWAP1 PUSH2 0x706D JUMP JUMPDEST DUP4 PUSH2 0x4970 SWAP2 SWAP1 PUSH2 0x71A8 JUMP JUMPDEST SWAP3 POP PUSH16 0x80000000000000000000000000000000 DUP3 DUP3 PUSH2 0x498F SWAP2 SWAP1 PUSH2 0x706D JUMP JUMPDEST PUSH2 0x4999 SWAP2 SWAP1 PUSH2 0x7178 JUMP JUMPDEST SWAP1 POP PUSH1 0x14 DUP2 PUSH2 0x49A8 SWAP2 SWAP1 PUSH2 0x706D JUMP JUMPDEST DUP4 PUSH2 0x49B3 SWAP2 SWAP1 PUSH2 0x71A8 JUMP JUMPDEST SWAP3 POP PUSH16 0x80000000000000000000000000000000 DUP3 DUP3 PUSH2 0x49D2 SWAP2 SWAP1 PUSH2 0x706D JUMP JUMPDEST PUSH2 0x49DC SWAP2 SWAP1 PUSH2 0x7178 JUMP JUMPDEST SWAP1 POP PUSH1 0x1 DUP2 PUSH2 0x49EB SWAP2 SWAP1 PUSH2 0x706D JUMP JUMPDEST DUP4 PUSH2 0x49F6 SWAP2 SWAP1 PUSH2 0x71A8 JUMP JUMPDEST SWAP3 POP PUSH16 0x80000000000000000000000000000000 DUP3 PUSH8 0x21C3677C82B40000 DUP6 PUSH2 0x4A1E SWAP2 SWAP1 PUSH2 0x7178 JUMP JUMPDEST PUSH2 0x4A28 SWAP2 SWAP1 PUSH2 0x71A8 JUMP JUMPDEST PUSH2 0x4A32 SWAP2 SWAP1 PUSH2 0x71A8 JUMP JUMPDEST SWAP3 POP PUSH0 PUSH16 0x10000000000000000000000000000000 DUP7 AND EQ PUSH2 0x4A89 JUMPI PUSH17 0x18EBEF9EAC820AE8682B9793AC6D1E776 PUSH17 0x1C3D6A24ED82218787D624D3E5EBA95F9 DUP5 PUSH2 0x4A7C SWAP2 SWAP1 PUSH2 0x706D JUMP JUMPDEST PUSH2 0x4A86 SWAP2 SWAP1 PUSH2 0x7178 JUMP JUMPDEST SWAP3 POP JUMPDEST PUSH0 PUSH16 0x20000000000000000000000000000000 DUP7 AND EQ PUSH2 0x4ADE JUMPI PUSH17 0x1368B2FC6F9609FE7ACEB46AA619BAED4 PUSH17 0x18EBEF9EAC820AE8682B9793AC6D1E778 DUP5 PUSH2 0x4AD1 SWAP2 SWAP1 PUSH2 0x706D JUMP JUMPDEST PUSH2 0x4ADB SWAP2 SWAP1 PUSH2 0x7178 JUMP JUMPDEST SWAP3 POP JUMPDEST PUSH0 PUSH16 0x40000000000000000000000000000000 DUP7 AND EQ PUSH2 0x4B32 JUMPI PUSH16 0xBC5AB1B16779BE3575BD8F0520A9F21F PUSH17 0x1368B2FC6F9609FE7ACEB46AA619BAED5 DUP5 PUSH2 0x4B25 SWAP2 SWAP1 PUSH2 0x706D JUMP JUMPDEST PUSH2 0x4B2F SWAP2 SWAP1 PUSH2 0x7178 JUMP JUMPDEST SWAP3 POP JUMPDEST PUSH0 PUSH16 0x80000000000000000000000000000000 DUP7 AND EQ PUSH2 0x4B85 JUMPI PUSH16 0x454AAA8EFE072E7F6DDBAB84B40A55C9 PUSH16 0xBC5AB1B16779BE3575BD8F0520A9F21E DUP5 PUSH2 0x4B78 SWAP2 SWAP1 PUSH2 0x706D JUMP JUMPDEST PUSH2 0x4B82 SWAP2 SWAP1 PUSH2 0x7178 JUMP JUMPDEST SWAP3 POP JUMPDEST PUSH0 PUSH17 0x100000000000000000000000000000000 DUP7 AND EQ PUSH2 0x4BD9 JUMPI PUSH16 0x960AADC109E7A3BF4578099615711EA PUSH16 0x454AAA8EFE072E7F6DDBAB84B40A55C5 DUP5 PUSH2 0x4BCC SWAP2 SWAP1 PUSH2 0x706D JUMP JUMPDEST PUSH2 0x4BD6 SWAP2 SWAP1 PUSH2 0x7178 JUMP JUMPDEST SWAP3 POP JUMPDEST PUSH0 PUSH17 0x200000000000000000000000000000000 DUP7 AND EQ PUSH2 0x4C2C JUMPI PUSH15 0x2BF84208204F5977F9A8CF01FDCE3D PUSH16 0x960AADC109E7A3BF4578099615711D7 DUP5 PUSH2 0x4C1F SWAP2 SWAP1 PUSH2 0x706D JUMP JUMPDEST PUSH2 0x4C29 SWAP2 SWAP1 PUSH2 0x7178 JUMP JUMPDEST SWAP3 POP JUMPDEST PUSH0 PUSH17 0x400000000000000000000000000000000 DUP7 AND EQ PUSH2 0x4C7D JUMPI PUSH14 0x3C6AB775DD0B95B4CBEE7E65D11 PUSH15 0x2BF84208204F5977F9A8CF01FDC307 DUP5 PUSH2 0x4C70 SWAP2 SWAP1 PUSH2 0x706D JUMP JUMPDEST PUSH2 0x4C7A SWAP2 SWAP1 PUSH2 0x7178 JUMP JUMPDEST SWAP3 POP JUMPDEST DUP3 SWAP4 POP POP POP POP SWAP2 SWAP1 POP JUMP JUMPDEST PUSH0 DUP1 PUSH1 0x20 SWAP1 POP PUSH0 PUSH1 0x7F SWAP1 POP JUMPDEST DUP1 PUSH1 0xFF AND PUSH1 0x1 DUP4 PUSH2 0x4CA5 SWAP2 SWAP1 PUSH2 0x778D JUMP JUMPDEST PUSH1 0xFF AND LT ISZERO PUSH2 0x4CFA JUMPI PUSH0 PUSH1 0x2 DUP3 DUP5 PUSH2 0x4CBD SWAP2 SWAP1 PUSH2 0x778D JUMP JUMPDEST PUSH2 0x4CC7 SWAP2 SWAP1 PUSH2 0x77C1 JUMP JUMPDEST SWAP1 POP DUP5 PUSH1 0x1 DUP3 PUSH1 0xFF AND PUSH1 0x80 DUP2 LT PUSH2 0x4CE1 JUMPI PUSH2 0x4CE0 PUSH2 0x6E1D JUMP JUMPDEST JUMPDEST ADD SLOAD LT PUSH2 0x4CF0 JUMPI DUP1 SWAP3 POP PUSH2 0x4CF4 JUMP JUMPDEST DUP1 SWAP2 POP JUMPDEST POP PUSH2 0x4C94 JUMP JUMPDEST DUP4 PUSH1 0x1 DUP3 PUSH1 0xFF AND PUSH1 0x80 DUP2 LT PUSH2 0x4D12 JUMPI PUSH2 0x4D11 PUSH2 0x6E1D JUMP JUMPDEST JUMPDEST ADD SLOAD LT PUSH2 0x4D23 JUMPI DUP1 SWAP3 POP POP POP PUSH2 0x4D60 JUMP JUMPDEST DUP4 PUSH1 0x1 DUP4 PUSH1 0xFF AND PUSH1 0x80 DUP2 LT PUSH2 0x4D3B JUMPI PUSH2 0x4D3A PUSH2 0x6E1D JUMP JUMPDEST JUMPDEST ADD SLOAD LT PUSH2 0x4D4C JUMPI DUP2 SWAP3 POP POP POP PUSH2 0x4D60 JUMP JUMPDEST PUSH0 PUSH2 0x4D5A JUMPI PUSH2 0x4D59 PUSH2 0x77F1 JUMP JUMPDEST JUMPDEST PUSH0 SWAP3 POP POP POP JUMPDEST SWAP2 SWAP1 POP JUMP JUMPDEST PUSH0 DUP1 DUP4 SWAP1 POP PUSH0 DUP4 PUSH1 0xFF AND DUP6 DUP4 PUSH2 0x4D7B SWAP2 SWAP1 PUSH2 0x706D JUMP JUMPDEST SWAP1 SHR SWAP2 POP PUSH16 0x3442C4E6074A82F1797F72AC0000000 DUP3 PUSH2 0x4D9B SWAP2 SWAP1 PUSH2 0x706D JUMP JUMPDEST DUP2 PUSH2 0x4DA6 SWAP2 SWAP1 PUSH2 0x71A8 JUMP JUMPDEST SWAP1 POP DUP4 PUSH1 0xFF AND DUP6 DUP4 PUSH2 0x4DB8 SWAP2 SWAP1 PUSH2 0x706D JUMP JUMPDEST SWAP1 SHR SWAP2 POP PUSH16 0x116B96F757C380FB287FD0E40000000 DUP3 PUSH2 0x4DD8 SWAP2 SWAP1 PUSH2 0x706D JUMP JUMPDEST DUP2 PUSH2 0x4DE3 SWAP2 SWAP1 PUSH2 0x71A8 JUMP JUMPDEST SWAP1 POP DUP4 PUSH1 0xFF AND DUP6 DUP4 PUSH2 0x4DF5 SWAP2 SWAP1 PUSH2 0x706D JUMP JUMPDEST SWAP1 SHR SWAP2 POP PUSH15 0x45AE5BDD5F0E03ECA1FF4390000000 DUP3 PUSH2 0x4E14 SWAP2 SWAP1 PUSH2 0x706D JUMP JUMPDEST DUP2 PUSH2 0x4E1F SWAP2 SWAP1 PUSH2 0x71A8 JUMP JUMPDEST SWAP1 POP DUP4 PUSH1 0xFF AND DUP6 DUP4 PUSH2 0x4E31 SWAP2 SWAP1 PUSH2 0x706D JUMP JUMPDEST SWAP1 SHR SWAP2 POP PUSH15 0xDEFABF91302CD95B9FFDA50000000 DUP3 PUSH2 0x4E50 SWAP2 SWAP1 PUSH2 0x706D JUMP JUMPDEST DUP2 PUSH2 0x4E5B SWAP2 SWAP1 PUSH2 0x71A8 JUMP JUMPDEST SWAP1 POP DUP4 PUSH1 0xFF AND DUP6 DUP4 PUSH2 0x4E6D SWAP2 SWAP1 PUSH2 0x706D JUMP JUMPDEST SWAP1 SHR SWAP2 POP PUSH15 0x2529CA9832B22439EFFF9B8000000 DUP3 PUSH2 0x4E8C SWAP2 SWAP1 PUSH2 0x706D JUMP JUMPDEST DUP2 PUSH2 0x4E97 SWAP2 SWAP1 PUSH2 0x71A8 JUMP JUMPDEST SWAP1 POP DUP4 PUSH1 0xFF AND DUP6 DUP4 PUSH2 0x4EA9 SWAP2 SWAP1 PUSH2 0x706D JUMP JUMPDEST SWAP1 SHR SWAP2 POP PUSH14 0x54F1CF12BD04E516B6DA88000000 DUP3 PUSH2 0x4EC7 SWAP2 SWAP1 PUSH2 0x706D JUMP JUMPDEST DUP2 PUSH2 0x4ED2 SWAP2 SWAP1 PUSH2 0x71A8 JUMP JUMPDEST SWAP1 POP DUP4 PUSH1 0xFF AND DUP6 DUP4 PUSH2 0x4EE4 SWAP2 SWAP1 PUSH2 0x706D JUMP JUMPDEST SWAP1 SHR SWAP2 POP PUSH14 0xA9E39E257A09CA2D6DB51000000 DUP3 PUSH2 0x4F02 SWAP2 SWAP1 PUSH2 0x706D JUMP JUMPDEST DUP2 PUSH2 0x4F0D SWAP2 SWAP1 PUSH2 0x71A8 JUMP JUMPDEST SWAP1 POP DUP4 PUSH1 0xFF AND DUP6 DUP4 PUSH2 0x4F1F SWAP2 SWAP1 PUSH2 0x706D JUMP JUMPDEST SWAP1 SHR SWAP2 POP PUSH14 0x12E066E7B839FA050C309000000 DUP3 PUSH2 0x4F3D SWAP2 SWAP1 PUSH2 0x706D JUMP JUMPDEST DUP2 PUSH2 0x4F48 SWAP2 SWAP1 PUSH2 0x71A8 JUMP JUMPDEST SWAP1 POP DUP4 PUSH1 0xFF AND DUP6 DUP4 PUSH2 0x4F5A SWAP2 SWAP1 PUSH2 0x706D JUMP JUMPDEST SWAP1 SHR SWAP2 POP PUSH13 0x1E33D7D926C329A1AD1A800000 DUP3 PUSH2 0x4F77 SWAP2 SWAP1 PUSH2 0x706D JUMP JUMPDEST DUP2 PUSH2 0x4F82 SWAP2 SWAP1 PUSH2 0x71A8 JUMP JUMPDEST SWAP1 POP DUP4 PUSH1 0xFF AND DUP6 DUP4 PUSH2 0x4F94 SWAP2 SWAP1 PUSH2 0x706D JUMP JUMPDEST SWAP1 SHR SWAP2 POP PUSH13 0x2BEE513BDB4A6B19B5F800000 DUP3 PUSH2 0x4FB1 SWAP2 SWAP1 PUSH2 0x706D JUMP JUMPDEST DUP2 PUSH2 0x4FBC SWAP2 SWAP1 PUSH2 0x71A8 JUMP JUMPDEST SWAP1 POP DUP4 PUSH1 0xFF AND DUP6 DUP4 PUSH2 0x4FCE SWAP2 SWAP1 PUSH2 0x706D JUMP JUMPDEST SWAP1 SHR SWAP2 POP PUSH12 0x3A9316FA79B88ECCF2A00000 DUP3 PUSH2 0x4FEA SWAP2 SWAP1 PUSH2 0x706D JUMP JUMPDEST DUP2 PUSH2 0x4FF5 SWAP2 SWAP1 PUSH2 0x71A8 JUMP JUMPDEST SWAP1 POP DUP4 PUSH1 0xFF AND DUP6 DUP4 PUSH2 0x5007 SWAP2 SWAP1 PUSH2 0x706D JUMP JUMPDEST SWAP1 SHR SWAP2 POP PUSH12 0x48177EBE1FA812375200000 DUP3 PUSH2 0x5023 SWAP2 SWAP1 PUSH2 0x706D JUMP JUMPDEST DUP2 PUSH2 0x502E SWAP2 SWAP1 PUSH2 0x71A8 JUMP JUMPDEST SWAP1 POP DUP4 PUSH1 0xFF AND DUP6 DUP4 PUSH2 0x5040 SWAP2 SWAP1 PUSH2 0x706D JUMP JUMPDEST SWAP1 SHR SWAP2 POP PUSH11 0x5263FE90242DCBACF00000 DUP3 PUSH2 0x505B SWAP2 SWAP1 PUSH2 0x706D JUMP JUMPDEST DUP2 PUSH2 0x5066 SWAP2 SWAP1 PUSH2 0x71A8 JUMP JUMPDEST SWAP1 POP DUP4 PUSH1 0xFF AND DUP6 DUP4 PUSH2 0x5078 SWAP2 SWAP1 PUSH2 0x706D JUMP JUMPDEST SWAP1 SHR SWAP2 POP PUSH11 0x57E22099C030D94100000 DUP3 PUSH2 0x5093 SWAP2 SWAP1 PUSH2 0x706D JUMP JUMPDEST DUP2 PUSH2 0x509E SWAP2 SWAP1 PUSH2 0x71A8 JUMP JUMPDEST SWAP1 POP DUP4 PUSH1 0xFF AND DUP6 DUP4 PUSH2 0x50B0 SWAP2 SWAP1 PUSH2 0x706D JUMP JUMPDEST SWAP1 SHR SWAP2 POP PUSH10 0x57E22099C030D9410000 DUP3 PUSH2 0x50CA SWAP2 SWAP1 PUSH2 0x706D JUMP JUMPDEST DUP2 PUSH2 0x50D5 SWAP2 SWAP1 PUSH2 0x71A8 JUMP JUMPDEST SWAP1 POP DUP4 PUSH1 0xFF AND DUP6 DUP4 PUSH2 0x50E7 SWAP2 SWAP1 PUSH2 0x706D JUMP JUMPDEST SWAP1 SHR SWAP2 POP PUSH10 0x52B6B54569976310000 DUP3 PUSH2 0x5101 SWAP2 SWAP1 PUSH2 0x706D JUMP JUMPDEST DUP2 PUSH2 0x510C SWAP2 SWAP1 PUSH2 0x71A8 JUMP JUMPDEST SWAP1 POP DUP4 PUSH1 0xFF AND DUP6 DUP4 PUSH2 0x511E SWAP2 SWAP1 PUSH2 0x706D JUMP JUMPDEST SWAP1 SHR SWAP2 POP PUSH9 0x4985F67696BF748000 DUP3 PUSH2 0x5137 SWAP2 SWAP1 PUSH2 0x706D JUMP JUMPDEST DUP2 PUSH2 0x5142 SWAP2 SWAP1 PUSH2 0x71A8 JUMP JUMPDEST SWAP1 POP DUP4 PUSH1 0xFF AND DUP6 DUP4 PUSH2 0x5154 SWAP2 SWAP1 PUSH2 0x706D JUMP JUMPDEST SWAP1 SHR SWAP2 POP PUSH9 0x3DEA12EA99E498000 DUP3 PUSH2 0x516D SWAP2 SWAP1 PUSH2 0x706D JUMP JUMPDEST DUP2 PUSH2 0x5178 SWAP2 SWAP1 PUSH2 0x71A8 JUMP JUMPDEST SWAP1 POP DUP4 PUSH1 0xFF AND DUP6 DUP4 PUSH2 0x518A SWAP2 SWAP1 PUSH2 0x706D JUMP JUMPDEST SWAP1 SHR SWAP2 POP PUSH8 0x31880F2214B6E000 DUP3 PUSH2 0x51A2 SWAP2 SWAP1 PUSH2 0x706D JUMP JUMPDEST DUP2 PUSH2 0x51AD SWAP2 SWAP1 PUSH2 0x71A8 JUMP JUMPDEST SWAP1 POP DUP4 PUSH1 0xFF AND DUP6 DUP4 PUSH2 0x51BF SWAP2 SWAP1 PUSH2 0x706D JUMP JUMPDEST SWAP1 SHR SWAP2 POP PUSH8 0x25BCFF56EB36000 DUP3 PUSH2 0x51D7 SWAP2 SWAP1 PUSH2 0x706D JUMP JUMPDEST DUP2 PUSH2 0x51E2 SWAP2 SWAP1 PUSH2 0x71A8 JUMP JUMPDEST SWAP1 POP DUP4 PUSH1 0xFF AND DUP6 DUP4 PUSH2 0x51F4 SWAP2 SWAP1 PUSH2 0x706D JUMP JUMPDEST SWAP1 SHR SWAP2 POP PUSH7 0x1B722E10AB1000 DUP3 PUSH2 0x520B SWAP2 SWAP1 PUSH2 0x706D JUMP JUMPDEST DUP2 PUSH2 0x5216 SWAP2 SWAP1 PUSH2 0x71A8 JUMP JUMPDEST SWAP1 POP DUP4 PUSH1 0xFF AND DUP6 DUP4 PUSH2 0x5228 SWAP2 SWAP1 PUSH2 0x706D JUMP JUMPDEST SWAP1 SHR SWAP2 POP PUSH7 0x1317C70077000 DUP3 PUSH2 0x523F SWAP2 SWAP1 PUSH2 0x706D JUMP JUMPDEST DUP2 PUSH2 0x524A SWAP2 SWAP1 PUSH2 0x71A8 JUMP JUMPDEST SWAP1 POP DUP4 PUSH1 0xFF AND DUP6 DUP4 PUSH2 0x525C SWAP2 SWAP1 PUSH2 0x706D JUMP JUMPDEST SWAP1 SHR SWAP2 POP PUSH6 0xCBA84AAFA00 DUP3 PUSH2 0x5272 SWAP2 SWAP1 PUSH2 0x706D JUMP JUMPDEST DUP2 PUSH2 0x527D SWAP2 SWAP1 PUSH2 0x71A8 JUMP JUMPDEST SWAP1 POP DUP4 PUSH1 0xFF AND DUP6 DUP4 PUSH2 0x528F SWAP2 SWAP1 PUSH2 0x706D JUMP JUMPDEST SWAP1 SHR SWAP2 POP PUSH5 0x82573A0A00 DUP3 PUSH2 0x52A4 SWAP2 SWAP1 PUSH2 0x706D JUMP JUMPDEST DUP2 PUSH2 0x52AF SWAP2 SWAP1 PUSH2 0x71A8 JUMP JUMPDEST SWAP1 POP DUP4 PUSH1 0xFF AND DUP6 DUP4 PUSH2 0x52C1 SWAP2 SWAP1 PUSH2 0x706D JUMP JUMPDEST SWAP1 SHR SWAP2 POP PUSH5 0x5035AD900 DUP3 PUSH2 0x52D6 SWAP2 SWAP1 PUSH2 0x706D JUMP JUMPDEST DUP2 PUSH2 0x52E1 SWAP2 SWAP1 PUSH2 0x71A8 JUMP JUMPDEST SWAP1 POP DUP4 PUSH1 0xFF AND DUP6 DUP4 PUSH2 0x52F3 SWAP2 SWAP1 PUSH2 0x706D JUMP JUMPDEST SWAP1 SHR SWAP2 POP PUSH4 0x2F881B00 DUP3 PUSH2 0x5307 SWAP2 SWAP1 PUSH2 0x706D JUMP JUMPDEST DUP2 PUSH2 0x5312 SWAP2 SWAP1 PUSH2 0x71A8 JUMP JUMPDEST SWAP1 POP DUP4 PUSH1 0xFF AND DUP6 DUP4 PUSH2 0x5324 SWAP2 SWAP1 PUSH2 0x706D JUMP JUMPDEST SWAP1 SHR SWAP2 POP PUSH4 0x1B29340 DUP3 PUSH2 0x5338 SWAP2 SWAP1 PUSH2 0x706D JUMP JUMPDEST DUP2 PUSH2 0x5343 SWAP2 SWAP1 PUSH2 0x71A8 JUMP JUMPDEST SWAP1 POP DUP4 PUSH1 0xFF AND DUP6 DUP4 PUSH2 0x5355 SWAP2 SWAP1 PUSH2 0x706D JUMP JUMPDEST SWAP1 SHR SWAP2 POP PUSH3 0xEFC40 DUP3 PUSH2 0x5368 SWAP2 SWAP1 PUSH2 0x706D JUMP JUMPDEST DUP2 PUSH2 0x5373 SWAP2 SWAP1 PUSH2 0x71A8 JUMP JUMPDEST SWAP1 POP DUP4 PUSH1 0xFF AND DUP6 DUP4 PUSH2 0x5385 SWAP2 SWAP1 PUSH2 0x706D JUMP JUMPDEST SWAP1 SHR SWAP2 POP PUSH2 0x7FE0 DUP3 PUSH2 0x5397 SWAP2 SWAP1 PUSH2 0x706D JUMP JUMPDEST DUP2 PUSH2 0x53A2 SWAP2 SWAP1 PUSH2 0x71A8 JUMP JUMPDEST SWAP1 POP DUP4 PUSH1 0xFF AND DUP6 DUP4 PUSH2 0x53B4 SWAP2 SWAP1 PUSH2 0x706D JUMP JUMPDEST SWAP1 SHR SWAP2 POP PUSH2 0x420 DUP3 PUSH2 0x53C6 SWAP2 SWAP1 PUSH2 0x706D JUMP JUMPDEST DUP2 PUSH2 0x53D1 SWAP2 SWAP1 PUSH2 0x71A8 JUMP JUMPDEST SWAP1 POP DUP4 PUSH1 0xFF AND DUP6 DUP4 PUSH2 0x53E3 SWAP2 SWAP1 PUSH2 0x706D JUMP JUMPDEST SWAP1 SHR SWAP2 POP PUSH1 0x21 DUP3 PUSH2 0x53F4 SWAP2 SWAP1 PUSH2 0x706D JUMP JUMPDEST DUP2 PUSH2 0x53FF SWAP2 SWAP1 PUSH2 0x71A8 JUMP JUMPDEST SWAP1 POP DUP4 PUSH1 0xFF AND DUP6 DUP4 PUSH2 0x5411 SWAP2 SWAP1 PUSH2 0x706D JUMP JUMPDEST SWAP1 SHR SWAP2 POP PUSH1 0x1 DUP3 PUSH2 0x5422 SWAP2 SWAP1 PUSH2 0x706D JUMP JUMPDEST DUP2 PUSH2 0x542D SWAP2 SWAP1 PUSH2 0x71A8 JUMP JUMPDEST SWAP1 POP DUP4 PUSH1 0xFF AND PUSH1 0x1 SWAP1 SHL DUP6 PUSH16 0x688589CC0E9505E2F2FEE5580000000 DUP4 PUSH2 0x5454 SWAP2 SWAP1 PUSH2 0x7178 JUMP JUMPDEST PUSH2 0x545E SWAP2 SWAP1 PUSH2 0x71A8 JUMP JUMPDEST PUSH2 0x5468 SWAP2 SWAP1 PUSH2 0x71A8 JUMP JUMPDEST SWAP3 POP POP POP SWAP3 SWAP2 POP POP JUMP JUMPDEST PUSH2 0x547E DUP6 DUP6 DUP6 DUP6 PUSH2 0x5676 JUMP JUMPDEST PUSH0 PUSH20 0xFFFFFFFFFFFFFFFFFFFFFFFFFFFFFFFFFFFFFFFF AND DUP5 PUSH20 0xFFFFFFFFFFFFFFFFFFFFFFFFFFFFFFFFFFFFFFFF AND EQ PUSH2 0x5517 JUMPI PUSH0 PUSH2 0x54BA PUSH2 0x26B3 JUMP JUMPDEST SWAP1 POP PUSH1 0x1 DUP5 MLOAD SUB PUSH2 0x5506 JUMPI PUSH0 PUSH2 0x54D9 PUSH0 DUP7 PUSH2 0x2E87 SWAP1 SWAP2 SWAP1 PUSH4 0xFFFFFFFF AND JUMP JUMPDEST SWAP1 POP PUSH0 PUSH2 0x54EF PUSH0 DUP7 PUSH2 0x2E87 SWAP1 SWAP2 SWAP1 PUSH4 0xFFFFFFFF AND JUMP JUMPDEST SWAP1 POP PUSH2 0x54FF DUP4 DUP10 DUP10 DUP6 DUP6 DUP10 PUSH2 0x581F JUMP JUMPDEST POP POP PUSH2 0x5515 JUMP JUMPDEST PUSH2 0x5514 DUP2 DUP8 DUP8 DUP8 DUP8 DUP8 PUSH2 0x59CE JUMP JUMPDEST JUMPDEST POP JUMPDEST POP POP POP POP POP JUMP JUMPDEST PUSH0 PUSH20 0xFFFFFFFFFFFFFFFFFFFFFFFFFFFFFFFFFFFFFFFF AND DUP4 PUSH20 0xFFFFFFFFFFFFFFFFFFFFFFFFFFFFFFFFFFFFFFFF AND SUB PUSH2 0x558E JUMPI PUSH0 PUSH1 0x40 MLOAD PUSH32 0x1A8351400000000000000000000000000000000000000000000000000000000 DUP2 MSTORE PUSH1 0x4 ADD PUSH2 0x5585 SWAP2 SWAP1 PUSH2 0x6834 JUMP JUMPDEST PUSH1 0x40 MLOAD DUP1 SWAP2 SUB SWAP1 REVERT JUMPDEST PUSH0 DUP1 PUSH2 0x559A DUP5 DUP5 PUSH2 0x55C0 JUMP JUMPDEST SWAP2 POP SWAP2 POP PUSH2 0x55B9 DUP6 PUSH0 DUP5 DUP5 PUSH1 0x40 MLOAD DUP1 PUSH1 0x20 ADD PUSH1 0x40 MSTORE DUP1 PUSH0 DUP2 MSTORE POP PUSH2 0x5472 JUMP JUMPDEST POP POP POP POP POP JUMP JUMPDEST PUSH1 0x60 DUP1 PUSH1 0x40 MLOAD SWAP2 POP PUSH1 0x1 DUP3 MSTORE DUP4 PUSH1 0x20 DUP4 ADD MSTORE PUSH1 0x40 DUP3 ADD SWAP1 POP PUSH1 0x1 DUP2 MSTORE DUP3 PUSH1 0x20 DUP3 ADD MSTORE PUSH1 0x40 DUP2 ADD PUSH1 0x40 MSTORE SWAP3 POP SWAP3 SWAP1 POP JUMP JUMPDEST PUSH0 DUP1 PUSH0 SWAP1 POP PUSH0 DUP4 SWAP1 POP PUSH2 0x100 DUP2 LT ISZERO PUSH2 0x562D JUMPI JUMPDEST PUSH1 0x1 DUP2 GT ISZERO PUSH2 0x5628 JUMPI PUSH1 0x1 DUP2 SWAP1 SHR SWAP1 POP PUSH1 0x1 DUP3 PUSH2 0x5621 SWAP2 SWAP1 PUSH2 0x778D JUMP JUMPDEST SWAP2 POP PUSH2 0x5604 JUMP JUMPDEST PUSH2 0x566C JUMP JUMPDEST PUSH0 PUSH1 0x80 SWAP1 POP JUMPDEST PUSH0 DUP2 PUSH1 0xFF AND GT ISZERO PUSH2 0x566A JUMPI DUP1 PUSH1 0xFF AND PUSH1 0x1 SWAP1 SHL DUP3 LT PUSH2 0x565B JUMPI DUP1 PUSH1 0xFF AND DUP3 SWAP1 SHR SWAP2 POP DUP1 DUP4 OR SWAP3 POP JUMPDEST PUSH1 0x1 DUP2 PUSH1 0xFF AND SWAP1 SHR SWAP1 POP PUSH2 0x5633 JUMP JUMPDEST POP JUMPDEST DUP2 SWAP3 POP POP POP SWAP2 SWAP1 POP JUMP JUMPDEST PUSH2 0x5682 DUP5 DUP5 DUP5 DUP5 PUSH2 0x5B7D JUMP JUMPDEST PUSH0 PUSH20 0xFFFFFFFFFFFFFFFFFFFFFFFFFFFFFFFFFFFFFFFF AND DUP5 PUSH20 0xFFFFFFFFFFFFFFFFFFFFFFFFFFFFFFFFFFFFFFFF AND SUB PUSH2 0x575B JUMPI PUSH0 DUP1 JUMPDEST DUP4 MLOAD DUP2 LT ISZERO PUSH2 0x5740 JUMPI PUSH0 DUP4 DUP3 DUP2 MLOAD DUP2 LT PUSH2 0x56D5 JUMPI PUSH2 0x56D4 PUSH2 0x6E1D JUMP JUMPDEST JUMPDEST PUSH1 0x20 MUL PUSH1 0x20 ADD ADD MLOAD SWAP1 POP DUP1 PUSH1 0x84 PUSH0 DUP8 DUP6 DUP2 MLOAD DUP2 LT PUSH2 0x56F6 JUMPI PUSH2 0x56F5 PUSH2 0x6E1D JUMP JUMPDEST JUMPDEST PUSH1 0x20 MUL PUSH1 0x20 ADD ADD MLOAD DUP2 MSTORE PUSH1 0x20 ADD SWAP1 DUP2 MSTORE PUSH1 0x20 ADD PUSH0 KECCAK256 PUSH0 DUP3 DUP3 SLOAD PUSH2 0x5719 SWAP2 SWAP1 PUSH2 0x71A8 JUMP JUMPDEST SWAP3 POP POP DUP2 SWAP1 SSTORE POP DUP1 DUP4 PUSH2 0x572C SWAP2 SWAP1 PUSH2 0x71A8 JUMP JUMPDEST SWAP3 POP POP DUP1 PUSH2 0x5739 SWAP1 PUSH2 0x6E4A JUMP JUMPDEST SWAP1 POP PUSH2 0x56B8 JUMP JUMPDEST POP DUP1 PUSH1 0x85 PUSH0 DUP3 DUP3 SLOAD PUSH2 0x5752 SWAP2 SWAP1 PUSH2 0x71A8 JUMP JUMPDEST SWAP3 POP POP DUP2 SWAP1 SSTORE POP POP JUMPDEST PUSH0 PUSH20 0xFFFFFFFFFFFFFFFFFFFFFFFFFFFFFFFFFFFFFFFF AND DUP4 PUSH20 0xFFFFFFFFFFFFFFFFFFFFFFFFFFFFFFFFFFFFFFFF AND SUB PUSH2 0x5819 JUMPI PUSH0 DUP1 JUMPDEST DUP4 MLOAD DUP2 LT ISZERO PUSH2 0x5807 JUMPI PUSH0 DUP4 DUP3 DUP2 MLOAD DUP2 LT PUSH2 0x57AE JUMPI PUSH2 0x57AD PUSH2 0x6E1D JUMP JUMPDEST JUMPDEST PUSH1 0x20 MUL PUSH1 0x20 ADD ADD MLOAD SWAP1 POP DUP1 PUSH1 0x84 PUSH0 DUP8 DUP6 DUP2 MLOAD DUP2 LT PUSH2 0x57CF JUMPI PUSH2 0x57CE PUSH2 0x6E1D JUMP JUMPDEST JUMPDEST PUSH1 0x20 MUL PUSH1 0x20 ADD ADD MLOAD DUP2 MSTORE PUSH1 0x20 ADD SWAP1 DUP2 MSTORE PUSH1 0x20 ADD PUSH0 KECCAK256 PUSH0 DUP3 DUP3 SLOAD SUB SWAP3 POP POP DUP2 SWAP1 SSTORE POP DUP1 DUP4 ADD SWAP3 POP POP DUP1 PUSH2 0x5800 SWAP1 PUSH2 0x6E4A JUMP JUMPDEST SWAP1 POP PUSH2 0x5791 JUMP JUMPDEST POP DUP1 PUSH1 0x85 PUSH0 DUP3 DUP3 SLOAD SUB SWAP3 POP POP DUP2 SWAP1 SSTORE POP POP JUMPDEST POP POP POP POP JUMP JUMPDEST PUSH0 DUP5 PUSH20 0xFFFFFFFFFFFFFFFFFFFFFFFFFFFFFFFFFFFFFFFF AND EXTCODESIZE GT ISZERO PUSH2 0x59C6 JUMPI DUP4 PUSH20 0xFFFFFFFFFFFFFFFFFFFFFFFFFFFFFFFFFFFFFFFF AND PUSH4 0xF23A6E61 DUP8 DUP8 DUP7 DUP7 DUP7 PUSH1 0x40 MLOAD DUP7 PUSH4 0xFFFFFFFF AND PUSH1 0xE0 SHL DUP2 MSTORE PUSH1 0x4 ADD PUSH2 0x587F SWAP6 SWAP5 SWAP4 SWAP3 SWAP2 SWAP1 PUSH2 0x7870 JUMP JUMPDEST PUSH1 0x20 PUSH1 0x40 MLOAD DUP1 DUP4 SUB DUP2 PUSH0 DUP8 GAS CALL SWAP3 POP POP POP DUP1 ISZERO PUSH2 0x58BA JUMPI POP PUSH1 0x40 MLOAD RETURNDATASIZE PUSH1 0x1F NOT PUSH1 0x1F DUP3 ADD AND DUP3 ADD DUP1 PUSH1 0x40 MSTORE POP DUP2 ADD SWAP1 PUSH2 0x58B7 SWAP2 SWAP1 PUSH2 0x78DC JUMP JUMPDEST PUSH1 0x1 JUMPDEST PUSH2 0x593B JUMPI RETURNDATASIZE DUP1 PUSH0 DUP2 EQ PUSH2 0x58E8 JUMPI PUSH1 0x40 MLOAD SWAP2 POP PUSH1 0x1F NOT PUSH1 0x3F RETURNDATASIZE ADD AND DUP3 ADD PUSH1 0x40 MSTORE RETURNDATASIZE DUP3 MSTORE RETURNDATASIZE PUSH0 PUSH1 0x20 DUP5 ADD RETURNDATACOPY PUSH2 0x58ED JUMP JUMPDEST PUSH1 0x60 SWAP2 POP JUMPDEST POP PUSH0 DUP2 MLOAD SUB PUSH2 0x5933 JUMPI DUP5 PUSH1 0x40 MLOAD PUSH32 0x57F447CE00000000000000000000000000000000000000000000000000000000 DUP2 MSTORE PUSH1 0x4 ADD PUSH2 0x592A SWAP2 SWAP1 PUSH2 0x6834 JUMP JUMPDEST PUSH1 0x40 MLOAD DUP1 SWAP2 SUB SWAP1 REVERT JUMPDEST DUP1 MLOAD DUP2 PUSH1 0x20 ADD REVERT JUMPDEST PUSH4 0xF23A6E61 PUSH1 0xE0 SHL PUSH28 0xFFFFFFFFFFFFFFFFFFFFFFFFFFFFFFFFFFFFFFFFFFFFFFFFFFFFFFFF NOT AND DUP2 PUSH28 0xFFFFFFFFFFFFFFFFFFFFFFFFFFFFFFFFFFFFFFFFFFFFFFFFFFFFFFFF NOT AND EQ PUSH2 0x59C4 JUMPI DUP5 PUSH1 0x40 MLOAD PUSH32 0x57F447CE00000000000000000000000000000000000000000000000000000000 DUP2 MSTORE PUSH1 0x4 ADD PUSH2 0x59BB SWAP2 SWAP1 PUSH2 0x6834 JUMP JUMPDEST PUSH1 0x40 MLOAD DUP1 SWAP2 SUB SWAP1 REVERT JUMPDEST POP JUMPDEST POP POP POP POP POP POP JUMP JUMPDEST PUSH0 DUP5 PUSH20 0xFFFFFFFFFFFFFFFFFFFFFFFFFFFFFFFFFFFFFFFF AND EXTCODESIZE GT ISZERO PUSH2 0x5B75 JUMPI DUP4 PUSH20 0xFFFFFFFFFFFFFFFFFFFFFFFFFFFFFFFFFFFFFFFF AND PUSH4 0xBC197C81 DUP8 DUP8 DUP7 DUP7 DUP7 PUSH1 0x40 MLOAD DUP7 PUSH4 0xFFFFFFFF AND PUSH1 0xE0 SHL DUP2 MSTORE PUSH1 0x4 ADD PUSH2 0x5A2E SWAP6 SWAP5 SWAP4 SWAP3 SWAP2 SWAP1 PUSH2 0x7907 JUMP JUMPDEST PUSH1 0x20 PUSH1 0x40 MLOAD DUP1 DUP4 SUB DUP2 PUSH0 DUP8 GAS CALL SWAP3 POP POP POP DUP1 ISZERO PUSH2 0x5A69 JUMPI POP PUSH1 0x40 MLOAD RETURNDATASIZE PUSH1 0x1F NOT PUSH1 0x1F DUP3 ADD AND DUP3 ADD DUP1 PUSH1 0x40 MSTORE POP DUP2 ADD SWAP1 PUSH2 0x5A66 SWAP2 SWAP1 PUSH2 0x78DC JUMP JUMPDEST PUSH1 0x1 JUMPDEST PUSH2 0x5AEA JUMPI RETURNDATASIZE DUP1 PUSH0 DUP2 EQ PUSH2 0x5A97 JUMPI PUSH1 0x40 MLOAD SWAP2 POP PUSH1 0x1F NOT PUSH1 0x3F RETURNDATASIZE ADD AND DUP3 ADD PUSH1 0x40 MSTORE RETURNDATASIZE DUP3 MSTORE RETURNDATASIZE PUSH0 PUSH1 0x20 DUP5 ADD RETURNDATACOPY PUSH2 0x5A9C JUMP JUMPDEST PUSH1 0x60 SWAP2 POP JUMPDEST POP PUSH0 DUP2 MLOAD SUB PUSH2 0x5AE2 JUMPI DUP5 PUSH1 0x40 MLOAD PUSH32 0x57F447CE00000000000000000000000000000000000000000000000000000000 DUP2 MSTORE PUSH1 0x4 ADD PUSH2 0x5AD9 SWAP2 SWAP1 PUSH2 0x6834 JUMP JUMPDEST PUSH1 0x40 MLOAD DUP1 SWAP2 SUB SWAP1 REVERT JUMPDEST DUP1 MLOAD DUP2 PUSH1 0x20 ADD REVERT JUMPDEST PUSH4 0xBC197C81 PUSH1 0xE0 SHL PUSH28 0xFFFFFFFFFFFFFFFFFFFFFFFFFFFFFFFFFFFFFFFFFFFFFFFFFFFFFFFF NOT AND DUP2 PUSH28 0xFFFFFFFFFFFFFFFFFFFFFFFFFFFFFFFFFFFFFFFFFFFFFFFFFFFFFFFF NOT AND EQ PUSH2 0x5B73 JUMPI DUP5 PUSH1 0x40 MLOAD PUSH32 0x57F447CE00000000000000000000000000000000000000000000000000000000 DUP2 MSTORE PUSH1 0x4 ADD PUSH2 0x5B6A SWAP2 SWAP1 PUSH2 0x6834 JUMP JUMPDEST PUSH1 0x40 MLOAD DUP1 SWAP2 SUB SWAP1 REVERT JUMPDEST POP JUMPDEST POP POP POP POP POP POP JUMP JUMPDEST DUP1 MLOAD DUP3 MLOAD EQ PUSH2 0x5BC7 JUMPI DUP2 MLOAD DUP2 MLOAD PUSH1 0x40 MLOAD PUSH32 0x5B05999100000000000000000000000000000000000000000000000000000000 DUP2 MSTORE PUSH1 0x4 ADD PUSH2 0x5BBE SWAP3 SWAP2 SWAP1 PUSH2 0x6DF6 JUMP JUMPDEST PUSH1 0x40 MLOAD DUP1 SWAP2 SUB SWAP1 REVERT JUMPDEST PUSH0 PUSH2 0x5BD0 PUSH2 0x26B3 JUMP JUMPDEST SWAP1 POP PUSH0 JUMPDEST DUP4 MLOAD DUP2 LT ISZERO PUSH2 0x5DD5 JUMPI PUSH0 PUSH2 0x5BF1 DUP3 DUP7 PUSH2 0x2E87 SWAP1 SWAP2 SWAP1 PUSH4 0xFFFFFFFF AND JUMP JUMPDEST SWAP1 POP PUSH0 PUSH2 0x5C07 DUP4 DUP7 PUSH2 0x2E87 SWAP1 SWAP2 SWAP1 PUSH4 0xFFFFFFFF AND JUMP JUMPDEST SWAP1 POP PUSH0 PUSH20 0xFFFFFFFFFFFFFFFFFFFFFFFFFFFFFFFFFFFFFFFF AND DUP9 PUSH20 0xFFFFFFFFFFFFFFFFFFFFFFFFFFFFFFFFFFFFFFFF AND EQ PUSH2 0x5D2C JUMPI PUSH0 PUSH1 0x81 PUSH0 DUP5 DUP2 MSTORE PUSH1 0x20 ADD SWAP1 DUP2 MSTORE PUSH1 0x20 ADD PUSH0 KECCAK256 PUSH0 DUP11 PUSH20 0xFFFFFFFFFFFFFFFFFFFFFFFFFFFFFFFFFFFFFFFF AND PUSH20 0xFFFFFFFFFFFFFFFFFFFFFFFFFFFFFFFFFFFFFFFF AND DUP2 MSTORE PUSH1 0x20 ADD SWAP1 DUP2 MSTORE PUSH1 0x20 ADD PUSH0 KECCAK256 SLOAD SWAP1 POP DUP2 DUP2 LT ISZERO PUSH2 0x5CD7 JUMPI DUP9 DUP2 DUP4 DUP6 PUSH1 0x40 MLOAD PUSH32 0x3DEE4C500000000000000000000000000000000000000000000000000000000 DUP2 MSTORE PUSH1 0x4 ADD PUSH2 0x5CCE SWAP5 SWAP4 SWAP3 SWAP2 SWAP1 PUSH2 0x796D JUMP JUMPDEST PUSH1 0x40 MLOAD DUP1 SWAP2 SUB SWAP1 REVERT JUMPDEST DUP2 DUP2 SUB PUSH1 0x81 PUSH0 DUP6 DUP2 MSTORE PUSH1 0x20 ADD SWAP1 DUP2 MSTORE PUSH1 0x20 ADD PUSH0 KECCAK256 PUSH0 DUP12 PUSH20 0xFFFFFFFFFFFFFFFFFFFFFFFFFFFFFFFFFFFFFFFF AND PUSH20 0xFFFFFFFFFFFFFFFFFFFFFFFFFFFFFFFFFFFFFFFF AND DUP2 MSTORE PUSH1 0x20 ADD SWAP1 DUP2 MSTORE PUSH1 0x20 ADD PUSH0 KECCAK256 DUP2 SWAP1 SSTORE POP POP JUMPDEST PUSH0 PUSH20 0xFFFFFFFFFFFFFFFFFFFFFFFFFFFFFFFFFFFFFFFF AND DUP8 PUSH20 0xFFFFFFFFFFFFFFFFFFFFFFFFFFFFFFFFFFFFFFFF AND EQ PUSH2 0x5DC2 JUMPI DUP1 PUSH1 0x81 PUSH0 DUP5 DUP2 MSTORE PUSH1 0x20 ADD SWAP1 DUP2 MSTORE PUSH1 0x20 ADD PUSH0 KECCAK256 PUSH0 DUP10 PUSH20 0xFFFFFFFFFFFFFFFFFFFFFFFFFFFFFFFFFFFFFFFF AND PUSH20 0xFFFFFFFFFFFFFFFFFFFFFFFFFFFFFFFFFFFFFFFF AND DUP2 MSTORE PUSH1 0x20 ADD SWAP1 DUP2 MSTORE PUSH1 0x20 ADD PUSH0 KECCAK256 PUSH0 DUP3 DUP3 SLOAD PUSH2 0x5DBA SWAP2 SWAP1 PUSH2 0x71A8 JUMP JUMPDEST SWAP3 POP POP DUP2 SWAP1 SSTORE POP JUMPDEST POP POP DUP1 PUSH2 0x5DCE SWAP1 PUSH2 0x6E4A JUMP JUMPDEST SWAP1 POP PUSH2 0x5BD4 JUMP JUMPDEST POP PUSH1 0x1 DUP4 MLOAD SUB PUSH2 0x5E90 JUMPI PUSH0 PUSH2 0x5DF3 PUSH0 DUP6 PUSH2 0x2E87 SWAP1 SWAP2 SWAP1 PUSH4 0xFFFFFFFF AND JUMP JUMPDEST SWAP1 POP PUSH0 PUSH2 0x5E09 PUSH0 DUP6 PUSH2 0x2E87 SWAP1 SWAP2 SWAP1 PUSH4 0xFFFFFFFF AND JUMP JUMPDEST SWAP1 POP DUP6 PUSH20 0xFFFFFFFFFFFFFFFFFFFFFFFFFFFFFFFFFFFFFFFF AND DUP8 PUSH20 0xFFFFFFFFFFFFFFFFFFFFFFFFFFFFFFFFFFFFFFFF AND DUP5 PUSH20 0xFFFFFFFFFFFFFFFFFFFFFFFFFFFFFFFFFFFFFFFF AND PUSH32 0xC3D58168C5AE7397731D063D5BBF3D657854427343F4C083240F7AACAA2D0F62 DUP6 DUP6 PUSH1 0x40 MLOAD PUSH2 0x5E81 SWAP3 SWAP2 SWAP1 PUSH2 0x6DF6 JUMP JUMPDEST PUSH1 0x40 MLOAD DUP1 SWAP2 SUB SWAP1 LOG4 POP POP PUSH2 0x5F0F JUMP JUMPDEST DUP4 PUSH20 0xFFFFFFFFFFFFFFFFFFFFFFFFFFFFFFFFFFFFFFFF AND DUP6 PUSH20 0xFFFFFFFFFFFFFFFFFFFFFFFFFFFFFFFFFFFFFFFF AND DUP3 PUSH20 0xFFFFFFFFFFFFFFFFFFFFFFFFFFFFFFFFFFFFFFFF AND PUSH32 0x4A39DC06D4C0DBC64B70AF90FD698A233A518AA5D07E595D983B8C0526C8F7FB DUP7 DUP7 PUSH1 0x40 MLOAD PUSH2 0x5F06 SWAP3 SWAP2 SWAP1 PUSH2 0x79B0 JUMP JUMPDEST PUSH1 0x40 MLOAD DUP1 SWAP2 SUB SWAP1 LOG4 JUMPDEST POP POP POP POP POP JUMP JUMPDEST PUSH0 PUSH1 0x40 MLOAD SWAP1 POP SWAP1 JUMP JUMPDEST PUSH0 DUP1 REVERT JUMPDEST PUSH0 DUP1 REVERT JUMPDEST PUSH0 PUSH20 0xFFFFFFFFFFFFFFFFFFFFFFFFFFFFFFFFFFFFFFFF DUP3 AND SWAP1 POP SWAP2 SWAP1 POP JUMP JUMPDEST PUSH0 PUSH2 0x5F50 DUP3 PUSH2 0x5F27 JUMP JUMPDEST SWAP1 POP SWAP2 SWAP1 POP JUMP JUMPDEST PUSH2 0x5F60 DUP2 PUSH2 0x5F46 JUMP JUMPDEST DUP2 EQ PUSH2 0x5F6A JUMPI PUSH0 DUP1 REVERT JUMPDEST POP JUMP JUMPDEST PUSH0 DUP2 CALLDATALOAD SWAP1 POP PUSH2 0x5F7B DUP2 PUSH2 0x5F57 JUMP JUMPDEST SWAP3 SWAP2 POP POP JUMP JUMPDEST PUSH0 DUP2 SWAP1 POP SWAP2 SWAP1 POP JUMP JUMPDEST PUSH2 0x5F93 DUP2 PUSH2 0x5F81 JUMP JUMPDEST DUP2 EQ PUSH2 0x5F9D JUMPI PUSH0 DUP1 REVERT JUMPDEST POP JUMP JUMPDEST PUSH0 DUP2 CALLDATALOAD SWAP1 POP PUSH2 0x5FAE DUP2 PUSH2 0x5F8A JUMP JUMPDEST SWAP3 SWAP2 POP POP JUMP JUMPDEST PUSH0 DUP1 PUSH1 0x40 DUP4 DUP6 SUB SLT ISZERO PUSH2 0x5FCA JUMPI PUSH2 0x5FC9 PUSH2 0x5F1F JUMP JUMPDEST JUMPDEST PUSH0 PUSH2 0x5FD7 DUP6 DUP3 DUP7 ADD PUSH2 0x5F6D JUMP JUMPDEST SWAP3 POP POP PUSH1 0x20 PUSH2 0x5FE8 DUP6 DUP3 DUP7 ADD PUSH2 0x5FA0 JUMP JUMPDEST SWAP2 POP POP SWAP3 POP SWAP3 SWAP1 POP JUMP JUMPDEST PUSH2 0x5FFB DUP2 PUSH2 0x5F81 JUMP JUMPDEST DUP3 MSTORE POP POP JUMP JUMPDEST PUSH0 PUSH1 0x20 DUP3 ADD SWAP1 POP PUSH2 0x6014 PUSH0 DUP4 ADD DUP5 PUSH2 0x5FF2 JUMP JUMPDEST SWAP3 SWAP2 POP POP JUMP JUMPDEST PUSH0 PUSH32 0xFFFFFFFF00000000000000000000000000000000000000000000000000000000 DUP3 AND SWAP1 POP SWAP2 SWAP1 POP JUMP JUMPDEST PUSH2 0x604E DUP2 PUSH2 0x601A JUMP JUMPDEST DUP2 EQ PUSH2 0x6058 JUMPI PUSH0 DUP1 REVERT JUMPDEST POP JUMP JUMPDEST PUSH0 DUP2 CALLDATALOAD SWAP1 POP PUSH2 0x6069 DUP2 PUSH2 0x6045 JUMP JUMPDEST SWAP3 SWAP2 POP POP JUMP JUMPDEST PUSH0 PUSH1 0x20 DUP3 DUP5 SUB SLT ISZERO PUSH2 0x6084 JUMPI PUSH2 0x6083 PUSH2 0x5F1F JUMP JUMPDEST JUMPDEST PUSH0 PUSH2 0x6091 DUP5 DUP3 DUP6 ADD PUSH2 0x605B JUMP JUMPDEST SWAP2 POP POP SWAP3 SWAP2 POP POP JUMP JUMPDEST PUSH0 DUP2 ISZERO ISZERO SWAP1 POP SWAP2 SWAP1 POP JUMP JUMPDEST PUSH2 0x60AE DUP2 PUSH2 0x609A JUMP JUMPDEST DUP3 MSTORE POP POP JUMP JUMPDEST PUSH0 PUSH1 0x20 DUP3 ADD SWAP1 POP PUSH2 0x60C7 PUSH0 DUP4 ADD DUP5 PUSH2 0x60A5 JUMP JUMPDEST SWAP3 SWAP2 POP POP JUMP JUMPDEST PUSH0 PUSH1 0x20 DUP3 DUP5 SUB SLT ISZERO PUSH2 0x60E2 JUMPI PUSH2 0x60E1 PUSH2 0x5F1F JUMP JUMPDEST JUMPDEST PUSH0 PUSH2 0x60EF DUP5 DUP3 DUP6 ADD PUSH2 0x5F6D JUMP JUMPDEST SWAP2 POP POP SWAP3 SWAP2 POP POP JUMP JUMPDEST PUSH0 PUSH1 0x60 DUP3 ADD SWAP1 POP PUSH2 0x610B PUSH0 DUP4 ADD DUP7 PUSH2 0x5FF2 JUMP JUMPDEST PUSH2 0x6118 PUSH1 0x20 DUP4 ADD DUP6 PUSH2 0x5FF2 JUMP JUMPDEST PUSH2 0x6125 PUSH1 0x40 DUP4 ADD DUP5 PUSH2 0x60A5 JUMP JUMPDEST SWAP5 SWAP4 POP POP POP POP JUMP JUMPDEST PUSH0 PUSH1 0x20 DUP3 DUP5 SUB SLT ISZERO PUSH2 0x6142 JUMPI PUSH2 0x6141 PUSH2 0x5F1F JUMP JUMPDEST JUMPDEST PUSH0 PUSH2 0x614F DUP5 DUP3 DUP6 ADD PUSH2 0x5FA0 JUMP JUMPDEST SWAP2 POP POP SWAP3 SWAP2 POP POP JUMP JUMPDEST PUSH0 DUP2 MLOAD SWAP1 POP SWAP2 SWAP1 POP JUMP JUMPDEST PUSH0 DUP3 DUP3 MSTORE PUSH1 0x20 DUP3 ADD SWAP1 POP SWAP3 SWAP2 POP POP JUMP JUMPDEST PUSH0 JUMPDEST DUP4 DUP2 LT ISZERO PUSH2 0x618F JUMPI DUP1 DUP3 ADD MLOAD DUP2 DUP5 ADD MSTORE PUSH1 0x20 DUP2 ADD SWAP1 POP PUSH2 0x6174 JUMP JUMPDEST PUSH0 DUP5 DUP5 ADD MSTORE POP POP POP POP JUMP JUMPDEST PUSH0 PUSH1 0x1F NOT PUSH1 0x1F DUP4 ADD AND SWAP1 POP SWAP2 SWAP1 POP JUMP JUMPDEST PUSH0 PUSH2 0x61B4 DUP3 PUSH2 0x6158 JUMP JUMPDEST PUSH2 0x61BE DUP2 DUP6 PUSH2 0x6162 JUMP JUMPDEST SWAP4 POP PUSH2 0x61CE DUP2 DUP6 PUSH1 0x20 DUP7 ADD PUSH2 0x6172 JUMP JUMPDEST PUSH2 0x61D7 DUP2 PUSH2 0x619A JUMP JUMPDEST DUP5 ADD SWAP2 POP POP SWAP3 SWAP2 POP POP JUMP JUMPDEST PUSH0 PUSH1 0x20 DUP3 ADD SWAP1 POP DUP2 DUP2 SUB PUSH0 DUP4 ADD MSTORE PUSH2 0x61FA DUP2 DUP5 PUSH2 0x61AA JUMP JUMPDEST SWAP1 POP SWAP3 SWAP2 POP POP JUMP JUMPDEST PUSH0 DUP1 PUSH1 0x40 DUP4 DUP6 SUB SLT ISZERO PUSH2 0x6218 JUMPI PUSH2 0x6217 PUSH2 0x5F1F JUMP JUMPDEST JUMPDEST PUSH0 PUSH2 0x6225 DUP6 DUP3 DUP7 ADD PUSH2 0x5FA0 JUMP JUMPDEST SWAP3 POP POP PUSH1 0x20 PUSH2 0x6236 DUP6 DUP3 DUP7 ADD PUSH2 0x5FA0 JUMP JUMPDEST SWAP2 POP POP SWAP3 POP SWAP3 SWAP1 POP JUMP JUMPDEST PUSH0 PUSH4 0xFFFFFFFF DUP3 AND SWAP1 POP SWAP2 SWAP1 POP JUMP JUMPDEST PUSH2 0x6258 DUP2 PUSH2 0x6240 JUMP JUMPDEST DUP2 EQ PUSH2 0x6262 JUMPI PUSH0 DUP1 REVERT JUMPDEST POP JUMP JUMPDEST PUSH0 DUP2 CALLDATALOAD SWAP1 POP PUSH2 0x6273 DUP2 PUSH2 0x624F JUMP JUMPDEST SWAP3 SWAP2 POP POP JUMP JUMPDEST PUSH0 DUP1 PUSH0 DUP1 PUSH1 0x80 DUP6 DUP8 SUB SLT ISZERO PUSH2 0x6291 JUMPI PUSH2 0x6290 PUSH2 0x5F1F JUMP JUMPDEST JUMPDEST PUSH0 PUSH2 0x629E DUP8 DUP3 DUP9 ADD PUSH2 0x5FA0 JUMP JUMPDEST SWAP5 POP POP PUSH1 0x20 PUSH2 0x62AF DUP8 DUP3 DUP9 ADD PUSH2 0x5FA0 JUMP JUMPDEST SWAP4 POP POP PUSH1 0x40 PUSH2 0x62C0 DUP8 DUP3 DUP9 ADD PUSH2 0x6265 JUMP JUMPDEST SWAP3 POP POP PUSH1 0x60 PUSH2 0x62D1 DUP8 DUP3 DUP9 ADD PUSH2 0x5FA0 JUMP JUMPDEST SWAP2 POP POP SWAP3 SWAP6 SWAP2 SWAP5 POP SWAP3 POP JUMP JUMPDEST PUSH0 DUP1 REVERT JUMPDEST PUSH32 0x4E487B7100000000000000000000000000000000000000000000000000000000 PUSH0 MSTORE PUSH1 0x41 PUSH1 0x4 MSTORE PUSH1 0x24 PUSH0 REVERT JUMPDEST PUSH2 0x6317 DUP3 PUSH2 0x619A JUMP JUMPDEST DUP2 ADD DUP2 DUP2 LT PUSH8 0xFFFFFFFFFFFFFFFF DUP3 GT OR ISZERO PUSH2 0x6336 JUMPI PUSH2 0x6335 PUSH2 0x62E1 JUMP JUMPDEST JUMPDEST DUP1 PUSH1 0x40 MSTORE POP POP POP JUMP JUMPDEST PUSH0 PUSH2 0x6348 PUSH2 0x5F16 JUMP JUMPDEST SWAP1 POP PUSH2 0x6354 DUP3 DUP3 PUSH2 0x630E JUMP JUMPDEST SWAP2 SWAP1 POP JUMP JUMPDEST PUSH0 PUSH8 0xFFFFFFFFFFFFFFFF DUP3 GT ISZERO PUSH2 0x6373 JUMPI PUSH2 0x6372 PUSH2 0x62E1 JUMP JUMPDEST JUMPDEST PUSH1 0x20 DUP3 MUL SWAP1 POP PUSH1 0x20 DUP2 ADD SWAP1 POP SWAP2 SWAP1 POP JUMP JUMPDEST PUSH0 DUP1 REVERT JUMPDEST PUSH0 PUSH2 0x639A PUSH2 0x6395 DUP5 PUSH2 0x6359 JUMP JUMPDEST PUSH2 0x633F JUMP JUMPDEST SWAP1 POP DUP1 DUP4 DUP3 MSTORE PUSH1 0x20 DUP3 ADD SWAP1 POP PUSH1 0x20 DUP5 MUL DUP4 ADD DUP6 DUP2 GT ISZERO PUSH2 0x63BD JUMPI PUSH2 0x63BC PUSH2 0x6384 JUMP JUMPDEST JUMPDEST DUP4 JUMPDEST DUP2 DUP2 LT ISZERO PUSH2 0x63E6 JUMPI DUP1 PUSH2 0x63D2 DUP9 DUP3 PUSH2 0x5FA0 JUMP JUMPDEST DUP5 MSTORE PUSH1 0x20 DUP5 ADD SWAP4 POP POP PUSH1 0x20 DUP2 ADD SWAP1 POP PUSH2 0x63BF JUMP JUMPDEST POP POP POP SWAP4 SWAP3 POP POP POP JUMP JUMPDEST PUSH0 DUP3 PUSH1 0x1F DUP4 ADD SLT PUSH2 0x6404 JUMPI PUSH2 0x6403 PUSH2 0x62DD JUMP JUMPDEST JUMPDEST DUP2 CALLDATALOAD PUSH2 0x6414 DUP5 DUP3 PUSH1 0x20 DUP7 ADD PUSH2 0x6388 JUMP JUMPDEST SWAP2 POP POP SWAP3 SWAP2 POP POP JUMP JUMPDEST PUSH0 DUP1 REVERT JUMPDEST PUSH0 PUSH8 0xFFFFFFFFFFFFFFFF DUP3 GT ISZERO PUSH2 0x643B JUMPI PUSH2 0x643A PUSH2 0x62E1 JUMP JUMPDEST JUMPDEST PUSH2 0x6444 DUP3 PUSH2 0x619A JUMP JUMPDEST SWAP1 POP PUSH1 0x20 DUP2 ADD SWAP1 POP SWAP2 SWAP1 POP JUMP JUMPDEST DUP3 DUP2 DUP4 CALLDATACOPY PUSH0 DUP4 DUP4 ADD MSTORE POP POP POP JUMP JUMPDEST PUSH0 PUSH2 0x6471 PUSH2 0x646C DUP5 PUSH2 0x6421 JUMP JUMPDEST PUSH2 0x633F JUMP JUMPDEST SWAP1 POP DUP3 DUP2 MSTORE PUSH1 0x20 DUP2 ADD DUP5 DUP5 DUP5 ADD GT ISZERO PUSH2 0x648D JUMPI PUSH2 0x648C PUSH2 0x641D JUMP JUMPDEST JUMPDEST PUSH2 0x6498 DUP5 DUP3 DUP6 PUSH2 0x6451 JUMP JUMPDEST POP SWAP4 SWAP3 POP POP POP JUMP JUMPDEST PUSH0 DUP3 PUSH1 0x1F DUP4 ADD SLT PUSH2 0x64B4 JUMPI PUSH2 0x64B3 PUSH2 0x62DD JUMP JUMPDEST JUMPDEST DUP2 CALLDATALOAD PUSH2 0x64C4 DUP5 DUP3 PUSH1 0x20 DUP7 ADD PUSH2 0x645F JUMP JUMPDEST SWAP2 POP POP SWAP3 SWAP2 POP POP JUMP JUMPDEST PUSH0 DUP1 PUSH0 DUP1 PUSH0 PUSH1 0xA0 DUP7 DUP9 SUB SLT ISZERO PUSH2 0x64E6 JUMPI PUSH2 0x64E5 PUSH2 0x5F1F JUMP JUMPDEST JUMPDEST PUSH0 PUSH2 0x64F3 DUP9 DUP3 DUP10 ADD PUSH2 0x5F6D JUMP JUMPDEST SWAP6 POP POP PUSH1 0x20 PUSH2 0x6504 DUP9 DUP3 DUP10 ADD PUSH2 0x5F6D JUMP JUMPDEST SWAP5 POP POP PUSH1 0x40 DUP7 ADD CALLDATALOAD PUSH8 0xFFFFFFFFFFFFFFFF DUP2 GT ISZERO PUSH2 0x6525 JUMPI PUSH2 0x6524 PUSH2 0x5F23 JUMP JUMPDEST JUMPDEST PUSH2 0x6531 DUP9 DUP3 DUP10 ADD PUSH2 0x63F0 JUMP JUMPDEST SWAP4 POP POP PUSH1 0x60 DUP7 ADD CALLDATALOAD PUSH8 0xFFFFFFFFFFFFFFFF DUP2 GT ISZERO PUSH2 0x6552 JUMPI PUSH2 0x6551 PUSH2 0x5F23 JUMP JUMPDEST JUMPDEST PUSH2 0x655E DUP9 DUP3 DUP10 ADD PUSH2 0x63F0 JUMP JUMPDEST SWAP3 POP POP PUSH1 0x80 DUP7 ADD CALLDATALOAD PUSH8 0xFFFFFFFFFFFFFFFF DUP2 GT ISZERO PUSH2 0x657F JUMPI PUSH2 0x657E PUSH2 0x5F23 JUMP JUMPDEST JUMPDEST PUSH2 0x658B DUP9 DUP3 DUP10 ADD PUSH2 0x64A0 JUMP JUMPDEST SWAP2 POP POP SWAP3 SWAP6 POP SWAP3 SWAP6 SWAP1 SWAP4 POP JUMP JUMPDEST PUSH2 0x65A1 DUP2 PUSH2 0x6240 JUMP JUMPDEST DUP3 MSTORE POP POP JUMP JUMPDEST PUSH0 PUSH1 0x20 DUP3 ADD SWAP1 POP PUSH2 0x65BA PUSH0 DUP4 ADD DUP5 PUSH2 0x6598 JUMP JUMPDEST SWAP3 SWAP2 POP POP JUMP JUMPDEST PUSH0 PUSH8 0xFFFFFFFFFFFFFFFF DUP3 GT ISZERO PUSH2 0x65DA JUMPI PUSH2 0x65D9 PUSH2 0x62E1 JUMP JUMPDEST JUMPDEST PUSH1 0x20 DUP3 MUL SWAP1 POP PUSH1 0x20 DUP2 ADD SWAP1 POP SWAP2 SWAP1 POP JUMP JUMPDEST PUSH0 PUSH2 0x65FD PUSH2 0x65F8 DUP5 PUSH2 0x65C0 JUMP JUMPDEST PUSH2 0x633F JUMP JUMPDEST SWAP1 POP DUP1 DUP4 DUP3 MSTORE PUSH1 0x20 DUP3 ADD SWAP1 POP PUSH1 0x20 DUP5 MUL DUP4 ADD DUP6 DUP2 GT ISZERO PUSH2 0x6620 JUMPI PUSH2 0x661F PUSH2 0x6384 JUMP JUMPDEST JUMPDEST DUP4 JUMPDEST DUP2 DUP2 LT ISZERO PUSH2 0x6649 JUMPI DUP1 PUSH2 0x6635 DUP9 DUP3 PUSH2 0x5F6D JUMP JUMPDEST DUP5 MSTORE PUSH1 0x20 DUP5 ADD SWAP4 POP POP PUSH1 0x20 DUP2 ADD SWAP1 POP PUSH2 0x6622 JUMP JUMPDEST POP POP POP SWAP4 SWAP3 POP POP POP JUMP JUMPDEST PUSH0 DUP3 PUSH1 0x1F DUP4 ADD SLT PUSH2 0x6667 JUMPI PUSH2 0x6666 PUSH2 0x62DD JUMP JUMPDEST JUMPDEST DUP2 CALLDATALOAD PUSH2 0x6677 DUP5 DUP3 PUSH1 0x20 DUP7 ADD PUSH2 0x65EB JUMP JUMPDEST SWAP2 POP POP SWAP3 SWAP2 POP POP JUMP JUMPDEST PUSH0 DUP1 PUSH1 0x40 DUP4 DUP6 SUB SLT ISZERO PUSH2 0x6696 JUMPI PUSH2 0x6695 PUSH2 0x5F1F JUMP JUMPDEST JUMPDEST PUSH0 DUP4 ADD CALLDATALOAD PUSH8 0xFFFFFFFFFFFFFFFF DUP2 GT ISZERO PUSH2 0x66B3 JUMPI PUSH2 0x66B2 PUSH2 0x5F23 JUMP JUMPDEST JUMPDEST PUSH2 0x66BF DUP6 DUP3 DUP7 ADD PUSH2 0x6653 JUMP JUMPDEST SWAP3 POP POP PUSH1 0x20 DUP4 ADD CALLDATALOAD PUSH8 0xFFFFFFFFFFFFFFFF DUP2 GT ISZERO PUSH2 0x66E0 JUMPI PUSH2 0x66DF PUSH2 0x5F23 JUMP JUMPDEST JUMPDEST PUSH2 0x66EC DUP6 DUP3 DUP7 ADD PUSH2 0x63F0 JUMP JUMPDEST SWAP2 POP POP SWAP3 POP SWAP3 SWAP1 POP JUMP JUMPDEST PUSH0 DUP2 MLOAD SWAP1 POP SWAP2 SWAP1 POP JUMP JUMPDEST PUSH0 DUP3 DUP3 MSTORE PUSH1 0x20 DUP3 ADD SWAP1 POP SWAP3 SWAP2 POP POP JUMP JUMPDEST PUSH0 DUP2 SWAP1 POP PUSH1 0x20 DUP3 ADD SWAP1 POP SWAP2 SWAP1 POP JUMP JUMPDEST PUSH2 0x6728 DUP2 PUSH2 0x5F81 JUMP JUMPDEST DUP3 MSTORE POP POP JUMP JUMPDEST PUSH0 PUSH2 0x6739 DUP4 DUP4 PUSH2 0x671F JUMP JUMPDEST PUSH1 0x20 DUP4 ADD SWAP1 POP SWAP3 SWAP2 POP POP JUMP JUMPDEST PUSH0 PUSH1 0x20 DUP3 ADD SWAP1 POP SWAP2 SWAP1 POP JUMP JUMPDEST PUSH0 PUSH2 0x675B DUP3 PUSH2 0x66F6 JUMP JUMPDEST PUSH2 0x6765 DUP2 DUP6 PUSH2 0x6700 JUMP JUMPDEST SWAP4 POP PUSH2 0x6770 DUP4 PUSH2 0x6710 JUMP JUMPDEST DUP1 PUSH0 JUMPDEST DUP4 DUP2 LT ISZERO PUSH2 0x67A0 JUMPI DUP2 MLOAD PUSH2 0x6787 DUP9 DUP3 PUSH2 0x672E JUMP JUMPDEST SWAP8 POP PUSH2 0x6792 DUP4 PUSH2 0x6745 JUMP JUMPDEST SWAP3 POP POP PUSH1 0x1 DUP2 ADD SWAP1 POP PUSH2 0x6773 JUMP JUMPDEST POP DUP6 SWAP4 POP POP POP POP SWAP3 SWAP2 POP POP JUMP JUMPDEST PUSH0 PUSH1 0x20 DUP3 ADD SWAP1 POP DUP2 DUP2 SUB PUSH0 DUP4 ADD MSTORE PUSH2 0x67C5 DUP2 DUP5 PUSH2 0x6751 JUMP JUMPDEST SWAP1 POP SWAP3 SWAP2 POP POP JUMP JUMPDEST PUSH0 PUSH1 0x40 DUP3 ADD SWAP1 POP PUSH2 0x67E0 PUSH0 DUP4 ADD DUP6 PUSH2 0x60A5 JUMP JUMPDEST PUSH2 0x67ED PUSH1 0x20 DUP4 ADD DUP5 PUSH2 0x5FF2 JUMP JUMPDEST SWAP4 SWAP3 POP POP POP JUMP JUMPDEST PUSH0 DUP2 SWAP1 POP SWAP2 SWAP1 POP JUMP JUMPDEST PUSH2 0x6806 DUP2 PUSH2 0x67F4 JUMP JUMPDEST DUP3 MSTORE POP POP JUMP JUMPDEST PUSH0 PUSH1 0x20 DUP3 ADD SWAP1 POP PUSH2 0x681F PUSH0 DUP4 ADD DUP5 PUSH2 0x67FD JUMP JUMPDEST SWAP3 SWAP2 POP POP JUMP JUMPDEST PUSH2 0x682E DUP2 PUSH2 0x5F46 JUMP JUMPDEST DUP3 MSTORE POP POP JUMP JUMPDEST PUSH0 PUSH1 0x20 DUP3 ADD SWAP1 POP PUSH2 0x6847 PUSH0 DUP4 ADD DUP5 PUSH2 0x6825 JUMP JUMPDEST SWAP3 SWAP2 POP POP JUMP JUMPDEST PUSH2 0x6856 DUP2 PUSH2 0x609A JUMP JUMPDEST DUP2 EQ PUSH2 0x6860 JUMPI PUSH0 DUP1 REVERT JUMPDEST POP JUMP JUMPDEST PUSH0 DUP2 CALLDATALOAD SWAP1 POP PUSH2 0x6871 DUP2 PUSH2 0x684D JUMP JUMPDEST SWAP3 SWAP2 POP POP JUMP JUMPDEST PUSH0 DUP1 PUSH1 0x40 DUP4 DUP6 SUB SLT ISZERO PUSH2 0x688D JUMPI PUSH2 0x688C PUSH2 0x5F1F JUMP JUMPDEST JUMPDEST PUSH0 PUSH2 0x689A DUP6 DUP3 DUP7 ADD PUSH2 0x5F6D JUMP JUMPDEST SWAP3 POP POP PUSH1 0x20 PUSH2 0x68AB DUP6 DUP3 DUP7 ADD PUSH2 0x6863 JUMP JUMPDEST SWAP2 POP POP SWAP3 POP SWAP3 SWAP1 POP JUMP JUMPDEST PUSH0 DUP1 PUSH0 PUSH1 0x60 DUP5 DUP7 SUB SLT ISZERO PUSH2 0x68CC JUMPI PUSH2 0x68CB PUSH2 0x5F1F JUMP JUMPDEST JUMPDEST PUSH0 PUSH2 0x68D9 DUP7 DUP3 DUP8 ADD PUSH2 0x5FA0 JUMP JUMPDEST SWAP4 POP POP PUSH1 0x20 PUSH2 0x68EA DUP7 DUP3 DUP8 ADD PUSH2 0x5FA0 JUMP JUMPDEST SWAP3 POP POP PUSH1 0x40 PUSH2 0x68FB DUP7 DUP3 DUP8 ADD PUSH2 0x5FA0 JUMP JUMPDEST SWAP2 POP POP SWAP3 POP SWAP3 POP SWAP3 JUMP JUMPDEST PUSH0 DUP1 PUSH1 0x40 DUP4 DUP6 SUB SLT ISZERO PUSH2 0x691B JUMPI PUSH2 0x691A PUSH2 0x5F1F JUMP JUMPDEST JUMPDEST PUSH0 PUSH2 0x6928 DUP6 DUP3 DUP7 ADD PUSH2 0x5F6D JUMP JUMPDEST SWAP3 POP POP PUSH1 0x20 PUSH2 0x6939 DUP6 DUP3 DUP7 ADD PUSH2 0x5F6D JUMP JUMPDEST SWAP2 POP POP SWAP3 POP SWAP3 SWAP1 POP JUMP JUMPDEST PUSH0 DUP1 PUSH0 DUP1 PUSH0 PUSH1 0xA0 DUP7 DUP9 SUB SLT ISZERO PUSH2 0x695C JUMPI PUSH2 0x695B PUSH2 0x5F1F JUMP JUMPDEST JUMPDEST PUSH0 PUSH2 0x6969 DUP9 DUP3 DUP10 ADD PUSH2 0x5F6D JUMP JUMPDEST SWAP6 POP POP PUSH1 0x20 PUSH2 0x697A DUP9 DUP3 DUP10 ADD PUSH2 0x5F6D JUMP JUMPDEST SWAP5 POP POP PUSH1 0x40 PUSH2 0x698B DUP9 DUP3 DUP10 ADD PUSH2 0x5FA0 JUMP JUMPDEST SWAP4 POP POP PUSH1 0x60 PUSH2 0x699C DUP9 DUP3 DUP10 ADD PUSH2 0x5FA0 JUMP JUMPDEST SWAP3 POP POP PUSH1 0x80 DUP7 ADD CALLDATALOAD PUSH8 0xFFFFFFFFFFFFFFFF DUP2 GT ISZERO PUSH2 0x69BD JUMPI PUSH2 0x69BC PUSH2 0x5F23 JUMP JUMPDEST JUMPDEST PUSH2 0x69C9 DUP9 DUP3 DUP10 ADD PUSH2 0x64A0 JUMP JUMPDEST SWAP2 POP POP SWAP3 SWAP6 POP SWAP3 SWAP6 SWAP1 SWAP4 POP JUMP JUMPDEST PUSH0 PUSH1 0xE0 DUP3 ADD SWAP1 POP PUSH2 0x69E9 PUSH0 DUP4 ADD DUP11 PUSH2 0x5FF2 JUMP JUMPDEST PUSH2 0x69F6 PUSH1 0x20 DUP4 ADD DUP10 PUSH2 0x5FF2 JUMP JUMPDEST PUSH2 0x6A03 PUSH1 0x40 DUP4 ADD DUP9 PUSH2 0x5FF2 JUMP JUMPDEST PUSH2 0x6A10 PUSH1 0x60 DUP4 ADD DUP8 PUSH2 0x5FF2 JUMP JUMPDEST PUSH2 0x6A1D PUSH1 0x80 DUP4 ADD DUP7 PUSH2 0x5FF2 JUMP JUMPDEST PUSH2 0x6A2A PUSH1 0xA0 DUP4 ADD DUP6 PUSH2 0x5FF2 JUMP JUMPDEST PUSH2 0x6A37 PUSH1 0xC0 DUP4 ADD DUP5 PUSH2 0x60A5 JUMP JUMPDEST SWAP9 SWAP8 POP POP POP POP POP POP POP POP JUMP JUMPDEST PUSH32 0x4E487B7100000000000000000000000000000000000000000000000000000000 PUSH0 MSTORE PUSH1 0x22 PUSH1 0x4 MSTORE PUSH1 0x24 PUSH0 REVERT JUMPDEST PUSH0 PUSH1 0x2 DUP3 DIV SWAP1 POP PUSH1 0x1 DUP3 AND DUP1 PUSH2 0x6A87 JUMPI PUSH1 0x7F DUP3 AND SWAP2 POP JUMPDEST PUSH1 0x20 DUP3 LT DUP2 SUB PUSH2 0x6A9A JUMPI PUSH2 0x6A99 PUSH2 0x6A43 JUMP JUMPDEST JUMPDEST POP SWAP2 SWAP1 POP JUMP JUMPDEST PUSH32 0x496E76616C696420746F6B656E2069642E000000000000000000000000000000 PUSH0 DUP3 ADD MSTORE POP JUMP JUMPDEST PUSH0 PUSH2 0x6AD4 PUSH1 0x11 DUP4 PUSH2 0x6162 JUMP JUMPDEST SWAP2 POP PUSH2 0x6ADF DUP3 PUSH2 0x6AA0 JUMP JUMPDEST PUSH1 0x20 DUP3 ADD SWAP1 POP SWAP2 SWAP1 POP JUMP JUMPDEST PUSH0 PUSH1 0x20 DUP3 ADD SWAP1 POP DUP2 DUP2 SUB PUSH0 DUP4 ADD MSTORE PUSH2 0x6B01 DUP2 PUSH2 0x6AC8 JUMP JUMPDEST SWAP1 POP SWAP2 SWAP1 POP JUMP JUMPDEST PUSH32 0x4E487B7100000000000000000000000000000000000000000000000000000000 PUSH0 MSTORE PUSH1 0x21 PUSH1 0x4 MSTORE PUSH1 0x24 PUSH0 REVERT JUMPDEST PUSH32 0x6D696E742F6275726E2074656D706F726172696C7920756E617661696C61626C PUSH0 DUP3 ADD MSTORE PUSH32 0x6521000000000000000000000000000000000000000000000000000000000000 PUSH1 0x20 DUP3 ADD MSTORE POP JUMP JUMPDEST PUSH0 PUSH2 0x6B8F PUSH1 0x22 DUP4 PUSH2 0x6162 JUMP JUMPDEST SWAP2 POP PUSH2 0x6B9A DUP3 PUSH2 0x6B35 JUMP JUMPDEST PUSH1 0x40 DUP3 ADD SWAP1 POP SWAP2 SWAP1 POP JUMP JUMPDEST PUSH0 PUSH1 0x20 DUP3 ADD SWAP1 POP DUP2 DUP2 SUB PUSH0 DUP4 ADD MSTORE PUSH2 0x6BBC DUP2 PUSH2 0x6B83 JUMP JUMPDEST SWAP1 POP SWAP2 SWAP1 POP JUMP JUMPDEST PUSH0 PUSH1 0x60 DUP3 ADD SWAP1 POP PUSH2 0x6BD6 PUSH0 DUP4 ADD DUP7 PUSH2 0x6825 JUMP JUMPDEST PUSH2 0x6BE3 PUSH1 0x20 DUP4 ADD DUP6 PUSH2 0x6825 JUMP JUMPDEST PUSH2 0x6BF0 PUSH1 0x40 DUP4 ADD DUP5 PUSH2 0x5FF2 JUMP JUMPDEST SWAP5 SWAP4 POP POP POP POP JUMP JUMPDEST PUSH0 DUP2 MLOAD SWAP1 POP PUSH2 0x6C06 DUP2 PUSH2 0x684D JUMP JUMPDEST SWAP3 SWAP2 POP POP JUMP JUMPDEST PUSH0 PUSH1 0x20 DUP3 DUP5 SUB SLT ISZERO PUSH2 0x6C21 JUMPI PUSH2 0x6C20 PUSH2 0x5F1F JUMP JUMPDEST JUMPDEST PUSH0 PUSH2 0x6C2E DUP5 DUP3 DUP6 ADD PUSH2 0x6BF8 JUMP JUMPDEST SWAP2 POP POP SWAP3 SWAP2 POP POP JUMP JUMPDEST PUSH32 0x54414C20746F6B656E207472616E736572206661696C65642E00000000000000 PUSH0 DUP3 ADD MSTORE POP JUMP JUMPDEST PUSH0 PUSH2 0x6C6B PUSH1 0x19 DUP4 PUSH2 0x6162 JUMP JUMPDEST SWAP2 POP PUSH2 0x6C76 DUP3 PUSH2 0x6C37 JUMP JUMPDEST PUSH1 0x20 DUP3 ADD SWAP1 POP SWAP2 SWAP1 POP JUMP JUMPDEST PUSH0 PUSH1 0x20 DUP3 ADD SWAP1 POP DUP2 DUP2 SUB PUSH0 DUP4 ADD MSTORE PUSH2 0x6C98 DUP2 PUSH2 0x6C5F JUMP JUMPDEST SWAP1 POP SWAP2 SWAP1 POP JUMP JUMPDEST PUSH32 0x4E487B7100000000000000000000000000000000000000000000000000000000 PUSH0 MSTORE PUSH1 0x11 PUSH1 0x4 MSTORE PUSH1 0x24 PUSH0 REVERT JUMPDEST PUSH0 PUSH2 0x6CD6 DUP3 PUSH2 0x5F81 JUMP JUMPDEST SWAP2 POP PUSH2 0x6CE1 DUP4 PUSH2 0x5F81 JUMP JUMPDEST SWAP3 POP DUP3 DUP3 SUB SWAP1 POP DUP2 DUP2 GT ISZERO PUSH2 0x6CF9 JUMPI PUSH2 0x6CF8 PUSH2 0x6C9F JUMP JUMPDEST JUMPDEST SWAP3 SWAP2 POP POP JUMP JUMPDEST PUSH32 0x496E76616C696420496E70757400000000000000000000000000000000000000 PUSH0 DUP3 ADD MSTORE POP JUMP JUMPDEST PUSH0 PUSH2 0x6D33 PUSH1 0xD DUP4 PUSH2 0x6162 JUMP JUMPDEST SWAP2 POP PUSH2 0x6D3E DUP3 PUSH2 0x6CFF JUMP JUMPDEST PUSH1 0x20 DUP3 ADD SWAP1 POP SWAP2 SWAP1 POP JUMP JUMPDEST PUSH0 PUSH1 0x20 DUP3 ADD SWAP1 POP DUP2 DUP2 SUB PUSH0 DUP4 ADD MSTORE PUSH2 0x6D60 DUP2 PUSH2 0x6D27 JUMP JUMPDEST SWAP1 POP SWAP2 SWAP1 POP JUMP JUMPDEST PUSH32 0x54414C20746F6B656E207472616E736572206661696C65642100000000000000 PUSH0 DUP3 ADD MSTORE POP JUMP JUMPDEST PUSH0 PUSH2 0x6D9B PUSH1 0x19 DUP4 PUSH2 0x6162 JUMP JUMPDEST SWAP2 POP PUSH2 0x6DA6 DUP3 PUSH2 0x6D67 JUMP JUMPDEST PUSH1 0x20 DUP3 ADD SWAP1 POP SWAP2 SWAP1 POP JUMP JUMPDEST PUSH0 PUSH1 0x20 DUP3 ADD SWAP1 POP DUP2 DUP2 SUB PUSH0 DUP4 ADD MSTORE PUSH2 0x6DC8 DUP2 PUSH2 0x6D8F JUMP JUMPDEST SWAP1 POP SWAP2 SWAP1 POP JUMP JUMPDEST PUSH0 PUSH1 0x40 DUP3 ADD SWAP1 POP PUSH2 0x6DE2 PUSH0 DUP4 ADD DUP6 PUSH2 0x6825 JUMP JUMPDEST PUSH2 0x6DEF PUSH1 0x20 DUP4 ADD DUP5 PUSH2 0x6825 JUMP JUMPDEST SWAP4 SWAP3 POP POP POP JUMP JUMPDEST PUSH0 PUSH1 0x40 DUP3 ADD SWAP1 POP PUSH2 0x6E09 PUSH0 DUP4 ADD DUP6 PUSH2 0x5FF2 JUMP JUMPDEST PUSH2 0x6E16 PUSH1 0x20 DUP4 ADD DUP5 PUSH2 0x5FF2 JUMP JUMPDEST SWAP4 SWAP3 POP POP POP JUMP JUMPDEST PUSH32 0x4E487B7100000000000000000000000000000000000000000000000000000000 PUSH0 MSTORE PUSH1 0x32 PUSH1 0x4 MSTORE PUSH1 0x24 PUSH0 REVERT JUMPDEST PUSH0 PUSH2 0x6E54 DUP3 PUSH2 0x5F81 JUMP JUMPDEST SWAP2 POP PUSH32 0xFFFFFFFFFFFFFFFFFFFFFFFFFFFFFFFFFFFFFFFFFFFFFFFFFFFFFFFFFFFFFFFF DUP3 SUB PUSH2 0x6E86 JUMPI PUSH2 0x6E85 PUSH2 0x6C9F JUMP JUMPDEST JUMPDEST PUSH1 0x1 DUP3 ADD SWAP1 POP SWAP2 SWAP1 POP JUMP JUMPDEST PUSH32 0x4E6F206163746976652072657761726473210000000000000000000000000000 PUSH0 DUP3 ADD MSTORE POP JUMP JUMPDEST PUSH0 PUSH2 0x6EC5 PUSH1 0x12 DUP4 PUSH2 0x6162 JUMP JUMPDEST SWAP2 POP PUSH2 0x6ED0 DUP3 PUSH2 0x6E91 JUMP JUMPDEST PUSH1 0x20 DUP3 ADD SWAP1 POP SWAP2 SWAP1 POP JUMP JUMPDEST PUSH0 PUSH1 0x20 DUP3 ADD SWAP1 POP DUP2 DUP2 SUB PUSH0 DUP4 ADD MSTORE PUSH2 0x6EF2 DUP2 PUSH2 0x6EB9 JUMP JUMPDEST SWAP1 POP SWAP2 SWAP1 POP JUMP JUMPDEST PUSH0 DUP2 MLOAD SWAP1 POP PUSH2 0x6F07 DUP2 PUSH2 0x5F8A JUMP JUMPDEST SWAP3 SWAP2 POP POP JUMP JUMPDEST PUSH0 DUP1 PUSH1 0x40 DUP4 DUP6 SUB SLT ISZERO PUSH2 0x6F23 JUMPI PUSH2 0x6F22 PUSH2 0x5F1F JUMP JUMPDEST JUMPDEST PUSH0 PUSH2 0x6F30 DUP6 DUP3 DUP7 ADD PUSH2 0x6EF9 JUMP JUMPDEST SWAP3 POP POP PUSH1 0x20 PUSH2 0x6F41 DUP6 DUP3 DUP7 ADD PUSH2 0x6BF8 JUMP JUMPDEST SWAP2 POP POP SWAP3 POP SWAP3 SWAP1 POP JUMP JUMPDEST PUSH0 PUSH1 0x20 DUP3 DUP5 SUB SLT ISZERO PUSH2 0x6F60 JUMPI PUSH2 0x6F5F PUSH2 0x5F1F JUMP JUMPDEST JUMPDEST PUSH0 PUSH2 0x6F6D DUP5 DUP3 DUP6 ADD PUSH2 0x6EF9 JUMP JUMPDEST SWAP2 POP POP SWAP3 SWAP2 POP POP JUMP JUMPDEST PUSH0 PUSH1 0x40 DUP3 ADD SWAP1 POP PUSH2 0x6F89 PUSH0 DUP4 ADD DUP6 PUSH2 0x6825 JUMP JUMPDEST PUSH2 0x6F96 PUSH1 0x20 DUP4 ADD DUP5 PUSH2 0x5FF2 JUMP JUMPDEST SWAP4 SWAP3 POP POP POP JUMP JUMPDEST PUSH32 0x4D696E742061746C65617374206F6E6365000000000000000000000000000000 PUSH0 DUP3 ADD MSTORE POP JUMP JUMPDEST PUSH0 PUSH2 0x6FD1 PUSH1 0x11 DUP4 PUSH2 0x6162 JUMP JUMPDEST SWAP2 POP PUSH2 0x6FDC DUP3 PUSH2 0x6F9D JUMP JUMPDEST PUSH1 0x20 DUP3 ADD SWAP1 POP SWAP2 SWAP1 POP JUMP JUMPDEST PUSH0 PUSH1 0x20 DUP3 ADD SWAP1 POP DUP2 DUP2 SUB PUSH0 DUP4 ADD MSTORE PUSH2 0x6FFE DUP2 PUSH2 0x6FC5 JUMP JUMPDEST SWAP1 POP SWAP2 SWAP1 POP JUMP JUMPDEST PUSH32 0x52657761726420616C726561647920636C61696D656421000000000000000000 PUSH0 DUP3 ADD MSTORE POP JUMP JUMPDEST PUSH0 PUSH2 0x7039 PUSH1 0x17 DUP4 PUSH2 0x6162 JUMP JUMPDEST SWAP2 POP PUSH2 0x7044 DUP3 PUSH2 0x7005 JUMP JUMPDEST PUSH1 0x20 DUP3 ADD SWAP1 POP SWAP2 SWAP1 POP JUMP JUMPDEST PUSH0 PUSH1 0x20 DUP3 ADD SWAP1 POP DUP2 DUP2 SUB PUSH0 DUP4 ADD MSTORE PUSH2 0x7066 DUP2 PUSH2 0x702D JUMP JUMPDEST SWAP1 POP SWAP2 SWAP1 POP JUMP JUMPDEST PUSH0 PUSH2 0x7077 DUP3 PUSH2 0x5F81 JUMP JUMPDEST SWAP2 POP PUSH2 0x7082 DUP4 PUSH2 0x5F81 JUMP JUMPDEST SWAP3 POP DUP3 DUP3 MUL PUSH2 0x7090 DUP2 PUSH2 0x5F81 JUMP JUMPDEST SWAP2 POP DUP3 DUP3 DIV DUP5 EQ DUP4 ISZERO OR PUSH2 0x70A7 JUMPI PUSH2 0x70A6 PUSH2 0x6C9F JUMP JUMPDEST JUMPDEST POP SWAP3 SWAP2 POP POP JUMP JUMPDEST PUSH0 PUSH1 0x60 DUP3 ADD SWAP1 POP PUSH2 0x70C1 PUSH0 DUP4 ADD DUP7 PUSH2 0x6825 JUMP JUMPDEST PUSH2 0x70CE PUSH1 0x20 DUP4 ADD DUP6 PUSH2 0x5FF2 JUMP JUMPDEST PUSH2 0x70DB PUSH1 0x40 DUP4 ADD DUP5 PUSH2 0x5FF2 JUMP JUMPDEST SWAP5 SWAP4 POP POP POP POP JUMP JUMPDEST PUSH32 0x4465706F736974206D757374206265206D6F7265207468616E20302100000000 PUSH0 DUP3 ADD MSTORE POP JUMP JUMPDEST PUSH0 PUSH2 0x7117 PUSH1 0x1C DUP4 PUSH2 0x6162 JUMP JUMPDEST SWAP2 POP PUSH2 0x7122 DUP3 PUSH2 0x70E3 JUMP JUMPDEST PUSH1 0x20 DUP3 ADD SWAP1 POP SWAP2 SWAP1 POP JUMP JUMPDEST PUSH0 PUSH1 0x20 DUP3 ADD SWAP1 POP DUP2 DUP2 SUB PUSH0 DUP4 ADD MSTORE PUSH2 0x7144 DUP2 PUSH2 0x710B JUMP JUMPDEST SWAP1 POP SWAP2 SWAP1 POP JUMP JUMPDEST PUSH32 0x4E487B7100000000000000000000000000000000000000000000000000000000 PUSH0 MSTORE PUSH1 0x12 PUSH1 0x4 MSTORE PUSH1 0x24 PUSH0 REVERT JUMPDEST PUSH0 PUSH2 0x7182 DUP3 PUSH2 0x5F81 JUMP JUMPDEST SWAP2 POP PUSH2 0x718D DUP4 PUSH2 0x5F81 JUMP JUMPDEST SWAP3 POP DUP3 PUSH2 0x719D JUMPI PUSH2 0x719C PUSH2 0x714B JUMP JUMPDEST JUMPDEST DUP3 DUP3 DIV SWAP1 POP SWAP3 SWAP2 POP POP JUMP JUMPDEST PUSH0 PUSH2 0x71B2 DUP3 PUSH2 0x5F81 JUMP JUMPDEST SWAP2 POP PUSH2 0x71BD DUP4 PUSH2 0x5F81 JUMP JUMPDEST SWAP3 POP DUP3 DUP3 ADD SWAP1 POP DUP1 DUP3 GT ISZERO PUSH2 0x71D5 JUMPI PUSH2 0x71D4 PUSH2 0x6C9F JUMP JUMPDEST JUMPDEST SWAP3 SWAP2 POP POP JUMP JUMPDEST PUSH32 0x626173654E2065786365656473206D61782076616C75652E0000000000000000 PUSH0 DUP3 ADD MSTORE POP JUMP JUMPDEST PUSH0 PUSH2 0x720F PUSH1 0x18 DUP4 PUSH2 0x6162 JUMP JUMPDEST SWAP2 POP PUSH2 0x721A DUP3 PUSH2 0x71DB JUMP JUMPDEST PUSH1 0x20 DUP3 ADD SWAP1 POP SWAP2 SWAP1 POP JUMP JUMPDEST PUSH0 PUSH1 0x20 DUP3 ADD SWAP1 POP DUP2 DUP2 SUB PUSH0 DUP4 ADD MSTORE PUSH2 0x723C DUP2 PUSH2 0x7203 JUMP JUMPDEST SWAP1 POP SWAP2 SWAP1 POP JUMP JUMPDEST PUSH32 0x4261736573203C203120617265206E6F7420737570706F727465642E00000000 PUSH0 DUP3 ADD MSTORE POP JUMP JUMPDEST PUSH0 PUSH2 0x7277 PUSH1 0x1C DUP4 PUSH2 0x6162 JUMP JUMPDEST SWAP2 POP PUSH2 0x7282 DUP3 PUSH2 0x7243 JUMP JUMPDEST PUSH1 0x20 DUP3 ADD SWAP1 POP SWAP2 SWAP1 POP JUMP JUMPDEST PUSH0 PUSH1 0x20 DUP3 ADD SWAP1 POP DUP2 DUP2 SUB PUSH0 DUP4 ADD MSTORE PUSH2 0x72A4 DUP2 PUSH2 0x726B JUMP JUMPDEST SWAP1 POP SWAP2 SWAP1 POP JUMP JUMPDEST PUSH0 PUSH1 0xFF DUP3 AND SWAP1 POP SWAP2 SWAP1 POP JUMP JUMPDEST PUSH0 PUSH2 0x72C1 DUP3 PUSH2 0x72AB JUMP JUMPDEST SWAP2 POP PUSH2 0x72CC DUP4 PUSH2 0x72AB JUMP JUMPDEST SWAP3 POP DUP3 DUP3 SUB SWAP1 POP PUSH1 0xFF DUP2 GT ISZERO PUSH2 0x72E5 JUMPI PUSH2 0x72E4 PUSH2 0x6C9F JUMP JUMPDEST JUMPDEST SWAP3 SWAP2 POP POP JUMP JUMPDEST PUSH32 0x52657761726465642063656C656220696420616C726561647920666574636865 PUSH0 DUP3 ADD MSTORE PUSH32 0x642E000000000000000000000000000000000000000000000000000000000000 PUSH1 0x20 DUP3 ADD MSTORE POP JUMP JUMPDEST PUSH0 PUSH2 0x7345 PUSH1 0x22 DUP4 PUSH2 0x6162 JUMP JUMPDEST SWAP2 POP PUSH2 0x7350 DUP3 PUSH2 0x72EB JUMP JUMPDEST PUSH1 0x40 DUP3 ADD SWAP1 POP SWAP2 SWAP1 POP JUMP JUMPDEST PUSH0 PUSH1 0x20 DUP3 ADD SWAP1 POP DUP2 DUP2 SUB PUSH0 DUP4 ADD MSTORE PUSH2 0x7372 DUP2 PUSH2 0x7339 JUMP JUMPDEST SWAP1 POP SWAP2 SWAP1 POP JUMP JUMPDEST PUSH2 0x7382 DUP2 PUSH2 0x67F4 JUMP JUMPDEST DUP2 EQ PUSH2 0x738C JUMPI PUSH0 DUP1 REVERT JUMPDEST POP JUMP JUMPDEST PUSH0 DUP2 MLOAD SWAP1 POP PUSH2 0x739D DUP2 PUSH2 0x7379 JUMP JUMPDEST SWAP3 SWAP2 POP POP JUMP JUMPDEST PUSH0 PUSH1 0x20 DUP3 DUP5 SUB SLT ISZERO PUSH2 0x73B8 JUMPI PUSH2 0x73B7 PUSH2 0x5F1F JUMP JUMPDEST JUMPDEST PUSH0 PUSH2 0x73C5 DUP5 DUP3 DUP6 ADD PUSH2 0x738F JUMP JUMPDEST SWAP2 POP POP SWAP3 SWAP2 POP POP JUMP JUMPDEST PUSH0 PUSH1 0x40 DUP3 ADD SWAP1 POP PUSH2 0x73E1 PUSH0 DUP4 ADD DUP6 PUSH2 0x5FF2 JUMP JUMPDEST PUSH2 0x73EE PUSH1 0x20 DUP4 ADD DUP5 PUSH2 0x67FD JUMP JUMPDEST SWAP4 SWAP3 POP POP POP JUMP JUMPDEST PUSH32 0x416D6F756E74206D757374206265206E6F6E2D7A65726F210000000000000000 PUSH0 DUP3 ADD MSTORE POP JUMP JUMPDEST PUSH0 PUSH2 0x7429 PUSH1 0x18 DUP4 PUSH2 0x6162 JUMP JUMPDEST SWAP2 POP PUSH2 0x7434 DUP3 PUSH2 0x73F5 JUMP JUMPDEST PUSH1 0x20 DUP3 ADD SWAP1 POP SWAP2 SWAP1 POP JUMP JUMPDEST PUSH0 PUSH1 0x20 DUP3 ADD SWAP1 POP DUP2 DUP2 SUB PUSH0 DUP4 ADD MSTORE PUSH2 0x7456 DUP2 PUSH2 0x741D JUMP JUMPDEST SWAP1 POP SWAP2 SWAP1 POP JUMP JUMPDEST PUSH32 0x496E73756666696369656E7420746F6B656E7320746F206275726E2100000000 PUSH0 DUP3 ADD MSTORE POP JUMP JUMPDEST PUSH0 PUSH2 0x7491 PUSH1 0x1C DUP4 PUSH2 0x6162 JUMP JUMPDEST SWAP2 POP PUSH2 0x749C DUP3 PUSH2 0x745D JUMP JUMPDEST PUSH1 0x20 DUP3 ADD SWAP1 POP SWAP2 SWAP1 POP JUMP JUMPDEST PUSH0 PUSH1 0x20 DUP3 ADD SWAP1 POP DUP2 DUP2 SUB PUSH0 DUP4 ADD MSTORE PUSH2 0x74BE DUP2 PUSH2 0x7485 JUMP JUMPDEST SWAP1 POP SWAP2 SWAP1 POP JUMP JUMPDEST PUSH32 0x4E6F7420656E6F756768207265776172642066756E6473210000000000000000 PUSH0 DUP3 ADD MSTORE POP JUMP JUMPDEST PUSH0 PUSH2 0x74F9 PUSH1 0x18 DUP4 PUSH2 0x6162 JUMP JUMPDEST SWAP2 POP PUSH2 0x7504 DUP3 PUSH2 0x74C5 JUMP JUMPDEST PUSH1 0x20 DUP3 ADD SWAP1 POP SWAP2 SWAP1 POP JUMP JUMPDEST PUSH0 PUSH1 0x20 DUP3 ADD SWAP1 POP DUP2 DUP2 SUB PUSH0 DUP4 ADD MSTORE PUSH2 0x7526 DUP2 PUSH2 0x74ED JUMP JUMPDEST SWAP1 POP SWAP2 SWAP1 POP JUMP JUMPDEST PUSH32 0x43616E6E6F74207363686564756C6520666F7220706173742064617465000000 PUSH0 DUP3 ADD MSTORE POP JUMP JUMPDEST PUSH0 PUSH2 0x7561 PUSH1 0x1D DUP4 PUSH2 0x6162 JUMP JUMPDEST SWAP2 POP PUSH2 0x756C DUP3 PUSH2 0x752D JUMP JUMPDEST PUSH1 0x20 DUP3 ADD SWAP1 POP SWAP2 SWAP1 POP JUMP JUMPDEST PUSH0 PUSH1 0x20 DUP3 ADD SWAP1 POP DUP2 DUP2 SUB PUSH0 DUP4 ADD MSTORE PUSH2 0x758E DUP2 PUSH2 0x7555 JUMP JUMPDEST SWAP1 POP SWAP2 SWAP1 POP JUMP JUMPDEST PUSH32 0x496E76616C696420696E70757473210000000000000000000000000000000000 PUSH0 DUP3 ADD MSTORE POP JUMP JUMPDEST PUSH0 PUSH2 0x75C9 PUSH1 0xF DUP4 PUSH2 0x6162 JUMP JUMPDEST SWAP2 POP PUSH2 0x75D4 DUP3 PUSH2 0x7595 JUMP JUMPDEST PUSH1 0x20 DUP3 ADD SWAP1 POP SWAP2 SWAP1 POP JUMP JUMPDEST PUSH0 PUSH1 0x20 DUP3 ADD SWAP1 POP DUP2 DUP2 SUB PUSH0 DUP4 ADD MSTORE PUSH2 0x75F6 DUP2 PUSH2 0x75BD JUMP JUMPDEST SWAP1 POP SWAP2 SWAP1 POP JUMP JUMPDEST PUSH32 0x5265776172647320646973747269627574696F6E206973207374696C6C206163 PUSH0 DUP3 ADD MSTORE PUSH32 0x74697665206F7220616C7265616479207363686564756C656421000000000000 PUSH1 0x20 DUP3 ADD MSTORE POP JUMP JUMPDEST PUSH0 PUSH2 0x7657 PUSH1 0x3A DUP4 PUSH2 0x6162 JUMP JUMPDEST SWAP2 POP PUSH2 0x7662 DUP3 PUSH2 0x75FD JUMP JUMPDEST PUSH1 0x40 DUP3 ADD SWAP1 POP SWAP2 SWAP1 POP JUMP JUMPDEST PUSH0 PUSH1 0x20 DUP3 ADD SWAP1 POP DUP2 DUP2 SUB PUSH0 DUP4 ADD MSTORE PUSH2 0x7684 DUP2 PUSH2 0x764B JUMP JUMPDEST SWAP1 POP SWAP2 SWAP1 POP JUMP JUMPDEST PUSH32 0x4E6F7420656E6F756768204C696E6B2062616C616E6365210000000000000000 PUSH0 DUP3 ADD MSTORE POP JUMP JUMPDEST PUSH0 PUSH2 0x76BF PUSH1 0x18 DUP4 PUSH2 0x6162 JUMP JUMPDEST SWAP2 POP PUSH2 0x76CA DUP3 PUSH2 0x768B JUMP JUMPDEST PUSH1 0x20 DUP3 ADD SWAP1 POP SWAP2 SWAP1 POP JUMP JUMPDEST PUSH0 PUSH1 0x20 DUP3 ADD SWAP1 POP DUP2 DUP2 SUB PUSH0 DUP4 ADD MSTORE PUSH2 0x76EC DUP2 PUSH2 0x76B3 JUMP JUMPDEST SWAP1 POP SWAP2 SWAP1 POP JUMP JUMPDEST PUSH0 PUSH1 0x80 DUP3 ADD SWAP1 POP PUSH2 0x7706 PUSH0 DUP4 ADD DUP8 PUSH2 0x5FF2 JUMP JUMPDEST PUSH2 0x7713 PUSH1 0x20 DUP4 ADD DUP7 PUSH2 0x5FF2 JUMP JUMPDEST PUSH2 0x7720 PUSH1 0x40 DUP4 ADD DUP6 PUSH2 0x5FF2 JUMP JUMPDEST PUSH2 0x772D PUSH1 0x60 DUP4 ADD DUP5 PUSH2 0x5FF2 JUMP JUMPDEST SWAP6 SWAP5 POP POP POP POP POP JUMP JUMPDEST PUSH0 PUSH2 0x7740 DUP3 PUSH2 0x72AB JUMP JUMPDEST SWAP2 POP PUSH0 DUP3 SUB PUSH2 0x7752 JUMPI PUSH2 0x7751 PUSH2 0x6C9F JUMP JUMPDEST JUMPDEST PUSH1 0x1 DUP3 SUB SWAP1 POP SWAP2 SWAP1 POP JUMP JUMPDEST PUSH0 PUSH2 0x7767 DUP3 PUSH2 0x5F81 JUMP JUMPDEST SWAP2 POP PUSH2 0x7772 DUP4 PUSH2 0x5F81 JUMP JUMPDEST SWAP3 POP DUP3 PUSH2 0x7782 JUMPI PUSH2 0x7781 PUSH2 0x714B JUMP JUMPDEST JUMPDEST DUP3 DUP3 MOD SWAP1 POP SWAP3 SWAP2 POP POP JUMP JUMPDEST PUSH0 PUSH2 0x7797 DUP3 PUSH2 0x72AB JUMP JUMPDEST SWAP2 POP PUSH2 0x77A2 DUP4 PUSH2 0x72AB JUMP JUMPDEST SWAP3 POP DUP3 DUP3 ADD SWAP1 POP PUSH1 0xFF DUP2 GT ISZERO PUSH2 0x77BB JUMPI PUSH2 0x77BA PUSH2 0x6C9F JUMP JUMPDEST JUMPDEST SWAP3 SWAP2 POP POP JUMP JUMPDEST PUSH0 PUSH2 0x77CB DUP3 PUSH2 0x72AB JUMP JUMPDEST SWAP2 POP PUSH2 0x77D6 DUP4 PUSH2 0x72AB JUMP JUMPDEST SWAP3 POP DUP3 PUSH2 0x77E6 JUMPI PUSH2 0x77E5 PUSH2 0x714B JUMP JUMPDEST JUMPDEST DUP3 DUP3 DIV SWAP1 POP SWAP3 SWAP2 POP POP JUMP JUMPDEST PUSH32 0x4E487B7100000000000000000000000000000000000000000000000000000000 PUSH0 MSTORE PUSH1 0x1 PUSH1 0x4 MSTORE PUSH1 0x24 PUSH0 REVERT JUMPDEST PUSH0 DUP2 MLOAD SWAP1 POP SWAP2 SWAP1 POP JUMP JUMPDEST PUSH0 DUP3 DUP3 MSTORE PUSH1 0x20 DUP3 ADD SWAP1 POP SWAP3 SWAP2 POP POP JUMP JUMPDEST PUSH0 PUSH2 0x7842 DUP3 PUSH2 0x781E JUMP JUMPDEST PUSH2 0x784C DUP2 DUP6 PUSH2 0x7828 JUMP JUMPDEST SWAP4 POP PUSH2 0x785C DUP2 DUP6 PUSH1 0x20 DUP7 ADD PUSH2 0x6172 JUMP JUMPDEST PUSH2 0x7865 DUP2 PUSH2 0x619A JUMP JUMPDEST DUP5 ADD SWAP2 POP POP SWAP3 SWAP2 POP POP JUMP JUMPDEST PUSH0 PUSH1 0xA0 DUP3 ADD SWAP1 POP PUSH2 0x7883 PUSH0 DUP4 ADD DUP9 PUSH2 0x6825 JUMP JUMPDEST PUSH2 0x7890 PUSH1 0x20 DUP4 ADD DUP8 PUSH2 0x6825 JUMP JUMPDEST PUSH2 0x789D PUSH1 0x40 DUP4 ADD DUP7 PUSH2 0x5FF2 JUMP JUMPDEST PUSH2 0x78AA PUSH1 0x60 DUP4 ADD DUP6 PUSH2 0x5FF2 JUMP JUMPDEST DUP2 DUP2 SUB PUSH1 0x80 DUP4 ADD MSTORE PUSH2 0x78BC DUP2 DUP5 PUSH2 0x7838 JUMP JUMPDEST SWAP1 POP SWAP7 SWAP6 POP POP POP POP POP POP JUMP JUMPDEST PUSH0 DUP2 MLOAD SWAP1 POP PUSH2 0x78D6 DUP2 PUSH2 0x6045 JUMP JUMPDEST SWAP3 SWAP2 POP POP JUMP JUMPDEST PUSH0 PUSH1 0x20 DUP3 DUP5 SUB SLT ISZERO PUSH2 0x78F1 JUMPI PUSH2 0x78F0 PUSH2 0x5F1F JUMP JUMPDEST JUMPDEST PUSH0 PUSH2 0x78FE DUP5 DUP3 DUP6 ADD PUSH2 0x78C8 JUMP JUMPDEST SWAP2 POP POP SWAP3 SWAP2 POP POP JUMP JUMPDEST PUSH0 PUSH1 0xA0 DUP3 ADD SWAP1 POP PUSH2 0x791A PUSH0 DUP4 ADD DUP9 PUSH2 0x6825 JUMP JUMPDEST PUSH2 0x7927 PUSH1 0x20 DUP4 ADD DUP8 PUSH2 0x6825 JUMP JUMPDEST DUP2 DUP2 SUB PUSH1 0x40 DUP4 ADD MSTORE PUSH2 0x7939 DUP2 DUP7 PUSH2 0x6751 JUMP JUMPDEST SWAP1 POP DUP2 DUP2 SUB PUSH1 0x60 DUP4 ADD MSTORE PUSH2 0x794D DUP2 DUP6 PUSH2 0x6751 JUMP JUMPDEST SWAP1 POP DUP2 DUP2 SUB PUSH1 0x80 DUP4 ADD MSTORE PUSH2 0x7961 DUP2 DUP5 PUSH2 0x7838 JUMP JUMPDEST SWAP1 POP SWAP7 SWAP6 POP POP POP POP POP POP JUMP JUMPDEST PUSH0 PUSH1 0x80 DUP3 ADD SWAP1 POP PUSH2 0x7980 PUSH0 DUP4 ADD DUP8 PUSH2 0x6825 JUMP JUMPDEST PUSH2 0x798D PUSH1 0x20 DUP4 ADD DUP7 PUSH2 0x5FF2 JUMP JUMPDEST PUSH2 0x799A PUSH1 0x40 DUP4 ADD DUP6 PUSH2 0x5FF2 JUMP JUMPDEST PUSH2 0x79A7 PUSH1 0x60 DUP4 ADD DUP5 PUSH2 0x5FF2 JUMP JUMPDEST SWAP6 SWAP5 POP POP POP POP POP JUMP JUMPDEST PUSH0 PUSH1 0x40 DUP3 ADD SWAP1 POP DUP2 DUP2 SUB PUSH0 DUP4 ADD MSTORE PUSH2 0x79C8 DUP2 DUP6 PUSH2 0x6751 JUMP JUMPDEST SWAP1 POP DUP2 DUP2 SUB PUSH1 0x20 DUP4 ADD MSTORE PUSH2 0x79DC DUP2 DUP5 PUSH2 0x6751 JUMP JUMPDEST SWAP1 POP SWAP4 SWAP3 POP POP POP JUMP INVALID LOG2 PUSH5 0x6970667358 0x22 SLT KECCAK256 0xDC AND 0xC9 PREVRANDAO CODECOPY AND 0x23 0x2C PUSH8 0xBF489BB82AD07F2D SLT PUSH32 0x7DFE29E6F02EE2329999750E0864736F6C634300081400330000000000000000 "
		},
		"gasEstimates": {
			"creation": {
				"codeDepositCost": "6251800",
				"executionCost": "infinite",
				"totalCost": "infinite"
			},
			"external": {
				"OPERATION_FEE_PERCENTAGE()": "399",
				"SCALE()": "458",
				"accountFirstTimeReward(address)": "infinite",
				"addRewardFunds(uint256)": "infinite",
				"availableRewardFunds()": "2515",
				"balanceOf(address,uint256)": "infinite",
				"balanceOfBatch(address[],uint256[])": "infinite",
				"burn(uint256,uint256)": "infinite",
				"calculateCurvedBurnReturn(uint256,uint256)": "infinite",
				"calculateCurvedMintReturn(uint256,uint256)": "infinite",
				"calculateFirstTimeRewardAmount(uint256)": "infinite",
				"calculateOperationFee(uint256)": "infinite",
				"calculatePurchaseReturn(uint256,uint256,uint32,uint256)": "infinite",
				"calculatePurchaseReturnAfterDeductingFee(uint256,uint256)": "infinite",
				"calculateRewardAmount(uint256,uint256)": "infinite",
				"calculateSaleReturn(uint256,uint256,uint32,uint256)": "infinite",
				"calculateSellReturnAfterDeductingFee(uint256,uint256)": "infinite",
				"claimFirstTimeReward(address)": "infinite",
				"claimRewards(address)": "infinite",
				"claimed(address)": "2870",
				"collectedOperationsFee()": "2516",
				"exists(uint256)": "2957",
				"firstTimeRewardPercentage()": "2493",
				"getActiveRewardId()": "infinite",
				"getCelebIdToBeRewarded(uint256)": "infinite",
				"getCountOfRegisteredCelebrities()": "2566",
				"getFirstTimeRewardAmount(address)": "2903",
				"hasMintedAtleastOnce(address)": "2917",
				"isApprovedForAll(address,address)": "infinite",
				"isFirstTimeMinter(address)": "2959",
				"isFirstTimeRewardClaimed(address)": "3026",
				"isRewardActive()": "infinite",
				"isRewardClaimed(address,uint256)": "3102",
				"isRewardScheduled()": "infinite",
				"mint(uint256,uint256)": "infinite",
				"nextRewardId()": "2536",
				"owner()": "2671",
				"registerNewCelebrity()": "infinite",
				"renounceOwnership()": "infinite",
				"requestRewardedCelebId()": "infinite",
				"reserveBalance(uint256)": "infinite",
				"reserveRatio()": "2538",
				"rewards(uint256)": "infinite",
				"safeBatchTransferFrom(address,address,uint256[],uint256[],bytes)": "infinite",
				"safeTransferFrom(address,address,uint256,uint256,bytes)": "infinite",
				"scheduleReward(uint256,uint256,uint256)": "infinite",
				"setApprovalForAll(address,bool)": "infinite",
				"supportsInterface(bytes4)": "832",
				"totalSupply()": "2501",
				"totalSupply(uint256)": "infinite",
				"transferOwnership(address)": "infinite",
				"updateFirstTimeRewardPercentage(uint256)": "infinite",
				"uri(uint256)": "infinite",
				"version()": "infinite"
			},
			"internal": {
				"collectOperationFee(uint256)": "infinite",
				"enableFirstTimeReward(address,uint256,uint256)": "infinite",
				"processRewardClaim(address)": "infinite",
				"transferRewardAmountIfClaimIsSuccessful(enum CelebStar.ClaimStatusCode,uint256)": "infinite"
			}
		},
		"methodIdentifiers": {
			"OPERATION_FEE_PERCENTAGE()": "35d1fc06",
			"SCALE()": "eced5526",
			"accountFirstTimeReward(address)": "03f1c622",
			"addRewardFunds(uint256)": "2cc34940",
			"availableRewardFunds()": "d0377094",
			"balanceOf(address,uint256)": "00fdd58e",
			"balanceOfBatch(address[],uint256[])": "4e1273f4",
			"burn(uint256,uint256)": "b390c0ab",
			"calculateCurvedBurnReturn(uint256,uint256)": "ee37778d",
			"calculateCurvedMintReturn(uint256,uint256)": "a3111abd",
			"calculateFirstTimeRewardAmount(uint256)": "83ded12e",
			"calculateOperationFee(uint256)": "254f8c9f",
			"calculatePurchaseReturn(uint256,uint256,uint32,uint256)": "29a00e7c",
			"calculatePurchaseReturnAfterDeductingFee(uint256,uint256)": "3517d9d7",
			"calculateRewardAmount(uint256,uint256)": "1e257a04",
			"calculateSaleReturn(uint256,uint256,uint32,uint256)": "49f9b0f7",
			"calculateSellReturnAfterDeductingFee(uint256,uint256)": "708cb49c",
			"claimFirstTimeReward(address)": "b3cb1107",
			"claimRewards(address)": "ef5cfb8c",
			"claimed(address)": "c884ef83",
			"collectedOperationsFee()": "34241793",
			"exists(uint256)": "4f558e79",
			"firstTimeRewardPercentage()": "5333ecb8",
			"getActiveRewardId()": "57c1a47f",
			"getCelebIdToBeRewarded(uint256)": "5e1aea0a",
			"getCountOfRegisteredCelebrities()": "8515dd81",
			"getFirstTimeRewardAmount(address)": "7a67f053",
			"hasMintedAtleastOnce(address)": "daec6af6",
			"isApprovedForAll(address,address)": "e985e9c5",
			"isFirstTimeMinter(address)": "d1f89993",
			"isFirstTimeRewardClaimed(address)": "f3432b88",
			"isRewardActive()": "1d0e98f3",
			"isRewardClaimed(address,uint256)": "81e0a842",
			"isRewardScheduled()": "df478880",
			"mint(uint256,uint256)": "1b2ef1ca",
			"nextRewardId()": "f064997c",
			"owner()": "8da5cb5b",
			"registerNewCelebrity()": "b6a33e56",
			"renounceOwnership()": "715018a6",
			"requestRewardedCelebId()": "71b7747a",
			"reserveBalance(uint256)": "14269687",
			"reserveRatio()": "0c7d5cd8",
			"rewards(uint256)": "f301af42",
			"safeBatchTransferFrom(address,address,uint256[],uint256[],bytes)": "2eb2c2d6",
			"safeTransferFrom(address,address,uint256,uint256,bytes)": "f242432a",
			"scheduleReward(uint256,uint256,uint256)": "c62472f3",
			"setApprovalForAll(address,bool)": "a22cb465",
			"supportsInterface(bytes4)": "01ffc9a7",
			"totalSupply()": "18160ddd",
			"totalSupply(uint256)": "bd85b039",
			"transferOwnership(address)": "f2fde38b",
			"updateFirstTimeRewardPercentage(uint256)": "636d8e54",
			"uri(uint256)": "0e89341c",
			"version()": "54fd4d50"
		}
	},
	"abi": [
		{
			"inputs": [
				{
					"internalType": "uint256",
					"name": "_reserveRatio",
					"type": "uint256"
				},
				{
					"internalType": "address",
					"name": "_talContractAddress",
					"type": "address"
				},
				{
					"internalType": "address",
					"name": "_oracleClientAddress",
					"type": "address"
				}
			],
			"stateMutability": "nonpayable",
			"type": "constructor"
		},
		{
			"inputs": [
				{
					"internalType": "address",
					"name": "sender",
					"type": "address"
				},
				{
					"internalType": "uint256",
					"name": "balance",
					"type": "uint256"
				},
				{
					"internalType": "uint256",
					"name": "needed",
					"type": "uint256"
				},
				{
					"internalType": "uint256",
					"name": "tokenId",
					"type": "uint256"
				}
			],
			"name": "ERC1155InsufficientBalance",
			"type": "error"
		},
		{
			"inputs": [
				{
					"internalType": "address",
					"name": "approver",
					"type": "address"
				}
			],
			"name": "ERC1155InvalidApprover",
			"type": "error"
		},
		{
			"inputs": [
				{
					"internalType": "uint256",
					"name": "idsLength",
					"type": "uint256"
				},
				{
					"internalType": "uint256",
					"name": "valuesLength",
					"type": "uint256"
				}
			],
			"name": "ERC1155InvalidArrayLength",
			"type": "error"
		},
		{
			"inputs": [
				{
					"internalType": "address",
					"name": "operator",
					"type": "address"
				}
			],
			"name": "ERC1155InvalidOperator",
			"type": "error"
		},
		{
			"inputs": [
				{
					"internalType": "address",
					"name": "receiver",
					"type": "address"
				}
			],
			"name": "ERC1155InvalidReceiver",
			"type": "error"
		},
		{
			"inputs": [
				{
					"internalType": "address",
					"name": "sender",
					"type": "address"
				}
			],
			"name": "ERC1155InvalidSender",
			"type": "error"
		},
		{
			"inputs": [
				{
					"internalType": "address",
					"name": "operator",
					"type": "address"
				},
				{
					"internalType": "address",
					"name": "owner",
					"type": "address"
				}
			],
			"name": "ERC1155MissingApprovalForAll",
			"type": "error"
		},
		{
			"inputs": [
				{
					"internalType": "address",
					"name": "owner",
					"type": "address"
				}
			],
			"name": "OwnableInvalidOwner",
			"type": "error"
		},
		{
			"inputs": [
				{
					"internalType": "address",
					"name": "account",
					"type": "address"
				}
			],
			"name": "OwnableUnauthorizedAccount",
			"type": "error"
		},
		{
			"anonymous": false,
			"inputs": [
				{
					"indexed": true,
					"internalType": "address",
					"name": "account",
					"type": "address"
				},
				{
					"indexed": true,
					"internalType": "address",
					"name": "operator",
					"type": "address"
				},
				{
					"indexed": false,
					"internalType": "bool",
					"name": "approved",
					"type": "bool"
				}
			],
			"name": "ApprovalForAll",
			"type": "event"
		},
		{
			"anonymous": false,
			"inputs": [
				{
					"indexed": false,
					"internalType": "address",
					"name": "account",
					"type": "address"
				},
				{
					"indexed": false,
					"internalType": "uint256",
					"name": "burned",
					"type": "uint256"
				},
				{
					"indexed": false,
					"internalType": "uint256",
					"name": "received",
					"type": "uint256"
				}
			],
			"name": "CurvedBurn",
			"type": "event"
		},
		{
			"anonymous": false,
			"inputs": [
				{
					"indexed": false,
					"internalType": "address",
					"name": "account",
					"type": "address"
				},
				{
					"indexed": false,
					"internalType": "uint256",
					"name": "received",
					"type": "uint256"
				},
				{
					"indexed": false,
					"internalType": "uint256",
					"name": "deposit",
					"type": "uint256"
				}
			],
			"name": "CurvedMint",
			"type": "event"
		},
		{
			"anonymous": false,
			"inputs": [
				{
					"indexed": false,
					"internalType": "address",
					"name": "account",
					"type": "address"
				},
				{
					"indexed": false,
					"internalType": "uint256",
					"name": "celebId",
					"type": "uint256"
				},
				{
					"indexed": false,
					"internalType": "uint256",
					"name": "rewardAmount",
					"type": "uint256"
				}
			],
			"name": "FirstTimeRewardClaimed",
			"type": "event"
		},
		{
			"anonymous": false,
			"inputs": [
				{
					"indexed": false,
					"internalType": "address",
					"name": "account",
					"type": "address"
				},
				{
					"indexed": false,
					"internalType": "uint256",
					"name": "celebId",
					"type": "uint256"
				},
				{
					"indexed": false,
					"internalType": "uint256",
					"name": "amount",
					"type": "uint256"
				}
			],
			"name": "FirstTimeRewardEnabled",
			"type": "event"
		},
		{
			"anonymous": false,
			"inputs": [
				{
					"indexed": true,
					"internalType": "address",
					"name": "previousOwner",
					"type": "address"
				},
				{
					"indexed": true,
					"internalType": "address",
					"name": "newOwner",
					"type": "address"
				}
			],
			"name": "OwnershipTransferred",
			"type": "event"
		},
		{
			"anonymous": false,
			"inputs": [
				{
					"indexed": false,
					"internalType": "address",
					"name": "from",
					"type": "address"
				},
				{
					"indexed": false,
					"internalType": "uint256",
					"name": "id",
					"type": "uint256"
				}
			],
			"name": "RegisteredCelebToken",
			"type": "event"
		},
		{
			"anonymous": false,
			"inputs": [
				{
					"indexed": false,
					"internalType": "address",
					"name": "account",
					"type": "address"
				},
				{
					"indexed": false,
					"internalType": "uint256",
					"name": "rewardId",
					"type": "uint256"
				},
				{
					"indexed": false,
					"internalType": "uint256",
					"name": "amount",
					"type": "uint256"
				}
			],
			"name": "RewardClaimed",
			"type": "event"
		},
		{
			"anonymous": false,
			"inputs": [
				{
					"indexed": false,
					"internalType": "uint256",
					"name": "rewardId",
					"type": "uint256"
				},
				{
					"indexed": false,
					"internalType": "bytes32",
					"name": "requestId",
					"type": "bytes32"
				}
			],
			"name": "RewardDataRequested",
			"type": "event"
		},
		{
			"anonymous": false,
			"inputs": [
				{
					"indexed": false,
					"internalType": "address",
					"name": "account",
					"type": "address"
				},
				{
					"indexed": false,
					"internalType": "uint256",
					"name": "fundAmount",
					"type": "uint256"
				}
			],
			"name": "RewardFundCredited",
			"type": "event"
		},
		{
			"anonymous": false,
			"inputs": [
				{
					"indexed": false,
					"internalType": "uint256",
					"name": "id",
					"type": "uint256"
				},
				{
					"indexed": false,
					"internalType": "uint256",
					"name": "start",
					"type": "uint256"
				},
				{
					"indexed": false,
					"internalType": "uint256",
					"name": "end",
					"type": "uint256"
				},
				{
					"indexed": false,
					"internalType": "uint256",
					"name": "totalRewardAmount",
					"type": "uint256"
				}
			],
			"name": "RewardScheduled",
			"type": "event"
		},
		{
			"anonymous": false,
			"inputs": [
				{
					"indexed": true,
					"internalType": "address",
					"name": "operator",
					"type": "address"
				},
				{
					"indexed": true,
					"internalType": "address",
					"name": "from",
					"type": "address"
				},
				{
					"indexed": true,
					"internalType": "address",
					"name": "to",
					"type": "address"
				},
				{
					"indexed": false,
					"internalType": "uint256[]",
					"name": "ids",
					"type": "uint256[]"
				},
				{
					"indexed": false,
					"internalType": "uint256[]",
					"name": "values",
					"type": "uint256[]"
				}
			],
			"name": "TransferBatch",
			"type": "event"
		},
		{
			"anonymous": false,
			"inputs": [
				{
					"indexed": true,
					"internalType": "address",
					"name": "operator",
					"type": "address"
				},
				{
					"indexed": true,
					"internalType": "address",
					"name": "from",
					"type": "address"
				},
				{
					"indexed": true,
					"internalType": "address",
					"name": "to",
					"type": "address"
				},
				{
					"indexed": false,
					"internalType": "uint256",
					"name": "id",
					"type": "uint256"
				},
				{
					"indexed": false,
					"internalType": "uint256",
					"name": "value",
					"type": "uint256"
				}
			],
			"name": "TransferSingle",
			"type": "event"
		},
		{
			"anonymous": false,
			"inputs": [
				{
					"indexed": false,
					"internalType": "string",
					"name": "value",
					"type": "string"
				},
				{
					"indexed": true,
					"internalType": "uint256",
					"name": "id",
					"type": "uint256"
				}
			],
			"name": "URI",
			"type": "event"
		},
		{
			"inputs": [],
			"name": "OPERATION_FEE_PERCENTAGE",
			"outputs": [
				{
					"internalType": "uint32",
					"name": "",
					"type": "uint32"
				}
			],
			"stateMutability": "view",
			"type": "function"
		},
		{
			"inputs": [],
			"name": "SCALE",
			"outputs": [
				{
					"internalType": "uint256",
					"name": "",
					"type": "uint256"
				}
			],
			"stateMutability": "view",
			"type": "function"
		},
		{
			"inputs": [
				{
					"internalType": "address",
					"name": "",
					"type": "address"
				}
			],
			"name": "accountFirstTimeReward",
			"outputs": [
				{
					"internalType": "uint256",
					"name": "celebId",
					"type": "uint256"
				},
				{
					"internalType": "uint256",
					"name": "rewardAmount",
					"type": "uint256"
				},
				{
					"internalType": "bool",
					"name": "claimed",
					"type": "bool"
				}
			],
			"stateMutability": "view",
			"type": "function"
		},
		{
			"inputs": [
				{
					"internalType": "uint256",
					"name": "_deposit",
					"type": "uint256"
				}
			],
			"name": "addRewardFunds",
			"outputs": [],
			"stateMutability": "nonpayable",
			"type": "function"
		},
		{
			"inputs": [],
			"name": "availableRewardFunds",
			"outputs": [
				{
					"internalType": "uint256",
					"name": "",
					"type": "uint256"
				}
			],
			"stateMutability": "view",
			"type": "function"
		},
		{
			"inputs": [
				{
					"internalType": "address",
					"name": "account",
					"type": "address"
				},
				{
					"internalType": "uint256",
					"name": "id",
					"type": "uint256"
				}
			],
			"name": "balanceOf",
			"outputs": [
				{
					"internalType": "uint256",
					"name": "",
					"type": "uint256"
				}
			],
			"stateMutability": "view",
			"type": "function"
		},
		{
			"inputs": [
				{
					"internalType": "address[]",
					"name": "accounts",
					"type": "address[]"
				},
				{
					"internalType": "uint256[]",
					"name": "ids",
					"type": "uint256[]"
				}
			],
			"name": "balanceOfBatch",
			"outputs": [
				{
					"internalType": "uint256[]",
					"name": "",
					"type": "uint256[]"
				}
			],
			"stateMutability": "view",
			"type": "function"
		},
		{
			"inputs": [
				{
					"internalType": "uint256",
					"name": "_id",
					"type": "uint256"
				},
				{
					"internalType": "uint256",
					"name": "_amount",
					"type": "uint256"
				}
			],
			"name": "burn",
			"outputs": [],
			"stateMutability": "nonpayable",
			"type": "function"
		},
		{
			"inputs": [
				{
					"internalType": "uint256",
					"name": "_id",
					"type": "uint256"
				},
				{
					"internalType": "uint256",
					"name": "_amount",
					"type": "uint256"
				}
			],
			"name": "calculateCurvedBurnReturn",
			"outputs": [
				{
					"internalType": "uint256",
					"name": "burnAmount",
					"type": "uint256"
				}
			],
			"stateMutability": "view",
			"type": "function"
		},
		{
			"inputs": [
				{
					"internalType": "uint256",
					"name": "_id",
					"type": "uint256"
				},
				{
					"internalType": "uint256",
					"name": "_amount",
					"type": "uint256"
				}
			],
			"name": "calculateCurvedMintReturn",
			"outputs": [
				{
					"internalType": "uint256",
					"name": "mintAmount",
					"type": "uint256"
				}
			],
			"stateMutability": "view",
			"type": "function"
		},
		{
			"inputs": [
				{
					"internalType": "uint256",
					"name": "_depositAmount",
					"type": "uint256"
				}
			],
			"name": "calculateFirstTimeRewardAmount",
			"outputs": [
				{
					"internalType": "uint256",
					"name": "",
					"type": "uint256"
				}
			],
			"stateMutability": "view",
			"type": "function"
		},
		{
			"inputs": [
				{
					"internalType": "uint256",
					"name": "_amount",
					"type": "uint256"
				}
			],
			"name": "calculateOperationFee",
			"outputs": [
				{
					"internalType": "uint256",
					"name": "operationFee",
					"type": "uint256"
				}
			],
			"stateMutability": "pure",
			"type": "function"
		},
		{
			"inputs": [
				{
					"internalType": "uint256",
					"name": "_supply",
					"type": "uint256"
				},
				{
					"internalType": "uint256",
					"name": "_reserveBalance",
					"type": "uint256"
				},
				{
					"internalType": "uint32",
					"name": "_reserveRatio",
					"type": "uint32"
				},
				{
					"internalType": "uint256",
					"name": "_depositAmount",
					"type": "uint256"
				}
			],
			"name": "calculatePurchaseReturn",
			"outputs": [
				{
					"internalType": "uint256",
					"name": "",
					"type": "uint256"
				}
			],
			"stateMutability": "view",
			"type": "function"
		},
		{
			"inputs": [
				{
					"internalType": "uint256",
					"name": "_id",
					"type": "uint256"
				},
				{
					"internalType": "uint256",
					"name": "_amount",
					"type": "uint256"
				}
			],
			"name": "calculatePurchaseReturnAfterDeductingFee",
			"outputs": [
				{
					"internalType": "uint256",
					"name": "purchaseReturn",
					"type": "uint256"
				}
			],
			"stateMutability": "view",
			"type": "function"
		},
		{
			"inputs": [
				{
					"internalType": "uint256",
					"name": "_rewardId",
					"type": "uint256"
				},
				{
					"internalType": "uint256",
					"name": "_accountBalance",
					"type": "uint256"
				}
			],
			"name": "calculateRewardAmount",
			"outputs": [
				{
					"internalType": "uint256",
					"name": "",
					"type": "uint256"
				}
			],
			"stateMutability": "view",
			"type": "function"
		},
		{
			"inputs": [
				{
					"internalType": "uint256",
					"name": "_supply",
					"type": "uint256"
				},
				{
					"internalType": "uint256",
					"name": "_reserveBalance",
					"type": "uint256"
				},
				{
					"internalType": "uint32",
					"name": "_reserveRatio",
					"type": "uint32"
				},
				{
					"internalType": "uint256",
					"name": "_sellAmount",
					"type": "uint256"
				}
			],
			"name": "calculateSaleReturn",
			"outputs": [
				{
					"internalType": "uint256",
					"name": "",
					"type": "uint256"
				}
			],
			"stateMutability": "view",
			"type": "function"
		},
		{
			"inputs": [
				{
					"internalType": "uint256",
					"name": "_id",
					"type": "uint256"
				},
				{
					"internalType": "uint256",
					"name": "_amount",
					"type": "uint256"
				}
			],
			"name": "calculateSellReturnAfterDeductingFee",
			"outputs": [
				{
					"internalType": "uint256",
					"name": "sellAmount",
					"type": "uint256"
				}
			],
			"stateMutability": "view",
			"type": "function"
		},
		{
			"inputs": [
				{
					"internalType": "address",
					"name": "_account",
					"type": "address"
				}
			],
			"name": "claimFirstTimeReward",
			"outputs": [],
			"stateMutability": "nonpayable",
			"type": "function"
		},
		{
			"inputs": [
				{
					"internalType": "address",
					"name": "_account",
					"type": "address"
				}
			],
			"name": "claimRewards",
			"outputs": [],
			"stateMutability": "nonpayable",
			"type": "function"
		},
		{
			"inputs": [
				{
					"internalType": "address",
					"name": "",
					"type": "address"
				}
			],
			"name": "claimed",
			"outputs": [
				{
					"internalType": "uint256",
					"name": "",
					"type": "uint256"
				}
			],
			"stateMutability": "view",
			"type": "function"
		},
		{
			"inputs": [],
			"name": "collectedOperationsFee",
			"outputs": [
				{
					"internalType": "uint256",
					"name": "",
					"type": "uint256"
				}
			],
			"stateMutability": "view",
			"type": "function"
		},
		{
			"inputs": [
				{
					"internalType": "uint256",
					"name": "id",
					"type": "uint256"
				}
			],
			"name": "exists",
			"outputs": [
				{
					"internalType": "bool",
					"name": "",
					"type": "bool"
				}
			],
			"stateMutability": "view",
			"type": "function"
		},
		{
			"inputs": [],
			"name": "firstTimeRewardPercentage",
			"outputs": [
				{
					"internalType": "uint256",
					"name": "",
					"type": "uint256"
				}
			],
			"stateMutability": "view",
			"type": "function"
		},
		{
			"inputs": [],
			"name": "getActiveRewardId",
			"outputs": [
				{
					"internalType": "uint256",
					"name": "rewardId",
					"type": "uint256"
				}
			],
			"stateMutability": "view",
			"type": "function"
		},
		{
			"inputs": [
				{
					"internalType": "uint256",
					"name": "_rewardId",
					"type": "uint256"
				}
			],
			"name": "getCelebIdToBeRewarded",
			"outputs": [
				{
					"internalType": "bool",
					"name": "celebIdFetched",
					"type": "bool"
				},
				{
					"internalType": "uint256",
					"name": "celebId",
					"type": "uint256"
				}
			],
			"stateMutability": "nonpayable",
			"type": "function"
		},
		{
			"inputs": [],
			"name": "getCountOfRegisteredCelebrities",
			"outputs": [
				{
					"internalType": "uint256",
					"name": "",
					"type": "uint256"
				}
			],
			"stateMutability": "view",
			"type": "function"
		},
		{
			"inputs": [
				{
					"internalType": "address",
					"name": "_account",
					"type": "address"
				}
			],
			"name": "getFirstTimeRewardAmount",
			"outputs": [
				{
					"internalType": "uint256",
					"name": "",
					"type": "uint256"
				}
			],
			"stateMutability": "view",
			"type": "function"
		},
		{
			"inputs": [
				{
					"internalType": "address",
					"name": "_account",
					"type": "address"
				}
			],
			"name": "hasMintedAtleastOnce",
			"outputs": [
				{
					"internalType": "bool",
					"name": "",
					"type": "bool"
				}
			],
			"stateMutability": "view",
			"type": "function"
		},
		{
			"inputs": [
				{
					"internalType": "address",
					"name": "account",
					"type": "address"
				},
				{
					"internalType": "address",
					"name": "operator",
					"type": "address"
				}
			],
			"name": "isApprovedForAll",
			"outputs": [
				{
					"internalType": "bool",
					"name": "",
					"type": "bool"
				}
			],
			"stateMutability": "view",
			"type": "function"
		},
		{
			"inputs": [
				{
					"internalType": "address",
					"name": "_account",
					"type": "address"
				}
			],
			"name": "isFirstTimeMinter",
			"outputs": [
				{
					"internalType": "bool",
					"name": "",
					"type": "bool"
				}
			],
			"stateMutability": "view",
			"type": "function"
		},
		{
			"inputs": [
				{
					"internalType": "address",
					"name": "_account",
					"type": "address"
				}
			],
			"name": "isFirstTimeRewardClaimed",
			"outputs": [
				{
					"internalType": "bool",
					"name": "",
					"type": "bool"
				}
			],
			"stateMutability": "view",
			"type": "function"
		},
		{
			"inputs": [],
			"name": "isRewardActive",
			"outputs": [
				{
					"internalType": "bool",
					"name": "",
					"type": "bool"
				}
			],
			"stateMutability": "view",
			"type": "function"
		},
		{
			"inputs": [
				{
					"internalType": "address",
					"name": "_account",
					"type": "address"
				},
				{
					"internalType": "uint256",
					"name": "_rewardId",
					"type": "uint256"
				}
			],
			"name": "isRewardClaimed",
			"outputs": [
				{
					"internalType": "bool",
					"name": "",
					"type": "bool"
				}
			],
			"stateMutability": "view",
			"type": "function"
		},
		{
			"inputs": [],
			"name": "isRewardScheduled",
			"outputs": [
				{
					"internalType": "bool",
					"name": "",
					"type": "bool"
				}
			],
			"stateMutability": "view",
			"type": "function"
		},
		{
			"inputs": [
				{
					"internalType": "uint256",
					"name": "_id",
					"type": "uint256"
				},
				{
					"internalType": "uint256",
					"name": "_deposit",
					"type": "uint256"
				}
			],
			"name": "mint",
			"outputs": [],
			"stateMutability": "payable",
			"type": "function"
		},
		{
			"inputs": [],
			"name": "nextRewardId",
			"outputs": [
				{
					"internalType": "uint256",
					"name": "",
					"type": "uint256"
				}
			],
			"stateMutability": "view",
			"type": "function"
		},
		{
			"inputs": [],
			"name": "owner",
			"outputs": [
				{
					"internalType": "address",
					"name": "",
					"type": "address"
				}
			],
			"stateMutability": "view",
			"type": "function"
		},
		{
			"inputs": [],
			"name": "registerNewCelebrity",
			"outputs": [
				{
					"internalType": "uint256",
					"name": "celebId",
					"type": "uint256"
				}
			],
			"stateMutability": "nonpayable",
			"type": "function"
		},
		{
			"inputs": [],
			"name": "renounceOwnership",
			"outputs": [],
			"stateMutability": "nonpayable",
			"type": "function"
		},
		{
			"inputs": [],
			"name": "requestRewardedCelebId",
			"outputs": [
				{
					"internalType": "bytes32",
					"name": "_requestId",
					"type": "bytes32"
				}
			],
			"stateMutability": "nonpayable",
			"type": "function"
		},
		{
			"inputs": [
				{
					"internalType": "uint256",
					"name": "",
					"type": "uint256"
				}
			],
			"name": "reserveBalance",
			"outputs": [
				{
					"internalType": "uint256",
					"name": "",
					"type": "uint256"
				}
			],
			"stateMutability": "view",
			"type": "function"
		},
		{
			"inputs": [],
			"name": "reserveRatio",
			"outputs": [
				{
					"internalType": "uint256",
					"name": "",
					"type": "uint256"
				}
			],
			"stateMutability": "view",
			"type": "function"
		},
		{
			"inputs": [
				{
					"internalType": "uint256",
					"name": "",
					"type": "uint256"
				}
			],
			"name": "rewards",
			"outputs": [
				{
					"internalType": "uint256",
					"name": "id",
					"type": "uint256"
				},
				{
					"internalType": "uint256",
					"name": "start",
					"type": "uint256"
				},
				{
					"internalType": "uint256",
					"name": "end",
					"type": "uint256"
				},
				{
					"internalType": "uint256",
					"name": "totalRewardAmount",
					"type": "uint256"
				},
				{
					"internalType": "uint256",
					"name": "celebId",
					"type": "uint256"
				},
				{
					"internalType": "uint256",
					"name": "totalRewardTokenSupply",
					"type": "uint256"
				},
				{
					"internalType": "bool",
					"name": "celebIdFetched",
					"type": "bool"
				}
			],
			"stateMutability": "view",
			"type": "function"
		},
		{
			"inputs": [
				{
					"internalType": "address",
					"name": "from",
					"type": "address"
				},
				{
					"internalType": "address",
					"name": "to",
					"type": "address"
				},
				{
					"internalType": "uint256[]",
					"name": "ids",
					"type": "uint256[]"
				},
				{
					"internalType": "uint256[]",
					"name": "values",
					"type": "uint256[]"
				},
				{
					"internalType": "bytes",
					"name": "data",
					"type": "bytes"
				}
			],
			"name": "safeBatchTransferFrom",
			"outputs": [],
			"stateMutability": "nonpayable",
			"type": "function"
		},
		{
			"inputs": [
				{
					"internalType": "address",
					"name": "from",
					"type": "address"
				},
				{
					"internalType": "address",
					"name": "to",
					"type": "address"
				},
				{
					"internalType": "uint256",
					"name": "id",
					"type": "uint256"
				},
				{
					"internalType": "uint256",
					"name": "value",
					"type": "uint256"
				},
				{
					"internalType": "bytes",
					"name": "data",
					"type": "bytes"
				}
			],
			"name": "safeTransferFrom",
			"outputs": [],
			"stateMutability": "nonpayable",
			"type": "function"
		},
		{
			"inputs": [
				{
					"internalType": "uint256",
					"name": "_start",
					"type": "uint256"
				},
				{
					"internalType": "uint256",
					"name": "_end",
					"type": "uint256"
				},
				{
					"internalType": "uint256",
					"name": "_commitRewardAmount",
					"type": "uint256"
				}
			],
			"name": "scheduleReward",
			"outputs": [],
			"stateMutability": "nonpayable",
			"type": "function"
		},
		{
			"inputs": [
				{
					"internalType": "address",
					"name": "operator",
					"type": "address"
				},
				{
					"internalType": "bool",
					"name": "approved",
					"type": "bool"
				}
			],
			"name": "setApprovalForAll",
			"outputs": [],
			"stateMutability": "nonpayable",
			"type": "function"
		},
		{
			"inputs": [
				{
					"internalType": "bytes4",
					"name": "interfaceId",
					"type": "bytes4"
				}
			],
			"name": "supportsInterface",
			"outputs": [
				{
					"internalType": "bool",
					"name": "",
					"type": "bool"
				}
			],
			"stateMutability": "view",
			"type": "function"
		},
		{
			"inputs": [],
			"name": "totalSupply",
			"outputs": [
				{
					"internalType": "uint256",
					"name": "",
					"type": "uint256"
				}
			],
			"stateMutability": "view",
			"type": "function"
		},
		{
			"inputs": [
				{
					"internalType": "uint256",
					"name": "id",
					"type": "uint256"
				}
			],
			"name": "totalSupply",
			"outputs": [
				{
					"internalType": "uint256",
					"name": "",
					"type": "uint256"
				}
			],
			"stateMutability": "view",
			"type": "function"
		},
		{
			"inputs": [
				{
					"internalType": "address",
					"name": "newOwner",
					"type": "address"
				}
			],
			"name": "transferOwnership",
			"outputs": [],
			"stateMutability": "nonpayable",
			"type": "function"
		},
		{
			"inputs": [
				{
					"internalType": "uint256",
					"name": "percent",
					"type": "uint256"
				}
			],
			"name": "updateFirstTimeRewardPercentage",
			"outputs": [],
			"stateMutability": "nonpayable",
			"type": "function"
		},
		{
			"inputs": [
				{
					"internalType": "uint256",
					"name": "",
					"type": "uint256"
				}
			],
			"name": "uri",
			"outputs": [
				{
					"internalType": "string",
					"name": "",
					"type": "string"
				}
			],
			"stateMutability": "view",
			"type": "function"
		},
		{
			"inputs": [],
			"name": "version",
			"outputs": [
				{
					"internalType": "string",
					"name": "",
					"type": "string"
				}
			],
			"stateMutability": "view",
			"type": "function"
		}
	]
}